{
  "address": "0xA3863886314A01A81aB9ec41802eC964C43ad434",
  "abi": [
    {
      "inputs": [
        {
          "internalType": "address",
          "name": "_registry",
          "type": "address"
        }
      ],
      "stateMutability": "nonpayable",
      "type": "constructor"
    },
    {
      "anonymous": false,
      "inputs": [
        {
          "indexed": true,
          "internalType": "uint256",
          "name": "maxDepositAmount",
          "type": "uint256"
        },
        {
          "indexed": true,
          "internalType": "address",
          "name": "caller",
          "type": "address"
        }
      ],
      "name": "LogMaxDepositAmount",
      "type": "event"
    },
    {
      "anonymous": false,
      "inputs": [
        {
          "indexed": true,
          "internalType": "uint256",
          "name": "maxDepositPoolPct",
          "type": "uint256"
        },
        {
          "indexed": true,
          "internalType": "address",
          "name": "caller",
          "type": "address"
        }
      ],
      "name": "LogMaxDepositPoolPct",
      "type": "event"
    },
    {
      "anonymous": false,
      "inputs": [
        {
          "indexed": true,
          "internalType": "enum MaxExposure",
          "name": "maxDepositProtocolMode",
          "type": "uint8"
        },
        {
          "indexed": true,
          "internalType": "address",
          "name": "caller",
          "type": "address"
        }
      ],
      "name": "LogMaxDepositProtocolMode",
      "type": "event"
    },
    {
      "anonymous": false,
      "inputs": [
        {
          "indexed": true,
          "internalType": "uint256",
          "name": "maxDepositProtocolPct",
          "type": "uint256"
        },
        {
          "indexed": true,
          "internalType": "address",
          "name": "caller",
          "type": "address"
        }
      ],
      "name": "LogMaxDepositProtocolPct",
      "type": "event"
    },
    {
      "inputs": [],
      "name": "ADDRESS_PROVIDER",
      "outputs": [
        {
          "internalType": "address",
          "name": "",
          "type": "address"
        }
      ],
      "stateMutability": "view",
      "type": "function"
    },
    {
      "inputs": [],
      "name": "ETH",
      "outputs": [
        {
          "internalType": "address",
          "name": "",
          "type": "address"
        }
      ],
      "stateMutability": "view",
      "type": "function"
    },
    {
      "inputs": [],
      "name": "ETH_ankrETH_STABLESWAP",
      "outputs": [
        {
          "internalType": "address",
          "name": "",
          "type": "address"
        }
      ],
      "stateMutability": "view",
      "type": "function"
    },
    {
      "inputs": [],
      "name": "ETH_rETH_STABLESWAP",
      "outputs": [
        {
          "internalType": "address",
          "name": "",
          "type": "address"
        }
      ],
      "stateMutability": "view",
      "type": "function"
    },
    {
      "inputs": [],
      "name": "ETH_sETH_STABLESWAP",
      "outputs": [
        {
          "internalType": "address",
          "name": "",
          "type": "address"
        }
      ],
      "stateMutability": "view",
      "type": "function"
    },
    {
      "inputs": [],
      "name": "ETH_stETH_STABLESWAP",
      "outputs": [
        {
          "internalType": "address",
          "name": "",
          "type": "address"
        }
      ],
      "stateMutability": "view",
      "type": "function"
    },
    {
      "inputs": [],
      "name": "HBTC",
      "outputs": [
        {
          "internalType": "address",
          "name": "",
          "type": "address"
        }
      ],
      "stateMutability": "view",
      "type": "function"
    },
    {
      "inputs": [],
      "name": "WETH",
      "outputs": [
        {
          "internalType": "address",
          "name": "",
          "type": "address"
        }
      ],
      "stateMutability": "view",
      "type": "function"
    },
    {
      "inputs": [],
      "name": "Y_SWAP_POOL",
      "outputs": [
        {
          "internalType": "address",
          "name": "",
          "type": "address"
        }
      ],
      "stateMutability": "view",
      "type": "function"
    },
    {
      "inputs": [
        {
          "internalType": "address",
          "name": "_underlyingToken",
          "type": "address"
        },
        {
          "internalType": "address",
          "name": "_liquidityPool",
          "type": "address"
        },
        {
          "internalType": "uint256",
          "name": "_underlyingTokenAmount",
          "type": "uint256"
        }
      ],
      "name": "calculateAmountInLPToken",
      "outputs": [
        {
          "internalType": "uint256",
          "name": "",
          "type": "uint256"
        }
      ],
      "stateMutability": "view",
      "type": "function"
    },
    {
      "inputs": [
        {
          "internalType": "address payable",
          "name": "_vault",
          "type": "address"
        },
        {
          "internalType": "address",
          "name": "_underlyingToken",
          "type": "address"
        },
        {
          "internalType": "address",
          "name": "_liquidityPool",
          "type": "address"
        },
        {
          "internalType": "uint256",
          "name": "_redeemAmount",
          "type": "uint256"
        }
      ],
      "name": "calculateRedeemableLPTokenAmount",
      "outputs": [
        {
          "internalType": "uint256",
          "name": "",
          "type": "uint256"
        }
      ],
      "stateMutability": "view",
      "type": "function"
    },
    {
      "inputs": [
        {
          "internalType": "address payable",
          "name": "_vault",
          "type": "address"
        },
        {
          "internalType": "address",
          "name": "_underlyingToken",
          "type": "address"
        },
        {
          "internalType": "address",
          "name": "_liquidityPool",
          "type": "address"
        },
        {
          "internalType": "uint256",
          "name": "_redeemAmount",
          "type": "uint256"
        }
      ],
      "name": "calculateRedeemableLPTokenAmountStake",
      "outputs": [
        {
          "internalType": "uint256",
          "name": "",
          "type": "uint256"
        }
      ],
      "stateMutability": "view",
      "type": "function"
    },
    {
      "inputs": [
        {
          "internalType": "address payable",
          "name": "_vault",
          "type": "address"
        },
        {
          "internalType": "address",
          "name": "_underlyingToken",
          "type": "address"
        },
        {
          "internalType": "address",
          "name": "_liquidityPool",
          "type": "address"
        },
        {
          "internalType": "uint256",
          "name": "_redeemAmount",
          "type": "uint256"
        }
      ],
      "name": "calculateRedeemableLPTokenAmountStakeWrite",
      "outputs": [
        {
          "internalType": "uint256",
          "name": "",
          "type": "uint256"
        }
      ],
      "stateMutability": "nonpayable",
      "type": "function"
    },
    {
      "inputs": [
        {
          "internalType": "address",
          "name": "_liquidityPool",
          "type": "address"
        }
      ],
      "name": "canStake",
      "outputs": [
        {
          "internalType": "bool",
          "name": "",
          "type": "bool"
        }
      ],
      "stateMutability": "view",
      "type": "function"
    },
    {
      "inputs": [],
      "name": "curveSwapETHGatewayContract",
      "outputs": [
        {
          "internalType": "address",
          "name": "",
          "type": "address"
        }
      ],
      "stateMutability": "view",
      "type": "function"
    },
    {
      "inputs": [
        {
          "internalType": "address payable",
          "name": "",
          "type": "address"
        },
        {
          "internalType": "address",
          "name": "",
          "type": "address"
        }
      ],
      "name": "getAddLiquidityCodes",
      "outputs": [
        {
          "internalType": "bytes[]",
          "name": "",
          "type": "bytes[]"
        }
      ],
      "stateMutability": "view",
      "type": "function"
    },
    {
      "inputs": [
        {
          "internalType": "address payable",
          "name": "_vault",
          "type": "address"
        },
        {
          "internalType": "address",
          "name": "_underlyingToken",
          "type": "address"
        },
        {
          "internalType": "address",
          "name": "_liquidityPool",
          "type": "address"
        }
      ],
      "name": "getAllAmountInToken",
      "outputs": [
        {
          "internalType": "uint256",
          "name": "",
          "type": "uint256"
        }
      ],
      "stateMutability": "view",
      "type": "function"
    },
    {
      "inputs": [
        {
          "internalType": "address payable",
          "name": "_vault",
          "type": "address"
        },
        {
          "internalType": "address",
          "name": "_underlyingToken",
          "type": "address"
        },
        {
          "internalType": "address",
          "name": "_liquidityPool",
          "type": "address"
        }
      ],
      "name": "getAllAmountInTokenStake",
      "outputs": [
        {
          "internalType": "uint256",
          "name": "",
          "type": "uint256"
        }
      ],
      "stateMutability": "view",
      "type": "function"
    },
    {
      "inputs": [
        {
          "internalType": "address payable",
          "name": "_vault",
          "type": "address"
        },
        {
          "internalType": "address",
          "name": "_underlyingToken",
          "type": "address"
        },
        {
          "internalType": "address",
          "name": "_liquidityPool",
          "type": "address"
        }
      ],
      "name": "getAllAmountInTokenStakeWrite",
      "outputs": [
        {
          "internalType": "uint256",
          "name": "",
          "type": "uint256"
        }
      ],
      "stateMutability": "nonpayable",
      "type": "function"
    },
    {
      "inputs": [
        {
          "internalType": "address payable",
          "name": "",
          "type": "address"
        },
        {
          "internalType": "address",
          "name": "_liquidityPool",
          "type": "address"
        }
      ],
      "name": "getClaimRewardTokenCode",
      "outputs": [
        {
          "internalType": "bytes[]",
          "name": "_codes",
          "type": "bytes[]"
        }
      ],
      "stateMutability": "view",
      "type": "function"
    },
    {
      "inputs": [
        {
          "internalType": "address payable",
          "name": "_vault",
          "type": "address"
        },
        {
          "internalType": "address",
          "name": "_underlyingToken",
          "type": "address"
        },
        {
          "internalType": "address",
          "name": "_liquidityPool",
          "type": "address"
        }
      ],
      "name": "getDepositAllCodes",
      "outputs": [
        {
          "internalType": "bytes[]",
          "name": "",
          "type": "bytes[]"
        }
      ],
      "stateMutability": "view",
      "type": "function"
    },
    {
      "inputs": [
        {
          "internalType": "address payable",
          "name": "_vault",
          "type": "address"
        },
        {
          "internalType": "address",
          "name": "_underlyingToken",
          "type": "address"
        },
        {
          "internalType": "address",
          "name": "_liquidityPool",
          "type": "address"
        },
        {
          "internalType": "uint256",
          "name": "_amount",
          "type": "uint256"
        }
      ],
      "name": "getDepositSomeCodes",
      "outputs": [
        {
          "internalType": "bytes[]",
          "name": "",
          "type": "bytes[]"
        }
      ],
      "stateMutability": "view",
      "type": "function"
    },
    {
      "inputs": [
        {
          "internalType": "address payable",
          "name": "_vault",
          "type": "address"
        },
        {
          "internalType": "address",
          "name": "_underlyingToken",
          "type": "address"
        },
        {
          "internalType": "address",
          "name": "_liquidityPool",
          "type": "address"
        }
      ],
      "name": "getHarvestAllCodes",
      "outputs": [
        {
          "internalType": "bytes[]",
          "name": "",
          "type": "bytes[]"
        }
      ],
      "stateMutability": "view",
      "type": "function"
    },
    {
      "inputs": [
        {
          "internalType": "address payable",
          "name": "_vault",
          "type": "address"
        },
        {
          "internalType": "address",
          "name": "_underlyingToken",
          "type": "address"
        },
        {
          "internalType": "address",
          "name": "_liquidityPool",
          "type": "address"
        },
        {
          "internalType": "uint256",
          "name": "_rewardTokenAmount",
          "type": "uint256"
        }
      ],
      "name": "getHarvestSomeCodes",
      "outputs": [
        {
          "internalType": "bytes[]",
          "name": "",
          "type": "bytes[]"
        }
      ],
      "stateMutability": "view",
      "type": "function"
    },
    {
      "inputs": [
        {
          "internalType": "address",
          "name": "",
          "type": "address"
        },
        {
          "internalType": "address",
          "name": "_liquidityPool",
          "type": "address"
        }
      ],
      "name": "getLiquidityPoolToken",
      "outputs": [
        {
          "internalType": "address",
          "name": "",
          "type": "address"
        }
      ],
      "stateMutability": "view",
      "type": "function"
    },
    {
      "inputs": [
        {
          "internalType": "address payable",
          "name": "_vault",
          "type": "address"
        },
        {
          "internalType": "address",
          "name": "",
          "type": "address"
        },
        {
          "internalType": "address",
          "name": "_liquidityPool",
          "type": "address"
        }
      ],
      "name": "getLiquidityPoolTokenBalance",
      "outputs": [
        {
          "internalType": "uint256",
          "name": "",
          "type": "uint256"
        }
      ],
      "stateMutability": "view",
      "type": "function"
    },
    {
      "inputs": [
        {
          "internalType": "address payable",
          "name": "_vault",
          "type": "address"
        },
        {
          "internalType": "address",
          "name": "_liquidityPool",
          "type": "address"
        }
      ],
      "name": "getLiquidityPoolTokenBalanceStake",
      "outputs": [
        {
          "internalType": "uint256",
          "name": "",
          "type": "uint256"
        }
      ],
      "stateMutability": "view",
      "type": "function"
    },
    {
      "inputs": [
        {
          "internalType": "address",
          "name": "_liquidityPool",
          "type": "address"
        },
        {
          "internalType": "address",
          "name": "",
          "type": "address"
        }
      ],
      "name": "getPoolValue",
      "outputs": [
        {
          "internalType": "uint256",
          "name": "",
          "type": "uint256"
        }
      ],
      "stateMutability": "view",
      "type": "function"
    },
    {
      "inputs": [
        {
          "internalType": "address",
          "name": "_liquidityPool",
          "type": "address"
        }
      ],
      "name": "getRewardToken",
      "outputs": [
        {
          "internalType": "address",
          "name": "",
          "type": "address"
        }
      ],
      "stateMutability": "view",
      "type": "function"
    },
    {
      "inputs": [
        {
          "internalType": "address",
          "name": "_underlyingToken",
          "type": "address"
        },
        {
          "internalType": "address",
          "name": "_liquidityPool",
          "type": "address"
        },
        {
          "internalType": "uint256",
          "name": "_liquidityPoolTokenAmount",
          "type": "uint256"
        }
      ],
      "name": "getSomeAmountInToken",
      "outputs": [
        {
          "internalType": "uint256",
          "name": "",
          "type": "uint256"
        }
      ],
      "stateMutability": "view",
      "type": "function"
    },
    {
      "inputs": [
        {
          "internalType": "address payable",
          "name": "_vault",
          "type": "address"
        },
        {
          "internalType": "address",
          "name": "",
          "type": "address"
        },
        {
          "internalType": "address",
          "name": "_liquidityPool",
          "type": "address"
        }
      ],
      "name": "getStakeAllCodes",
      "outputs": [
        {
          "internalType": "bytes[]",
          "name": "",
          "type": "bytes[]"
        }
      ],
      "stateMutability": "view",
      "type": "function"
    },
    {
      "inputs": [
        {
          "internalType": "address",
          "name": "_liquidityPool",
          "type": "address"
        },
        {
          "internalType": "uint256",
          "name": "_stakeAmount",
          "type": "uint256"
        }
      ],
      "name": "getStakeSomeCodes",
      "outputs": [
        {
          "internalType": "bytes[]",
          "name": "_codes",
          "type": "bytes[]"
        }
      ],
      "stateMutability": "view",
      "type": "function"
    },
    {
      "inputs": [
        {
          "internalType": "address payable",
          "name": "",
          "type": "address"
        },
        {
          "internalType": "address",
          "name": "_liquidityPool",
          "type": "address"
        },
        {
          "internalType": "address",
          "name": "",
          "type": "address"
        }
      ],
      "name": "getUnclaimedRewardTokenAmount",
      "outputs": [
        {
          "internalType": "uint256",
          "name": "",
          "type": "uint256"
        }
      ],
      "stateMutability": "view",
      "type": "function"
    },
    {
      "inputs": [
        {
          "internalType": "address payable",
          "name": "_vault",
          "type": "address"
        },
        {
          "internalType": "address",
          "name": "_liquidityPool",
          "type": "address"
        },
        {
          "internalType": "address",
          "name": "",
          "type": "address"
        }
      ],
      "name": "getUnclaimedRewardTokenAmountWrite",
      "outputs": [
        {
          "internalType": "uint256",
          "name": "",
          "type": "uint256"
        }
      ],
      "stateMutability": "nonpayable",
      "type": "function"
    },
    {
      "inputs": [
        {
          "internalType": "address",
          "name": "_liquidityPool",
          "type": "address"
        },
        {
          "internalType": "address",
          "name": "",
          "type": "address"
        }
      ],
      "name": "getUnderlyingTokens",
      "outputs": [
        {
          "internalType": "address[]",
          "name": "_underlyingTokens",
          "type": "address[]"
        }
      ],
      "stateMutability": "view",
      "type": "function"
    },
    {
      "inputs": [
        {
          "internalType": "address payable",
          "name": "_vault",
          "type": "address"
        },
        {
          "internalType": "address",
          "name": "_liquidityPool",
          "type": "address"
        }
      ],
      "name": "getUnstakeAllCodes",
      "outputs": [
        {
          "internalType": "bytes[]",
          "name": "",
          "type": "bytes[]"
        }
      ],
      "stateMutability": "view",
      "type": "function"
    },
    {
      "inputs": [
        {
          "internalType": "address payable",
          "name": "_vault",
          "type": "address"
        },
        {
          "internalType": "address",
          "name": "_underlyingToken",
          "type": "address"
        },
        {
          "internalType": "address",
          "name": "_liquidityPool",
          "type": "address"
        }
      ],
      "name": "getUnstakeAndWithdrawAllCodes",
      "outputs": [
        {
          "internalType": "bytes[]",
          "name": "",
          "type": "bytes[]"
        }
      ],
      "stateMutability": "view",
      "type": "function"
    },
    {
      "inputs": [
        {
          "internalType": "address payable",
          "name": "_vault",
          "type": "address"
        },
        {
          "internalType": "address",
          "name": "_underlyingToken",
          "type": "address"
        },
        {
          "internalType": "address",
          "name": "_liquidityPool",
          "type": "address"
        },
        {
          "internalType": "uint256",
          "name": "_redeemAmount",
          "type": "uint256"
        }
      ],
      "name": "getUnstakeAndWithdrawSomeCodes",
      "outputs": [
        {
          "internalType": "bytes[]",
          "name": "_codes",
          "type": "bytes[]"
        }
      ],
      "stateMutability": "view",
      "type": "function"
    },
    {
      "inputs": [
        {
          "internalType": "address",
          "name": "_liquidityPool",
          "type": "address"
        },
        {
          "internalType": "uint256",
          "name": "_unstakeAmount",
          "type": "uint256"
        }
      ],
      "name": "getUnstakeSomeCodes",
      "outputs": [
        {
          "internalType": "bytes[]",
          "name": "_codes",
          "type": "bytes[]"
        }
      ],
      "stateMutability": "view",
      "type": "function"
    },
    {
      "inputs": [
        {
          "internalType": "address payable",
          "name": "_vault",
          "type": "address"
        },
        {
          "internalType": "address",
          "name": "_underlyingToken",
          "type": "address"
        },
        {
          "internalType": "address",
          "name": "_liquidityPool",
          "type": "address"
        }
      ],
      "name": "getWithdrawAllCodes",
      "outputs": [
        {
          "internalType": "bytes[]",
          "name": "",
          "type": "bytes[]"
        }
      ],
      "stateMutability": "view",
      "type": "function"
    },
    {
      "inputs": [
        {
          "internalType": "address payable",
          "name": "_vault",
          "type": "address"
        },
        {
          "internalType": "address",
          "name": "_underlyingToken",
          "type": "address"
        },
        {
          "internalType": "address",
          "name": "_liquidityPool",
          "type": "address"
        },
        {
          "internalType": "uint256",
          "name": "_amount",
          "type": "uint256"
        }
      ],
      "name": "getWithdrawSomeCodes",
      "outputs": [
        {
          "internalType": "bytes[]",
          "name": "_codes",
          "type": "bytes[]"
        }
      ],
      "stateMutability": "view",
      "type": "function"
    },
    {
      "inputs": [
        {
          "internalType": "address payable",
          "name": "_vault",
          "type": "address"
        },
        {
          "internalType": "address",
          "name": "_underlyingToken",
          "type": "address"
        },
        {
          "internalType": "address",
          "name": "_liquidityPool",
          "type": "address"
        },
        {
          "internalType": "uint256",
          "name": "_redeemAmount",
          "type": "uint256"
        }
      ],
      "name": "isRedeemableAmountSufficient",
      "outputs": [
        {
          "internalType": "bool",
          "name": "",
          "type": "bool"
        }
      ],
      "stateMutability": "view",
      "type": "function"
    },
    {
      "inputs": [
        {
          "internalType": "address payable",
          "name": "_vault",
          "type": "address"
        },
        {
          "internalType": "address",
          "name": "_underlyingToken",
          "type": "address"
        },
        {
          "internalType": "address",
          "name": "_liquidityPool",
          "type": "address"
        },
        {
          "internalType": "uint256",
          "name": "_redeemAmount",
          "type": "uint256"
        }
      ],
      "name": "isRedeemableAmountSufficientStake",
      "outputs": [
        {
          "internalType": "bool",
          "name": "",
          "type": "bool"
        }
      ],
      "stateMutability": "view",
      "type": "function"
    },
    {
      "inputs": [
        {
          "internalType": "address payable",
          "name": "_vault",
          "type": "address"
        },
        {
          "internalType": "address",
          "name": "_underlyingToken",
          "type": "address"
        },
        {
          "internalType": "address",
          "name": "_liquidityPool",
          "type": "address"
        },
        {
          "internalType": "uint256",
          "name": "_redeemAmount",
          "type": "uint256"
        }
      ],
      "name": "isRedeemableAmountSufficientStakeWrite",
      "outputs": [
        {
          "internalType": "bool",
          "name": "",
          "type": "bool"
        }
      ],
      "stateMutability": "nonpayable",
      "type": "function"
    },
    {
      "inputs": [
        {
          "internalType": "address",
          "name": "",
          "type": "address"
        }
      ],
      "name": "maxDepositAmount",
      "outputs": [
        {
          "internalType": "uint256",
          "name": "",
          "type": "uint256"
        }
      ],
      "stateMutability": "view",
      "type": "function"
    },
    {
      "inputs": [
        {
          "internalType": "address",
          "name": "",
          "type": "address"
        }
      ],
      "name": "maxDepositPoolPct",
      "outputs": [
        {
          "internalType": "uint256",
          "name": "",
          "type": "uint256"
        }
      ],
      "stateMutability": "view",
      "type": "function"
    },
    {
      "inputs": [],
      "name": "maxDepositProtocolMode",
      "outputs": [
        {
          "internalType": "enum MaxExposure",
          "name": "",
          "type": "uint8"
        }
      ],
      "stateMutability": "view",
      "type": "function"
    },
    {
      "inputs": [],
      "name": "maxDepositProtocolPct",
      "outputs": [
        {
          "internalType": "uint256",
          "name": "",
          "type": "uint256"
        }
      ],
      "stateMutability": "view",
      "type": "function"
    },
    {
      "inputs": [],
      "name": "registryContract",
      "outputs": [
        {
          "internalType": "contract IRegistry",
          "name": "",
          "type": "address"
        }
      ],
      "stateMutability": "view",
      "type": "function"
    },
    {
      "inputs": [
        {
          "internalType": "address",
          "name": "_liquidityPool",
          "type": "address"
        },
        {
          "internalType": "address",
          "name": "",
          "type": "address"
        },
        {
          "internalType": "uint256",
          "name": "_maxDepositAmount",
          "type": "uint256"
        }
      ],
      "name": "setMaxDepositAmount",
      "outputs": [],
      "stateMutability": "nonpayable",
      "type": "function"
    },
    {
      "inputs": [
        {
          "internalType": "address",
          "name": "_liquidityPool",
          "type": "address"
        },
        {
          "internalType": "uint256",
          "name": "_maxDepositPoolPct",
          "type": "uint256"
        }
      ],
      "name": "setMaxDepositPoolPct",
      "outputs": [],
      "stateMutability": "nonpayable",
      "type": "function"
    },
    {
      "inputs": [
        {
          "internalType": "enum MaxExposure",
          "name": "_mode",
          "type": "uint8"
        }
      ],
      "name": "setMaxDepositProtocolMode",
      "outputs": [],
      "stateMutability": "nonpayable",
      "type": "function"
    },
    {
      "inputs": [
        {
          "internalType": "uint256",
          "name": "_maxDepositProtocolPct",
          "type": "uint256"
        }
      ],
      "name": "setMaxDepositProtocolPct",
      "outputs": [],
      "stateMutability": "nonpayable",
      "type": "function"
    },
    {
      "inputs": [
        {
          "internalType": "address",
          "name": "_registry",
          "type": "address"
        }
      ],
      "name": "setRegistry",
      "outputs": [],
      "stateMutability": "nonpayable",
      "type": "function"
    }
  ],
  "transactionHash": "0x149fa42d511fcf8b9151b7f22734e121ad8b406f222879e176c5af3c6a51423f",
  "args": [
    "0x99fa011e33a8c6196869dec7bc407e896ba67fe3"
  ],
  "bytecode": "0x60a06040523480156200001157600080fd5b50604051620054e8380380620054e883398101604081905262000034916200036c565b600080546001600160a01b0319166001600160a01b0383161790556040805160808101825273c5424b857f758e906013f3555dad202e4bdb4567815273a96a65c051bf88b4095ee1f2451c2a9d43f53ae2602082015273f9440930043eb3997fc70e1339dbb11f341de7a88183015273dc24316b9ae028f1497c275eb9192a3ea0f670226060820152905173c02aaa39b223fe8d0a0e5c4f27ead9083c756cc2918391620000e2906200035e565b620000f0939291906200039c565b604051809103906000f0801580156200010d573d6000803e3d6000fd5b5060601b6001600160601b0319166080526200012b6127106200013e565b62000137600162000237565b5062000428565b60008054906101000a90046001600160a01b03166001600160a01b0316637af0e5576040518163ffffffff1660e01b815260040160206040518083038186803b1580156200018b57600080fd5b505afa158015620001a0573d6000803e3d6000fd5b505050506040513d601f19601f82011682018060405250810190620001c691906200036c565b6001600160a01b0316336001600160a01b031614620002025760405162461bcd60e51b8152600401620001f990620003f1565b60405180910390fd5b6001819055604051339082907f19c60b0612798cc65bd298cd47e17d9fd07e74e0d3baa6c0019411bb334d9bda90600090a350565b60008054906101000a90046001600160a01b03166001600160a01b0316637af0e5576040518163ffffffff1660e01b815260040160206040518083038186803b1580156200028457600080fd5b505afa15801562000299573d6000803e3d6000fd5b505050506040513d601f19601f82011682018060405250810190620002bf91906200036c565b6001600160a01b0316336001600160a01b031614620002f25760405162461bcd60e51b8152600401620001f990620003f1565b6000805482919060ff60a01b1916600160a01b8360018111156200031257fe5b02179055506000543390600160a01b900460ff1660018111156200033257fe5b6040517f68e3b01155b193b02181f2c0ed491c934a74348d211ff023f8fc6ac5edf22aa090600090a350565b6112a6806200424283390190565b6000602082840312156200037e578081fd5b81516001600160a01b038116811462000395578182fd5b9392505050565b6001600160a01b03848116825283811660208084019190915260c083019190604084018560005b6004811015620003e4578151851683529183019190830190600101620003c3565b5050505050949350505050565b6020808252601e908201527f63616c6c6572206973206e6f7420746865207269736b4f70657261746f720000604082015260600190565b60805160601c613de86200045a60003980610bcd5280610c5b5280610e4e52806124b052806128625250613de86000f3fe608060405234801561001057600080fd5b50600436106103425760003560e01c80637c47b3f4116101b8578063afd908d911610104578063e49d5ecc116100a2578063f1aacbb71161007c578063f1aacbb7146106d2578063f2f5087e146106e5578063f49307ca146106ed578063fd1365ea1461070057610342565b8063e49d5ecc1461068c578063ee665bed1461069f578063ef856be9146106b257610342565b8063d6441046116100de578063d644104614610640578063d74baaf814610653578063da699f9614610666578063df9357221461067957610342565b8063afd908d914610607578063b3fe7f5a1461061a578063d463fcf61461062d57610342565b8063919b69d711610171578063a167a66e1161014b578063a167a66e146105d1578063a878c26a146105e4578063a91ee0dc146105ec578063ad5c4648146105ff57610342565b8063919b69d7146105a35780639bb30da6146105b65780639c115fd1146105be57610342565b80637c47b3f41461053a5780637df50ed81461054f5780638322fff2146105625780638476fdec1461056a57806385541e441461057d57806390e616051461059057610342565b8063489b52951161029257806360925779116102305780636d267d7c1161020a5780636d267d7c146104ee5780636ee6e4b41461050157806374df3b2f14610514578063770788721461052757610342565b806360925779146104c057806364dd5f80146104d357806367b8a4e7146104e657610342565b80634f83b52d1161026c5780634f83b52d1461047f578063537e1066146104925780635adca02e1461049a5780635e6502e0146104ad57610342565b8063489b5295146104515780634ad36e02146104645780634e14342a1461047757610342565b80632627a099116102ff5780632af06b96116102d95780632af06b96146103f65780632de778381461040b57806336d8bf931461041e5780633978c52b1461043e57610342565b80632627a099146103c857806328c1f99b146103db578063292ccf02146103e357610342565b80630c9d8d5c14610347578063179af4e5146103705780631848effa14610383578063191c194b14610398578063214ead2e146103ad57806323490689146103b5575b600080fd5b61035a61035536600461345d565b610713565b6040516103679190613a80565b60405180910390f35b61035a61037e36600461345d565b6107b4565b61038b6107d0565b604051610367919061391d565b6103a06107e4565b6040516103679190613d20565b61038b6107ea565b6103a06103c336600461345d565b610802565b6103a06103d636600461345d565b610816565b61038b610830565b61035a6103f13660046134a7565b61083f565b6103fe61094a565b6040516103679190613b93565b6103a06104193660046134f7565b61095a565b61043161042c3660046133ed565b610a76565b6040516103679190613b88565b6103a061044c3660046134a7565b610ab2565b61035a61045f36600461345d565b610af5565b6103a06104723660046134a7565b610b83565b61038b610ba1565b6103a061048d3660046133ed565b610bb9565b61038b610bcb565b6103a06104a83660046134a7565b610bef565b61035a6104bb366004613425565b610c0b565b61035a6104ce3660046134a7565b610c25565b6103a06104e136600461345d565b610efa565b61038b610f09565b61035a6104fc366004613425565b610f21565b6103a061050f36600461345d565b610ffb565b61035a61052236600461345d565b611016565b61038b6105353660046133ed565b611032565b61054d610548366004613812565b6110e8565b005b61035a61055d366004613425565b61120f565b61038b611217565b6104316105783660046134a7565b61122f565b6103a061058b366004613509565b611259565b6103a061059e36600461345d565b611540565b61054d6105b1366004613549565b6115c8565b61038b6116f3565b61035a6105cc366004613549565b61170b565b6104316105df3660046134a7565b6118cd565b61038b6118ea565b61054d6105fa3660046133ed565b611902565b61038b611a06565b6103a0610615366004613425565b611a1e565b6103a061062836600461345d565b611aac565b61035a61063b3660046134a7565b611ab5565b6103a061064e3660046133ed565b611bc8565b61038b6106613660046134f7565b611bda565b61054d610674366004613831565b611c5f565b61035a6106873660046134a7565b611d48565b61043161069a3660046134a7565b611d56565b6103a06106ad366004613509565b611d71565b6106c56106c03660046134f7565b611e07565b6040516103679190613a33565b61054d6106e0366004613509565b611ecd565b61038b611ff9565b61035a6106fb36600461345d565b612011565b61035a61070e366004613549565b61202f565b6060600061072083611032565b6001600160a01b03166370a08231866040518263ffffffff1660e01b815260040161074b919061391d565b60206040518083038186803b15801561076357600080fd5b505afa158015610777573d6000803e3d6000fd5b505050506040513d601f19601f8201168201806040525081019061079b9190613849565b90506107a985858584611ab5565b9150505b9392505050565b606060006107c28584611a1e565b90506107a98585858461083f565b6f22d53366457f9d5e68ec105046fc438381565b60015481565b730316eb71485b0ab14103307bf65a021042c6d38081565b600061080e84846120c8565b949350505050565b6000806108238584611a1e565b90506107a9848483611d71565b6000546001600160a01b031681565b6060811561080e5760408051600480825260a0820190925290816020015b606081526020019060019003908161085d57905050905061087e838361202f565b60008151811061088a57fe5b60200260200101518160008151811061089f57fe5b602002602001018190525060606108b886868686610c25565b9050806000815181106108c757fe5b6020026020010151826001815181106108dc57fe5b6020026020010181905250806001815181106108f457fe5b60200260200101518260028151811061090957fe5b60200260200101819052508060028151811061092157fe5b60200260200101518260038151811061093657fe5b602002602001018190525050949350505050565b600054600160a01b900460ff1681565b600080836001600160a01b031663bb7b8b806040518163ffffffff1660e01b815260040160206040518083038186803b15801561099657600080fd5b505afa1580156109aa573d6000803e3d6000fd5b505050506040513d601f19601f820116820180604052508101906109ce9190613849565b905060006109dd600086611bda565b6001600160a01b03166318160ddd6040518163ffffffff1660e01b815260040160206040518083038186803b158015610a1557600080fd5b505afa158015610a29573d6000803e3d6000fd5b505050506040513d601f19601f82011682018060405250810190610a4d9190613849565b9050610a6b670de0b6b3a7640000610a65848461216e565b906121a8565b925050505b92915050565b600080610a816121da565b90506000610a8f8483612262565b6001600160a01b031614610aa7576001915050610aad565b60009150505b919050565b600080610abf8685611a1e565b90506000610acf878787856122f3565b9050610aea6001610ae483610a65868961216e565b9061242b565b979650505050505050565b60606000836001600160a01b03166370a08231866040518263ffffffff1660e01b8152600401610b25919061391d565b60206040518083038186803b158015610b3d57600080fd5b505afa158015610b51573d6000803e3d6000fd5b505050506040513d601f19601f82011682018060405250810190610b759190613849565b90506107a985858584612450565b600080610b9286600086611540565b90506000610acf878787610efa565b73c5424b857f758e906013f3555dad202e4bdb456781565b60036020526000908152604090205481565b7f000000000000000000000000000000000000000000000000000000000000000081565b600080610bfc8685611a1e565b90506000610acf868684611d71565b60606000610c198484611a1e565b905061080e838261202f565b6060811561080e5760006001600160a01b03851673c02aaa39b223fe8d0a0e5c4f27ead9083c756cc214610c595783610c7b565b7f00000000000000000000000000000000000000000000000000000000000000005b90506000610c8a600086611bda565b60408051600380825260808201909252919250816020015b6060815260200190600190039081610ca257905050925080826000604051602401610cce929190613a1a565b60408051601f19818403018152918152602080830180516001600160e01b031663095ea7b360e01b1790529051610d07939291016139f6565b60405160208183030381529060405283600081518110610d2357fe5b6020026020010181905250808285604051602401610d42929190613a1a565b60408051601f19818403018152918152602080830180516001600160e01b031663095ea7b360e01b1790529051610d7b939291016139f6565b60405160208183030381529060405283600181518110610d9757fe5b60209081029190910101526001600160a01b03861673c02aaa39b223fe8d0a0e5c4f27ead9083c756cc214610e4c578184610dd28789612aed565b610ded6064610a65605f610de78d8d8d611d71565b9061216e565b604051602401610dff93929190613d3a565b60408051601f19818403018152918152602080830180516001600160e01b0316630d2680e960e11b1790529051610e38939291016139f6565b604051602081830303815290604052610ed8565b7f000000000000000000000000000000000000000000000000000000000000000087868387610e7b8a8c612aed565b604051602401610e8f95949392919061399b565b60408051601f19818403018152918152602080830180516001600160e01b0316631ff2027560e11b1790529051610ec8939291016139f6565b6040516020818303038152906040525b83600281518110610ee557fe5b60200260200101819052505050949350505050565b60008061082385600085611540565b73f9440930043eb3997fc70e1339dbb11f341de7a881565b60606000610f2d6121da565b90506000610f3b8483612262565b90506001600160a01b03811615610ff35760408051600180825281830190925290816020015b6060815260200190600190039081610f61579050509250610f8181612b9c565b81604051602401610f92919061391d565b60408051601f19818403018152918152602080830180516001600160e01b03166335313c2160e11b1790529051610fcb939291016139f6565b60405160208183030381529060405283600081518110610fe757fe5b60200260200101819052505b505092915050565b6000806110088584611a1e565b90506107a9858585846122f3565b6060600061102685600085611540565b90506107a9838261170b565b60008061103d6121da565b9050600061104b8483612262565b90506001600160a01b038116156110de5761106581612b9c565b6001600160a01b031663fc0c546a6040518163ffffffff1660e01b815260040160206040518083038186803b15801561109d57600080fd5b505afa1580156110b1573d6000803e3d6000fd5b505050506040513d601f19601f820116820180604052508101906110d59190613409565b92505050610aad565b5060009392505050565b60008054906101000a90046001600160a01b03166001600160a01b0316637af0e5576040518163ffffffff1660e01b815260040160206040518083038186803b15801561113457600080fd5b505afa158015611148573d6000803e3d6000fd5b505050506040513d601f19601f8201168201806040525081019061116c9190613409565b6001600160a01b0316336001600160a01b0316146111a55760405162461bcd60e51b815260040161119c90613ce9565b60405180910390fd5b6000805482919060ff60a01b1916600160a01b8360018111156111c457fe5b02179055506000543390600160a01b900460ff1660018111156111e357fe5b6040517f68e3b01155b193b02181f2c0ed491c934a74348d211ff023f8fc6ac5edf22aa090600090a350565b606092915050565b73eeeeeeeeeeeeeeeeeeeeeeeeeeeeeeeeeeeeeeee81565b60008061123c8685611a1e565b9050600061124b868684611d71565b909311159695505050505050565b600081156110de5760006112748461126f6121da565b612c0f565b905061127e613338565b61128f8561128a6121da565b612c95565b905060608267ffffffffffffffff811180156112aa57600080fd5b506040519080825280602002602001820160405280156112d4578160200160208202803683370190505b50905060005b8381101561132e57876001600160a01b03168382600881106112f857fe5b60200201516001600160a01b03161415611326578582828151811061131957fe5b6020026020010181815250505b6001016112da565b5082600214156113fd57856001600160a01b031663ed8e84f360405180604001604052808460008151811061135f57fe5b602002602001015181526020018460018151811061137957fe5b602002602001015181525060016040518363ffffffff1660e01b81526004016113a3929190613ae0565b60206040518083038186803b1580156113bb57600080fd5b505afa1580156113cf573d6000803e3d6000fd5b505050506040513d601f19601f820116820180604052508101906113f39190613849565b93505050506107ad565b826003141561148b57856001600160a01b0316633883e11960405180606001604052808460008151811061142d57fe5b602002602001015181526020018460018151811061144757fe5b602002602001015181526020018460028151811061146157fe5b602002602001015181525060016040518363ffffffff1660e01b81526004016113a3929190613b18565b826004141561153357856001600160a01b031663cf701ff76040518060800160405280846000815181106114bb57fe5b60200260200101518152602001846001815181106114d557fe5b60200260200101518152602001846002815181106114ef57fe5b602002602001015181526020018460038151811061150957fe5b602002602001015181525060016040518363ffffffff1660e01b81526004016113a3929190613b50565b5050505060009392505050565b600061154d600083611bda565b6001600160a01b03166370a08231856040518263ffffffff1660e01b8152600401611578919061391d565b60206040518083038186803b15801561159057600080fd5b505afa1580156115a4573d6000803e3d6000fd5b505050506040513d601f19601f8201168201806040525081019061080e9190613849565b60008054906101000a90046001600160a01b03166001600160a01b0316637af0e5576040518163ffffffff1660e01b815260040160206040518083038186803b15801561161457600080fd5b505afa158015611628573d6000803e3d6000fd5b505050506040513d601f19601f8201168201806040525081019061164c9190613409565b6001600160a01b0316336001600160a01b03161461167c5760405162461bcd60e51b815260040161119c90613ce9565b61168e826001600160a01b0316612d1a565b6116aa5760405162461bcd60e51b815260040161119c90613cc4565b6001600160a01b03821660009081526003602052604080822083905551339183917fac58e29a41d996caca756d050dce90806b277f0c939337653638329247e16f4c9190a35050565b732dded6da1bf5dbdf597c45fcfaa3194e53ecfeaf81565b60608115610a7057600061171d6121da565b9050600061172b8583612262565b9050600061173a600087611bda565b60408051600380825260808201909252919250816020015b60608152602001906001900390816117525790505093508082600060405160240161177e929190613a1a565b60408051601f19818403018152918152602080830180516001600160e01b031663095ea7b360e01b17905290516117b7939291016139f6565b604051602081830303815290604052846000815181106117d357fe5b60200260200101819052508082866040516024016117f2929190613a1a565b60408051601f19818403018152918152602080830180516001600160e01b031663095ea7b360e01b179052905161182b939291016139f6565b6040516020818303038152906040528460018151811061184757fe5b602002602001018190525081856040516024016118649190613d20565b60408051601f19818403018152918152602080830180516001600160e01b031663b6b55f2560e01b179052905161189d939291016139f6565b604051602081830303815290604052846002815181106118b957fe5b602002602001018190525050505092915050565b6000806118da8685611a1e565b9050600061124b878787856122f3565b73a96a65c051bf88b4095ee1f2451c2a9d43f53ae281565b60008054906101000a90046001600160a01b03166001600160a01b031663e7f43c686040518163ffffffff1660e01b815260040160206040518083038186803b15801561194e57600080fd5b505afa158015611962573d6000803e3d6000fd5b505050506040513d601f19601f820116820180604052508101906119869190613409565b6001600160a01b0316336001600160a01b0316146119b65760405162461bcd60e51b815260040161119c90613c15565b6119c8816001600160a01b0316612d1a565b6119e45760405162461bcd60e51b815260040161119c90613cc4565b600080546001600160a01b0319166001600160a01b0392909216919091179055565b73c02aaa39b223fe8d0a0e5c4f27ead9083c756cc281565b6000611a3182611a2c6121da565b612262565b6001600160a01b03166370a08231846040518263ffffffff1660e01b8152600401611a5c919061391d565b60206040518083038186803b158015611a7457600080fd5b505afa158015611a88573d6000803e3d6000fd5b505050506040513d601f19601f820116820180604052508101906107ad9190613849565b60009392505050565b6000546040805163450b674360e11b815290516060926001600160a01b031691638a16ce86916004808301926020929190829003018186803b158015611afa57600080fd5b505afa158015611b0e573d6000803e3d6000fd5b505050506040513d601f19601f82011682018060405250810190611b329190613409565b6001600160a01b031663218826cd86611b4a86611032565b87866040518563ffffffff1660e01b8152600401611b6b9493929190613971565b60006040518083038186803b158015611b8357600080fd5b505afa158015611b97573d6000803e3d6000fd5b505050506040513d6000823e601f3d908101601f19168201604052611bbf91908101906136c4565b95945050505050565b60026020526000908152604090205481565b6000611be46121da565b6001600160a01b03166337951049836040518263ffffffff1660e01b8152600401611c0f919061391d565b60206040518083038186803b158015611c2757600080fd5b505afa158015611c3b573d6000803e3d6000fd5b505050506040513d601f19601f820116820180604052508101906107ad9190613409565b60008054906101000a90046001600160a01b03166001600160a01b0316637af0e5576040518163ffffffff1660e01b815260040160206040518083038186803b158015611cab57600080fd5b505afa158015611cbf573d6000803e3d6000fd5b505050506040513d601f19601f82011682018060405250810190611ce39190613409565b6001600160a01b0316336001600160a01b031614611d135760405162461bcd60e51b815260040161119c90613ce9565b6001819055604051339082907f19c60b0612798cc65bd298cd47e17d9fd07e74e0d3baa6c0019411bb334d9bda90600090a350565b6060611bbf85858585612450565b600080611d64868686610efa565b9092111595945050505050565b600081156110de57826001600160a01b031663cc2b27d783611d938688612aed565b6040518363ffffffff1660e01b8152600401611db0929190613d29565b60206040518083038186803b158015611dc857600080fd5b505afa158015611ddc573d6000803e3d6000fd5b505050506040513d601f19601f82011682018060405250810190611e009190613849565b90506107ad565b60606000611e136121da565b9050611e1d613338565b611e278583612c95565b90506000611e358684612c0f565b90508067ffffffffffffffff81118015611e4e57600080fd5b50604051908082528060200260200182016040528015611e78578160200160208202803683370190505b50935060005b81811015611ec357828160088110611e9257fe5b6020020151858281518110611ea357fe5b6001600160a01b0390921660209283029190910190910152600101611e7e565b5050505092915050565b60008054906101000a90046001600160a01b03166001600160a01b0316637af0e5576040518163ffffffff1660e01b815260040160206040518083038186803b158015611f1957600080fd5b505afa158015611f2d573d6000803e3d6000fd5b505050506040513d601f19601f82011682018060405250810190611f519190613409565b6001600160a01b0316336001600160a01b031614611f815760405162461bcd60e51b815260040161119c90613ce9565b611f93836001600160a01b0316612d1a565b611faf5760405162461bcd60e51b815260040161119c90613cc4565b6001600160a01b03831660009081526002602052604080822083905551339183917f197807a6a2633dd9bde6550aca985cfc69e655e9130930314c0e9da01a75cc549190a3505050565b73dc24316b9ae028f1497c275eb9192a3ea0f6702281565b6060600061202185600085611540565b90506107a985858584610c25565b60608115610a705760006120416121da565b9050600061204f8583612262565b604080516001808252818301909252919250816020015b6060815260200190600190039081612066579050509250808460405160240161208f9190613d20565b60408051601f19818403018152918152602080830180516001600160e01b0316632e1a7d4d60e01b1790529051610fcb939291016139f6565b6000806120d783611a2c6121da565b90506001600160a01b038116156110de57604051633313458360e01b81526001600160a01b0382169063331345839061211490879060040161391d565b602060405180830381600087803b15801561212e57600080fd5b505af1158015612142573d6000803e3d6000fd5b505050506040513d601f19601f820116820180604052508101906121669190613849565b915050610a70565b60008261217d57506000610a70565b8282028284828161218a57fe5b04146107ad5760405162461bcd60e51b815260040161119c90613c83565b60008082116121c95760405162461bcd60e51b815260040161119c90613c4c565b8183816121d257fe5b049392505050565b60006f22d53366457f9d5e68ec105046fc43836001600160a01b031663a262904b6040518163ffffffff1660e01b815260040160206040518083038186803b15801561222557600080fd5b505afa158015612239573d6000803e3d6000fd5b505050506040513d601f19601f8201168201806040525081019061225d9190613409565b905090565b600061226c613357565b6040516356059ffb60e01b81526001600160a01b038416906356059ffb9061229890879060040161391d565b6102806040518083038186803b1580156122b157600080fd5b505afa1580156122c5573d6000803e3d6000fd5b505050506040513d601f19601f820116820180604052508101906122e99190613574565b5051949350505050565b600080612301858585611d71565b905061242160008054906101000a90046001600160a01b03166001600160a01b0316638a16ce866040518163ffffffff1660e01b815260040160206040518083038186803b15801561235257600080fd5b505afa158015612366573d6000803e3d6000fd5b505050506040513d601f19601f8201168201806040525081019061238a9190613409565b6001600160a01b0316639eb8aa316123a187611032565b886123ac8b8a6120c8565b6040518463ffffffff1660e01b81526004016123ca939291906139d2565b60206040518083038186803b1580156123e257600080fd5b505afa1580156123f6573d6000803e3d6000fd5b505050506040513d601f19601f8201168201806040525081019061241a9190613849565b829061242b565b9695505050505050565b6000828201838110156107ad5760405162461bcd60e51b815260040161119c90613ba7565b606060008061245d613338565b606060008061246d8a8a8a612d20565b955095509550955095509550600073c02aaa39b223fe8d0a0e5c4f27ead9083c756cc26001600160a01b03168b6001600160a01b0316146124ae57896124d0565b7f00000000000000000000000000000000000000000000000000000000000000005b90506001831115612ade578267ffffffffffffffff811180156124f257600080fd5b5060405190808252806020026020018201604052801561252657816020015b60608152602001906001900390816125115790505b5097506000805b8781101561277b57600073eeeeeeeeeeeeeeeeeeeeeeeeeeeeeeeeeeeeeeee88836008811061255857fe5b60200201516001600160a01b0316146125815787826008811061257757fe5b6020020151612597565b73c02aaa39b223fe8d0a0e5c4f27ead9083c756cc25b905060008783815181106125a757fe5b60200260200101511115612772576001600160a01b038116730316eb71485b0ab14103307bf65a021042c6d380141561266b5780848884815181106125e857fe5b6020026020010151604051602401612601929190613a1a565b60408051601f19818403018152918152602080830180516001600160e01b031663095ea7b360e01b179052905161263a939291016139f6565b6040516020818303038152906040528b848060010195508151811061265b57fe5b6020026020010181905250612772565b80846000604051602401612680929190613a1a565b60408051601f19818403018152918152602080830180516001600160e01b031663095ea7b360e01b17905290516126b9939291016139f6565b6040516020818303038152906040528b84806001019550815181106126da57fe5b602002602001018190525080848884815181106126f357fe5b602002602001015160405160240161270c929190613a1a565b60408051601f19818403018152918152602080830180516001600160e01b031663095ea7b360e01b1790529051612745939291016139f6565b6040516020818303038152906040528b848060010195508151811061276657fe5b60200260200101819052505b5060010161252d565b5060028714156129015761278d613376565b6040518060400160405280876000815181106127a557fe5b60200260200101518152602001876001815181106127bf57fe5b6020026020010151815250905060006127d960008e611bda565b90506001600160a01b038e1673c02aaa39b223fe8d0a0e5c4f27ead9083c756cc21461286057838286604051602401612813929190613afd565b60408051601f19818403018152918152602080830180516001600160e01b0316630b4c7e4d60e01b179052905161284c939291016139f6565b6040516020818303038152906040526128e3565b7f00000000000000000000000000000000000000000000000000000000000000008f8e83858e60405160240161289a959493929190613931565b60408051601f19818403018152918152602080830180516001600160e01b0316632c12c6b160e21b17905290516128d3939291016139f6565b6040516020818303038152906040525b8b84815181106128ef57fe5b60200260200101819052505050612adc565b60038714156129e457612912613394565b60405180606001604052808760008151811061292a57fe5b602002602001015181526020018760018151811061294457fe5b602002602001015181526020018760028151811061295e57fe5b6020026020010151815250905082818560405160240161297f929190613b35565b60408051601f19818403018152918152602080830180516001600160e01b0316634515cef360e01b17905290516129b8939291016139f6565b6040516020818303038152906040528a83815181106129d357fe5b602002602001018190525050612adc565b6004871415612adc576129f56133b2565b604051806080016040528087600081518110612a0d57fe5b6020026020010151815260200187600181518110612a2757fe5b6020026020010151815260200187600281518110612a4157fe5b6020026020010151815260200187600381518110612a5b57fe5b60200260200101518152509050828185604051602401612a7c929190613b6d565b60408051601f19818403018152918152602080830180516001600160e01b031662a6cbcd60e21b1790529051612ab4939291016139f6565b6040516020818303038152906040528a8381518110612acf57fe5b6020026020010181905250505b505b50505050505050949350505050565b6000806001600160a01b03831673c02aaa39b223fe8d0a0e5c4f27ead9083c756cc214612b1a5782612b30565b73eeeeeeeeeeeeeeeeeeeeeeeeeeeeeeeeeeeeeeee5b9050612b3a613338565b612b468561128a6121da565b905060005b6008811015612b9057826001600160a01b0316828260088110612b6a57fe5b60200201516001600160a01b03161415612b88579250610a70915050565b600101612b4b565b50600095945050505050565b6000816001600160a01b031663075461726040518163ffffffff1660e01b815260040160206040518083038186803b158015612bd757600080fd5b505afa158015612beb573d6000803e3d6000fd5b505050506040513d601f19601f82011682018060405250810190610a709190613409565b60405163940494f160e01b81526000906001600160a01b0383169063940494f190612c3e90869060040161391d565b604080518083038186803b158015612c5557600080fd5b505afa158015612c69573d6000803e3d6000fd5b505050506040513d601f19601f82011682018060405250810190612c8d91906137ac565b519392505050565b612c9d613338565b604051639ac90d3d60e01b81526001600160a01b03831690639ac90d3d90612cc990869060040161391d565b6101006040518083038186803b158015612ce257600080fd5b505afa158015612cf6573d6000803e3d6000fd5b505050506040513d601f19601f820116820180604052508101906107ad9190613653565b3b151590565b600080612d2b613338565b60606000806000612d3a6121da565b9050612d468982612c0f565b9550612d528982612c95565b945060006001600160a01b038b1673c02aaa39b223fe8d0a0e5c4f27ead9083c756cc214612d80578a612d96565b73eeeeeeeeeeeeeeeeeeeeeeeeeeeeeeeeeeeeeeee5b9050612da28a82612aed565b97508667ffffffffffffffff81118015612dbb57600080fd5b50604051908082528060200260200182016040528015612de5578160200160208202803683370190505b5094506001935060005b87811015612eaf57816001600160a01b0316878260088110612e0d57fe5b60200201516001600160a01b03161415612ea757612e2c8b8d8c6130e0565b868281518110612e3857fe5b6020026020010181815250506000868281518110612e5257fe5b60200260200101511115612ea757730316eb71485b0ab14103307bf65a021042c6d380878260088110612e8157fe5b60200201516001600160a01b03161415612ea057600190940193612ea7565b6002850194505b600101612def565b506002871415612f8557612f7e6064610a65605f8d6001600160a01b031663ed8e84f360405180604001604052808c600081518110612eea57fe5b602002602001015181526020018c600181518110612f0457fe5b602002602001015181525060016040518363ffffffff1660e01b8152600401612f2e929190613ae0565b60206040518083038186803b158015612f4657600080fd5b505afa158015612f5a573d6000803e3d6000fd5b505050506040513d601f19601f82011682018060405250810190610de79190613849565b92506130d2565b600387141561301d57612f7e6064610a65605f8d6001600160a01b0316633883e11960405180606001604052808c600081518110612fbf57fe5b602002602001015181526020018c600181518110612fd957fe5b602002602001015181526020018c600281518110612ff357fe5b602002602001015181525060016040518363ffffffff1660e01b8152600401612f2e929190613b18565b60048714156130d2576130cf6064610a65605f8d6001600160a01b031663cf701ff760405180608001604052808c60008151811061305757fe5b602002602001015181526020018c60018151811061307157fe5b602002602001015181526020018c60028151811061308b57fe5b602002602001015181526020018c6003815181106130a557fe5b602002602001015181525060016040518363ffffffff1660e01b8152600401612f2e929190613b50565b92505b505093975093979195509350565b60006001600054600160a01b900460ff1660018111156130fc57fe5b146131115761310c84848461311c565b61080e565b61080e8484846131d6565b600080836001600160a01b031663313ce5676040518163ffffffff1660e01b815260040160206040518083038186803b15801561315857600080fd5b505afa15801561316c573d6000803e3d6000fd5b505050506040513d601f19601f820116820180604052508101906131909190613861565b60ff16905060006131c76131a5601284613310565b6001600160a01b03881660009081526002602052604090205490600a0a6121a8565b9050808411611bbf5783612421565b6000806131e485600061095a565b9050600060036000876001600160a01b03166001600160a01b031681526020019081526020016000205490506000856001600160a01b031663313ce5676040518163ffffffff1660e01b815260040160206040518083038186803b15801561324b57600080fd5b505afa15801561325f573d6000803e3d6000fd5b505050506040513d601f19601f820116820180604052508101906132839190613861565b60ff16905060006132a2613298601284613310565b8790600a0a61216e565b9050600083156132c1576132bc612710610a65878761216e565b6132dc565b6132dc612710610a656001548861216e90919063ffffffff16565b90508082116132eb5786613303565b6133036132f9601285613310565b8290600a0a6121a8565b9998505050505050505050565b6000828211156133325760405162461bcd60e51b815260040161119c90613bde565b50900390565b6040518061010001604052806008906020820280368337509192915050565b604051806101400160405280600a906020820280368337509192915050565b60405180604001604052806002906020820280368337509192915050565b60405180606001604052806003906020820280368337509192915050565b60405180608001604052806004906020820280368337509192915050565b8051610a7081613dc3565b8051600f81900b8114610a7057600080fd5b6000602082840312156133fe578081fd5b81356107ad81613dc3565b60006020828403121561341a578081fd5b81516107ad81613dc3565b60008060408385031215613437578081fd5b823561344281613dc3565b9150602083013561345281613dc3565b809150509250929050565b600080600060608486031215613471578081fd5b833561347c81613dc3565b9250602084013561348c81613dc3565b9150604084013561349c81613dc3565b809150509250925092565b600080600080608085870312156134bc578081fd5b84356134c781613dc3565b935060208501356134d781613dc3565b925060408501356134e781613dc3565b9396929550929360600135925050565b60008060408385031215613437578182fd5b60008060006060848603121561351d578283fd5b833561352881613dc3565b9250602084013561353881613dc3565b929592945050506040919091013590565b6000806040838503121561355b578182fd5b823561356681613dc3565b946020939093013593505050565b600080610280808486031215613588578283fd5b84601f850112613596578283fd5b600a6135a96135a482613d7a565b613d53565b80866101408801898111156135bc578788fd5b875b858110156135e5576135d08b846133d0565b855260209485019492909201916001016135be565b508297508961015f8a01126135f8578687fd5b6136046135a486613d7a565b93508392509050878501891015613619578586fd5b8594505b838510156136445761362f89826133db565b8352600194909401936020928301920161361d565b50809450505050509250929050565b6000610100808385031215613666578182fd5b83601f840112613674578182fd5b61367d81613d53565b808486848701111561368d578485fd5b8493505b60088410156136ba5780516136a581613dc3565b83526001939093019260209283019201613691565b5095945050505050565b600060208083850312156136d6578182fd5b825167ffffffffffffffff808211156136ed578384fd5b8185019150601f8681840112613701578485fd5b82518281111561370f578586fd5b61371c8586830201613d53565b81815285810190858701885b8481101561379c57815188018c603f820112613742578a8bfd5b8981015188811115613752578b8cfd5b613763818901601f19168c01613d53565b81815260408f81848601011115613778578d8efd5b613787838e8401838701613d97565b50865250509288019290880190600101613728565b50909a9950505050505050505050565b6000604082840312156137bd578081fd5b82601f8301126137cb578081fd5b6137d56040613d53565b8083856040860111156137e6578384fd5b835b60028110156138075781518452602093840193909101906001016137e8565b509095945050505050565b600060208284031215613823578081fd5b8135600281106107ad578182fd5b600060208284031215613842578081fd5b5035919050565b60006020828403121561385a578081fd5b5051919050565b600060208284031215613872578081fd5b815160ff811681146107ad578182fd5b8060005b60028110156138a5578151845260209384019390910190600101613886565b50505050565b8060005b60038110156138a55781518452602093840193909101906001016138af565b8060005b60048110156138a55781518452602093840193909101906001016138d2565b60008151808452613909816020860160208601613d97565b601f01601f19169290920160200192915050565b6001600160a01b0391909116815260200190565b6001600160a01b03868116825285811660208301528416604082015260c0810161395e6060830185613882565b82600f0b60a08301529695505050505050565b6001600160a01b039485168152928416602084015292166040820152606081019190915260800190565b6001600160a01b03958616815293851660208501529190931660408301526060820192909252600f9190910b608082015260a00190565b6001600160a01b039384168152919092166020820152604081019190915260600190565b6001600160a01b038316815260406020820181905260009061080e908301846138f1565b6001600160a01b03929092168252602082015260400190565b6020808252825182820181905260009190848201906040850190845b81811015613a745783516001600160a01b031683529284019291840191600101613a4f565b50909695505050505050565b6000602080830181845280855180835260408601915060408482028701019250838701855b82811015613ad357603f19888603018452613ac18583516138f1565b94509285019290850190600101613aa5565b5092979650505050505050565b60608101613aee8285613882565b82151560408301529392505050565b60608101613b0b8285613882565b8260408301529392505050565b60808101613b2682856138ab565b82151560608301529392505050565b60808101613b4382856138ab565b8260608301529392505050565b60a08101613b5e82856138ce565b82151560808301529392505050565b60a08101613b7b82856138ce565b8260808301529392505050565b901515815260200190565b6020810160028310613ba157fe5b91905290565b6020808252601b908201527f536166654d6174683a206164646974696f6e206f766572666c6f770000000000604082015260600190565b6020808252601e908201527f536166654d6174683a207375627472616374696f6e206f766572666c6f770000604082015260600190565b6020808252601a908201527f63616c6c6572206973206e6f7420746865206f70657261746f72000000000000604082015260600190565b6020808252601a908201527f536166654d6174683a206469766973696f6e206279207a65726f000000000000604082015260600190565b60208082526021908201527f536166654d6174683a206d756c7469706c69636174696f6e206f766572666c6f6040820152607760f81b606082015260800190565b6020808252600b908201526a085a5cd0dbdb9d1c9858dd60aa1b604082015260600190565b6020808252601e908201527f63616c6c6572206973206e6f7420746865207269736b4f70657261746f720000604082015260600190565b90815260200190565b918252600f0b602082015260400190565b928352600f9190910b6020830152604082015260600190565b60405181810167ffffffffffffffff81118282101715613d7257600080fd5b604052919050565b600067ffffffffffffffff821115613d90578081fd5b5060200290565b60005b83811015613db2578181015183820152602001613d9a565b838111156138a55750506000910152565b6001600160a01b0381168114613dd857600080fd5b5056fea164736f6c634300060c000a60a06040523480156200001157600080fd5b50604051620012a6380380620012a68339810160408190526200003491620000df565b600080546001600160a01b0319166001600160a01b038416178155606084901b6001600160601b0319166080525b6004811015620000b75760018060008484600481106200007e57fe5b602090810291909101516001600160a01b03168252810191909152604001600020805460ff191691151591909117905560010162000062565b5050505062000196565b80516001600160a01b0381168114620000d957600080fd5b92915050565b600080600060c08486031215620000f4578283fd5b620001008585620000c1565b925060206200011286828701620000c1565b925085605f86011262000123578182fd5b604051608081016001600160401b038111828210171562000142578384fd5b806040525080604087018860c0890111156200015c578485fd5b845b60048110156200018757620001748a83620000c1565b835291840191908401906001016200015e565b50505080925050509250925092565b60805160601c6110da620001cc60003980608f52806103db528061046152806107ab52806107cf528061088552506110da6000f3fe60806040526004361061007f5760003560e01c8063a91ee0dc1161004e578063a91ee0dc146101a1578063affa8817146101c1578063b04b1ac4146101d6578063eed88b8d146101f6576100f1565b80631695ca4e1461010957806328c1f99b1461013f5780633fe404ea14610161578063a3d5b25514610181576100f1565b366100f157336001600160a01b037f00000000000000000000000000000000000000000000000000000000000000001614806100ca57503360009081526001602052604090205460ff165b6100ef5760405162461bcd60e51b81526004016100e690610f10565b60405180910390fd5b005b60405162461bcd60e51b81526004016100e690610ee2565b34801561011557600080fd5b50610129610124366004610c1d565b610216565b6040516101369190610ed7565b60405180910390f35b34801561014b57600080fd5b5061015461022b565b6040516101369190610e4e565b34801561016d57600080fd5b506100ef61017c366004610d0e565b61023a565b34801561018d57600080fd5b506100ef61019c366004610d72565b61056b565b3480156101ad57600080fd5b506100ef6101bc366004610c1d565b6106a5565b3480156101cd57600080fd5b506101546107a9565b3480156101e257600080fd5b506100ef6101f1366004610c55565b6107cd565b34801561020257600080fd5b506100ef610211366004610db2565b610a3c565b60016020526000908152604090205460ff1681565b6000546001600160a01b031681565b6040516323b872dd60e01b81526001600160a01b038416906323b872dd9061026a90889030908790600401610e62565b602060405180830381600087803b15801561028457600080fd5b505af1158015610298573d6000803e3d6000fd5b505050506040513d601f19601f820116820180604052508101906102bc9190610ddd565b506000610353606461034d605f886001600160a01b031663cc2b27d788886040518363ffffffff1660e01b81526004016102f7929190611047565b60206040518083038186803b15801561030f57600080fd5b505afa158015610323573d6000803e3d6000fd5b505050506040513d601f19601f820116820180604052508101906103479190610dfd565b90610afe565b90610b41565b604051630d2680e960e11b81529091506001600160a01b03861690631a4d01d29061038690869086908690600401611058565b602060405180830381600087803b1580156103a057600080fd5b505af11580156103b4573d6000803e3d6000fd5b505050506040513d601f19601f820116820180604052508101906103d89190610dfd565b507f00000000000000000000000000000000000000000000000000000000000000006001600160a01b031663d0e30db0476040518263ffffffff1660e01b81526004016000604051808303818588803b15801561043457600080fd5b505af1158015610448573d6000803e3d6000fd5b50506040516370a0823160e01b81526001600160a01b037f000000000000000000000000000000000000000000000000000000000000000016935063a9059cbb925089915083906370a08231906104a3903090600401610e4e565b60206040518083038186803b1580156104bb57600080fd5b505afa1580156104cf573d6000803e3d6000fd5b505050506040513d601f19601f820116820180604052508101906104f39190610dfd565b6040518363ffffffff1660e01b8152600401610510929190610e86565b602060405180830381600087803b15801561052a57600080fd5b505af115801561053e573d6000803e3d6000fd5b505050506040513d601f19601f820116820180604052508101906105629190610ddd565b50505050505050565b60008054906101000a90046001600160a01b03166001600160a01b031663e7f43c686040518163ffffffff1660e01b815260040160206040518083038186803b1580156105b757600080fd5b505afa1580156105cb573d6000803e3d6000fd5b505050506040513d601f19601f820116820180604052508101906105ef9190610c39565b6001600160a01b0316336001600160a01b03161461061f5760405162461bcd60e51b81526004016100e690610f3d565b60405163a9059cbb60e01b81526001600160a01b0384169063a9059cbb9061064d9085908590600401610e86565b602060405180830381600087803b15801561066757600080fd5b505af115801561067b573d6000803e3d6000fd5b505050506040513d601f19601f8201168201806040525081019061069f9190610ddd565b50505050565b60008054906101000a90046001600160a01b03166001600160a01b031663e7f43c686040518163ffffffff1660e01b815260040160206040518083038186803b1580156106f157600080fd5b505afa158015610705573d6000803e3d6000fd5b505050506040513d601f19601f820116820180604052508101906107299190610c39565b6001600160a01b0316336001600160a01b0316146107595760405162461bcd60e51b81526004016100e690610f3d565b61076b816001600160a01b0316610b73565b6107875760405162461bcd60e51b81526004016100e690610fec565b600080546001600160a01b0319166001600160a01b0392909216919091179055565b7f000000000000000000000000000000000000000000000000000000000000000090565b7f00000000000000000000000000000000000000000000000000000000000000006001600160a01b03166323b872dd86308585600f0b6002811061080d57fe5b60200201516040518463ffffffff1660e01b815260040161083093929190610e62565b602060405180830381600087803b15801561084a57600080fd5b505af115801561085e573d6000803e3d6000fd5b505050506040513d601f19601f820116820180604052508101906108829190610ddd565b507f00000000000000000000000000000000000000000000000000000000000000006001600160a01b0316632e1a7d4d8383600f0b600281106108c157fe5b60200201516040518263ffffffff1660e01b81526004016108e2919061103e565b600060405180830381600087803b1580156108fc57600080fd5b505af1158015610910573d6000803e3d6000fd5b5050505060006109826109576064876001600160a01b031663bb7b8b806040518163ffffffff1660e01b815260040160206040518083038186803b15801561030f57600080fd5b61034d605f610347670de0b6b3a76400008888600f0b6002811061097757fe5b602002015190610afe565b9050846001600160a01b0316630b4c7e4d4785846040518463ffffffff1660e01b81526004016109b3929190610e9f565b6020604051808303818588803b1580156109cc57600080fd5b505af11580156109e0573d6000803e3d6000fd5b50505050506040513d601f19601f82011682018060405250810190610a059190610dfd565b506040516370a0823160e01b81526001600160a01b0385169063a9059cbb90889083906370a08231906104a3903090600401610e4e565b60008054906101000a90046001600160a01b03166001600160a01b031663e7f43c686040518163ffffffff1660e01b815260040160206040518083038186803b158015610a8857600080fd5b505afa158015610a9c573d6000803e3d6000fd5b505050506040513d601f19601f82011682018060405250810190610ac09190610c39565b6001600160a01b0316336001600160a01b031614610af05760405162461bcd60e51b81526004016100e690610f3d565b610afa8282610b79565b5050565b600082610b0d57506000610b3b565b82820282848281610b1a57fe5b0414610b385760405162461bcd60e51b81526004016100e690610fab565b90505b92915050565b6000808211610b625760405162461bcd60e51b81526004016100e690610f74565b818381610b6b57fe5b049392505050565b3b151590565b604080516000808252602082019092526001600160a01b038416908390604051610ba39190610e15565b60006040518083038185875af1925050503d8060008114610be0576040519150601f19603f3d011682016040523d82523d6000602084013e610be5565b606091505b5050905080610c065760405162461bcd60e51b81526004016100e690611011565b505050565b8035600f81900b8114610b3b57600080fd5b600060208284031215610c2e578081fd5b8135610b38816110b5565b600060208284031215610c4a578081fd5b8151610b38816110b5565b600080600080600060c08688031215610c6c578081fd5b8535610c77816110b5565b9450602086810135610c88816110b5565b94506040870135610c98816110b5565b9350607f87018813610ca8578182fd5b6002610cbb610cb682611098565b611071565b8060608a0160a08b018c811115610cd0578687fd5b865b85811015610cee57823585529386019391860191600101610cd2565b50829750610cfc8d82610c0b565b96505050505050509295509295909350565b600080600080600060a08688031215610d25578081fd5b8535610d30816110b5565b94506020860135610d40816110b5565b93506040860135610d50816110b5565b925060608601359150610d668760808801610c0b565b90509295509295909350565b600080600060608486031215610d86578283fd5b8335610d91816110b5565b92506020840135610da1816110b5565b929592945050506040919091013590565b60008060408385031215610dc4578182fd5b8235610dcf816110b5565b946020939093013593505050565b600060208284031215610dee578081fd5b81518015158114610b38578182fd5b600060208284031215610e0e578081fd5b5051919050565b60008251815b81811015610e355760208186018101518583015201610e1b565b81811115610e435782828501525b509190910192915050565b6001600160a01b0391909116815260200190565b6001600160a01b039384168152919092166020820152604081019190915260600190565b6001600160a01b03929092168252602082015260400190565b60608101818460005b6002811015610ec7578151835260209283019290910190600101610ea8565b5050508260408301529392505050565b901515815260200190565b60208082526014908201527311985b1b189858dac81b9bdd08185b1b1bddd95960621b604082015260600190565b602080825260139082015272149958d95a5d99481b9bdd08185b1b1bddd959606a1b604082015260600190565b6020808252601a908201527f63616c6c6572206973206e6f7420746865206f70657261746f72000000000000604082015260600190565b6020808252601a908201527f536166654d6174683a206469766973696f6e206279207a65726f000000000000604082015260600190565b60208082526021908201527f536166654d6174683a206d756c7469706c69636174696f6e206f766572666c6f6040820152607760f81b606082015260800190565b6020808252600b908201526a085a5cd0dbdb9d1c9858dd60aa1b604082015260600190565b60208082526013908201527211551217d514905394d1915497d19052531151606a1b604082015260600190565b90815260200190565b918252600f0b602082015260400190565b928352600f9190910b6020830152604082015260600190565b60405181810167ffffffffffffffff8111828210171561109057600080fd5b604052919050565b600067ffffffffffffffff8211156110ae578081fd5b5060200290565b6001600160a01b03811681146110ca57600080fd5b5056fea164736f6c634300060c000a"
}