{
  "address": "0xdF2C9099d016fdDc2aF5A646D91393a1cD48Edee",
  "abi": [
    {
      "inputs": [
        {
          "internalType": "address",
          "name": "_registry",
          "type": "address"
        }
      ],
      "stateMutability": "nonpayable",
      "type": "constructor"
    },
    {
      "anonymous": false,
      "inputs": [
        {
          "indexed": true,
          "internalType": "uint256",
          "name": "maxDepositAmount",
          "type": "uint256"
        },
        {
          "indexed": true,
          "internalType": "address",
          "name": "caller",
          "type": "address"
        }
      ],
      "name": "LogMaxDepositAmount",
      "type": "event"
    },
    {
      "anonymous": false,
      "inputs": [
        {
          "indexed": true,
          "internalType": "uint256",
          "name": "maxDepositPoolPct",
          "type": "uint256"
        },
        {
          "indexed": true,
          "internalType": "address",
          "name": "caller",
          "type": "address"
        }
      ],
      "name": "LogMaxDepositPoolPct",
      "type": "event"
    },
    {
      "anonymous": false,
      "inputs": [
        {
          "indexed": true,
          "internalType": "enum MaxExposure",
          "name": "maxDepositProtocolMode",
          "type": "uint8"
        },
        {
          "indexed": true,
          "internalType": "address",
          "name": "caller",
          "type": "address"
        }
      ],
      "name": "LogMaxDepositProtocolMode",
      "type": "event"
    },
    {
      "anonymous": false,
      "inputs": [
        {
          "indexed": true,
          "internalType": "uint256",
          "name": "maxDepositProtocolPct",
          "type": "uint256"
        },
        {
          "indexed": true,
          "internalType": "address",
          "name": "caller",
          "type": "address"
        }
      ],
      "name": "LogMaxDepositProtocolPct",
      "type": "event"
    },
    {
      "inputs": [],
      "name": "HBTC",
      "outputs": [
        {
          "internalType": "address",
          "name": "",
          "type": "address"
        }
      ],
      "stateMutability": "view",
      "type": "function"
    },
    {
      "inputs": [],
      "name": "METAPOOL_FACTORY",
      "outputs": [
        {
          "internalType": "address",
          "name": "",
          "type": "address"
        }
      ],
      "stateMutability": "view",
      "type": "function"
    },
    {
      "inputs": [
        {
          "internalType": "address",
          "name": "_underlyingToken",
          "type": "address"
        },
        {
          "internalType": "address",
          "name": "_swapPool",
          "type": "address"
        },
        {
          "internalType": "uint256",
          "name": "_underlyingTokenAmount",
          "type": "uint256"
        }
      ],
      "name": "calculateAmountInLPToken",
      "outputs": [
        {
          "internalType": "uint256",
          "name": "_amount",
          "type": "uint256"
        }
      ],
      "stateMutability": "view",
      "type": "function"
    },
    {
      "inputs": [
        {
          "internalType": "address payable",
          "name": "_vault",
          "type": "address"
        },
        {
          "internalType": "address",
          "name": "_underlyingToken",
          "type": "address"
        },
        {
          "internalType": "address",
          "name": "_swapPool",
          "type": "address"
        },
        {
          "internalType": "uint256",
          "name": "_redeemAmount",
          "type": "uint256"
        }
      ],
      "name": "calculateRedeemableLPTokenAmount",
      "outputs": [
        {
          "internalType": "uint256",
          "name": "",
          "type": "uint256"
        }
      ],
      "stateMutability": "view",
      "type": "function"
    },
    {
      "inputs": [
        {
          "internalType": "address",
          "name": "",
          "type": "address"
        }
      ],
      "name": "canStake",
      "outputs": [
        {
          "internalType": "bool",
          "name": "",
          "type": "bool"
        }
      ],
      "stateMutability": "pure",
      "type": "function"
    },
    {
      "inputs": [
        {
          "internalType": "address payable",
          "name": "_vault",
          "type": "address"
        },
        {
          "internalType": "address",
          "name": "_underlyingToken",
          "type": "address"
        },
        {
          "internalType": "address",
          "name": "_swapPool",
          "type": "address"
        }
      ],
      "name": "getAllAmountInToken",
      "outputs": [
        {
          "internalType": "uint256",
          "name": "",
          "type": "uint256"
        }
      ],
      "stateMutability": "view",
      "type": "function"
    },
    {
      "inputs": [
        {
          "internalType": "address payable",
          "name": "_vault",
          "type": "address"
        },
        {
          "internalType": "address",
          "name": "_underlyingToken",
          "type": "address"
        },
        {
          "internalType": "address",
          "name": "_swapPool",
          "type": "address"
        }
      ],
      "name": "getDepositAllCodes",
      "outputs": [
        {
          "internalType": "bytes[]",
          "name": "",
          "type": "bytes[]"
        }
      ],
      "stateMutability": "view",
      "type": "function"
    },
    {
      "inputs": [
        {
          "internalType": "address payable",
          "name": "_vault",
          "type": "address"
        },
        {
          "internalType": "address",
          "name": "_underlyingToken",
          "type": "address"
        },
        {
          "internalType": "address",
          "name": "_swapPool",
          "type": "address"
        },
        {
          "internalType": "uint256",
          "name": "_amount",
          "type": "uint256"
        }
      ],
      "name": "getDepositSomeCodes",
      "outputs": [
        {
          "internalType": "bytes[]",
          "name": "",
          "type": "bytes[]"
        }
      ],
      "stateMutability": "view",
      "type": "function"
    },
    {
      "inputs": [
        {
          "internalType": "address",
          "name": "",
          "type": "address"
        },
        {
          "internalType": "address",
          "name": "_swapPool",
          "type": "address"
        }
      ],
      "name": "getLiquidityPoolToken",
      "outputs": [
        {
          "internalType": "address",
          "name": "",
          "type": "address"
        }
      ],
      "stateMutability": "pure",
      "type": "function"
    },
    {
      "inputs": [
        {
          "internalType": "address payable",
          "name": "_vault",
          "type": "address"
        },
        {
          "internalType": "address",
          "name": "",
          "type": "address"
        },
        {
          "internalType": "address",
          "name": "_swapPool",
          "type": "address"
        }
      ],
      "name": "getLiquidityPoolTokenBalance",
      "outputs": [
        {
          "internalType": "uint256",
          "name": "",
          "type": "uint256"
        }
      ],
      "stateMutability": "view",
      "type": "function"
    },
    {
      "inputs": [
        {
          "internalType": "address",
          "name": "_swapPool",
          "type": "address"
        },
        {
          "internalType": "address",
          "name": "",
          "type": "address"
        }
      ],
      "name": "getPoolValue",
      "outputs": [
        {
          "internalType": "uint256",
          "name": "",
          "type": "uint256"
        }
      ],
      "stateMutability": "view",
      "type": "function"
    },
    {
      "inputs": [
        {
          "internalType": "address",
          "name": "",
          "type": "address"
        }
      ],
      "name": "getRewardToken",
      "outputs": [
        {
          "internalType": "address",
          "name": "",
          "type": "address"
        }
      ],
      "stateMutability": "pure",
      "type": "function"
    },
    {
      "inputs": [
        {
          "internalType": "address",
          "name": "_underlyingToken",
          "type": "address"
        },
        {
          "internalType": "address",
          "name": "_swapPool",
          "type": "address"
        },
        {
          "internalType": "uint256",
          "name": "_liquidityPoolTokenAmount",
          "type": "uint256"
        }
      ],
      "name": "getSomeAmountInToken",
      "outputs": [
        {
          "internalType": "uint256",
          "name": "",
          "type": "uint256"
        }
      ],
      "stateMutability": "view",
      "type": "function"
    },
    {
      "inputs": [
        {
          "internalType": "address",
          "name": "_swapPool",
          "type": "address"
        },
        {
          "internalType": "address",
          "name": "",
          "type": "address"
        }
      ],
      "name": "getUnderlyingTokens",
      "outputs": [
        {
          "internalType": "address[]",
          "name": "_underlyingTokens",
          "type": "address[]"
        }
      ],
      "stateMutability": "view",
      "type": "function"
    },
    {
      "inputs": [
        {
          "internalType": "address payable",
          "name": "_vault",
          "type": "address"
        },
        {
          "internalType": "address",
          "name": "_underlyingToken",
          "type": "address"
        },
        {
          "internalType": "address",
          "name": "_swapPool",
          "type": "address"
        }
      ],
      "name": "getWithdrawAllCodes",
      "outputs": [
        {
          "internalType": "bytes[]",
          "name": "",
          "type": "bytes[]"
        }
      ],
      "stateMutability": "view",
      "type": "function"
    },
    {
      "inputs": [
        {
          "internalType": "address payable",
          "name": "",
          "type": "address"
        },
        {
          "internalType": "address",
          "name": "_underlyingToken",
          "type": "address"
        },
        {
          "internalType": "address",
          "name": "_swapPool",
          "type": "address"
        },
        {
          "internalType": "uint256",
          "name": "_amount",
          "type": "uint256"
        }
      ],
      "name": "getWithdrawSomeCodes",
      "outputs": [
        {
          "internalType": "bytes[]",
          "name": "_codes",
          "type": "bytes[]"
        }
      ],
      "stateMutability": "view",
      "type": "function"
    },
    {
      "inputs": [
        {
          "internalType": "address payable",
          "name": "_vault",
          "type": "address"
        },
        {
          "internalType": "address",
          "name": "_underlyingToken",
          "type": "address"
        },
        {
          "internalType": "address",
          "name": "_swapPool",
          "type": "address"
        },
        {
          "internalType": "uint256",
          "name": "_redeemAmount",
          "type": "uint256"
        }
      ],
      "name": "isRedeemableAmountSufficient",
      "outputs": [
        {
          "internalType": "bool",
          "name": "",
          "type": "bool"
        }
      ],
      "stateMutability": "view",
      "type": "function"
    },
    {
      "inputs": [
        {
          "internalType": "address",
          "name": "",
          "type": "address"
        }
      ],
      "name": "maxDepositAmount",
      "outputs": [
        {
          "internalType": "uint256",
          "name": "",
          "type": "uint256"
        }
      ],
      "stateMutability": "view",
      "type": "function"
    },
    {
      "inputs": [
        {
          "internalType": "address",
          "name": "",
          "type": "address"
        }
      ],
      "name": "maxDepositPoolPct",
      "outputs": [
        {
          "internalType": "uint256",
          "name": "",
          "type": "uint256"
        }
      ],
      "stateMutability": "view",
      "type": "function"
    },
    {
      "inputs": [],
      "name": "maxDepositProtocolMode",
      "outputs": [
        {
          "internalType": "enum MaxExposure",
          "name": "",
          "type": "uint8"
        }
      ],
      "stateMutability": "view",
      "type": "function"
    },
    {
      "inputs": [],
      "name": "maxDepositProtocolPct",
      "outputs": [
        {
          "internalType": "uint256",
          "name": "",
          "type": "uint256"
        }
      ],
      "stateMutability": "view",
      "type": "function"
    },
    {
      "inputs": [],
      "name": "registryContract",
      "outputs": [
        {
          "internalType": "contract IAdapterRegistryBase",
          "name": "",
          "type": "address"
        }
      ],
      "stateMutability": "view",
      "type": "function"
    },
    {
      "inputs": [
        {
          "internalType": "address",
          "name": "_swapPool",
          "type": "address"
        },
        {
          "internalType": "address",
          "name": "",
          "type": "address"
        },
        {
          "internalType": "uint256",
          "name": "_maxDepositAmount",
          "type": "uint256"
        }
      ],
      "name": "setMaxDepositAmount",
      "outputs": [],
      "stateMutability": "nonpayable",
      "type": "function"
    },
    {
      "inputs": [
        {
          "internalType": "address",
          "name": "_swapPool",
          "type": "address"
        },
        {
          "internalType": "uint256",
          "name": "_maxDepositPoolPct",
          "type": "uint256"
        }
      ],
      "name": "setMaxDepositPoolPct",
      "outputs": [],
      "stateMutability": "nonpayable",
      "type": "function"
    },
    {
      "inputs": [
        {
          "internalType": "enum MaxExposure",
          "name": "_mode",
          "type": "uint8"
        }
      ],
      "name": "setMaxDepositProtocolMode",
      "outputs": [],
      "stateMutability": "nonpayable",
      "type": "function"
    },
    {
      "inputs": [
        {
          "internalType": "uint256",
          "name": "_maxDepositProtocolPct",
          "type": "uint256"
        }
      ],
      "name": "setMaxDepositProtocolPct",
      "outputs": [],
      "stateMutability": "nonpayable",
      "type": "function"
    },
    {
      "inputs": [
        {
          "internalType": "address",
          "name": "_registry",
          "type": "address"
        }
      ],
      "name": "setRegistry",
      "outputs": [],
      "stateMutability": "nonpayable",
      "type": "function"
    }
  ],
  "transactionHash": "0x3ed2c91b4a3cfb407c291d146826fef4dd7e6aec68f488f785a1f750a8591942",
  "args": [
    "0x99fa011e33a8c6196869dec7bc407e896ba67fe3"
  ],
  "bytecode": "0x608060405234801561001057600080fd5b50604051620024853803806200248583398101604081905261003191610064565b600080546127106001556001600160a01b03929092166001600160a81b031990921691909117600160a01b179055610094565b60006020828403121561007657600080fd5b81516001600160a01b038116811461008d57600080fd5b9392505050565b6123e180620000a46000396000f3fe608060405234801561001057600080fd5b50600436106101a95760003560e01c80637c47b3f4116100f9578063da699f9611610097578063ee665bed11610071578063ee665bed146103d7578063ef856be9146103ea578063f1aacbb71461040a578063f49307ca1461041d57600080fd5b8063da699f961461039e578063df935722146103b1578063e49d5ecc146103c457600080fd5b8063919b69d7116100d3578063919b69d714610345578063a91ee0dc14610358578063d64410461461036b578063d74baaf81461038b57600080fd5b80637c47b3f41461030a57806385541e441461031f57806390e616051461033257600080fd5b8063481c90e1116101665780634f83b52d116101405780634f83b52d146102b657806360925779146102d657806364dd5f80146102e957806377078872146102fc57600080fd5b8063481c90e114610268578063489b5295146102835780634ad36e02146102a357600080fd5b8063191c194b146101ae578063214ead2e146101ca57806328c1f99b146101fd5780632af06b96146102105780632de778381461023157806336d8bf9314610244575b600080fd5b6101b760015481565b6040519081526020015b60405180910390f35b6101e5730316eb71485b0ab14103307bf65a021042c6d38081565b6040516001600160a01b0390911681526020016101c1565b6000546101e5906001600160a01b031681565b60005461022490600160a01b900460ff1681565b6040516101c19190611cf9565b6101b761023f366004611d39565b610430565b610258610252366004611d72565b50600090565b60405190151581526020016101c1565b6101e5730959158b6040d32d04c301a72cbfd6b39e21c9ae81565b610296610291366004611d8f565b610525565b6040516101c19190611e27565b6101b76102b1366004611e89565b6105ae565b6101b76102c4366004611d72565b60036020526000908152604090205481565b6102966102e4366004611e89565b6105fc565b6101b76102f7366004611d8f565b6107f7565b6101e5610252366004611d72565b61031d610318366004611eda565b610813565b005b6101b761032d366004611efb565b610937565b6101b7610340366004611d8f565b610a54565b61031d610353366004611f3c565b610ac3565b61031d610366366004611d72565b610bb1565b6101b7610379366004611d72565b60026020526000908152604090205481565b6101e5610399366004611d39565b919050565b61031d6103ac366004611f68565b610ced565b6102966103bf366004611e89565b610dc7565b6102586103d2366004611e89565b610dde565b6101b76103e5366004611efb565b610df9565b6103fd6103f8366004611d39565b610e94565b6040516101c19190611f81565b61031d610418366004611efb565b610f74565b61029661042b366004611d8f565b611063565b600080836001600160a01b031663bb7b8b806040518163ffffffff1660e01b8152600401602060405180830381865afa158015610471573d6000803e3d6000fd5b505050506040513d601f19601f820116820180604052508101906104959190611fce565b90506000846001600160a01b03166318160ddd6040518163ffffffff1660e01b8152600401602060405180830381865afa1580156104d7573d6000803e3d6000fd5b505050506040513d601f19601f820116820180604052508101906104fb9190611fce565b9050670de0b6b3a76400006105108284611ffd565b61051a919061201c565b925050505b92915050565b6040516370a0823160e01b81526001600160a01b0384811660048301526060916000918516906370a0823190602401602060405180830381865afa158015610571573d6000803e3d6000fd5b505050506040513d601f19601f820116820180604052508101906105959190611fce565b90506105a385858584611081565b9150505b9392505050565b6000806105bd86600086610a54565b905060006105cc8787876107f7565b90506001816105db8685611ffd565b6105e5919061201c565b6105ef919061203e565b925050505b949350505050565b606081156105f457604080516003808252608082019092528491602082015b606081526020019060019003908161061b579050506040516001600160a01b038616602482015260006044820152909250819060640160408051601f19818403018152918152602080830180516001600160e01b031663095ea7b360e01b179052905161068a9392910161206c565b604051602081830303815290604052826000815181106106ac576106ac612090565b60209081029190910101526040516001600160a01b038516602482015260448101849052819060640160408051601f19818403018152918152602080830180516001600160e01b031663095ea7b360e01b179052905161070e9392910161206c565b6040516020818303038152906040528260018151811061073057610730612090565b602002602001018190525083836107478688611658565b6064605f6107568a8a8a610df9565b6107609190611ffd565b61076a919061201c565b6040516024810193909352600f9190910b6044830152606482015260840160408051601f19818403018152918152602080830180516001600160e01b0316630d2680e960e11b17905290516107c19392910161206c565b604051602081830303815290604052826002815181106107e3576107e3612090565b602002602001018190525050949350505050565b60008061080685600085610a54565b90506105a3848483610df9565b60008054906101000a90046001600160a01b03166001600160a01b0316637af0e5576040518163ffffffff1660e01b8152600401602060405180830381865afa158015610864573d6000803e3d6000fd5b505050506040513d601f19601f8201168201806040525081019061088891906120b1565b6001600160a01b0316336001600160a01b0316146108c15760405162461bcd60e51b81526004016108b8906120ce565b60405180910390fd5b6000805482919060ff60a01b1916600160a01b8360018111156108e6576108e6611ce3565b02179055506000543390600160a01b900460ff16600181111561090b5761090b611ce3565b6040517f68e3b01155b193b02181f2c0ed491c934a74348d211ff023f8fc6ac5edf22aa090600090a350565b6000730959158b6040d32d04c301a72cbfd6b39e21c9ae8161095985836116dd565b9050610963611cc5565b600061096f8785611752565b905060005b838110156109d757886001600160a01b031682826002811061099857610998612090565b60200201516001600160a01b031614156109c557868382600281106109bf576109bf612090565b60200201525b806109cf81612105565b915050610974565b5060405163ed8e84f360e01b81526001600160a01b0388169063ed8e84f390610a07908590600190600401612149565b602060405180830381865afa158015610a24573d6000803e3d6000fd5b505050506040513d601f19601f82011682018060405250810190610a489190611fce565b98975050505050505050565b6000816040516370a0823160e01b81526001600160a01b03868116600483015291909116906370a0823190602401602060405180830381865afa158015610a9f573d6000803e3d6000fd5b505050506040513d601f19601f820116820180604052508101906105f49190611fce565b60008054906101000a90046001600160a01b03166001600160a01b0316637af0e5576040518163ffffffff1660e01b8152600401602060405180830381865afa158015610b14573d6000803e3d6000fd5b505050506040513d601f19601f82011682018060405250810190610b3891906120b1565b6001600160a01b0316336001600160a01b031614610b685760405162461bcd60e51b81526004016108b8906120ce565b6001600160a01b03821660009081526003602052604080822083905551339183917fac58e29a41d996caca756d050dce90806b277f0c939337653638329247e16f4c9190a35050565b60008054906101000a90046001600160a01b03166001600160a01b031663e7f43c686040518163ffffffff1660e01b8152600401602060405180830381865afa158015610c02573d6000803e3d6000fd5b505050506040513d601f19601f82011682018060405250810190610c2691906120b1565b6001600160a01b0316336001600160a01b031614610c865760405162461bcd60e51b815260206004820152601a60248201527f63616c6c6572206973206e6f7420746865206f70657261746f7200000000000060448201526064016108b8565b6001600160a01b0381163b610ccb5760405162461bcd60e51b815260206004820152600b60248201526a085a5cd0dbdb9d1c9858dd60aa1b60448201526064016108b8565b600080546001600160a01b0319166001600160a01b0392909216919091179055565b60008054906101000a90046001600160a01b03166001600160a01b0316637af0e5576040518163ffffffff1660e01b8152600401602060405180830381865afa158015610d3e573d6000803e3d6000fd5b505050506040513d601f19601f82011682018060405250810190610d6291906120b1565b6001600160a01b0316336001600160a01b031614610d925760405162461bcd60e51b81526004016108b8906120ce565b6001819055604051339082907f19c60b0612798cc65bd298cd47e17d9fd07e74e0d3baa6c0019411bb334d9bda90600090a350565b6060610dd585858585611081565b95945050505050565b600080610dec8686866107f7565b9092111595945050505050565b60008115610e8a57826001600160a01b031663cc2b27d783610e1b8688611658565b6040516001600160e01b031960e085901b1681526004810192909252600f0b6024820152604401602060405180830381865afa158015610e5f573d6000803e3d6000fd5b505050506040513d601f19601f82011682018060405250810190610e839190611fce565b90506105a7565b5060009392505050565b6060730959158b6040d32d04c301a72cbfd6b39e21c9ae6000610eb78583611752565b90506000610ec586846116dd565b90508067ffffffffffffffff811115610ee057610ee0612056565b604051908082528060200260200182016040528015610f09578160200160208202803683370190505b50935060005b81811015610f6a57828160028110610f2957610f29612090565b6020020151858281518110610f4057610f40612090565b6001600160a01b039092166020928302919091019091015280610f6281612105565b915050610f0f565b5050505092915050565b60008054906101000a90046001600160a01b03166001600160a01b0316637af0e5576040518163ffffffff1660e01b8152600401602060405180830381865afa158015610fc5573d6000803e3d6000fd5b505050506040513d601f19601f82011682018060405250810190610fe991906120b1565b6001600160a01b0316336001600160a01b0316146110195760405162461bcd60e51b81526004016108b8906120ce565b6001600160a01b03831660009081526002602052604080822083905551339183917f197807a6a2633dd9bde6550aca985cfc69e655e9130930314c0e9da01a75cc549190a3505050565b6060600061107385600085610a54565b90506105a3858585846105fc565b606060008060008060006110968989896117c3565b9550955095509550955050600182111561164b578167ffffffffffffffff8111156110c3576110c3612056565b6040519080825280602002602001820160405280156110f657816020015b60608152602001906001900390816110e15790505b5095506000805b868110156113a057600085828151811061111957611119612090565b6020026020010151111561138e57730316eb71485b0ab14103307bf65a021042c6d38086826002811061114e5761114e612090565b60200201516001600160a01b031614156112285785816002811061117457611174612090565b60200201518a86838151811061118c5761118c612090565b60209081029190910101516040516001600160a01b039092166024830152604482015260640160408051601f19818403018152918152602080830180516001600160e01b031663095ea7b360e01b17905290516111eb9392910161206c565b60405160208183030381529060405288838061120690612105565b94508151811061121857611218612090565b602002602001018190525061138e565b85816002811061123a5761123a612090565b60200201516040516001600160a01b038c1660248201526000604482015260640160408051601f19818403018152918152602080830180516001600160e01b031663095ea7b360e01b17905290516112949392910161206c565b6040516020818303038152906040528883806112af90612105565b9450815181106112c1576112c1612090565b60200260200101819052508581600281106112de576112de612090565b60200201518a8683815181106112f6576112f6612090565b60209081029190910101516040516001600160a01b039092166024830152604482015260640160408051601f19818403018152918152602080830180516001600160e01b031663095ea7b360e01b17905290516113559392910161206c565b60405160208183030381529060405288838061137090612105565b94508151811061138257611382612090565b60200260200101819052505b8061139881612105565b9150506110fd565b5060028614156114765760006040518060400160405280866000815181106113ca576113ca612090565b60200260200101518152602001866001815181106113ea576113ea612090565b6020026020010151815250905089818460405160240161140b929190612166565b60408051601f19818403018152918152602080830180516001600160e01b0316630b4c7e4d60e01b17905290516114449392910161206c565b60405160208183030381529060405288838151811061146557611465612090565b602002602001018190525050611649565b600386141561153957600060405180606001604052808660008151811061149f5761149f612090565b60200260200101518152602001866001815181106114bf576114bf612090565b60200260200101518152602001866002815181106114df576114df612090565b60200260200101518152509050898184604051602401611500929190612181565b60408051601f19818403018152918152602080830180516001600160e01b0316634515cef360e01b17905290516114449392910161206c565b600486141561164957600060405180608001604052808660008151811061156257611562612090565b602002602001015181526020018660018151811061158257611582612090565b60200260200101518152602001866002815181106115a2576115a2612090565b60200260200101518152602001866003815181106115c2576115c2612090565b602002602001015181525090508981846040516024016115e39291906121b9565b60408051601f19818403018152918152602080830180516001600160e01b031662a6cbcd60e21b179052905161161b9392910161206c565b60405160208183030381529060405288838151811061163c5761163c612090565b6020026020010181905250505b505b5050505050949350505050565b60008061167984730959158b6040d32d04c301a72cbfd6b39e21c9ae611752565b905060005b60028110156116d257836001600160a01b03168282600281106116a3576116a3612090565b60200201516001600160a01b031614156116c057915061051f9050565b806116ca81612105565b91505061167e565b506000949350505050565b60405163940494f160e01b81526001600160a01b0383811660048301526000919083169063940494f1906024016040805180830381865afa158015611726573d6000803e3d6000fd5b505050506040513d601f19601f8201168201806040525081019061174a91906121f1565b509392505050565b61175a611cc5565b604051639ac90d3d60e01b81526001600160a01b038481166004830152831690639ac90d3d906024016040805180830381865afa15801561179f573d6000803e3d6000fd5b505050506040513d601f19601f820116820180604052508101906105a79190612215565b6000806117ce611cc5565b6060600080730959158b6040d32d04c301a72cbfd6b39e21c9ae6117f289826116dd565b95506117fe8982611752565b945061180a898b611658565b96508567ffffffffffffffff81111561182557611825612056565b60405190808252806020026020018201604052801561184e578160200160208202803683370190505b5093506001925060005b86811015611a73578a6001600160a01b031686826002811061187c5761187c612090565b60200201516001600160a01b03161415611a615761189b8a8c8b611a81565b8582815181106118ad576118ad612090565b60200260200101818152505060008b6001600160a01b031663313ce5676040518163ffffffff1660e01b8152600401602060405180830381865afa1580156118f9573d6000803e3d6000fd5b505050506040513d601f19601f8201168201806040525081019061191d91906122aa565b60ff16905060648b6001600160a01b031663bb7b8b806040518163ffffffff1660e01b8152600401602060405180830381865afa158015611962573d6000803e3d6000fd5b505050506040513d601f19601f820116820180604052508101906119869190611fce565b6119909190611ffd565b605f61199d8360246122cd565b6119a890600a6123c8565b8885815181106119ba576119ba612090565b60200260200101516119cc9190611ffd565b6119d69190611ffd565b6119e0919061201c565b935060008683815181106119f6576119f6612090565b60200260200101511115611a5f57730316eb71485b0ab14103307bf65a021042c6d380878360028110611a2b57611a2b612090565b60200201516001600160a01b03161415611a515784611a4981612105565b955050611a5f565b611a5c60028661203e565b94505b505b80611a6b81612105565b915050611858565b505093975093979195509350565b60006001600054600160a01b900460ff166001811115611aa357611aa3611ce3565b14611ab857611ab3848484611ac3565b6105f4565b6105f4848484611b83565b600080836001600160a01b031663313ce5676040518163ffffffff1660e01b8152600401602060405180830381865afa158015611b04573d6000803e3d6000fd5b505050506040513d601f19601f82011682018060405250810190611b2891906122aa565b60ff1690506000611b3a8260126122cd565b611b4590600a6123c8565b6001600160a01b038716600090815260026020526040902054611b68919061201c565b9050808411611b775783611b79565b805b9695505050505050565b600080611b91856000610430565b9050600060036000876001600160a01b03166001600160a01b031681526020019081526020016000205490506000856001600160a01b031663313ce5676040518163ffffffff1660e01b8152600401602060405180830381865afa158015611bfd573d6000803e3d6000fd5b505050506040513d601f19601f82011682018060405250810190611c2191906122aa565b60ff1690506000611c338260126122cd565b611c3e90600a6123c8565b611c489087611ffd565b905060008315611c6e57612710611c5f8587611ffd565b611c69919061201c565b611c89565b61271060015486611c7f9190611ffd565b611c89919061201c565b9050808211611c985786611cb8565b611ca38360126122cd565b611cae90600a6123c8565b611cb8908261201c565b9998505050505050505050565b60405180604001604052806002906020820280368337509192915050565b634e487b7160e01b600052602160045260246000fd5b6020810160028310611d1b57634e487b7160e01b600052602160045260246000fd5b91905290565b6001600160a01b0381168114611d3657600080fd5b50565b60008060408385031215611d4c57600080fd5b8235611d5781611d21565b91506020830135611d6781611d21565b809150509250929050565b600060208284031215611d8457600080fd5b81356105a781611d21565b600080600060608486031215611da457600080fd5b8335611daf81611d21565b92506020840135611dbf81611d21565b91506040840135611dcf81611d21565b809150509250925092565b6000815180845260005b81811015611e0057602081850181015186830182015201611de4565b81811115611e12576000602083870101525b50601f01601f19169290920160200192915050565b6000602080830181845280855180835260408601915060408160051b870101925083870160005b82811015611e7c57603f19888603018452611e6a858351611dda565b94509285019290850190600101611e4e565b5092979650505050505050565b60008060008060808587031215611e9f57600080fd5b8435611eaa81611d21565b93506020850135611eba81611d21565b92506040850135611eca81611d21565b9396929550929360600135925050565b600060208284031215611eec57600080fd5b8135600281106105a757600080fd5b600080600060608486031215611f1057600080fd5b8335611f1b81611d21565b92506020840135611f2b81611d21565b929592945050506040919091013590565b60008060408385031215611f4f57600080fd5b8235611f5a81611d21565b946020939093013593505050565b600060208284031215611f7a57600080fd5b5035919050565b6020808252825182820181905260009190848201906040850190845b81811015611fc25783516001600160a01b031683529284019291840191600101611f9d565b50909695505050505050565b600060208284031215611fe057600080fd5b5051919050565b634e487b7160e01b600052601160045260246000fd5b600081600019048311821515161561201757612017611fe7565b500290565b60008261203957634e487b7160e01b600052601260045260246000fd5b500490565b6000821982111561205157612051611fe7565b500190565b634e487b7160e01b600052604160045260246000fd5b6001600160a01b03831681526040602082018190526000906105f490830184611dda565b634e487b7160e01b600052603260045260246000fd5b805161039981611d21565b6000602082840312156120c357600080fd5b81516105a781611d21565b6020808252601e908201527f63616c6c6572206973206e6f7420746865207269736b4f70657261746f720000604082015260600190565b600060001982141561211957612119611fe7565b5060010190565b8060005b6002811015612143578151845260209384019390910190600101612124565b50505050565b606081016121578285612120565b82151560408301529392505050565b606081016121748285612120565b8260408301529392505050565b60808101818460005b60038110156121a957815183526020928301929091019060010161218a565b5050508260608301529392505050565b60a08101818460005b60048110156121e15781518352602092830192909101906001016121c2565b5050508260808301529392505050565b6000806040838503121561220457600080fd5b505080516020909101519092909150565b60006040828403121561222757600080fd5b82601f83011261223657600080fd5b6040516040810181811067ffffffffffffffff8211171561226757634e487b7160e01b600052604160045260246000fd5b806040525080604084018581111561227e57600080fd5b845b8181101561229f57612291816120a6565b835260209283019201612280565b509195945050505050565b6000602082840312156122bc57600080fd5b815160ff811681146105a757600080fd5b6000828210156122df576122df611fe7565b500390565b600181815b8085111561231f57816000190482111561230557612305611fe7565b8085161561231257918102915b93841c93908002906122e9565b509250929050565b6000826123365750600161051f565b816123435750600061051f565b816001811461235957600281146123635761237f565b600191505061051f565b60ff84111561237457612374611fe7565b50506001821b61051f565b5060208310610133831016604e8410600b84101617156123a2575081810a61051f565b6123ac83836122e4565b80600019048211156123c0576123c0611fe7565b029392505050565b60006105a7838361232756fea164736f6c634300080b000a"
}