{
  "address": "0x354701871Bb4a1EFd0c6E6c4E663D9755Abc7f35",
  "abi": [
    {
      "inputs": [
        {
          "internalType": "address",
          "name": "_registry",
          "type": "address"
        }
      ],
      "stateMutability": "nonpayable",
      "type": "constructor"
    },
    {
      "anonymous": false,
      "inputs": [
        {
          "indexed": true,
          "internalType": "uint256",
          "name": "maxDepositAmount",
          "type": "uint256"
        },
        {
          "indexed": true,
          "internalType": "address",
          "name": "caller",
          "type": "address"
        }
      ],
      "name": "LogMaxDepositAmount",
      "type": "event"
    },
    {
      "anonymous": false,
      "inputs": [
        {
          "indexed": true,
          "internalType": "uint256",
          "name": "maxDepositPoolPct",
          "type": "uint256"
        },
        {
          "indexed": true,
          "internalType": "address",
          "name": "caller",
          "type": "address"
        }
      ],
      "name": "LogMaxDepositPoolPct",
      "type": "event"
    },
    {
      "anonymous": false,
      "inputs": [
        {
          "indexed": true,
          "internalType": "enum MaxExposure",
          "name": "maxDepositProtocolMode",
          "type": "uint8"
        },
        {
          "indexed": true,
          "internalType": "address",
          "name": "caller",
          "type": "address"
        }
      ],
      "name": "LogMaxDepositProtocolMode",
      "type": "event"
    },
    {
      "anonymous": false,
      "inputs": [
        {
          "indexed": true,
          "internalType": "uint256",
          "name": "maxDepositProtocolPct",
          "type": "uint256"
        },
        {
          "indexed": true,
          "internalType": "address",
          "name": "caller",
          "type": "address"
        }
      ],
      "name": "LogMaxDepositProtocolPct",
      "type": "event"
    },
    {
      "inputs": [],
      "name": "WETH",
      "outputs": [
        {
          "internalType": "address",
          "name": "",
          "type": "address"
        }
      ],
      "stateMutability": "view",
      "type": "function"
    },
    {
      "inputs": [
        {
          "internalType": "address",
          "name": "",
          "type": "address"
        },
        {
          "internalType": "address",
          "name": "_liquidityPool",
          "type": "address"
        },
        {
          "internalType": "uint256",
          "name": "_depositAmount",
          "type": "uint256"
        }
      ],
      "name": "calculateAmountInLPToken",
      "outputs": [
        {
          "internalType": "uint256",
          "name": "",
          "type": "uint256"
        }
      ],
      "stateMutability": "view",
      "type": "function"
    },
    {
      "inputs": [
        {
          "internalType": "address payable",
          "name": "",
          "type": "address"
        },
        {
          "internalType": "address",
          "name": "",
          "type": "address"
        },
        {
          "internalType": "address",
          "name": "_liquidityPool",
          "type": "address"
        },
        {
          "internalType": "uint256",
          "name": "_redeemAmount",
          "type": "uint256"
        }
      ],
      "name": "calculateRedeemableLPTokenAmount",
      "outputs": [
        {
          "internalType": "uint256",
          "name": "_amount",
          "type": "uint256"
        }
      ],
      "stateMutability": "view",
      "type": "function"
    },
    {
      "inputs": [
        {
          "internalType": "address",
          "name": "",
          "type": "address"
        }
      ],
      "name": "canStake",
      "outputs": [
        {
          "internalType": "bool",
          "name": "",
          "type": "bool"
        }
      ],
      "stateMutability": "pure",
      "type": "function"
    },
    {
      "inputs": [],
      "name": "gateway",
      "outputs": [
        {
          "internalType": "address",
          "name": "",
          "type": "address"
        }
      ],
      "stateMutability": "view",
      "type": "function"
    },
    {
      "inputs": [
        {
          "internalType": "address payable",
          "name": "_vault",
          "type": "address"
        },
        {
          "internalType": "address",
          "name": "",
          "type": "address"
        },
        {
          "internalType": "address",
          "name": "_liquidityPool",
          "type": "address"
        }
      ],
      "name": "getAllAmountInToken",
      "outputs": [
        {
          "internalType": "uint256",
          "name": "",
          "type": "uint256"
        }
      ],
      "stateMutability": "view",
      "type": "function"
    },
    {
      "inputs": [
        {
          "internalType": "address payable",
          "name": "_vault",
          "type": "address"
        },
        {
          "internalType": "address",
          "name": "_underlyingToken",
          "type": "address"
        },
        {
          "internalType": "address",
          "name": "_liquidityPool",
          "type": "address"
        }
      ],
      "name": "getDepositAllCodes",
      "outputs": [
        {
          "internalType": "bytes[]",
          "name": "_codes",
          "type": "bytes[]"
        }
      ],
      "stateMutability": "view",
      "type": "function"
    },
    {
      "inputs": [
        {
          "internalType": "address payable",
          "name": "_vault",
          "type": "address"
        },
        {
          "internalType": "address",
          "name": "_underlyingToken",
          "type": "address"
        },
        {
          "internalType": "address",
          "name": "_liquidityPool",
          "type": "address"
        },
        {
          "internalType": "uint256",
          "name": "_amount",
          "type": "uint256"
        }
      ],
      "name": "getDepositSomeCodes",
      "outputs": [
        {
          "internalType": "bytes[]",
          "name": "_codes",
          "type": "bytes[]"
        }
      ],
      "stateMutability": "view",
      "type": "function"
    },
    {
      "inputs": [
        {
          "internalType": "address",
          "name": "",
          "type": "address"
        },
        {
          "internalType": "address",
          "name": "_liquidityPool",
          "type": "address"
        }
      ],
      "name": "getLiquidityPoolToken",
      "outputs": [
        {
          "internalType": "address",
          "name": "",
          "type": "address"
        }
      ],
      "stateMutability": "pure",
      "type": "function"
    },
    {
      "inputs": [
        {
          "internalType": "address payable",
          "name": "_vault",
          "type": "address"
        },
        {
          "internalType": "address",
          "name": "",
          "type": "address"
        },
        {
          "internalType": "address",
          "name": "_liquidityPool",
          "type": "address"
        }
      ],
      "name": "getLiquidityPoolTokenBalance",
      "outputs": [
        {
          "internalType": "uint256",
          "name": "",
          "type": "uint256"
        }
      ],
      "stateMutability": "view",
      "type": "function"
    },
    {
      "inputs": [
        {
          "internalType": "address",
          "name": "_liquidityPool",
          "type": "address"
        },
        {
          "internalType": "address",
          "name": "",
          "type": "address"
        }
      ],
      "name": "getPoolValue",
      "outputs": [
        {
          "internalType": "uint256",
          "name": "",
          "type": "uint256"
        }
      ],
      "stateMutability": "view",
      "type": "function"
    },
    {
      "inputs": [
        {
          "internalType": "address",
          "name": "",
          "type": "address"
        }
      ],
      "name": "getRewardToken",
      "outputs": [
        {
          "internalType": "address",
          "name": "",
          "type": "address"
        }
      ],
      "stateMutability": "pure",
      "type": "function"
    },
    {
      "inputs": [
        {
          "internalType": "address",
          "name": "",
          "type": "address"
        },
        {
          "internalType": "address",
          "name": "_liquidityPool",
          "type": "address"
        },
        {
          "internalType": "uint256",
          "name": "_liquidityPoolTokenAmount",
          "type": "uint256"
        }
      ],
      "name": "getSomeAmountInToken",
      "outputs": [
        {
          "internalType": "uint256",
          "name": "",
          "type": "uint256"
        }
      ],
      "stateMutability": "view",
      "type": "function"
    },
    {
      "inputs": [
        {
          "internalType": "address",
          "name": "",
          "type": "address"
        },
        {
          "internalType": "address",
          "name": "",
          "type": "address"
        }
      ],
      "name": "getUnderlyingTokens",
      "outputs": [
        {
          "internalType": "address[]",
          "name": "_underlyingTokens",
          "type": "address[]"
        }
      ],
      "stateMutability": "pure",
      "type": "function"
    },
    {
      "inputs": [
        {
          "internalType": "address payable",
          "name": "_vault",
          "type": "address"
        },
        {
          "internalType": "address",
          "name": "",
          "type": "address"
        },
        {
          "internalType": "address",
          "name": "_liquidityPool",
          "type": "address"
        }
      ],
      "name": "getWithdrawAllCodes",
      "outputs": [
        {
          "internalType": "bytes[]",
          "name": "_codes",
          "type": "bytes[]"
        }
      ],
      "stateMutability": "view",
      "type": "function"
    },
    {
      "inputs": [
        {
          "internalType": "address payable",
          "name": "_vault",
          "type": "address"
        },
        {
          "internalType": "address",
          "name": "",
          "type": "address"
        },
        {
          "internalType": "address",
          "name": "_liquidityPool",
          "type": "address"
        },
        {
          "internalType": "uint256",
          "name": "_amount",
          "type": "uint256"
        }
      ],
      "name": "getWithdrawSomeCodes",
      "outputs": [
        {
          "internalType": "bytes[]",
          "name": "_codes",
          "type": "bytes[]"
        }
      ],
      "stateMutability": "view",
      "type": "function"
    },
    {
      "inputs": [
        {
          "internalType": "address payable",
          "name": "_vault",
          "type": "address"
        },
        {
          "internalType": "address",
          "name": "_underlyingToken",
          "type": "address"
        },
        {
          "internalType": "address",
          "name": "_liquidityPool",
          "type": "address"
        },
        {
          "internalType": "uint256",
          "name": "_redeemAmount",
          "type": "uint256"
        }
      ],
      "name": "isRedeemableAmountSufficient",
      "outputs": [
        {
          "internalType": "bool",
          "name": "",
          "type": "bool"
        }
      ],
      "stateMutability": "view",
      "type": "function"
    },
    {
      "inputs": [
        {
          "internalType": "address",
          "name": "",
          "type": "address"
        },
        {
          "internalType": "address",
          "name": "",
          "type": "address"
        }
      ],
      "name": "maxDepositAmount",
      "outputs": [
        {
          "internalType": "uint256",
          "name": "",
          "type": "uint256"
        }
      ],
      "stateMutability": "view",
      "type": "function"
    },
    {
      "inputs": [
        {
          "internalType": "address",
          "name": "",
          "type": "address"
        }
      ],
      "name": "maxDepositPoolPct",
      "outputs": [
        {
          "internalType": "uint256",
          "name": "",
          "type": "uint256"
        }
      ],
      "stateMutability": "view",
      "type": "function"
    },
    {
      "inputs": [],
      "name": "maxDepositProtocolMode",
      "outputs": [
        {
          "internalType": "enum MaxExposure",
          "name": "",
          "type": "uint8"
        }
      ],
      "stateMutability": "view",
      "type": "function"
    },
    {
      "inputs": [],
      "name": "maxDepositProtocolPct",
      "outputs": [
        {
          "internalType": "uint256",
          "name": "",
          "type": "uint256"
        }
      ],
      "stateMutability": "view",
      "type": "function"
    },
    {
      "inputs": [],
      "name": "registryContract",
      "outputs": [
        {
          "internalType": "contract IAdapterRegistryBase",
          "name": "",
          "type": "address"
        }
      ],
      "stateMutability": "view",
      "type": "function"
    },
    {
      "inputs": [
        {
          "internalType": "address",
          "name": "_liquidityPool",
          "type": "address"
        },
        {
          "internalType": "address",
          "name": "_underlyingToken",
          "type": "address"
        },
        {
          "internalType": "uint256",
          "name": "_maxDepositAmount",
          "type": "uint256"
        }
      ],
      "name": "setMaxDepositAmount",
      "outputs": [],
      "stateMutability": "nonpayable",
      "type": "function"
    },
    {
      "inputs": [
        {
          "internalType": "address",
          "name": "_underlyingToken",
          "type": "address"
        },
        {
          "internalType": "uint256",
          "name": "_maxDepositPoolPct",
          "type": "uint256"
        }
      ],
      "name": "setMaxDepositPoolPct",
      "outputs": [],
      "stateMutability": "nonpayable",
      "type": "function"
    },
    {
      "inputs": [
        {
          "internalType": "enum MaxExposure",
          "name": "_mode",
          "type": "uint8"
        }
      ],
      "name": "setMaxDepositProtocolMode",
      "outputs": [],
      "stateMutability": "nonpayable",
      "type": "function"
    },
    {
      "inputs": [
        {
          "internalType": "uint256",
          "name": "_maxDepositProtocolPct",
          "type": "uint256"
        }
      ],
      "name": "setMaxDepositProtocolPct",
      "outputs": [],
      "stateMutability": "nonpayable",
      "type": "function"
    },
    {
      "inputs": [
        {
          "internalType": "address",
          "name": "_registry",
          "type": "address"
        }
      ],
      "name": "setRegistry",
      "outputs": [],
      "stateMutability": "nonpayable",
      "type": "function"
    }
  ],
  "transactionHash": "0xa782225ef655b3be404d3d2201d61ed04fda06aca741d4a7145f802cf42c5c1d",
  "args": [
    "0x99fa011e33a8c6196869dec7bc407e896ba67fe3"
  ],
  "bytecode": "0x608060405234801561001057600080fd5b5060405162001d9638038062001d96833981016040819052610031916100b7565b60008054612710600255600160a01b6001600160a81b03199091166001600160a01b03841617179055604051610066906100a9565b604051809103906000f080158015610082573d6000803e3d6000fd5b50600180546001600160a01b0319166001600160a01b0392909216919091179055506100e7565b61077d806200161983390190565b6000602082840312156100c957600080fd5b81516001600160a01b03811681146100e057600080fd5b9392505050565b61152280620000f76000396000f3fe608060405234801561001057600080fd5b50600436106101a95760003560e01c80637c47b3f4116100f9578063da699f9611610097578063ee665bed11610071578063ee665bed146103da578063ef856be9146103ed578063f1aacbb71461040d578063f49307ca1461042057600080fd5b8063da699f96146103a1578063df935722146103b4578063e49d5ecc146103c757600080fd5b8063919b69d7116100d3578063919b69d71461034d578063a91ee0dc14610360578063ad5c464814610373578063d74baaf81461038e57600080fd5b80637c47b3f41461031257806385541e441461032757806390e616051461033a57600080fd5b806336d8bf93116101665780634f83b52d116101405780634f83b52d146102be57806360925779146102de57806364dd5f80146102f1578063770788721461030457600080fd5b806336d8bf9314610267578063489b52951461028b5780634ad36e02146102ab57600080fd5b8063027a304d146101ae578063116191b6146101ec578063191c194b1461021757806328c1f99b146102205780632af06b96146102335780632de7783814610254575b600080fd5b6101d96101bc36600461114c565b600460209081526000928352604080842090915290825290205481565b6040519081526020015b60405180910390f35b6001546101ff906001600160a01b031681565b6040516001600160a01b0390911681526020016101e3565b6101d960025481565b6000546101ff906001600160a01b031681565b60005461024790600160a01b900460ff1681565b6040516101e3919061119b565b6101d961026236600461114c565b610433565b61027b6102753660046111c3565b50600090565b60405190151581526020016101e3565b61029e6102993660046111e0565b61049e565b6040516101e39190611278565b6101d96102b93660046112da565b610525565b6101d96102cc3660046111c3565b60036020526000908152604090205481565b61029e6102ec3660046112da565b61059c565b6101d96102ff3660046111e0565b6106f4565b6101ff6102753660046111c3565b61032561032036600461132b565b610708565b005b6101d961033536600461134c565b61082c565b6101d96103483660046111e0565b610899565b61032561035b36600461138d565b6108cb565b61032561036e3660046111c3565b6109fe565b6101ff73c02aaa39b223fe8d0a0e5c4f27ead9083c756cc281565b6101ff61039c36600461114c565b919050565b6103256103af3660046113b9565b610b3a565b61029e6103c23660046112da565b610c14565b61027b6103d53660046112da565b610d91565b6101d96103e836600461134c565b610dac565b6104006103fb36600461114c565b610e27565b6040516101e391906113d2565b61032561041b36600461134c565b610e97565b61029e61042e3660046111e0565b611043565b6000826001600160a01b03166318160ddd6040518163ffffffff1660e01b8152600401602060405180830381865afa158015610473573d6000803e3d6000fd5b505050506040513d601f19601f82011682018060405250810190610497919061141f565b9392505050565b6040516370a0823160e01b81526001600160a01b0384811660048301526060916000918516906370a0823190602401602060405180830381865afa1580156104ea573d6000803e3d6000fd5b505050506040513d601f19601f8201168201806040525081019061050e919061141f565b905061051c85858584610c14565b95945050505050565b604051630f451f7160e31b8152600481018290526000906001600160a01b03841690637a28fb8890602401602060405180830381865afa15801561056d573d6000803e3d6000fd5b505050506040513d601f19601f82011682018060405250810190610591919061141f565b90505b949350505050565b60608115610594576040805160028082526060820190925290816020015b60608152602001906001900390816105ba579050506001546040516001600160a01b03909116602482015260448101849052909150839060640160408051601f19818403018152918152602080830180516001600160e01b031663095ea7b360e01b179052905161062d93929101611438565b6040516020818303038152906040528160008151811061064f5761064f61145c565b60209081029190910101526001546040516001600160a01b0387811660248301528581166044830152606482018590529091169060840160408051601f19818403018152918152602080830180516001600160e01b031663e7137dbf60e01b17905290516106bf93929101611438565b604051602081830303815290604052816001815181106106e1576106e161145c565b6020026020010181905250949350505050565b60006105946000836103e887600087610899565b60008054906101000a90046001600160a01b03166001600160a01b0316637af0e5576040518163ffffffff1660e01b8152600401602060405180830381865afa158015610759573d6000803e3d6000fd5b505050506040513d601f19601f8201168201806040525081019061077d9190611472565b6001600160a01b0316336001600160a01b0316146107b65760405162461bcd60e51b81526004016107ad9061148f565b60405180910390fd5b6000805482919060ff60a01b1916600160a01b8360018111156107db576107db611185565b02179055506000543390600160a01b900460ff16600181111561080057610800611185565b6040517f68e3b01155b193b02181f2c0ed491c934a74348d211ff023f8fc6ac5edf22aa090600090a350565b604051631920845160e01b8152600481018290526000906001600160a01b038416906319208451906024015b602060405180830381865afa158015610875573d6000803e3d6000fd5b505050506040513d601f19601f82011682018060405250810190610594919061141f565b604051633d7ad0b760e21b81526001600160a01b0384811660048301526000919083169063f5eb42dc90602401610858565b60008054906101000a90046001600160a01b03166001600160a01b0316637af0e5576040518163ffffffff1660e01b8152600401602060405180830381865afa15801561091c573d6000803e3d6000fd5b505050506040513d601f19601f820116820180604052508101906109409190611472565b6001600160a01b0316336001600160a01b0316146109705760405162461bcd60e51b81526004016107ad9061148f565b6001600160a01b0382163b6109b55760405162461bcd60e51b815260206004820152600b60248201526a085a5cd0dbdb9d1c9858dd60aa1b60448201526064016107ad565b6001600160a01b03821660009081526003602052604080822083905551339183917fac58e29a41d996caca756d050dce90806b277f0c939337653638329247e16f4c9190a35050565b60008054906101000a90046001600160a01b03166001600160a01b031663e7f43c686040518163ffffffff1660e01b8152600401602060405180830381865afa158015610a4f573d6000803e3d6000fd5b505050506040513d601f19601f82011682018060405250810190610a739190611472565b6001600160a01b0316336001600160a01b031614610ad35760405162461bcd60e51b815260206004820152601a60248201527f63616c6c6572206973206e6f7420746865206f70657261746f7200000000000060448201526064016107ad565b6001600160a01b0381163b610b185760405162461bcd60e51b815260206004820152600b60248201526a085a5cd0dbdb9d1c9858dd60aa1b60448201526064016107ad565b600080546001600160a01b0319166001600160a01b0392909216919091179055565b60008054906101000a90046001600160a01b03166001600160a01b0316637af0e5576040518163ffffffff1660e01b8152600401602060405180830381865afa158015610b8b573d6000803e3d6000fd5b505050506040513d601f19601f82011682018060405250810190610baf9190611472565b6001600160a01b0316336001600160a01b031614610bdf5760405162461bcd60e51b81526004016107ad9061148f565b6002819055604051339082907f19c60b0612798cc65bd298cd47e17d9fd07e74e0d3baa6c0019411bb334d9bda90600090a350565b60606000610c23848685611062565b90508015610d88576040805160028082526060820190925290816020015b6060815260200190600190039081610c41579050506001546040516001600160a01b0390911660248201526044810183905290925073c02aaa39b223fe8d0a0e5c4f27ead9083c756cc29060640160408051601f19818403018152918152602080830180516001600160e01b031663095ea7b360e01b1790529051610cc893929101611438565b60405160208183030381529060405282600081518110610cea57610cea61145c565b60209081029190910101526001546040516001600160a01b0388811660248301528681166044830152606482018490529091169060840160408051601f19818403018152918152602080830180516001600160e01b031663028e08eb60e61b1790529051610d5a93929101611438565b60405160208183030381529060405282600181518110610d7c57610d7c61145c565b60200260200101819052505b50949350505050565b600080610d9f8686866106f4565b9092111595945050505050565b60008115610e2057604051630f451f7160e31b8152600481018390526001600160a01b03841690637a28fb8890602401602060405180830381865afa158015610df9573d6000803e3d6000fd5b505050506040513d601f19601f82011682018060405250810190610e1d919061141f565b91505b5092915050565b6040805160018082528183019092526060916020808301908036833701905050905073c02aaa39b223fe8d0a0e5c4f27ead9083c756cc281600081518110610e7157610e7161145c565b60200260200101906001600160a01b031690816001600160a01b03168152505092915050565b60008054906101000a90046001600160a01b03166001600160a01b0316637af0e5576040518163ffffffff1660e01b8152600401602060405180830381865afa158015610ee8573d6000803e3d6000fd5b505050506040513d601f19601f82011682018060405250810190610f0c9190611472565b6001600160a01b0316336001600160a01b031614610f3c5760405162461bcd60e51b81526004016107ad9061148f565b6001600160a01b0383163b610f935760405162461bcd60e51b815260206004820152601c60248201527f215f6c6971756964697479506f6f6c2e6973436f6e747261637428290000000060448201526064016107ad565b6001600160a01b0382163b610fea5760405162461bcd60e51b815260206004820152601e60248201527f215f756e6465726c79696e67546f6b656e2e6973436f6e74726163742829000060448201526064016107ad565b6001600160a01b03838116600090815260046020908152604080832093861683529290528181208390559051339183917f197807a6a2633dd9bde6550aca985cfc69e655e9130930314c0e9da01a75cc549190a3505050565b6060600061105385600085610899565b905061051c856000858461059c565b6000806001600054600160a01b900460ff16600181111561108557611085611185565b146110b5576001600160a01b038086166000908152600460209081526040808320938816835292905220546110be565b6110be856110cd565b9050808311610594578261051c565b6000806110db836000610433565b6001600160a01b03841660009081526003602052604081205491925081156111195761271061110a83856114c6565b61111491906114f3565b61051c565b6127106002548461112a91906114c6565b61051c91906114f3565b6001600160a01b038116811461114957600080fd5b50565b6000806040838503121561115f57600080fd5b823561116a81611134565b9150602083013561117a81611134565b809150509250929050565b634e487b7160e01b600052602160045260246000fd5b60208101600283106111bd57634e487b7160e01b600052602160045260246000fd5b91905290565b6000602082840312156111d557600080fd5b813561049781611134565b6000806000606084860312156111f557600080fd5b833561120081611134565b9250602084013561121081611134565b9150604084013561122081611134565b809150509250925092565b6000815180845260005b8181101561125157602081850181015186830182015201611235565b81811115611263576000602083870101525b50601f01601f19169290920160200192915050565b6000602080830181845280855180835260408601915060408160051b870101925083870160005b828110156112cd57603f198886030184526112bb85835161122b565b9450928501929085019060010161129f565b5092979650505050505050565b600080600080608085870312156112f057600080fd5b84356112fb81611134565b9350602085013561130b81611134565b9250604085013561131b81611134565b9396929550929360600135925050565b60006020828403121561133d57600080fd5b81356002811061049757600080fd5b60008060006060848603121561136157600080fd5b833561136c81611134565b9250602084013561137c81611134565b929592945050506040919091013590565b600080604083850312156113a057600080fd5b82356113ab81611134565b946020939093013593505050565b6000602082840312156113cb57600080fd5b5035919050565b6020808252825182820181905260009190848201906040850190845b818110156114135783516001600160a01b0316835292840192918401916001016113ee565b50909695505050505050565b60006020828403121561143157600080fd5b5051919050565b6001600160a01b03831681526040602082018190526000906105949083018461122b565b634e487b7160e01b600052603260045260246000fd5b60006020828403121561148457600080fd5b815161049781611134565b6020808252601e908201527f63616c6c6572206973206e6f7420746865207269736b4f70657261746f720000604082015260600190565b60008160001904831182151516156114ee57634e487b7160e01b600052601160045260246000fd5b500290565b60008261151057634e487b7160e01b600052601260045260246000fd5b50049056fea164736f6c634300080b000a608060405234801561001057600080fd5b5061075d806100206000396000f3fe6080604052600436106100595760003560e01c806315a88d2214610065578063184c233b146100aa57806319514a8e146100d8578063a3823ac014610100578063ad5c464814610122578063e7137dbf1461014a57600080fd5b3661006057005b600080fd5b34801561007157600080fd5b5061008d73f75ad89a40909fa0592e96899e038afa8f8b2bae81565b6040516001600160a01b0390911681526020015b60405180910390f35b3480156100b657600080fd5b506100ca6100c536600461062f565b61016a565b6040519081526020016100a1565b3480156100e457600080fd5b5061008d73dc24316b9ae028f1497c275eb9192a3ea0f6702281565b34801561010c57600080fd5b5061012061011b366004610664565b6101a0565b005b34801561012e57600080fd5b5061008d73c02aaa39b223fe8d0a0e5c4f27ead9083c756cc281565b34801561015657600080fd5b50610120610165366004610664565b6103fa565b6000811561019c5760006103e86101828460096106b6565b61018c91906106d5565b905061019881846106f7565b9250505b5090565b6040516323b872dd60e01b81526001600160a01b03841660048201523060248201526044810182905273c02aaa39b223fe8d0a0e5c4f27ead9083c756cc2906323b872dd906064016020604051808303816000875af1158015610207573d6000803e3d6000fd5b505050506040513d601f19601f8201168201806040525081019061022b919061070e565b50604051632e1a7d4d60e01b81526004810182905273c02aaa39b223fe8d0a0e5c4f27ead9083c756cc290632e1a7d4d90602401600060405180830381600087803b15801561027957600080fd5b505af115801561028d573d6000803e3d6000fd5b505060405163a1903eab60e01b815273f75ad89a40909fa0592e96899e038afa8f8b2bae60048201526001600160a01b038516925063a1903eab9150479060240160206040518083038185885af11580156102ec573d6000803e3d6000fd5b50505050506040513d601f19601f820116820180604052508101906103119190610737565b506040516370a0823160e01b81523060048201526001600160a01b0383169063a9059cbb90859083906370a08231906024015b602060405180830381865afa158015610361573d6000803e3d6000fd5b505050506040513d601f19601f820116820180604052508101906103859190610737565b6040516001600160e01b031960e085901b1681526001600160a01b03909216600483015260248201526044016020604051808303816000875af11580156103d0573d6000803e3d6000fd5b505050506040513d601f19601f820116820180604052508101906103f4919061070e565b50505050565b6040516323b872dd60e01b81526001600160a01b038481166004830152306024830152604482018390528316906323b872dd906064016020604051808303816000875af115801561044f573d6000803e3d6000fd5b505050506040513d601f19601f82011682018060405250810190610473919061070e565b5060405163095ea7b360e01b815273dc24316b9ae028f1497c275eb9192a3ea0f670226004820152602481018290526001600160a01b0383169063095ea7b3906044016020604051808303816000875af11580156104d5573d6000803e3d6000fd5b505050506040513d601f19601f820116820180604052508101906104f9919061070e565b50604051630f7c084960e21b81526001600482015260006024820181905260448201839052606482015273dc24316b9ae028f1497c275eb9192a3ea0f6702290633df02124906084016020604051808303816000875af1158015610561573d6000803e3d6000fd5b505050506040513d601f19601f820116820180604052508101906105859190610737565b5073c02aaa39b223fe8d0a0e5c4f27ead9083c756cc26001600160a01b031663d0e30db0476040518263ffffffff1660e01b81526004016000604051808303818588803b1580156105d557600080fd5b505af11580156105e9573d6000803e3d6000fd5b50506040516370a0823160e01b815230600482015273c02aaa39b223fe8d0a0e5c4f27ead9083c756cc2935063a9059cbb925086915083906370a0823190602401610344565b60006020828403121561064157600080fd5b5035919050565b80356001600160a01b038116811461065f57600080fd5b919050565b60008060006060848603121561067957600080fd5b61068284610648565b925061069060208501610648565b9150604084013590509250925092565b634e487b7160e01b600052601160045260246000fd5b60008160001904831182151516156106d0576106d06106a0565b500290565b6000826106f257634e487b7160e01b600052601260045260246000fd5b500490565b600082821015610709576107096106a0565b500390565b60006020828403121561072057600080fd5b8151801515811461073057600080fd5b9392505050565b60006020828403121561074957600080fd5b505191905056fea164736f6c634300080b000a"
}