{
  "address": "0x2acd52e227CF5a196fFD23779C7105Fe0349e464",
  "abi": [
    {
      "anonymous": false,
      "inputs": [
        {
          "indexed": true,
          "internalType": "address",
          "name": "vault",
          "type": "address"
        },
        {
          "indexed": true,
          "internalType": "bool",
          "name": "allowWhitelistedState",
          "type": "bool"
        },
        {
          "indexed": true,
          "internalType": "address",
          "name": "caller",
          "type": "address"
        }
      ],
      "name": "LogAllowWhitelistedStateVault",
      "type": "event"
    },
    {
      "anonymous": false,
      "inputs": [
        {
          "indexed": true,
          "internalType": "address",
          "name": "pool",
          "type": "address"
        },
        {
          "indexed": true,
          "internalType": "bool",
          "name": "enabled",
          "type": "bool"
        },
        {
          "indexed": true,
          "internalType": "address",
          "name": "caller",
          "type": "address"
        }
      ],
      "name": "LogCreditPool",
      "type": "event"
    },
    {
      "anonymous": false,
      "inputs": [
        {
          "indexed": true,
          "internalType": "address",
          "name": "vault",
          "type": "address"
        },
        {
          "indexed": true,
          "internalType": "bool",
          "name": "discontinued",
          "type": "bool"
        },
        {
          "indexed": true,
          "internalType": "address",
          "name": "caller",
          "type": "address"
        }
      ],
      "name": "LogDiscontinueVault",
      "type": "event"
    },
    {
      "anonymous": false,
      "inputs": [
        {
          "indexed": true,
          "internalType": "address",
          "name": "vault",
          "type": "address"
        },
        {
          "indexed": true,
          "internalType": "bool",
          "name": "isLimitedState",
          "type": "bool"
        },
        {
          "indexed": true,
          "internalType": "address",
          "name": "caller",
          "type": "address"
        }
      ],
      "name": "LogLimitStateVault",
      "type": "event"
    },
    {
      "anonymous": false,
      "inputs": [
        {
          "indexed": true,
          "internalType": "address",
          "name": "pool",
          "type": "address"
        },
        {
          "indexed": true,
          "internalType": "bool",
          "name": "enabled",
          "type": "bool"
        },
        {
          "indexed": true,
          "internalType": "address",
          "name": "caller",
          "type": "address"
        }
      ],
      "name": "LogLiquidityPool",
      "type": "event"
    },
    {
      "anonymous": false,
      "inputs": [
        {
          "indexed": true,
          "internalType": "address",
          "name": "pool",
          "type": "address"
        },
        {
          "indexed": true,
          "internalType": "address",
          "name": "adapter",
          "type": "address"
        },
        {
          "indexed": true,
          "internalType": "address",
          "name": "caller",
          "type": "address"
        }
      ],
      "name": "LogLiquidityPoolToAdapter",
      "type": "event"
    },
    {
      "anonymous": false,
      "inputs": [
        {
          "indexed": true,
          "internalType": "address",
          "name": "vault",
          "type": "address"
        },
        {
          "indexed": true,
          "internalType": "uint256",
          "name": "minimumDepositAmount",
          "type": "uint256"
        },
        {
          "indexed": true,
          "internalType": "address",
          "name": "caller",
          "type": "address"
        }
      ],
      "name": "LogMinimumDepositAmountVault",
      "type": "event"
    },
    {
      "anonymous": false,
      "inputs": [
        {
          "indexed": true,
          "internalType": "address",
          "name": "vault",
          "type": "address"
        },
        {
          "indexed": true,
          "internalType": "uint256",
          "name": "queueCap",
          "type": "uint256"
        },
        {
          "indexed": true,
          "internalType": "address",
          "name": "caller",
          "type": "address"
        }
      ],
      "name": "LogQueueCapVault",
      "type": "event"
    },
    {
      "anonymous": false,
      "inputs": [
        {
          "indexed": true,
          "internalType": "uint256",
          "name": "index",
          "type": "uint256"
        },
        {
          "indexed": true,
          "internalType": "uint8",
          "name": "lowerLimit",
          "type": "uint8"
        },
        {
          "indexed": true,
          "internalType": "uint8",
          "name": "upperLimit",
          "type": "uint8"
        },
        {
          "indexed": false,
          "internalType": "address",
          "name": "caller",
          "type": "address"
        }
      ],
      "name": "LogRPPoolRatings",
      "type": "event"
    },
    {
      "anonymous": false,
      "inputs": [
        {
          "indexed": true,
          "internalType": "address",
          "name": "pool",
          "type": "address"
        },
        {
          "indexed": true,
          "internalType": "uint8",
          "name": "rate",
          "type": "uint8"
        },
        {
          "indexed": true,
          "internalType": "address",
          "name": "caller",
          "type": "address"
        }
      ],
      "name": "LogRateCreditPool",
      "type": "event"
    },
    {
      "anonymous": false,
      "inputs": [
        {
          "indexed": true,
          "internalType": "address",
          "name": "pool",
          "type": "address"
        },
        {
          "indexed": true,
          "internalType": "uint8",
          "name": "rate",
          "type": "uint8"
        },
        {
          "indexed": true,
          "internalType": "address",
          "name": "caller",
          "type": "address"
        }
      ],
      "name": "LogRateLiquidityPool",
      "type": "event"
    },
    {
      "anonymous": false,
      "inputs": [
        {
          "indexed": true,
          "internalType": "uint256",
          "name": "index",
          "type": "uint256"
        },
        {
          "indexed": true,
          "internalType": "bool",
          "name": "exists",
          "type": "bool"
        },
        {
          "indexed": true,
          "internalType": "bool",
          "name": "canBorrow",
          "type": "bool"
        },
        {
          "indexed": false,
          "internalType": "address",
          "name": "caller",
          "type": "address"
        }
      ],
      "name": "LogRiskProfile",
      "type": "event"
    },
    {
      "anonymous": false,
      "inputs": [
        {
          "indexed": true,
          "internalType": "address",
          "name": "token",
          "type": "address"
        },
        {
          "indexed": true,
          "internalType": "bool",
          "name": "enabled",
          "type": "bool"
        },
        {
          "indexed": true,
          "internalType": "address",
          "name": "caller",
          "type": "address"
        }
      ],
      "name": "LogToken",
      "type": "event"
    },
    {
      "anonymous": false,
      "inputs": [
        {
          "indexed": true,
          "internalType": "bytes32",
          "name": "tokensHash",
          "type": "bytes32"
        },
        {
          "indexed": true,
          "internalType": "address",
          "name": "caller",
          "type": "address"
        }
      ],
      "name": "LogTokensToTokensHash",
      "type": "event"
    },
    {
      "anonymous": false,
      "inputs": [
        {
          "indexed": true,
          "internalType": "address",
          "name": "vault",
          "type": "address"
        },
        {
          "indexed": true,
          "internalType": "bool",
          "name": "unpaused",
          "type": "bool"
        },
        {
          "indexed": true,
          "internalType": "address",
          "name": "caller",
          "type": "address"
        }
      ],
      "name": "LogUnpauseVault",
      "type": "event"
    },
    {
      "anonymous": false,
      "inputs": [
        {
          "indexed": true,
          "internalType": "address",
          "name": "vault",
          "type": "address"
        },
        {
          "indexed": true,
          "internalType": "uint256",
          "name": "userDepositCap",
          "type": "uint256"
        },
        {
          "indexed": true,
          "internalType": "address",
          "name": "caller",
          "type": "address"
        }
      ],
      "name": "LogUserDepositCapVault",
      "type": "event"
    },
    {
      "anonymous": false,
      "inputs": [
        {
          "indexed": true,
          "internalType": "address",
          "name": "vault",
          "type": "address"
        },
        {
          "indexed": true,
          "internalType": "uint256",
          "name": "totalValueLockedLimitInUnderlying",
          "type": "uint256"
        },
        {
          "indexed": true,
          "internalType": "address",
          "name": "caller",
          "type": "address"
        }
      ],
      "name": "LogVaultTotalValueLockedLimitInUnderlying",
      "type": "event"
    },
    {
      "anonymous": false,
      "inputs": [
        {
          "indexed": true,
          "internalType": "address",
          "name": "financeOperator",
          "type": "address"
        },
        {
          "indexed": true,
          "internalType": "address",
          "name": "caller",
          "type": "address"
        }
      ],
      "name": "TransferFinanceOperator",
      "type": "event"
    },
    {
      "anonymous": false,
      "inputs": [
        {
          "indexed": true,
          "internalType": "address",
          "name": "optyDistributor",
          "type": "address"
        },
        {
          "indexed": true,
          "internalType": "address",
          "name": "caller",
          "type": "address"
        }
      ],
      "name": "TransferOPTYDistributor",
      "type": "event"
    },
    {
      "anonymous": false,
      "inputs": [
        {
          "indexed": true,
          "internalType": "address",
          "name": "operator",
          "type": "address"
        },
        {
          "indexed": true,
          "internalType": "address",
          "name": "caller",
          "type": "address"
        }
      ],
      "name": "TransferOperator",
      "type": "event"
    },
    {
      "anonymous": false,
      "inputs": [
        {
          "indexed": true,
          "internalType": "address",
          "name": "riskOperator",
          "type": "address"
        },
        {
          "indexed": true,
          "internalType": "address",
          "name": "caller",
          "type": "address"
        }
      ],
      "name": "TransferRiskOperator",
      "type": "event"
    },
    {
      "anonymous": false,
      "inputs": [
        {
          "indexed": true,
          "internalType": "address",
          "name": "strategyOperator",
          "type": "address"
        },
        {
          "indexed": true,
          "internalType": "address",
          "name": "caller",
          "type": "address"
        }
      ],
      "name": "TransferStrategyOperator",
      "type": "event"
    },
    {
      "anonymous": false,
      "inputs": [
        {
          "indexed": true,
          "internalType": "address",
          "name": "treasury",
          "type": "address"
        },
        {
          "indexed": true,
          "internalType": "address",
          "name": "caller",
          "type": "address"
        }
      ],
      "name": "TransferTreasury",
      "type": "event"
    },
    {
      "inputs": [
        {
          "internalType": "uint256",
          "name": "_riskProfileCode",
          "type": "uint256"
        },
        {
          "internalType": "string",
          "name": "_name",
          "type": "string"
        },
        {
          "internalType": "string",
          "name": "_symbol",
          "type": "string"
        },
        {
          "internalType": "bool",
          "name": "_canBorrow",
          "type": "bool"
        },
        {
          "components": [
            {
              "internalType": "uint8",
              "name": "lowerLimit",
              "type": "uint8"
            },
            {
              "internalType": "uint8",
              "name": "upperLimit",
              "type": "uint8"
            }
          ],
          "internalType": "struct DataTypes.PoolRatingsRange",
          "name": "_poolRatingRange",
          "type": "tuple"
        }
      ],
      "name": "addRiskProfile",
      "outputs": [],
      "stateMutability": "nonpayable",
      "type": "function"
    },
    {
      "inputs": [
        {
          "internalType": "uint256[]",
          "name": "_riskProfileCodes",
          "type": "uint256[]"
        },
        {
          "internalType": "string[]",
          "name": "_names",
          "type": "string[]"
        },
        {
          "internalType": "string[]",
          "name": "_symbols",
          "type": "string[]"
        },
        {
          "internalType": "bool[]",
          "name": "_canBorrow",
          "type": "bool[]"
        },
        {
          "components": [
            {
              "internalType": "uint8",
              "name": "lowerLimit",
              "type": "uint8"
            },
            {
              "internalType": "uint8",
              "name": "upperLimit",
              "type": "uint8"
            }
          ],
          "internalType": "struct DataTypes.PoolRatingsRange[]",
          "name": "_poolRatingRanges",
          "type": "tuple[]"
        }
      ],
      "name": "addRiskProfile",
      "outputs": [],
      "stateMutability": "nonpayable",
      "type": "function"
    },
    {
      "inputs": [
        {
          "internalType": "address",
          "name": "_pool",
          "type": "address"
        }
      ],
      "name": "approveCreditPool",
      "outputs": [],
      "stateMutability": "nonpayable",
      "type": "function"
    },
    {
      "inputs": [
        {
          "internalType": "address[]",
          "name": "_pools",
          "type": "address[]"
        }
      ],
      "name": "approveCreditPool",
      "outputs": [],
      "stateMutability": "nonpayable",
      "type": "function"
    },
    {
      "inputs": [
        {
          "internalType": "address",
          "name": "_pool",
          "type": "address"
        }
      ],
      "name": "approveLiquidityPool",
      "outputs": [],
      "stateMutability": "nonpayable",
      "type": "function"
    },
    {
      "inputs": [
        {
          "internalType": "address[]",
          "name": "_pools",
          "type": "address[]"
        }
      ],
      "name": "approveLiquidityPool",
      "outputs": [],
      "stateMutability": "nonpayable",
      "type": "function"
    },
    {
      "inputs": [
        {
          "components": [
            {
              "internalType": "address",
              "name": "pool",
              "type": "address"
            },
            {
              "internalType": "address",
              "name": "adapter",
              "type": "address"
            }
          ],
          "internalType": "struct DataTypes.PoolAdapter[]",
          "name": "_poolAdapters",
          "type": "tuple[]"
        }
      ],
      "name": "approveLiquidityPoolAndMapToAdapter",
      "outputs": [],
      "stateMutability": "nonpayable",
      "type": "function"
    },
    {
      "inputs": [
        {
          "internalType": "address",
          "name": "_pool",
          "type": "address"
        },
        {
          "internalType": "address",
          "name": "_adapter",
          "type": "address"
        }
      ],
      "name": "approveLiquidityPoolAndMapToAdapter",
      "outputs": [],
      "stateMutability": "nonpayable",
      "type": "function"
    },
    {
      "inputs": [
        {
          "internalType": "address",
          "name": "_token",
          "type": "address"
        }
      ],
      "name": "approveToken",
      "outputs": [],
      "stateMutability": "nonpayable",
      "type": "function"
    },
    {
      "inputs": [
        {
          "internalType": "address[]",
          "name": "_tokens",
          "type": "address[]"
        }
      ],
      "name": "approveToken",
      "outputs": [],
      "stateMutability": "nonpayable",
      "type": "function"
    },
    {
      "inputs": [
        {
          "internalType": "bytes32",
          "name": "_tokensHash",
          "type": "bytes32"
        },
        {
          "internalType": "address[]",
          "name": "_tokens",
          "type": "address[]"
        }
      ],
      "name": "approveTokenAndMapToTokensHash",
      "outputs": [],
      "stateMutability": "nonpayable",
      "type": "function"
    },
    {
      "inputs": [
        {
          "components": [
            {
              "internalType": "bytes32",
              "name": "tokensHash",
              "type": "bytes32"
            },
            {
              "internalType": "address[]",
              "name": "tokens",
              "type": "address[]"
            }
          ],
          "internalType": "struct DataTypes.TokensHashDetail[]",
          "name": "_tokensHashesDetails",
          "type": "tuple[]"
        }
      ],
      "name": "approveTokenAndMapToTokensHash",
      "outputs": [],
      "stateMutability": "nonpayable",
      "type": "function"
    },
    {
      "inputs": [],
      "name": "aprOracle",
      "outputs": [
        {
          "internalType": "address",
          "name": "",
          "type": "address"
        }
      ],
      "stateMutability": "view",
      "type": "function"
    },
    {
      "inputs": [
        {
          "internalType": "contract RegistryProxy",
          "name": "_registryProxy",
          "type": "address"
        }
      ],
      "name": "become",
      "outputs": [],
      "stateMutability": "nonpayable",
      "type": "function"
    },
    {
      "inputs": [
        {
          "internalType": "address",
          "name": "",
          "type": "address"
        }
      ],
      "name": "creditPools",
      "outputs": [
        {
          "internalType": "uint8",
          "name": "rating",
          "type": "uint8"
        },
        {
          "internalType": "bool",
          "name": "isLiquidityPool",
          "type": "bool"
        }
      ],
      "stateMutability": "view",
      "type": "function"
    },
    {
      "inputs": [],
      "name": "financeOperator",
      "outputs": [
        {
          "internalType": "address",
          "name": "",
          "type": "address"
        }
      ],
      "stateMutability": "view",
      "type": "function"
    },
    {
      "inputs": [],
      "name": "getFinanceOperator",
      "outputs": [
        {
          "internalType": "address",
          "name": "",
          "type": "address"
        }
      ],
      "stateMutability": "view",
      "type": "function"
    },
    {
      "inputs": [],
      "name": "getGovernance",
      "outputs": [
        {
          "internalType": "address",
          "name": "",
          "type": "address"
        }
      ],
      "stateMutability": "view",
      "type": "function"
    },
    {
      "inputs": [],
      "name": "getHarvestCodeProvider",
      "outputs": [
        {
          "internalType": "address",
          "name": "",
          "type": "address"
        }
      ],
      "stateMutability": "view",
      "type": "function"
    },
    {
      "inputs": [
        {
          "internalType": "address",
          "name": "_pool",
          "type": "address"
        }
      ],
      "name": "getLiquidityPool",
      "outputs": [
        {
          "components": [
            {
              "internalType": "uint8",
              "name": "rating",
              "type": "uint8"
            },
            {
              "internalType": "bool",
              "name": "isLiquidityPool",
              "type": "bool"
            }
          ],
          "internalType": "struct DataTypes.LiquidityPool",
          "name": "",
          "type": "tuple"
        }
      ],
      "stateMutability": "view",
      "type": "function"
    },
    {
      "inputs": [
        {
          "internalType": "address",
          "name": "_pool",
          "type": "address"
        }
      ],
      "name": "getLiquidityPoolToAdapter",
      "outputs": [
        {
          "internalType": "address",
          "name": "",
          "type": "address"
        }
      ],
      "stateMutability": "view",
      "type": "function"
    },
    {
      "inputs": [],
      "name": "getODEFIVaultBooster",
      "outputs": [
        {
          "internalType": "address",
          "name": "",
          "type": "address"
        }
      ],
      "stateMutability": "view",
      "type": "function"
    },
    {
      "inputs": [],
      "name": "getOPTYDistributor",
      "outputs": [
        {
          "internalType": "address",
          "name": "",
          "type": "address"
        }
      ],
      "stateMutability": "view",
      "type": "function"
    },
    {
      "inputs": [],
      "name": "getOperator",
      "outputs": [
        {
          "internalType": "address",
          "name": "",
          "type": "address"
        }
      ],
      "stateMutability": "view",
      "type": "function"
    },
    {
      "inputs": [],
      "name": "getRiskManager",
      "outputs": [
        {
          "internalType": "address",
          "name": "",
          "type": "address"
        }
      ],
      "stateMutability": "view",
      "type": "function"
    },
    {
      "inputs": [],
      "name": "getRiskOperator",
      "outputs": [
        {
          "internalType": "address",
          "name": "",
          "type": "address"
        }
      ],
      "stateMutability": "view",
      "type": "function"
    },
    {
      "inputs": [
        {
          "internalType": "uint256",
          "name": "_riskProfileCode",
          "type": "uint256"
        }
      ],
      "name": "getRiskProfile",
      "outputs": [
        {
          "components": [
            {
              "internalType": "uint256",
              "name": "index",
              "type": "uint256"
            },
            {
              "internalType": "bool",
              "name": "canBorrow",
              "type": "bool"
            },
            {
              "components": [
                {
                  "internalType": "uint8",
                  "name": "lowerLimit",
                  "type": "uint8"
                },
                {
                  "internalType": "uint8",
                  "name": "upperLimit",
                  "type": "uint8"
                }
              ],
              "internalType": "struct DataTypes.PoolRatingsRange",
              "name": "poolRatingsRange",
              "type": "tuple"
            },
            {
              "internalType": "bool",
              "name": "exists",
              "type": "bool"
            },
            {
              "internalType": "string",
              "name": "name",
              "type": "string"
            },
            {
              "internalType": "string",
              "name": "symbol",
              "type": "string"
            }
          ],
          "internalType": "struct DataTypes.RiskProfile",
          "name": "",
          "type": "tuple"
        }
      ],
      "stateMutability": "view",
      "type": "function"
    },
    {
      "inputs": [],
      "name": "getRiskProfileList",
      "outputs": [
        {
          "internalType": "uint256[]",
          "name": "",
          "type": "uint256[]"
        }
      ],
      "stateMutability": "view",
      "type": "function"
    },
    {
      "inputs": [],
      "name": "getStrategyOperator",
      "outputs": [
        {
          "internalType": "address",
          "name": "",
          "type": "address"
        }
      ],
      "stateMutability": "view",
      "type": "function"
    },
    {
      "inputs": [],
      "name": "getStrategyProvider",
      "outputs": [
        {
          "internalType": "address",
          "name": "",
          "type": "address"
        }
      ],
      "stateMutability": "view",
      "type": "function"
    },
    {
      "inputs": [],
      "name": "getTokenHashes",
      "outputs": [
        {
          "internalType": "bytes32[]",
          "name": "",
          "type": "bytes32[]"
        }
      ],
      "stateMutability": "view",
      "type": "function"
    },
    {
      "inputs": [
        {
          "internalType": "uint256",
          "name": "_index",
          "type": "uint256"
        }
      ],
      "name": "getTokensHashByIndex",
      "outputs": [
        {
          "internalType": "bytes32",
          "name": "",
          "type": "bytes32"
        }
      ],
      "stateMutability": "view",
      "type": "function"
    },
    {
      "inputs": [
        {
          "internalType": "bytes32",
          "name": "_tokensHash",
          "type": "bytes32"
        }
      ],
      "name": "getTokensHashIndexByHash",
      "outputs": [
        {
          "internalType": "uint256",
          "name": "",
          "type": "uint256"
        }
      ],
      "stateMutability": "view",
      "type": "function"
    },
    {
      "inputs": [
        {
          "internalType": "bytes32",
          "name": "_tokensHash",
          "type": "bytes32"
        }
      ],
      "name": "getTokensHashToTokenList",
      "outputs": [
        {
          "internalType": "address[]",
          "name": "",
          "type": "address[]"
        }
      ],
      "stateMutability": "view",
      "type": "function"
    },
    {
      "inputs": [],
      "name": "governance",
      "outputs": [
        {
          "internalType": "address",
          "name": "",
          "type": "address"
        }
      ],
      "stateMutability": "view",
      "type": "function"
    },
    {
      "inputs": [],
      "name": "harvestCodeProvider",
      "outputs": [
        {
          "internalType": "address",
          "name": "",
          "type": "address"
        }
      ],
      "stateMutability": "view",
      "type": "function"
    },
    {
      "inputs": [],
      "name": "investStrategyRegistry",
      "outputs": [
        {
          "internalType": "address",
          "name": "",
          "type": "address"
        }
      ],
      "stateMutability": "view",
      "type": "function"
    },
    {
      "inputs": [
        {
          "internalType": "address",
          "name": "_token",
          "type": "address"
        }
      ],
      "name": "isApprovedToken",
      "outputs": [
        {
          "internalType": "bool",
          "name": "",
          "type": "bool"
        }
      ],
      "stateMutability": "view",
      "type": "function"
    },
    {
      "inputs": [
        {
          "internalType": "address",
          "name": "",
          "type": "address"
        }
      ],
      "name": "liquidityPoolToAdapter",
      "outputs": [
        {
          "internalType": "address",
          "name": "",
          "type": "address"
        }
      ],
      "stateMutability": "view",
      "type": "function"
    },
    {
      "inputs": [
        {
          "internalType": "address",
          "name": "",
          "type": "address"
        }
      ],
      "name": "liquidityPools",
      "outputs": [
        {
          "internalType": "uint8",
          "name": "rating",
          "type": "uint8"
        },
        {
          "internalType": "bool",
          "name": "isLiquidityPool",
          "type": "bool"
        }
      ],
      "stateMutability": "view",
      "type": "function"
    },
    {
      "inputs": [],
      "name": "odefiVaultBooster",
      "outputs": [
        {
          "internalType": "address",
          "name": "",
          "type": "address"
        }
      ],
      "stateMutability": "view",
      "type": "function"
    },
    {
      "inputs": [],
      "name": "operator",
      "outputs": [
        {
          "internalType": "address",
          "name": "",
          "type": "address"
        }
      ],
      "stateMutability": "view",
      "type": "function"
    },
    {
      "inputs": [],
      "name": "opty",
      "outputs": [
        {
          "internalType": "address",
          "name": "",
          "type": "address"
        }
      ],
      "stateMutability": "view",
      "type": "function"
    },
    {
      "inputs": [],
      "name": "optyDistributor",
      "outputs": [
        {
          "internalType": "address",
          "name": "",
          "type": "address"
        }
      ],
      "stateMutability": "view",
      "type": "function"
    },
    {
      "inputs": [],
      "name": "optyStakingRateBalancer",
      "outputs": [
        {
          "internalType": "address",
          "name": "",
          "type": "address"
        }
      ],
      "stateMutability": "view",
      "type": "function"
    },
    {
      "inputs": [],
      "name": "pendingGovernance",
      "outputs": [
        {
          "internalType": "address",
          "name": "",
          "type": "address"
        }
      ],
      "stateMutability": "view",
      "type": "function"
    },
    {
      "inputs": [],
      "name": "pendingRegistryImplementation",
      "outputs": [
        {
          "internalType": "address",
          "name": "",
          "type": "address"
        }
      ],
      "stateMutability": "view",
      "type": "function"
    },
    {
      "inputs": [
        {
          "internalType": "address",
          "name": "_pool",
          "type": "address"
        },
        {
          "internalType": "uint8",
          "name": "_rate",
          "type": "uint8"
        }
      ],
      "name": "rateCreditPool",
      "outputs": [],
      "stateMutability": "nonpayable",
      "type": "function"
    },
    {
      "inputs": [
        {
          "components": [
            {
              "internalType": "address",
              "name": "pool",
              "type": "address"
            },
            {
              "internalType": "uint8",
              "name": "rate",
              "type": "uint8"
            }
          ],
          "internalType": "struct DataTypes.PoolRate[]",
          "name": "_poolRates",
          "type": "tuple[]"
        }
      ],
      "name": "rateCreditPool",
      "outputs": [],
      "stateMutability": "nonpayable",
      "type": "function"
    },
    {
      "inputs": [
        {
          "components": [
            {
              "internalType": "address",
              "name": "pool",
              "type": "address"
            },
            {
              "internalType": "uint8",
              "name": "rate",
              "type": "uint8"
            }
          ],
          "internalType": "struct DataTypes.PoolRate[]",
          "name": "_poolRates",
          "type": "tuple[]"
        }
      ],
      "name": "rateLiquidityPool",
      "outputs": [],
      "stateMutability": "nonpayable",
      "type": "function"
    },
    {
      "inputs": [
        {
          "internalType": "address",
          "name": "_pool",
          "type": "address"
        },
        {
          "internalType": "uint8",
          "name": "_rate",
          "type": "uint8"
        }
      ],
      "name": "rateLiquidityPool",
      "outputs": [],
      "stateMutability": "nonpayable",
      "type": "function"
    },
    {
      "inputs": [],
      "name": "registryImplementation",
      "outputs": [
        {
          "internalType": "address",
          "name": "",
          "type": "address"
        }
      ],
      "stateMutability": "view",
      "type": "function"
    },
    {
      "inputs": [
        {
          "internalType": "uint256",
          "name": "_index",
          "type": "uint256"
        }
      ],
      "name": "removeRiskProfile",
      "outputs": [],
      "stateMutability": "nonpayable",
      "type": "function"
    },
    {
      "inputs": [
        {
          "internalType": "address[]",
          "name": "_pools",
          "type": "address[]"
        }
      ],
      "name": "revokeCreditPool",
      "outputs": [],
      "stateMutability": "nonpayable",
      "type": "function"
    },
    {
      "inputs": [
        {
          "internalType": "address",
          "name": "_pool",
          "type": "address"
        }
      ],
      "name": "revokeCreditPool",
      "outputs": [],
      "stateMutability": "nonpayable",
      "type": "function"
    },
    {
      "inputs": [
        {
          "internalType": "address[]",
          "name": "_pools",
          "type": "address[]"
        }
      ],
      "name": "revokeLiquidityPool",
      "outputs": [],
      "stateMutability": "nonpayable",
      "type": "function"
    },
    {
      "inputs": [
        {
          "internalType": "address",
          "name": "_pool",
          "type": "address"
        }
      ],
      "name": "revokeLiquidityPool",
      "outputs": [],
      "stateMutability": "nonpayable",
      "type": "function"
    },
    {
      "inputs": [
        {
          "internalType": "address",
          "name": "_token",
          "type": "address"
        }
      ],
      "name": "revokeToken",
      "outputs": [],
      "stateMutability": "nonpayable",
      "type": "function"
    },
    {
      "inputs": [
        {
          "internalType": "address[]",
          "name": "_tokens",
          "type": "address[]"
        }
      ],
      "name": "revokeToken",
      "outputs": [],
      "stateMutability": "nonpayable",
      "type": "function"
    },
    {
      "inputs": [],
      "name": "riskManager",
      "outputs": [
        {
          "internalType": "address",
          "name": "",
          "type": "address"
        }
      ],
      "stateMutability": "view",
      "type": "function"
    },
    {
      "inputs": [],
      "name": "riskOperator",
      "outputs": [
        {
          "internalType": "address",
          "name": "",
          "type": "address"
        }
      ],
      "stateMutability": "view",
      "type": "function"
    },
    {
      "inputs": [
        {
          "internalType": "uint256",
          "name": "",
          "type": "uint256"
        }
      ],
      "name": "riskProfilesArray",
      "outputs": [
        {
          "internalType": "uint256",
          "name": "",
          "type": "uint256"
        }
      ],
      "stateMutability": "view",
      "type": "function"
    },
    {
      "inputs": [
        {
          "internalType": "address",
          "name": "_financeOperator",
          "type": "address"
        }
      ],
      "name": "setFinanceOperator",
      "outputs": [],
      "stateMutability": "nonpayable",
      "type": "function"
    },
    {
      "inputs": [
        {
          "internalType": "address",
          "name": "_harvestCodeProvider",
          "type": "address"
        }
      ],
      "name": "setHarvestCodeProvider",
      "outputs": [],
      "stateMutability": "nonpayable",
      "type": "function"
    },
    {
      "inputs": [
        {
          "internalType": "address",
          "name": "_pool",
          "type": "address"
        },
        {
          "internalType": "address",
          "name": "_adapter",
          "type": "address"
        }
      ],
      "name": "setLiquidityPoolToAdapter",
      "outputs": [],
      "stateMutability": "nonpayable",
      "type": "function"
    },
    {
      "inputs": [
        {
          "components": [
            {
              "internalType": "address",
              "name": "pool",
              "type": "address"
            },
            {
              "internalType": "address",
              "name": "adapter",
              "type": "address"
            }
          ],
          "internalType": "struct DataTypes.PoolAdapter[]",
          "name": "_poolAdapters",
          "type": "tuple[]"
        }
      ],
      "name": "setLiquidityPoolToAdapter",
      "outputs": [],
      "stateMutability": "nonpayable",
      "type": "function"
    },
    {
      "inputs": [
        {
          "internalType": "address",
          "name": "_odefiVaultBooster",
          "type": "address"
        }
      ],
      "name": "setODEFIVaultBooster",
      "outputs": [],
      "stateMutability": "nonpayable",
      "type": "function"
    },
    {
      "inputs": [
        {
          "internalType": "address",
          "name": "_opty",
          "type": "address"
        }
      ],
      "name": "setOPTY",
      "outputs": [],
      "stateMutability": "nonpayable",
      "type": "function"
    },
    {
      "inputs": [
        {
          "internalType": "address",
          "name": "_optyDistributor",
          "type": "address"
        }
      ],
      "name": "setOPTYDistributor",
      "outputs": [],
      "stateMutability": "nonpayable",
      "type": "function"
    },
    {
      "inputs": [
        {
          "internalType": "address",
          "name": "_operator",
          "type": "address"
        }
      ],
      "name": "setOperator",
      "outputs": [],
      "stateMutability": "nonpayable",
      "type": "function"
    },
    {
      "inputs": [
        {
          "internalType": "address",
          "name": "_riskManager",
          "type": "address"
        }
      ],
      "name": "setRiskManager",
      "outputs": [],
      "stateMutability": "nonpayable",
      "type": "function"
    },
    {
      "inputs": [
        {
          "internalType": "address",
          "name": "_riskOperator",
          "type": "address"
        }
      ],
      "name": "setRiskOperator",
      "outputs": [],
      "stateMutability": "nonpayable",
      "type": "function"
    },
    {
      "inputs": [
        {
          "internalType": "address",
          "name": "_strategyOperator",
          "type": "address"
        }
      ],
      "name": "setStrategyOperator",
      "outputs": [],
      "stateMutability": "nonpayable",
      "type": "function"
    },
    {
      "inputs": [
        {
          "internalType": "address",
          "name": "_strategyProvider",
          "type": "address"
        }
      ],
      "name": "setStrategyProvider",
      "outputs": [],
      "stateMutability": "nonpayable",
      "type": "function"
    },
    {
      "inputs": [
        {
          "internalType": "bytes32",
          "name": "_tokensHash",
          "type": "bytes32"
        },
        {
          "internalType": "address[]",
          "name": "_tokens",
          "type": "address[]"
        }
      ],
      "name": "setTokensHashToTokens",
      "outputs": [],
      "stateMutability": "nonpayable",
      "type": "function"
    },
    {
      "inputs": [
        {
          "components": [
            {
              "internalType": "bytes32",
              "name": "tokensHash",
              "type": "bytes32"
            },
            {
              "internalType": "address[]",
              "name": "tokens",
              "type": "address[]"
            }
          ],
          "internalType": "struct DataTypes.TokensHashDetail[]",
          "name": "_tokensHashesDetails",
          "type": "tuple[]"
        }
      ],
      "name": "setTokensHashToTokens",
      "outputs": [],
      "stateMutability": "nonpayable",
      "type": "function"
    },
    {
      "inputs": [
        {
          "internalType": "address",
          "name": "_treasury",
          "type": "address"
        }
      ],
      "name": "setTreasury",
      "outputs": [],
      "stateMutability": "nonpayable",
      "type": "function"
    },
    {
      "inputs": [],
      "name": "strategyManager",
      "outputs": [
        {
          "internalType": "address",
          "name": "",
          "type": "address"
        }
      ],
      "stateMutability": "view",
      "type": "function"
    },
    {
      "inputs": [],
      "name": "strategyOperator",
      "outputs": [
        {
          "internalType": "address",
          "name": "",
          "type": "address"
        }
      ],
      "stateMutability": "view",
      "type": "function"
    },
    {
      "inputs": [],
      "name": "strategyProvider",
      "outputs": [
        {
          "internalType": "address",
          "name": "",
          "type": "address"
        }
      ],
      "stateMutability": "view",
      "type": "function"
    },
    {
      "inputs": [
        {
          "internalType": "address",
          "name": "",
          "type": "address"
        }
      ],
      "name": "tokens",
      "outputs": [
        {
          "internalType": "bool",
          "name": "",
          "type": "bool"
        }
      ],
      "stateMutability": "view",
      "type": "function"
    },
    {
      "inputs": [
        {
          "internalType": "uint256",
          "name": "",
          "type": "uint256"
        }
      ],
      "name": "tokensHashIndexes",
      "outputs": [
        {
          "internalType": "bytes32",
          "name": "",
          "type": "bytes32"
        }
      ],
      "stateMutability": "view",
      "type": "function"
    },
    {
      "inputs": [
        {
          "internalType": "bytes32",
          "name": "",
          "type": "bytes32"
        }
      ],
      "name": "tokensHashToTokens",
      "outputs": [
        {
          "internalType": "uint256",
          "name": "index",
          "type": "uint256"
        }
      ],
      "stateMutability": "view",
      "type": "function"
    },
    {
      "inputs": [],
      "name": "treasury",
      "outputs": [
        {
          "internalType": "address",
          "name": "",
          "type": "address"
        }
      ],
      "stateMutability": "view",
      "type": "function"
    },
    {
      "inputs": [
        {
          "internalType": "uint256",
          "name": "_riskProfileCode",
          "type": "uint256"
        },
        {
          "components": [
            {
              "internalType": "uint8",
              "name": "lowerLimit",
              "type": "uint8"
            },
            {
              "internalType": "uint8",
              "name": "upperLimit",
              "type": "uint8"
            }
          ],
          "internalType": "struct DataTypes.PoolRatingsRange",
          "name": "_poolRatingRange",
          "type": "tuple"
        }
      ],
      "name": "updateRPPoolRatings",
      "outputs": [],
      "stateMutability": "nonpayable",
      "type": "function"
    },
    {
      "inputs": [
        {
          "internalType": "uint256",
          "name": "_riskProfileCode",
          "type": "uint256"
        },
        {
          "internalType": "bool",
          "name": "_canBorrow",
          "type": "bool"
        }
      ],
      "name": "updateRiskProfileBorrow",
      "outputs": [],
      "stateMutability": "nonpayable",
      "type": "function"
    },
    {
      "inputs": [
        {
          "internalType": "address",
          "name": "",
          "type": "address"
        }
      ],
      "name": "vaultToVaultConfiguration",
      "outputs": [
        {
          "internalType": "bool",
          "name": "discontinued",
          "type": "bool"
        },
        {
          "internalType": "bool",
          "name": "unpaused",
          "type": "bool"
        },
        {
          "internalType": "bool",
          "name": "isLimitedState",
          "type": "bool"
        },
        {
          "internalType": "bool",
          "name": "allowWhitelistedState",
          "type": "bool"
        },
        {
          "internalType": "uint256",
          "name": "withdrawalFee",
          "type": "uint256"
        },
        {
          "internalType": "uint256",
          "name": "userDepositCap",
          "type": "uint256"
        },
        {
          "internalType": "uint256",
          "name": "minimumDepositAmount",
          "type": "uint256"
        },
        {
          "internalType": "uint256",
          "name": "totalValueLockedLimitInUnderlying",
          "type": "uint256"
        },
        {
          "internalType": "uint256",
          "name": "queueCap",
          "type": "uint256"
        }
      ],
      "stateMutability": "view",
      "type": "function"
    },
    {
      "inputs": [
        {
          "internalType": "address",
          "name": "",
          "type": "address"
        },
        {
          "internalType": "address",
          "name": "",
          "type": "address"
        }
      ],
      "name": "whitelistedUsers",
      "outputs": [
        {
          "internalType": "bool",
          "name": "",
          "type": "bool"
        }
      ],
      "stateMutability": "view",
      "type": "function"
    },
    {
      "inputs": [],
      "name": "withdrawalFeeRange",
      "outputs": [
        {
          "internalType": "uint256",
          "name": "lowerLimit",
          "type": "uint256"
        },
        {
          "internalType": "uint256",
          "name": "upperLimit",
          "type": "uint256"
        }
      ],
      "stateMutability": "view",
      "type": "function"
    }
  ],
  "transactionHash": "0x72965d783434260e3cb6222ad3528c9588cb26160ccdacdd09bb624dfa65b173",
  "args": [],
  "bytecode": "0x608060405234801561001057600080fd5b50613e73806100206000396000f3fe608060405234801561001057600080fd5b50600436106104e35760003560e01c80638a16ce861161028e578063ae0cd29911610167578063e4860339116100d9578063f192e82c11610092578063f192e82c14610a5e578063f39c38a014610a71578063fa0ad89614610a79578063fabee0e614610a8c578063fc50f22414610a94578063fe794f9314610aa7576104e3565b8063e486033914610a02578063e7f43c6814610a15578063e990b46c14610a1d578063edd0fd7e14610a30578063ef1bbb9814610a38578063f0f4426014610a4b576104e3565b8063d117f0f21161012b578063d117f0f2146109b1578063d3af584c146109c4578063d41fa529146109d7578063d71f05e6146109df578063d9cafe72146109e7578063e1e1a62e146109fa576104e3565b8063ae0cd2991461095d578063b3ab15fb14610970578063b7407bf614610983578063bcd2c20f1461098b578063cbd6e6c31461099e576104e3565b80639ec39e2f11610200578063a7b61c51116101c4578063a7b61c51146108f6578063a7d8c1a4146108fe578063a91624c614610911578063a99e772114610924578063a9f9e68614610937578063adbd11551461094a576104e3565b80639ec39e2f146108925780639fac5d4a146108b2578063a1194c8e146108ba578063a2631006146108cd578063a3c0c800146108e3576104e3565b8063933f4eef11610252578063933f4eef14610841578063941074fe1461085457806394990bd8146108675780639611ad2d1461086f578063992812b7146108775780639be142831461087f576104e3565b80638a16ce86146107d85780638bb01810146107e05780638fca99b21461080857806390d8c5a41461081b578063923bb7ff1461082e576104e3565b8063570ca735116103c05780636fa97306116103325780637af0e557116102f65780637af0e5571461077a5780637f70cc921461078257806380b2edd81461078a5780638346525f1461079d57806384e37fbf146107bd578063884a7e19146107c5576104e3565b80636fa973061461071957806370011e611461072e5780637445a23b14610741578063761125fc1461075457806379b39f8d14610767576104e3565b806361660c5e1161038457806361660c5e146106d357806361d027b3146106db57806362ca8460146106e3578063689589a2146106f65780636afe4cbe146106fe5780636cc1761e14610711576104e3565b8063570ca735146106955780635812de431461069d5780635967f7ee146106b05780635aa6e675146106b85780635d3cae15146106c0576104e3565b80632e465b2911610459578063466dbe801161041d578063466dbe8014610639578063478426631461064c5780634a5175f4146106545780634ad8efe6146106675780634cacbb421461067a5780634d911ab414610682576104e3565b80632e465b29146105f05780632ea8f44e14610603578063314e5fee1461060b5780633753c6371461061e57806339b70e3814610631576104e3565b80631e57e187116104ab5780631e57e1871461056f57806321310c2b1461058257806326c29c1c14610595578063289b3c0d146105a85780632ae94863146105b05780632d5ad3d5146105d0576104e3565b806305415996146104e85780630af3a496146105065780630b0fd47e1461051b5780630dfbe91b1461053c5780631d1628b31461054f575b600080fd5b6104f0610aba565b6040516104fd91906138a9565b60405180910390f35b61051961051436600461340d565b610ac9565b005b61052e610529366004613361565b610b30565b6040516104fd929190613de7565b61052e61054a366004613361565b610b4e565b61056261055d36600461370d565b610b6c565b6040516104fd919061398e565b61051961057d366004613725565b610b7e565b61051961059036600461340d565b610be3565b6105196105a3366004613361565b610c3d565b6104f0610c89565b6105c36105be366004613361565b610c98565b6040516104fd9190613d34565b6105e36105de366004613361565b610ce0565b6040516104fd9190613942565b6105196105fe366004613361565b610cfe565b6104f0610d34565b610519610619366004613361565b610d43565b61051961062c366004613361565b610e30565b6104f0610ed3565b610519610647366004613576565b610ee2565b6104f0610faa565b6105196106623660046134e6565b610fb9565b6105196106753660046133a0565b61102f565b6104f06110a0565b6105196106903660046137a6565b6110af565b6104f06110ed565b6105626106ab36600461370d565b6110fc565b6104f061111d565b6104f061112c565b6105196106ce36600461370d565b61113b565b6104f061116e565b6104f061117d565b6105196106f1366004613361565b61118c565b6104f0611279565b61051961070c366004613835565b611288565b6104f06112bc565b6107216112cb565b6040516104fd919061390a565b61051961073c366004613725565b611323565b61051961074f3660046133d8565b61137c565b610519610762366004613448565b6113b0565b610519610775366004613361565b611446565b6104f0611533565b6104f0611542565b610519610798366004613361565b611551565b6107b06107ab36600461370d565b611584565b6040516104fd91906138bd565b6104f06115f3565b6105196107d3366004613361565b611602565b6104f0611635565b6107f36107ee366004613361565b611644565b6040516104fd9998979695949392919061394d565b6105e36108163660046133a0565b611698565b61051961082936600461340d565b6116b8565b6104f061083c366004613361565b611712565b61051961084f366004613361565b611730565b610519610862366004613782565b611763565b6104f0611797565b6104f06117a6565b6104f06117b5565b6104f061088d366004613361565b6117c4565b6108a56108a036600461370d565b6117df565b6040516104fd9190613d50565b6104f061197a565b6105196108c8366004613361565b611989565b6108d5611ae9565b6040516104fd929190613dd9565b6105196108f1366004613641565b611af2565b6104f0611c49565b61051961090c36600461340d565b611c58565b61051961091f366004613361565b611cb2565b61051961093236600461340d565b611ce5565b61051961094536600461340d565b611d3f565b61056261095836600461370d565b611d8c565b61051961096b366004613361565b611d9e565b61051961097e366004613361565b611e41565b6104f0611ee4565b610519610999366004613576565b611ef3565b6105626109ac36600461370d565b611f7c565b6105196109bf366004613361565b611f9a565b6105196109d2366004613361565b612045565b610721612078565b6104f06120ce565b6105196109f53660046133a0565b6120dd565b6104f0612110565b6105e3610a10366004613361565b61211f565b6104f0612134565b610519610a2b366004613361565b612143565b6104f06121e6565b610519610a46366004613448565b6121f5565b610519610a59366004613361565b61229b565b610519610a6c3660046134e6565b61233e565b6104f06123b4565b610519610a873660046133d8565b6123c3565b6104f06123f7565b610519610aa2366004613361565b612406565b610562610ab536600461370d565b6124f3565b6001546001600160a01b031690565b6004546001600160a01b03163314610afc5760405162461bcd60e51b8152600401610af390613b5d565b60405180910390fd5b60005b8151811015610b2c57610b24828281518110610b1757fe5b6020026020010151612500565b600101610aff565b5050565b600c6020526000908152604090205460ff8082169161010090041682565b600d6020526000908152604090205460ff8082169161010090041682565b600b6020526000908152604090205481565b6004546001600160a01b03163314610ba85760405162461bcd60e51b8152600401610af390613b5d565b60005b8151811015610bd857610bd0828281518110610bc357fe5b602002602001015161255a565b600101610bab565b50610b2c82826125b3565b6004546001600160a01b03163314610c0d5760405162461bcd60e51b8152600401610af390613b5d565b60005b8151811015610b2c57610c35828281518110610c2857fe5b602002602001015161266b565b600101610c10565b6004546001600160a01b03163314610c675760405162461bcd60e51b8152600401610af390613b5d565b601b80546001600160a01b0319166001600160a01b0392909216919091179055565b6000546001600160a01b031690565b610ca0612ec6565b506001600160a01b0381166000908152600c602090815260409182902082518084019093525460ff8082168452610100909104161515908201525b919050565b6001600160a01b03166000908152600a602052604090205460ff1690565b6004546001600160a01b03163314610d285760405162461bcd60e51b8152600401610af390613b5d565b610d31816126c5565b50565b6002546001600160a01b031681565b6004546001600160a01b03163314610d6d5760405162461bcd60e51b8152600401610af390613b5d565b306001600160a01b0316816001600160a01b03166328c1f99b6040518163ffffffff1660e01b815260040160206040518083038186803b158015610db057600080fd5b505afa158015610dc4573d6000803e3d6000fd5b505050506040513d601f19601f82011682018060405250810190610de89190613384565b6001600160a01b031614610e0e5760405162461bcd60e51b8152600401610af390613c6c565b601e80546001600160a01b0319166001600160a01b0392909216919091179055565b6000546001600160a01b03163314610e5a5760405162461bcd60e51b8152600401610af390613997565b6001600160a01b038116610e805760405162461bcd60e51b8152600401610af3906139ce565b600180546001600160a01b0319166001600160a01b0383811691909117918290556040513392909116907fcebe670e32fa7e67739a1eb996a0fa247dec70da938e96fd5b0a5dadd80a93ce90600090a350565b601a546001600160a01b031681565b6004546001600160a01b03163314610f0c5760405162461bcd60e51b8152600401610af390613b5d565b60005b8151811015610b2c5760005b828281518110610f2757fe5b60200260200101516020015151811015610f6957610f61838381518110610f4a57fe5b6020026020010151602001518281518110610bc357fe5b600101610f1b565b50610fa2828281518110610f7957fe5b602002602001015160000151838381518110610f9157fe5b6020026020010151602001516125b3565b600101610f0f565b6018546001600160a01b031681565b6002546001600160a01b03163314610fe35760405162461bcd60e51b8152600401610af390613c35565b60005b8151811015610b2c57611027828281518110610ffe57fe5b60200260200101516000015183838151811061101657fe5b602002602001015160200151612723565b600101610fe6565b6004546001600160a01b031633146110595760405162461bcd60e51b8152600401610af390613b5d565b6001600160a01b0382166000908152600c6020526040902054610100900460ff166110965760405162461bcd60e51b8152600401610af390613bdd565b610b2c82826127bf565b6016546001600160a01b031681565b6002546001600160a01b031633146110d95760405162461bcd60e51b8152600401610af390613c35565b6110e685858585856128ba565b5050505050565b6004546001600160a01b031681565b60006014828154811061110b57fe5b90600052602060002001549050919050565b601e546001600160a01b031690565b6000546001600160a01b031681565b6002546001600160a01b031633146111655760405162461bcd60e51b8152600401610af390613c35565b610d3181612abc565b6001546001600160a01b031681565b6005546001600160a01b031681565b6004546001600160a01b031633146111b65760405162461bcd60e51b8152600401610af390613b5d565b306001600160a01b0316816001600160a01b03166328c1f99b6040518163ffffffff1660e01b815260040160206040518083038186803b1580156111f957600080fd5b505afa15801561120d573d6000803e3d6000fd5b505050506040513d601f19601f820116820180604052508101906112319190613384565b6001600160a01b0316146112575760405162461bcd60e51b8152600401610af390613c6c565b601880546001600160a01b0319166001600160a01b0392909216919091179055565b6006546001600160a01b031681565b6002546001600160a01b031633146112b25760405162461bcd60e51b8152600401610af390613c35565b610b2c8282612b93565b601e546001600160a01b031681565b6060601480548060200260200160405190810160405280929190818152602001828054801561131957602002820191906000526020600020905b815481526020019060010190808311611305575b5050505050905090565b6004546001600160a01b0316331461134d5760405162461bcd60e51b8152600401610af390613b5d565b61135681612c3a565b6113725760405162461bcd60e51b8152600401610af390613b13565b610b2c82826125b3565b6002546001600160a01b031633146113a65760405162461bcd60e51b8152600401610af390613c35565b610b2c8282612c9d565b6004546001600160a01b031633146113da5760405162461bcd60e51b8152600401610af390613b5d565b60005b8151811015610b2c576114068282815181106113f557fe5b6020026020010151600001516126c5565b61143e82828151811061141557fe5b60200260200101516000015183838151811061142d57fe5b6020026020010151602001516127bf565b6001016113dd565b6004546001600160a01b031633146114705760405162461bcd60e51b8152600401610af390613b5d565b306001600160a01b0316816001600160a01b03166328c1f99b6040518163ffffffff1660e01b815260040160206040518083038186803b1580156114b357600080fd5b505afa1580156114c7573d6000803e3d6000fd5b505050506040513d601f19601f820116820180604052508101906114eb9190613384565b6001600160a01b0316146115115760405162461bcd60e51b8152600401610af390613c6c565b601980546001600160a01b0319166001600160a01b0392909216919091179055565b6002546001600160a01b031690565b601b546001600160a01b031681565b6004546001600160a01b0316331461157b5760405162461bcd60e51b8152600401610af390613b5d565b610d318161255a565b6000818152600b60209081526040918290206001018054835181840281018401909452808452606093928301828280156115e757602002820191906000526020600020905b81546001600160a01b031681526001909101906020018083116115c9575b50505050509050919050565b6009546001600160a01b031681565b6004546001600160a01b0316331461162c5760405162461bcd60e51b8152600401610af390613b5d565b610d3181612d39565b6019546001600160a01b031690565b60106020526000908152604090208054600282015460038301546004840154600585015460069095015460ff8086169661010087048216966201000081048316966301000000909104909216949193919289565b601160209081526000928352604080842090915290825290205460ff1681565b6004546001600160a01b031633146116e25760405162461bcd60e51b8152600401610af390613b5d565b60005b8151811015610b2c5761170a8282815181106116fd57fe5b6020026020010151612d39565b6001016116e5565b6001600160a01b039081166000908152600e60205260409020541690565b6004546001600160a01b0316331461175a5760405162461bcd60e51b8152600401610af390613b5d565b610d3181612d97565b6002546001600160a01b0316331461178d5760405162461bcd60e51b8152600401610af390613c35565b610b2c8282612de4565b601c546001600160a01b031681565b6003546001600160a01b031681565b6016546001600160a01b031690565b600e602052600090815260409020546001600160a01b031681565b6117e7612edd565b6000828152600f6020908152604091829020825160c0810184528154815260018083015460ff90811615158386015285518087018752600280860154808416835261010090819004841683890152858901929092526003860154909216151560608501526004850180548851948116159092026000190190911691909104601f8101869004860283018601909652858252919492936080860193919291908301828280156118d65780601f106118ab576101008083540402835291602001916118d6565b820191906000526020600020905b8154815290600101906020018083116118b957829003601f168201915b505050918352505060058201805460408051602060026001851615610100026000190190941693909304601f810184900484028201840190925281815293820193929183018282801561196a5780601f1061193f5761010080835404028352916020019161196a565b820191906000526020600020905b81548152906001019060200180831161194d57829003601f168201915b5050505050815250509050919050565b601d546001600160a01b031681565b806001600160a01b0316635aa6e6756040518163ffffffff1660e01b815260040160206040518083038186803b1580156119c257600080fd5b505afa1580156119d6573d6000803e3d6000fd5b505050506040513d601f19601f820116820180604052508101906119fa9190613384565b6001600160a01b0316336001600160a01b031614611a2a5760405162461bcd60e51b8152600401610af3906139f3565b806001600160a01b03166315ba56e56040518163ffffffff1660e01b8152600401602060405180830381600087803b158015611a6557600080fd5b505af1158015611a79573d6000803e3d6000fd5b505050506040513d601f19601f82011682018060405250810190611a9d919061376a565b15611aba5760405162461bcd60e51b8152600401610af390613aec565b50601780546001600160a01b0319908116909155601c805482169055601a805482169055601d80549091169055565b60125460135482565b6002546001600160a01b03163314611b1c5760405162461bcd60e51b8152600401610af390613c35565b6000855111611b3d5760405162461bcd60e51b8152600401610af390613b94565b8051855114611b5e5760405162461bcd60e51b8152600401610af390613c06565b8151855114611b7f5760405162461bcd60e51b8152600401610af390613a94565b8351855114611ba05760405162461bcd60e51b8152600401610af390613ce7565b8251855114611bc15760405162461bcd60e51b8152600401610af390613a69565b60005b8551811015611c4157611c39868281518110611bdc57fe5b6020026020010151868381518110611bf057fe5b6020026020010151868481518110611c0457fe5b6020026020010151868581518110611c1857fe5b6020026020010151868681518110611c2c57fe5b60200260200101516128ba565b600101611bc4565b505050505050565b6019546001600160a01b031681565b6004546001600160a01b03163314611c825760405162461bcd60e51b8152600401610af390613b5d565b60005b8151811015610b2c57611caa828281518110611c9d57fe5b6020026020010151612d97565b600101611c85565b6004546001600160a01b03163314611cdc5760405162461bcd60e51b8152600401610af390613b5d565b610d318161266b565b6004546001600160a01b03163314611d0f5760405162461bcd60e51b8152600401610af390613b5d565b60005b8151811015610b2c57611d37828281518110611d2a57fe5b60200260200101516126c5565b600101611d12565b6004546001600160a01b03163314611d695760405162461bcd60e51b8152600401610af390613b5d565b60005b8151811015610b2c57611d84828281518110610bc357fe5b600101611d6c565b6000908152600b602052604090205490565b6000546001600160a01b03163314611dc85760405162461bcd60e51b8152600401610af390613997565b6001600160a01b038116611dee5760405162461bcd60e51b8152600401610af3906139ce565b600280546001600160a01b0319166001600160a01b0383811691909117918290556040513392909116907fe0b30518e12df67a42f08188523b49c69cbf481de8356250e3cdf8c2aaf7497e90600090a350565b6000546001600160a01b03163314611e6b5760405162461bcd60e51b8152600401610af390613997565b6001600160a01b038116611e915760405162461bcd60e51b8152600401610af3906139ce565b600480546001600160a01b0319166001600160a01b0383811691909117918290556040513392909116907fa3fa0a434ea340b210144ceac453176b4e181b4467d8692e7144a6b0ab4ac07690600090a350565b6017546001600160a01b031681565b6004546001600160a01b03163314611f1d5760405162461bcd60e51b8152600401610af390613b5d565b60005b8151811015610b2c57611f49828281518110611f3857fe5b602002602001015160200151612c3a565b611f655760405162461bcd60e51b8152600401610af390613b13565b611f74828281518110610f7957fe5b600101611f20565b60158181548110611f8957fe5b600091825260209091200154905081565b6000546001600160a01b03163314611fc45760405162461bcd60e51b8152600401610af390613997565b611fd6816001600160a01b0316612e7c565b611ff25760405162461bcd60e51b8152600401610af390613c97565b600680546001600160a01b0319166001600160a01b0383811691909117918290556040513392909116907ff7ce03f54d3113e6c232684aee8d4326c04d0d25d0880532d5fe20aff52a385290600090a350565b6004546001600160a01b0316331461206f5760405162461bcd60e51b8152600401610af390613b5d565b610d3181612500565b606060158054806020026020016040519081016040528092919081815260200182805480156113195760200282019190600052602060002090815481526020019060010190808311611305575050505050905090565b6018546001600160a01b031690565b6004546001600160a01b031633146121075760405162461bcd60e51b8152600401610af390613b5d565b611096826126c5565b6006546001600160a01b031690565b600a6020526000908152604090205460ff1681565b6004546001600160a01b031690565b6000546001600160a01b0316331461216d5760405162461bcd60e51b8152600401610af390613997565b6001600160a01b0381166121935760405162461bcd60e51b8152600401610af3906139ce565b600380546001600160a01b0319166001600160a01b0383811691909117918290556040513392909116907fbea13b980bfe82b1aba43f1b930ab26252fdea6ef746815f1a17238f1522538090600090a350565b6008546001600160a01b031681565b6004546001600160a01b0316331461221f5760405162461bcd60e51b8152600401610af390613b5d565b60005b8151811015610b2c57600c600083838151811061223b57fe5b602090810291909101810151516001600160a01b0316825281019190915260400160002054610100900460ff166122845760405162461bcd60e51b8152600401610af390613bdd565b61229382828151811061141557fe5b600101612222565b6000546001600160a01b031633146122c55760405162461bcd60e51b8152600401610af390613997565b6001600160a01b0381166122eb5760405162461bcd60e51b8152600401610af3906139ce565b600580546001600160a01b0319166001600160a01b0383811691909117918290556040513392909116907f62416168b36f7c9244e51510f415e6512f57da42e56fa145081a482f5d5ce4b190600090a350565b6002546001600160a01b031633146123685760405162461bcd60e51b8152600401610af390613c35565b60005b8151811015610b2c576123ac82828151811061238357fe5b60200260200101516000015183838151811061239b57fe5b602002602001015160200151612c9d565b60010161236b565b6007546001600160a01b031681565b6002546001600160a01b031633146123ed5760405162461bcd60e51b8152600401610af390613c35565b610b2c8282612723565b6003546001600160a01b031690565b6004546001600160a01b031633146124305760405162461bcd60e51b8152600401610af390613b5d565b306001600160a01b0316816001600160a01b03166328c1f99b6040518163ffffffff1660e01b815260040160206040518083038186803b15801561247357600080fd5b505afa158015612487573d6000803e3d6000fd5b505050506040513d601f19601f820116820180604052508101906124ab9190613384565b6001600160a01b0316146124d15760405162461bcd60e51b8152600401610af390613c6c565b601680546001600160a01b0319166001600160a01b0392909216919091179055565b60148181548110611f8957fe5b6001600160a01b0381166000818152600c6020526040808220805461ff001916908190559051339361010090920460ff161515927f70ef6484131845f6ad6f5fbca17ba970d81b6d88facffe0a86445a26844b735f91a450565b6001600160a01b0381166000818152600a6020526040808220805460ff1916600117908190559051339360ff929092161515927f77708ed8f9bdf7c080ae7c78963aa6f52e70010691041c0b8b938a5eb573059991a450565b6125bc82612e82565b6125d85760405162461bcd60e51b8152600401610af390613cbc565b60148054600180820183557fce6d7b5282bd9a3661ae061feed1dbda4e52ab073b1f9285be6e155d9c38d4ec90910184905590546000848152600b602090815260409091206000199092018255835161263993929092019190840190612f15565b50604051339083907f116e2ff1d8e145cf56c90f52edfa42b39a6cea0a2f09e5dc9a165bc545b9dd8c90600090a35050565b6001600160a01b0381166000818152600d6020526040808220805461ff001916908190559051339361010090920460ff161515927fac5e05816217145d56701047113cfd15a5b83238ecc0778cb0d807d7bab1c78391a450565b6001600160a01b0381166000818152600c6020526040808220805461ff00191661010090811791829055915133949290910460ff161515927f70ef6484131845f6ad6f5fbca17ba970d81b6d88facffe0a86445a26844b735f91a450565b6001600160a01b0382166000908152600c6020526040902054610100900460ff166127605760405162461bcd60e51b8152600401610af390613bdd565b6001600160a01b0382166000818152600c6020526040808220805460ff191660ff868116919091179182905591513394919092169290917fcf84b287f966c5e78b7ee4a4e83629c9f8e12d5103506289ed75f665f9be60349190a45050565b306001600160a01b0316816001600160a01b03166328c1f99b6040518163ffffffff1660e01b815260040160206040518083038186803b15801561280257600080fd5b505afa158015612816573d6000803e3d6000fd5b505050506040513d601f19601f8201168201806040525081019061283a9190613384565b6001600160a01b0316146128605760405162461bcd60e51b8152600401610af390613c6c565b6001600160a01b038281166000818152600e602052604080822080546001600160a01b031916948616948517905551339392917f1e71d63d9ed2b661b86f8983b9ae7b77b0765ffce598e3a86665d1482823211f91a45050565b6000858152600f602052604090206003015460ff16156128ec5760405162461bcd60e51b8152600401610af390613ac1565b600084511161290d5760405162461bcd60e51b8152600401610af390613a18565b600083511161292e5760405162461bcd60e51b8152600401610af390613b34565b60158054600181019091557f55f448fdea98c4d29eb340757ef0a66cd03dbb9538908a6a81d96026b71ec475018590556000858152600f60209081526040909120855161298392600490920191870190612f7a565b506000858152600f6020908152604090912084516129a992600590920191860190612f7a565b506000858152600f60209081526040918290206001808201805460ff19908116881515179182905586516002850180549689015196831660ff9283161761ff0019166101009783169790970296909617909555601554600019018085556003909401805490911690921791829055935193831615159392161515917ff1399df5dc4422c1043b8e73d714594b13e53e28b0b6ac5fd34a4ddb3bc0eaad90612a519033906138a9565b60405180910390a46000858152600f60205260409081902060028101549054915160ff6101008304811693921691907f4094bfe2123affbdc4bb8b026f1f9e040399a1f1ea10d34debea7d9767b8532390612aad9033906138a9565b60405180910390a45050505050565b601554811115612ade5760405162461bcd60e51b8152600401610af390613a3f565b600060158281548110612aed57fe5b6000918252602080832090910154808352600f90915260409091206003015490915060ff16612b2e5760405162461bcd60e51b8152600401610af390613d10565b6000818152600f602052604080822060038101805460ff1916905560010154905160ff9091161515919084907ff1399df5dc4422c1043b8e73d714594b13e53e28b0b6ac5fd34a4ddb3bc0eaad90612b879033906138a9565b60405180910390a45050565b6000828152600f602052604090206003015460ff16612bc45760405162461bcd60e51b8152600401610af390613d10565b80516000838152600f60209081526040918290206002810180549286015160ff1990931660ff9586161761ff00191661010093861684021790819055905492519181048416931691907f4094bfe2123affbdc4bb8b026f1f9e040399a1f1ea10d34debea7d9767b8532390612b879033906138a9565b6000805b8251811015612c9457600a6000848381518110612c5757fe5b6020908102919091018101516001600160a01b031682528101919091526040016000205460ff16612c8c576000915050610cdb565b600101612c3e565b50600192915050565b6001600160a01b0382166000908152600d6020526040902054610100900460ff16612cda5760405162461bcd60e51b8152600401610af390613bb7565b6001600160a01b0382166000818152600d6020526040808220805460ff191660ff868116919091179182905591513394919092169290917f3500e655253e4fffbb615b83796bac7caee09deb85f6937161144e70a10617a19190a45050565b6001600160a01b0381166000818152600d6020526040808220805461ff00191661010090811791829055915133949290910460ff161515927fac5e05816217145d56701047113cfd15a5b83238ecc0778cb0d807d7bab1c78391a450565b6001600160a01b0381166000818152600a6020526040808220805460ff19169055513392907f77708ed8f9bdf7c080ae7c78963aa6f52e70010691041c0b8b938a5eb5730599908390a450565b6000828152600f602052604090206003015460ff16612e155760405162461bcd60e51b8152600401610af390613d10565b6000828152600f60205260409081902060018101805460ff1916841515179081905560038201549154925160ff918216151593919092161515917ff1399df5dc4422c1043b8e73d714594b13e53e28b0b6ac5fd34a4ddb3bc0eaad90612b879033906138a9565b3b151590565b601454600090612e9457506001610cdb565b6000828152600b6020526040902054601480548492908110612eb257fe5b906000526020600020015414159050919050565b604080518082019091526000808252602082015290565b6040805160c08101825260008082526020820152908101612efc612ec6565b8152600060208201526060604082018190529081015290565b828054828255906000526020600020908101928215612f6a579160200282015b82811115612f6a57825182546001600160a01b0319166001600160a01b03909116178255602090920191600190910190612f35565b50612f76929150612ff4565b5090565b828054600181600116156101000203166002900490600052602060002090601f016020900481019282601f10612fbb57805160ff1916838001178555612fe8565b82800160010185558215612fe8579182015b82811115612fe8578251825591602001919060010190612fcd565b50612f76929150613013565b5b80821115612f765780546001600160a01b0319168155600101612ff5565b5b80821115612f765760008155600101613014565b600082601f830112613038578081fd5b813561304b61304682613e23565b613dfc565b81815291506020808301908481018184028601820187101561306c57600080fd5b60005b8481101561309457813561308281613e43565b8452928201929082019060010161306f565b505050505092915050565b600082601f8301126130af578081fd5b81356130bd61304682613e23565b8181529150602080830190848101818402860182018710156130de57600080fd5b6000805b8581101561310b57823580151581146130f9578283fd5b855293830193918301916001016130e2565b50505050505092915050565b600082601f830112613127578081fd5b813561313561304682613e23565b818152915060208083019084810160005b848110156130945761315d888484358a0101613235565b84529282019290820190600101613146565b600082601f83011261317f578081fd5b813561318d61304682613e23565b81815291506020808301908481016040808502870183018810156131b057600080fd5b60005b8581101561310b576131c58984613318565b855293830193918101916001016131b3565b600082601f8301126131e7578081fd5b81356131f561304682613e23565b81815291506020808301908481018184028601820187101561321657600080fd5b60005b8481101561309457813584529282019290820190600101613219565b600082601f830112613245578081fd5b813567ffffffffffffffff81111561325b578182fd5b61326e601f8201601f1916602001613dfc565b915080825283602082850101111561328557600080fd5b8060208401602084013760009082016020015292915050565b6000604082840312156132af578081fd5b6132b96040613dfc565b905081356132c681613e43565b815260208201356132d681613e43565b602082015292915050565b6000604082840312156132f2578081fd5b6132fc6040613dfc565b9050813561330981613e43565b81526132d6836020840161334a565b600060408284031215613329578081fd5b6133336040613dfc565b905061333f838361334a565b81526132d683602084015b803560ff8116811461335b57600080fd5b92915050565b600060208284031215613372578081fd5b813561337d81613e43565b9392505050565b600060208284031215613395578081fd5b815161337d81613e43565b600080604083850312156133b2578081fd5b82356133bd81613e43565b915060208301356133cd81613e43565b809150509250929050565b600080604083850312156133ea578182fd5b82356133f581613e43565b9150613404846020850161334a565b90509250929050565b60006020828403121561341e578081fd5b813567ffffffffffffffff811115613434578182fd5b61344084828501613028565b949350505050565b6000602080838503121561345a578182fd5b823567ffffffffffffffff811115613470578283fd5b8301601f81018513613480578283fd5b803561348e61304682613e23565b818152838101908385016040808502860187018a10156134ac578788fd5b8795505b848610156134d8576134c28a8361329e565b84526001959095019492860192908101906134b0565b509098975050505050505050565b600060208083850312156134f8578182fd5b823567ffffffffffffffff81111561350e578283fd5b8301601f8101851361351e578283fd5b803561352c61304682613e23565b818152838101908385016040808502860187018a101561354a578788fd5b8795505b848610156134d8576135608a836132e1565b845260019590950194928601929081019061354e565b60006020808385031215613588578182fd5b823567ffffffffffffffff8082111561359f578384fd5b818501915085601f8301126135b2578384fd5b81356135c061304682613e23565b81815284810190848601875b848110156136325781358701604080601f19838f030112156135ec578a8bfd5b6135f581613dfc565b828b0135815290820135908882111561360c578b8cfd5b61361a8e8c84860101613028565b818c01528652505092870192908701906001016135cc565b50909998505050505050505050565b600080600080600060a08688031215613658578081fd5b853567ffffffffffffffff8082111561366f578283fd5b61367b89838a016131d7565b96506020880135915080821115613690578283fd5b61369c89838a01613117565b955060408801359150808211156136b1578283fd5b6136bd89838a01613117565b945060608801359150808211156136d2578283fd5b6136de89838a0161309f565b935060808801359150808211156136f3578283fd5b506137008882890161316f565b9150509295509295909350565b60006020828403121561371e578081fd5b5035919050565b60008060408385031215613737578182fd5b82359150602083013567ffffffffffffffff811115613754578182fd5b61376085828601613028565b9150509250929050565b60006020828403121561377b578081fd5b5051919050565b60008060408385031215613794578182fd5b8235915060208301356133cd81613e58565b600080600080600060c086880312156137bd578283fd5b85359450602086013567ffffffffffffffff808211156137db578485fd5b6137e789838a01613235565b955060408801359150808211156137fc578485fd5b5061380988828901613235565b935050606086013561381a81613e58565b91506138298760808801613318565b90509295509295909350565b60008060608385031215613847578182fd5b823591506134048460208501613318565b15159052565b60008151808452815b8181101561388357602081850181015186830182015201613867565b818111156138945782602083870101525b50601f01601f19169290920160200192915050565b6001600160a01b0391909116815260200190565b6020808252825182820181905260009190848201906040850190845b818110156138fe5783516001600160a01b0316835292840192918401916001016138d9565b50909695505050505050565b6020808252825182820181905260009190848201906040850190845b818110156138fe57835183529284019291840191600101613926565b901515815260200190565b9815158952961515602089015294151560408801529215156060870152608086019190915260a085015260c084015260e08301526101008201526101200190565b90815260200190565b6020808252601f908201527f63616c6c6572206973206e6f7420686176696e6720676f7665726e616e636500604082015260600190565b6020808252600b908201526a216164647265737328302960a81b604082015260600190565b6020808252600b908201526a21676f7665726e616e636560a81b604082015260600190565b6020808252600d908201526c52505f6e616d655f656d70747960981b604082015260600190565b60208082526010908201526f092dcecc2d8d2c8bea4e0bed2dcc8caf60831b604082015260600190565b602080825260119082015270042a4a0bee6f2dac4ded8e698cadccee8d607b1b604082015260600190565b602080825260139082015272042a4a0bec6c2dc84dee4e4deee98cadccee8d606b1b604082015260600190565b60208082526011908201527052505f616c72656164795f65786973747360781b604082015260600190565b6020808252600d908201526c085d5b985d5d1a1bdc9a5e9959609a1b604082015260600190565b60208082526007908201526621746f6b656e7360c81b604082015260600190565b6020808252600f908201526e52505f73796d626f6c5f656d70747960881b604082015260600190565b6020808252601a908201527f63616c6c6572206973206e6f7420746865206f70657261746f72000000000000604082015260600190565b6020808252600990820152680216c656e6774683e360bc1b604082015260600190565b6020808252600c908201526b21637265646974506f6f6c7360a01b604082015260600190565b6020808252600f908201526e216c6971756964697479506f6f6c7360881b604082015260600190565b602080825260159082015274042a4a0bea0deded8a4c2e8d2dccee698cadccee8d605b1b604082015260600190565b6020808252601f908201527f63616c6c6572206973206e6f7420746865207269736b206f70657261746f7200604082015260600190565b602080825260119082015270085c9959da5cdd1c9e50dbdb9d1c9858dd607a1b604082015260600190565b6020808252600b908201526a085a5cd0dbdb9d1c9858dd60aa1b604082015260600190565b602080825260119082015270042bed2e69ccaeea8ded6cadce690c2e6d607b1b604082015260600190565b6020808252600f908201526e042a4a0bedcc2dacae698cadccee8d608b1b604082015260600190565b6020808252600a90820152692152705f45786973747360b01b604082015260600190565b815160ff16815260209182015115159181019190915260400190565b60006020825282516020830152602083015115156040830152604083015160ff815116606084015260ff6020820151166080840152506060830151613d9860a0840182613858565b50608083015160e060c0840152613db361010084018261385e565b905060a0840151601f198483030160e0850152613dd0828261385e565b95945050505050565b918252602082015260400190565b60ff9290921682521515602082015260400190565b60405181810167ffffffffffffffff81118282101715613e1b57600080fd5b604052919050565b600067ffffffffffffffff821115613e39578081fd5b5060209081020190565b6001600160a01b0381168114610d3157600080fd5b8015158114610d3157600080fdfea164736f6c634300060c000a"
}