{
  "address": "0xF13D1e704D130C7b133C5beDB4A515C1372f66b5",
  "abi": [
    {
      "inputs": [
        {
          "internalType": "address",
          "name": "_registry",
          "type": "address"
        }
      ],
      "stateMutability": "nonpayable",
      "type": "constructor"
    },
    {
      "inputs": [
        {
          "internalType": "contract RiskManagerProxy",
          "name": "_riskManagerProxy",
          "type": "address"
        }
      ],
      "name": "become",
      "outputs": [],
      "stateMutability": "nonpayable",
      "type": "function"
    },
    {
      "inputs": [
        {
          "internalType": "uint256",
          "name": "_riskProfileCode",
          "type": "uint256"
        },
        {
          "internalType": "bytes32",
          "name": "_underlyingTokensHash",
          "type": "bytes32"
        }
      ],
      "name": "getBestStrategy",
      "outputs": [
        {
          "components": [
            {
              "internalType": "address",
              "name": "pool",
              "type": "address"
            },
            {
              "internalType": "address",
              "name": "outputToken",
              "type": "address"
            },
            {
              "internalType": "bool",
              "name": "isBorrow",
              "type": "bool"
            }
          ],
          "internalType": "struct DataTypes.StrategyStep[]",
          "name": "",
          "type": "tuple[]"
        }
      ],
      "stateMutability": "view",
      "type": "function"
    },
    {
      "inputs": [
        {
          "internalType": "bytes32",
          "name": "_underlyingTokensHash",
          "type": "bytes32"
        }
      ],
      "name": "getVaultRewardTokenStrategy",
      "outputs": [
        {
          "components": [
            {
              "internalType": "uint256",
              "name": "hold",
              "type": "uint256"
            },
            {
              "internalType": "uint256",
              "name": "convert",
              "type": "uint256"
            }
          ],
          "internalType": "struct DataTypes.VaultRewardStrategy",
          "name": "",
          "type": "tuple"
        }
      ],
      "stateMutability": "view",
      "type": "function"
    },
    {
      "inputs": [],
      "name": "pendingRiskManagerImplementation",
      "outputs": [
        {
          "internalType": "address",
          "name": "",
          "type": "address"
        }
      ],
      "stateMutability": "view",
      "type": "function"
    },
    {
      "inputs": [],
      "name": "registryContract",
      "outputs": [
        {
          "internalType": "contract IRegistry",
          "name": "",
          "type": "address"
        }
      ],
      "stateMutability": "view",
      "type": "function"
    },
    {
      "inputs": [],
      "name": "riskManagerImplementation",
      "outputs": [
        {
          "internalType": "address",
          "name": "",
          "type": "address"
        }
      ],
      "stateMutability": "view",
      "type": "function"
    },
    {
      "inputs": [
        {
          "internalType": "address",
          "name": "_registry",
          "type": "address"
        }
      ],
      "name": "setRegistry",
      "outputs": [],
      "stateMutability": "nonpayable",
      "type": "function"
    }
  ],
  "transactionHash": "0x8378619167dd0f58117a98db2528a9b95145925a399f1f749117f395e0f39a64",
  "args": [
    "0x99fa011e33a8c6196869dec7bc407e896ba67fe3"
  ],
  "bytecode": "0x608060405234801561001057600080fd5b5060405161120338038061120383398101604081905261002f91610054565b600280546001600160a01b0319166001600160a01b0392909216919091179055610082565b600060208284031215610065578081fd5b81516001600160a01b038116811461007b578182fd5b9392505050565b611172806100916000396000f3fe608060405234801561001057600080fd5b506004361061007d5760003560e01c80638db4fab41161005b5780638db4fab4146100c8578063a1194c8e146100d0578063a64e1e7b146100e5578063a91ee0dc146101055761007d565b8063231921511461008257806328c1f99b146100ab57806343aa3987146100c0575b600080fd5b610095610090366004610d98565b610118565b6040516100a291906110d6565b60405180910390f35b6100b3610226565b6040516100a29190610f2a565b6100b3610235565b6100b3610244565b6100e36100de366004610c08565b610253565b005b6100f86100f3366004610f09565b6103a5565b6040516100a29190610f3e565b6100e3610113366004610c08565b6103b8565b610120610a5f565b600260009054906101000a90046001600160a01b03166001600160a01b031663992812b76040518163ffffffff1660e01b815260040160206040518083038186803b15801561016e57600080fd5b505afa158015610182573d6000803e3d6000fd5b505050506040513d601f19601f820116820180604052508101906101a69190610c24565b6001600160a01b031663f4448faf836040518263ffffffff1660e01b81526004016101d19190610fa5565b604080518083038186803b1580156101e857600080fd5b505afa1580156101fc573d6000803e3d6000fd5b505050506040513d601f19601f820116820180604052508101906102209190610ebe565b92915050565b6002546001600160a01b031681565b6000546001600160a01b031681565b6001546001600160a01b031681565b600260009054906101000a90046001600160a01b03166001600160a01b031663289b3c0d6040518163ffffffff1660e01b815260040160206040518083038186803b1580156102a157600080fd5b505afa1580156102b5573d6000803e3d6000fd5b505050506040513d601f19601f820116820180604052508101906102d99190610c24565b6001600160a01b0316336001600160a01b0316146103125760405162461bcd60e51b815260040161030990610fae565b60405180910390fd5b806001600160a01b03166315ba56e56040518163ffffffff1660e01b8152600401602060405180830381600087803b15801561034d57600080fd5b505af1158015610361573d6000803e3d6000fd5b505050506040513d601f19601f820116820180604052508101906103859190610ef1565b156103a25760405162461bcd60e51b815260040161030990611005565b50565b60606103b183836104be565b9392505050565b600260009054906101000a90046001600160a01b03166001600160a01b031663e7f43c686040518163ffffffff1660e01b815260040160206040518083038186803b15801561040657600080fd5b505afa15801561041a573d6000803e3d6000fd5b505050506040513d601f19601f8201168201806040525081019061043e9190610c24565b6001600160a01b0316336001600160a01b03161461046e5760405162461bcd60e51b81526004016103099061102c565b610480816001600160a01b031661090e565b61049c5760405162461bcd60e51b81526004016103099061108d565b600280546001600160a01b0319166001600160a01b0392909216919091179055565b600254604051638346525f60e01b815260609182916001600160a01b0390911690638346525f906104f3908690600401610fa5565b60006040518083038186803b15801561050b57600080fd5b505afa15801561051f573d6000803e3d6000fd5b505050506040513d6000823e601f3d908101601f191682016040526105479190810190610c40565b9050600081511161056a5760405162461bcd60e51b815260040161030990611063565b60005b81518110156106315760025482516001600160a01b0390911690632d5ad3d59084908490811061059957fe5b60200260200101516040518263ffffffff1660e01b81526004016105bd9190610f2a565b60206040518083038186803b1580156105d557600080fd5b505afa1580156105e9573d6000803e3d6000fd5b505050506040513d601f19601f8201168201806040525081019061060d9190610d7c565b6106295760405162461bcd60e51b815260040161030990610fe5565b60010161056d565b5061063a610a79565b600254604051639ec39e2f60e01b81526001600160a01b0390911690639ec39e2f9061066a908890600401610fa5565b60006040518083038186803b15801561068257600080fd5b505afa158015610696573d6000803e3d6000fd5b505050506040513d6000823e601f3d908101601f191682016040526106be9190810190610df0565b905080606001516106e15760405162461bcd60e51b8152600401610309906110b2565b6002546040805163992812b760e01b815290516060926001600160a01b03169163992812b7916004808301926020929190829003018186803b15801561072657600080fd5b505afa15801561073a573d6000803e3d6000fd5b505050506040513d601f19601f8201168201806040525081019061075e9190610c24565b6001600160a01b031663d11917d587876040518363ffffffff1660e01b815260040161078b9291906110ed565b60006040518083038186803b1580156107a357600080fd5b505afa1580156107b7573d6000803e3d6000fd5b505050506040513d6000823e601f3d908101601f191682016040526107df9190810190610cde565b90508051600014806107f657506107f68183610914565b1561090557600260009054906101000a90046001600160a01b03166001600160a01b031663992812b76040518163ffffffff1660e01b815260040160206040518083038186803b15801561084957600080fd5b505afa15801561085d573d6000803e3d6000fd5b505050506040513d601f19601f820116820180604052508101906108819190610c24565b6001600160a01b031663f0e182e787876040518363ffffffff1660e01b81526004016108ae9291906110ed565b60006040518083038186803b1580156108c657600080fd5b505afa1580156108da573d6000803e3d6000fd5b505050506040513d6000823e601f3d908101601f191682016040526109029190810190610cde565b90505b95945050505050565b3b151590565b6000805b8351811015610a5557610929610ab1565b60025485516001600160a01b0390911690632ae948639087908590811061094c57fe5b6020026020010151600001516040518263ffffffff1660e01b81526004016109749190610f2a565b604080518083038186803b15801561098b57600080fd5b505afa15801561099f573d6000803e3d6000fd5b505050506040513d601f19601f820116820180604052508101906109c39190610db0565b9050600081602001511580610a045750604085015151825160ff918216911610801590610a02575084604001516020015160ff16826000015160ff1611155b155b90508460200151158015610a16575080155b610a205780610a39565b858381518110610a2c57fe5b6020026020010151604001515b90508015610a4b579250610220915050565b5050600101610918565b5060009392505050565b604051806040016040528060008152602001600081525090565b6040805160c08101825260008082526020820152908101610a98610ab1565b8152600060208201526060604082018190529081015290565b604080518082019091526000808252602082015290565b8051801515811461022057600080fd5b600082601f830112610ae8578081fd5b815167ffffffffffffffff811115610afe578182fd5b6020610b12601f8301601f191682016110fb565b92508183528481838601011115610b2857600080fd5b60005b82811015610b46578481018201518482018301528101610b2b565b82811115610b575760008284860101525b50505092915050565b600060408284031215610b71578081fd5b610b7b60406110fb565b9050610b878383610bf7565b8152610b968360208401610bf7565b602082015292915050565b600060608284031215610bb2578081fd5b610bbc60606110fb565b90508151610bc981611142565b81526020820151610bd981611142565b60208201526040820151610bec81611157565b604082015292915050565b805160ff8116811461022057600080fd5b600060208284031215610c19578081fd5b81356103b181611142565b600060208284031215610c35578081fd5b81516103b181611142565b60006020808385031215610c52578182fd5b825167ffffffffffffffff811115610c68578283fd5b8301601f81018513610c78578283fd5b8051610c8b610c8682611122565b6110fb565b8181528381019083850185840285018601891015610ca7578687fd5b8694505b83851015610cd2578051610cbe81611142565b835260019490940193918501918501610cab565b50979650505050505050565b60006020808385031215610cf0578182fd5b825167ffffffffffffffff811115610d06578283fd5b8301601f81018513610d16578283fd5b8051610d24610c8682611122565b818152838101908385016060808502860187018a1015610d42578788fd5b8795505b84861015610d6e57610d588a83610ba1565b8452600195909501949286019290810190610d46565b509098975050505050505050565b600060208284031215610d8d578081fd5b81516103b181611157565b600060208284031215610da9578081fd5b5035919050565b600060408284031215610dc1578081fd5b610dcb60406110fb565b610dd58484610bf7565b8152610de48460208501610ac8565b60208201529392505050565b600060208284031215610e01578081fd5b815167ffffffffffffffff80821115610e18578283fd5b9083019060e08286031215610e2b578283fd5b610e3560c06110fb565b82518152610e468660208501610ac8565b6020820152610e588660408501610b60565b6040820152610e6a8660808501610ac8565b606082015260a083015182811115610e80578485fd5b610e8c87828601610ad8565b60808301525060c083015182811115610ea3578485fd5b610eaf87828601610ad8565b60a08301525095945050505050565b600060408284031215610ecf578081fd5b610ed960406110fb565b82518152602083015160208201528091505092915050565b600060208284031215610f02578081fd5b5051919050565b60008060408385031215610f1b578081fd5b50508035926020909101359150565b6001600160a01b0391909116815260200190565b602080825282518282018190526000919060409081850190868401855b82811015610f9857815180516001600160a01b03908116865287820151168786015285015115158585015260609093019290850190600101610f5b565b5091979650505050505050565b90815260200190565b6020808252601f908201527f63616c6c6572206973206e6f7420686176696e6720676f7665726e616e636500604082015260600190565b60208082526006908201526510aa37b5b2b760d11b604082015260600190565b6020808252600d908201526c085d5b985d5d1a1bdc9a5e9959609a1b604082015260600190565b6020808252601a908201527f63616c6c6572206973206e6f7420746865206f70657261746f72000000000000604082015260600190565b60208082526010908201526f21546f6b656e4861736845786973747360801b604082015260600190565b6020808252600b908201526a085a5cd0dbdb9d1c9858dd60aa1b604082015260600190565b6020808252600a90820152692152705f45786973747360b01b604082015260600190565b815181526020918201519181019190915260400190565b918252602082015260400190565b60405181810167ffffffffffffffff8111828210171561111a57600080fd5b604052919050565b600067ffffffffffffffff821115611138578081fd5b5060209081020190565b6001600160a01b03811681146103a257600080fd5b80151581146103a257600080fdfea164736f6c634300060c000a"
}