{
  "address": "0xcb612cce8f0ccddfade6ce28774534292da2c970",
  "abi": [
    {
      "inputs": [
        {
          "internalType": "address",
          "name": "_registry",
          "type": "address"
        }
      ],
      "stateMutability": "nonpayable",
      "type": "constructor"
    },
    {
      "anonymous": false,
      "inputs": [
        {
          "indexed": true,
          "internalType": "uint256",
          "name": "maxDepositAmount",
          "type": "uint256"
        },
        {
          "indexed": true,
          "internalType": "address",
          "name": "caller",
          "type": "address"
        }
      ],
      "name": "LogMaxDepositAmount",
      "type": "event"
    },
    {
      "anonymous": false,
      "inputs": [
        {
          "indexed": true,
          "internalType": "uint256",
          "name": "maxDepositPoolPct",
          "type": "uint256"
        },
        {
          "indexed": true,
          "internalType": "address",
          "name": "caller",
          "type": "address"
        }
      ],
      "name": "LogMaxDepositPoolPct",
      "type": "event"
    },
    {
      "anonymous": false,
      "inputs": [
        {
          "indexed": true,
          "internalType": "enum MaxExposure",
          "name": "maxDepositProtocolMode",
          "type": "uint8"
        },
        {
          "indexed": true,
          "internalType": "address",
          "name": "caller",
          "type": "address"
        }
      ],
      "name": "LogMaxDepositProtocolMode",
      "type": "event"
    },
    {
      "anonymous": false,
      "inputs": [
        {
          "indexed": true,
          "internalType": "uint256",
          "name": "maxDepositProtocolPct",
          "type": "uint256"
        },
        {
          "indexed": true,
          "internalType": "address",
          "name": "caller",
          "type": "address"
        }
      ],
      "name": "LogMaxDepositProtocolPct",
      "type": "event"
    },
    {
      "inputs": [],
      "name": "AAVE_LP_TOKEN",
      "outputs": [
        {
          "internalType": "address",
          "name": "",
          "type": "address"
        }
      ],
      "stateMutability": "view",
      "type": "function"
    },
    {
      "inputs": [],
      "name": "ALUSD_LP_TOKEN",
      "outputs": [
        {
          "internalType": "address",
          "name": "",
          "type": "address"
        }
      ],
      "stateMutability": "view",
      "type": "function"
    },
    {
      "inputs": [],
      "name": "ANKRETH_LP_TOKEN",
      "outputs": [
        {
          "internalType": "address",
          "name": "",
          "type": "address"
        }
      ],
      "stateMutability": "view",
      "type": "function"
    },
    {
      "inputs": [],
      "name": "BBTC_LP_TOKEN",
      "outputs": [
        {
          "internalType": "address",
          "name": "",
          "type": "address"
        }
      ],
      "stateMutability": "view",
      "type": "function"
    },
    {
      "inputs": [],
      "name": "BOOSTER_DEPOSIT_POOL",
      "outputs": [
        {
          "internalType": "address",
          "name": "",
          "type": "address"
        }
      ],
      "stateMutability": "view",
      "type": "function"
    },
    {
      "inputs": [],
      "name": "BUSDVTWO__LP_TOKEN",
      "outputs": [
        {
          "internalType": "address",
          "name": "",
          "type": "address"
        }
      ],
      "stateMutability": "view",
      "type": "function"
    },
    {
      "inputs": [],
      "name": "BUSD_LP_TOKEN",
      "outputs": [
        {
          "internalType": "address",
          "name": "",
          "type": "address"
        }
      ],
      "stateMutability": "view",
      "type": "function"
    },
    {
      "inputs": [],
      "name": "COMPOUND_LP_TOKEN",
      "outputs": [
        {
          "internalType": "address",
          "name": "",
          "type": "address"
        }
      ],
      "stateMutability": "view",
      "type": "function"
    },
    {
      "inputs": [],
      "name": "DUSD_LP_TOKEN",
      "outputs": [
        {
          "internalType": "address",
          "name": "",
          "type": "address"
        }
      ],
      "stateMutability": "view",
      "type": "function"
    },
    {
      "inputs": [],
      "name": "EURS_LP_TOKEN",
      "outputs": [
        {
          "internalType": "address",
          "name": "",
          "type": "address"
        }
      ],
      "stateMutability": "view",
      "type": "function"
    },
    {
      "inputs": [],
      "name": "EURT_LP_TOKEN",
      "outputs": [
        {
          "internalType": "address",
          "name": "",
          "type": "address"
        }
      ],
      "stateMutability": "view",
      "type": "function"
    },
    {
      "inputs": [],
      "name": "FRAX_LP_TOKEN",
      "outputs": [
        {
          "internalType": "address",
          "name": "",
          "type": "address"
        }
      ],
      "stateMutability": "view",
      "type": "function"
    },
    {
      "inputs": [],
      "name": "GUSD_LP_TOKEN",
      "outputs": [
        {
          "internalType": "address",
          "name": "",
          "type": "address"
        }
      ],
      "stateMutability": "view",
      "type": "function"
    },
    {
      "inputs": [],
      "name": "HBTC_LP_TOKEN",
      "outputs": [
        {
          "internalType": "address",
          "name": "",
          "type": "address"
        }
      ],
      "stateMutability": "view",
      "type": "function"
    },
    {
      "inputs": [],
      "name": "HUSD_LP_TOKEN",
      "outputs": [
        {
          "internalType": "address",
          "name": "",
          "type": "address"
        }
      ],
      "stateMutability": "view",
      "type": "function"
    },
    {
      "inputs": [],
      "name": "IRONBANK_LP_TOKEN",
      "outputs": [
        {
          "internalType": "address",
          "name": "",
          "type": "address"
        }
      ],
      "stateMutability": "view",
      "type": "function"
    },
    {
      "inputs": [],
      "name": "LINK_LP_TOKEN",
      "outputs": [
        {
          "internalType": "address",
          "name": "",
          "type": "address"
        }
      ],
      "stateMutability": "view",
      "type": "function"
    },
    {
      "inputs": [],
      "name": "LUSD_LP_TOKEN",
      "outputs": [
        {
          "internalType": "address",
          "name": "",
          "type": "address"
        }
      ],
      "stateMutability": "view",
      "type": "function"
    },
    {
      "inputs": [],
      "name": "MIM_LP_TOKEN",
      "outputs": [
        {
          "internalType": "address",
          "name": "",
          "type": "address"
        }
      ],
      "stateMutability": "view",
      "type": "function"
    },
    {
      "inputs": [],
      "name": "MUSD_LP_TOKEN",
      "outputs": [
        {
          "internalType": "address",
          "name": "",
          "type": "address"
        }
      ],
      "stateMutability": "view",
      "type": "function"
    },
    {
      "inputs": [],
      "name": "OBTC_LP_TOKEN",
      "outputs": [
        {
          "internalType": "address",
          "name": "",
          "type": "address"
        }
      ],
      "stateMutability": "view",
      "type": "function"
    },
    {
      "inputs": [],
      "name": "PAX_LP_TOKEN",
      "outputs": [
        {
          "internalType": "address",
          "name": "",
          "type": "address"
        }
      ],
      "stateMutability": "view",
      "type": "function"
    },
    {
      "inputs": [],
      "name": "PBTC_LP_TOKEN",
      "outputs": [
        {
          "internalType": "address",
          "name": "",
          "type": "address"
        }
      ],
      "stateMutability": "view",
      "type": "function"
    },
    {
      "inputs": [],
      "name": "REN_LP_TOKEN",
      "outputs": [
        {
          "internalType": "address",
          "name": "",
          "type": "address"
        }
      ],
      "stateMutability": "view",
      "type": "function"
    },
    {
      "inputs": [],
      "name": "RETH_LP_TOKEN",
      "outputs": [
        {
          "internalType": "address",
          "name": "",
          "type": "address"
        }
      ],
      "stateMutability": "view",
      "type": "function"
    },
    {
      "inputs": [],
      "name": "RSV_LP_TOKEN",
      "outputs": [
        {
          "internalType": "address",
          "name": "",
          "type": "address"
        }
      ],
      "stateMutability": "view",
      "type": "function"
    },
    {
      "inputs": [],
      "name": "SAAVE_LP_TOKEN",
      "outputs": [
        {
          "internalType": "address",
          "name": "",
          "type": "address"
        }
      ],
      "stateMutability": "view",
      "type": "function"
    },
    {
      "inputs": [],
      "name": "SBTC_LP_TOKEN",
      "outputs": [
        {
          "internalType": "address",
          "name": "",
          "type": "address"
        }
      ],
      "stateMutability": "view",
      "type": "function"
    },
    {
      "inputs": [],
      "name": "SETH_LP_TOKEN",
      "outputs": [
        {
          "internalType": "address",
          "name": "",
          "type": "address"
        }
      ],
      "stateMutability": "view",
      "type": "function"
    },
    {
      "inputs": [],
      "name": "STETH_LP_TOKEN",
      "outputs": [
        {
          "internalType": "address",
          "name": "",
          "type": "address"
        }
      ],
      "stateMutability": "view",
      "type": "function"
    },
    {
      "inputs": [],
      "name": "SUSD_LP_TOKEN",
      "outputs": [
        {
          "internalType": "address",
          "name": "",
          "type": "address"
        }
      ],
      "stateMutability": "view",
      "type": "function"
    },
    {
      "inputs": [],
      "name": "TBTC_LP_TOKEN",
      "outputs": [
        {
          "internalType": "address",
          "name": "",
          "type": "address"
        }
      ],
      "stateMutability": "view",
      "type": "function"
    },
    {
      "inputs": [],
      "name": "THREE_POOL_LP_TOKEN",
      "outputs": [
        {
          "internalType": "address",
          "name": "",
          "type": "address"
        }
      ],
      "stateMutability": "view",
      "type": "function"
    },
    {
      "inputs": [],
      "name": "TRICRYPTO_LP_TOKEN",
      "outputs": [
        {
          "internalType": "address",
          "name": "",
          "type": "address"
        }
      ],
      "stateMutability": "view",
      "type": "function"
    },
    {
      "inputs": [],
      "name": "TUSD_LP_TOKEN",
      "outputs": [
        {
          "internalType": "address",
          "name": "",
          "type": "address"
        }
      ],
      "stateMutability": "view",
      "type": "function"
    },
    {
      "inputs": [],
      "name": "USDK_LP_TOKEN",
      "outputs": [
        {
          "internalType": "address",
          "name": "",
          "type": "address"
        }
      ],
      "stateMutability": "view",
      "type": "function"
    },
    {
      "inputs": [],
      "name": "USDN_LP_TOKEN",
      "outputs": [
        {
          "internalType": "address",
          "name": "",
          "type": "address"
        }
      ],
      "stateMutability": "view",
      "type": "function"
    },
    {
      "inputs": [],
      "name": "USDP_LP_TOKEN",
      "outputs": [
        {
          "internalType": "address",
          "name": "",
          "type": "address"
        }
      ],
      "stateMutability": "view",
      "type": "function"
    },
    {
      "inputs": [],
      "name": "USDT_LP_TOKEN",
      "outputs": [
        {
          "internalType": "address",
          "name": "",
          "type": "address"
        }
      ],
      "stateMutability": "view",
      "type": "function"
    },
    {
      "inputs": [],
      "name": "UST_LP_TOKEN",
      "outputs": [
        {
          "internalType": "address",
          "name": "",
          "type": "address"
        }
      ],
      "stateMutability": "view",
      "type": "function"
    },
    {
      "inputs": [],
      "name": "YPOOL_LP_TOKEN",
      "outputs": [
        {
          "internalType": "address",
          "name": "",
          "type": "address"
        }
      ],
      "stateMutability": "view",
      "type": "function"
    },
    {
      "inputs": [
        {
          "internalType": "address",
          "name": "",
          "type": "address"
        },
        {
          "internalType": "address",
          "name": "",
          "type": "address"
        },
        {
          "internalType": "uint256",
          "name": "_depositAmount",
          "type": "uint256"
        }
      ],
      "name": "calculateAmountInLPToken",
      "outputs": [
        {
          "internalType": "uint256",
          "name": "",
          "type": "uint256"
        }
      ],
      "stateMutability": "pure",
      "type": "function"
    },
    {
      "inputs": [
        {
          "internalType": "address payable",
          "name": "_vault",
          "type": "address"
        },
        {
          "internalType": "address",
          "name": "_underlyingToken",
          "type": "address"
        },
        {
          "internalType": "address",
          "name": "_liquidityPool",
          "type": "address"
        },
        {
          "internalType": "uint256",
          "name": "_redeemAmount",
          "type": "uint256"
        }
      ],
      "name": "calculateRedeemableLPTokenAmount",
      "outputs": [
        {
          "internalType": "uint256",
          "name": "_amount",
          "type": "uint256"
        }
      ],
      "stateMutability": "view",
      "type": "function"
    },
    {
      "inputs": [
        {
          "internalType": "address payable",
          "name": "_vault",
          "type": "address"
        },
        {
          "internalType": "address",
          "name": "_underlyingToken",
          "type": "address"
        },
        {
          "internalType": "address",
          "name": "_liquidityPool",
          "type": "address"
        },
        {
          "internalType": "uint256",
          "name": "_redeemAmount",
          "type": "uint256"
        }
      ],
      "name": "calculateRedeemableLPTokenAmountStake",
      "outputs": [
        {
          "internalType": "uint256",
          "name": "_amount",
          "type": "uint256"
        }
      ],
      "stateMutability": "view",
      "type": "function"
    },
    {
      "inputs": [
        {
          "internalType": "address",
          "name": "",
          "type": "address"
        }
      ],
      "name": "canStake",
      "outputs": [
        {
          "internalType": "bool",
          "name": "",
          "type": "bool"
        }
      ],
      "stateMutability": "pure",
      "type": "function"
    },
    {
      "inputs": [],
      "name": "curvePoolInfo",
      "outputs": [
        {
          "internalType": "address",
          "name": "",
          "type": "address"
        }
      ],
      "stateMutability": "view",
      "type": "function"
    },
    {
      "inputs": [],
      "name": "curveRegistry",
      "outputs": [
        {
          "internalType": "address",
          "name": "",
          "type": "address"
        }
      ],
      "stateMutability": "view",
      "type": "function"
    },
    {
      "inputs": [
        {
          "internalType": "address payable",
          "name": "",
          "type": "address"
        },
        {
          "internalType": "address",
          "name": "",
          "type": "address"
        }
      ],
      "name": "getAddLiquidityCodes",
      "outputs": [
        {
          "internalType": "bytes[]",
          "name": "",
          "type": "bytes[]"
        }
      ],
      "stateMutability": "view",
      "type": "function"
    },
    {
      "inputs": [
        {
          "internalType": "address payable",
          "name": "_vault",
          "type": "address"
        },
        {
          "internalType": "address",
          "name": "_underlyingToken",
          "type": "address"
        },
        {
          "internalType": "address",
          "name": "_liquidityPool",
          "type": "address"
        }
      ],
      "name": "getAllAmountInToken",
      "outputs": [
        {
          "internalType": "uint256",
          "name": "",
          "type": "uint256"
        }
      ],
      "stateMutability": "view",
      "type": "function"
    },
    {
      "inputs": [
        {
          "internalType": "address payable",
          "name": "_vault",
          "type": "address"
        },
        {
          "internalType": "address",
          "name": "",
          "type": "address"
        },
        {
          "internalType": "address",
          "name": "_liquidityPool",
          "type": "address"
        }
      ],
      "name": "getAllAmountInTokenStake",
      "outputs": [
        {
          "internalType": "uint256",
          "name": "",
          "type": "uint256"
        }
      ],
      "stateMutability": "view",
      "type": "function"
    },
    {
      "inputs": [
        {
          "internalType": "address payable",
          "name": "",
          "type": "address"
        },
        {
          "internalType": "address",
          "name": "_liquidityPool",
          "type": "address"
        }
      ],
      "name": "getClaimRewardTokenCode",
      "outputs": [
        {
          "internalType": "bytes[]",
          "name": "_codes",
          "type": "bytes[]"
        }
      ],
      "stateMutability": "view",
      "type": "function"
    },
    {
      "inputs": [
        {
          "internalType": "address payable",
          "name": "_vault",
          "type": "address"
        },
        {
          "internalType": "address",
          "name": "_underlyingToken",
          "type": "address"
        },
        {
          "internalType": "address",
          "name": "_liquidityPool",
          "type": "address"
        }
      ],
      "name": "getDepositAllCodes",
      "outputs": [
        {
          "internalType": "bytes[]",
          "name": "_codes",
          "type": "bytes[]"
        }
      ],
      "stateMutability": "view",
      "type": "function"
    },
    {
      "inputs": [
        {
          "internalType": "address payable",
          "name": "",
          "type": "address"
        },
        {
          "internalType": "address",
          "name": "_underlyingToken",
          "type": "address"
        },
        {
          "internalType": "address",
          "name": "_liquidityPool",
          "type": "address"
        },
        {
          "internalType": "uint256",
          "name": "_amount",
          "type": "uint256"
        }
      ],
      "name": "getDepositSomeCodes",
      "outputs": [
        {
          "internalType": "bytes[]",
          "name": "_codes",
          "type": "bytes[]"
        }
      ],
      "stateMutability": "view",
      "type": "function"
    },
    {
      "inputs": [
        {
          "internalType": "address payable",
          "name": "_vault",
          "type": "address"
        },
        {
          "internalType": "address",
          "name": "_underlyingToken",
          "type": "address"
        },
        {
          "internalType": "address",
          "name": "_liquidityPool",
          "type": "address"
        }
      ],
      "name": "getHarvestAllCodes",
      "outputs": [
        {
          "internalType": "bytes[]",
          "name": "_codes",
          "type": "bytes[]"
        }
      ],
      "stateMutability": "view",
      "type": "function"
    },
    {
      "inputs": [
        {
          "internalType": "address payable",
          "name": "_vault",
          "type": "address"
        },
        {
          "internalType": "address",
          "name": "",
          "type": "address"
        },
        {
          "internalType": "address",
          "name": "_liquidityPool",
          "type": "address"
        },
        {
          "internalType": "uint256",
          "name": "_rewardTokenAmount",
          "type": "uint256"
        }
      ],
      "name": "getHarvestSomeCodes",
      "outputs": [
        {
          "internalType": "bytes[]",
          "name": "_codes",
          "type": "bytes[]"
        }
      ],
      "stateMutability": "view",
      "type": "function"
    },
    {
      "inputs": [
        {
          "internalType": "address",
          "name": "",
          "type": "address"
        },
        {
          "internalType": "address",
          "name": "_liquidityPool",
          "type": "address"
        }
      ],
      "name": "getLiquidityPoolToken",
      "outputs": [
        {
          "internalType": "address",
          "name": "",
          "type": "address"
        }
      ],
      "stateMutability": "view",
      "type": "function"
    },
    {
      "inputs": [
        {
          "internalType": "address payable",
          "name": "_vault",
          "type": "address"
        },
        {
          "internalType": "address",
          "name": "",
          "type": "address"
        },
        {
          "internalType": "address",
          "name": "_liquidityPool",
          "type": "address"
        }
      ],
      "name": "getLiquidityPoolTokenBalance",
      "outputs": [
        {
          "internalType": "uint256",
          "name": "",
          "type": "uint256"
        }
      ],
      "stateMutability": "view",
      "type": "function"
    },
    {
      "inputs": [
        {
          "internalType": "address payable",
          "name": "_vault",
          "type": "address"
        },
        {
          "internalType": "address",
          "name": "_liquidityPool",
          "type": "address"
        }
      ],
      "name": "getLiquidityPoolTokenBalanceStake",
      "outputs": [
        {
          "internalType": "uint256",
          "name": "",
          "type": "uint256"
        }
      ],
      "stateMutability": "view",
      "type": "function"
    },
    {
      "inputs": [
        {
          "internalType": "address",
          "name": "_liquidityPool",
          "type": "address"
        },
        {
          "internalType": "address",
          "name": "",
          "type": "address"
        }
      ],
      "name": "getPoolValue",
      "outputs": [
        {
          "internalType": "uint256",
          "name": "",
          "type": "uint256"
        }
      ],
      "stateMutability": "view",
      "type": "function"
    },
    {
      "inputs": [
        {
          "internalType": "address",
          "name": "_rewardToken",
          "type": "address"
        },
        {
          "internalType": "address",
          "name": "_liquidityPool",
          "type": "address"
        },
        {
          "internalType": "uint256",
          "name": "_amount",
          "type": "uint256"
        }
      ],
      "name": "getRewardBalanceInUnderlyingTokens",
      "outputs": [
        {
          "internalType": "uint256",
          "name": "",
          "type": "uint256"
        }
      ],
      "stateMutability": "view",
      "type": "function"
    },
    {
      "inputs": [
        {
          "internalType": "address",
          "name": "_liquidityPool",
          "type": "address"
        }
      ],
      "name": "getRewardToken",
      "outputs": [
        {
          "internalType": "address",
          "name": "",
          "type": "address"
        }
      ],
      "stateMutability": "view",
      "type": "function"
    },
    {
      "inputs": [
        {
          "internalType": "address",
          "name": "",
          "type": "address"
        },
        {
          "internalType": "address",
          "name": "",
          "type": "address"
        },
        {
          "internalType": "uint256",
          "name": "_liquidityPoolTokenAmount",
          "type": "uint256"
        }
      ],
      "name": "getSomeAmountInToken",
      "outputs": [
        {
          "internalType": "uint256",
          "name": "",
          "type": "uint256"
        }
      ],
      "stateMutability": "pure",
      "type": "function"
    },
    {
      "inputs": [
        {
          "internalType": "address payable",
          "name": "_vault",
          "type": "address"
        },
        {
          "internalType": "address",
          "name": "_underlyingToken",
          "type": "address"
        },
        {
          "internalType": "address",
          "name": "_liquidityPool",
          "type": "address"
        }
      ],
      "name": "getStakeAllCodes",
      "outputs": [
        {
          "internalType": "bytes[]",
          "name": "_codes",
          "type": "bytes[]"
        }
      ],
      "stateMutability": "view",
      "type": "function"
    },
    {
      "inputs": [
        {
          "internalType": "address",
          "name": "_liquidityPool",
          "type": "address"
        },
        {
          "internalType": "uint256",
          "name": "_shares",
          "type": "uint256"
        }
      ],
      "name": "getStakeSomeCodes",
      "outputs": [
        {
          "internalType": "bytes[]",
          "name": "_codes",
          "type": "bytes[]"
        }
      ],
      "stateMutability": "view",
      "type": "function"
    },
    {
      "inputs": [
        {
          "internalType": "address",
          "name": "_rewardToken",
          "type": "address"
        },
        {
          "internalType": "address",
          "name": "_liquidityPool",
          "type": "address"
        },
        {
          "internalType": "uint256",
          "name": "_amount",
          "type": "uint256"
        }
      ],
      "name": "getSwapTokenAmounts",
      "outputs": [
        {
          "internalType": "uint256[]",
          "name": "",
          "type": "uint256[]"
        }
      ],
      "stateMutability": "view",
      "type": "function"
    },
    {
      "inputs": [
        {
          "internalType": "address payable",
          "name": "_vault",
          "type": "address"
        },
        {
          "internalType": "address",
          "name": "_liquidityPool",
          "type": "address"
        },
        {
          "internalType": "address",
          "name": "",
          "type": "address"
        }
      ],
      "name": "getUnclaimedRewardTokenAmount",
      "outputs": [
        {
          "internalType": "uint256",
          "name": "",
          "type": "uint256"
        }
      ],
      "stateMutability": "view",
      "type": "function"
    },
    {
      "inputs": [
        {
          "internalType": "address",
          "name": "_liquidityPool",
          "type": "address"
        },
        {
          "internalType": "address",
          "name": "",
          "type": "address"
        }
      ],
      "name": "getUnderlyingTokens",
      "outputs": [
        {
          "internalType": "address[]",
          "name": "_underlyingTokens",
          "type": "address[]"
        }
      ],
      "stateMutability": "view",
      "type": "function"
    },
    {
      "inputs": [
        {
          "internalType": "address payable",
          "name": "_vault",
          "type": "address"
        },
        {
          "internalType": "address",
          "name": "_liquidityPool",
          "type": "address"
        }
      ],
      "name": "getUnstakeAllCodes",
      "outputs": [
        {
          "internalType": "bytes[]",
          "name": "_codes",
          "type": "bytes[]"
        }
      ],
      "stateMutability": "view",
      "type": "function"
    },
    {
      "inputs": [
        {
          "internalType": "address payable",
          "name": "_vault",
          "type": "address"
        },
        {
          "internalType": "address",
          "name": "_underlyingToken",
          "type": "address"
        },
        {
          "internalType": "address",
          "name": "_liquidityPool",
          "type": "address"
        }
      ],
      "name": "getUnstakeAndWithdrawAllCodes",
      "outputs": [
        {
          "internalType": "bytes[]",
          "name": "_codes",
          "type": "bytes[]"
        }
      ],
      "stateMutability": "view",
      "type": "function"
    },
    {
      "inputs": [
        {
          "internalType": "address payable",
          "name": "_vault",
          "type": "address"
        },
        {
          "internalType": "address",
          "name": "_underlyingToken",
          "type": "address"
        },
        {
          "internalType": "address",
          "name": "_liquidityPool",
          "type": "address"
        },
        {
          "internalType": "uint256",
          "name": "_redeemAmount",
          "type": "uint256"
        }
      ],
      "name": "getUnstakeAndWithdrawSomeCodes",
      "outputs": [
        {
          "internalType": "bytes[]",
          "name": "_codes",
          "type": "bytes[]"
        }
      ],
      "stateMutability": "view",
      "type": "function"
    },
    {
      "inputs": [
        {
          "internalType": "address",
          "name": "_liquidityPool",
          "type": "address"
        },
        {
          "internalType": "uint256",
          "name": "_shares",
          "type": "uint256"
        }
      ],
      "name": "getUnstakeSomeCodes",
      "outputs": [
        {
          "internalType": "bytes[]",
          "name": "_codes",
          "type": "bytes[]"
        }
      ],
      "stateMutability": "view",
      "type": "function"
    },
    {
      "inputs": [
        {
          "internalType": "address payable",
          "name": "_vault",
          "type": "address"
        },
        {
          "internalType": "address",
          "name": "_underlyingToken",
          "type": "address"
        },
        {
          "internalType": "address",
          "name": "_liquidityPool",
          "type": "address"
        }
      ],
      "name": "getWithdrawAllCodes",
      "outputs": [
        {
          "internalType": "bytes[]",
          "name": "_codes",
          "type": "bytes[]"
        }
      ],
      "stateMutability": "view",
      "type": "function"
    },
    {
      "inputs": [
        {
          "internalType": "address payable",
          "name": "",
          "type": "address"
        },
        {
          "internalType": "address",
          "name": "",
          "type": "address"
        },
        {
          "internalType": "address",
          "name": "_liquidityPool",
          "type": "address"
        },
        {
          "internalType": "uint256",
          "name": "_shares",
          "type": "uint256"
        }
      ],
      "name": "getWithdrawSomeCodes",
      "outputs": [
        {
          "internalType": "bytes[]",
          "name": "_codes",
          "type": "bytes[]"
        }
      ],
      "stateMutability": "view",
      "type": "function"
    },
    {
      "inputs": [
        {
          "internalType": "address payable",
          "name": "_vault",
          "type": "address"
        },
        {
          "internalType": "address",
          "name": "_underlyingToken",
          "type": "address"
        },
        {
          "internalType": "address",
          "name": "_liquidityPool",
          "type": "address"
        },
        {
          "internalType": "uint256",
          "name": "_redeemAmount",
          "type": "uint256"
        }
      ],
      "name": "isRedeemableAmountSufficient",
      "outputs": [
        {
          "internalType": "bool",
          "name": "",
          "type": "bool"
        }
      ],
      "stateMutability": "view",
      "type": "function"
    },
    {
      "inputs": [
        {
          "internalType": "address payable",
          "name": "_vault",
          "type": "address"
        },
        {
          "internalType": "address",
          "name": "_underlyingToken",
          "type": "address"
        },
        {
          "internalType": "address",
          "name": "_liquidityPool",
          "type": "address"
        },
        {
          "internalType": "uint256",
          "name": "_redeemAmount",
          "type": "uint256"
        }
      ],
      "name": "isRedeemableAmountSufficientStake",
      "outputs": [
        {
          "internalType": "bool",
          "name": "",
          "type": "bool"
        }
      ],
      "stateMutability": "view",
      "type": "function"
    },
    {
      "inputs": [
        {
          "internalType": "address",
          "name": "",
          "type": "address"
        }
      ],
      "name": "lpTokenToPoolData",
      "outputs": [
        {
          "internalType": "uint256",
          "name": "id",
          "type": "uint256"
        },
        {
          "internalType": "address",
          "name": "swap",
          "type": "address"
        },
        {
          "internalType": "address",
          "name": "zap",
          "type": "address"
        }
      ],
      "stateMutability": "view",
      "type": "function"
    },
    {
      "inputs": [
        {
          "internalType": "address",
          "name": "",
          "type": "address"
        },
        {
          "internalType": "address",
          "name": "",
          "type": "address"
        }
      ],
      "name": "maxDepositAmount",
      "outputs": [
        {
          "internalType": "uint256",
          "name": "",
          "type": "uint256"
        }
      ],
      "stateMutability": "view",
      "type": "function"
    },
    {
      "inputs": [
        {
          "internalType": "address",
          "name": "",
          "type": "address"
        }
      ],
      "name": "maxDepositPoolPct",
      "outputs": [
        {
          "internalType": "uint256",
          "name": "",
          "type": "uint256"
        }
      ],
      "stateMutability": "view",
      "type": "function"
    },
    {
      "inputs": [],
      "name": "maxDepositProtocolMode",
      "outputs": [
        {
          "internalType": "enum MaxExposure",
          "name": "",
          "type": "uint8"
        }
      ],
      "stateMutability": "view",
      "type": "function"
    },
    {
      "inputs": [],
      "name": "maxDepositProtocolPct",
      "outputs": [
        {
          "internalType": "uint256",
          "name": "",
          "type": "uint256"
        }
      ],
      "stateMutability": "view",
      "type": "function"
    },
    {
      "inputs": [],
      "name": "prefCoin",
      "outputs": [
        {
          "internalType": "address",
          "name": "",
          "type": "address"
        }
      ],
      "stateMutability": "view",
      "type": "function"
    },
    {
      "inputs": [],
      "name": "registryContract",
      "outputs": [
        {
          "internalType": "contract IAdapterRegistryBase",
          "name": "",
          "type": "address"
        }
      ],
      "stateMutability": "view",
      "type": "function"
    },
    {
      "inputs": [
        {
          "internalType": "address",
          "name": "_lpToken",
          "type": "address"
        },
        {
          "internalType": "uint256",
          "name": "_id",
          "type": "uint256"
        },
        {
          "internalType": "address",
          "name": "_swap",
          "type": "address"
        },
        {
          "internalType": "address",
          "name": "_zap",
          "type": "address"
        }
      ],
      "name": "setLPTokenToPoolData",
      "outputs": [],
      "stateMutability": "nonpayable",
      "type": "function"
    },
    {
      "inputs": [
        {
          "internalType": "address",
          "name": "_liquidityPool",
          "type": "address"
        },
        {
          "internalType": "address",
          "name": "_underlyingToken",
          "type": "address"
        },
        {
          "internalType": "uint256",
          "name": "_maxDepositAmount",
          "type": "uint256"
        }
      ],
      "name": "setMaxDepositAmount",
      "outputs": [],
      "stateMutability": "nonpayable",
      "type": "function"
    },
    {
      "inputs": [
        {
          "internalType": "address",
          "name": "_liquidityPool",
          "type": "address"
        },
        {
          "internalType": "uint256",
          "name": "_maxDepositPoolPct",
          "type": "uint256"
        }
      ],
      "name": "setMaxDepositPoolPct",
      "outputs": [],
      "stateMutability": "nonpayable",
      "type": "function"
    },
    {
      "inputs": [
        {
          "internalType": "enum MaxExposure",
          "name": "_mode",
          "type": "uint8"
        }
      ],
      "name": "setMaxDepositProtocolMode",
      "outputs": [],
      "stateMutability": "nonpayable",
      "type": "function"
    },
    {
      "inputs": [
        {
          "internalType": "uint256",
          "name": "_maxDepositProtocolPct",
          "type": "uint256"
        }
      ],
      "name": "setMaxDepositProtocolPct",
      "outputs": [],
      "stateMutability": "nonpayable",
      "type": "function"
    },
    {
      "inputs": [
        {
          "internalType": "address",
          "name": "_liquidityPool",
          "type": "address"
        }
      ],
      "name": "setPoolCoinData",
      "outputs": [],
      "stateMutability": "nonpayable",
      "type": "function"
    },
    {
      "inputs": [
        {
          "internalType": "address",
          "name": "_registry",
          "type": "address"
        }
      ],
      "name": "setRegistry",
      "outputs": [],
      "stateMutability": "nonpayable",
      "type": "function"
    },
    {
      "inputs": [
        {
          "internalType": "address",
          "name": "",
          "type": "address"
        }
      ],
      "name": "swapToPoolCoinData",
      "outputs": [
        {
          "internalType": "address",
          "name": "coinRef",
          "type": "address"
        },
        {
          "internalType": "uint256",
          "name": "coinRefIndex",
          "type": "uint256"
        },
        {
          "internalType": "address",
          "name": "underlyingCoinRef",
          "type": "address"
        },
        {
          "internalType": "uint256",
          "name": "underlyingCoinRefIndex",
          "type": "uint256"
        }
      ],
      "stateMutability": "view",
      "type": "function"
    },
    {
      "inputs": [],
      "name": "uniswapV2Router02",
      "outputs": [
        {
          "internalType": "address",
          "name": "",
          "type": "address"
        }
      ],
      "stateMutability": "view",
      "type": "function"
    }
  ],
  "transactionHash": "0x8582a7263b6b43704df22adee34e17b9561e56cbcc04f5b21389d92a9d458c0c",
  "args": [
    "0x99fa011e33a8c6196869dec7bc407e896ba67fe3"
  ],
  "bytecode": "0x60806040523480156200001157600080fd5b5060405162006fda38038062006fda833981016040819052620000349162002d4c565b60008054612710600155600160a01b6001600160a81b03199091166001600160a01b03848116919091179190911782556040805160608101825283815273a2b47e3d5c44877cca798226b7b8118f9bfb7a5660208083019182529282018581527332512bee3848bfcbb7beaf647aa697a100f3b70695869052600490935290517fae758ab6cf96340e7990f4d792ae333a5cec6aa6312243d5a810d5296424dd0855517fae758ab6cf96340e7990f4d792ae333a5cec6aa6312243d5a810d5296424dd0980549184166001600160a01b031992831617905590517fae758ab6cf96340e7990f4d792ae333a5cec6aa6312243d5a810d5296424dd0a8054919093169116179055620001459062002651565b60408051606081018252600181527352ea46506b9cc5ef470c5bf89f17dc28bb35d85c6020808301918252600093830184815273a1c3492b71938e144ad8be4c2fb6810b01a43dd894859052600490915291517fc92f967e50ce5eeabb4cb0fc11170e37164134d67f606af4080434aafb08358355517fc92f967e50ce5eeabb4cb0fc11170e37164134d67f606af4080434aafb08358480546001600160a01b03199081166001600160a01b039384161790915591517fc92f967e50ce5eeabb4cb0fc11170e37164134d67f606af4080434aafb08358580549093169116179055620002319062002651565b60408051606081018252600281527345f783cce6b7ff23b2ab2d70e416cdb7d6055f5160208083019182526000938301848152730928f6753880a03628eb0be07b77992c8af3787494859052600490915291517fa6d60e93a8caf327a3c2df787f75d203712677830fb809499b4c419cde4f32cf55517fa6d60e93a8caf327a3c2df787f75d203712677830fb809499b4c419cde4f32d080546001600160a01b03199081166001600160a01b039384161790915591517fa6d60e93a8caf327a3c2df787f75d203712677830fb809499b4c419cde4f32d1805490931691161790556200031d9062002651565b60408051606081018252600381527379a8c46dea5ada233abaffd40f3a0a2b1e5a4f27602080830191825260009383018481527359bb786f222d3f0f00b0da31b799fff80d55294094859052600490915291517fbc582ddc7ca4758a8485a4b33f089f555b2ca8b82fdb2f8938eb515dd33dba1455517fbc582ddc7ca4758a8485a4b33f089f555b2ca8b82fdb2f8938eb515dd33dba1580546001600160a01b03199081166001600160a01b039384161790915591517fbc582ddc7ca4758a8485a4b33f089f555b2ca8b82fdb2f8938eb515dd33dba1680549093169116179055620004099062002651565b60408051606081018252600480825273a5407eae9ba41422680e2e00537571bcc53efbfd602080840191825260009484018581527311d200ef1409ceca8d6d23e6496550f707772f119586905292905291517f1063725cfa1dd78b3c32915e35aeeb0a7e5b8f70156aec6ef5736bd7bb8961485590517f1063725cfa1dd78b3c32915e35aeeb0a7e5b8f70156aec6ef5736bd7bb89614980546001600160a01b03199081166001600160a01b039384161790915591517f1063725cfa1dd78b3c32915e35aeeb0a7e5b8f70156aec6ef5736bd7bb89614a80549093169116179055620004f59062002651565b60408051606081018252600581527306364f10b501e868329afbc005b3492902d6c76360208083019182526000938301848152732ea94b0d3349a284488acf2934e494b2f58ef64794859052600490915291517f0d1bd252a264ac0386515770892853c0dc2032ab726cc7546a180e8a7e772e4a55517f0d1bd252a264ac0386515770892853c0dc2032ab726cc7546a180e8a7e772e4b80546001600160a01b03199081166001600160a01b039384161790915591517f0d1bd252a264ac0386515770892853c0dc2032ab726cc7546a180e8a7e772e4c80549093169116179055620005e19062002651565b60408051606081018252600681527393054188d876f558f4a66b2ef1d97d16edf0895b602080830191825260009383018481527374b79021ea6de3f0d1731fb8bdff6ee7df10b8ae94859052600490915291517f45c93a5f57eabcff3ddef80075e01227e6b94f7dba6747f1835ae807f89205bc55517f45c93a5f57eabcff3ddef80075e01227e6b94f7dba6747f1835ae807f89205bd80546001600160a01b03199081166001600160a01b039384161790915591517f45c93a5f57eabcff3ddef80075e01227e6b94f7dba6747f1835ae807f89205be80549093169116179055620006cd9062002651565b6040805160608101825260078152737fc77b5c7614e1533320ea6ddc2eb61fa00a97146020808301918252600093830184815273ba723e335ec2939d52a2efca2a8199cb4cb93cc394859052600490915291517ff34c8729d10799ab2269a10230f498a9f05a0972586e5ebf48a1a539cc748ba355517ff34c8729d10799ab2269a10230f498a9f05a0972586e5ebf48a1a539cc748ba480546001600160a01b03199081166001600160a01b039384161790915591517ff34c8729d10799ab2269a10230f498a9f05a0972586e5ebf48a1a539cc748ba580549093169116179055620007b99062002651565b6040805160608101825260088152734ca9b3063ec5866a4b82e437059d2c43d1be596f602080830191825260009383018481527333c00bf8cfdf42929e0884d230a55f963221f8f394859052600490915291517f1ac4336154a4eca7bce8cfc5b5ddac2e6f567a8212cb583d22427bf4f01a5eee55517f1ac4336154a4eca7bce8cfc5b5ddac2e6f567a8212cb583d22427bf4f01a5eef80546001600160a01b03199081166001600160a01b039384161790915591517f1ac4336154a4eca7bce8cfc5b5ddac2e6f567a8212cb583d22427bf4f01a5ef080549093169116179055620008a59062002651565b604080516060810182526009815273bebc44782c7db0a1a60cb6fe97d0b483032ff1c7602080830191825260009383018481527330d9410ed1d5da1f6c8391af5338c93ab8d4035c94859052600490915291517fc27a7bd2f9272089fbf9bd1bf2241175c1b62e6adfc8103864faf34eae0005bc55517fc27a7bd2f9272089fbf9bd1bf2241175c1b62e6adfc8103864faf34eae0005bd80546001600160a01b03199081166001600160a01b039384161790915591517fc27a7bd2f9272089fbf9bd1bf2241175c1b62e6adfc8103864faf34eae0005be80549093169116179055620009919062002651565b60408051606081018252600a8152734f062658eaaf2c1ccf8c8e36d6824cdf4116795660208083019182527364448b78561690b70e17cbe8029a3e5c1bb7136e9383019384527315c2471ef46fa721990730cfa526bcfb455745766000819052600490915291517feaab79161063fcb6583aa6c40010f4795a323f12e21e61288357bf86d879263355517feaab79161063fcb6583aa6c40010f4795a323f12e21e61288357bf86d879263480546001600160a01b03199081166001600160a01b039384161790915592517feaab79161063fcb6583aa6c40010f4795a323f12e21e61288357bf86d8792635805490941691161790915562000a929062002651565b60408051606081018252600b8152733ef6a01a0f81d6046290f3e2a8c5b843e738e60460208083019182527309672362833d8f703d5395ef3252d4bfa51c15ca93830193845273e4de776c0ea0974bfa39b8cbb9491091c8cdc1ff6000819052600490915291517ff3749023608b36a6fd6c7e7fdfea262e2fdd8d1d791f24755fb4ce34c09f1a0455517ff3749023608b36a6fd6c7e7fdfea262e2fdd8d1d791f24755fb4ce34c09f1a0580546001600160a01b03199081166001600160a01b039384161790915592517ff3749023608b36a6fd6c7e7fdfea262e2fdd8d1d791f24755fb4ce34c09f1a06805490941691161790915562000b939062002651565b60408051606081018252600c8152733e01dd8a5e1fb3481f0f589056b428fc308af0fb602080830191825273f1f85a74ad6c64315f85af52d3d46bf715236adc9383019384527347941f99f4371cc26637caedbbd8ba5f4bfe51496000819052600490915291517fa955d99c3457fd564163267779477120cae8b8ad5637a46be7a2248dc7a2575d55517fa955d99c3457fd564163267779477120cae8b8ad5637a46be7a2248dc7a2575e80546001600160a01b03199081166001600160a01b039384161790915592517fa955d99c3457fd564163267779477120cae8b8ad5637a46be7a2248dc7a2575f805490941691161790915562000c949062002651565b60408051606081018252600d8152730f9cb53ebe405d49a0bbdbd291a65ff571bc83e1602080830191825273094d12e5b541784701fd8d65f11fc0598fbc6332938301938452733689f325e88c2363274e5f3d44b6dab8f9e1f5246000819052600490915291517ffba5a01911479e4b46f54079f2dbc736bd20d9b15119e03e10af42cfd3020f6f55517ffba5a01911479e4b46f54079f2dbc736bd20d9b15119e03e10af42cfd3020f7080546001600160a01b03199081166001600160a01b039384161790915592517ffba5a01911479e4b46f54079f2dbc736bd20d9b15119e03e10af42cfd3020f71805490941691161790915562000d959062002651565b60408051606081018252600e8152738474ddbe98f5aa3179b3b3f5942d724afcdec9f6602080830191825273803a2b40c5a9bb2b86dd630b274fa2a9202874c293830193845273d34d466233c5195193df712936049729140dbbd76000819052600490915291517f62a045f1cfc480c4d00d27477fe0bfad3d1657aa4cddb2895b50432f1856379a55517f62a045f1cfc480c4d00d27477fe0bfad3d1657aa4cddb2895b50432f1856379b80546001600160a01b03199081166001600160a01b039384161790915592517f62a045f1cfc480c4d00d27477fe0bfad3d1657aa4cddb2895b50432f1856379c805490941691161790915562000e969062002651565b60408051606081018252600f815273c18cc39da8b11da8c3541c598ee022258f9744da602080830191825273be175115bf33e12348ff77ccfee4726866a0fbd5938301938452738b876c2c02b1f2ac6ec207b7f2f06034a4316a876000819052600490915291517f1b1fe2c1dc92d080d53ebd69f597e1c9cd199925e43f3a8f93f1cb18bf9cb0d755517f1b1fe2c1dc92d080d53ebd69f597e1c9cd199925e43f3a8f93f1cb18bf9cb0d880546001600160a01b03199081166001600160a01b039384161790915592517f1b1fe2c1dc92d080d53ebd69f597e1c9cd199925e43f3a8f93f1cb18bf9cb0d9805490941691161790915562000f979062002651565b604080516060810182526010815273c25099792e9349c7dd09759744ea681c7de2cb66602080830191825273aa82ca713d94bba7a89ceab55314f9effeddc78c9383019384527336ced690a1516861f26755b978ee62c1157cfff96000819052600490915291517fd40976de8f097937204f659faa81376d4db95d0252087301ccf76b8dfe67d06655517fd40976de8f097937204f659faa81376d4db95d0252087301ccf76b8dfe67d06780546001600160a01b03199081166001600160a01b039384161790915592517fd40976de8f097937204f659faa81376d4db95d0252087301ccf76b8dfe67d0688054909416911617909155620010989062002651565b6040805160608101825260118152738038c01a0390a8c547446a0b2c18fc9aefecc10c60208083019182527361e10659fe3aa93d036d099405224e4ac24996d09383019384527306f4ffa5c3636aaa5c30b3db97bfd1cd9ac24a196000819052600490915291517f56e657d11880e2d803b513f7dd6e286d2cb26d0ee832e4758474213ff447cd2655517f56e657d11880e2d803b513f7dd6e286d2cb26d0ee832e4758474213ff447cd2780546001600160a01b03199081166001600160a01b039384161790915592517f56e657d11880e2d803b513f7dd6e286d2cb26d0ee832e4758474213ff447cd288054909416911617909155620011999062002651565b6040805160608101825260128152737f55dde206dbad629c080068923b36fe9d6bdbef60208083019182527311f419adabbff8d595e7d5b223eee3863bb3902c9383019384527321cce64289407081744f087950b9db32906470fc6000819052600490915291517fd5f159aec43f826987c02db8bc3f9686226d0c876d1eb152bedb7e06402524a255517fd5f159aec43f826987c02db8bc3f9686226d0c876d1eb152bedb7e06402524a380546001600160a01b03199081166001600160a01b039384161790915592517fd5f159aec43f826987c02db8bc3f9686226d0c876d1eb152bedb7e06402524a480549094169116179091556200129a9062002651565b604080516060810182526013815273071c661b4deefb59e2a3ddb20db036821eee8f4b602080830191825273c45b2eee6e09ca176ca3bb5f7eee7c47bf93c756938301938452732e1f902b9067b5fdd7af29ef05d4ff62125883886000819052600490915291517f111484892068fcea5ae1e275c8b8614326b0587adbec278239b5500505e3c1bd55517f111484892068fcea5ae1e275c8b8614326b0587adbec278239b5500505e3c1be80546001600160a01b03199081166001600160a01b039384161790915592517f111484892068fcea5ae1e275c8b8614326b0587adbec278239b5500505e3c1bf80549094169116179091556200139b9062002651565b604080516060810182526014815273d81da8d904b52208541bade1bd6595d8a251f8dd602080830191825273d5bcf53e2c81e1991570f33fa881c49eea570c8d93830193845273c1c030139eec070ed8fd092cc8c273c638a18bbe6000819052600490915291517faf059f6627c7fba06a609f93c00c7a266e58391d353804e0a232fc25351ad63755517faf059f6627c7fba06a609f93c00c7a266e58391d353804e0a232fc25351ad63880546001600160a01b03199081166001600160a01b039384161790915592517faf059f6627c7fba06a609f93c00c7a266e58391d353804e0a232fc25351ad63980549094169116179091556200149c9062002651565b604080516060810182526015815273890f4e345b1daed0367a877a1612f86a1f86985f602080830191825273b0a0716841f2fc03fba72a891b8bb13584f52f2d9383019384527367c4f788feb82fab27e3007daa3d7b90959d5b896000819052600490915291517f4867716ba17785e5ad7542c8e1fba776353c67013c49bedaa5dbbf17bae27ddf55517f4867716ba17785e5ad7542c8e1fba776353c67013c49bedaa5dbbf17bae27de080546001600160a01b03199081166001600160a01b039384161790915592517f4867716ba17785e5ad7542c8e1fba776353c67013c49bedaa5dbbf17bae27de180549094169116179091556200159d9062002651565b6040805160608101825260168152730ce6a5ff5217e38315f87032cf90686c96627caa6020808301918252600093830184815273d7e2b9494c529b42dea53ef6a237c16502e6a92794859052600490915291517f0540df25d711ce2473ecab5db25c377f9d93b5e5b190405d0310ce0973e57b5355517f0540df25d711ce2473ecab5db25c377f9d93b5e5b190405d0310ce0973e57b5480546001600160a01b03199081166001600160a01b039384161790915591517f0540df25d711ce2473ecab5db25c377f9d93b5e5b190405d0310ce0973e57b5580549093169116179055620016899062002651565b604080516060810182526017815273c5424b857f758e906013f3555dad202e4bdb45676020808301918252600093830184815273af1d4c576bf55f6ae493aeebacc3a227675e5b9894859052600490915291517f12a254f9a28f1e9611cc33a8dea231035ba3aef7ed68f887cd51c1f1d2d9fee255517f12a254f9a28f1e9611cc33a8dea231035ba3aef7ed68f887cd51c1f1d2d9fee380546001600160a01b03199081166001600160a01b039384161790915591517f12a254f9a28f1e9611cc33a8dea231035ba3aef7ed68f887cd51c1f1d2d9fee480549093169116179055620017759062002651565b604080516060810182526018815273debf20617708857ebe4f679508e7b7863a8a8eee602080830191825260009383018481527323f224c37c3a69a058d86a54d3f561295a93d54294859052600490915291517fe6ffccf140428afa543b24735f6db6866d230419476f4f7c792366b830edcb9155517fe6ffccf140428afa543b24735f6db6866d230419476f4f7c792366b830edcb9280546001600160a01b03199081166001600160a01b039384161790915591517fe6ffccf140428afa543b24735f6db6866d230419476f4f7c792366b830edcb9380549093169116179055620018619062002651565b604080516060810182526019815273dc24316b9ae028f1497c275eb9192a3ea0f6702260208083019182526000938301848152739518c9063eb0262d791f38d8d6eb0aca33c63ed094859052600490915291517fa15d2fbb63292802e064ea048eb179e8d0d506937d43783c641a8218ad8b6a2355517fa15d2fbb63292802e064ea048eb179e8d0d506937d43783c641a8218ad8b6a2480546001600160a01b03199081166001600160a01b039384161790915591517fa15d2fbb63292802e064ea048eb179e8d0d506937d43783c641a8218ad8b6a25805490931691161790556200194d9062002651565b60408051606081018252601a815273eb16ae0052ed37f479f7fe63849198df1765a733602080830191825260009383018481527309ccd0892b696ab21436e51588a7a7f8b649733d94859052600490915291517fb55ce06ac967df7d92218f874b27860531226fea2585ffa21adfbee3626ee55455517fb55ce06ac967df7d92218f874b27860531226fea2585ffa21adfbee3626ee55580546001600160a01b03199081166001600160a01b039384161790915591517fb55ce06ac967df7d92218f874b27860531226fea2585ffa21adfbee3626ee5568054909316911617905562001a399062002651565b60408051606081018252601b815273a96a65c051bf88b4095ee1f2451c2a9d43f53ae260208083019182526000938301848152737e96955b66c89b931bbdaf187740cc0ff2602f2194859052600490915291517f766a74ec5c7ae6c20cc3c83452f4dc3f7f233941f188d4618d2558200ab528be55517f766a74ec5c7ae6c20cc3c83452f4dc3f7f233941f188d4618d2558200ab528bf80546001600160a01b03199081166001600160a01b039384161790915591517f766a74ec5c7ae6c20cc3c83452f4dc3f7f233941f188d4618d2558200ab528c08054909316911617905562001b259062002651565b60408051606081018252601c81527342d7025938bec20b69cbae5a77421082407f053a6020808301918252733c8caee4e09296800f8d29a68fa3837e2dae4940938301938452737a5dc1fa2e1b10194bd2e2e9f1a224971a6814446000819052600490915291517f741ac4fb8815147a117b62de63d642f2ec3e8321850a61650e5654280ce6552755517f741ac4fb8815147a117b62de63d642f2ec3e8321850a61650e5654280ce6552880546001600160a01b03199081166001600160a01b039384161790915592517f741ac4fb8815147a117b62de63d642f2ec3e8321850a61650e5654280ce65529805490941691161790915562001c269062002651565b60408051606081018252601d8152732dded6da1bf5dbdf597c45fcfaa3194e53ecfeaf6020808301918252600093830184815273912ec00eaebf3820a9b0ac7a5e15f381a1c91f2294859052600490915291517f0cd0f5c8708832d5189039924fbabb6dfd119f5160d1d0e06da7d005e5b62c2655517f0cd0f5c8708832d5189039924fbabb6dfd119f5160d1d0e06da7d005e5b62c2780546001600160a01b03199081166001600160a01b039384161790915591517f0cd0f5c8708832d5189039924fbabb6dfd119f5160d1d0e06da7d005e5b62c288054909316911617905562001d129062002651565b60408051606081018252601e815273f178c0b5bb7e7abf4e12a4838c7b7c5ba2c623c06020808301918252600093830184815273d37969740d78c94c648d74671b8be31ef43c30ab94859052600490915291517f6083c635e6ec78a612431d57f430e0cd67259087ae5d7c6db8806398d8ccbeba55517f6083c635e6ec78a612431d57f430e0cd67259087ae5d7c6db8806398d8ccbebb80546001600160a01b03199081166001600160a01b039384161790915591517f6083c635e6ec78a612431d57f430e0cd67259087ae5d7c6db8806398d8ccbebc8054909316911617905562001dfe9062002651565b60408051606081018252601f815273ecd5e75afb02efa118af914515d6521aabd189f160208083019182526000938301848152730a2ea49eb5f9e23058deffd509d13ddd553c2a1994859052600490915291517f3aebab9a80d676cd009fe097853bdd451de2728cacee3c70eaf76fcc17474f6155517f3aebab9a80d676cd009fe097853bdd451de2728cacee3c70eaf76fcc17474f6280546001600160a01b03199081166001600160a01b039384161790915591517f3aebab9a80d676cd009fe097853bdd451de2728cacee3c70eaf76fcc17474f638054909316911617905562001eea9062002651565b60408051606081018252602080825273d632f22692fac7611d2aa1c0d552930d43caed3b818301908152600093830184815273be0f6478e0e4894cfb14f32855603a083a57c7da94859052600490925291517f89306307eaee17fffe28de6a66eab5acbd92c245416d58d6deefa1f1bde3a2e55590517f89306307eaee17fffe28de6a66eab5acbd92c245416d58d6deefa1f1bde3a2e680546001600160a01b03199081166001600160a01b039384161790915591517f89306307eaee17fffe28de6a66eab5acbd92c245416d58d6deefa1f1bde3a2e78054909316911617905562001fd69062002651565b604080516060810182526021815273ed279fdd11ca84beef15af5d39bb4d4bee23f0ca6020808301918252600093830184815273fb9b2f06fdb404fd3e2278e9a9edc8f252f273d094859052600490915291517fd0576e78cb74994eb59a4c1e730f4bb11d7b7ff3b08defc2940ff73bae71c43a55517fd0576e78cb74994eb59a4c1e730f4bb11d7b7ff3b08defc2940ff73bae71c43b80546001600160a01b03199081166001600160a01b039384161790915591517fd0576e78cb74994eb59a4c1e730f4bb11d7b7ff3b08defc2940ff73bae71c43c80549093169116179055620020c29062002651565b6040805160608101825260228152734807862aa8b2bf68830e4c8dc86d0e9a998e085a602080830191825260009383018481527302d784f98a312af3e2771297feff1da8273e4f2994859052600490915291517feab08e246869d02d2e6030a660b5dce809439b653adc2824da92c1cf8aac311555517feab08e246869d02d2e6030a660b5dce809439b653adc2824da92c1cf8aac311680546001600160a01b03199081166001600160a01b039384161790915591517feab08e246869d02d2e6030a660b5dce809439b653adc2824da92c1cf8aac311780549093169116179055620021ae9062002651565b604080516060810182526023815273f9440930043eb3997fc70e1339dbb11f341de7a860208083019182526000938301848152737add8d0e923cb692df6bc65d96d510f0e2fc37af94859052600490915291517f9e4082ef8e340948ffb2ad0ae0e0557e8f0bab70fae01fd9b58e476b9d15776855517f9e4082ef8e340948ffb2ad0ae0e0557e8f0bab70fae01fd9b58e476b9d15776980546001600160a01b03199081166001600160a01b039384161790915591517f9e4082ef8e340948ffb2ad0ae0e0557e8f0bab70fae01fd9b58e476b9d15776a805490931691161790556200229a9062002651565b60408051606081018252602481527343b4fdfd4ff969587185cdb6f0bd875c5fc83f8c6020808301918252600093830184815273ca3d9f45ffa69ed454e66539298709cb2db8ca6194859052600490915291517fac671b84d917bba93cbffbda156c1602e12073ab9d1746eca1b9202288da031155517fac671b84d917bba93cbffbda156c1602e12073ab9d1746eca1b9202288da031280546001600160a01b03199081166001600160a01b039384161790915591517fac671b84d917bba93cbffbda156c1602e12073ab9d1746eca1b9202288da031380549093169116179055620023869062002651565b60408051606081018252602581527380466c64868e1ab14a1ddf27a676c3fcbe638fe5602080830191825260009383018481527318684099414dcef486f4fa5b4e44e6ea53c8c55494859052600490915291517f912cfbbfe368af4ca95fca9023b5ccbd598414763b473f82e98a096878d435ec55517f912cfbbfe368af4ca95fca9023b5ccbd598414763b473f82e98a096878d435ed80546001600160a01b03199081166001600160a01b039384161790915591517f912cfbbfe368af4ca95fca9023b5ccbd598414763b473f82e98a096878d435ee80549093169116179055620024729062002651565b604080516060810182526027815273fd5db7463a3ab53fd211b4af195c5bccc1a0389060208083019182526000938301848152732b2175ac371ec2900ac39fb87452340f65cc989594859052600490915291517f8b43e5081a932a4cd26db5d02bf9dd930f73cf55ade1df899eb46fa4d252242555517f8b43e5081a932a4cd26db5d02bf9dd930f73cf55ade1df899eb46fa4d252242680546001600160a01b03199081166001600160a01b039384161790915591517f8b43e5081a932a4cd26db5d02bf9dd930f73cf55ade1df899eb46fa4d2522427805490931691161790556200255e9062002651565b6040805160608101825260288152735a6a4d54456819380173272a5e8e9b9904bdf41b6020808301918252600093830184815273abb54222c2b77158cc975a2b715a3d703c256f0594859052600490915291517fdea517edc17d4ba96f0db84a4a19b922353f3f1aaa10187d7de6d1c486779fd755517fdea517edc17d4ba96f0db84a4a19b922353f3f1aaa10187d7de6d1c486779fd880546001600160a01b03199081166001600160a01b039384161790915591517fdea517edc17d4ba96f0db84a4a19b922353f3f1aaa10187d7de6d1c486779fd9805490931691161790556200264a9062002651565b5062002f2f565b6001600160a01b03808216600090815260046020908152604091829020825160608101845281548152600182015485169281018390526002909101549093169183019190915280620026d25760405162461bcd60e51b815260206004820152600560248201526405f737761760dc1b60448201526064015b60405180910390fd5b604051631c0615f760e31b81526001600160a01b038216600482015260009073e64608e223433e8a03a1daaefd8cb638c14b552c9063e030afb89060240161040060405180830381865afa1580156200272f573d6000803e3d6000fd5b505050506040513d601f19601f8201168201806040525081019062002755919062002e5f565b905060008060005b6008811015620027f9578351600090826008811062002780576200278062002eef565b60200201516001600160a01b031614620027a45782620027a08162002f05565b9350505b60208401516000908260088110620027c057620027c062002eef565b60200201516001600160a01b031614620027e45781620027e08162002f05565b9250505b80620027f08162002f05565b9150506200275d565b506000826001600160401b0381111562002817576200281762002d71565b60405190808252806020026020018201604052801562002841578160200160208202803683370190505b5090506000826001600160401b0381111562002861576200286162002d71565b6040519080825280602002602001820160405280156200288b578160200160208202803683370190505b506040805160c08101825260008082526020820181905291810185905260608101829052608081019190915260a08101829052909150620028cd868262002ab1565b600081604001515111620029135760405162461bcd60e51b815260206004820152600c60248201526b0c6ded2dce65cd8cadccee8d60a31b6044820152606401620026c9565b60008160a0015151116200296a5760405162461bcd60e51b815260206004820152601660248201527f756e6465726c79696e67436f696e732e6c656e677468000000000000000000006044820152606401620026c9565b80516001600160a01b0316620029ad5760405162461bcd60e51b815260206004820152600760248201526631b7b4b72932b360c91b6044820152606401620026c9565b60608101516001600160a01b0316620029fd5760405162461bcd60e51b81526020600482015260116024820152703ab73232b9363cb4b733a1b7b4b72932b360791b6044820152606401620026c9565b6001600160a01b03878116600090815260056020908152604091829020845181546001600160a01b031916941693909317835583810151600184015590830151805184939262002a5592600285019291019062002cae565b5060608201516003820180546001600160a01b0319166001600160a01b039092169190911790556080820151600482015560a0820151805162002aa391600584019160209091019062002cae565b505050505050505050505050565b60008060005b600881101562002ca7578451600090826008811062002ada5762002ada62002eef565b60200201516001600160a01b03161462002b81578262002b25578451816008811062002b0a5762002b0a62002eef565b602090810291909101516001600160a01b0316855284018190525b8451816008811062002b3b5762002b3b62002eef565b60200201518460400151848151811062002b595762002b5962002eef565b6001600160a01b03909216602092830291909101909101528262002b7d8162002f05565b9350505b6020850151600090826008811062002b9d5762002b9d62002eef565b60200201516001600160a01b03161462002c925781158062002bf957506020850151736b175474e89094c44da98b954eedeac495271d0f90826008811062002be95762002be962002eef565b60200201516001600160a01b0316145b1562002c33578460200151816008811062002c185762002c1862002eef565b60200201516001600160a01b03166060850152608084018190525b8460200151816008811062002c4c5762002c4c62002eef565b60200201518460a00151838151811062002c6a5762002c6a62002eef565b6001600160a01b03909216602092830291909101909101528162002c8e8162002f05565b9250505b8062002c9e8162002f05565b91505062002ab7565b5050505050565b82805482825590600052602060002090810192821562002d06579160200282015b8281111562002d0657825182546001600160a01b0319166001600160a01b0390911617825560209092019160019091019062002ccf565b5062002d1492915062002d18565b5090565b5b8082111562002d14576000815560010162002d19565b80516001600160a01b038116811462002d4757600080fd5b919050565b60006020828403121562002d5f57600080fd5b62002d6a8262002d2f565b9392505050565b634e487b7160e01b600052604160045260246000fd5b60405161010081016001600160401b038111828210171562002dad5762002dad62002d71565b60405290565b600082601f83011262002dc557600080fd5b62002dcf62002d87565b8061010084018581111562002de357600080fd5b845b8181101562002e085762002df98162002d2f565b84526020938401930162002de5565b509095945050505050565b600082601f83011262002e2557600080fd5b62002e2f62002d87565b8061010084018581111562002e4357600080fd5b845b8181101562002e0857805184526020938401930162002e45565b6000610400828403121562002e7357600080fd5b604051608081016001600160401b038111828210171562002e985762002e9862002d71565b60405262002ea7848462002db3565b815262002eb984610100850162002db3565b602082015262002ece84610200850162002e13565b604082015262002ee384610300850162002e13565b60608201529392505050565b634e487b7160e01b600052603260045260246000fd5b600060001982141562002f2857634e487b7160e01b600052601160045260246000fd5b5060010190565b61409b8062002f3f6000396000f3fe608060405234801561001057600080fd5b50600436106104f95760003560e01c806385541e4411610299578063cce1dffc11610167578063da699f96116100d9578063f00cca7911610092578063f00cca7914610dce578063f1aacbb714610de9578063f49307ca14610dfc578063f5f4e77014610e0f578063fa6ef95f14610e2a578063fd1365ea14610e4557600080fd5b8063da699f9614610d5a578063df93572214610d6d578063e49d5ecc14610d80578063edfbc70814610d93578063ee665bed14610a16578063ef856be914610dae57600080fd5b8063d1445c201161012b578063d1445c2014610cc8578063d341b5da14610ce3578063d463fcf614610cfe578063d6e5aed314610d11578063d74baaf814610d2c578063d81971e614610d3f57600080fd5b8063cce1dffc14610c44578063cd97891014610c57578063cd9c320f14610c72578063d042d3ea14610c92578063d0e1567214610cad57600080fd5b8063a91ee0dc1161020b578063bbdc52eb116101c4578063bbdc52eb14610ba2578063be820c1314610bbd578063bf9ca72e14610bd8578063c65858f814610bf3578063c8cb1a7314610c0e578063c915c62014610c2957600080fd5b8063a91ee0dc14610b20578063afd908d914610b33578063b2425d1c14610b46578063b3fe7f5a14610b61578063b8e0889314610b74578063ba542d4d14610b8f57600080fd5b8063949053681161025d5780639490536814610a86578063993e65da14610aa15780639c115fd114610abc5780639cca45fe14610acf578063a3d0fa5f14610aea578063a7c6402c14610b0557600080fd5b806385541e4414610a165780638a80edc614610a2a578063901afc6014610a4557806390e6160514610a60578063919b69d714610a7357600080fd5b8063489b5295116103d6578063683136a411610348578063770788721161030157806377078872146109915780637921b90a146109a45780637c47b3f4146109bf5780637df50ed8146109d2578063845cc96a146109e85780638476fdec14610a0357600080fd5b8063683136a4146108ff5780636d267d7c1461091a5780636faecbc61461092d5780636ff1effb1461094857806374df3b2f146109635780637624c96b1461097657600080fd5b8063508591351161039a5780635085913514610883578063515b6bdc146108985780635adca02e146108b35780635e6502e0146108c657806360925779146108d957806364dd5f80146108ec57600080fd5b8063489b5295146107aa578063493f3874146107bd5780634aa9c62c146107d85780634ad36e02146108505780634f83b52d1461086357600080fd5b806327c24a5d1161046f57806332000b941161043357806332000b94146106ff57806336d8bf931461071a5780633da54f0e1461073e5780633fbd0318146107595780633fc2a56014610774578063435630341461078f57600080fd5b806327c24a5d1461068a57806328c1f99b146106a5578063292ccf02146106b85780632af06b96146106cb5780632de77838146106ec57600080fd5b8063179af4e5116104c1578063179af4e51461060a578063191c194b1461061d5780631a7cb6b214610626578063219c91fa1461064157806324cceb781461065c5780632627a0991461067757600080fd5b8063027a304d146104fe57806305f4b27d1461053c5780630c9d8d5c1461056f5780630ccbc0121461058f57806310b9dd9f146105aa575b600080fd5b61052961050c366004613762565b600360209081526000928352604080842090915290825290205481565b6040519081526020015b60405180910390f35b61055773ca3d9f45ffa69ed454e66539298709cb2db8ca6181565b6040516001600160a01b039091168152602001610533565b61058261057d36600461379b565b610e58565b6040516105339190613833565b61055773abb54222c2b77158cc975a2b715a3d703c256f0581565b6105e56105b8366004613895565b60046020526000908152604090208054600182015460029092015490916001600160a01b03908116911683565b604080519384526001600160a01b039283166020850152911690820152606001610533565b61058261061836600461379b565b610eea565b61052960015481565b610557732b2175ac371ec2900ac39fb87452340f65cc989581565b6105577309ccd0892b696ab21436e51588a7a7f8b649733d81565b610557732ea94b0d3349a284488acf2934e494b2f58ef64781565b61052961068536600461379b565b610f06565b610557737d86446ddb609ed0f5f8684acf30380a356b2b4c81565b600054610557906001600160a01b031681565b6105826106c63660046138b2565b610f84565b6000546106df90600160a01b900460ff1681565b6040516105339190613919565b6105296106fa366004613762565b611048565b61055773d34d466233c5195193df712936049729140dbbd781565b61072e610728366004613895565b50600190565b6040519015158152602001610533565b6105577367c4f788feb82fab27e3007daa3d7b90959d5b8981565b6105577330d9410ed1d5da1f6c8391af5338c93ab8d4035c81565b61055773f403c135812408bfbe8713b5a23a04b3d48aae3181565b6105577311d200ef1409ceca8d6d23e6496550f707772f1181565b6105826107b836600461379b565b611147565b61055773af1d4c576bf55f6ae493aeebacc3a227675e5b9881565b61081b6107e6366004613895565b60056020526000908152604090208054600182015460038301546004909301546001600160a01b039283169391929091169084565b60405161053394939291906001600160a01b039485168152602081019390935292166040820152606081019190915260800190565b61052961085e3660046138b2565b6111c5565b610529610871366004613895565b60026020526000908152604090205481565b610896610891366004613941565b611204565b005b610557737a5dc1fa2e1b10194bd2e2e9f1a224971a68144481565b6105296108c13660046138b2565b61131d565b6105826108d4366004613762565b6113cf565b6105826108e73660046138b2565b6113e9565b6105296108fa36600461379b565b6114d1565b61055773c1c030139eec070ed8fd092cc8c273c638a18bbe81565b610582610928366004613762565b6114e3565b610557738b876c2c02b1f2ac6ec207b7f2f06034a4316a8781565b610557730928f6753880a03628eb0be07b77992c8af3787481565b61058261097136600461379b565b61158e565b6105577336ced690a1516861f26755b978ee62c1157cfff981565b61055761099f366004613895565b6115a9565b610557736b175474e89094c44da98b954eedeac495271d0f81565b6108966109cd366004613994565b611619565b6105826109e0366004613762565b606092915050565b6105577302d784f98a312af3e2771297feff1da8273e4f2981565b61072e610a113660046138b2565b611734565b610529610a243660046139b5565b92915050565b61055773be0f6478e0e4894cfb14f32855603a083a57c7da81565b6105577321cce64289407081744f087950b9db32906470fc81565b610529610a6e36600461379b565b61174f565b610896610a813660046139f6565b6117a5565b6105577359bb786f222d3f0f00b0da31b799fff80d55294081565b61055773d37969740d78c94c648d74671b8be31ef43c30ab81565b610582610aca3660046139f6565b6118d8565b6105577306f4ffa5c3636aaa5c30b3db97bfd1cd9ac24a1981565b610557737e96955b66c89b931bbdaf187740cc0ff2602f2181565b610557737a250d5630b4cf539739df2c5dacb4c659f2488d81565b610896610b2e366004613895565b611a34565b610529610b41366004613762565b611b40565b610557739518c9063eb0262d791f38d8d6eb0aca33c63ed081565b610529610b6f36600461379b565b611bba565b61055773a1c3492b71938e144ad8be4c2fb6810b01a43dd881565b610896610b9d366004613895565b611bf6565b610557730a2ea49eb5f9e23058deffd509d13ddd553c2a1981565b61055773ba723e335ec2939d52a2efca2a8199cb4cb93cc381565b6105577318684099414dcef486f4fa5b4e44e6ea53c8c55481565b6105577323f224c37c3a69a058d86a54d3f561295a93d54281565b6105577333c00bf8cfdf42929e0884d230a55f963221f8f381565b610557737add8d0e923cb692df6bc65d96d510f0e2fc37af81565b610529610c523660046139b5565b611ca7565b61055773e64608e223433e8a03a1daaefd8cb638c14b552c81565b610c85610c803660046139b5565b611d17565b6040516105339190613a22565b6105577332512bee3848bfcbb7beaf647aa697a100f3b70681565b610557733689f325e88c2363274e5f3d44b6dab8f9e1f52481565b61055773912ec00eaebf3820a9b0ac7a5e15f381a1c91f2281565b61055773fb9b2f06fdb404fd3e2278e9a9edc8f252f273d081565b610582610d0c3660046138b2565b611e1b565b6105577374b79021ea6de3f0d1731fb8bdff6ee7df10b8ae81565b610557610d3a366004613762565b611e3a565b6105577347941f99f4371cc26637caedbbd8ba5f4bfe514981565b610896610d68366004613a66565b611e50565b610582610d7b3660046138b2565b611f2a565b61072e610d8e3660046138b2565b6120c4565b610557732e1f902b9067b5fdd7af29ef05d4ff621258838881565b610dc1610dbc366004613762565b6120d2565b6040516105339190613ac3565b61055773e4de776c0ea0974bfa39b8cbb9491091c8cdc1ff81565b610896610df73660046139b5565b61213a565b610582610e0a36600461379b565b6122e6565b6105577315c2471ef46fa721990730cfa526bcfb4557457681565b61055773d7e2b9494c529b42dea53ef6a237c16502e6a92781565b610582610e533660046139f6565b612303565b60606000610e65836115a9565b6040516370a0823160e01b81526001600160a01b03878116600483015291909116906370a0823190602401602060405180830381865afa158015610ead573d6000803e3d6000fd5b505050506040513d601f19601f82011682018060405250810190610ed19190613ad6565b9050610edf85858584611e1b565b9150505b9392505050565b60606000610ef88584611b40565b9050610edf85858584610f84565b600080610f1283612398565b606001516040516370a0823160e01b81526001600160a01b038781166004830152919250908216906370a0823190602401602060405180830381865afa158015610f60573d6000803e3d6000fd5b505050506040513d601f19601f82011682018060405250810190610edf9190613ad6565b60608115611040576040805160028082526060820190925290816020015b6060815260200190600190039081610fa2579050509050610fc38383612303565b600081518110610fd557610fd5613b05565b602002602001015181600081518110610ff057610ff0613b05565b6020026020010181905250611007858585856113e9565b60008151811061101957611019613b05565b60200260200101518160018151811061103457611034613b05565b60200260200101819052505b949350505050565b60008061105484612398565b905080604001516001600160a01b03166370a0823173f403c135812408bfbe8713b5a23a04b3d48aae316001600160a01b0316635ebaf1db6040518163ffffffff1660e01b8152600401602060405180830381865afa1580156110bb573d6000803e3d6000fd5b505050506040513d601f19601f820116820180604052508101906110df9190613b1b565b6040516001600160e01b031960e084901b1681526001600160a01b039091166004820152602401602060405180830381865afa158015611123573d6000803e3d6000fd5b505050506040513d601f19601f820116820180604052508101906110409190613ad6565b6040516370a0823160e01b81526001600160a01b0384811660048301526060916000918516906370a0823190602401602060405180830381865afa158015611193573d6000803e3d6000fd5b505050506040513d601f19601f820116820180604052508101906111b79190613ad6565b9050610edf85858584611f2a565b6000806111d386868661174f565b905060006111e28787876114d1565b9050806111ef8584613b4e565b6111f99190613b6d565b979650505050505050565b60008054906101000a90046001600160a01b03166001600160a01b031663e7f43c686040518163ffffffff1660e01b8152600401602060405180830381865afa158015611255573d6000803e3d6000fd5b505050506040513d601f19601f820116820180604052508101906112799190613b1b565b6001600160a01b0316336001600160a01b0316146112b25760405162461bcd60e51b81526004016112a990613b8f565b60405180910390fd5b604080516060810182529384526001600160a01b03928316602080860191825292841685830190815295841660009081526004909352912092518355516001830180549183166001600160a01b03199283161790559251600290920180549290911691909216179055565b60008061132984612398565b606001516040516370a0823160e01b81526001600160a01b0388811660048301529192506000918316906370a0823190602401602060405180830381865afa158015611379573d6000803e3d6000fd5b505050506040513d601f19601f8201168201806040525081019061139d9190613ad6565b905060006113ac888888610f06565b9050806113b98684613b4e565b6113c39190613b6d565b98975050505050505050565b606060006113dd8484611b40565b90506110408382612303565b60608115611040576001600160a01b0383166000908152600460205260409081902054815160018082528184019093529091816020015b606081526020019060019003908161142057905050604051602481018390526044810185905290925073f403c135812408bfbe8713b5a23a04b3d48aae319060640160408051601f19818403018152918152602080830180516001600160e01b0316630441a3e760e41b179052905161149b93929101613bc6565b604051602081830303815290604052826000815181106114bd576114bd613b05565b602002602001018190525050949350505050565b60006110408383610a2487878761174f565b606060006114f083612398565b60600151604080516001808252818301909252919250816020015b606081526020019060019003908161150b579050506040805160048152602481018252602080820180516001600160e01b0316631e8c5c8960e11b179052915192945061155a92849201613bc6565b6040516020818303038152906040528260008151811061157c5761157c613b05565b60200260200101819052505092915050565b6060600061159d85858561174f565b9050610edf83826118d8565b60006115b482612398565b606001516001600160a01b031663f7c618c16040518163ffffffff1660e01b8152600401602060405180830381865afa1580156115f5573d6000803e3d6000fd5b505050506040513d601f19601f82011682018060405250810190610a249190613b1b565b60008054906101000a90046001600160a01b03166001600160a01b0316637af0e5576040518163ffffffff1660e01b8152600401602060405180830381865afa15801561166a573d6000803e3d6000fd5b505050506040513d601f19601f8201168201806040525081019061168e9190613b1b565b6001600160a01b0316336001600160a01b0316146116be5760405162461bcd60e51b81526004016112a990613bea565b6000805482919060ff60a01b1916600160a01b8360018111156116e3576116e3613903565b02179055506000543390600160a01b900460ff16600181111561170857611708613903565b6040517f68e3b01155b193b02181f2c0ed491c934a74348d211ff023f8fc6ac5edf22aa090600090a350565b600080611742868686610f06565b9092111595945050505050565b600061175c600083611e3a565b6040516370a0823160e01b81526001600160a01b03868116600483015291909116906370a08231906024015b602060405180830381865afa158015611123573d6000803e3d6000fd5b60008054906101000a90046001600160a01b03166001600160a01b0316637af0e5576040518163ffffffff1660e01b8152600401602060405180830381865afa1580156117f6573d6000803e3d6000fd5b505050506040513d601f19601f8201168201806040525081019061181a9190613b1b565b6001600160a01b0316336001600160a01b03161461184a5760405162461bcd60e51b81526004016112a990613bea565b6001600160a01b0382163b61188f5760405162461bcd60e51b815260206004820152600b60248201526a085a5cd0dbdb9d1c9858dd60aa1b60448201526064016112a9565b6001600160a01b03821660009081526002602052604080822083905551339183917fac58e29a41d996caca756d050dce90806b277f0c939337653638329247e16f4c9190a35050565b60608115610a245760006118eb84612398565b60600151905060006118fe600086611e3a565b60408051600280825260608201909252919250816020015b6060815260200190600190039081611916579050506040516001600160a01b038416602482015260448101869052909350819060640160408051601f19818403018152918152602080830180516001600160e01b031663095ea7b360e01b179052905161198593929101613bc6565b604051602081830303815290604052836000815181106119a7576119a7613b05565b602002602001018190525081846040516024016119c691815260200190565b60408051601f19818403018152918152602080830180516001600160e01b031663534a7e1d60e11b17905290516119ff93929101613bc6565b60405160208183030381529060405283600181518110611a2157611a21613b05565b6020026020010181905250505092915050565b60008054906101000a90046001600160a01b03166001600160a01b031663e7f43c686040518163ffffffff1660e01b8152600401602060405180830381865afa158015611a85573d6000803e3d6000fd5b505050506040513d601f19601f82011682018060405250810190611aa99190613b1b565b6001600160a01b0316336001600160a01b031614611ad95760405162461bcd60e51b81526004016112a990613b8f565b6001600160a01b0381163b611b1e5760405162461bcd60e51b815260206004820152600b60248201526a085a5cd0dbdb9d1c9858dd60aa1b60448201526064016112a9565b600080546001600160a01b0319166001600160a01b0392909216919091179055565b6000611b4b82612398565b606001516040516370a0823160e01b81526001600160a01b038581166004830152909116906370a0823190602401602060405180830381865afa158015611b96573d6000803e3d6000fd5b505050506040513d601f19601f82011682018060405250810190610ee39190613ad6565b6000611bc583612398565b606001516040516246613160e11b81526001600160a01b03868116600483015290911690628cc26290602401611788565b60008054906101000a90046001600160a01b03166001600160a01b031663e7f43c686040518163ffffffff1660e01b8152600401602060405180830381865afa158015611c47573d6000803e3d6000fd5b505050506040513d601f19601f82011682018060405250810190611c6b9190613b1b565b6001600160a01b0316336001600160a01b031614611c9b5760405162461bcd60e51b81526004016112a990613b8f565b611ca481612459565b50565b6001600160a01b038083166000908152600460209081526040808320815160608101835281548152600182015486169381019390935260020154909316928101929092529081611cf682612899565b90506000611d0987836040015187612a6c565b905060006113c38483612b29565b6001600160a01b038083166000908152600460209081526040808320815160608181018452825482526001830154871694820194909452600290910154909416908401529190611d6682612899565b9050737a250d5630b4cf539739df2c5dacb4c659f2488d6001600160a01b031663d06ca61f85611d9a898560400151612cb4565b6040518363ffffffff1660e01b8152600401611db7929190613c21565b600060405180830381865afa925050508015611df557506040513d6000823e601f3d908101601f19168201604052611df29190810190613cb8565b60015b611e115750506040805160008152602081019091529050610ee3565b9250610ee3915050565b6060611e3185611e2a856115a9565b8585612e7e565b95945050505050565b6000611e4582612398565b602001519392505050565b60008054906101000a90046001600160a01b03166001600160a01b0316637af0e5576040518163ffffffff1660e01b8152600401602060405180830381865afa158015611ea1573d6000803e3d6000fd5b505050506040513d601f19601f82011682018060405250810190611ec59190613b1b565b6001600160a01b0316336001600160a01b031614611ef55760405162461bcd60e51b81526004016112a990613bea565b6001819055604051339082907f19c60b0612798cc65bd298cd47e17d9fd07e74e0d3baa6c0019411bb334d9bda90600090a350565b60608115611040576001600160a01b038316600090815260046020526040908190205481516002808252606082019093529091816020015b6060815260200190600190039081611f625790505091506000611f91858786611f8c896000611048565b6130dc565b60405173f403c135812408bfbe8713b5a23a04b3d48aae31602482015260448101829052909150869060640160408051601f19818403018152918152602080830180516001600160e01b031663095ea7b360e01b1790529051611ff693929101613bc6565b6040516020818303038152906040528360008151811061201857612018613b05565b602090810291909101015260405160248101839052604481018290526000606482015273f403c135812408bfbe8713b5a23a04b3d48aae319060840160408051601f19818403018152918152602080830180516001600160e01b03166321d0683360e11b179052905161208d93929101613bc6565b604051602081830303815290604052836001815181106120af576120af613b05565b60200260200101819052505050949350505050565b6000806117428686866114d1565b604080516001808252818301909252606091602080830190803683370190505090506120fd83612398565b600001518160008151811061211457612114613b05565b60200260200101906001600160a01b031690816001600160a01b03168152505092915050565b60008054906101000a90046001600160a01b03166001600160a01b0316637af0e5576040518163ffffffff1660e01b8152600401602060405180830381865afa15801561218b573d6000803e3d6000fd5b505050506040513d601f19601f820116820180604052508101906121af9190613b1b565b6001600160a01b0316336001600160a01b0316146121df5760405162461bcd60e51b81526004016112a990613bea565b6001600160a01b0383163b6122365760405162461bcd60e51b815260206004820152601c60248201527f215f6c6971756964697479506f6f6c2e6973436f6e747261637428290000000060448201526064016112a9565b6001600160a01b0382163b61228d5760405162461bcd60e51b815260206004820152601e60248201527f215f756e6465726c79696e67546f6b656e2e6973436f6e74726163742829000060448201526064016112a9565b6001600160a01b03838116600090815260036020908152604080832093861683529290528181208390559051339183917f197807a6a2633dd9bde6550aca985cfc69e655e9130930314c0e9da01a75cc549190a3505050565b606060006122f585858561174f565b9050610edf858585846113e9565b60608115610a2457600061231684612398565b60600151604080516001808252818301909252919250816020015b6060815260200190600190039081612331579050506040516024810185905260016044820152909250819060640160408051601f19818403018152918152602080830180516001600160e01b0316631c683a1b60e11b179052905161155a93929101613bc6565b6040805160c081018252600080825260208201819052918101829052606081018290526080810182905260a08101919091526001600160a01b038216600090815260046020819052604091829020549151631526fe2760e01b815290810182905273f403c135812408bfbe8713b5a23a04b3d48aae3190631526fe279060240160c060405180830381865afa158015612435573d6000803e3d6000fd5b505050506040513d601f19601f82011682018060405250810190610ee39190613d52565b6001600160a01b038082166000908152600460209081526040918290208251606081018452815481526001820154851692810183905260029091015490931691830191909152806124d45760405162461bcd60e51b815260206004820152600560248201526405f737761760dc1b60448201526064016112a9565b604051631c0615f760e31b81526001600160a01b038216600482015260009073e64608e223433e8a03a1daaefd8cb638c14b552c9063e030afb89060240161040060405180830381865afa158015612530573d6000803e3d6000fd5b505050506040513d601f19601f820116820180604052508101906125549190613e84565b905060008060005b60088110156125e8578351600090826008811061257b5761257b613b05565b60200201516001600160a01b03161461259c578261259881613f09565b9350505b602084015160009082600881106125b5576125b5613b05565b60200201516001600160a01b0316146125d657816125d281613f09565b9250505b806125e081613f09565b91505061255c565b5060008267ffffffffffffffff81111561260457612604613aef565b60405190808252806020026020018201604052801561262d578160200160208202803683370190505b50905060008267ffffffffffffffff81111561264b5761264b613aef565b604051908082528060200260200182016040528015612674578160200160208202803683370190505b50905060006040518060c0016040528060006001600160a01b031681526020016000815260200184815260200160006001600160a01b03168152602001600081526020018381525090506126c88682613154565b60008160400151511161270c5760405162461bcd60e51b815260206004820152600c60248201526b0c6ded2dce65cd8cadccee8d60a31b60448201526064016112a9565b60008160a00151511161275a5760405162461bcd60e51b81526020600482015260166024820152750eadcc8cae4d8f2d2dcce86ded2dce65cd8cadccee8d60531b60448201526064016112a9565b80516001600160a01b031661279b5760405162461bcd60e51b815260206004820152600760248201526631b7b4b72932b360c91b60448201526064016112a9565b60608101516001600160a01b03166127e95760405162461bcd60e51b81526020600482015260116024820152703ab73232b9363cb4b733a1b7b4b72932b360791b60448201526064016112a9565b6001600160a01b03878116600090815260056020908152604091829020845181546001600160a01b031916941693909317835583810151600184015590830151805184939261283f926002850192910190613679565b5060608201516003820180546001600160a01b0319166001600160a01b039092169190911790556080820151600482015560a0820151805161288b916005840191602090910190613679565b505050505050505050505050565b6040805160808101825260008082526020820181905291810182905260608101919091526020808301516001600160a01b039081166000908152600583526040808220815160c08101835281549094168452600181015484860152600281018054835181880281018801855281815294969294938601939283018282801561294a57602002820191906000526020600020905b81546001600160a01b0316815260019091019060200180831161292c575b505050505081526020016003820160009054906101000a90046001600160a01b03166001600160a01b03166001600160a01b0316815260200160048201548152602001600582018054806020026020016040519081016040528092919081815260200182805480156129e557602002820191906000526020600020905b81546001600160a01b031681526001909101906020018083116129c7575b5050509190925250506040805160808082018352878301516001600160a01b0390811680845260a087015151602085015260608088015190921694840194909452908501519082015292935015159050610ee3576020938401516001600160a01b039081168252604083810151518387015283519091169082015292015160608301525090565b6000737a250d5630b4cf539739df2c5dacb4c659f2488d63d06ca61f83612a938787612cb4565b6040518363ffffffff1660e01b8152600401612ab0929190613c21565b600060405180830381865afa925050508015612aee57506040513d6000823e601f3d908101601f19168201604052612aeb9190810190613cb8565b60015b612afa57506000610ee3565b8060018251612b099190613f24565b81518110612b1957612b19613b05565b6020026020010151915050610ee3565b600080612b3584612899565b9050806020015160021415612be457612b4c6136de565b8381836060015160028110612b6357612b63613b05565b6020020152815160405163ed8e84f360e01b81526001600160a01b039091169063ed8e84f390612b9a908490600190600401613f64565b602060405180830381865afa158015612bb7573d6000803e3d6000fd5b505050506040513d601f19601f82011682018060405250810190612bdb9190613ad6565b92505050610a24565b806020015160031415612c4757612bf96136fc565b8381836060015160038110612c1057612c10613b05565b60200201528151604051633883e11960e01b81526001600160a01b0390911690633883e11990612b9a908490600190600401613fa4565b806020015160041415612caa57612c5c61371a565b8381836060015160048110612c7357612c73613b05565b6020020152815160405163cf701ff760e01b81526001600160a01b039091169063cf701ff790612b9a908490600190600401613fe4565b5060009392505050565b60606001600160a01b038316612cfc5760405162461bcd60e51b815260206004820152600d60248201526c2fb4b734ba34b0b62a37b5b2b760991b60448201526064016112a9565b6001600160a01b038216612d405760405162461bcd60e51b815260206004820152600b60248201526a2fb334b730b62a37b5b2b760a91b60448201526064016112a9565b6000737a250d5630b4cf539739df2c5dacb4c659f2488d6001600160a01b031663ad5c46486040518163ffffffff1660e01b8152600401602060405180830381865afa158015612d94573d6000803e3d6000fd5b505050506040513d601f19601f82011682018060405250810190612db89190613b1b565b60408051600380825260808201909252919250602082016060803683370190505091508382600081518110612def57612def613b05565b60200260200101906001600160a01b031690816001600160a01b0316815250508082600181518110612e2357612e23613b05565b60200260200101906001600160a01b031690816001600160a01b0316815250508282600281518110612e5757612e57613b05565b60200260200101906001600160a01b031690816001600160a01b0316815250505092915050565b60608115611040576001600160a01b03808416600090815260046020908152604080832081516060810183528154815260018201548616938101939093526002015490931692810192909252612ed382612899565b90506000612ee687836040015187612a6c565b905080156130d15760408051600480825260a0820190925290816020015b6060815260200190600190039081612f0457905050604051737a250d5630b4cf539739df2c5dacb4c659f2488d602482015260448101879052909450879060640160408051601f19818403018152918152602080830180516001600160e01b031663095ea7b360e01b1790529051612f7e93929101613bc6565b60405160208183030381529060405284600081518110612fa057612fa0613b05565b6020026020010181905250737a250d5630b4cf539739df2c5dacb4c659f2488d856000612fd18a8660400151612cb4565b8b600019604051602401612fe9959493929190614001565b60408051601f19818403018152918152602080830180516001600160e01b03166338ed173960e01b179052905161302293929101613bc6565b6040516020818303038152906040528460018151811061304457613044613b05565b6020026020010181905250600061305b8783613329565b90508060008151811061307057613070613b05565b60200260200101518560028151811061308b5761308b613b05565b6020026020010181905250806001815181106130a9576130a9613b05565b6020026020010151856003815181106130c4576130c4613b05565b6020026020010181905250505b505050949350505050565b6000806001600054600160a01b900460ff1660018111156130ff576130ff613903565b1461312f576001600160a01b03808716600090815260036020908152604080832093891683529290522054613139565b6131398684613622565b9050808411613148578361314a565b805b9695505050505050565b60008060005b6008811015613322578451600090826008811061317957613179613b05565b60200201516001600160a01b03161461321357826131bf57845181600881106131a4576131a4613b05565b602090810291909101516001600160a01b0316855284018190525b845181600881106131d2576131d2613b05565b6020020151846040015184815181106131ed576131ed613b05565b6001600160a01b03909216602092830291909101909101528261320f81613f09565b9350505b6020850151600090826008811061322c5761322c613b05565b60200201516001600160a01b0316146133105781158061328357506020850151736b175474e89094c44da98b954eedeac495271d0f90826008811061327357613273613b05565b60200201516001600160a01b0316145b156132b9578460200151816008811061329e5761329e613b05565b60200201516001600160a01b03166060850152608084018190525b846020015181600881106132cf576132cf613b05565b60200201518460a0015183815181106132ea576132ea613b05565b6001600160a01b03909216602092830291909101909101528161330c81613f09565b9250505b8061331a81613f09565b91505061315a565b5050505050565b60608115610a24576040805160028082526060820190925290816020015b60608152602001906001900390816133475750506001600160a01b03848116600090815260046020908152604080832081516060810183528154815260018201548616938101939093526002015490931692810192909252919250906133ac82612899565b604080820151825191516001600160a01b0390921660248301526044820187905291925060640160408051601f19818403018152918152602080830180516001600160e01b031663095ea7b360e01b179052905161340c93929101613bc6565b6040516020818303038152906040528360008151811061342e5761342e613b05565b60200260200101819052508060200151600214156134ec5761344e6136de565b848183606001516002811061346557613465613b05565b6020020152815160405161348090839060009060240161403d565b60408051601f19818403018152918152602080830180516001600160e01b0316630b4c7e4d60e01b17905290516134b993929101613bc6565b604051602081830303815290604052846001815181106134db576134db613b05565b60200260200101819052505061361a565b80602001516003141561356c576135016136fc565b848183606001516003811061351857613518613b05565b60200201528151604051613533908390600090602401614058565b60408051601f19818403018152918152602080830180516001600160e01b0316634515cef360e01b17905290516134b993929101613bc6565b80602001516004141561361a5761358161371a565b848183606001516004811061359857613598613b05565b602002015281516040516135b3908390600090602401614073565b60408051601f19818403018152918152602080830180516001600160e01b031662a6cbcd60e21b17905290516135eb93929101613bc6565b6040516020818303038152906040528460018151811061360d5761360d613b05565b6020026020010181905250505b505092915050565b6001600160a01b03821660009081526002602052604081205481811561365e5761271061364f8386613b4e565b6136599190613b6d565b611e31565b6127106001548561366f9190613b4e565b611e319190613b6d565b8280548282559060005260206000209081019282156136ce579160200282015b828111156136ce57825182546001600160a01b0319166001600160a01b03909116178255602090920191600190910190613699565b506136da929150613738565b5090565b60405180604001604052806002906020820280368337509192915050565b60405180606001604052806003906020820280368337509192915050565b60405180608001604052806004906020820280368337509192915050565b5b808211156136da5760008155600101613739565b6001600160a01b0381168114611ca457600080fd5b6000806040838503121561377557600080fd5b82356137808161374d565b915060208301356137908161374d565b809150509250929050565b6000806000606084860312156137b057600080fd5b83356137bb8161374d565b925060208401356137cb8161374d565b915060408401356137db8161374d565b809150509250925092565b6000815180845260005b8181101561380c576020818501810151868301820152016137f0565b8181111561381e576000602083870101525b50601f01601f19169290920160200192915050565b6000602080830181845280855180835260408601915060408160051b870101925083870160005b8281101561388857603f198886030184526138768583516137e6565b9450928501929085019060010161385a565b5092979650505050505050565b6000602082840312156138a757600080fd5b8135610ee38161374d565b600080600080608085870312156138c857600080fd5b84356138d38161374d565b935060208501356138e38161374d565b925060408501356138f38161374d565b9396929550929360600135925050565b634e487b7160e01b600052602160045260246000fd5b602081016002831061393b57634e487b7160e01b600052602160045260246000fd5b91905290565b6000806000806080858703121561395757600080fd5b84356139628161374d565b93506020850135925060408501356139798161374d565b915060608501356139898161374d565b939692955090935050565b6000602082840312156139a657600080fd5b813560028110610ee357600080fd5b6000806000606084860312156139ca57600080fd5b83356139d58161374d565b925060208401356139e58161374d565b929592945050506040919091013590565b60008060408385031215613a0957600080fd5b8235613a148161374d565b946020939093013593505050565b6020808252825182820181905260009190848201906040850190845b81811015613a5a57835183529284019291840191600101613a3e565b50909695505050505050565b600060208284031215613a7857600080fd5b5035919050565b600081518084526020808501945080840160005b83811015613ab85781516001600160a01b031687529582019590820190600101613a93565b509495945050505050565b602081526000610ee36020830184613a7f565b600060208284031215613ae857600080fd5b5051919050565b634e487b7160e01b600052604160045260246000fd5b634e487b7160e01b600052603260045260246000fd5b600060208284031215613b2d57600080fd5b8151610ee38161374d565b634e487b7160e01b600052601160045260246000fd5b6000816000190483118215151615613b6857613b68613b38565b500290565b600082613b8a57634e487b7160e01b600052601260045260246000fd5b500490565b6020808252601a908201527f63616c6c6572206973206e6f7420746865206f70657261746f72000000000000604082015260600190565b6001600160a01b0383168152604060208201819052600090611040908301846137e6565b6020808252601e908201527f63616c6c6572206973206e6f7420746865207269736b4f70657261746f720000604082015260600190565b8281526040602082015260006110406040830184613a7f565b60405160c0810167ffffffffffffffff81118282101715613c5d57613c5d613aef565b60405290565b604051610100810167ffffffffffffffff81118282101715613c5d57613c5d613aef565b604051601f8201601f1916810167ffffffffffffffff81118282101715613cb057613cb0613aef565b604052919050565b60006020808385031215613ccb57600080fd5b825167ffffffffffffffff80821115613ce357600080fd5b818501915085601f830112613cf757600080fd5b815181811115613d0957613d09613aef565b8060051b9150613d1a848301613c87565b8181529183018401918481019088841115613d3457600080fd5b938501935b838510156113c357845182529385019390850190613d39565b600060c08284031215613d6457600080fd5b613d6c613c3a565b8251613d778161374d565b81526020830151613d878161374d565b60208201526040830151613d9a8161374d565b60408201526060830151613dad8161374d565b60608201526080830151613dc08161374d565b608082015260a08301518015158114613dd857600080fd5b60a08201529392505050565b600082601f830112613df557600080fd5b613dfd613c63565b80610100840185811115613e1057600080fd5b845b81811015613e33578051613e258161374d565b845260209384019301613e12565b509095945050505050565b600082601f830112613e4f57600080fd5b613e57613c63565b80610100840185811115613e6a57600080fd5b845b81811015613e33578051845260209384019301613e6c565b60006104008284031215613e9757600080fd5b6040516080810181811067ffffffffffffffff82111715613eba57613eba613aef565b604052613ec78484613de4565b8152613ed7846101008501613de4565b6020820152613eea846102008501613e3e565b6040820152613efd846103008501613e3e565b60608201529392505050565b6000600019821415613f1d57613f1d613b38565b5060010190565b600082821015613f3657613f36613b38565b500390565b8060005b6002811015613f5e578151845260209384019390910190600101613f3f565b50505050565b60608101613f728285613f3b565b82151560408301529392505050565b8060005b6003811015613f5e578151845260209384019390910190600101613f85565b60808101613fb28285613f81565b82151560608301529392505050565b8060005b6004811015613f5e578151845260209384019390910190600101613fc5565b60a08101613ff28285613fc1565b82151560808301529392505050565b85815284602082015260a06040820152600061402060a0830186613a7f565b6001600160a01b0394909416606083015250608001529392505050565b6060810161404b8285613f3b565b8260408301529392505050565b608081016140668285613f81565b8260608301529392505050565b60a081016140818285613fc1565b826080830152939250505056fea164736f6c634300080b000a",
  "deployedBytecode": "0x608060405234801561001057600080fd5b50600436106104f95760003560e01c806385541e4411610299578063cce1dffc11610167578063da699f96116100d9578063f00cca7911610092578063f00cca7914610dce578063f1aacbb714610de9578063f49307ca14610dfc578063f5f4e77014610e0f578063fa6ef95f14610e2a578063fd1365ea14610e4557600080fd5b8063da699f9614610d5a578063df93572214610d6d578063e49d5ecc14610d80578063edfbc70814610d93578063ee665bed14610a16578063ef856be914610dae57600080fd5b8063d1445c201161012b578063d1445c2014610cc8578063d341b5da14610ce3578063d463fcf614610cfe578063d6e5aed314610d11578063d74baaf814610d2c578063d81971e614610d3f57600080fd5b8063cce1dffc14610c44578063cd97891014610c57578063cd9c320f14610c72578063d042d3ea14610c92578063d0e1567214610cad57600080fd5b8063a91ee0dc1161020b578063bbdc52eb116101c4578063bbdc52eb14610ba2578063be820c1314610bbd578063bf9ca72e14610bd8578063c65858f814610bf3578063c8cb1a7314610c0e578063c915c62014610c2957600080fd5b8063a91ee0dc14610b20578063afd908d914610b33578063b2425d1c14610b46578063b3fe7f5a14610b61578063b8e0889314610b74578063ba542d4d14610b8f57600080fd5b8063949053681161025d5780639490536814610a86578063993e65da14610aa15780639c115fd114610abc5780639cca45fe14610acf578063a3d0fa5f14610aea578063a7c6402c14610b0557600080fd5b806385541e4414610a165780638a80edc614610a2a578063901afc6014610a4557806390e6160514610a60578063919b69d714610a7357600080fd5b8063489b5295116103d6578063683136a411610348578063770788721161030157806377078872146109915780637921b90a146109a45780637c47b3f4146109bf5780637df50ed8146109d2578063845cc96a146109e85780638476fdec14610a0357600080fd5b8063683136a4146108ff5780636d267d7c1461091a5780636faecbc61461092d5780636ff1effb1461094857806374df3b2f146109635780637624c96b1461097657600080fd5b8063508591351161039a5780635085913514610883578063515b6bdc146108985780635adca02e146108b35780635e6502e0146108c657806360925779146108d957806364dd5f80146108ec57600080fd5b8063489b5295146107aa578063493f3874146107bd5780634aa9c62c146107d85780634ad36e02146108505780634f83b52d1461086357600080fd5b806327c24a5d1161046f57806332000b941161043357806332000b94146106ff57806336d8bf931461071a5780633da54f0e1461073e5780633fbd0318146107595780633fc2a56014610774578063435630341461078f57600080fd5b806327c24a5d1461068a57806328c1f99b146106a5578063292ccf02146106b85780632af06b96146106cb5780632de77838146106ec57600080fd5b8063179af4e5116104c1578063179af4e51461060a578063191c194b1461061d5780631a7cb6b214610626578063219c91fa1461064157806324cceb781461065c5780632627a0991461067757600080fd5b8063027a304d146104fe57806305f4b27d1461053c5780630c9d8d5c1461056f5780630ccbc0121461058f57806310b9dd9f146105aa575b600080fd5b61052961050c366004613762565b600360209081526000928352604080842090915290825290205481565b6040519081526020015b60405180910390f35b61055773ca3d9f45ffa69ed454e66539298709cb2db8ca6181565b6040516001600160a01b039091168152602001610533565b61058261057d36600461379b565b610e58565b6040516105339190613833565b61055773abb54222c2b77158cc975a2b715a3d703c256f0581565b6105e56105b8366004613895565b60046020526000908152604090208054600182015460029092015490916001600160a01b03908116911683565b604080519384526001600160a01b039283166020850152911690820152606001610533565b61058261061836600461379b565b610eea565b61052960015481565b610557732b2175ac371ec2900ac39fb87452340f65cc989581565b6105577309ccd0892b696ab21436e51588a7a7f8b649733d81565b610557732ea94b0d3349a284488acf2934e494b2f58ef64781565b61052961068536600461379b565b610f06565b610557737d86446ddb609ed0f5f8684acf30380a356b2b4c81565b600054610557906001600160a01b031681565b6105826106c63660046138b2565b610f84565b6000546106df90600160a01b900460ff1681565b6040516105339190613919565b6105296106fa366004613762565b611048565b61055773d34d466233c5195193df712936049729140dbbd781565b61072e610728366004613895565b50600190565b6040519015158152602001610533565b6105577367c4f788feb82fab27e3007daa3d7b90959d5b8981565b6105577330d9410ed1d5da1f6c8391af5338c93ab8d4035c81565b61055773f403c135812408bfbe8713b5a23a04b3d48aae3181565b6105577311d200ef1409ceca8d6d23e6496550f707772f1181565b6105826107b836600461379b565b611147565b61055773af1d4c576bf55f6ae493aeebacc3a227675e5b9881565b61081b6107e6366004613895565b60056020526000908152604090208054600182015460038301546004909301546001600160a01b039283169391929091169084565b60405161053394939291906001600160a01b039485168152602081019390935292166040820152606081019190915260800190565b61052961085e3660046138b2565b6111c5565b610529610871366004613895565b60026020526000908152604090205481565b610896610891366004613941565b611204565b005b610557737a5dc1fa2e1b10194bd2e2e9f1a224971a68144481565b6105296108c13660046138b2565b61131d565b6105826108d4366004613762565b6113cf565b6105826108e73660046138b2565b6113e9565b6105296108fa36600461379b565b6114d1565b61055773c1c030139eec070ed8fd092cc8c273c638a18bbe81565b610582610928366004613762565b6114e3565b610557738b876c2c02b1f2ac6ec207b7f2f06034a4316a8781565b610557730928f6753880a03628eb0be07b77992c8af3787481565b61058261097136600461379b565b61158e565b6105577336ced690a1516861f26755b978ee62c1157cfff981565b61055761099f366004613895565b6115a9565b610557736b175474e89094c44da98b954eedeac495271d0f81565b6108966109cd366004613994565b611619565b6105826109e0366004613762565b606092915050565b6105577302d784f98a312af3e2771297feff1da8273e4f2981565b61072e610a113660046138b2565b611734565b610529610a243660046139b5565b92915050565b61055773be0f6478e0e4894cfb14f32855603a083a57c7da81565b6105577321cce64289407081744f087950b9db32906470fc81565b610529610a6e36600461379b565b61174f565b610896610a813660046139f6565b6117a5565b6105577359bb786f222d3f0f00b0da31b799fff80d55294081565b61055773d37969740d78c94c648d74671b8be31ef43c30ab81565b610582610aca3660046139f6565b6118d8565b6105577306f4ffa5c3636aaa5c30b3db97bfd1cd9ac24a1981565b610557737e96955b66c89b931bbdaf187740cc0ff2602f2181565b610557737a250d5630b4cf539739df2c5dacb4c659f2488d81565b610896610b2e366004613895565b611a34565b610529610b41366004613762565b611b40565b610557739518c9063eb0262d791f38d8d6eb0aca33c63ed081565b610529610b6f36600461379b565b611bba565b61055773a1c3492b71938e144ad8be4c2fb6810b01a43dd881565b610896610b9d366004613895565b611bf6565b610557730a2ea49eb5f9e23058deffd509d13ddd553c2a1981565b61055773ba723e335ec2939d52a2efca2a8199cb4cb93cc381565b6105577318684099414dcef486f4fa5b4e44e6ea53c8c55481565b6105577323f224c37c3a69a058d86a54d3f561295a93d54281565b6105577333c00bf8cfdf42929e0884d230a55f963221f8f381565b610557737add8d0e923cb692df6bc65d96d510f0e2fc37af81565b610529610c523660046139b5565b611ca7565b61055773e64608e223433e8a03a1daaefd8cb638c14b552c81565b610c85610c803660046139b5565b611d17565b6040516105339190613a22565b6105577332512bee3848bfcbb7beaf647aa697a100f3b70681565b610557733689f325e88c2363274e5f3d44b6dab8f9e1f52481565b61055773912ec00eaebf3820a9b0ac7a5e15f381a1c91f2281565b61055773fb9b2f06fdb404fd3e2278e9a9edc8f252f273d081565b610582610d0c3660046138b2565b611e1b565b6105577374b79021ea6de3f0d1731fb8bdff6ee7df10b8ae81565b610557610d3a366004613762565b611e3a565b6105577347941f99f4371cc26637caedbbd8ba5f4bfe514981565b610896610d68366004613a66565b611e50565b610582610d7b3660046138b2565b611f2a565b61072e610d8e3660046138b2565b6120c4565b610557732e1f902b9067b5fdd7af29ef05d4ff621258838881565b610dc1610dbc366004613762565b6120d2565b6040516105339190613ac3565b61055773e4de776c0ea0974bfa39b8cbb9491091c8cdc1ff81565b610896610df73660046139b5565b61213a565b610582610e0a36600461379b565b6122e6565b6105577315c2471ef46fa721990730cfa526bcfb4557457681565b61055773d7e2b9494c529b42dea53ef6a237c16502e6a92781565b610582610e533660046139f6565b612303565b60606000610e65836115a9565b6040516370a0823160e01b81526001600160a01b03878116600483015291909116906370a0823190602401602060405180830381865afa158015610ead573d6000803e3d6000fd5b505050506040513d601f19601f82011682018060405250810190610ed19190613ad6565b9050610edf85858584611e1b565b9150505b9392505050565b60606000610ef88584611b40565b9050610edf85858584610f84565b600080610f1283612398565b606001516040516370a0823160e01b81526001600160a01b038781166004830152919250908216906370a0823190602401602060405180830381865afa158015610f60573d6000803e3d6000fd5b505050506040513d601f19601f82011682018060405250810190610edf9190613ad6565b60608115611040576040805160028082526060820190925290816020015b6060815260200190600190039081610fa2579050509050610fc38383612303565b600081518110610fd557610fd5613b05565b602002602001015181600081518110610ff057610ff0613b05565b6020026020010181905250611007858585856113e9565b60008151811061101957611019613b05565b60200260200101518160018151811061103457611034613b05565b60200260200101819052505b949350505050565b60008061105484612398565b905080604001516001600160a01b03166370a0823173f403c135812408bfbe8713b5a23a04b3d48aae316001600160a01b0316635ebaf1db6040518163ffffffff1660e01b8152600401602060405180830381865afa1580156110bb573d6000803e3d6000fd5b505050506040513d601f19601f820116820180604052508101906110df9190613b1b565b6040516001600160e01b031960e084901b1681526001600160a01b039091166004820152602401602060405180830381865afa158015611123573d6000803e3d6000fd5b505050506040513d601f19601f820116820180604052508101906110409190613ad6565b6040516370a0823160e01b81526001600160a01b0384811660048301526060916000918516906370a0823190602401602060405180830381865afa158015611193573d6000803e3d6000fd5b505050506040513d601f19601f820116820180604052508101906111b79190613ad6565b9050610edf85858584611f2a565b6000806111d386868661174f565b905060006111e28787876114d1565b9050806111ef8584613b4e565b6111f99190613b6d565b979650505050505050565b60008054906101000a90046001600160a01b03166001600160a01b031663e7f43c686040518163ffffffff1660e01b8152600401602060405180830381865afa158015611255573d6000803e3d6000fd5b505050506040513d601f19601f820116820180604052508101906112799190613b1b565b6001600160a01b0316336001600160a01b0316146112b25760405162461bcd60e51b81526004016112a990613b8f565b60405180910390fd5b604080516060810182529384526001600160a01b03928316602080860191825292841685830190815295841660009081526004909352912092518355516001830180549183166001600160a01b03199283161790559251600290920180549290911691909216179055565b60008061132984612398565b606001516040516370a0823160e01b81526001600160a01b0388811660048301529192506000918316906370a0823190602401602060405180830381865afa158015611379573d6000803e3d6000fd5b505050506040513d601f19601f8201168201806040525081019061139d9190613ad6565b905060006113ac888888610f06565b9050806113b98684613b4e565b6113c39190613b6d565b98975050505050505050565b606060006113dd8484611b40565b90506110408382612303565b60608115611040576001600160a01b0383166000908152600460205260409081902054815160018082528184019093529091816020015b606081526020019060019003908161142057905050604051602481018390526044810185905290925073f403c135812408bfbe8713b5a23a04b3d48aae319060640160408051601f19818403018152918152602080830180516001600160e01b0316630441a3e760e41b179052905161149b93929101613bc6565b604051602081830303815290604052826000815181106114bd576114bd613b05565b602002602001018190525050949350505050565b60006110408383610a2487878761174f565b606060006114f083612398565b60600151604080516001808252818301909252919250816020015b606081526020019060019003908161150b579050506040805160048152602481018252602080820180516001600160e01b0316631e8c5c8960e11b179052915192945061155a92849201613bc6565b6040516020818303038152906040528260008151811061157c5761157c613b05565b60200260200101819052505092915050565b6060600061159d85858561174f565b9050610edf83826118d8565b60006115b482612398565b606001516001600160a01b031663f7c618c16040518163ffffffff1660e01b8152600401602060405180830381865afa1580156115f5573d6000803e3d6000fd5b505050506040513d601f19601f82011682018060405250810190610a249190613b1b565b60008054906101000a90046001600160a01b03166001600160a01b0316637af0e5576040518163ffffffff1660e01b8152600401602060405180830381865afa15801561166a573d6000803e3d6000fd5b505050506040513d601f19601f8201168201806040525081019061168e9190613b1b565b6001600160a01b0316336001600160a01b0316146116be5760405162461bcd60e51b81526004016112a990613bea565b6000805482919060ff60a01b1916600160a01b8360018111156116e3576116e3613903565b02179055506000543390600160a01b900460ff16600181111561170857611708613903565b6040517f68e3b01155b193b02181f2c0ed491c934a74348d211ff023f8fc6ac5edf22aa090600090a350565b600080611742868686610f06565b9092111595945050505050565b600061175c600083611e3a565b6040516370a0823160e01b81526001600160a01b03868116600483015291909116906370a08231906024015b602060405180830381865afa158015611123573d6000803e3d6000fd5b60008054906101000a90046001600160a01b03166001600160a01b0316637af0e5576040518163ffffffff1660e01b8152600401602060405180830381865afa1580156117f6573d6000803e3d6000fd5b505050506040513d601f19601f8201168201806040525081019061181a9190613b1b565b6001600160a01b0316336001600160a01b03161461184a5760405162461bcd60e51b81526004016112a990613bea565b6001600160a01b0382163b61188f5760405162461bcd60e51b815260206004820152600b60248201526a085a5cd0dbdb9d1c9858dd60aa1b60448201526064016112a9565b6001600160a01b03821660009081526002602052604080822083905551339183917fac58e29a41d996caca756d050dce90806b277f0c939337653638329247e16f4c9190a35050565b60608115610a245760006118eb84612398565b60600151905060006118fe600086611e3a565b60408051600280825260608201909252919250816020015b6060815260200190600190039081611916579050506040516001600160a01b038416602482015260448101869052909350819060640160408051601f19818403018152918152602080830180516001600160e01b031663095ea7b360e01b179052905161198593929101613bc6565b604051602081830303815290604052836000815181106119a7576119a7613b05565b602002602001018190525081846040516024016119c691815260200190565b60408051601f19818403018152918152602080830180516001600160e01b031663534a7e1d60e11b17905290516119ff93929101613bc6565b60405160208183030381529060405283600181518110611a2157611a21613b05565b6020026020010181905250505092915050565b60008054906101000a90046001600160a01b03166001600160a01b031663e7f43c686040518163ffffffff1660e01b8152600401602060405180830381865afa158015611a85573d6000803e3d6000fd5b505050506040513d601f19601f82011682018060405250810190611aa99190613b1b565b6001600160a01b0316336001600160a01b031614611ad95760405162461bcd60e51b81526004016112a990613b8f565b6001600160a01b0381163b611b1e5760405162461bcd60e51b815260206004820152600b60248201526a085a5cd0dbdb9d1c9858dd60aa1b60448201526064016112a9565b600080546001600160a01b0319166001600160a01b0392909216919091179055565b6000611b4b82612398565b606001516040516370a0823160e01b81526001600160a01b038581166004830152909116906370a0823190602401602060405180830381865afa158015611b96573d6000803e3d6000fd5b505050506040513d601f19601f82011682018060405250810190610ee39190613ad6565b6000611bc583612398565b606001516040516246613160e11b81526001600160a01b03868116600483015290911690628cc26290602401611788565b60008054906101000a90046001600160a01b03166001600160a01b031663e7f43c686040518163ffffffff1660e01b8152600401602060405180830381865afa158015611c47573d6000803e3d6000fd5b505050506040513d601f19601f82011682018060405250810190611c6b9190613b1b565b6001600160a01b0316336001600160a01b031614611c9b5760405162461bcd60e51b81526004016112a990613b8f565b611ca481612459565b50565b6001600160a01b038083166000908152600460209081526040808320815160608101835281548152600182015486169381019390935260020154909316928101929092529081611cf682612899565b90506000611d0987836040015187612a6c565b905060006113c38483612b29565b6001600160a01b038083166000908152600460209081526040808320815160608181018452825482526001830154871694820194909452600290910154909416908401529190611d6682612899565b9050737a250d5630b4cf539739df2c5dacb4c659f2488d6001600160a01b031663d06ca61f85611d9a898560400151612cb4565b6040518363ffffffff1660e01b8152600401611db7929190613c21565b600060405180830381865afa925050508015611df557506040513d6000823e601f3d908101601f19168201604052611df29190810190613cb8565b60015b611e115750506040805160008152602081019091529050610ee3565b9250610ee3915050565b6060611e3185611e2a856115a9565b8585612e7e565b95945050505050565b6000611e4582612398565b602001519392505050565b60008054906101000a90046001600160a01b03166001600160a01b0316637af0e5576040518163ffffffff1660e01b8152600401602060405180830381865afa158015611ea1573d6000803e3d6000fd5b505050506040513d601f19601f82011682018060405250810190611ec59190613b1b565b6001600160a01b0316336001600160a01b031614611ef55760405162461bcd60e51b81526004016112a990613bea565b6001819055604051339082907f19c60b0612798cc65bd298cd47e17d9fd07e74e0d3baa6c0019411bb334d9bda90600090a350565b60608115611040576001600160a01b038316600090815260046020526040908190205481516002808252606082019093529091816020015b6060815260200190600190039081611f625790505091506000611f91858786611f8c896000611048565b6130dc565b60405173f403c135812408bfbe8713b5a23a04b3d48aae31602482015260448101829052909150869060640160408051601f19818403018152918152602080830180516001600160e01b031663095ea7b360e01b1790529051611ff693929101613bc6565b6040516020818303038152906040528360008151811061201857612018613b05565b602090810291909101015260405160248101839052604481018290526000606482015273f403c135812408bfbe8713b5a23a04b3d48aae319060840160408051601f19818403018152918152602080830180516001600160e01b03166321d0683360e11b179052905161208d93929101613bc6565b604051602081830303815290604052836001815181106120af576120af613b05565b60200260200101819052505050949350505050565b6000806117428686866114d1565b604080516001808252818301909252606091602080830190803683370190505090506120fd83612398565b600001518160008151811061211457612114613b05565b60200260200101906001600160a01b031690816001600160a01b03168152505092915050565b60008054906101000a90046001600160a01b03166001600160a01b0316637af0e5576040518163ffffffff1660e01b8152600401602060405180830381865afa15801561218b573d6000803e3d6000fd5b505050506040513d601f19601f820116820180604052508101906121af9190613b1b565b6001600160a01b0316336001600160a01b0316146121df5760405162461bcd60e51b81526004016112a990613bea565b6001600160a01b0383163b6122365760405162461bcd60e51b815260206004820152601c60248201527f215f6c6971756964697479506f6f6c2e6973436f6e747261637428290000000060448201526064016112a9565b6001600160a01b0382163b61228d5760405162461bcd60e51b815260206004820152601e60248201527f215f756e6465726c79696e67546f6b656e2e6973436f6e74726163742829000060448201526064016112a9565b6001600160a01b03838116600090815260036020908152604080832093861683529290528181208390559051339183917f197807a6a2633dd9bde6550aca985cfc69e655e9130930314c0e9da01a75cc549190a3505050565b606060006122f585858561174f565b9050610edf858585846113e9565b60608115610a2457600061231684612398565b60600151604080516001808252818301909252919250816020015b6060815260200190600190039081612331579050506040516024810185905260016044820152909250819060640160408051601f19818403018152918152602080830180516001600160e01b0316631c683a1b60e11b179052905161155a93929101613bc6565b6040805160c081018252600080825260208201819052918101829052606081018290526080810182905260a08101919091526001600160a01b038216600090815260046020819052604091829020549151631526fe2760e01b815290810182905273f403c135812408bfbe8713b5a23a04b3d48aae3190631526fe279060240160c060405180830381865afa158015612435573d6000803e3d6000fd5b505050506040513d601f19601f82011682018060405250810190610ee39190613d52565b6001600160a01b038082166000908152600460209081526040918290208251606081018452815481526001820154851692810183905260029091015490931691830191909152806124d45760405162461bcd60e51b815260206004820152600560248201526405f737761760dc1b60448201526064016112a9565b604051631c0615f760e31b81526001600160a01b038216600482015260009073e64608e223433e8a03a1daaefd8cb638c14b552c9063e030afb89060240161040060405180830381865afa158015612530573d6000803e3d6000fd5b505050506040513d601f19601f820116820180604052508101906125549190613e84565b905060008060005b60088110156125e8578351600090826008811061257b5761257b613b05565b60200201516001600160a01b03161461259c578261259881613f09565b9350505b602084015160009082600881106125b5576125b5613b05565b60200201516001600160a01b0316146125d657816125d281613f09565b9250505b806125e081613f09565b91505061255c565b5060008267ffffffffffffffff81111561260457612604613aef565b60405190808252806020026020018201604052801561262d578160200160208202803683370190505b50905060008267ffffffffffffffff81111561264b5761264b613aef565b604051908082528060200260200182016040528015612674578160200160208202803683370190505b50905060006040518060c0016040528060006001600160a01b031681526020016000815260200184815260200160006001600160a01b03168152602001600081526020018381525090506126c88682613154565b60008160400151511161270c5760405162461bcd60e51b815260206004820152600c60248201526b0c6ded2dce65cd8cadccee8d60a31b60448201526064016112a9565b60008160a00151511161275a5760405162461bcd60e51b81526020600482015260166024820152750eadcc8cae4d8f2d2dcce86ded2dce65cd8cadccee8d60531b60448201526064016112a9565b80516001600160a01b031661279b5760405162461bcd60e51b815260206004820152600760248201526631b7b4b72932b360c91b60448201526064016112a9565b60608101516001600160a01b03166127e95760405162461bcd60e51b81526020600482015260116024820152703ab73232b9363cb4b733a1b7b4b72932b360791b60448201526064016112a9565b6001600160a01b03878116600090815260056020908152604091829020845181546001600160a01b031916941693909317835583810151600184015590830151805184939261283f926002850192910190613679565b5060608201516003820180546001600160a01b0319166001600160a01b039092169190911790556080820151600482015560a0820151805161288b916005840191602090910190613679565b505050505050505050505050565b6040805160808101825260008082526020820181905291810182905260608101919091526020808301516001600160a01b039081166000908152600583526040808220815160c08101835281549094168452600181015484860152600281018054835181880281018801855281815294969294938601939283018282801561294a57602002820191906000526020600020905b81546001600160a01b0316815260019091019060200180831161292c575b505050505081526020016003820160009054906101000a90046001600160a01b03166001600160a01b03166001600160a01b0316815260200160048201548152602001600582018054806020026020016040519081016040528092919081815260200182805480156129e557602002820191906000526020600020905b81546001600160a01b031681526001909101906020018083116129c7575b5050509190925250506040805160808082018352878301516001600160a01b0390811680845260a087015151602085015260608088015190921694840194909452908501519082015292935015159050610ee3576020938401516001600160a01b039081168252604083810151518387015283519091169082015292015160608301525090565b6000737a250d5630b4cf539739df2c5dacb4c659f2488d63d06ca61f83612a938787612cb4565b6040518363ffffffff1660e01b8152600401612ab0929190613c21565b600060405180830381865afa925050508015612aee57506040513d6000823e601f3d908101601f19168201604052612aeb9190810190613cb8565b60015b612afa57506000610ee3565b8060018251612b099190613f24565b81518110612b1957612b19613b05565b6020026020010151915050610ee3565b600080612b3584612899565b9050806020015160021415612be457612b4c6136de565b8381836060015160028110612b6357612b63613b05565b6020020152815160405163ed8e84f360e01b81526001600160a01b039091169063ed8e84f390612b9a908490600190600401613f64565b602060405180830381865afa158015612bb7573d6000803e3d6000fd5b505050506040513d601f19601f82011682018060405250810190612bdb9190613ad6565b92505050610a24565b806020015160031415612c4757612bf96136fc565b8381836060015160038110612c1057612c10613b05565b60200201528151604051633883e11960e01b81526001600160a01b0390911690633883e11990612b9a908490600190600401613fa4565b806020015160041415612caa57612c5c61371a565b8381836060015160048110612c7357612c73613b05565b6020020152815160405163cf701ff760e01b81526001600160a01b039091169063cf701ff790612b9a908490600190600401613fe4565b5060009392505050565b60606001600160a01b038316612cfc5760405162461bcd60e51b815260206004820152600d60248201526c2fb4b734ba34b0b62a37b5b2b760991b60448201526064016112a9565b6001600160a01b038216612d405760405162461bcd60e51b815260206004820152600b60248201526a2fb334b730b62a37b5b2b760a91b60448201526064016112a9565b6000737a250d5630b4cf539739df2c5dacb4c659f2488d6001600160a01b031663ad5c46486040518163ffffffff1660e01b8152600401602060405180830381865afa158015612d94573d6000803e3d6000fd5b505050506040513d601f19601f82011682018060405250810190612db89190613b1b565b60408051600380825260808201909252919250602082016060803683370190505091508382600081518110612def57612def613b05565b60200260200101906001600160a01b031690816001600160a01b0316815250508082600181518110612e2357612e23613b05565b60200260200101906001600160a01b031690816001600160a01b0316815250508282600281518110612e5757612e57613b05565b60200260200101906001600160a01b031690816001600160a01b0316815250505092915050565b60608115611040576001600160a01b03808416600090815260046020908152604080832081516060810183528154815260018201548616938101939093526002015490931692810192909252612ed382612899565b90506000612ee687836040015187612a6c565b905080156130d15760408051600480825260a0820190925290816020015b6060815260200190600190039081612f0457905050604051737a250d5630b4cf539739df2c5dacb4c659f2488d602482015260448101879052909450879060640160408051601f19818403018152918152602080830180516001600160e01b031663095ea7b360e01b1790529051612f7e93929101613bc6565b60405160208183030381529060405284600081518110612fa057612fa0613b05565b6020026020010181905250737a250d5630b4cf539739df2c5dacb4c659f2488d856000612fd18a8660400151612cb4565b8b600019604051602401612fe9959493929190614001565b60408051601f19818403018152918152602080830180516001600160e01b03166338ed173960e01b179052905161302293929101613bc6565b6040516020818303038152906040528460018151811061304457613044613b05565b6020026020010181905250600061305b8783613329565b90508060008151811061307057613070613b05565b60200260200101518560028151811061308b5761308b613b05565b6020026020010181905250806001815181106130a9576130a9613b05565b6020026020010151856003815181106130c4576130c4613b05565b6020026020010181905250505b505050949350505050565b6000806001600054600160a01b900460ff1660018111156130ff576130ff613903565b1461312f576001600160a01b03808716600090815260036020908152604080832093891683529290522054613139565b6131398684613622565b9050808411613148578361314a565b805b9695505050505050565b60008060005b6008811015613322578451600090826008811061317957613179613b05565b60200201516001600160a01b03161461321357826131bf57845181600881106131a4576131a4613b05565b602090810291909101516001600160a01b0316855284018190525b845181600881106131d2576131d2613b05565b6020020151846040015184815181106131ed576131ed613b05565b6001600160a01b03909216602092830291909101909101528261320f81613f09565b9350505b6020850151600090826008811061322c5761322c613b05565b60200201516001600160a01b0316146133105781158061328357506020850151736b175474e89094c44da98b954eedeac495271d0f90826008811061327357613273613b05565b60200201516001600160a01b0316145b156132b9578460200151816008811061329e5761329e613b05565b60200201516001600160a01b03166060850152608084018190525b846020015181600881106132cf576132cf613b05565b60200201518460a0015183815181106132ea576132ea613b05565b6001600160a01b03909216602092830291909101909101528161330c81613f09565b9250505b8061331a81613f09565b91505061315a565b5050505050565b60608115610a24576040805160028082526060820190925290816020015b60608152602001906001900390816133475750506001600160a01b03848116600090815260046020908152604080832081516060810183528154815260018201548616938101939093526002015490931692810192909252919250906133ac82612899565b604080820151825191516001600160a01b0390921660248301526044820187905291925060640160408051601f19818403018152918152602080830180516001600160e01b031663095ea7b360e01b179052905161340c93929101613bc6565b6040516020818303038152906040528360008151811061342e5761342e613b05565b60200260200101819052508060200151600214156134ec5761344e6136de565b848183606001516002811061346557613465613b05565b6020020152815160405161348090839060009060240161403d565b60408051601f19818403018152918152602080830180516001600160e01b0316630b4c7e4d60e01b17905290516134b993929101613bc6565b604051602081830303815290604052846001815181106134db576134db613b05565b60200260200101819052505061361a565b80602001516003141561356c576135016136fc565b848183606001516003811061351857613518613b05565b60200201528151604051613533908390600090602401614058565b60408051601f19818403018152918152602080830180516001600160e01b0316634515cef360e01b17905290516134b993929101613bc6565b80602001516004141561361a5761358161371a565b848183606001516004811061359857613598613b05565b602002015281516040516135b3908390600090602401614073565b60408051601f19818403018152918152602080830180516001600160e01b031662a6cbcd60e21b17905290516135eb93929101613bc6565b6040516020818303038152906040528460018151811061360d5761360d613b05565b6020026020010181905250505b505092915050565b6001600160a01b03821660009081526002602052604081205481811561365e5761271061364f8386613b4e565b6136599190613b6d565b611e31565b6127106001548561366f9190613b4e565b611e319190613b6d565b8280548282559060005260206000209081019282156136ce579160200282015b828111156136ce57825182546001600160a01b0319166001600160a01b03909116178255602090920191600190910190613699565b506136da929150613738565b5090565b60405180604001604052806002906020820280368337509192915050565b60405180606001604052806003906020820280368337509192915050565b60405180608001604052806004906020820280368337509192915050565b5b808211156136da5760008155600101613739565b6001600160a01b0381168114611ca457600080fd5b6000806040838503121561377557600080fd5b82356137808161374d565b915060208301356137908161374d565b809150509250929050565b6000806000606084860312156137b057600080fd5b83356137bb8161374d565b925060208401356137cb8161374d565b915060408401356137db8161374d565b809150509250925092565b6000815180845260005b8181101561380c576020818501810151868301820152016137f0565b8181111561381e576000602083870101525b50601f01601f19169290920160200192915050565b6000602080830181845280855180835260408601915060408160051b870101925083870160005b8281101561388857603f198886030184526138768583516137e6565b9450928501929085019060010161385a565b5092979650505050505050565b6000602082840312156138a757600080fd5b8135610ee38161374d565b600080600080608085870312156138c857600080fd5b84356138d38161374d565b935060208501356138e38161374d565b925060408501356138f38161374d565b9396929550929360600135925050565b634e487b7160e01b600052602160045260246000fd5b602081016002831061393b57634e487b7160e01b600052602160045260246000fd5b91905290565b6000806000806080858703121561395757600080fd5b84356139628161374d565b93506020850135925060408501356139798161374d565b915060608501356139898161374d565b939692955090935050565b6000602082840312156139a657600080fd5b813560028110610ee357600080fd5b6000806000606084860312156139ca57600080fd5b83356139d58161374d565b925060208401356139e58161374d565b929592945050506040919091013590565b60008060408385031215613a0957600080fd5b8235613a148161374d565b946020939093013593505050565b6020808252825182820181905260009190848201906040850190845b81811015613a5a57835183529284019291840191600101613a3e565b50909695505050505050565b600060208284031215613a7857600080fd5b5035919050565b600081518084526020808501945080840160005b83811015613ab85781516001600160a01b031687529582019590820190600101613a93565b509495945050505050565b602081526000610ee36020830184613a7f565b600060208284031215613ae857600080fd5b5051919050565b634e487b7160e01b600052604160045260246000fd5b634e487b7160e01b600052603260045260246000fd5b600060208284031215613b2d57600080fd5b8151610ee38161374d565b634e487b7160e01b600052601160045260246000fd5b6000816000190483118215151615613b6857613b68613b38565b500290565b600082613b8a57634e487b7160e01b600052601260045260246000fd5b500490565b6020808252601a908201527f63616c6c6572206973206e6f7420746865206f70657261746f72000000000000604082015260600190565b6001600160a01b0383168152604060208201819052600090611040908301846137e6565b6020808252601e908201527f63616c6c6572206973206e6f7420746865207269736b4f70657261746f720000604082015260600190565b8281526040602082015260006110406040830184613a7f565b60405160c0810167ffffffffffffffff81118282101715613c5d57613c5d613aef565b60405290565b604051610100810167ffffffffffffffff81118282101715613c5d57613c5d613aef565b604051601f8201601f1916810167ffffffffffffffff81118282101715613cb057613cb0613aef565b604052919050565b60006020808385031215613ccb57600080fd5b825167ffffffffffffffff80821115613ce357600080fd5b818501915085601f830112613cf757600080fd5b815181811115613d0957613d09613aef565b8060051b9150613d1a848301613c87565b8181529183018401918481019088841115613d3457600080fd5b938501935b838510156113c357845182529385019390850190613d39565b600060c08284031215613d6457600080fd5b613d6c613c3a565b8251613d778161374d565b81526020830151613d878161374d565b60208201526040830151613d9a8161374d565b60408201526060830151613dad8161374d565b60608201526080830151613dc08161374d565b608082015260a08301518015158114613dd857600080fd5b60a08201529392505050565b600082601f830112613df557600080fd5b613dfd613c63565b80610100840185811115613e1057600080fd5b845b81811015613e33578051613e258161374d565b845260209384019301613e12565b509095945050505050565b600082601f830112613e4f57600080fd5b613e57613c63565b80610100840185811115613e6a57600080fd5b845b81811015613e33578051845260209384019301613e6c565b60006104008284031215613e9757600080fd5b6040516080810181811067ffffffffffffffff82111715613eba57613eba613aef565b604052613ec78484613de4565b8152613ed7846101008501613de4565b6020820152613eea846102008501613e3e565b6040820152613efd846103008501613e3e565b60608201529392505050565b6000600019821415613f1d57613f1d613b38565b5060010190565b600082821015613f3657613f36613b38565b500390565b8060005b6002811015613f5e578151845260209384019390910190600101613f3f565b50505050565b60608101613f728285613f3b565b82151560408301529392505050565b8060005b6003811015613f5e578151845260209384019390910190600101613f85565b60808101613fb28285613f81565b82151560608301529392505050565b8060005b6004811015613f5e578151845260209384019390910190600101613fc5565b60a08101613ff28285613fc1565b82151560808301529392505050565b85815284602082015260a06040820152600061402060a0830186613a7f565b6001600160a01b0394909416606083015250608001529392505050565b6060810161404b8285613f3b565b8260408301529392505050565b608081016140668285613f81565b8260608301529392505050565b60a081016140818285613fc1565b826080830152939250505056fea264697066735822122053b4c55aa10f2a153baa55d61c79b0ae3fa82359dc65fe312e6401d64355ecb164736f6c634300080b0033"
}