{
    "contractName": "OPTYMinter",
    "abi": [
        {
            "inputs": [
                {
                    "internalType": "address",
                    "name": "_registry",
                    "type": "address"
                },
                {
                    "internalType": "address",
                    "name": "_opty",
                    "type": "address"
                }
            ],
            "stateMutability": "nonpayable",
            "type": "constructor"
        },
        {
            "inputs": [
                {
                    "internalType": "address",
                    "name": "_optyVault",
                    "type": "address"
                }
            ],
            "name": "addOptyVault",
            "outputs": [
                {
                    "internalType": "bool",
                    "name": "",
                    "type": "bool"
                }
            ],
            "stateMutability": "nonpayable",
            "type": "function"
        },
        {
            "inputs": [
                {
                    "internalType": "uint256",
                    "name": "",
                    "type": "uint256"
                }
            ],
            "name": "allOptyVaults",
            "outputs": [
                {
                    "internalType": "address",
                    "name": "",
                    "type": "address"
                }
            ],
            "stateMutability": "view",
            "type": "function"
        },
        {
            "inputs": [
                {
                    "internalType": "address",
                    "name": "_holder",
                    "type": "address"
                },
                {
                    "internalType": "address",
                    "name": "_stakingPool",
                    "type": "address"
                }
            ],
            "name": "claimAndStake",
            "outputs": [],
            "stateMutability": "nonpayable",
            "type": "function"
        },
        {
            "inputs": [
                {
                    "internalType": "address[]",
                    "name": "_holders",
                    "type": "address[]"
                },
                {
                    "internalType": "address[]",
                    "name": "_optyVaults",
                    "type": "address[]"
                }
            ],
            "name": "claimOpty",
            "outputs": [
                {
                    "internalType": "uint256",
                    "name": "",
                    "type": "uint256"
                }
            ],
            "stateMutability": "nonpayable",
            "type": "function"
        },
        {
            "inputs": [
                {
                    "internalType": "address",
                    "name": "_holder",
                    "type": "address"
                }
            ],
            "name": "claimOpty",
            "outputs": [
                {
                    "internalType": "uint256",
                    "name": "",
                    "type": "uint256"
                }
            ],
            "stateMutability": "nonpayable",
            "type": "function"
        },
        {
            "inputs": [
                {
                    "internalType": "address",
                    "name": "_holder",
                    "type": "address"
                },
                {
                    "internalType": "address[]",
                    "name": "_optyVaults",
                    "type": "address[]"
                }
            ],
            "name": "claimOpty",
            "outputs": [
                {
                    "internalType": "uint256",
                    "name": "",
                    "type": "uint256"
                }
            ],
            "stateMutability": "nonpayable",
            "type": "function"
        },
        {
            "inputs": [
                {
                    "internalType": "address",
                    "name": "_holder",
                    "type": "address"
                },
                {
                    "internalType": "address[]",
                    "name": "_optyVaults",
                    "type": "address[]"
                }
            ],
            "name": "claimableOpty",
            "outputs": [
                {
                    "internalType": "uint256",
                    "name": "",
                    "type": "uint256"
                }
            ],
            "stateMutability": "view",
            "type": "function"
        },
        {
            "inputs": [
                {
                    "internalType": "address",
                    "name": "_holder",
                    "type": "address"
                }
            ],
            "name": "claimableOpty",
            "outputs": [
                {
                    "internalType": "uint256",
                    "name": "",
                    "type": "uint256"
                }
            ],
            "stateMutability": "view",
            "type": "function"
        },
        {
            "inputs": [
                {
                    "internalType": "address",
                    "name": "_optyVault",
                    "type": "address"
                }
            ],
            "name": "currentOptyVaultIndex",
            "outputs": [
                {
                    "internalType": "uint256",
                    "name": "",
                    "type": "uint256"
                }
            ],
            "stateMutability": "view",
            "type": "function"
        },
        {
            "inputs": [],
            "name": "getBlockTimestamp",
            "outputs": [
                {
                    "internalType": "uint256",
                    "name": "",
                    "type": "uint256"
                }
            ],
            "stateMutability": "view",
            "type": "function"
        },
        {
            "inputs": [],
            "name": "getOptyAddress",
            "outputs": [
                {
                    "internalType": "address",
                    "name": "",
                    "type": "address"
                }
            ],
            "stateMutability": "view",
            "type": "function"
        },
        {
            "inputs": [
                {
                    "internalType": "address",
                    "name": "",
                    "type": "address"
                },
                {
                    "internalType": "address",
                    "name": "",
                    "type": "address"
                }
            ],
            "name": "lastUserUpdate",
            "outputs": [
                {
                    "internalType": "uint256",
                    "name": "",
                    "type": "uint256"
                }
            ],
            "stateMutability": "view",
            "type": "function"
        },
        {
            "inputs": [
                {
                    "internalType": "address",
                    "name": "_user",
                    "type": "address"
                },
                {
                    "internalType": "uint256",
                    "name": "_amount",
                    "type": "uint256"
                }
            ],
            "name": "mintOpty",
            "outputs": [
                {
                    "internalType": "uint256",
                    "name": "",
                    "type": "uint256"
                }
            ],
            "stateMutability": "nonpayable",
            "type": "function"
        },
        {
            "inputs": [
                {
                    "internalType": "address",
                    "name": "",
                    "type": "address"
                }
            ],
            "name": "optyAccrued",
            "outputs": [
                {
                    "internalType": "uint256",
                    "name": "",
                    "type": "uint256"
                }
            ],
            "stateMutability": "view",
            "type": "function"
        },
        {
            "inputs": [],
            "name": "optyAddress",
            "outputs": [
                {
                    "internalType": "address",
                    "name": "",
                    "type": "address"
                }
            ],
            "stateMutability": "view",
            "type": "function"
        },
        {
            "inputs": [],
            "name": "optyTotalRate",
            "outputs": [
                {
                    "internalType": "uint256",
                    "name": "",
                    "type": "uint256"
                }
            ],
            "stateMutability": "view",
            "type": "function"
        },
        {
            "inputs": [
                {
                    "internalType": "address",
                    "name": "",
                    "type": "address"
                },
                {
                    "internalType": "address",
                    "name": "",
                    "type": "address"
                }
            ],
            "name": "optyUserStateInVault",
            "outputs": [
                {
                    "internalType": "uint224",
                    "name": "index",
                    "type": "uint224"
                },
                {
                    "internalType": "uint32",
                    "name": "timestamp",
                    "type": "uint32"
                }
            ],
            "stateMutability": "view",
            "type": "function"
        },
        {
            "inputs": [
                {
                    "internalType": "address",
                    "name": "",
                    "type": "address"
                }
            ],
            "name": "optyVaultEnabled",
            "outputs": [
                {
                    "internalType": "bool",
                    "name": "",
                    "type": "bool"
                }
            ],
            "stateMutability": "view",
            "type": "function"
        },
        {
            "inputs": [
                {
                    "internalType": "address",
                    "name": "",
                    "type": "address"
                }
            ],
            "name": "optyVaultRatePerSecond",
            "outputs": [
                {
                    "internalType": "uint256",
                    "name": "",
                    "type": "uint256"
                }
            ],
            "stateMutability": "view",
            "type": "function"
        },
        {
            "inputs": [
                {
                    "internalType": "address",
                    "name": "",
                    "type": "address"
                }
            ],
            "name": "optyVaultRatePerSecondAndVaultToken",
            "outputs": [
                {
                    "internalType": "uint256",
                    "name": "",
                    "type": "uint256"
                }
            ],
            "stateMutability": "view",
            "type": "function"
        },
        {
            "inputs": [
                {
                    "internalType": "address",
                    "name": "",
                    "type": "address"
                }
            ],
            "name": "optyVaultStartTimestamp",
            "outputs": [
                {
                    "internalType": "uint256",
                    "name": "",
                    "type": "uint256"
                }
            ],
            "stateMutability": "view",
            "type": "function"
        },
        {
            "inputs": [
                {
                    "internalType": "address",
                    "name": "",
                    "type": "address"
                }
            ],
            "name": "optyVaultState",
            "outputs": [
                {
                    "internalType": "uint224",
                    "name": "index",
                    "type": "uint224"
                },
                {
                    "internalType": "uint32",
                    "name": "timestamp",
                    "type": "uint32"
                }
            ],
            "stateMutability": "view",
            "type": "function"
        },
        {
            "inputs": [],
            "name": "registryContract",
            "outputs": [
                {
                    "internalType": "contract Registry",
                    "name": "",
                    "type": "address"
                }
            ],
            "stateMutability": "view",
            "type": "function"
        },
        {
            "inputs": [
                {
                    "internalType": "address",
                    "name": "_optyVault",
                    "type": "address"
                },
                {
                    "internalType": "bool",
                    "name": "_enable",
                    "type": "bool"
                }
            ],
            "name": "setOptyVault",
            "outputs": [
                {
                    "internalType": "bool",
                    "name": "",
                    "type": "bool"
                }
            ],
            "stateMutability": "nonpayable",
            "type": "function"
        },
        {
            "inputs": [
                {
                    "internalType": "address",
                    "name": "_optyVault",
                    "type": "address"
                },
                {
                    "internalType": "uint256",
                    "name": "_rate",
                    "type": "uint256"
                }
            ],
            "name": "setOptyVaultRate",
            "outputs": [
                {
                    "internalType": "bool",
                    "name": "",
                    "type": "bool"
                }
            ],
            "stateMutability": "nonpayable",
            "type": "function"
        },
        {
            "inputs": [
                {
                    "internalType": "address",
                    "name": "_registry",
                    "type": "address"
                }
            ],
            "name": "setRegistry",
            "outputs": [],
            "stateMutability": "nonpayable",
            "type": "function"
        },
        {
            "inputs": [
                {
                    "internalType": "address",
                    "name": "_stakingPool",
                    "type": "address"
                },
                {
                    "internalType": "bool",
                    "name": "_enable",
                    "type": "bool"
                }
            ],
            "name": "setStakingPool",
            "outputs": [
                {
                    "internalType": "bool",
                    "name": "",
                    "type": "bool"
                }
            ],
            "stateMutability": "nonpayable",
            "type": "function"
        },
        {
            "inputs": [
                {
                    "internalType": "address",
                    "name": "",
                    "type": "address"
                }
            ],
            "name": "stakingPools",
            "outputs": [
                {
                    "internalType": "bool",
                    "name": "",
                    "type": "bool"
                }
            ],
            "stateMutability": "view",
            "type": "function"
        },
        {
            "inputs": [
                {
                    "internalType": "address",
                    "name": "_optyVault",
                    "type": "address"
                }
            ],
            "name": "updateOptyVaultIndex",
            "outputs": [
                {
                    "internalType": "uint224",
                    "name": "",
                    "type": "uint224"
                }
            ],
            "stateMutability": "nonpayable",
            "type": "function"
        },
        {
            "inputs": [
                {
                    "internalType": "address",
                    "name": "_optyVault",
                    "type": "address"
                }
            ],
            "name": "updateOptyVaultRatePerSecondAndVaultToken",
            "outputs": [
                {
                    "internalType": "bool",
                    "name": "",
                    "type": "bool"
                }
            ],
            "stateMutability": "nonpayable",
            "type": "function"
        },
        {
            "inputs": [
                {
                    "internalType": "address",
                    "name": "_optyVault",
                    "type": "address"
                },
                {
                    "internalType": "address",
                    "name": "_user",
                    "type": "address"
                }
            ],
            "name": "updateUserRewards",
            "outputs": [],
            "stateMutability": "nonpayable",
            "type": "function"
        },
        {
            "inputs": [
                {
                    "internalType": "address",
                    "name": "_optyVault",
                    "type": "address"
                },
                {
                    "internalType": "address",
                    "name": "_user",
                    "type": "address"
                }
            ],
            "name": "updateUserStateInVault",
            "outputs": [],
            "stateMutability": "nonpayable",
            "type": "function"
        }
    ],
    "bytecode": "608060405234801561001057600080fd5b5060405162002616380380620026168339818101604052604081101561003557600080fd5b508051602090910151600c80546001600160a01b0319166001600160a01b03841617905561006281610069565b50506100d8565b6001600160a01b0381166100b6576040805162461bcd60e51b815260206004820152600f60248201526e496e76616c6964206164647265737360881b604482015290519081900360640190fd5b600180546001600160a01b0319166001600160a01b0392909216919091179055565b61252e80620000e86000396000f3fe608060405234801561001057600080fd5b50600436106101f05760003560e01c80637fb111fb1161010f578063ad3f9413116100a2578063e1131ca611610071578063e1131ca61461084f578063e65fea5814610875578063e94e7fa51461089b578063fa514e77146108c7576101f0565b8063ad3f94131461074a578063ad935e97146107fb578063ce546ead14610821578063cea80e4c14610829576101f0565b8063a0f8743f116100de578063a0f8743f1461069a578063a41a837b146106c8578063a91ee0dc146106f6578063ad0ac0851461071c576101f0565b80637fb111fb146106025780638127a24d1461062857806397633de91461064e578063a002032814610674576101f0565b80636cd9af6d11610187578063786935f111610156578063786935f1146105c457806379009dcb146105cc578063796b89b9146105f25780637c199fe6146105fa576101f0565b80636cd9af6d146105065780636d95f3a1146105405780636e7ed949146105665780637225331614610596576101f0565b80634e9b1f34116101c35780634e9b1f34146102ef5780634ee472c71461031557806353c787b5146104385780635a1522cc14610455576101f0565b80630dd1a305146101f557806318d884f11461023757806328c1f99b1461028d5780634af3d900146102b1575b600080fd5b61021b6004803603602081101561020b57600080fd5b50356001600160a01b03166108f5565b604080516001600160e01b039092168252519081900360200190f35b6102656004803603604081101561024d57600080fd5b506001600160a01b0381358116916020013516610c4b565b604080516001600160e01b03909316835263ffffffff90911660208301528051918290030190f35b610295610c80565b604080516001600160a01b039092168252519081900360200190f35b6102dd600480360360408110156102c757600080fd5b506001600160a01b038135169060200135610c8f565b60408051918252519081900360200190f35b6102dd6004803603602081101561030557600080fd5b50356001600160a01b0316610d09565b6102dd6004803603604081101561032b57600080fd5b810190602081018135600160201b81111561034557600080fd5b82018360208201111561035757600080fd5b803590602001918460208302840111600160201b8311171561037857600080fd5b9190808060200260200160405190810160405280939291908181526020018383602002808284376000920191909152509295949360208101935035915050600160201b8111156103c757600080fd5b8201836020820111156103d957600080fd5b803590602001918460208302840111600160201b831117156103fa57600080fd5b919080806020026020016040519081016040528093929190818152602001838360200280828437600092019190915250929550610e90945050505050565b6102956004803603602081101561044e57600080fd5b5035611023565b6102dd6004803603604081101561046b57600080fd5b6001600160a01b038235169190810190604081016020820135600160201b81111561049557600080fd5b8201836020820111156104a757600080fd5b803590602001918460208302840111600160201b831117156104c857600080fd5b91908080602002602001604051908101604052809392919081815260200183836020028082843760009201919091525092955061104a945050505050565b61052c6004803603602081101561051c57600080fd5b50356001600160a01b0316611329565b604080519115158252519081900360200190f35b6102dd6004803603602081101561055657600080fd5b50356001600160a01b03166114cd565b6105946004803603604081101561057c57600080fd5b506001600160a01b03813581169160200135166114df565b005b61052c600480360360408110156105ac57600080fd5b506001600160a01b0381351690602001351515611807565b6102956118f1565b6102dd600480360360208110156105e257600080fd5b50356001600160a01b0316611900565b6102dd61196c565b6102dd611970565b6102dd6004803603602081101561061857600080fd5b50356001600160a01b0316611976565b61052c6004803603602081101561063e57600080fd5b50356001600160a01b0316611988565b61052c6004803603602081101561066457600080fd5b50356001600160a01b031661199d565b6102dd6004803603602081101561068a57600080fd5b50356001600160a01b0316611acb565b610594600480360360408110156106b057600080fd5b506001600160a01b0381358116916020013516611add565b610594600480360360408110156106de57600080fd5b506001600160a01b0381358116916020013516611bc0565b6105946004803603602081101561070c57600080fd5b50356001600160a01b0316611c27565b6102dd6004803603604081101561073257600080fd5b506001600160a01b0381358116916020013516611d0d565b6102dd6004803603604081101561076057600080fd5b6001600160a01b038235169190810190604081016020820135600160201b81111561078a57600080fd5b82018360208201111561079c57600080fd5b803590602001918460208302840111600160201b831117156107bd57600080fd5b919080806020026020016040519081016040528093929190818152602001838360200280828437600092019190915250929550611d2a945050505050565b61052c6004803603602081101561081157600080fd5b50356001600160a01b0316611d88565b610295611d9d565b6102656004803603602081101561083f57600080fd5b50356001600160a01b0316611dac565b6102dd6004803603602081101561086557600080fd5b50356001600160a01b0316611dd6565b6102dd6004803603602081101561088b57600080fd5b50356001600160a01b0316611de8565b61052c600480360360408110156108b157600080fd5b506001600160a01b038135169060200135611e54565b61052c600480360360408110156108dd57600080fd5b506001600160a01b0381351690602001351515611f30565b6001600160a01b0381166000908152600960205260408120546001600160e01b03166109905761092361196c565b6001600160a01b03831660009081526002602090815260408083208490556009808352818420805463ffffffff909616600160e01b026001600160e01b039687161780825560078552929094205492529083166001600160e01b0319919091161790819055169050610c46565b60006109c861099d61196c565b6001600160a01b038516600090815260096020526040902054600160e01b900463ffffffff16612067565b90508015610c215760006109fb6109dd61196c565b6001600160a01b038616600090815260026020526040902054612067565b90506000846001600160a01b03166318160ddd6040518163ffffffff1660e01b815260040160206040518083038186803b158015610a3857600080fd5b505afa158015610a4c573d6000803e3d6000fd5b505050506040513d6020811015610a6257600080fd5b50516001600160a01b03861660009081526006602052604081205491925090610a8c9085906120a8565b90506000808311610a9e576000610ab9565b610ab9610ab383670de0b6b3a76400006120a8565b846120ea565b6001600160a01b03881660009081526009602090815260408083205460029092528220549293509091610b2191610b1b91610b15916001600160e01b03811691610b1091600160e01b900463ffffffff1690612067565b6120a8565b8461211d565b866120ea565b90506040518060400160405280610b6d836040518060400160405280601a81526020017f6e657720696e6465782065786365656473203232342062697473000000000000815250612153565b6001600160e01b03168152602001610bc1610b8661196c565b6040518060400160405280601c81526020017f626c6f636b206e756d62657220657863656564732033322062697473000000008152506121ed565b63ffffffff9081169091526001600160a01b038a166000908152600960209081526040909120835181549490920151909216600160e01b026001600160e01b039182166001600160e01b0319909416939093171691909117905550505050505b50506001600160a01b0381166000908152600960205260409020546001600160e01b03165b919050565b600a6020908152600092835260408084209091529082529020546001600160e01b03811690600160e01b900463ffffffff1682565b600c546001600160a01b031681565b3360009081526020819052604081205460ff161515600114610cf8576040805162461bcd60e51b815260206004820152601c60248201527f63616c6c6572206973206e6f742061207374616b696e6720706f6f6c00000000604482015290519081900360640190fd5b610d028383612242565b5092915050565b600080610d35610d1761196c565b6001600160a01b038516600090815260026020526040902054612067565b90506000610d6f610d4461196c565b6001600160a01b038616600090815260096020526040902054600160e01b900463ffffffff16612067565b90506000846001600160a01b03166318160ddd6040518163ffffffff1660e01b815260040160206040518083038186803b158015610dac57600080fd5b505afa158015610dc0573d6000803e3d6000fd5b505050506040513d6020811015610dd657600080fd5b50516001600160a01b03861660009081526006602052604081205491925090610e009084906120a8565b90506000808311610e12576000610e27565b610e27610ab383670de0b6b3a76400006120a8565b6001600160a01b03881660009081526009602090815260408083205460029092528220549293509091610e8491610e7e91610b15916001600160e01b03811691610b1091600160e01b900463ffffffff1690612067565b876120ea565b98975050505050505050565b600080805b835181101561101b576000848281518110610eac57fe5b6020908102919091018101516001600160a01b0381166000908152600490925260409091205490915060ff16610f29576040805162461bcd60e51b815260206004820152601960248201527f6f7074795661756c74206d75737420626520656e61626c656400000000000000604482015290519081900360640190fd5b60005b865181101561101157610f5282888381518110610f4557fe5b60200260200101516114df565b6000610f9e600860008a8581518110610f6757fe5b60200260200101516001600160a01b03166001600160a01b0316815260200190815260200160002054670de0b6b3a76400006120ea565b90506000600860008a8581518110610fb257fe5b60200260200101516001600160a01b03166001600160a01b0316815260200190815260200160002081905550610ffb888381518110610fed57fe5b602002602001015182612242565b50611006858261211d565b945050600101610f2c565b5050600101610e95565b505092915050565b6003818154811061103057fe5b6000918252602090912001546001600160a01b0316905081565b600080805b83518110156112ea57600084828151811061106657fe5b6020908102919091018101516001600160a01b0381166000908152600490925260409091205490915060ff161515600114156112e1576001600160a01b038082166000908152600b60209081526040808320938a16835292905290812054158015906110ff57506001600160a01b03808316600090815260026020908152604080832054600b8352818420948c16845293909152902054115b15611149576001600160a01b038083166000818152600b60209081526040808320948c168352938152838220549282526002905291909120546111429190612067565b9050611197565b6001600160a01b038281166000818152600a60209081526040808320948c1683529381528382205492825260029052919091205461119491600160e01b900463ffffffff1690612067565b90505b60006111a283610d09565b905060006112cf846001600160a01b03166370a082318b6040518263ffffffff1660e01b815260040180826001600160a01b03166001600160a01b0316815260200191505060206040518083038186803b1580156111ff57600080fd5b505afa158015611213573d6000803e3d6000fd5b505050506040513d602081101561122957600080fd5b5051610b10611259858261123b61196c565b6001600160a01b038b16600090815260026020526040902054612067565b6112ca600a60008a6001600160a01b03166001600160a01b0316815260200190815260200160002060008f6001600160a01b03166001600160a01b0316815260200190815260200160002060000160009054906101000a90046001600160e01b03166001600160e01b0316886120a8565b612067565b90506112db868261211d565b95505050505b5060010161104f565b506001600160a01b0384166000908152600860205260409020546113219061131390839061211d565b670de0b6b3a76400006120ea565b949350505050565b600c546040805163570ca73560e01b815290516000926001600160a01b03169163570ca735916004808301926020929190829003018186803b15801561136e57600080fd5b505afa158015611382573d6000803e3d6000fd5b505050506040513d602081101561139857600080fd5b50516001600160a01b031633146113e4576040805162461bcd60e51b815260206004820152601a60248201526000805160206124b3833981519152604482015290519081900360640190fd5b60005b60035481101561147857826001600160a01b03166003828154811061140857fe5b6000918252602090912001546001600160a01b03161415611470576040805162461bcd60e51b815260206004820152601760248201527f6f7074795661756c7420616c7265616479206164646564000000000000000000604482015290519081900360640190fd5b6001016113e7565b50600380546001810182556000919091527fc2575a0e9e593c00f959f8c92f12db2869c3395a3b0502d05e2516446f71f85b0180546001600160a01b0319166001600160a01b03939093169290921790915590565b60026020526000908152604090205481565b6000826001600160a01b03166370a08231836040518263ffffffff1660e01b815260040180826001600160a01b03166001600160a01b0316815260200191505060206040518083038186803b15801561153757600080fd5b505afa15801561154b573d6000803e3d6000fd5b505050506040513d602081101561156157600080fd5b505111801561159c575061157361196c565b6001600160a01b038084166000908152600b602090815260408083209386168352929052205414155b156117d35760006115ae610d1761196c565b6001600160a01b038085166000908152600b60209081526040808320938716835292905290812054919250901580159061161557506001600160a01b03808516600090815260026020908152604080832054600b8352818420948816845293909152902054115b1561165f576001600160a01b038085166000818152600b602090815260408083209488168352938152838220549282526002905291909120546116589190612067565b90506116ad565b6001600160a01b038481166000818152600a602090815260408083209488168352938152838220549282526002905291909120546116aa91600160e01b900463ffffffff1690612067565b90505b6000846001600160a01b03166370a08231856040518263ffffffff1660e01b815260040180826001600160a01b03166001600160a01b0316815260200191505060206040518083038186803b15801561170557600080fd5b505afa158015611719573d6000803e3d6000fd5b505050506040513d602081101561172f57600080fd5b50519050600061173e86610d09565b9050600061178c83610b1061175385896120a8565b6001600160a01b03808c166000908152600a60209081526040808320938e16835292905220546112ca906001600160e01b0316896120a8565b6001600160a01b038716600090815260086020526040812054919250906117b3908361211d565b6001600160a01b0388166000908152600860205260409020555050505050505b6117db61196c565b6001600160a01b039283166000908152600b602090815260408083209490951682529290925291902055565b600c546040805163570ca73560e01b815290516000926001600160a01b03169163570ca735916004808301926020929190829003018186803b15801561184c57600080fd5b505afa158015611860573d6000803e3d6000fd5b505050506040513d602081101561187657600080fd5b50516001600160a01b031633146118c2576040805162461bcd60e51b815260206004820152601a60248201526000805160206124b3833981519152604482015290519081900360640190fd5b506001600160a01b0382166000908152600460205260409020805482151560ff19909116179055600192915050565b6001546001600160a01b031690565b600061196682600380548060200260200160405190810160405280929190818152602001828054801561195c57602002820191906000526020600020905b81546001600160a01b0316815260019091019060200180831161193e575b5050505050611d2a565b50919050565b4290565b60055481565b60066020526000908152604090205481565b60046020526000908152604090205460ff1681565b600080826001600160a01b03166318160ddd6040518163ffffffff1660e01b815260040160206040518083038186803b1580156119d957600080fd5b505afa1580156119ed573d6000803e3d6000fd5b505050506040513d6020811015611a0357600080fd5b505111611a11576000611aaa565b6001600160a01b038216600090815260066020526040902054611aaa90611a4090670de0b6b3a76400006120a8565b836001600160a01b03166318160ddd6040518163ffffffff1660e01b815260040160206040518083038186803b158015611a7957600080fd5b505afa158015611a8d573d6000803e3d6000fd5b505050506040513d6020811015611aa357600080fd5b50516120ea565b6001600160a01b038316600090815260076020526040902055506001919050565b60076020526000908152604090205481565b6000611b4183600380548060200260200160405190810160405280929190818152602001828054801561195c576020028201919060005260206000209081546001600160a01b0316815260019091019060200180831161193e575050505050611d2a565b90506000829050806001600160a01b03166373f7aa96836040518263ffffffff1660e01b815260040180828152602001915050602060405180830381600087803b158015611b8e57600080fd5b505af1158015611ba2573d6000803e3d6000fd5b505050506040513d6020811015611bb857600080fd5b505050505050565b6001600160a01b0391821660009081526009602090815260408083208054600a845282852095909616845293909152902080546001600160e01b0319166001600160e01b0393841617808255915463ffffffff600160e01b91829004160291909216179055565b600c60009054906101000a90046001600160a01b03166001600160a01b031663570ca7356040518163ffffffff1660e01b815260040160206040518083038186803b158015611c7557600080fd5b505afa158015611c89573d6000803e3d6000fd5b505050506040513d6020811015611c9f57600080fd5b50516001600160a01b03163314611ceb576040805162461bcd60e51b815260206004820152601a60248201526000805160206124b3833981519152604482015290519081900360640190fd5b600c80546001600160a01b0319166001600160a01b0392909216919091179055565b600b60209081526000928352604080842090915290825290205481565b60408051600180825281830190925260009160609190602080830190803683370190505090508381600081518110611d5e57fe5b60200260200101906001600160a01b031690816001600160a01b03168152505061101b8184610e90565b60006020819052908152604090205460ff1681565b6001546001600160a01b031681565b6009602052600090815260409020546001600160e01b03811690600160e01b900463ffffffff1682565b60086020526000908152604090205481565b6000611e4e826003805480602002602001604051908101604052809291908181526020018280548015611e4457602002820191906000526020600020905b81546001600160a01b03168152600190910190602001808311611e26575b505050505061104a565b92915050565b600c546040805163570ca73560e01b815290516000926001600160a01b03169163570ca735916004808301926020929190829003018186803b158015611e9957600080fd5b505afa158015611ead573d6000803e3d6000fd5b505050506040513d6020811015611ec357600080fd5b50516001600160a01b03163314611f0f576040805162461bcd60e51b815260206004820152601a60248201526000805160206124b3833981519152604482015290519081900360640190fd5b506001600160a01b0391909116600090815260066020526040902055600190565b600c546040805163570ca73560e01b815290516000926001600160a01b03169163570ca735916004808301926020929190829003018186803b158015611f7557600080fd5b505afa158015611f89573d6000803e3d6000fd5b505050506040513d6020811015611f9f57600080fd5b50516001600160a01b03163314611feb576040805162461bcd60e51b815260206004820152601a60248201526000805160206124b3833981519152604482015290519081900360640190fd5b6001600160a01b038316612038576040805162461bcd60e51b815260206004820152600f60248201526e496e76616c6964206164647265737360881b604482015290519081900360640190fd5b506001600160a01b0382166000908152602081905260409020805482151560ff19909116179055600192915050565b60006120a18383604051806040016040528060158152602001747375627472616374696f6e20756e646572666c6f7760581b815250612322565b9392505050565b60006120a183836040518060400160405280601781526020017f6d756c7469706c69636174696f6e206f766572666c6f7700000000000000000081525061237c565b60006120a183836040518060400160405280600e81526020016d646976696465206279207a65726f60901b8152506123fb565b60006120a18383604051806040016040528060118152602001706164646974696f6e206f766572666c6f7760781b81525061245d565b600081600160e01b84106121e55760405162461bcd60e51b81526004018080602001828103825283818151815260200191508051906020019080838360005b838110156121aa578181015183820152602001612192565b50505050905090810190601f1680156121d75780820380516001836020036101000a031916815260200191505b509250505060405180910390fd5b509192915050565b600081600160201b84106121e55760405162461bcd60e51b81526020600482018181528351602484015283519092839260449091019190850190808383600083156121aa578181015183820152602001612192565b60008061224d6118f1565b905060008311801561226757506001600160a01b03841615155b6122a25760405162461bcd60e51b81526004018080602001828103825260268152602001806124d36026913960400191505060405180910390fd5b806001600160a01b03166340c10f1985856040518363ffffffff1660e01b815260040180836001600160a01b03166001600160a01b0316815260200182815260200192505050600060405180830381600087803b15801561230257600080fd5b505af1158015612316573d6000803e3d6000fd5b50949695505050505050565b600081848411156123745760405162461bcd60e51b81526020600482018181528351602484015283519092839260449091019190850190808383600083156121aa578181015183820152602001612192565b505050900390565b6000831580612389575082155b15612396575060006120a1565b838302838582816123a357fe5b041483906123f25760405162461bcd60e51b81526020600482018181528351602484015283519092839260449091019190850190808383600083156121aa578181015183820152602001612192565b50949350505050565b6000818361244a5760405162461bcd60e51b81526020600482018181528351602484015283519092839260449091019190850190808383600083156121aa578181015183820152602001612192565b5082848161245457fe5b04949350505050565b600083830182858210156123f25760405162461bcd60e51b81526020600482018181528351602484015283519092839260449091019190850190808383600083156121aa57818101518382015260200161219256fe63616c6c6572206973206e6f7420746865206f70657261746f72000000000000496e73756666696369656e7420616d6f756e74206f7220696e76616c69642061646472657373a26469706673582212209fa285e13248dda3b43d6d21501abe02ceb05ae2de7ea28e98132ffad9540e0364736f6c634300060a0033",
    "sourcePath": "d:/Blockchain/Capital Methods, Inc/earn-protocol/contracts/protocol/tokenization/OPTYMinter.sol",
    "compiler": {
        "name": "solc",
        "version": "0.6.10+commit.00c0fcaf"
    },
    "functionHashes": {
        "addOptyVault(address)": "6cd9af6d",
        "allOptyVaults(uint256)": "53c787b5",
        "claimAndStake(address,address)": "a0f8743f",
        "claimOpty(address)": "79009dcb",
        "claimOpty(address,address[])": "ad3f9413",
        "claimOpty(address[],address[])": "4ee472c7",
        "claimableOpty(address)": "e65fea58",
        "claimableOpty(address,address[])": "5a1522cc",
        "currentOptyVaultIndex(address)": "4e9b1f34",
        "getBlockTimestamp()": "796b89b9",
        "getOptyAddress()": "786935f1",
        "lastUserUpdate(address,address)": "ad0ac085",
        "mintOpty(address,uint256)": "4af3d900",
        "optyAccrued(address)": "e1131ca6",
        "optyAddress()": "ce546ead",
        "optyTotalRate()": "7c199fe6",
        "optyUserStateInVault(address,address)": "18d884f1",
        "optyVaultEnabled(address)": "8127a24d",
        "optyVaultRatePerSecond(address)": "7fb111fb",
        "optyVaultRatePerSecondAndVaultToken(address)": "a0020328",
        "optyVaultStartTimestamp(address)": "6d95f3a1",
        "optyVaultState(address)": "cea80e4c",
        "registryContract()": "28c1f99b",
        "setOptyVault(address,bool)": "72253316",
        "setOptyVaultRate(address,uint256)": "e94e7fa5",
        "setRegistry(address)": "a91ee0dc",
        "setStakingPool(address,bool)": "fa514e77",
        "stakingPools(address)": "ad935e97",
        "updateOptyVaultIndex(address)": "0dd1a305",
        "updateOptyVaultRatePerSecondAndVaultToken(address)": "97633de9",
        "updateUserRewards(address,address)": "6e7ed949",
        "updateUserStateInVault(address,address)": "a41a837b"
    },
    "gasEstimates": {
        "creation": {
            "codeDepositCost": "1903600",
            "executionCost": "infinite",
            "totalCost": "infinite"
        },
        "external": {
            "addOptyVault(address)": "infinite",
            "allOptyVaults(uint256)": "2060",
            "claimAndStake(address,address)": "infinite",
            "claimOpty(address)": "infinite",
            "claimOpty(address,address[])": "infinite",
            "claimOpty(address[],address[])": "infinite",
            "claimableOpty(address)": "infinite",
            "claimableOpty(address,address[])": "infinite",
            "currentOptyVaultIndex(address)": "infinite",
            "getBlockTimestamp()": "286",
            "getOptyAddress()": "1082",
            "lastUserUpdate(address,address)": "1328",
            "mintOpty(address,uint256)": "infinite",
            "optyAccrued(address)": "1168",
            "optyAddress()": "1126",
            "optyTotalRate()": "1109",
            "optyUserStateInVault(address,address)": "1381",
            "optyVaultEnabled(address)": "1204",
            "optyVaultRatePerSecond(address)": "1170",
            "optyVaultRatePerSecondAndVaultToken(address)": "1236",
            "optyVaultStartTimestamp(address)": "1192",
            "optyVaultState(address)": "1330",
            "registryContract()": "1128",
            "setOptyVault(address,bool)": "infinite",
            "setOptyVaultRate(address,uint256)": "infinite",
            "setRegistry(address)": "infinite",
            "setStakingPool(address,bool)": "infinite",
            "stakingPools(address)": "1206",
            "updateOptyVaultIndex(address)": "infinite",
            "updateOptyVaultRatePerSecondAndVaultToken(address)": "infinite",
            "updateUserRewards(address,address)": "infinite",
            "updateUserStateInVault(address,address)": "43041"
        },
        "internal": {
            "_mintOpty(address,uint256)": "infinite",
            "setOptyAddress(address)": "infinite"
        }
    }
}