{
    "contractName": "OPTYMinterStorage",
    "abi": [
        {
            "inputs": [
                {
                    "internalType": "uint256",
                    "name": "",
                    "type": "uint256"
                }
            ],
            "name": "allOptyVaults",
            "outputs": [
                {
                    "internalType": "address",
                    "name": "",
                    "type": "address"
                }
            ],
            "stateMutability": "view",
            "type": "function"
        },
        {
            "inputs": [
                {
                    "internalType": "address",
                    "name": "",
                    "type": "address"
                },
                {
                    "internalType": "address",
                    "name": "",
                    "type": "address"
                }
            ],
            "name": "lastUserUpdate",
            "outputs": [
                {
                    "internalType": "uint256",
                    "name": "",
                    "type": "uint256"
                }
            ],
            "stateMutability": "view",
            "type": "function"
        },
        {
            "inputs": [
                {
                    "internalType": "address",
                    "name": "",
                    "type": "address"
                }
            ],
            "name": "optyAccrued",
            "outputs": [
                {
                    "internalType": "uint256",
                    "name": "",
                    "type": "uint256"
                }
            ],
            "stateMutability": "view",
            "type": "function"
        },
        {
            "inputs": [],
            "name": "optyAddress",
            "outputs": [
                {
                    "internalType": "address",
                    "name": "",
                    "type": "address"
                }
            ],
            "stateMutability": "view",
            "type": "function"
        },
        {
            "inputs": [],
            "name": "optyTotalRate",
            "outputs": [
                {
                    "internalType": "uint256",
                    "name": "",
                    "type": "uint256"
                }
            ],
            "stateMutability": "view",
            "type": "function"
        },
        {
            "inputs": [
                {
                    "internalType": "address",
                    "name": "",
                    "type": "address"
                },
                {
                    "internalType": "address",
                    "name": "",
                    "type": "address"
                }
            ],
            "name": "optyUserStateInVault",
            "outputs": [
                {
                    "internalType": "uint224",
                    "name": "index",
                    "type": "uint224"
                },
                {
                    "internalType": "uint32",
                    "name": "timestamp",
                    "type": "uint32"
                }
            ],
            "stateMutability": "view",
            "type": "function"
        },
        {
            "inputs": [
                {
                    "internalType": "address",
                    "name": "",
                    "type": "address"
                }
            ],
            "name": "optyVaultEnabled",
            "outputs": [
                {
                    "internalType": "bool",
                    "name": "",
                    "type": "bool"
                }
            ],
            "stateMutability": "view",
            "type": "function"
        },
        {
            "inputs": [
                {
                    "internalType": "address",
                    "name": "",
                    "type": "address"
                }
            ],
            "name": "optyVaultRatePerSecond",
            "outputs": [
                {
                    "internalType": "uint256",
                    "name": "",
                    "type": "uint256"
                }
            ],
            "stateMutability": "view",
            "type": "function"
        },
        {
            "inputs": [
                {
                    "internalType": "address",
                    "name": "",
                    "type": "address"
                }
            ],
            "name": "optyVaultRatePerSecondAndVaultToken",
            "outputs": [
                {
                    "internalType": "uint256",
                    "name": "",
                    "type": "uint256"
                }
            ],
            "stateMutability": "view",
            "type": "function"
        },
        {
            "inputs": [
                {
                    "internalType": "address",
                    "name": "",
                    "type": "address"
                }
            ],
            "name": "optyVaultStartTimestamp",
            "outputs": [
                {
                    "internalType": "uint256",
                    "name": "",
                    "type": "uint256"
                }
            ],
            "stateMutability": "view",
            "type": "function"
        },
        {
            "inputs": [
                {
                    "internalType": "address",
                    "name": "",
                    "type": "address"
                }
            ],
            "name": "optyVaultState",
            "outputs": [
                {
                    "internalType": "uint224",
                    "name": "index",
                    "type": "uint224"
                },
                {
                    "internalType": "uint32",
                    "name": "timestamp",
                    "type": "uint32"
                }
            ],
            "stateMutability": "view",
            "type": "function"
        },
        {
            "inputs": [
                {
                    "internalType": "address",
                    "name": "",
                    "type": "address"
                }
            ],
            "name": "stakingPools",
            "outputs": [
                {
                    "internalType": "bool",
                    "name": "",
                    "type": "bool"
                }
            ],
            "stateMutability": "view",
            "type": "function"
        }
    ],
    "bytecode": "608060405234801561001057600080fd5b50610416806100206000396000f3fe608060405234801561001057600080fd5b50600436106100b45760003560e01c8063a002032811610071578063a0020328146101e8578063ad0ac0851461020e578063ad935e971461023c578063ce546ead14610262578063cea80e4c1461026a578063e1131ca614610290576100b4565b806318d884f1146100b957806353c787b51461010f5780636d95f3a1146101485780637c199fe6146101805780637fb111fb146101885780638127a24d146101ae575b600080fd5b6100e7600480360360408110156100cf57600080fd5b506001600160a01b03813581169160200135166102b6565b604080516001600160e01b03909316835263ffffffff90911660208301528051918290030190f35b61012c6004803603602081101561012557600080fd5b50356102eb565b604080516001600160a01b039092168252519081900360200190f35b61016e6004803603602081101561015e57600080fd5b50356001600160a01b0316610312565b60408051918252519081900360200190f35b61016e610324565b61016e6004803603602081101561019e57600080fd5b50356001600160a01b031661032a565b6101d4600480360360208110156101c457600080fd5b50356001600160a01b031661033c565b604080519115158252519081900360200190f35b61016e600480360360208110156101fe57600080fd5b50356001600160a01b0316610351565b61016e6004803603604081101561022457600080fd5b506001600160a01b0381358116916020013516610363565b6101d46004803603602081101561025257600080fd5b50356001600160a01b0316610380565b61012c610395565b6100e76004803603602081101561028057600080fd5b50356001600160a01b03166103a4565b61016e600480360360208110156102a657600080fd5b50356001600160a01b03166103ce565b600a6020908152600092835260408084209091529082529020546001600160e01b03811690600160e01b900463ffffffff1682565b600381815481106102f857fe5b6000918252602090912001546001600160a01b0316905081565b60026020526000908152604090205481565b60055481565b60066020526000908152604090205481565b60046020526000908152604090205460ff1681565b60076020526000908152604090205481565b600b60209081526000928352604080842090915290825290205481565b60006020819052908152604090205460ff1681565b6001546001600160a01b031681565b6009602052600090815260409020546001600160e01b03811690600160e01b900463ffffffff1682565b6008602052600090815260409020548156fea26469706673582212202056b135b880ba6ff190fa14ca9e6dc03c54aaed95ca2fa2b74bbe73a184e11964736f6c634300060a0033",
    "sourcePath": "d:/Blockchain/Capital Methods, Inc/earn-protocol/contracts/protocol/tokenization/OPTYMinterStorage.sol",
    "compiler": {
        "name": "solc",
        "version": "0.6.10+commit.00c0fcaf"
    },
    "functionHashes": {
        "allOptyVaults(uint256)": "53c787b5",
        "lastUserUpdate(address,address)": "ad0ac085",
        "optyAccrued(address)": "e1131ca6",
        "optyAddress()": "ce546ead",
        "optyTotalRate()": "7c199fe6",
        "optyUserStateInVault(address,address)": "18d884f1",
        "optyVaultEnabled(address)": "8127a24d",
        "optyVaultRatePerSecond(address)": "7fb111fb",
        "optyVaultRatePerSecondAndVaultToken(address)": "a0020328",
        "optyVaultStartTimestamp(address)": "6d95f3a1",
        "optyVaultState(address)": "cea80e4c",
        "stakingPools(address)": "ad935e97"
    },
    "gasEstimates": {
        "creation": {
            "codeDepositCost": "209200",
            "executionCost": "251",
            "totalCost": "209451"
        },
        "external": {
            "allOptyVaults(uint256)": "1993",
            "lastUserUpdate(address,address)": "1239",
            "optyAccrued(address)": "1234",
            "optyAddress()": "1103",
            "optyTotalRate()": "1065",
            "optyUserStateInVault(address,address)": "1313",
            "optyVaultEnabled(address)": "1247",
            "optyVaultRatePerSecond(address)": "1213",
            "optyVaultRatePerSecondAndVaultToken(address)": "1124",
            "optyVaultStartTimestamp(address)": "1169",
            "optyVaultState(address)": "1307",
            "stakingPools(address)": "1183"
        }
    }
}