{
  "address": "0xf831B05217C65A39AA300a6a6a3F3C6bc8B9a0C4",
  "abi": [
    {
      "inputs": [
        {
          "internalType": "address",
          "name": "_registry",
          "type": "address"
        },
        {
          "internalType": "address",
          "name": "_optyFiOracle",
          "type": "address"
        },
        {
          "internalType": "contract IUniswapV2Router02",
          "name": "_uniswapRouter",
          "type": "address"
        },
        {
          "internalType": "contract IUniswapV2Factory",
          "name": "_uniswapFactory",
          "type": "address"
        },
        {
          "internalType": "uint256",
          "name": "_rootKFactor",
          "type": "uint256"
        }
      ],
      "stateMutability": "nonpayable",
      "type": "constructor"
    },
    {
      "inputs": [],
      "name": "DENOMINATOR",
      "outputs": [
        {
          "internalType": "uint256",
          "name": "",
          "type": "uint256"
        }
      ],
      "stateMutability": "view",
      "type": "function"
    },
    {
      "inputs": [],
      "name": "ROOT_K_FACTOR",
      "outputs": [
        {
          "internalType": "uint256",
          "name": "",
          "type": "uint256"
        }
      ],
      "stateMutability": "view",
      "type": "function"
    },
    {
      "inputs": [
        {
          "internalType": "address",
          "name": "_underlyingToken",
          "type": "address"
        },
        {
          "internalType": "address",
          "name": "_liquidityPool",
          "type": "address"
        },
        {
          "internalType": "uint256",
          "name": "_depositAmount",
          "type": "uint256"
        }
      ],
      "name": "calculateAmountInLPToken",
      "outputs": [
        {
          "internalType": "uint256",
          "name": "",
          "type": "uint256"
        }
      ],
      "stateMutability": "view",
      "type": "function"
    },
    {
      "inputs": [
        {
          "internalType": "address payable",
          "name": "_vault",
          "type": "address"
        },
        {
          "internalType": "address",
          "name": "_underlyingToken",
          "type": "address"
        },
        {
          "internalType": "address",
          "name": "_liquidityPool",
          "type": "address"
        },
        {
          "internalType": "uint256",
          "name": "_redeemAmount",
          "type": "uint256"
        }
      ],
      "name": "calculateRedeemableLPTokenAmount",
      "outputs": [
        {
          "internalType": "uint256",
          "name": "",
          "type": "uint256"
        }
      ],
      "stateMutability": "view",
      "type": "function"
    },
    {
      "inputs": [
        {
          "internalType": "address",
          "name": "",
          "type": "address"
        }
      ],
      "name": "canStake",
      "outputs": [
        {
          "internalType": "bool",
          "name": "",
          "type": "bool"
        }
      ],
      "stateMutability": "pure",
      "type": "function"
    },
    {
      "inputs": [
        {
          "internalType": "address payable",
          "name": "_vault",
          "type": "address"
        },
        {
          "internalType": "address",
          "name": "_underlyingToken",
          "type": "address"
        },
        {
          "internalType": "address",
          "name": "_liquidityPool",
          "type": "address"
        }
      ],
      "name": "getAllAmountInToken",
      "outputs": [
        {
          "internalType": "uint256",
          "name": "",
          "type": "uint256"
        }
      ],
      "stateMutability": "view",
      "type": "function"
    },
    {
      "inputs": [
        {
          "internalType": "address payable",
          "name": "_vault",
          "type": "address"
        },
        {
          "internalType": "address",
          "name": "_underlyingToken",
          "type": "address"
        },
        {
          "internalType": "address",
          "name": "_liquidityPool",
          "type": "address"
        }
      ],
      "name": "getDepositAllCodes",
      "outputs": [
        {
          "internalType": "bytes[]",
          "name": "_codes",
          "type": "bytes[]"
        }
      ],
      "stateMutability": "view",
      "type": "function"
    },
    {
      "inputs": [
        {
          "internalType": "address payable",
          "name": "_vault",
          "type": "address"
        },
        {
          "internalType": "address",
          "name": "_underlyingToken",
          "type": "address"
        },
        {
          "internalType": "address",
          "name": "_liquidityPool",
          "type": "address"
        },
        {
          "internalType": "uint256",
          "name": "_amount",
          "type": "uint256"
        }
      ],
      "name": "getDepositSomeCodes",
      "outputs": [
        {
          "internalType": "bytes[]",
          "name": "_codes",
          "type": "bytes[]"
        }
      ],
      "stateMutability": "view",
      "type": "function"
    },
    {
      "inputs": [
        {
          "internalType": "address",
          "name": "",
          "type": "address"
        },
        {
          "internalType": "address",
          "name": "_liquidityPool",
          "type": "address"
        }
      ],
      "name": "getLiquidityPoolToken",
      "outputs": [
        {
          "internalType": "address",
          "name": "",
          "type": "address"
        }
      ],
      "stateMutability": "pure",
      "type": "function"
    },
    {
      "inputs": [
        {
          "internalType": "address payable",
          "name": "_vault",
          "type": "address"
        },
        {
          "internalType": "address",
          "name": "",
          "type": "address"
        },
        {
          "internalType": "address",
          "name": "_liquidityPool",
          "type": "address"
        }
      ],
      "name": "getLiquidityPoolTokenBalance",
      "outputs": [
        {
          "internalType": "uint256",
          "name": "",
          "type": "uint256"
        }
      ],
      "stateMutability": "view",
      "type": "function"
    },
    {
      "inputs": [
        {
          "internalType": "address",
          "name": "_liquidityPool",
          "type": "address"
        },
        {
          "internalType": "address",
          "name": "_underlyingToken",
          "type": "address"
        }
      ],
      "name": "getPoolValue",
      "outputs": [
        {
          "internalType": "uint256",
          "name": "",
          "type": "uint256"
        }
      ],
      "stateMutability": "view",
      "type": "function"
    },
    {
      "inputs": [
        {
          "internalType": "address",
          "name": "",
          "type": "address"
        }
      ],
      "name": "getRewardToken",
      "outputs": [
        {
          "internalType": "address",
          "name": "",
          "type": "address"
        }
      ],
      "stateMutability": "pure",
      "type": "function"
    },
    {
      "inputs": [
        {
          "internalType": "address",
          "name": "_underlyingToken",
          "type": "address"
        },
        {
          "internalType": "address",
          "name": "_liquidityPool",
          "type": "address"
        },
        {
          "internalType": "uint256",
          "name": "_liquidityPoolTokenAmount",
          "type": "uint256"
        }
      ],
      "name": "getSomeAmountInToken",
      "outputs": [
        {
          "internalType": "uint256",
          "name": "",
          "type": "uint256"
        }
      ],
      "stateMutability": "view",
      "type": "function"
    },
    {
      "inputs": [
        {
          "internalType": "address",
          "name": "_liquidityPool",
          "type": "address"
        },
        {
          "internalType": "address",
          "name": "",
          "type": "address"
        }
      ],
      "name": "getUnderlyingTokens",
      "outputs": [
        {
          "internalType": "address[]",
          "name": "_underlyingTokens",
          "type": "address[]"
        }
      ],
      "stateMutability": "view",
      "type": "function"
    },
    {
      "inputs": [
        {
          "internalType": "address payable",
          "name": "_vault",
          "type": "address"
        },
        {
          "internalType": "address",
          "name": "_underlyingToken",
          "type": "address"
        },
        {
          "internalType": "address",
          "name": "_liquidityPool",
          "type": "address"
        }
      ],
      "name": "getWithdrawAllCodes",
      "outputs": [
        {
          "internalType": "bytes[]",
          "name": "_codes",
          "type": "bytes[]"
        }
      ],
      "stateMutability": "view",
      "type": "function"
    },
    {
      "inputs": [
        {
          "internalType": "address payable",
          "name": "_vault",
          "type": "address"
        },
        {
          "internalType": "address",
          "name": "_underlyingToken",
          "type": "address"
        },
        {
          "internalType": "address",
          "name": "_liquidityPool",
          "type": "address"
        },
        {
          "internalType": "uint256",
          "name": "_shares",
          "type": "uint256"
        }
      ],
      "name": "getWithdrawSomeCodes",
      "outputs": [
        {
          "internalType": "bytes[]",
          "name": "_codes",
          "type": "bytes[]"
        }
      ],
      "stateMutability": "view",
      "type": "function"
    },
    {
      "inputs": [
        {
          "internalType": "address payable",
          "name": "_vault",
          "type": "address"
        },
        {
          "internalType": "address",
          "name": "_underlyingToken",
          "type": "address"
        },
        {
          "internalType": "address",
          "name": "_liquidityPool",
          "type": "address"
        },
        {
          "internalType": "uint256",
          "name": "_redeemAmount",
          "type": "uint256"
        }
      ],
      "name": "isRedeemableAmountSufficient",
      "outputs": [
        {
          "internalType": "bool",
          "name": "",
          "type": "bool"
        }
      ],
      "stateMutability": "view",
      "type": "function"
    },
    {
      "inputs": [
        {
          "internalType": "address",
          "name": "",
          "type": "address"
        }
      ],
      "name": "liquidityPoolToTolerance",
      "outputs": [
        {
          "internalType": "uint256",
          "name": "",
          "type": "uint256"
        }
      ],
      "stateMutability": "view",
      "type": "function"
    },
    {
      "inputs": [
        {
          "internalType": "address",
          "name": "",
          "type": "address"
        },
        {
          "internalType": "address",
          "name": "",
          "type": "address"
        }
      ],
      "name": "liquidityPoolToWantTokenToSlippage",
      "outputs": [
        {
          "internalType": "uint256",
          "name": "",
          "type": "uint256"
        }
      ],
      "stateMutability": "view",
      "type": "function"
    },
    {
      "inputs": [],
      "name": "optyFiOracle",
      "outputs": [
        {
          "internalType": "contract IOptyFiOracle",
          "name": "",
          "type": "address"
        }
      ],
      "stateMutability": "view",
      "type": "function"
    },
    {
      "inputs": [],
      "name": "registryContract",
      "outputs": [
        {
          "internalType": "contract IAdapterRegistryBase",
          "name": "",
          "type": "address"
        }
      ],
      "stateMutability": "view",
      "type": "function"
    },
    {
      "inputs": [
        {
          "components": [
            {
              "internalType": "address",
              "name": "liquidityPool",
              "type": "address"
            },
            {
              "internalType": "uint256",
              "name": "tolerance",
              "type": "uint256"
            }
          ],
          "internalType": "struct UniswapV2PoolAdapter.Tolerance[]",
          "name": "_tolerances",
          "type": "tuple[]"
        }
      ],
      "name": "setLiquidityPoolToTolerance",
      "outputs": [],
      "stateMutability": "nonpayable",
      "type": "function"
    },
    {
      "inputs": [
        {
          "components": [
            {
              "internalType": "address",
              "name": "liquidityPool",
              "type": "address"
            },
            {
              "internalType": "address",
              "name": "wantToken",
              "type": "address"
            },
            {
              "internalType": "uint256",
              "name": "slippage",
              "type": "uint256"
            }
          ],
          "internalType": "struct UniswapV2PoolAdapter.Slippage[]",
          "name": "_slippages",
          "type": "tuple[]"
        }
      ],
      "name": "setLiquidityPoolToWantTokenToSlippage",
      "outputs": [],
      "stateMutability": "nonpayable",
      "type": "function"
    },
    {
      "inputs": [
        {
          "internalType": "address",
          "name": "_optyFiOracle",
          "type": "address"
        }
      ],
      "name": "setOptyFiOracle",
      "outputs": [],
      "stateMutability": "nonpayable",
      "type": "function"
    },
    {
      "inputs": [
        {
          "internalType": "address",
          "name": "_registry",
          "type": "address"
        }
      ],
      "name": "setRegistry",
      "outputs": [],
      "stateMutability": "nonpayable",
      "type": "function"
    },
    {
      "inputs": [],
      "name": "uniswapFactory",
      "outputs": [
        {
          "internalType": "contract IUniswapV2Factory",
          "name": "",
          "type": "address"
        }
      ],
      "stateMutability": "view",
      "type": "function"
    },
    {
      "inputs": [],
      "name": "uniswapRouter",
      "outputs": [
        {
          "internalType": "contract IUniswapV2Router02",
          "name": "",
          "type": "address"
        }
      ],
      "stateMutability": "view",
      "type": "function"
    }
  ],
  "transactionHash": "0x065acea6a033e1bd39d63acfb0233d48973470b4bb53cad579b5ebcf93ffd8f3",
  "args": [
    "0x32bd1a6fdaec327b57cdb2cfde0855afb3255d7c",
    "0x415A3046719047113F339d87aEC703EB8e938454",
    "0xC0788A3aD43d79aa53B09c2EaCc313A787d1d607",
    "0xCf083Be4164828f00cAE704EC15a36D711491284",
    "333333333333333300"
  ],
  "numDeployments": 1,
  "bytecode": "0x60e06040523480156200001157600080fd5b5060405162002dbc38038062002dbc833981016040819052620000349162000092565b600080546001600160a01b03199081166001600160a01b0397881617909155600180549091169486169490941790935590831660805290911660a05260c05262000106565b6001600160a01b03811681146200008f57600080fd5b50565b600080600080600060a08688031215620000ab57600080fd5b8551620000b88162000079565b6020870151909550620000cb8162000079565b6040870151909450620000de8162000079565b6060870151909350620000f18162000079565b80925050608086015190509295509295909350565b60805160a05160c051612c5c620001606000396000818161027b0152611f640152600081816103430152611e160152600081816102fb01528181610a3901528181610bfc0152818161183301526118fb0152612c5c6000f3fe608060405234801561001057600080fd5b50600436106101a95760003560e01c806385541e44116100f9578063d994771111610097578063e49d5ecc11610071578063e49d5ecc14610400578063ee665bed14610413578063ef856be914610426578063f49307ca1461044657600080fd5b8063d9947711146103c7578063df147b3b146103da578063df935722146103ed57600080fd5b8063918f8674116100d3578063918f867414610378578063a91ee0dc14610381578063cd07801214610394578063d74baaf8146103b457600080fd5b806385541e441461032b5780638bdb2afa1461033e57806390e616051461036557600080fd5b80633f406cc711610166578063609257791161014057806360925779146102d057806364dd5f80146102e3578063735de9f7146102f6578063770788721461031d57600080fd5b80633f406cc714610276578063489b52951461029d5780634ad36e02146102bd57600080fd5b8063180f7ad2146101ae5780632336fb41146101c3578063275032901461020157806328c1f99b146102145780632de778381461023f57806336d8bf9314610252575b600080fd5b6101c16101bc36600461266a565b610459565b005b6101ee6101d13660046126f7565b600360209081526000928352604080842090915290825290205481565b6040519081526020015b60405180910390f35b6101c161020f366004612730565b6105b9565b600054610227906001600160a01b031681565b6040516001600160a01b0390911681526020016101f8565b6101ee61024d3660046126f7565b6106b0565b610266610260366004612730565b50600090565b60405190151581526020016101f8565b6101ee7f000000000000000000000000000000000000000000000000000000000000000081565b6102b06102ab36600461274d565b610732565b6040516101f891906127e5565b6101ee6102cb366004612847565b6107bb565b6102b06102de366004612847565b610807565b6101ee6102f136600461274d565b610d6e565b6102277f000000000000000000000000000000000000000000000000000000000000000081565b610227610260366004612730565b6101ee610339366004612898565b610ee4565b6102277f000000000000000000000000000000000000000000000000000000000000000081565b6101ee61037336600461274d565b61120c565b6101ee61271081565b6101c161038f366004612730565b61127a565b6101ee6103a2366004612730565b60026020526000908152604090205481565b6102276103c23660046126f7565b919050565b600154610227906001600160a01b031681565b6101c16103e83660046128d9565b6113b6565b6102b06103fb366004612847565b611557565b61026661040e366004612847565b611a38565b6101ee610421366004612898565b611a53565b6104396104343660046126f7565b611c36565b6040516101f89190612980565b6102b061045436600461274d565b611d86565b60008054906101000a90046001600160a01b03166001600160a01b0316637af0e5576040518163ffffffff1660e01b8152600401602060405180830381865afa1580156104aa573d6000803e3d6000fd5b505050506040513d601f19601f820116820180604052508101906104ce9190612993565b6001600160a01b0316336001600160a01b0316146105335760405162461bcd60e51b815260206004820152601e60248201527f63616c6c6572206973206e6f7420746865207269736b4f70657261746f72000060448201526064015b60405180910390fd5b8060005b818110156105b357838382818110610551576105516129b0565b9050604002016020013560026000868685818110610571576105716129b0565b6105879260206040909202019081019150612730565b6001600160a01b03168152602081019190915260400160002055806105ab816129dc565b915050610537565b50505050565b60008054906101000a90046001600160a01b03166001600160a01b031663e7f43c686040518163ffffffff1660e01b8152600401602060405180830381865afa15801561060a573d6000803e3d6000fd5b505050506040513d601f19601f8201168201806040525081019061062e9190612993565b6001600160a01b0316336001600160a01b03161461068e5760405162461bcd60e51b815260206004820152601a60248201527f63616c6c6572206973206e6f7420746865206f70657261746f72000000000000604482015260640161052a565b600180546001600160a01b0319166001600160a01b0392909216919091179055565b6040516370a0823160e01b81526001600160a01b038381166004830152600091908316906370a0823190602401602060405180830381865afa1580156106fa573d6000803e3d6000fd5b505050506040513d601f19601f8201168201806040525081019061071e91906129f7565b610729906002612a10565b90505b92915050565b6040516370a0823160e01b81526001600160a01b0384811660048301526060916000918516906370a0823190602401602060405180830381865afa15801561077e573d6000803e3d6000fd5b505050506040513d601f19601f820116820180604052508101906107a291906129f7565b90506107b085858584611557565b9150505b9392505050565b6000806107c986868661120c565b905060006107d8878787610d6e565b9050806107e58584612a10565b6107ef9190612a2f565b6107fa906001612a51565b925050505b949350505050565b606081156107ff576040805160028082526060820190925290816020015b60608152602001906001900390816108255790505090506000806000856001600160a01b031663d21220a76040518163ffffffff1660e01b8152600401602060405180830381865afa15801561087f573d6000803e3d6000fd5b505050506040513d601f19601f820116820180604052508101906108a39190612993565b9050600080876001600160a01b0316630902f1ac6040518163ffffffff1660e01b8152600401606060405180830381865afa1580156108e6573d6000803e3d6000fd5b505050506040513d601f19601f8201168201806040525081019061090a9190612a80565b506001600160701b031691506001600160701b03169150600061092e898484611da3565b90508061093b8985612a10565b6109459190612a2f565b9550806109528984612a10565b61095c9190612a2f565b9450896001600160a01b0316846001600160a01b031614156109ea5760408051630dfe168160e01b815290519596959293926001600160a01b038b1691630dfe16819160048083019260209291908290030181865afa1580156109c3573d6000803e3d6000fd5b505050506040513d601f19601f820116820180604052508101906109e79190612993565b93505b6109f78a8585858d611fcf565b506040516001600160a01b03808b1660248301528085166044830152606482018990526084820187905260a482018690528b1660c482015260001960e48201527f0000000000000000000000000000000000000000000000000000000000000000906101040160408051601f19818403018152918152602080830180516001600160e01b0316635d5155ef60e11b1790529051610a9693929101612ac5565b60405160208183030381529060405286600081518110610ab857610ab86129b0565b6020908102919091010152604080516002808252606082019092526000918160200160208202803683370190505090508381600081518110610afc57610afc6129b0565b60200260200101906001600160a01b031690816001600160a01b0316815250508981600181518110610b3057610b306129b0565b6001600160a01b0392831660209182029290920101526040516370a0823160e01b81528c82166004820152600091610bda916103e8918816906370a0823190602401602060405180830381865afa158015610b8f573d6000803e3d6000fd5b505050506040513d601f19601f82011682018060405250810190610bb391906129f7565b610bbd9089612a51565b610bc9906103e5612a10565b610bd39190612a2f565b868d612279565b6040516370a0823160e01b81526001600160a01b038e811660048301529192507f0000000000000000000000000000000000000000000000000000000000000000918716906370a0823190602401602060405180830381865afa158015610c45573d6000803e3d6000fd5b505050506040513d601f19601f82011682018060405250810190610c6991906129f7565b610c739088612a51565b612710600360008e6001600160a01b03166001600160a01b0316815260200190815260200160002060008f6001600160a01b03166001600160a01b0316815260200190815260200160002054612710610ccc9190612ae9565b610cd69085612a10565b610ce09190612a2f565b848f600019604051602401610cf9959493929190612b00565b60408051601f19818403018152918152602080830180516001600160e01b03166338ed173960e01b1790529051610d3293929101612ac5565b60405160208183030381529060405288600181518110610d5457610d546129b0565b602002602001018190525050505050505050949350505050565b600080826001600160a01b031663d21220a76040518163ffffffff1660e01b8152600401602060405180830381865afa158015610daf573d6000803e3d6000fd5b505050506040513d601f19601f82011682018060405250810190610dd39190612993565b9050836001600160a01b0316816001600160a01b03161415610e5457826001600160a01b0316630dfe16816040518163ffffffff1660e01b8152600401602060405180830381865afa158015610e2d573d6000803e3d6000fd5b505050506040513d601f19601f82011682018060405250810190610e519190612993565b90505b6040516370a0823160e01b81526001600160a01b038681166004830152610eca91908316906370a0823190602401602060405180830381865afa158015610e9f573d6000803e3d6000fd5b505050506040513d601f19601f82011682018060405250810190610ec391906129f7565b8286612279565b610eda858561042189898961120c565b6107b09190612a51565b6000806000846001600160a01b0316630902f1ac6040518163ffffffff1660e01b8152600401606060405180830381865afa158015610f27573d6000803e3d6000fd5b505050506040513d601f19601f82011682018060405250810190610f4b9190612a80565b506001600160701b031691506001600160701b031691506000856001600160a01b0316630dfe16816040518163ffffffff1660e01b8152600401602060405180830381865afa158015610fa2573d6000803e3d6000fd5b505050506040513d601f19601f82011682018060405250810190610fc69190612993565b90506000866001600160a01b031663d21220a76040518163ffffffff1660e01b8152600401602060405180830381865afa158015611008573d6000803e3d6000fd5b505050506040513d601f19601f8201168201806040525081019061102c9190612993565b9050876001600160a01b0316876001600160a01b0316630dfe16816040518163ffffffff1660e01b8152600401602060405180830381865afa158015611076573d6000803e3d6000fd5b505050506040513d601f19601f8201168201806040525081019061109a9190612993565b6001600160a01b0316146110ad57919291905b6110ba828286868b611fcf565b6040516370a0823160e01b81523360048201526000906001600160a01b038316906370a0823190602401602060405180830381865afa158015611101573d6000803e3d6000fd5b505050506040513d601f19601f8201168201806040525081019061112591906129f7565b9050600061113586868a8561244a565b9050600082611145838787612279565b61114f9190612a51565b905061115b8288612a51565b96506111678187612ae9565b955060006111768b8989611da3565b90506000611184848c612ae9565b90506000611193828b8b61251a565b9050838111156111ad5750826111aa818a8c61251a565b91505b60008a6111ba8585612a10565b6111c49190612a2f565b9050896111d18584612a10565b6111db9190612a2f565b8111156111fa57896111ed8584612a10565b6111f79190612a2f565b90505b9e9d5050505050505050505050505050565b6040516370a0823160e01b81526001600160a01b038481166004830152600091908316906370a0823190602401602060405180830381865afa158015611256573d6000803e3d6000fd5b505050506040513d601f19601f820116820180604052508101906107ff91906129f7565b60008054906101000a90046001600160a01b03166001600160a01b031663e7f43c686040518163ffffffff1660e01b8152600401602060405180830381865afa1580156112cb573d6000803e3d6000fd5b505050506040513d601f19601f820116820180604052508101906112ef9190612993565b6001600160a01b0316336001600160a01b03161461134f5760405162461bcd60e51b815260206004820152601a60248201527f63616c6c6572206973206e6f7420746865206f70657261746f72000000000000604482015260640161052a565b6001600160a01b0381163b6113945760405162461bcd60e51b815260206004820152600b60248201526a085a5cd0dbdb9d1c9858dd60aa1b604482015260640161052a565b600080546001600160a01b0319166001600160a01b0392909216919091179055565b60008054906101000a90046001600160a01b03166001600160a01b0316637af0e5576040518163ffffffff1660e01b8152600401602060405180830381865afa158015611407573d6000803e3d6000fd5b505050506040513d601f19601f8201168201806040525081019061142b9190612993565b6001600160a01b0316336001600160a01b03161461148b5760405162461bcd60e51b815260206004820152601e60248201527f63616c6c6572206973206e6f7420746865207269736b4f70657261746f720000604482015260640161052a565b8060005b818110156105b3578383828181106114a9576114a96129b0565b90506060020160400135600360008686858181106114c9576114c96129b0565b6114df9260206060909202019081019150612730565b6001600160a01b03166001600160a01b031681526020019081526020016000206000868685818110611513576115136129b0565b905060600201602001602081019061152b9190612730565b6001600160a01b031681526020810191909152604001600020558061154f816129dc565b91505061148f565b606081156107ff576040805160028082526060820190925290816020015b6060815260200190600190039081611575579050509050600080600080600080886001600160a01b0316630902f1ac6040518163ffffffff1660e01b8152600401606060405180830381865afa1580156115d3573d6000803e3d6000fd5b505050506040513d601f19601f820116820180604052508101906115f79190612a80565b506001600160701b031691506001600160701b03169150886001600160a01b031663d21220a76040518163ffffffff1660e01b8152600401602060405180830381865afa15801561164c573d6000803e3d6000fd5b505050506040513d601f19601f820116820180604052508101906116709190612993565b9550896001600160a01b0316866001600160a01b031614156116fb5760408051630dfe168160e01b815290519192916001600160a01b038b1691630dfe16819160048083019260209291908290030181865afa1580156116d4573d6000803e3d6000fd5b505050506040513d601f19601f820116820180604052508101906116f89190612993565b95505b6117088a8784848d611fcf565b6040516370a0823160e01b81526001600160a01b038c811660048301528716906370a0823190602401602060405180830381865afa15801561174e573d6000803e3d6000fd5b505050506040513d601f19601f8201168201806040525081019061177291906129f7565b925061178082828a8661244a565b945061178d858b88612279565b60408051600280825260608201835292965060009290916020830190803683370190505090508a816000815181106117c7576117c76129b0565b60200260200101906001600160a01b031690816001600160a01b03168152505086816001815181106117fb576117fb6129b0565b6001600160a01b039283166020918202929092018101919091528b82166000908152600382526040808220938b1682529290915220547f0000000000000000000000000000000000000000000000000000000000000000908790612710906118639082612ae9565b61186d9089612a10565b6118779190612a2f565b838f600019604051602401611890959493929190612b00565b60408051601f19818403018152918152602080830180516001600160e01b03166338ed173960e01b17905290516118c993929101612ac5565b604051602081830303815290604052886000815181106118eb576118eb6129b0565b60200260200101819052505050507f0000000000000000000000000000000000000000000000000000000000000000888585896119289190612ae9565b6001600160a01b03808c166000908152600360209081526040808320938c168352929052205485906127109061195e9082612ae9565b6119689089612a10565b6119729190612a2f565b61197c9190612a51565b6040516001600160a01b039485166024820152928416604484015260648301919091526084820152600060a4820181905260c4820152908b1660e48201526000196101048201526101240160408051601f19818403018152918152602080830180516001600160e01b031662e8e33760e81b17905290516119ff93929101612ac5565b60405160208183030381529060405285600181518110611a2157611a216129b0565b602002602001018190525050505050949350505050565b600080611a46868686610d6e565b9092111595945050505050565b6000806000846001600160a01b0316630902f1ac6040518163ffffffff1660e01b8152600401606060405180830381865afa158015611a96573d6000803e3d6000fd5b505050506040513d601f19601f82011682018060405250810190611aba9190612a80565b506001600160701b031691506001600160701b031691506000611ade868484611da3565b90506000866001600160a01b031663d21220a76040518163ffffffff1660e01b8152600401602060405180830381865afa158015611b20573d6000803e3d6000fd5b505050506040513d601f19601f82011682018060405250810190611b449190612993565b9050876001600160a01b0316816001600160a01b03161415611bcf5760408051630dfe168160e01b815290519394936001600160a01b03891691630dfe16819160048083019260209291908290030181865afa158015611ba8573d6000803e3d6000fd5b505050506040513d601f19601f82011682018060405250810190611bcc9190612993565b90505b611bdc888286868b611fcf565b600082611be98887612a10565b611bf39190612a2f565b9050600083611c028987612a10565b611c0c9190612a2f565b90506000611c1b82858d612279565b9050611c278184612a51565b9b9a5050505050505050505050565b6040805160028082526060808301845292602083019080368337019050509050826001600160a01b0316630dfe16816040518163ffffffff1660e01b8152600401602060405180830381865afa158015611c94573d6000803e3d6000fd5b505050506040513d601f19601f82011682018060405250810190611cb89190612993565b81600081518110611ccb57611ccb6129b0565b60200260200101906001600160a01b031690816001600160a01b031681525050826001600160a01b031663d21220a76040518163ffffffff1660e01b8152600401602060405180830381865afa158015611d29573d6000803e3d6000fd5b505050506040513d601f19601f82011682018060405250810190611d4d9190612993565b81600181518110611d6057611d606129b0565b60200260200101906001600160a01b031690816001600160a01b03168152505092915050565b60606000611d9585858561120c565b90506107b085858584610807565b6000836001600160a01b03166318160ddd6040518163ffffffff1660e01b8152600401602060405180830381865afa158015611de3573d6000803e3d6000fd5b505050506040513d601f19601f82011682018060405250810190611e0791906129f7565b905060006001600160a01b03167f00000000000000000000000000000000000000000000000000000000000000006001600160a01b031663017e7e586040518163ffffffff1660e01b8152600401602060405180830381865afa158015611e72573d6000803e3d6000fd5b505050506040513d601f19601f82011682018060405250810190611e969190612993565b6001600160a01b0316146107b4576000846001600160a01b0316637464fc3d6040518163ffffffff1660e01b8152600401602060405180830381865afa158015611ee4573d6000803e3d6000fd5b505050506040513d601f19601f82011682018060405250810190611f0891906129f7565b90508015611fc7576000611f24611f1f8587612a10565b6125fb565b90506000611f31836125fb565b905080821115611fc4576000611f478284612ae9565b611f519086612a10565b9050600082670de0b6b3a7640000611f897f000000000000000000000000000000000000000000000000000000000000000087612a10565b611f939190612a2f565b611f9d9190612a51565b90506000611fab8284612a2f565b90508015611fc057611fbd8188612a51565b96505b5050505b50505b509392505050565b60015460405163057d4cc360e51b81526001600160a01b0387811660048301528681166024830152600092169063afa9986090604401602060405180830381865afa158015612022573d6000803e3d6000fd5b505050506040513d601f19601f8201168201806040525081019061204691906129f7565b9050600081116120815760405162461bcd60e51b815260206004820152600660248201526521707269636560d01b604482015260640161052a565b6000866001600160a01b031663313ce5676040518163ffffffff1660e01b8152600401602060405180830381865afa1580156120c1573d6000803e3d6000fd5b505050506040513d601f19601f820116820180604052508101906120e59190612b3c565b60ff1690506000866001600160a01b031663313ce5676040518163ffffffff1660e01b8152600401602060405180830381865afa15801561212a573d6000803e3d6000fd5b505050506040513d601f19601f8201168201806040525081019061214e9190612b3c565b60ff1690506000612160836012612ae9565b61216b90600a612c43565b6121759088612a10565b612180836024612ae9565b61218b90600a612c43565b6121959088612a10565b61219f9190612a2f565b6001600160a01b03861660009081526002602052604081205491925090612710906121ca9082612a51565b6121d49087612a10565b6121de9190612a2f565b6001600160a01b03871660009081526002602052604081205491925090612710906122099082612ae9565b6122139088612a10565b61221d9190612a2f565b9050818310801561222d57508083115b61226c5760405162461bcd60e51b815260206004820152601060248201526f085a5b58985b185b98d959081c1bdbdb60821b604482015260640161052a565b5050505050505050505050565b60015460405163057d4cc360e51b81526001600160a01b0384811660048301528381166024830152600092839291169063afa9986090604401602060405180830381865afa1580156122cf573d6000803e3d6000fd5b505050506040513d601f19601f820116820180604052508101906122f391906129f7565b90506000811161232e5760405162461bcd60e51b815260206004820152600660248201526521707269636560d01b604482015260640161052a565b6000846001600160a01b031663313ce5676040518163ffffffff1660e01b8152600401602060405180830381865afa15801561236e573d6000803e3d6000fd5b505050506040513d601f19601f820116820180604052508101906123929190612b3c565b60ff1690506000846001600160a01b031663313ce5676040518163ffffffff1660e01b8152600401602060405180830381865afa1580156123d7573d6000803e3d6000fd5b505050506040513d601f19601f820116820180604052508101906123fb9190612b3c565b60ff16905061240b826012612a51565b61241690600a612c43565b61242182600a612c43565b61242b858a612a10565b6124359190612a10565b61243f9190612a2f565b979650505050505050565b60006124568483612a51565b612462906107ca612a10565b61246c8584612a51565b612478876107cd612a10565b6124829190612a10565b6124dc61248f8589612a10565b61249a906009612a10565b6124a4888a612a10565b6124b190623cda29612a10565b6124bb8989612a10565b6124c890623cda20612a10565b6124d29190612a51565b611f1f9190612a51565b6124f36124e98887612a51565b611f1f908a612a10565b6124fd9190612a10565b6125079190612ae9565b6125119190612a2f565b95945050505050565b60008084116125795760405162461bcd60e51b815260206004820152602560248201527f556e697377617056324c6962726172793a20494e53554646494349454e545f416044820152641353d5539560da1b606482015260840161052a565b6000831180156125895750600082115b6125e65760405162461bcd60e51b815260206004820152602860248201527f556e697377617056324c6962726172793a20494e53554646494349454e545f4c604482015267495155494449545960c01b606482015260840161052a565b826125f18386612a10565b6107ff9190612a2f565b6000600382111561265c5750806000612615600283612a2f565b612620906001612a51565b90505b818110156126565790508060028161263b8186612a2f565b6126459190612a51565b61264f9190612a2f565b9050612623565b50919050565b81156103c257506001919050565b6000806020838503121561267d57600080fd5b823567ffffffffffffffff8082111561269557600080fd5b818501915085601f8301126126a957600080fd5b8135818111156126b857600080fd5b8660208260061b85010111156126cd57600080fd5b60209290920196919550909350505050565b6001600160a01b03811681146126f457600080fd5b50565b6000806040838503121561270a57600080fd5b8235612715816126df565b91506020830135612725816126df565b809150509250929050565b60006020828403121561274257600080fd5b81356107b4816126df565b60008060006060848603121561276257600080fd5b833561276d816126df565b9250602084013561277d816126df565b9150604084013561278d816126df565b809150509250925092565b6000815180845260005b818110156127be576020818501810151868301820152016127a2565b818111156127d0576000602083870101525b50601f01601f19169290920160200192915050565b6000602080830181845280855180835260408601915060408160051b870101925083870160005b8281101561283a57603f19888603018452612828858351612798565b9450928501929085019060010161280c565b5092979650505050505050565b6000806000806080858703121561285d57600080fd5b8435612868816126df565b93506020850135612878816126df565b92506040850135612888816126df565b9396929550929360600135925050565b6000806000606084860312156128ad57600080fd5b83356128b8816126df565b925060208401356128c8816126df565b929592945050506040919091013590565b600080602083850312156128ec57600080fd5b823567ffffffffffffffff8082111561290457600080fd5b818501915085601f83011261291857600080fd5b81358181111561292757600080fd5b8660206060830285010111156126cd57600080fd5b600081518084526020808501945080840160005b838110156129755781516001600160a01b031687529582019590820190600101612950565b509495945050505050565b602081526000610729602083018461293c565b6000602082840312156129a557600080fd5b81516107b4816126df565b634e487b7160e01b600052603260045260246000fd5b634e487b7160e01b600052601160045260246000fd5b60006000198214156129f0576129f06129c6565b5060010190565b600060208284031215612a0957600080fd5b5051919050565b6000816000190483118215151615612a2a57612a2a6129c6565b500290565b600082612a4c57634e487b7160e01b600052601260045260246000fd5b500490565b60008219821115612a6457612a646129c6565b500190565b80516001600160701b03811681146103c257600080fd5b600080600060608486031215612a9557600080fd5b612a9e84612a69565b9250612aac60208501612a69565b9150604084015163ffffffff8116811461278d57600080fd5b6001600160a01b03831681526040602082018190526000906107ff90830184612798565b600082821015612afb57612afb6129c6565b500390565b85815284602082015260a060408201526000612b1f60a083018661293c565b6001600160a01b0394909416606083015250608001529392505050565b600060208284031215612b4e57600080fd5b815160ff811681146107b457600080fd5b600181815b80851115612b9a578160001904821115612b8057612b806129c6565b80851615612b8d57918102915b93841c9390800290612b64565b509250929050565b600082612bb15750600161072c565b81612bbe5750600061072c565b8160018114612bd45760028114612bde57612bfa565b600191505061072c565b60ff841115612bef57612bef6129c6565b50506001821b61072c565b5060208310610133831016604e8410600b8410161715612c1d575081810a61072c565b612c278383612b5f565b8060001904821115612c3b57612c3b6129c6565b029392505050565b60006107298383612ba256fea164736f6c634300080b000a"
}