{
  "address": "0xfe28e4C3403dE2a3680d113De1E3CB4Ec716b58e",
  "abi": [
    {
      "inputs": [
        {
          "internalType": "address",
          "name": "_registry",
          "type": "address"
        }
      ],
      "stateMutability": "nonpayable",
      "type": "constructor"
    },
    {
      "anonymous": false,
      "inputs": [
        {
          "indexed": true,
          "internalType": "uint256",
          "name": "maxDepositAmount",
          "type": "uint256"
        },
        {
          "indexed": true,
          "internalType": "address",
          "name": "caller",
          "type": "address"
        }
      ],
      "name": "LogMaxDepositAmount",
      "type": "event"
    },
    {
      "anonymous": false,
      "inputs": [
        {
          "indexed": true,
          "internalType": "uint256",
          "name": "maxDepositPoolPct",
          "type": "uint256"
        },
        {
          "indexed": true,
          "internalType": "address",
          "name": "caller",
          "type": "address"
        }
      ],
      "name": "LogMaxDepositPoolPct",
      "type": "event"
    },
    {
      "anonymous": false,
      "inputs": [
        {
          "indexed": true,
          "internalType": "enum MaxExposure",
          "name": "maxDepositProtocolMode",
          "type": "uint8"
        },
        {
          "indexed": true,
          "internalType": "address",
          "name": "caller",
          "type": "address"
        }
      ],
      "name": "LogMaxDepositProtocolMode",
      "type": "event"
    },
    {
      "anonymous": false,
      "inputs": [
        {
          "indexed": true,
          "internalType": "uint256",
          "name": "maxDepositProtocolPct",
          "type": "uint256"
        },
        {
          "indexed": true,
          "internalType": "address",
          "name": "caller",
          "type": "address"
        }
      ],
      "name": "LogMaxDepositProtocolPct",
      "type": "event"
    },
    {
      "inputs": [],
      "name": "DAI",
      "outputs": [
        {
          "internalType": "address",
          "name": "",
          "type": "address"
        }
      ],
      "stateMutability": "view",
      "type": "function"
    },
    {
      "inputs": [],
      "name": "USDC",
      "outputs": [
        {
          "internalType": "address",
          "name": "",
          "type": "address"
        }
      ],
      "stateMutability": "view",
      "type": "function"
    },
    {
      "inputs": [],
      "name": "USDT",
      "outputs": [
        {
          "internalType": "address",
          "name": "",
          "type": "address"
        }
      ],
      "stateMutability": "view",
      "type": "function"
    },
    {
      "inputs": [],
      "name": "WBTC",
      "outputs": [
        {
          "internalType": "address",
          "name": "",
          "type": "address"
        }
      ],
      "stateMutability": "view",
      "type": "function"
    },
    {
      "inputs": [],
      "name": "aBTCPool",
      "outputs": [
        {
          "internalType": "address",
          "name": "",
          "type": "address"
        }
      ],
      "stateMutability": "view",
      "type": "function"
    },
    {
      "inputs": [],
      "name": "aPool",
      "outputs": [
        {
          "internalType": "address",
          "name": "",
          "type": "address"
        }
      ],
      "stateMutability": "view",
      "type": "function"
    },
    {
      "inputs": [
        {
          "internalType": "address",
          "name": "",
          "type": "address"
        }
      ],
      "name": "calcWithdrawOneCoinNotSame",
      "outputs": [
        {
          "internalType": "bool",
          "name": "",
          "type": "bool"
        }
      ],
      "stateMutability": "view",
      "type": "function"
    },
    {
      "inputs": [
        {
          "internalType": "address",
          "name": "_underlyingToken",
          "type": "address"
        },
        {
          "internalType": "address",
          "name": "_liquidityPool",
          "type": "address"
        },
        {
          "internalType": "uint256",
          "name": "_underlyingTokenAmount",
          "type": "uint256"
        }
      ],
      "name": "calculateAmountInLPToken",
      "outputs": [
        {
          "internalType": "uint256",
          "name": "",
          "type": "uint256"
        }
      ],
      "stateMutability": "view",
      "type": "function"
    },
    {
      "inputs": [
        {
          "internalType": "address payable",
          "name": "_vault",
          "type": "address"
        },
        {
          "internalType": "address",
          "name": "_underlyingToken",
          "type": "address"
        },
        {
          "internalType": "address",
          "name": "_liquidityPool",
          "type": "address"
        },
        {
          "internalType": "uint256",
          "name": "_redeemAmount",
          "type": "uint256"
        }
      ],
      "name": "calculateRedeemableLPTokenAmount",
      "outputs": [
        {
          "internalType": "uint256",
          "name": "_amount",
          "type": "uint256"
        }
      ],
      "stateMutability": "view",
      "type": "function"
    },
    {
      "inputs": [
        {
          "internalType": "address",
          "name": "",
          "type": "address"
        }
      ],
      "name": "canStake",
      "outputs": [
        {
          "internalType": "bool",
          "name": "",
          "type": "bool"
        }
      ],
      "stateMutability": "pure",
      "type": "function"
    },
    {
      "inputs": [
        {
          "internalType": "address",
          "name": "",
          "type": "address"
        },
        {
          "internalType": "uint256",
          "name": "",
          "type": "uint256"
        }
      ],
      "name": "coins",
      "outputs": [
        {
          "internalType": "address",
          "name": "",
          "type": "address"
        }
      ],
      "stateMutability": "view",
      "type": "function"
    },
    {
      "inputs": [
        {
          "internalType": "address payable",
          "name": "_vault",
          "type": "address"
        },
        {
          "internalType": "address",
          "name": "_underlyingToken",
          "type": "address"
        },
        {
          "internalType": "address",
          "name": "_liquidityPool",
          "type": "address"
        }
      ],
      "name": "getAllAmountInToken",
      "outputs": [
        {
          "internalType": "uint256",
          "name": "",
          "type": "uint256"
        }
      ],
      "stateMutability": "view",
      "type": "function"
    },
    {
      "inputs": [
        {
          "internalType": "address payable",
          "name": "_vault",
          "type": "address"
        },
        {
          "internalType": "address",
          "name": "_underlyingToken",
          "type": "address"
        },
        {
          "internalType": "address",
          "name": "_liquidityPool",
          "type": "address"
        }
      ],
      "name": "getDepositAllCodes",
      "outputs": [
        {
          "internalType": "bytes[]",
          "name": "",
          "type": "bytes[]"
        }
      ],
      "stateMutability": "view",
      "type": "function"
    },
    {
      "inputs": [
        {
          "internalType": "address payable",
          "name": "",
          "type": "address"
        },
        {
          "internalType": "address",
          "name": "_underlyingToken",
          "type": "address"
        },
        {
          "internalType": "address",
          "name": "_liquidityPool",
          "type": "address"
        },
        {
          "internalType": "uint256",
          "name": "_amount",
          "type": "uint256"
        }
      ],
      "name": "getDepositSomeCodes",
      "outputs": [
        {
          "internalType": "bytes[]",
          "name": "",
          "type": "bytes[]"
        }
      ],
      "stateMutability": "view",
      "type": "function"
    },
    {
      "inputs": [
        {
          "internalType": "address",
          "name": "",
          "type": "address"
        },
        {
          "internalType": "address",
          "name": "_liquidityPool",
          "type": "address"
        }
      ],
      "name": "getLiquidityPoolToken",
      "outputs": [
        {
          "internalType": "address",
          "name": "",
          "type": "address"
        }
      ],
      "stateMutability": "view",
      "type": "function"
    },
    {
      "inputs": [
        {
          "internalType": "address payable",
          "name": "_vault",
          "type": "address"
        },
        {
          "internalType": "address",
          "name": "",
          "type": "address"
        },
        {
          "internalType": "address",
          "name": "_liquidityPool",
          "type": "address"
        }
      ],
      "name": "getLiquidityPoolTokenBalance",
      "outputs": [
        {
          "internalType": "uint256",
          "name": "",
          "type": "uint256"
        }
      ],
      "stateMutability": "view",
      "type": "function"
    },
    {
      "inputs": [
        {
          "internalType": "address",
          "name": "_liquidityPool",
          "type": "address"
        },
        {
          "internalType": "address",
          "name": "",
          "type": "address"
        }
      ],
      "name": "getPoolValue",
      "outputs": [
        {
          "internalType": "uint256",
          "name": "",
          "type": "uint256"
        }
      ],
      "stateMutability": "view",
      "type": "function"
    },
    {
      "inputs": [
        {
          "internalType": "address",
          "name": "",
          "type": "address"
        }
      ],
      "name": "getRewardToken",
      "outputs": [
        {
          "internalType": "address",
          "name": "",
          "type": "address"
        }
      ],
      "stateMutability": "pure",
      "type": "function"
    },
    {
      "inputs": [
        {
          "internalType": "address",
          "name": "_underlyingToken",
          "type": "address"
        },
        {
          "internalType": "address",
          "name": "_liquidityPool",
          "type": "address"
        },
        {
          "internalType": "uint256",
          "name": "_liquidityPoolTokenAmount",
          "type": "uint256"
        }
      ],
      "name": "getSomeAmountInToken",
      "outputs": [
        {
          "internalType": "uint256",
          "name": "",
          "type": "uint256"
        }
      ],
      "stateMutability": "view",
      "type": "function"
    },
    {
      "inputs": [
        {
          "internalType": "address",
          "name": "_liquidityPool",
          "type": "address"
        },
        {
          "internalType": "address",
          "name": "",
          "type": "address"
        }
      ],
      "name": "getUnderlyingTokens",
      "outputs": [
        {
          "internalType": "address[]",
          "name": "_underlyingTokens",
          "type": "address[]"
        }
      ],
      "stateMutability": "view",
      "type": "function"
    },
    {
      "inputs": [
        {
          "internalType": "address payable",
          "name": "_vault",
          "type": "address"
        },
        {
          "internalType": "address",
          "name": "_underlyingToken",
          "type": "address"
        },
        {
          "internalType": "address",
          "name": "_liquidityPool",
          "type": "address"
        }
      ],
      "name": "getWithdrawAllCodes",
      "outputs": [
        {
          "internalType": "bytes[]",
          "name": "_codes",
          "type": "bytes[]"
        }
      ],
      "stateMutability": "view",
      "type": "function"
    },
    {
      "inputs": [
        {
          "internalType": "address payable",
          "name": "",
          "type": "address"
        },
        {
          "internalType": "address",
          "name": "_underlyingToken",
          "type": "address"
        },
        {
          "internalType": "address",
          "name": "_liquidityPool",
          "type": "address"
        },
        {
          "internalType": "uint256",
          "name": "_amount",
          "type": "uint256"
        }
      ],
      "name": "getWithdrawSomeCodes",
      "outputs": [
        {
          "internalType": "bytes[]",
          "name": "_codes",
          "type": "bytes[]"
        }
      ],
      "stateMutability": "view",
      "type": "function"
    },
    {
      "inputs": [
        {
          "internalType": "address payable",
          "name": "_vault",
          "type": "address"
        },
        {
          "internalType": "address",
          "name": "_underlyingToken",
          "type": "address"
        },
        {
          "internalType": "address",
          "name": "_liquidityPool",
          "type": "address"
        },
        {
          "internalType": "uint256",
          "name": "_redeemAmount",
          "type": "uint256"
        }
      ],
      "name": "isRedeemableAmountSufficient",
      "outputs": [
        {
          "internalType": "bool",
          "name": "",
          "type": "bool"
        }
      ],
      "stateMutability": "view",
      "type": "function"
    },
    {
      "inputs": [
        {
          "internalType": "address",
          "name": "",
          "type": "address"
        }
      ],
      "name": "maxDepositAmount",
      "outputs": [
        {
          "internalType": "uint256",
          "name": "",
          "type": "uint256"
        }
      ],
      "stateMutability": "view",
      "type": "function"
    },
    {
      "inputs": [
        {
          "internalType": "address",
          "name": "",
          "type": "address"
        }
      ],
      "name": "maxDepositPoolPct",
      "outputs": [
        {
          "internalType": "uint256",
          "name": "",
          "type": "uint256"
        }
      ],
      "stateMutability": "view",
      "type": "function"
    },
    {
      "inputs": [],
      "name": "maxDepositProtocolMode",
      "outputs": [
        {
          "internalType": "enum MaxExposure",
          "name": "",
          "type": "uint8"
        }
      ],
      "stateMutability": "view",
      "type": "function"
    },
    {
      "inputs": [],
      "name": "maxDepositProtocolPct",
      "outputs": [
        {
          "internalType": "uint256",
          "name": "",
          "type": "uint256"
        }
      ],
      "stateMutability": "view",
      "type": "function"
    },
    {
      "inputs": [
        {
          "internalType": "address",
          "name": "",
          "type": "address"
        }
      ],
      "name": "nTokens",
      "outputs": [
        {
          "internalType": "uint256",
          "name": "",
          "type": "uint256"
        }
      ],
      "stateMutability": "view",
      "type": "function"
    },
    {
      "inputs": [
        {
          "internalType": "address",
          "name": "",
          "type": "address"
        }
      ],
      "name": "noZeroAllowanceAllowed",
      "outputs": [
        {
          "internalType": "bool",
          "name": "",
          "type": "bool"
        }
      ],
      "stateMutability": "view",
      "type": "function"
    },
    {
      "inputs": [],
      "name": "registryContract",
      "outputs": [
        {
          "internalType": "contract IAdapterRegistryBase",
          "name": "",
          "type": "address"
        }
      ],
      "stateMutability": "view",
      "type": "function"
    },
    {
      "inputs": [],
      "name": "renBTC",
      "outputs": [
        {
          "internalType": "address",
          "name": "",
          "type": "address"
        }
      ],
      "stateMutability": "view",
      "type": "function"
    },
    {
      "inputs": [
        {
          "internalType": "address[]",
          "name": "_pools",
          "type": "address[]"
        },
        {
          "internalType": "bool[]",
          "name": "_calcWithdrawOneCoinNotSame",
          "type": "bool[]"
        }
      ],
      "name": "setCalcWithdrawOneCoinNotSame",
      "outputs": [],
      "stateMutability": "nonpayable",
      "type": "function"
    },
    {
      "inputs": [
        {
          "internalType": "address",
          "name": "_liquidityPool",
          "type": "address"
        },
        {
          "internalType": "address",
          "name": "",
          "type": "address"
        },
        {
          "internalType": "uint256",
          "name": "_maxDepositAmount",
          "type": "uint256"
        }
      ],
      "name": "setMaxDepositAmount",
      "outputs": [],
      "stateMutability": "nonpayable",
      "type": "function"
    },
    {
      "inputs": [
        {
          "internalType": "address",
          "name": "_liquidityPool",
          "type": "address"
        },
        {
          "internalType": "uint256",
          "name": "_maxDepositPoolPct",
          "type": "uint256"
        }
      ],
      "name": "setMaxDepositPoolPct",
      "outputs": [],
      "stateMutability": "nonpayable",
      "type": "function"
    },
    {
      "inputs": [
        {
          "internalType": "enum MaxExposure",
          "name": "_mode",
          "type": "uint8"
        }
      ],
      "name": "setMaxDepositProtocolMode",
      "outputs": [],
      "stateMutability": "nonpayable",
      "type": "function"
    },
    {
      "inputs": [
        {
          "internalType": "uint256",
          "name": "_maxDepositProtocolPct",
          "type": "uint256"
        }
      ],
      "name": "setMaxDepositProtocolPct",
      "outputs": [],
      "stateMutability": "nonpayable",
      "type": "function"
    },
    {
      "inputs": [
        {
          "internalType": "address[]",
          "name": "_tokens",
          "type": "address[]"
        },
        {
          "internalType": "bool[]",
          "name": "_noZeroAllowanceAllowed",
          "type": "bool[]"
        }
      ],
      "name": "setNoZeroAllowanceAllowed",
      "outputs": [],
      "stateMutability": "nonpayable",
      "type": "function"
    },
    {
      "inputs": [
        {
          "internalType": "address",
          "name": "_registry",
          "type": "address"
        }
      ],
      "name": "setRegistry",
      "outputs": [],
      "stateMutability": "nonpayable",
      "type": "function"
    },
    {
      "inputs": [
        {
          "internalType": "address[]",
          "name": "_pools",
          "type": "address[]"
        },
        {
          "internalType": "address[]",
          "name": "_tokens",
          "type": "address[]"
        },
        {
          "internalType": "int128[]",
          "name": "_indexes",
          "type": "int128[]"
        }
      ],
      "name": "setTokenIndexes",
      "outputs": [],
      "stateMutability": "nonpayable",
      "type": "function"
    },
    {
      "inputs": [
        {
          "internalType": "address",
          "name": "",
          "type": "address"
        },
        {
          "internalType": "address",
          "name": "",
          "type": "address"
        }
      ],
      "name": "tokenIndexes",
      "outputs": [
        {
          "internalType": "int128",
          "name": "",
          "type": "int128"
        }
      ],
      "stateMutability": "view",
      "type": "function"
    },
    {
      "inputs": [
        {
          "internalType": "address",
          "name": "",
          "type": "address"
        },
        {
          "internalType": "uint256",
          "name": "",
          "type": "uint256"
        }
      ],
      "name": "underlyingCoins",
      "outputs": [
        {
          "internalType": "address",
          "name": "",
          "type": "address"
        }
      ],
      "stateMutability": "view",
      "type": "function"
    }
  ],
  "transactionHash": "0xca9a479d4dc154611f0293aaa377c0417ee883537b33207b8583bc43abcbd196",
  "args": [
    "0x32bd1a6fdaec327b57cdb2cfde0855afb3255d7c"
  ],
  "bytecode": "0x60806040523480156200001157600080fd5b506040516200325938038062003259833981016040819052620000349162000310565b600080546127106001908155600160a01b6001600160a81b03199092166001600160a01b0394909416939093171781557f545a5828ad9cfa94b1985f76572c241942ef8c96c20055464d2a886269db219280546001600160801b03199081169091557fd39204ae963dbdb29c8a7e4ae272e7a25435f88868693ae051bffc92ffe3c65580548216841790557f7d83540524facb2e4471952a8e70ccc214b6dbaa4312d25948e858db32f3c59180546002908316811790915560037f1c0091c5c8a33663b85f7cf7ede7900c37c1b4b840fc29568d3b0a49b807ac99557f44a04fd2c13a041eea89befc6d17a4ff37aa1aa28e511c88f929dcc1433b606c80546001600160a01b0319908116738f3cf7ad23cd3cadbd9735aff958023239c6a063179091557f44a04fd2c13a041eea89befc6d17a4ff37aa1aa28e511c88f929dcc1433b606d80548216732791bca1f2de4661ed88a30c99a7a9449aa841741790557f44a04fd2c13a041eea89befc6d17a4ff37aa1aa28e511c88f929dcc1433b606e8054821673c2132d05d31c914a87c6611c10748aeb04b58e8f1790557f576ab61c2c940e11403b3f907068ed7eb48a4debaac990182c5420c494ef4e008054841690557ff74137c0900ab93eed3bf7ddd12fe2a27d9f746ad1b81a6348d590579e9f5bac805490931690941790915573c2d95eef97ec6c17551d45e77b590dc1f9117c679091527f54b003e60a6a993960fbaa2cd19887526ff2871e49f0ed4b0ceecdd4418124e3557f976e228f930d23f832de6c160bb04b73b1a79f404246a7158d43edeb1533e0338054821673dbf31df14b66535af65aac99c32e9ea844e1450190811790915560076020527f29bb1356bc197d819e4a0cee886e87997c2d3bc5036fa78f91500ac79d5208f480548316731bfd67037b42cf73acf2047067bd4f2c47d9bfd61790557f29bb1356bc197d819e4a0cee886e87997c2d3bc5036fa78f91500ac79d5208f5805490921617905562000342565b6000602082840312156200032357600080fd5b81516001600160a01b03811681146200033b57600080fd5b9392505050565b612f0780620003526000396000f3fe608060405234801561001057600080fd5b50600436106102535760003560e01c80638ea3b34a11610146578063df935722116100c3578063ee665bed11610087578063ee665bed146105d8578063ef856be9146105eb578063f1aacbb71461060b578063f44941711461061e578063f49307ca14610641578063fc4773431461065457600080fd5b8063df93572214610561578063e0bab4c414610574578063e13e18521461058f578063e49d5ecc146105aa578063e595cbb6146105bd57600080fd5b8063c42fa7f41161010a578063c42fa7f4146104ed578063c54e44eb14610500578063d64410461461051b578063d74baaf81461053b578063da699f961461054e57600080fd5b80638ea3b34a1461048e57806390e61605146104a1578063919b69d7146104b4578063a6016c94146104c7578063a91ee0dc146104da57600080fd5b80634dede3de116101d457806364dd5f801161019857806364dd5f801461042c578063770788721461043f5780637c47b3f41461044d57806385541e441461046057806389a302711461047357600080fd5b80634dede3de146103a35780634f83b52d146103be5780635bd83d1c146103de5780635fbc1031146103fe578063609257791461041957600080fd5b80632af06b961161021b5780632af06b96146103285780632de778381461034957806336d8bf931461035c578063489b5295146103705780634ad36e021461039057600080fd5b8063191c194b146102585780631b6486d6146102745780631c9f99e4146102b55780632390db2d146102ca57806328c1f99b146102fd575b600080fd5b61026160015481565b6040519081526020015b60405180910390f35b6102a26102823660046125f0565b6004602090815260009283526040808420909152908252902054600f0b81565b604051600f9190910b815260200161026b565b6102c86102c3366004612708565b610667565b005b6102ed6102d83660046127f6565b60096020526000908152604090205460ff1681565b604051901515815260200161026b565b600054610310906001600160a01b031681565b6040516001600160a01b03909116815260200161026b565b60005461033c90600160a01b900460ff1681565b60405161026b9190612829565b6102616103573660046125f0565b61089f565b6102ed61036a3660046127f6565b50600090565b61038361037e366004612851565b61099c565b60405161026b91906128e9565b61026161039e36600461294b565b610a20565b610310731bfd67037b42cf73acf2047067bd4f2c47d9bfd681565b6102616103cc3660046127f6565b60036020526000908152604090205481565b6102616103ec3660046127f6565b60056020526000908152604090205481565b61031073dbf31df14b66535af65aac99c32e9ea844e1450181565b61038361042736600461294b565b610a6c565b61026161043a366004612851565b610ca0565b61031061036a3660046127f6565b6102c861045b36600461299c565b610cb2565b61026161046e3660046129bd565b610dcd565b610310732791bca1f2de4661ed88a30c99a7a9449aa8417481565b61031061049c3660046129fe565b611060565b6102616104af366004612851565b61108e565b6102c86104c23660046129fe565b611107565b6102c86104d5366004612a2a565b61121c565b6102c86104e83660046127f6565b611399565b6103106104fb3660046129fe565b611487565b61031073c2132d05d31c914a87c6611c10748aeb04b58e8f81565b6102616105293660046127f6565b60026020526000908152604090205481565b6103106105493660046125f0565b6114a3565b6102c861055c366004612af4565b611507565b61038361056f36600461294b565b6115e1565b610310738f3cf7ad23cd3cadbd9735aff958023239c6a06381565b61031073c2d95eef97ec6c17551d45e77b590dc1f9117c6781565b6102ed6105b836600461294b565b6115f7565b61031073445fe580ef8d70ff569ab36e80c647af338db35181565b6102616105e63660046129bd565b611612565b6105fe6105f93660046125f0565b61176f565b60405161026b9190612b0d565b6102c86106193660046129bd565b61188b565b6102ed61062c3660046127f6565b60086020526000908152604090205460ff1681565b61038361064f366004612851565b6119a1565b6102c8610662366004612a2a565b6119b4565b60008054906101000a90046001600160a01b03166001600160a01b031663e7f43c686040518163ffffffff1660e01b8152600401602060405180830381865afa1580156106b8573d6000803e3d6000fd5b505050506040513d601f19601f820116820180604052508101906106dc9190612b5a565b6001600160a01b0316336001600160a01b0316146107155760405162461bcd60e51b815260040161070c90612b77565b60405180910390fd5b82518251811480156107275750815181145b6107435760405162461bcd60e51b815260040161070c90612bae565b60005b818110156108985761077a85828151811061076357610763612bcf565b60200260200101516001600160a01b03163b151590565b6107965760405162461bcd60e51b815260040161070c90612be5565b6107ab84828151811061076357610763612bcf565b6107c75760405162461bcd60e51b815260040161070c90612be5565b8281815181106107d9576107d9612bcf565b6020026020010151600460008784815181106107f7576107f7612bcf565b60200260200101516001600160a01b03166001600160a01b03168152602001908152602001600020600086848151811061083357610833612bcf565b6020908102919091018101516001600160a01b0316825281019190915260400160002080546fffffffffffffffffffffffffffffffff19166fffffffffffffffffffffffffffffffff929092169190911790558061089081612c20565b915050610746565b5050505050565b600080836001600160a01b031663bb7b8b806040518163ffffffff1660e01b8152600401602060405180830381865afa1580156108e0573d6000803e3d6000fd5b505050506040513d601f19601f820116820180604052508101906109049190612c3b565b9050600061091185611afa565b6001600160a01b03166318160ddd6040518163ffffffff1660e01b8152600401602060405180830381865afa15801561094e573d6000803e3d6000fd5b505050506040513d601f19601f820116820180604052508101906109729190612c3b565b9050670de0b6b3a76400006109878284612c54565b6109919190612c73565b925050505b92915050565b6040516370a0823160e01b81526001600160a01b038481166004830152606091610a1691859185918316906370a0823190602401602060405180830381865afa1580156109ed573d6000803e3d6000fd5b505050506040513d601f19601f82011682018060405250810190610a119190612c3b565b611b5e565b90505b9392505050565b600080610a2e86868661108e565b90506000610a3d878787610ca0565b905080610a4a8584612c54565b610a549190612c73565b610a5f906001612c95565b925050505b949350505050565b60608115610a64576000610a816000856114a3565b60408051600380825260808201909252919250816020015b6060815260200190600190039081610a99575050604080516001600160a01b038716602482015260006044808301919091528251808303909101815260649091018252602080820180516001600160e01b031663095ea7b360e01b1790529151929450610b0892849201612cad565b60405160208183030381529060405282600081518110610b2a57610b2a612bcf565b602090810291909101810191909152604080516001600160a01b03871660248201526044808201879052825180830390910181526064909101825280830180516001600160e01b031663095ea7b360e01b1790529051610b8d9284929101612cad565b60405160208183030381529060405282600181518110610baf57610baf612bcf565b6020908102919091018101919091526001600160a01b03808616600090815260048352604080822092891682529190925290205484908490600f0b6064610bf7898585611612565b610c0290605f612c54565b610c0c9190612c73565b6040516024810193909352600f9190910b604483015260648201526001608482015260a40160408051601f19818403018152918152602080830180516001600160e01b031663517a55a360e01b1790529051610c6a93929101612cad565b60405160208183030381529060405282600281518110610c8c57610c8c612bcf565b602002602001018190525050949350505050565b6000610a1683836105e687878761108e565b60008054906101000a90046001600160a01b03166001600160a01b0316637af0e5576040518163ffffffff1660e01b8152600401602060405180830381865afa158015610d03573d6000803e3d6000fd5b505050506040513d601f19601f82011682018060405250810190610d279190612b5a565b6001600160a01b0316336001600160a01b031614610d575760405162461bcd60e51b815260040161070c90612cd1565b6000805482919060ff60a01b1916600160a01b836001811115610d7c57610d7c612813565b02179055506000543390600160a01b900460ff166001811115610da157610da1612813565b6040517f68e3b01155b193b02181f2c0ed491c934a74348d211ff023f8fc6ac5edf22aa090600090a350565b60008115611056576001600160a01b038316600090815260056020908152604080832054600790925280832081516101008101928390529293929160089082845b81546001600160a01b03168152600190910190602001808311610e0e575050505050905060008267ffffffffffffffff811115610e4d57610e4d612629565b604051908082528060200260200182016040528015610e76578160200160208202803683370190505b50905060005b83811015610ee657876001600160a01b0316838260088110610ea057610ea0612bcf565b60200201516001600160a01b03161415610ed45785828281518110610ec757610ec7612bcf565b6020026020010181815250505b80610ede81612c20565b915050610e7c565b508260021415610fb257856001600160a01b031663ed8e84f3604051806040016040528084600081518110610f1d57610f1d612bcf565b6020026020010151815260200184600181518110610f3d57610f3d612bcf565b602002602001015181525060016040518363ffffffff1660e01b8152600401610f67929190612d2b565b602060405180830381865afa158015610f84573d6000803e3d6000fd5b505050506040513d601f19601f82011682018060405250810190610fa89190612c3b565b9350505050610a19565b826003141561105257856001600160a01b0316633883e119604051806060016040528084600081518110610fe857610fe8612bcf565b602002602001015181526020018460018151811061100857611008612bcf565b602002602001015181526020018460028151811061102857611028612bcf565b602002602001015181525060016040518363ffffffff1660e01b8152600401610f67929190612d6b565b5050505b5060009392505050565b6007602052816000526040600020816008811061107c57600080fd5b01546001600160a01b03169150829050565b600061109b6000836114a3565b6040516370a0823160e01b81526001600160a01b03868116600483015291909116906370a0823190602401602060405180830381865afa1580156110e3573d6000803e3d6000fd5b505050506040513d601f19601f82011682018060405250810190610a169190612c3b565b60008054906101000a90046001600160a01b03166001600160a01b0316637af0e5576040518163ffffffff1660e01b8152600401602060405180830381865afa158015611158573d6000803e3d6000fd5b505050506040513d601f19601f8201168201806040525081019061117c9190612b5a565b6001600160a01b0316336001600160a01b0316146111ac5760405162461bcd60e51b815260040161070c90612cd1565b6001600160a01b0382163b6111d35760405162461bcd60e51b815260040161070c90612be5565b6001600160a01b03821660009081526003602052604080822083905551339183917fac58e29a41d996caca756d050dce90806b277f0c939337653638329247e16f4c9190a35050565b60008054906101000a90046001600160a01b03166001600160a01b031663e7f43c686040518163ffffffff1660e01b8152600401602060405180830381865afa15801561126d573d6000803e3d6000fd5b505050506040513d601f19601f820116820180604052508101906112919190612b5a565b6001600160a01b0316336001600160a01b0316146112c15760405162461bcd60e51b815260040161070c90612b77565b8151815181146112e35760405162461bcd60e51b815260040161070c90612bae565b60005b818110156113935761130384828151811061076357610763612bcf565b61131f5760405162461bcd60e51b815260040161070c90612be5565b82818151811061133157611331612bcf565b60200260200101516008600086848151811061134f5761134f612bcf565b6020908102919091018101516001600160a01b03168252810191909152604001600020805460ff19169115159190911790558061138b81612c20565b9150506112e6565b50505050565b60008054906101000a90046001600160a01b03166001600160a01b031663e7f43c686040518163ffffffff1660e01b8152600401602060405180830381865afa1580156113ea573d6000803e3d6000fd5b505050506040513d601f19601f8201168201806040525081019061140e9190612b5a565b6001600160a01b0316336001600160a01b03161461143e5760405162461bcd60e51b815260040161070c90612b77565b6001600160a01b0381163b6114655760405162461bcd60e51b815260040161070c90612be5565b600080546001600160a01b0319166001600160a01b0392909216919091179055565b6006602052816000526040600020816008811061107c57600080fd5b6000816001600160a01b03166382c630666040518163ffffffff1660e01b8152600401602060405180830381865afa1580156114e3573d6000803e3d6000fd5b505050506040513d601f19601f82011682018060405250810190610a199190612b5a565b60008054906101000a90046001600160a01b03166001600160a01b0316637af0e5576040518163ffffffff1660e01b8152600401602060405180830381865afa158015611558573d6000803e3d6000fd5b505050506040513d601f19601f8201168201806040525081019061157c9190612b5a565b6001600160a01b0316336001600160a01b0316146115ac5760405162461bcd60e51b815260040161070c90612cd1565b6001819055604051339082907f19c60b0612798cc65bd298cd47e17d9fd07e74e0d3baa6c0019411bb334d9bda90600090a350565b60606115ee848484611b5e565b95945050505050565b600080611605868686610ca0565b9092111595945050505050565b60008115611056576001600160a01b03831660009081526009602052604090205460ff166116d0576001600160a01b038381166000818152600460208181526040808420958a1684529490529083902054925163cc2b27d760e01b8152908101859052600f9290920b60248301529063cc2b27d790604401602060405180830381865afa1580156116a7573d6000803e3d6000fd5b505050506040513d601f19601f820116820180604052508101906116cb9190612c3b565b611768565b6001600160a01b038381166000818152600460208181526040808420958a1684529490529083902054925163314ca9dd60e21b8152908101859052600f9290920b6024830152600160448301529063c532a77490606401602060405180830381865afa158015611744573d6000803e3d6000fd5b505050506040513d601f19601f820116820180604052508101906117689190612c3b565b9050610a19565b6001600160a01b03821660009081526007602052604080822081516101008101928390526060939290919060089082845b81546001600160a01b031681526001909101906020018083116117a0575050506001600160a01b0387166000908152600560205260409020549293508291505067ffffffffffffffff8111156117f8576117f8612629565b604051908082528060200260200182016040528015611821578160200160208202803683370190505b50925060005b818110156118825782816008811061184157611841612bcf565b602002015184828151811061185857611858612bcf565b6001600160a01b03909216602092830291909101909101528061187a81612c20565b915050611827565b50505092915050565b60008054906101000a90046001600160a01b03166001600160a01b0316637af0e5576040518163ffffffff1660e01b8152600401602060405180830381865afa1580156118dc573d6000803e3d6000fd5b505050506040513d601f19601f820116820180604052508101906119009190612b5a565b6001600160a01b0316336001600160a01b0316146119305760405162461bcd60e51b815260040161070c90612cd1565b6001600160a01b0383163b6119575760405162461bcd60e51b815260040161070c90612be5565b6001600160a01b03831660009081526002602052604080822083905551339183917f197807a6a2633dd9bde6550aca985cfc69e655e9130930314c0e9da01a75cc549190a3505050565b6060610a1684848461042788888861108e565b60008054906101000a90046001600160a01b03166001600160a01b031663e7f43c686040518163ffffffff1660e01b8152600401602060405180830381865afa158015611a05573d6000803e3d6000fd5b505050506040513d601f19601f82011682018060405250810190611a299190612b5a565b6001600160a01b0316336001600160a01b031614611a595760405162461bcd60e51b815260040161070c90612b77565b815181518114611a7b5760405162461bcd60e51b815260040161070c90612bae565b60005b8181101561139357828181518110611a9857611a98612bcf565b602002602001015160096000868481518110611ab657611ab6612bcf565b6020908102919091018101516001600160a01b03168252810191909152604001600020805460ff191691151591909117905580611af281612c20565b915050611a7e565b6000816001600160a01b03166382c630666040518163ffffffff1660e01b8152600401602060405180830381865afa158015611b3a573d6000803e3d6000fd5b505050506040513d601f19601f820116820180604052508101906109969190612b5a565b6060600080600080611b718888886121d9565b935093509350935060018111156121ce578067ffffffffffffffff811115611b9b57611b9b612629565b604051908082528060200260200182016040528015611bce57816020015b6060815260200190600190039081611bb95790505b5094506000805b85811015611ee7576000848281518110611bf157611bf1612bcf565b60200260200101511115611ed55760086000868360088110611c1557611c15612bcf565b602090810291909101516001600160a01b031682528101919091526040016000205460ff1615611d2f57848160088110611c5157611c51612bcf565b6020020151858260088110611c6857611c68612bcf565b60200201516001600160a01b031663095ea7b38b878581518110611c8e57611c8e612bcf565b60209081029190910101516040516001600160a01b0390921660248301526044820152606401604051602081830303815290604052915060e01b6020820180516001600160e01b038381831617835250505050604051602001611cf2929190612cad565b604051602081830303815290604052878380611d0d90612c20565b945081518110611d1f57611d1f612bcf565b6020026020010181905250611ed5565b848160088110611d4157611d41612bcf565b6020020151858260088110611d5857611d58612bcf565b5050604080516001600160a01b038c16602482015260006044808301919091528251808303909101815260649091018252602081810180516001600160e01b031663095ea7b360e01b1790529151611db1939201612cad565b604051602081830303815290604052878380611dcc90612c20565b945081518110611dde57611dde612bcf565b6020026020010181905250848160088110611dfb57611dfb612bcf565b6020020151858260088110611e1257611e12612bcf565b60200201516001600160a01b031663095ea7b38b878581518110611e3857611e38612bcf565b60209081029190910101516040516001600160a01b0390921660248301526044820152606401604051602081830303815290604052915060e01b6020820180516001600160e01b038381831617835250505050604051602001611e9c929190612cad565b604051602081830303815290604052878380611eb790612c20565b945081518110611ec957611ec9612bcf565b60200260200101819052505b80611edf81612c20565b915050611bd5565b50600285141561204c576000604051806040016040528085600081518110611f1157611f11612bcf565b6020026020010151815260200185600181518110611f3157611f31612bcf565b60200260200101518152509050600060648a6001600160a01b031663ed8e84f38460016040518363ffffffff1660e01b8152600401611f71929190612d2b565b602060405180830381865afa158015611f8e573d6000803e3d6000fd5b505050506040513d601f19601f82011682018060405250810190611fb29190612c3b565b611fbd90605f612c54565b611fc79190612c73565b90508982826001604051602401611fe093929190612d88565b60408051601f19818403018152918152602080830180516001600160e01b031663ee22be2360e01b179052905161201993929101612cad565b60405160208183030381529060405288848151811061203a5761203a612bcf565b602002602001018190525050506121cc565b60038514156121cc57600060405180606001604052808560008151811061207557612075612bcf565b602002602001015181526020018560018151811061209557612095612bcf565b60200260200101518152602001856002815181106120b5576120b5612bcf565b60200260200101518152509050600060648a6001600160a01b0316633883e1198460016040518363ffffffff1660e01b81526004016120f5929190612d6b565b602060405180830381865afa158015612112573d6000803e3d6000fd5b505050506040513d601f19601f820116820180604052508101906121369190612c3b565b61214190605f612c54565b61214b9190612c73565b9050898282600160405160240161216493929190612dac565b60408051601f19818403018152918152602080830180516001600160e01b03166315b74c9d60e11b179052905161219d93929101612cad565b6040516020818303038152906040528884815181106121be576121be612bcf565b602002602001018190525050505b505b505050509392505050565b60006121e36125b9565b6001600160a01b03841660009081526005602090815260408083205460079092528083208151610100810192839052929550606093929160089082845b81546001600160a01b0316815260019091019060200180831161222057505050505092508367ffffffffffffffff81111561225d5761225d612629565b604051908082528060200260200182016040528015612286578160200160208202803683370190505b50915060005b8481101561237957876001600160a01b03168482600881106122b0576122b0612bcf565b60200201516001600160a01b03161415612367576122d98789886122d48b8d61089f565b612383565b8382815181106122eb576122eb612bcf565b602002602001018181525050600083828151811061230b5761230b612bcf565b60200260200101511115612367576008600085836008811061232f5761232f612bcf565b602090810291909101516001600160a01b031682528101919091526040016000205460ff16156123625760029150612367565b600391505b8061237181612c20565b91505061228c565b5093509350935093565b60006001600054600160a01b900460ff1660018111156123a5576123a5612813565b146123ba576123b58585856123c6565b6115ee565b6115ee85858585612486565b600080836001600160a01b031663313ce5676040518163ffffffff1660e01b8152600401602060405180830381865afa158015612407573d6000803e3d6000fd5b505050506040513d601f19601f8201168201806040525081019061242b9190612dd0565b60ff169050600061243d826012612df3565b61244890600a612eee565b6001600160a01b03871660009081526002602052604090205461246b9190612c73565b905080841161247a578361247c565b805b9695505050505050565b60008060036000876001600160a01b03166001600160a01b031681526020019081526020016000205490506000856001600160a01b031663313ce5676040518163ffffffff1660e01b8152600401602060405180830381865afa1580156124f1573d6000803e3d6000fd5b505050506040513d601f19601f820116820180604052508101906125159190612dd0565b60ff1690506000612527826012612df3565b61253290600a612eee565b61253c9087612c54565b905060008315612562576127106125538588612c54565b61255d9190612c73565b61257d565b612710600154876125739190612c54565b61257d9190612c73565b905080821161258c57866125ac565b612597836012612df3565b6125a290600a612eee565b6125ac9082612c73565b9998505050505050505050565b6040518061010001604052806008906020820280368337509192915050565b6001600160a01b03811681146125ed57600080fd5b50565b6000806040838503121561260357600080fd5b823561260e816125d8565b9150602083013561261e816125d8565b809150509250929050565b634e487b7160e01b600052604160045260246000fd5b604051601f8201601f1916810167ffffffffffffffff8111828210171561266857612668612629565b604052919050565b600067ffffffffffffffff82111561268a5761268a612629565b5060051b60200190565b600082601f8301126126a557600080fd5b813560206126ba6126b583612670565b61263f565b82815260059290921b840181019181810190868411156126d957600080fd5b8286015b848110156126fd5780356126f0816125d8565b83529183019183016126dd565b509695505050505050565b60008060006060848603121561271d57600080fd5b833567ffffffffffffffff8082111561273557600080fd5b61274187838801612694565b945060209150818601358181111561275857600080fd5b61276488828901612694565b94505060408601358181111561277957600080fd5b86019050601f8101871361278c57600080fd5b803561279a6126b582612670565b81815260059190911b820183019083810190898311156127b957600080fd5b928401925b828410156127e757833580600f0b81146127d85760008081fd5b825292840192908401906127be565b80955050505050509250925092565b60006020828403121561280857600080fd5b8135610a19816125d8565b634e487b7160e01b600052602160045260246000fd5b602081016002831061284b57634e487b7160e01b600052602160045260246000fd5b91905290565b60008060006060848603121561286657600080fd5b8335612871816125d8565b92506020840135612881816125d8565b91506040840135612891816125d8565b809150509250925092565b6000815180845260005b818110156128c2576020818501810151868301820152016128a6565b818111156128d4576000602083870101525b50601f01601f19169290920160200192915050565b6000602080830181845280855180835260408601915060408160051b870101925083870160005b8281101561293e57603f1988860301845261292c85835161289c565b94509285019290850190600101612910565b5092979650505050505050565b6000806000806080858703121561296157600080fd5b843561296c816125d8565b9350602085013561297c816125d8565b9250604085013561298c816125d8565b9396929550929360600135925050565b6000602082840312156129ae57600080fd5b813560028110610a1957600080fd5b6000806000606084860312156129d257600080fd5b83356129dd816125d8565b925060208401356129ed816125d8565b929592945050506040919091013590565b60008060408385031215612a1157600080fd5b8235612a1c816125d8565b946020939093013593505050565b60008060408385031215612a3d57600080fd5b823567ffffffffffffffff80821115612a5557600080fd5b612a6186838701612694565b9350602091508185013581811115612a7857600080fd5b85019050601f81018613612a8b57600080fd5b8035612a996126b582612670565b81815260059190911b82018301908381019088831115612ab857600080fd5b928401925b82841015612ae55783358015158114612ad65760008081fd5b82529284019290840190612abd565b80955050505050509250929050565b600060208284031215612b0657600080fd5b5035919050565b6020808252825182820181905260009190848201906040850190845b81811015612b4e5783516001600160a01b031683529284019291840191600101612b29565b50909695505050505050565b600060208284031215612b6c57600080fd5b8151610a19816125d8565b6020808252601a908201527f63616c6c6572206973206e6f7420746865206f70657261746f72000000000000604082015260600190565b602080825260079082015266042d8cadccee8d60cb1b604082015260600190565b634e487b7160e01b600052603260045260246000fd5b6020808252600b908201526a085a5cd0dbdb9d1c9858dd60aa1b604082015260600190565b634e487b7160e01b600052601160045260246000fd5b6000600019821415612c3457612c34612c0a565b5060010190565b600060208284031215612c4d57600080fd5b5051919050565b6000816000190483118215151615612c6e57612c6e612c0a565b500290565b600082612c9057634e487b7160e01b600052601260045260246000fd5b500490565b60008219821115612ca857612ca8612c0a565b500190565b6001600160a01b0383168152604060208201819052600090610a169083018461289c565b6020808252601e908201527f63616c6c6572206973206e6f7420746865207269736b4f70657261746f720000604082015260600190565b8060005b6002811015611393578151845260209384019390910190600101612d0c565b60608101612d398285612d08565b82151560408301529392505050565b8060005b6003811015611393578151845260209384019390910190600101612d4c565b60808101612d798285612d48565b82151560608301529392505050565b60808101612d968286612d08565b8360408301528215156060830152949350505050565b60a08101612dba8286612d48565b8360608301528215156080830152949350505050565b600060208284031215612de257600080fd5b815160ff81168114610a1957600080fd5b600082821015612e0557612e05612c0a565b500390565b600181815b80851115612e45578160001904821115612e2b57612e2b612c0a565b80851615612e3857918102915b93841c9390800290612e0f565b509250929050565b600082612e5c57506001610996565b81612e6957506000610996565b8160018114612e7f5760028114612e8957612ea5565b6001915050610996565b60ff841115612e9a57612e9a612c0a565b50506001821b610996565b5060208310610133831016604e8410600b8410161715612ec8575081810a610996565b612ed28383612e0a565b8060001904821115612ee657612ee6612c0a565b029392505050565b6000610a198383612e4d56fea164736f6c634300080b000a"
}