{
  "address": "0x5D42368C37ee719dCb5Aa222b67B6Bc6c344BB31",
  "abi": [
    {
      "inputs": [
        {
          "internalType": "address",
          "name": "_registry",
          "type": "address"
        }
      ],
      "stateMutability": "nonpayable",
      "type": "constructor"
    },
    {
      "anonymous": false,
      "inputs": [
        {
          "indexed": true,
          "internalType": "address",
          "name": "owner",
          "type": "address"
        },
        {
          "indexed": true,
          "internalType": "address",
          "name": "spender",
          "type": "address"
        },
        {
          "indexed": false,
          "internalType": "uint256",
          "name": "value",
          "type": "uint256"
        }
      ],
      "name": "Approval",
      "type": "event"
    },
    {
      "anonymous": false,
      "inputs": [
        {
          "indexed": true,
          "internalType": "bool",
          "name": "emergencyShutdown",
          "type": "bool"
        },
        {
          "indexed": true,
          "internalType": "address",
          "name": "caller",
          "type": "address"
        }
      ],
      "name": "LogEmergencyShutdown",
      "type": "event"
    },
    {
      "anonymous": false,
      "inputs": [
        {
          "indexed": true,
          "internalType": "uint256",
          "name": "minimumDepositValueUT",
          "type": "uint256"
        },
        {
          "indexed": true,
          "internalType": "address",
          "name": "caller",
          "type": "address"
        }
      ],
      "name": "LogMinimumDepositValueUT",
      "type": "event"
    },
    {
      "anonymous": false,
      "inputs": [
        {
          "indexed": true,
          "internalType": "uint256",
          "name": "totalValueLockedLimitUT",
          "type": "uint256"
        },
        {
          "indexed": true,
          "internalType": "address",
          "name": "caller",
          "type": "address"
        }
      ],
      "name": "LogTotalValueLockedLimitUT",
      "type": "event"
    },
    {
      "anonymous": false,
      "inputs": [
        {
          "indexed": true,
          "internalType": "bool",
          "name": "unpaused",
          "type": "bool"
        },
        {
          "indexed": true,
          "internalType": "address",
          "name": "caller",
          "type": "address"
        }
      ],
      "name": "LogUnpause",
      "type": "event"
    },
    {
      "anonymous": false,
      "inputs": [
        {
          "indexed": true,
          "internalType": "uint256",
          "name": "userDepositCapUT",
          "type": "uint256"
        },
        {
          "indexed": true,
          "internalType": "address",
          "name": "caller",
          "type": "address"
        }
      ],
      "name": "LogUserDepositCapUT",
      "type": "event"
    },
    {
      "anonymous": false,
      "inputs": [
        {
          "indexed": true,
          "internalType": "address",
          "name": "from",
          "type": "address"
        },
        {
          "indexed": true,
          "internalType": "address",
          "name": "to",
          "type": "address"
        },
        {
          "indexed": false,
          "internalType": "uint256",
          "name": "value",
          "type": "uint256"
        }
      ],
      "name": "Transfer",
      "type": "event"
    },
    {
      "inputs": [],
      "name": "DOMAIN_SEPARATOR",
      "outputs": [
        {
          "internalType": "bytes32",
          "name": "",
          "type": "bytes32"
        }
      ],
      "stateMutability": "view",
      "type": "function"
    },
    {
      "inputs": [],
      "name": "EIP712_REVISION",
      "outputs": [
        {
          "internalType": "bytes",
          "name": "",
          "type": "bytes"
        }
      ],
      "stateMutability": "view",
      "type": "function"
    },
    {
      "inputs": [],
      "name": "PERMIT_TYPEHASH",
      "outputs": [
        {
          "internalType": "bytes32",
          "name": "",
          "type": "bytes32"
        }
      ],
      "stateMutability": "view",
      "type": "function"
    },
    {
      "inputs": [],
      "name": "_domainSeparator",
      "outputs": [
        {
          "internalType": "bytes32",
          "name": "",
          "type": "bytes32"
        }
      ],
      "stateMutability": "view",
      "type": "function"
    },
    {
      "inputs": [
        {
          "internalType": "bytes[]",
          "name": "_codes",
          "type": "bytes[]"
        }
      ],
      "name": "adminCall",
      "outputs": [],
      "stateMutability": "nonpayable",
      "type": "function"
    },
    {
      "inputs": [
        {
          "internalType": "address",
          "name": "owner",
          "type": "address"
        },
        {
          "internalType": "address",
          "name": "spender",
          "type": "address"
        }
      ],
      "name": "allowance",
      "outputs": [
        {
          "internalType": "uint256",
          "name": "",
          "type": "uint256"
        }
      ],
      "stateMutability": "view",
      "type": "function"
    },
    {
      "inputs": [
        {
          "internalType": "address",
          "name": "spender",
          "type": "address"
        },
        {
          "internalType": "uint256",
          "name": "amount",
          "type": "uint256"
        }
      ],
      "name": "approve",
      "outputs": [
        {
          "internalType": "bool",
          "name": "",
          "type": "bool"
        }
      ],
      "stateMutability": "nonpayable",
      "type": "function"
    },
    {
      "inputs": [
        {
          "internalType": "address",
          "name": "account",
          "type": "address"
        }
      ],
      "name": "balanceOf",
      "outputs": [
        {
          "internalType": "uint256",
          "name": "",
          "type": "uint256"
        }
      ],
      "stateMutability": "view",
      "type": "function"
    },
    {
      "inputs": [],
      "name": "balanceUT",
      "outputs": [
        {
          "internalType": "uint256",
          "name": "",
          "type": "uint256"
        }
      ],
      "stateMutability": "view",
      "type": "function"
    },
    {
      "inputs": [
        {
          "internalType": "uint256",
          "name": "",
          "type": "uint256"
        },
        {
          "internalType": "uint256",
          "name": "",
          "type": "uint256"
        }
      ],
      "name": "blockToBlockVaultValues",
      "outputs": [
        {
          "internalType": "uint256",
          "name": "actualVaultValue",
          "type": "uint256"
        },
        {
          "internalType": "uint256",
          "name": "blockMinVaultValue",
          "type": "uint256"
        },
        {
          "internalType": "uint256",
          "name": "blockMaxVaultValue",
          "type": "uint256"
        }
      ],
      "stateMutability": "view",
      "type": "function"
    },
    {
      "inputs": [
        {
          "internalType": "uint256",
          "name": "",
          "type": "uint256"
        }
      ],
      "name": "blockTransaction",
      "outputs": [
        {
          "internalType": "bool",
          "name": "",
          "type": "bool"
        }
      ],
      "stateMutability": "view",
      "type": "function"
    },
    {
      "inputs": [
        {
          "internalType": "uint256",
          "name": "_userDepositUT",
          "type": "uint256"
        }
      ],
      "name": "calcDepositFeeUT",
      "outputs": [
        {
          "internalType": "uint256",
          "name": "",
          "type": "uint256"
        }
      ],
      "stateMutability": "view",
      "type": "function"
    },
    {
      "inputs": [
        {
          "internalType": "uint256",
          "name": "_userWithdrawUT",
          "type": "uint256"
        }
      ],
      "name": "calcWithdrawalFeeUT",
      "outputs": [
        {
          "internalType": "uint256",
          "name": "",
          "type": "uint256"
        }
      ],
      "stateMutability": "view",
      "type": "function"
    },
    {
      "inputs": [
        {
          "internalType": "address",
          "name": "_liquidityPool",
          "type": "address"
        }
      ],
      "name": "claimRewardToken",
      "outputs": [],
      "stateMutability": "nonpayable",
      "type": "function"
    },
    {
      "inputs": [
        {
          "components": [
            {
              "internalType": "address",
              "name": "pool",
              "type": "address"
            },
            {
              "internalType": "address",
              "name": "outputToken",
              "type": "address"
            },
            {
              "internalType": "bool",
              "name": "isBorrow",
              "type": "bool"
            }
          ],
          "internalType": "struct DataTypes.StrategyStep[]",
          "name": "_investStrategySteps",
          "type": "tuple[]"
        }
      ],
      "name": "computeInvestStrategyHash",
      "outputs": [
        {
          "internalType": "bytes32",
          "name": "",
          "type": "bytes32"
        }
      ],
      "stateMutability": "view",
      "type": "function"
    },
    {
      "inputs": [],
      "name": "decimals",
      "outputs": [
        {
          "internalType": "uint8",
          "name": "",
          "type": "uint8"
        }
      ],
      "stateMutability": "view",
      "type": "function"
    },
    {
      "inputs": [
        {
          "internalType": "address",
          "name": "spender",
          "type": "address"
        },
        {
          "internalType": "uint256",
          "name": "subtractedValue",
          "type": "uint256"
        }
      ],
      "name": "decreaseAllowance",
      "outputs": [
        {
          "internalType": "bool",
          "name": "",
          "type": "bool"
        }
      ],
      "stateMutability": "nonpayable",
      "type": "function"
    },
    {
      "inputs": [],
      "name": "getInvestStrategySteps",
      "outputs": [
        {
          "components": [
            {
              "internalType": "address",
              "name": "pool",
              "type": "address"
            },
            {
              "internalType": "address",
              "name": "outputToken",
              "type": "address"
            },
            {
              "internalType": "bool",
              "name": "isBorrow",
              "type": "bool"
            }
          ],
          "internalType": "struct DataTypes.StrategyStep[]",
          "name": "",
          "type": "tuple[]"
        }
      ],
      "stateMutability": "view",
      "type": "function"
    },
    {
      "inputs": [
        {
          "components": [
            {
              "internalType": "address",
              "name": "pool",
              "type": "address"
            },
            {
              "internalType": "address",
              "name": "outputToken",
              "type": "address"
            },
            {
              "internalType": "bool",
              "name": "isBorrow",
              "type": "bool"
            }
          ],
          "internalType": "struct DataTypes.StrategyStep[]",
          "name": "_investStrategySteps",
          "type": "tuple[]"
        }
      ],
      "name": "getLastStrategyStepBalanceLP",
      "outputs": [
        {
          "internalType": "uint256",
          "name": "",
          "type": "uint256"
        }
      ],
      "stateMutability": "view",
      "type": "function"
    },
    {
      "inputs": [],
      "name": "getNextBestInvestStrategy",
      "outputs": [
        {
          "components": [
            {
              "internalType": "address",
              "name": "pool",
              "type": "address"
            },
            {
              "internalType": "address",
              "name": "outputToken",
              "type": "address"
            },
            {
              "internalType": "bool",
              "name": "isBorrow",
              "type": "bool"
            }
          ],
          "internalType": "struct DataTypes.StrategyStep[]",
          "name": "",
          "type": "tuple[]"
        }
      ],
      "stateMutability": "view",
      "type": "function"
    },
    {
      "inputs": [],
      "name": "getPricePerFullShare",
      "outputs": [
        {
          "internalType": "uint256",
          "name": "",
          "type": "uint256"
        }
      ],
      "stateMutability": "view",
      "type": "function"
    },
    {
      "inputs": [
        {
          "internalType": "contract IERC20[]",
          "name": "_tokens",
          "type": "address[]"
        },
        {
          "internalType": "address[]",
          "name": "_spenders",
          "type": "address[]"
        }
      ],
      "name": "giveAllowances",
      "outputs": [],
      "stateMutability": "nonpayable",
      "type": "function"
    },
    {
      "inputs": [
        {
          "internalType": "address",
          "name": "_rewardToken",
          "type": "address"
        },
        {
          "internalType": "address",
          "name": "_dex",
          "type": "address"
        },
        {
          "internalType": "bool",
          "name": "_isUniV3",
          "type": "bool"
        },
        {
          "internalType": "uint256",
          "name": "_minimumUnderlyingTokenAmount",
          "type": "uint256"
        },
        {
          "internalType": "uint256",
          "name": "_deadline",
          "type": "uint256"
        },
        {
          "internalType": "address[]",
          "name": "_path",
          "type": "address[]"
        },
        {
          "internalType": "bytes",
          "name": "_pathUniV3",
          "type": "bytes"
        }
      ],
      "name": "harvest",
      "outputs": [],
      "stateMutability": "nonpayable",
      "type": "function"
    },
    {
      "inputs": [
        {
          "internalType": "address",
          "name": "spender",
          "type": "address"
        },
        {
          "internalType": "uint256",
          "name": "addedValue",
          "type": "uint256"
        }
      ],
      "name": "increaseAllowance",
      "outputs": [
        {
          "internalType": "bool",
          "name": "",
          "type": "bool"
        }
      ],
      "stateMutability": "nonpayable",
      "type": "function"
    },
    {
      "inputs": [
        {
          "internalType": "address",
          "name": "_registry",
          "type": "address"
        },
        {
          "internalType": "bytes32",
          "name": "_underlyingTokensHash",
          "type": "bytes32"
        },
        {
          "internalType": "bytes32",
          "name": "_whitelistedAccountsRoot",
          "type": "bytes32"
        },
        {
          "internalType": "string",
          "name": "_symbol",
          "type": "string"
        },
        {
          "internalType": "uint256",
          "name": "_riskProfileCode",
          "type": "uint256"
        },
        {
          "internalType": "uint256",
          "name": "_vaultConfiguration",
          "type": "uint256"
        },
        {
          "internalType": "uint256",
          "name": "_userDepositCapUT",
          "type": "uint256"
        },
        {
          "internalType": "uint256",
          "name": "_minimumDepositValueUT",
          "type": "uint256"
        },
        {
          "internalType": "uint256",
          "name": "_totalValueLockedLimitUT",
          "type": "uint256"
        }
      ],
      "name": "initialize",
      "outputs": [],
      "stateMutability": "nonpayable",
      "type": "function"
    },
    {
      "inputs": [],
      "name": "investStrategyHash",
      "outputs": [
        {
          "internalType": "bytes32",
          "name": "",
          "type": "bytes32"
        }
      ],
      "stateMutability": "view",
      "type": "function"
    },
    {
      "inputs": [
        {
          "internalType": "uint256",
          "name": "",
          "type": "uint256"
        }
      ],
      "name": "investStrategySteps",
      "outputs": [
        {
          "internalType": "address",
          "name": "pool",
          "type": "address"
        },
        {
          "internalType": "address",
          "name": "outputToken",
          "type": "address"
        },
        {
          "internalType": "bool",
          "name": "isBorrow",
          "type": "bool"
        }
      ],
      "stateMutability": "view",
      "type": "function"
    },
    {
      "inputs": [],
      "name": "minimumDepositValueUT",
      "outputs": [
        {
          "internalType": "uint256",
          "name": "",
          "type": "uint256"
        }
      ],
      "stateMutability": "view",
      "type": "function"
    },
    {
      "inputs": [],
      "name": "name",
      "outputs": [
        {
          "internalType": "string",
          "name": "",
          "type": "string"
        }
      ],
      "stateMutability": "view",
      "type": "function"
    },
    {
      "inputs": [
        {
          "internalType": "address",
          "name": "owner",
          "type": "address"
        }
      ],
      "name": "nonces",
      "outputs": [
        {
          "internalType": "uint256",
          "name": "",
          "type": "uint256"
        }
      ],
      "stateMutability": "view",
      "type": "function"
    },
    {
      "inputs": [],
      "name": "opTOKEN_REVISION",
      "outputs": [
        {
          "internalType": "uint256",
          "name": "",
          "type": "uint256"
        }
      ],
      "stateMutability": "view",
      "type": "function"
    },
    {
      "inputs": [
        {
          "internalType": "address",
          "name": "",
          "type": "address"
        }
      ],
      "name": "pendingDeposits",
      "outputs": [
        {
          "internalType": "uint256",
          "name": "",
          "type": "uint256"
        }
      ],
      "stateMutability": "view",
      "type": "function"
    },
    {
      "inputs": [
        {
          "internalType": "address",
          "name": "_owner",
          "type": "address"
        },
        {
          "internalType": "address",
          "name": "_spender",
          "type": "address"
        },
        {
          "internalType": "uint256",
          "name": "_value",
          "type": "uint256"
        },
        {
          "internalType": "uint256",
          "name": "_deadline",
          "type": "uint256"
        },
        {
          "internalType": "uint8",
          "name": "_v",
          "type": "uint8"
        },
        {
          "internalType": "bytes32",
          "name": "_r",
          "type": "bytes32"
        },
        {
          "internalType": "bytes32",
          "name": "_s",
          "type": "bytes32"
        }
      ],
      "name": "permit",
      "outputs": [],
      "stateMutability": "nonpayable",
      "type": "function"
    },
    {
      "inputs": [
        {
          "internalType": "uint256",
          "name": "",
          "type": "uint256"
        }
      ],
      "name": "queue",
      "outputs": [
        {
          "internalType": "address",
          "name": "account",
          "type": "address"
        },
        {
          "internalType": "uint256",
          "name": "value",
          "type": "uint256"
        }
      ],
      "stateMutability": "view",
      "type": "function"
    },
    {
      "inputs": [],
      "name": "rebalance",
      "outputs": [],
      "stateMutability": "nonpayable",
      "type": "function"
    },
    {
      "inputs": [],
      "name": "registryContract",
      "outputs": [
        {
          "internalType": "contract IRegistry",
          "name": "",
          "type": "address"
        }
      ],
      "stateMutability": "view",
      "type": "function"
    },
    {
      "inputs": [
        {
          "internalType": "contract IERC20[]",
          "name": "_tokens",
          "type": "address[]"
        },
        {
          "internalType": "address[]",
          "name": "_spenders",
          "type": "address[]"
        }
      ],
      "name": "removeAllowances",
      "outputs": [],
      "stateMutability": "nonpayable",
      "type": "function"
    },
    {
      "inputs": [
        {
          "internalType": "bool",
          "name": "_active",
          "type": "bool"
        }
      ],
      "name": "setEmergencyShutdown",
      "outputs": [],
      "stateMutability": "nonpayable",
      "type": "function"
    },
    {
      "inputs": [
        {
          "internalType": "uint256",
          "name": "_minimumDepositValueUT",
          "type": "uint256"
        }
      ],
      "name": "setMinimumDepositValueUT",
      "outputs": [],
      "stateMutability": "nonpayable",
      "type": "function"
    },
    {
      "inputs": [
        {
          "internalType": "string",
          "name": "_name",
          "type": "string"
        }
      ],
      "name": "setName",
      "outputs": [],
      "stateMutability": "nonpayable",
      "type": "function"
    },
    {
      "inputs": [
        {
          "internalType": "address",
          "name": "_registry",
          "type": "address"
        }
      ],
      "name": "setRegistry",
      "outputs": [],
      "stateMutability": "nonpayable",
      "type": "function"
    },
    {
      "inputs": [
        {
          "internalType": "uint256",
          "name": "_riskProfileCode",
          "type": "uint256"
        }
      ],
      "name": "setRiskProfileCode",
      "outputs": [],
      "stateMutability": "nonpayable",
      "type": "function"
    },
    {
      "inputs": [
        {
          "internalType": "string",
          "name": "_symbol",
          "type": "string"
        }
      ],
      "name": "setSymbol",
      "outputs": [],
      "stateMutability": "nonpayable",
      "type": "function"
    },
    {
      "inputs": [
        {
          "internalType": "uint256",
          "name": "_totalValueLockedLimitUT",
          "type": "uint256"
        }
      ],
      "name": "setTotalValueLockedLimitUT",
      "outputs": [],
      "stateMutability": "nonpayable",
      "type": "function"
    },
    {
      "inputs": [
        {
          "internalType": "bytes32",
          "name": "_underlyingTokensHash",
          "type": "bytes32"
        }
      ],
      "name": "setUnderlyingTokensHash",
      "outputs": [],
      "stateMutability": "nonpayable",
      "type": "function"
    },
    {
      "inputs": [
        {
          "internalType": "bool",
          "name": "_unpaused",
          "type": "bool"
        }
      ],
      "name": "setUnpaused",
      "outputs": [],
      "stateMutability": "nonpayable",
      "type": "function"
    },
    {
      "inputs": [
        {
          "internalType": "uint256",
          "name": "_userDepositCapUT",
          "type": "uint256"
        }
      ],
      "name": "setUserDepositCapUT",
      "outputs": [],
      "stateMutability": "nonpayable",
      "type": "function"
    },
    {
      "inputs": [
        {
          "internalType": "uint256",
          "name": "_userDepositCapUT",
          "type": "uint256"
        },
        {
          "internalType": "uint256",
          "name": "_minimumDepositValueUT",
          "type": "uint256"
        },
        {
          "internalType": "uint256",
          "name": "_totalValueLockedLimitUT",
          "type": "uint256"
        }
      ],
      "name": "setValueControlParams",
      "outputs": [],
      "stateMutability": "nonpayable",
      "type": "function"
    },
    {
      "inputs": [
        {
          "internalType": "uint256",
          "name": "_vaultConfiguration",
          "type": "uint256"
        }
      ],
      "name": "setVaultConfiguration",
      "outputs": [],
      "stateMutability": "nonpayable",
      "type": "function"
    },
    {
      "inputs": [
        {
          "internalType": "bytes32",
          "name": "_whitelistedAccountsRoot",
          "type": "bytes32"
        }
      ],
      "name": "setWhitelistedAccountsRoot",
      "outputs": [],
      "stateMutability": "nonpayable",
      "type": "function"
    },
    {
      "inputs": [],
      "name": "symbol",
      "outputs": [
        {
          "internalType": "string",
          "name": "",
          "type": "string"
        }
      ],
      "stateMutability": "view",
      "type": "function"
    },
    {
      "inputs": [
        {
          "internalType": "address",
          "name": "",
          "type": "address"
        }
      ],
      "name": "totalDeposits",
      "outputs": [
        {
          "internalType": "uint256",
          "name": "",
          "type": "uint256"
        }
      ],
      "stateMutability": "view",
      "type": "function"
    },
    {
      "inputs": [],
      "name": "totalSupply",
      "outputs": [
        {
          "internalType": "uint256",
          "name": "",
          "type": "uint256"
        }
      ],
      "stateMutability": "view",
      "type": "function"
    },
    {
      "inputs": [],
      "name": "totalValueLockedLimitUT",
      "outputs": [
        {
          "internalType": "uint256",
          "name": "",
          "type": "uint256"
        }
      ],
      "stateMutability": "view",
      "type": "function"
    },
    {
      "inputs": [
        {
          "internalType": "address",
          "name": "recipient",
          "type": "address"
        },
        {
          "internalType": "uint256",
          "name": "amount",
          "type": "uint256"
        }
      ],
      "name": "transfer",
      "outputs": [
        {
          "internalType": "bool",
          "name": "",
          "type": "bool"
        }
      ],
      "stateMutability": "nonpayable",
      "type": "function"
    },
    {
      "inputs": [
        {
          "internalType": "address",
          "name": "sender",
          "type": "address"
        },
        {
          "internalType": "address",
          "name": "recipient",
          "type": "address"
        },
        {
          "internalType": "uint256",
          "name": "amount",
          "type": "uint256"
        }
      ],
      "name": "transferFrom",
      "outputs": [
        {
          "internalType": "bool",
          "name": "",
          "type": "bool"
        }
      ],
      "stateMutability": "nonpayable",
      "type": "function"
    },
    {
      "inputs": [],
      "name": "underlyingToken",
      "outputs": [
        {
          "internalType": "address",
          "name": "",
          "type": "address"
        }
      ],
      "stateMutability": "view",
      "type": "function"
    },
    {
      "inputs": [],
      "name": "underlyingTokensHash",
      "outputs": [
        {
          "internalType": "bytes32",
          "name": "",
          "type": "bytes32"
        }
      ],
      "stateMutability": "view",
      "type": "function"
    },
    {
      "inputs": [],
      "name": "userDepositCapUT",
      "outputs": [
        {
          "internalType": "uint256",
          "name": "",
          "type": "uint256"
        }
      ],
      "stateMutability": "view",
      "type": "function"
    },
    {
      "inputs": [
        {
          "internalType": "address",
          "name": "_user",
          "type": "address"
        },
        {
          "internalType": "bool",
          "name": "_addUserDepositUT",
          "type": "bool"
        },
        {
          "internalType": "uint256",
          "name": "_userDepositUTWithDeductions",
          "type": "uint256"
        },
        {
          "internalType": "uint256",
          "name": "_deductions",
          "type": "uint256"
        },
        {
          "internalType": "bytes32[]",
          "name": "_accountsProof",
          "type": "bytes32[]"
        }
      ],
      "name": "userDepositPermitted",
      "outputs": [
        {
          "internalType": "bool",
          "name": "",
          "type": "bool"
        },
        {
          "internalType": "string",
          "name": "",
          "type": "string"
        }
      ],
      "stateMutability": "view",
      "type": "function"
    },
    {
      "inputs": [
        {
          "internalType": "address",
          "name": "_beneficiary",
          "type": "address"
        },
        {
          "internalType": "uint256",
          "name": "_userDepositUT",
          "type": "uint256"
        },
        {
          "internalType": "uint256",
          "name": "_expectedOutput",
          "type": "uint256"
        },
        {
          "internalType": "bytes",
          "name": "_permitParams",
          "type": "bytes"
        },
        {
          "internalType": "bytes32[]",
          "name": "_accountsProof",
          "type": "bytes32[]"
        }
      ],
      "name": "userDepositVault",
      "outputs": [
        {
          "internalType": "uint256",
          "name": "",
          "type": "uint256"
        }
      ],
      "stateMutability": "nonpayable",
      "type": "function"
    },
    {
      "inputs": [
        {
          "internalType": "address",
          "name": "_user",
          "type": "address"
        },
        {
          "internalType": "uint256",
          "name": "_userWithdrawVT",
          "type": "uint256"
        },
        {
          "internalType": "bytes32[]",
          "name": "_accountsProof",
          "type": "bytes32[]"
        }
      ],
      "name": "userWithdrawPermitted",
      "outputs": [
        {
          "internalType": "bool",
          "name": "",
          "type": "bool"
        },
        {
          "internalType": "string",
          "name": "",
          "type": "string"
        }
      ],
      "stateMutability": "view",
      "type": "function"
    },
    {
      "inputs": [
        {
          "internalType": "address",
          "name": "_receiver",
          "type": "address"
        },
        {
          "internalType": "uint256",
          "name": "_userWithdrawVT",
          "type": "uint256"
        },
        {
          "internalType": "uint256",
          "name": "_expectedOutput",
          "type": "uint256"
        },
        {
          "internalType": "bytes32[]",
          "name": "_accountsProof",
          "type": "bytes32[]"
        }
      ],
      "name": "userWithdrawVault",
      "outputs": [
        {
          "internalType": "uint256",
          "name": "",
          "type": "uint256"
        }
      ],
      "stateMutability": "nonpayable",
      "type": "function"
    },
    {
      "inputs": [],
      "name": "vaultConfiguration",
      "outputs": [
        {
          "internalType": "uint256",
          "name": "",
          "type": "uint256"
        }
      ],
      "stateMutability": "view",
      "type": "function"
    },
    {
      "inputs": [],
      "name": "vaultDepositAllToStrategy",
      "outputs": [],
      "stateMutability": "nonpayable",
      "type": "function"
    },
    {
      "inputs": [],
      "name": "vaultDepositPermitted",
      "outputs": [
        {
          "internalType": "bool",
          "name": "",
          "type": "bool"
        },
        {
          "internalType": "string",
          "name": "",
          "type": "string"
        }
      ],
      "stateMutability": "view",
      "type": "function"
    },
    {
      "inputs": [],
      "name": "vaultWithdrawPermitted",
      "outputs": [
        {
          "internalType": "bool",
          "name": "",
          "type": "bool"
        },
        {
          "internalType": "string",
          "name": "",
          "type": "string"
        }
      ],
      "stateMutability": "view",
      "type": "function"
    },
    {
      "inputs": [],
      "name": "whitelistedAccountsRoot",
      "outputs": [
        {
          "internalType": "bytes32",
          "name": "",
          "type": "bytes32"
        }
      ],
      "stateMutability": "view",
      "type": "function"
    }
  ],
  "transactionHash": "0xc224053a3f4a0e88f2188ccea7d819487685ecbea98bb275bc7f0a92615ae5e5",
  "args": [
    "0x32bd1a6fdaec327b57cdb2cfde0855afb3255d7c"
  ],
  "numDeployments": 1,
  "bytecode": "0x60a0604052600080553480156200001557600080fd5b50604051620061b7380380620061b7833981016040819052620000389162000185565b806040516020016200004a90620001b5565b6040516020818303038152906040526040516020016200006a90620001b5565b60408051601f1981840301815291905281516200008f906037906020850190620000e9565b508051620000a5906038906020840190620000e9565b5050603980546001600160a01b0390931661010002610100600160a81b031960ff19909416601217939093169290921790915550506001603a5546608052620001cd565b828054600181600116156101000203166002900490600052602060002090601f016020900481019282601f106200012c57805160ff19168380011785556200015c565b828001600101855582156200015c579182015b828111156200015c5782518255916020019190600101906200013f565b506200016a9291506200016e565b5090565b5b808211156200016a57600081556001016200016f565b60006020828403121562000197578081fd5b81516001600160a01b0381168114620001ae578182fd5b9392505050565b6b1bdc1513d2d15397d253541360a21b8152600c0190565b608051615fcf620001e8600039806115265250615fcf6000f3fe608060405234801561001057600080fd5b50600436106103fc5760003560e01c80637ecebe0011610215578063c66da8e811610125578063d952ca50116100b8578063e06070b311610087578063e06070b314610823578063e940325614610836578063eb3349b914610849578063ef01fb761461085c578063f982d0741461086f576103fc565b8063d952ca50146107d4578063db7e5632146107e7578063dd62ed3e146107ef578063ddf0b00914610802576103fc565b8063d07c179b116100f4578063d07c179b14610793578063d46ae8e2146107a6578063d505accf146107ae578063d5802ec2146107c1576103fc565b8063c66da8e81461075d578063c9dd6b2414610765578063ca37271b1461076d578063cf85f08014610780576103fc565b8063a3708584116101a8578063a9b497c811610177578063a9b497c814610714578063ae78b1b01461071c578063b1ff852214610724578063b84c824614610737578063c47f00271461074a576103fc565b8063a3708584146106d3578063a457c2d7146106db578063a9059cbb146106ee578063a91ee0dc14610701576103fc565b80638d1efd78116101e45780638d1efd781461069d57806395d89b41146106b05780639f4acea6146106b8578063a30b7271146106cb576103fc565b80637ecebe001461065c578063890ddde81461066f5780638aa2e4b4146106825780638c0e035714610695576103fc565b80632e40939c1161031057806357a194ab116102a3578063715aa87411610272578063715aa8741461062957806377c7b8fc1461063c57806378160376146106445780637c8eb82a1461064c5780637d7c2a1c14610654576103fc565b806357a194ab146105ce5780636889d673146105e15780636db5eeb2146105f457806370a0823114610616576103fc565b80633644e515116102df5780633644e5151461059857806337d62e54146105a057806339509351146105b35780633c870dcf146105c6576103fc565b80632e40939c146105605780632e935aa71461056857806330adf81f1461057b578063313ce56714610583576103fc565b80631f6dcbce1161039357806328c1f99b1161036257806328c1f99b1461050957806329dc0658146105115780632a4d7943146105195780632b86b6661461052c5780632d5cd59f1461053f576103fc565b80631f6dcbce146104ac57806323b872dd146104bf57806323bb5fac146104d25780632495a599146104f4576103fc565b8063095ea7b3116103cf578063095ea7b31461045e57806314c644021461047e57806318160ddd146104915780631a86549714610499576103fc565b806303f2e589146104015780630537df971461041f57806306fdde03146104345780630713477314610449575b600080fd5b610409610882565b60405161041691906158c1565b60405180910390f35b610427610888565b604051610416919061574e565b61043c6109a2565b6040516104169190615948565b61045c6104573660046152da565b610a38565b005b61047161046c366004614d47565b610b08565b604051610416919061589b565b61045c61048c3660046152a2565b610b26565b610409610c7b565b61045c6104a736600461505b565b610c81565b6104716104ba3660046152da565b610e68565b6104716104cd366004614b96565b610e7d565b6104e56104e0366004615416565b610f05565b60405161041693929190615e00565b6104fc610f44565b60405161041691906156b6565b6104fc610f53565b610409610f67565b61045c610527366004614f59565b610f6d565b61045c61053a366004614cb9565b610fe2565b61055261054d366004614c46565b611277565b6040516104169291906158a6565b6105526113ec565b61045c610576366004615437565b61143d565b6104096114f4565b61058b611518565b6040516104169190615e16565b610409611521565b61045c6105ae3660046152a2565b611564565b6104716105c1366004614d47565b6116b4565b61045c611702565b61045c6105dc3660046152da565b6117aa565b61045c6105ef3660046152da565b611804565b6106076106023660046152da565b61185e565b604051610416939291906156ed565b6104096106243660046149ca565b6118a1565b61045c610637366004614a88565b6118c0565b610409611b2d565b61043c611b76565b610552611b93565b61045c611bfc565b61040961066a3660046149ca565b611ea2565b61040961067d3660046150c3565b611ebd565b61045c6106903660046152da565b611fe4565b61040961203e565b6104096106ab3660046152da565b612044565b61043c61208c565b6104096106c6366004614dc8565b6120ed565b61040961213d565b610427612142565b6104716106e9366004614d47565b6121cf565b6104716106fc366004614d47565b612237565b61045c61070f3660046149ca565b61224b565b610409612365565b61040961236b565b6104096107323660046150c3565b612371565b61045c6107453660046152f2565b612419565b61045c6107583660046152f2565b6124a9565b610409612548565b6104096125c9565b61045c61077b3660046149ca565b6125cf565b61045c61078e3660046152da565b6126e5565b61045c6107a13660046152da565b61273f565b610409612827565b61045c6107bc366004614bd6565b61282d565b6104096107cf3660046152da565b612a14565b61045c6107e23660046152da565b612a52565b610409612aac565b6104096107fd366004614a50565b612ab2565b6108156108103660046152da565b612add565b604051610416929190615735565b610552610831366004614d72565b612b12565b6104096108443660046149ca565b612bba565b6104096108573660046149ca565b612bcc565b61045c61086a36600461505b565b612bde565b61040961087d366004614e2f565b612d40565b60445481565b6060603960019054906101000a90046001600160a01b03166001600160a01b031663d71f05e66040518163ffffffff1660e01b815260040160206040518083038186803b1580156108d857600080fd5b505afa1580156108ec573d6000803e3d6000fd5b505050506040513d601f19601f8201168201806040525081019061091091906149e6565b6001600160a01b031663a64e1e7b60f0604254901c60ff166047546040518363ffffffff1660e01b81526004016109489291906155a1565b60006040518083038186803b15801561096057600080fd5b505afa158015610974573d6000803e3d6000fd5b505050506040513d6000823e601f3d908101601f1916820160405261099c9190810190615152565b90505b90565b60378054604080516020601f6002600019610100600188161502019095169490940493840181900481028201810190925282815260609390929091830182828015610a2e5780601f10610a0357610100808354040283529160200191610a2e565b820191906000526020600020905b815481529060010190602001808311610a1157829003601f168201915b5050505050905090565b610afc603960019054906101000a90046001600160a01b03166001600160a01b031663289b3c0d6040518163ffffffff1660e01b815260040160206040518083038186803b158015610a8957600080fd5b505afa158015610a9d573d6000803e3d6000fd5b505050506040513d601f19601f82011682018060405250810190610ac191906149e6565b6040518060400160405280601f81526020017f63616c6c6572206973206e6f7420686176696e6720676f7665726e616e636500815250612da6565b610b0581612dd0565b50565b6000610b1c610b15612dd5565b8484612dd9565b5060015b92915050565b610b77603960019054906101000a90046001600160a01b03166001600160a01b031663289b3c0d6040518163ffffffff1660e01b815260040160206040518083038186803b158015610a8957600080fd5b60428054600160ff60f81b031690558015610c415760428054600160f81b179055603f5415610c4157610c2e6048805480602002602001604051908101604052809291908181526020016000905b82821015610c25576000848152602090819020604080516060810182526002860290920180546001600160a01b03908116845260019182015490811684860152600160a01b900460ff161515918301919091529083529092019101610bc5565b50505050612e8d565b6000603f819055610c4190604890614662565b6042546040513391600160f81b161515907f3f14e04c219cb203de89f60db463113cc68cf16c00a46ef96a1fce6ca8abb5bb90600090a350565b60365490565b610d45603960019054906101000a90046001600160a01b03166001600160a01b0316637af0e5576040518163ffffffff1660e01b815260040160206040518083038186803b158015610cd257600080fd5b505afa158015610ce6573d6000803e3d6000fd5b505050506040513d601f19601f82011682018060405250810190610d0a91906149e6565b6040518060400160405280601e81526020017f63616c6c6572206973206e6f7420746865207269736b4f70657261746f720000815250612da6565b604080518082019091526002815261064760f31b60208201528390828214610d895760405162461bcd60e51b8152600401610d809190615948565b60405180910390fd5b5060005b84811015610e6057858582818110610da157fe5b9050602002016020810190610db691906149ca565b6001600160a01b031663095ea7b3858584818110610dd057fe5b9050602002016020810190610de591906149ca565b6000196040518363ffffffff1660e01b8152600401610e05929190615735565b602060405180830381600087803b158015610e1f57600080fd5b505af1158015610e33573d6000803e3d6000fd5b505050506040513d601f19601f82011682018060405250810190610e5791906152be565b50600101610d8d565b505050505050565b604b6020526000908152604090205460ff1681565b6000610e8a848484612e9f565b610efa84610e96612dd5565b610ef585604051806060016040528060288152602001615f54602891396001600160a01b038a16600090815260356020526040812090610ed4612dd5565b6001600160a01b031681526020810191909152604001600020549190612fb4565b612dd9565b5060015b9392505050565b603e6020528160005260406000208181548110610f1e57fe5b600091825260209091206003909102018054600182015460029092015490935090915083565b6043546001600160a01b031681565b60395461010090046001600160a01b031681565b60455481565b610fbe603960019054906101000a90046001600160a01b03166001600160a01b031663289b3c0d6040518163ffffffff1660e01b815260040160206040518083038186803b158015610a8957600080fd5b610b058160405180604001604052806002815260200161313560f01b815250612fe0565b6000610fec613011565b60015490915060ff16806110035750611003613016565b8061100f575060005481115b61102b5760405162461bcd60e51b8152600401610d8090615b0c565b60015460ff1615801561104a576001805460ff19168117905560008290555b6000885111604051806040016040528060018152602001600d60fa1b815250906110875760405162461bcd60e51b8152600401610d809190615948565b5060398054610100600160a81b0319166101006001600160a01b038e16021790556110b0614683565b603954604051639ec39e2f60e01b81526101009091046001600160a01b031690639ec39e2f906110e4908b906004016158c1565b60006040518083038186803b1580156110fc57600080fd5b505afa158015611110573d6000803e3d6000fd5b505050506040513d6000823e601f3d908101601f191682016040526111389190810190615331565b905061114888826060015161301c565b6111518b61306d565b61117f89826080015160405160200161116b9291906155ef565b60405160208183030381529060405261325d565b6111ad898260a0015160405160200161119992919061566c565b604051602081830303815290604052613270565b6043546040805163313ce56760e01b81529051611230926001600160a01b03169163313ce567916004808301926020929190829003018186803b1580156111f357600080fd5b505afa158015611207573d6000803e3d6000fd5b505050506040513d601f19601f8201168201806040525081019061122b9190615462565b613283565b6112398a612dd0565b61124287613299565b61124d86868661329e565b6112556132b9565b60465550801561126a576001805460ff191690555b5050505050505050505050565b60006060604254600160fa1b166000141580156112a357506112a161129b88613351565b84613381565b155b156112ca5750506040805180820190915260018152600760fb1b60208201526000906113e2565b6041548510156112f7575050604080518082019091526002815261031360f41b60208201526000906113e2565b6000611301613390565b90508615801561131b575060455461131982876133a5565b115b15611344575050604080518082019091526002815261313160f01b6020820152600091506113e2565b60455461135182886133cd565b111561137b575050604080518082019091526002815261313160f01b6020820152600091506113e2565b604080546001600160a01b038a166000908152603d60205291909120546113a290886133cd565b11156113cc575050604080518082019091526002815261189960f11b6020820152600091506113e2565b5050604080516020810190915260008152600191505b9550959350505050565b60006060604254600160f91b16600014156114245750506040805180820190915260028152610c4d60f21b6020820152600090611439565b50506040805160208101909152600081526001905b9091565b6114e4603960019054906101000a90046001600160a01b03166001600160a01b031663054159966040518163ffffffff1660e01b815260040160206040518083038186803b15801561148e57600080fd5b505afa1580156114a2573d6000803e3d6000fd5b505050506040513d601f19601f820116820180604052508101906114c691906149e6565b604051806060016040528060218152602001615f3360219139612da6565b6114ef83838361329e565b505050565b7f6e71edae12b1b97f4d1f60370fef10105fa2faae0126114a169c64845d6126c981565b60395460ff1690565b6000467f000000000000000000000000000000000000000000000000000000000000000081141561155657505060465461099f565b61155e6132b9565b91505090565b6115b5603960019054906101000a90046001600160a01b03166001600160a01b031663289b3c0d6040518163ffffffff1660e01b815260040160206040518083038186803b158015610a8957600080fd5b604280546001607f60f91b031690558061166d57603f54156116685761165560488054806020026020016040519081016040528092919081815260200160009082821015610c25576000848152602090819020604080516060810182526002860290920180546001600160a01b03908116845260019182015490811684860152600160a01b900460ff161515918301919091529083529092019101610bc5565b6000603f81905561166890604890614662565b61167a565b60428054600160f91b1790555b6042546040513391600160f91b161515907fbef546d8099130f7f80a42b7eb7f2aa81c1dd73f07fc569fe30338e102bba27390600090a350565b6000610b1c6116c1612dd5565b84610ef585603560006116d2612dd5565b6001600160a01b03908116825260208083019390935260409182016000908120918c1681529252902054906133cd565b61170a6133f2565b603f54156117a8576117a86048805480602002602001604051908101604052809291908181526020016000905b82821015611797576000848152602090819020604080516060810182526002860290920180546001600160a01b03908116845260019182015490811684860152600160a01b900460ff161515918301919091529083529092019101611737565b505050506117a3612548565b613402565b565b6117fb603960019054906101000a90046001600160a01b03166001600160a01b031663054159966040518163ffffffff1660e01b815260040160206040518083038186803b15801561148e57600080fd5b610b05816135a9565b611855603960019054906101000a90046001600160a01b03166001600160a01b031663054159966040518163ffffffff1660e01b815260040160206040518083038186803b15801561148e57600080fd5b610b05816135dc565b6048818154811061186b57fe5b6000918252602090912060029091020180546001909101546001600160a01b03918216925090811690600160a01b900460ff1683565b6001600160a01b0381166000908152603460205260409020545b919050565b611967603960019054906101000a90046001600160a01b03166001600160a01b031663fabee0e66040518163ffffffff1660e01b815260040160206040518083038186803b15801561191157600080fd5b505afa158015611925573d6000803e3d6000fd5b505050506040513d601f19601f8201168201806040525081019061194991906149e6565b604051806060016040528060228152602001615f7c60229139612da6565b6040516370a0823160e01b81526000906001600160a01b038916906370a08231906119969030906004016156b6565b60206040518083038186803b1580156119ae57600080fd5b505afa1580156119c2573d6000803e3d6000fd5b505050506040513d601f19601f820116820180604052508101906119e691906153fe565b90508515611a97576040805160a0810182528381523060208201528082018690526060810183905260808101879052905163c04b8d5960e01b81526001600160a01b0389169163c04b8d5991611a3f9190600401615d38565b602060405180830381600087803b158015611a5957600080fd5b505af1158015611a6d573d6000803e3d6000fd5b505050506040513d601f19601f82011682018060405250810190611a9191906153fe565b50611b23565b6040516338ed173960e01b81526001600160a01b038816906338ed173990611acb9084908990889030908b90600401615d90565b600060405180830381600087803b158015611ae557600080fd5b505af1158015611af9573d6000803e3d6000fd5b505050506040513d6000823e601f3d908101601f19168201604052611b21919081019061521f565b505b5050505050505050565b6000611b37610c7b565b15611b6e57611b67611b47610c7b565b611b61670de0b6b3a7640000611b5b613390565b90613611565b9061364b565b905061099f565b50600061099f565b604051806040016040528060018152602001603160f81b81525081565b60006060604254600160f91b1660001415611bcb5750506040805180820190915260028152610c4d60f21b6020820152600090611439565b604254600160f81b1615611424575050604080518082019091526002815261313360f01b6020820152600090611439565b611c046133f2565b611c14611c0f610888565b61367d565b6000611ca46049805480602002602001604051908101604052809291908181526020016000905b82821015611c9b576000848152602090819020604080516060810182526002860290920180546001600160a01b03908116845260019182015490811684860152600160a01b900460ff161515918301919091529083529092019101611c3b565b50505050611ebd565b9050603f548114611dec57603f5415611d3b57611d3b60488054806020026020016040519081016040528092919081815260200160009082821015610c25576000848152602090819020604080516060810182526002860290920180546001600160a01b03908116845260019182015490811684860152600160a01b900460ff161515918301919091529083529092019101610bc5565b611d4760486000614662565b60005b604954811015611de557604860498281548110611d6357fe5b6000918252602080832084546001818101875595855291909320600292830290930180549190920290920180546001600160a01b03199081166001600160a01b03948516178255918401805491850180549093169190931617808255915460ff600160a01b918290041615150260ff60a01b1990921691909117905501611d4a565b50603f8190555b6000611df6612548565b603f5490915015801590611e0a5750600081115b15611e9e57611e9e6048805480602002602001604051908101604052809291908181526020016000905b82821015611e94576000848152602090819020604080516060810182526002860290920180546001600160a01b03908116845260019182015490811684860152600160a01b900460ff161515918301919091529083529092019101611e34565b5050505082613402565b5050565b6001600160a01b03166000908152604a602052604090205490565b805160009015611fdc57606082516001600160401b0381118015611ee057600080fd5b50604051908082528060200260200182016040528015611f0a578160200160208202803683370190505b50905060005b8351811015611fa857838181518110611f2557fe5b602002602001015160000151848281518110611f3d57fe5b602002602001015160200151858381518110611f5557fe5b602002602001015160400151604051602001611f7393929190615534565b60405160208183030381529060405280519060200120828281518110611f9557fe5b6020908102919091010152600101611f10565b5060475481604051602001611fbe929190615567565b604051602081830303815290604052805190602001209150506118bb565b506000919050565b612035603960019054906101000a90046001600160a01b03166001600160a01b031663054159966040518163ffffffff1660e01b815260040160206040518083038186803b15801561148e57600080fd5b610b0581613717565b60405481565b6000610b20612051611518565b60ff16600a0a6020604254901c61ffff1602612086612710611b616030604254901c61ffff168761361190919063ffffffff16565b906133cd565b60388054604080516020601f6002600019610100600188161502019095169490940493840181900481028201810190925282815260609390929091830182828015610a2e5780601f10610a0357610100808354040283529160200191610a2e565b60006002603a5414156121125760405162461bcd60e51b8152600401610d8090615cca565b6002603a55612121600061374c565b61212e86868686866137bf565b6001603a559695505050505050565b600581565b60606048805480602002602001604051908101604052809291908181526020016000905b828210156121c6576000848152602090819020604080516060810182526002860290920180546001600160a01b03908116845260019182015490811684860152600160a01b900460ff161515918301919091529083529092019101612166565b50505050905090565b6000610b1c6121dc612dd5565b84610ef585604051806060016040528060258152602001615f9e6025913960356000612206612dd5565b6001600160a01b03908116825260208083019390935260409182016000908120918d16815292529020549190612fb4565b6000610b1c612244612dd5565b8484612e9f565b61230f603960019054906101000a90046001600160a01b03166001600160a01b031663e7f43c686040518163ffffffff1660e01b815260040160206040518083038186803b15801561229c57600080fd5b505afa1580156122b0573d6000803e3d6000fd5b505050506040513d601f19601f820116820180604052508101906122d491906149e6565b6040518060400160405280601a81526020017f63616c6c6572206973206e6f7420746865206f70657261746f72000000000000815250612da6565b612321816001600160a01b0316613ae5565b61233d5760405162461bcd60e51b8152600401610d8090615be0565b603980546001600160a01b0390921661010002610100600160a81b0319909216919091179055565b603f5481565b60415481565b603954604354604051633c4e54b360e21b815260009273D65F12ed2381D4dBF643af20EED294a24165325d9263f13952cc926123c99287926001600160a01b03610100909204821692309291909116906004016157c6565b60206040518083038186803b1580156123e157600080fd5b505af41580156123f5573d6000803e3d6000fd5b505050506040513d601f19601f82011682018060405250810190610b2091906153fe565b61246a603960019054906101000a90046001600160a01b03166001600160a01b031663289b3c0d6040518163ffffffff1660e01b815260040160206040518083038186803b158015610a8957600080fd5b611e9e82828080601f01602080910402602001604051908101604052809392919081815260200183838082843760009201919091525061327092505050565b6124fa603960019054906101000a90046001600160a01b03166001600160a01b031663289b3c0d6040518163ffffffff1660e01b815260040160206040518083038186803b158015610a8957600080fd5b61253982828080601f01602080910402602001604051908101604052809392919081815260200183838082843760009201919091525061325d92505050565b6125416132b9565b6046555050565b6043546040516370a0823160e01b81526000916001600160a01b0316906370a08231906125799030906004016156b6565b60206040518083038186803b15801561259157600080fd5b505afa1580156125a5573d6000803e3d6000fd5b505050506040513d601f19601f8201168201806040525081019061099c91906153fe565b60475481565b612620603960019054906101000a90046001600160a01b03166001600160a01b031663fabee0e66040518163ffffffff1660e01b815260040160206040518083038186803b15801561191157600080fd5b603954604051632ff4c5e160e01b8152610b059173D65F12ed2381D4dBF643af20EED294a24165325d91632ff4c5e191612671916001600160a01b03808816926101009004169030906004016156ca565b60006040518083038186803b15801561268957600080fd5b505af415801561269d573d6000803e3d6000fd5b505050506040513d6000823e601f3d908101601f191682016040526126c59190810190614fe1565b60405180604001604052806002815260200161032360f41b815250612fe0565b612736603960019054906101000a90046001600160a01b03166001600160a01b031663289b3c0d6040518163ffffffff1660e01b815260040160206040518083038186803b158015610a8957600080fd5b610b0581613299565b612790603960019054906101000a90046001600160a01b03166001600160a01b031663289b3c0d6040518163ffffffff1660e01b815260040160206040518083038186803b158015610a8957600080fd5b603954604051639ec39e2f60e01b8152610b059183916101009091046001600160a01b031690639ec39e2f906127ca9084906004016158c1565b60006040518083038186803b1580156127e257600080fd5b505afa1580156127f6573d6000803e3d6000fd5b505050506040513d6000823e601f3d908101601f1916820160405261281e9190810190615331565b6060015161301c565b60465481565b604080518082019091526002815261323560f01b60208201526001600160a01b03881661286d5760405162461bcd60e51b8152600401610d809190615948565b508342111560405180604001604052806002815260200161191b60f11b815250906128ab5760405162461bcd60e51b8152600401610d809190615948565b506001600160a01b0387166000908152604a6020526040812054906128ce611521565b7f6e71edae12b1b97f4d1f60370fef10105fa2faae0126114a169c64845d6126c98a8a8a868b604051602001612909969594939291906158ca565b60405160208183030381529060405280519060200120604051602001612930929190615651565b6040516020818303038152906040528051906020012090506001818686866040516000815260200160405260405161296b949392919061592a565b6020604051602081039080840390855afa15801561298d573d6000803e3d6000fd5b505050602060405103516001600160a01b0316896001600160a01b03161460405180604001604052806002815260200161323760f01b815250906129e45760405162461bcd60e51b8152600401610d809190615948565b506129f08260016133cd565b6001600160a01b038a166000908152604a6020526040902055611b21898989612dd9565b6000610b20612a21611518565b60ff16600a0a60425461ffff1602612086612710611b616010604254901c61ffff168761361190919063ffffffff16565b612aa3603960019054906101000a90046001600160a01b03166001600160a01b031663e7f43c686040518163ffffffff1660e01b815260040160206040518083038186803b15801561229c57600080fd5b610b058161306d565b60425481565b6001600160a01b03918216600090815260356020908152604080832093909416825291909152205490565b603b8181548110612aea57fe5b6000918252602090912060029091020180546001909101546001600160a01b03909116915082565b60006060604254600160fa1b16600014158015612b385750612b3661129b86613351565b155b15612b5f5750506040805180820190915260018152600760fb1b6020820152600090612bb2565b600084118015612b775750612b73856118a1565b8411155b612b9d5750506040805180820190915260018152603160f81b6020820152600090612bb2565b50506040805160208101909152600081526001905b935093915050565b603d6020526000908152604090205481565b603c6020526000908152604090205481565b612c2f603960019054906101000a90046001600160a01b03166001600160a01b0316637af0e5576040518163ffffffff1660e01b815260040160206040518083038186803b158015610cd257600080fd5b604080518082019091526002815261064760f31b60208201528390828214612c6a5760405162461bcd60e51b8152600401610d809190615948565b5060005b84811015610e6057858582818110612c8257fe5b9050602002016020810190612c9791906149ca565b6001600160a01b031663095ea7b3858584818110612cb157fe5b9050602002016020810190612cc691906149ca565b60006040518363ffffffff1660e01b8152600401612ce5929190615735565b602060405180830381600087803b158015612cff57600080fd5b505af1158015612d13573d6000803e3d6000fd5b505050506040513d601f19601f82011682018060405250810190612d3791906152be565b50600101612c6e565b60006002603a541415612d655760405162461bcd60e51b8152600401610d8090615cca565b6002603a55612d726133f2565b612d7c600161374c565b612d868585613aeb565b612d9588600089898787613c8d565b6001603a5598975050505050505050565b80336001600160a01b038416146114ef5760405162461bcd60e51b8152600401610d809190615948565b604455565b3390565b6001600160a01b038316612dff5760405162461bcd60e51b8152600401610d8090615c05565b6001600160a01b038216612e255760405162461bcd60e51b8152600401610d809061599e565b6001600160a01b0380841660008181526035602090815260408083209487168084529490915290819020849055517f8c5be1e5ebec7d5bd14f71427d1e84f3dd0314c0f7b2291e5b200ac8c7c3b92590612e809085906158c1565b60405180910390a3505050565b610b0581612e9a83612371565b613def565b6001600160a01b038316612ec55760405162461bcd60e51b8152600401610d8090615b9b565b6001600160a01b038216612eeb5760405162461bcd60e51b8152600401610d809061595b565b612ef6838383613ef9565b612f3381604051806060016040528060268152602001615f0d602691396001600160a01b0386166000908152603460205260409020549190612fb4565b6001600160a01b038085166000908152603460205260408082209390935590841681522054612f6290826133cd565b6001600160a01b0380841660008181526034602052604090819020939093559151908516907fddf252ad1be2c89b69c2b068fc378daa952ba7f163c4a11628f55a4df523b3ef90612e809085906158c1565b60008184841115612fd85760405162461bcd60e51b8152600401610d809190615948565b505050900390565b60005b82518110156114ef57613009838281518110612ffb57fe5b602002602001015183613f3c565b600101612fe3565b600590565b303b1590565b6040805180820190915260018152603560f81b6020820152816130525760405162461bcd60e51b8152600401610d809190615948565b5060425460ff60f01b191660f083901b176042819055505050565b603954604051638346525f60e01b815260609161010090046001600160a01b031690638346525f906130a39085906004016158c1565b60006040518083038186803b1580156130bb57600080fd5b505afa1580156130cf573d6000803e3d6000fd5b505050506040513d6000823e601f3d908101601f191682016040526130f79190810190614ec1565b9050805160011460405180604001604052806002815260200161313760f01b815250906131375760405162461bcd60e51b8152600401610d809190615948565b50603960019054906101000a90046001600160a01b03166001600160a01b0316632d5ad3d58260008151811061316957fe5b60200260200101516040518263ffffffff1660e01b815260040161318d91906156b6565b60206040518083038186803b1580156131a557600080fd5b505afa1580156131b9573d6000803e3d6000fd5b505050506040513d601f19601f820116820180604052508101906131dd91906152be565b60405180604001604052806002815260200161313960f01b815250906132165760405162461bcd60e51b8152600401610d809190615948565b50816047819055508060008151811061322b57fe5b6020026020010151604360006101000a8154816001600160a01b0302191690836001600160a01b031602179055505050565b8051611e9e9060379060208401906146bb565b8051611e9e9060389060208401906146bb565b6039805460ff191660ff92909216919091179055565b604255565b6132a7836135a9565b6132b0826135dc565b6114ef81613717565b6000467f8b73c3c69bb8fe3d512ecc4cf759cc79239f7b179b0ffacaa9a75d522b39400f6132e5613fd8565b805160209182012060408051808201825260018152603160f81b908401525161333593927fc89efdaa54c0f20c7adf612882df0950f5a951637e0307cdcb4c672f298b8bc69186913091016158fe565b6040516020818303038152906040528051906020012091505090565b6000816040516020016133649190615517565b604051602081830303815290604052805190602001209050919050565b6000610efe8260445485613fe2565b600061099c61339d612548565b61208661407f565b6000828211156133c75760405162461bcd60e51b8152600401610d8090615a17565b50900390565b600082820183811015610efe5760405162461bcd60e51b8152600401610d80906159e0565b6133fa614194565b6117a86141d4565b603954604051633b193fe560e01b815260009173D65F12ed2381D4dBF643af20EED294a24165325d91633b193fe59161344e91879161010090046001600160a01b03169060040161579c565b60206040518083038186803b15801561346657600080fd5b505af415801561347a573d6000803e3d6000fd5b505050506040513d601f19601f8201168201806040525081019061349e91906153fe565b905060005b818110156135a3576040805160c0810182526039546001600160a01b03610100909104811682523060208301526043541681830152606081018590526080810183905260a08101849052905163e8f4450d60e01b815261359b9173D65F12ed2381D4dBF643af20EED294a24165325d9163e8f4450d9161352891899190600401615838565b60006040518083038186803b15801561354057600080fd5b505af4158015613554573d6000803e3d6000fd5b505050506040513d6000823e601f3d908101601f1916820160405261357c9190810190614fe1565b604051806040016040528060018152602001601960f91b815250612fe0565b6001016134a3565b50505050565b604081815551339082907f70c87424f133fbd8c8e63b0dc9c2d2702db0a79d7d4139b25a5035f250b9f73890600090a350565b6041819055604051339082907f7af95a1df120276e178a852832ba64d58429b2b5986955c772448d80c08ef39290600090a350565b60008261362057506000610b20565b8282028284828161362d57fe5b0414610efe5760405162461bcd60e51b8152600401610d8090615acb565b600080821161366c5760405162461bcd60e51b8152600401610d8090615a94565b81838161367557fe5b049392505050565b61368960496000614662565b60005b8151811015611e9e5760498282815181106136a357fe5b602090810291909101810151825460018082018555600094855293839020825160029092020180546001600160a01b03199081166001600160a01b039384161782559383015190850180546040909401519390941691161760ff60a01b1916600160a01b911515919091021790550161368c565b6045819055604051339082907fae4cf6e16f407af30e4a8e158871dd4eb7d4ad22f2438ccc43c5855fcd6ebbee90600090a350565b801561377157436000908152604b60205260409020805460ff19166001179055610b05565b436000908152604b60209081526040918290205482518084019093526002835261189b60f11b9183019190915260ff1615611e9e5760405162461bcd60e51b8152600401610d809190615948565b60006137ff338685858080602002602001604051908101604052809392919081815260200183836020028082843760009201919091525061421592505050565b600061381e61380c610c7b565b611b61613817613390565b8990613611565b905061382a3387614248565b6000613834612548565b905081811015613a4457600061384a83836133a5565b905060006048805480602002602001604051908101604052809291908181526020016000905b828210156138d0576000848152602090819020604080516060810182526002860290920180546001600160a01b03908116845260019182015490811684860152600160a01b900460ff161515918301919091529083529092019101613870565b505060395460435460405163beead42360e01b815273D65F12ed2381D4dBF643af20EED294a24165325d9563beead42395506139259450926001600160a01b0361010090910481169216908890600401615802565b60206040518083038186803b15801561393d57600080fd5b505af4158015613951573d6000803e3d6000fd5b505050506040513d601f19601f8201168201806040525081019061397591906153fe565b9050613a066048805480602002602001604051908101604052809291908181526020016000905b828210156139fc576000848152602090819020604080516060810182526002860290920180546001600160a01b03908116845260019182015490811684860152600160a01b900460ff16151591830191909152908352909201910161399c565b5050505082613def565b6000613a10612548565b90506000613a1e82866133a5565b905083811015613a3f57613a3c613a3585836133a5565b87906133a5565b95505b505050505b6000613a4f83612044565b90508015613a7657604254604354613a76916001600160a01b039091169060501c8361432a565b6000613a8284836133a5565b905087811015604051806040016040528060018152602001603960f81b81525090613ac05760405162461bcd60e51b8152600401610d809190615948565b50604354613ad8906001600160a01b03168b8361432a565b9998505050505050505050565b3b151590565b60e0811415613bbd576043546040516000916001600160a01b031690613b209063d505accf60e01b90869086906020016155af565b60408051601f1981840301815290829052613b3a916155d3565b6000604051808303816000865af19150503d8060008114613b77576040519150601f19603f3d011682016040523d82523d6000602084013e613b7c565b606091505b505090508060405180604001604052806002815260200161191960f11b81525090613bba5760405162461bcd60e51b8152600401610d809190615948565b50505b610100811415611e9e576043546040516000916001600160a01b031690613bf3906323f2ebc360e21b90869086906020016155af565b60408051601f1981840301815290829052613c0d916155d3565b6000604051808303816000865af19150503d8060008114613c4a576040519150601f19603f3d011682016040523d82523d6000602084013e613c4f565b606091505b505090508060405180604001604052806002815260200161323360f01b815250906135a35760405162461bcd60e51b8152600401610d809190615948565b600080613c98613390565b90506000613ca587614380565b90506000613cb282612a14565b90506000613cc083836133a5565b9050613d02338b83858b8b808060200260200160405190810160405280939291908181526020018383602002808284376000920191909152506143b892505050565b6001600160a01b038b166000908152603d6020526040902054613d2590826133cd565b6001600160a01b038c166000908152603d60205260409020558115613d6357604254604354613d63916001600160a01b039091169060501c8461432a565b6000841580613d775750613d75610c7b565b155b15613d83575080613d9c565b613d9985611b61613d92610c7b565b8590613611565b90505b6040805180820190915260018152603960f81b602082015289821015613dd55760405162461bcd60e51b8152600401610d809190615948565b50613de08c826143ed565b9b9a5050505050505050505050565b815160005b818110156135a3576040805160c0810182526039546001600160a01b036101009091048116825230602083015260435416818301526060810185905282840360001901608082015260a08101849052905163fc3838d360e01b8152613ef19173D65F12ed2381D4dBF643af20EED294a24165325d9163fc3838d391613e7e91899190600401615838565b60006040518083038186803b158015613e9657600080fd5b505af4158015613eaa573d6000803e3d6000fd5b505050506040513d6000823e601f3d908101601f19168201604052613ed29190810190614fe1565b604051806040016040528060018152602001603360f81b815250612fe0565b600101613df4565b604080518082019091526002815261062760f31b60208201526001600160a01b0383163014156135a35760405162461bcd60e51b8152600401610d809190615948565b6000606083806020019051810190613f549190614a02565b915091506000826001600160a01b031682604051613f7291906155d3565b6000604051808303816000865af19150503d8060008114613faf576040519150601f19603f3d011682016040523d82523d6000602084013e613fb4565b606091505b50509050808490610e605760405162461bcd60e51b8152600401610d809190615948565b606061099c6109a2565b600081815b8551811015614074576000868281518110613ffe57fe5b6020026020010151905080831161403f5782816040516020016140229291906155a1565b60405160208183030381529060405280519060200120925061406b565b80836040516020016140529291906155a1565b6040516020818303038152906040528051906020012092505b50600101613fe7565b509092149392505050565b603f5460009061409057600061099c565b6048805480602002602001604051908101604052809291908181526020016000905b82821015614112576000848152602090819020604080516060810182526002860290920180546001600160a01b03908116845260019182015490811684860152600160a01b900460ff1615159183019190915290835290920191016140b2565b50506039546043546040516390c39beb60e01b815273D65F12ed2381D4dBF643af20EED294a24165325d956390c39beb95506141689450926001600160a01b0361010090910481169230929116906004016157c6565b60206040518083038186803b15801561418057600080fd5b505af41580156125a5573d6000803e3d6000fd5b6042546040805180820190915260028152610c4d60f21b602082015290600160f91b16610b055760405162461bcd60e51b8152600401610d809190615948565b604254604080518082019091526002815261313360f01b602082015290600160f81b1615610b055760405162461bcd60e51b8152600401610d809190615948565b60006060614224858585612b12565b91509150818190610e605760405162461bcd60e51b8152600401610d809190615948565b6001600160a01b03821661426e5760405162461bcd60e51b8152600401610d8090615b5a565b61427a82600083613ef9565b6142b781604051806060016040528060228152602001615eeb602291396001600160a01b0385166000908152603460205260409020549190612fb4565b6001600160a01b0383166000908152603460205260409020556036546142dd90826133a5565b6036556040516000906001600160a01b038416907fddf252ad1be2c89b69c2b068fc378daa952ba7f163c4a11628f55a4df523b3ef9061431e9085906158c1565b60405180910390a35050565b6114ef8363a9059cbb60e01b8484604051602401614349929190615735565b60408051601f198184030181529190526020810180516001600160e01b03166001600160e01b0319909316929092179091526144a1565b60008061438b612548565b6043549091506143a6906001600160a01b0316333086614530565b610efe816143b2612548565b906133a5565b600060606143c98787878787611277565b91509150818190611b235760405162461bcd60e51b8152600401610d809190615948565b6001600160a01b0382166144135760405162461bcd60e51b8152600401610d8090615d01565b61441f60008383613ef9565b60365461442c90826133cd565b6036556001600160a01b03821660009081526034602052604090205461445290826133cd565b6001600160a01b0383166000818152603460205260408082209390935591519091907fddf252ad1be2c89b69c2b068fc378daa952ba7f163c4a11628f55a4df523b3ef9061431e9085906158c1565b60606144f6826040518060400160405280602081526020017f5361666545524332303a206c6f772d6c6576656c2063616c6c206661696c6564815250856001600160a01b03166145519092919063ffffffff16565b8051909150156114ef578080602001905181019061451491906152be565b6114ef5760405162461bcd60e51b8152600401610d8090615c80565b6135a3846323b872dd60e01b85858560405160240161434993929190615711565b60606145608484600085614568565b949350505050565b60608247101561458a5760405162461bcd60e51b8152600401610d8090615a4e565b61459385613ae5565b6145af5760405162461bcd60e51b8152600401610d8090615c49565b60006060866001600160a01b031685876040516145cc91906155d3565b60006040518083038185875af1925050503d8060008114614609576040519150601f19603f3d011682016040523d82523d6000602084013e61460e565b606091505b509150915061461e828286614629565b979650505050505050565b60608315614638575081610efe565b8251156146485782518084602001fd5b8160405162461bcd60e51b8152600401610d809190615948565b5080546000825560020290600052602060002090810190610b059190614739565b6040805160c081018252600080825260208201529081016146a261476a565b8152600060208201526060604082018190529081015290565b828054600181600116156101000203166002900490600052602060002090601f016020900481019282601f106146fc57805160ff1916838001178555614729565b82800160010185558215614729579182015b8281111561472957825182559160200191906001019061470e565b50614735929150614781565b5090565b5b808211156147355780546001600160a01b03191681556001810180546001600160a81b031916905560020161473a565b604080518082019091526000808252602082015290565b5b808211156147355760008155600101614782565b60008083601f8401126147a7578182fd5b5081356001600160401b038111156147bd578182fd5b60208301915083602080830285010111156147d757600080fd5b9250929050565b600082601f8301126147ee578081fd5b81356148016147fc82615e4a565b615e24565b81815291506020808301908481018184028601820187101561482257600080fd5b60005b8481101561484157813584529282019290820190600101614825565b505050505092915050565b8051610b2081615ecd565b60008083601f840112614868578182fd5b5081356001600160401b0381111561487e578182fd5b6020830191508360208285010111156147d757600080fd5b600082601f8301126148a6578081fd5b81356148b46147fc82615e69565b91508082528360208285010111156148cb57600080fd5b8060208401602084013760009082016020015292915050565b600082601f8301126148f4578081fd5b81516149026147fc82615e69565b915080825283602082850101111561491957600080fd5b61492a816020840160208601615e8c565b5092915050565b600060408284031215614942578081fd5b61494c6040615e24565b9050815161495981615edb565b8152602082015161496981615edb565b602082015292915050565b600060608284031215614985578081fd5b61498f6060615e24565b9050813561499c81615eb8565b815260208201356149ac81615eb8565b602082015260408201356149bf81615ecd565b604082015292915050565b6000602082840312156149db578081fd5b8135610efe81615eb8565b6000602082840312156149f7578081fd5b8151610efe81615eb8565b60008060408385031215614a14578081fd5b8251614a1f81615eb8565b60208401519092506001600160401b03811115614a3a578182fd5b614a46858286016148e4565b9150509250929050565b60008060408385031215614a62578182fd5b8235614a6d81615eb8565b91506020830135614a7d81615eb8565b809150509250929050565b600080600080600080600060e0888a031215614aa2578283fd5b8735614aad81615eb8565b9650602088810135614abe81615eb8565b96506040890135614ace81615ecd565b9550606089013594506080890135935060a08901356001600160401b0380821115614af7578485fd5b818b0191508b601f830112614b0a578485fd5b8135614b186147fc82615e4a565b8082825285820191508585018f878886028801011115614b36578889fd5b8895505b83861015614b61578035614b4d81615eb8565b835260019590950194918601918601614b3a565b509650505060c08b0135925080831115614b79578384fd5b5050614b878a828b01614896565b91505092959891949750929550565b600080600060608486031215614baa578081fd5b8335614bb581615eb8565b92506020840135614bc581615eb8565b929592945050506040919091013590565b600080600080600080600060e0888a031215614bf0578081fd5b8735614bfb81615eb8565b96506020880135614c0b81615eb8565b955060408801359450606088013593506080880135614c2981615edb565b9699959850939692959460a0840135945060c09093013592915050565b600080600080600060a08688031215614c5d578283fd5b8535614c6881615eb8565b94506020860135614c7881615ecd565b9350604086013592506060860135915060808601356001600160401b03811115614ca0578182fd5b614cac888289016147de565b9150509295509295909350565b60008060008060008060008060006101208a8c031215614cd7578283fd5b8935614ce281615eb8565b985060208a0135975060408a0135965060608a01356001600160401b03811115614d0a578384fd5b614d168c828d01614896565b999c989b50969960808101359860a0820135985060c0820135975060e0820135965061010090910135945092505050565b60008060408385031215614d59578182fd5b8235614d6481615eb8565b946020939093013593505050565b600080600060608486031215614d86578081fd5b8335614d9181615eb8565b92506020840135915060408401356001600160401b03811115614db2578182fd5b614dbe868287016147de565b9150509250925092565b600080600080600060808688031215614ddf578283fd5b8535614dea81615eb8565b9450602086013593506040860135925060608601356001600160401b03811115614e12578182fd5b614e1e88828901614796565b969995985093965092949392505050565b600080600080600080600060a0888a031215614e49578081fd5b8735614e5481615eb8565b9650602088013595506040880135945060608801356001600160401b0380821115614e7d578283fd5b614e898b838c01614857565b909650945060808a0135915080821115614ea1578283fd5b50614eae8a828b01614796565b989b979a50959850939692959293505050565b60006020808385031215614ed3578182fd5b82516001600160401b03811115614ee8578283fd5b8301601f81018513614ef8578283fd5b8051614f066147fc82615e4a565b8181528381019083850185840285018601891015614f22578687fd5b8694505b83851015614f4d578051614f3981615eb8565b835260019490940193918501918501614f26565b50979650505050505050565b60006020808385031215614f6b578182fd5b82356001600160401b03811115614f80578283fd5b8301601f81018513614f90578283fd5b8035614f9e6147fc82615e4a565b81815283810190838501865b84811015614fd357614fc18a888435890101614896565b84529286019290860190600101614faa565b509098975050505050505050565b60006020808385031215614ff3578182fd5b82516001600160401b03811115615008578283fd5b8301601f81018513615018578283fd5b80516150266147fc82615e4a565b81815283810190838501865b84811015614fd3576150498a8884518901016148e4565b84529286019290860190600101615032565b60008060008060408587031215615070578182fd5b84356001600160401b0380821115615086578384fd5b61509288838901614796565b909650945060208701359150808211156150aa578384fd5b506150b787828801614796565b95989497509550505050565b600060208083850312156150d5578182fd5b82356001600160401b038111156150ea578283fd5b8301601f810185136150fa578283fd5b80356151086147fc82615e4a565b818152838101908385016060808502860187018a1015615126578788fd5b8795505b84861015614fd35761513c8a83614974565b845260019590950194928601929081019061512a565b60006020808385031215615164578182fd5b82516001600160401b03811115615179578283fd5b8301601f81018513615189578283fd5b80516151976147fc82615e4a565b818152838101908385016060808502860187018a10156151b5578788fd5b8795505b84861015614fd35780828b0312156151cf578788fd5b6151d881615e24565b82516151e381615eb8565b8152828801516151f281615eb8565b8189015260408381015161520581615ecd565b9082015284526001959095019492860192908101906151b9565b60006020808385031215615231578182fd5b82516001600160401b03811115615246578283fd5b8301601f81018513615256578283fd5b80516152646147fc82615e4a565b8181528381019083850185840285018601891015615280578687fd5b8694505b83851015614f4d578051835260019490940193918501918501615284565b6000602082840312156152b3578081fd5b8135610efe81615ecd565b6000602082840312156152cf578081fd5b8151610efe81615ecd565b6000602082840312156152eb578081fd5b5035919050565b60008060208385031215615304578182fd5b82356001600160401b03811115615319578283fd5b61532585828601614857565b90969095509350505050565b600060208284031215615342578081fd5b81516001600160401b0380821115615358578283fd5b9083019060e0828603121561536b578283fd5b61537560c0615e24565b82518152615386866020850161484c565b60208201526153988660408501614931565b60408201526153aa866080850161484c565b606082015260a0830151828111156153c0578485fd5b6153cc878286016148e4565b60808301525060c0830151828111156153e3578485fd5b6153ef878286016148e4565b60a08301525095945050505050565b60006020828403121561540f578081fd5b5051919050565b60008060408385031215615428578182fd5b50508035926020909101359150565b60008060006060848603121561544b578081fd5b505081359360208301359350604090920135919050565b600060208284031215615473578081fd5b8151610efe81615edb565b6000815180845260208085019450808401835b838110156154b7576154a48783516154ee565b6060969096019590820190600101615491565b509495945050505050565b600081518084526154da816020860160208601615e8c565b601f01601f19169290920160200192915050565b80516001600160a01b039081168352602080830151909116908301526040908101511515910152565b60609190911b6bffffffffffffffffffffffff1916815260140190565b6bffffffffffffffffffffffff19606094851b811682529290931b9091166014830152151560f81b602882015260290190565b600083825260208083018451828601845b8281101561559457815184529284019290840190600101615578565b5091979650505050505050565b918252602082015260400190565b6001600160e01b031984168152600082846004840137910160040190815292915050565b600082516155e5818460208701615e8c565b9190910192915050565b600066027b83a3ca334960cd1b82528351615611816007850160208801615e8c565b600160fd1b6007918401918201528351615632816008840160208801615e8c565b650815985d5b1d60d21b60089290910191820152600e01949350505050565b61190160f01b81526002810192909252602282015260420190565b60006106f760f41b82528351615689816002850160208801615e8c565b602d60f81b60029184019182015283516156aa816003840160208801615e8c565b01600301949350505050565b6001600160a01b0391909116815260200190565b6001600160a01b0393841681529183166020830152909116604082015260600190565b6001600160a01b039384168152919092166020820152901515604082015260600190565b6001600160a01b039384168152919092166020820152604081019190915260600190565b6001600160a01b03929092168252602082015260400190565b6020808252825182820181905260009190848201906040850190845b818110156157905761577d8385516154ee565b928401926060929092019160010161576a565b50909695505050505050565b6000604082526157af604083018561547e565b905060018060a01b03831660208301529392505050565b6000608082526157d9608083018761547e565b6001600160a01b0395861660208401529385166040830152509216606090920191909152919050565b600060808252615815608083018761547e565b6001600160a01b0395861660208401529390941660408201526060015292915050565b600060e0825261584b60e083018561547e565b905060018060a01b038084511660208401528060208501511660408401528060408501511660608401525060608301516080830152608083015160a083015260a083015160c08301529392505050565b901515815260200190565b600083151582526040602083015261456060408301846154c2565b90815260200190565b9586526001600160a01b0394851660208701529290931660408501526060840152608083019190915260a082015260c00190565b9485526020850193909352604084019190915260608301526001600160a01b0316608082015260a00190565b93845260ff9290921660208401526040830152606082015260800190565b600060208252610efe60208301846154c2565b60208082526023908201527f45524332303a207472616e7366657220746f20746865207a65726f206164647260408201526265737360e81b606082015260800190565b60208082526022908201527f45524332303a20617070726f766520746f20746865207a65726f206164647265604082015261737360f01b606082015260800190565b6020808252601b908201527f536166654d6174683a206164646974696f6e206f766572666c6f770000000000604082015260600190565b6020808252601e908201527f536166654d6174683a207375627472616374696f6e206f766572666c6f770000604082015260600190565b60208082526026908201527f416464726573733a20696e73756666696369656e742062616c616e636520666f6040820152651c8818d85b1b60d21b606082015260800190565b6020808252601a908201527f536166654d6174683a206469766973696f6e206279207a65726f000000000000604082015260600190565b60208082526021908201527f536166654d6174683a206d756c7469706c69636174696f6e206f766572666c6f6040820152607760f81b606082015260800190565b6020808252602e908201527f436f6e747261637420696e7374616e63652068617320616c726561647920626560408201526d195b881a5b9a5d1a585b1a5e995960921b606082015260800190565b60208082526021908201527f45524332303a206275726e2066726f6d20746865207a65726f206164647265736040820152607360f81b606082015260800190565b60208082526025908201527f45524332303a207472616e736665722066726f6d20746865207a65726f206164604082015264647265737360d81b606082015260800190565b6020808252600b908201526a085a5cd0dbdb9d1c9858dd60aa1b604082015260600190565b60208082526024908201527f45524332303a20617070726f76652066726f6d20746865207a65726f206164646040820152637265737360e01b606082015260800190565b6020808252601d908201527f416464726573733a2063616c6c20746f206e6f6e2d636f6e7472616374000000604082015260600190565b6020808252602a908201527f5361666545524332303a204552433230206f7065726174696f6e20646964206e6040820152691bdd081cdd58d8d9595960b21b606082015260800190565b6020808252601f908201527f5265656e7472616e637947756172643a207265656e7472616e742063616c6c00604082015260600190565b6020808252601f908201527f45524332303a206d696e7420746f20746865207a65726f206164647265737300604082015260600190565b600060208252825160a06020840152615d5460c08401826154c2565b905060018060a01b0360208501511660408401526040840151606084015260608401516080840152608084015160a08401528091505092915050565b600060a082018783526020878185015260a0604085015281875180845260c0860191508289019350845b81811015615ddf5784516001600160a01b031683529383019391830191600101615dba565b50506001600160a01b03969096166060850152505050608001529392505050565b9283526020830191909152604082015260600190565b60ff91909116815260200190565b6040518181016001600160401b0381118282101715615e4257600080fd5b604052919050565b60006001600160401b03821115615e5f578081fd5b5060209081020190565b60006001600160401b03821115615e7e578081fd5b50601f01601f191660200190565b60005b83811015615ea7578181015183820152602001615e8f565b838111156135a35750506000910152565b6001600160a01b0381168114610b0557600080fd5b8015158114610b0557600080fd5b60ff81168114610b0557600080fdfe45524332303a206275726e20616d6f756e7420657863656564732062616c616e636545524332303a207472616e7366657220616d6f756e7420657863656564732062616c616e636563616c6c6572206973206e6f74207468652066696e616e63654f70657261746f7245524332303a207472616e7366657220616d6f756e74206578636565647320616c6c6f77616e636563616c6c6572206973206e6f74207468652073747261746567794f70657261746f7245524332303a2064656372656173656420616c6c6f77616e63652062656c6f77207a65726fa164736f6c634300060c000a",
  "deployedBytecode": "0x608060405234801561001057600080fd5b50600436106103fc5760003560e01c80637ecebe0011610215578063c66da8e811610125578063d952ca50116100b8578063e06070b311610087578063e06070b314610823578063e940325614610836578063eb3349b914610849578063ef01fb761461085c578063f982d0741461086f576103fc565b8063d952ca50146107d4578063db7e5632146107e7578063dd62ed3e146107ef578063ddf0b00914610802576103fc565b8063d07c179b116100f4578063d07c179b14610793578063d46ae8e2146107a6578063d505accf146107ae578063d5802ec2146107c1576103fc565b8063c66da8e81461075d578063c9dd6b2414610765578063ca37271b1461076d578063cf85f08014610780576103fc565b8063a3708584116101a8578063a9b497c811610177578063a9b497c814610714578063ae78b1b01461071c578063b1ff852214610724578063b84c824614610737578063c47f00271461074a576103fc565b8063a3708584146106d3578063a457c2d7146106db578063a9059cbb146106ee578063a91ee0dc14610701576103fc565b80638d1efd78116101e45780638d1efd781461069d57806395d89b41146106b05780639f4acea6146106b8578063a30b7271146106cb576103fc565b80637ecebe001461065c578063890ddde81461066f5780638aa2e4b4146106825780638c0e035714610695576103fc565b80632e40939c1161031057806357a194ab116102a3578063715aa87411610272578063715aa8741461062957806377c7b8fc1461063c57806378160376146106445780637c8eb82a1461064c5780637d7c2a1c14610654576103fc565b806357a194ab146105ce5780636889d673146105e15780636db5eeb2146105f457806370a0823114610616576103fc565b80633644e515116102df5780633644e5151461059857806337d62e54146105a057806339509351146105b35780633c870dcf146105c6576103fc565b80632e40939c146105605780632e935aa71461056857806330adf81f1461057b578063313ce56714610583576103fc565b80631f6dcbce1161039357806328c1f99b1161036257806328c1f99b1461050957806329dc0658146105115780632a4d7943146105195780632b86b6661461052c5780632d5cd59f1461053f576103fc565b80631f6dcbce146104ac57806323b872dd146104bf57806323bb5fac146104d25780632495a599146104f4576103fc565b8063095ea7b3116103cf578063095ea7b31461045e57806314c644021461047e57806318160ddd146104915780631a86549714610499576103fc565b806303f2e589146104015780630537df971461041f57806306fdde03146104345780630713477314610449575b600080fd5b610409610882565b60405161041691906158c1565b60405180910390f35b610427610888565b604051610416919061574e565b61043c6109a2565b6040516104169190615948565b61045c6104573660046152da565b610a38565b005b61047161046c366004614d47565b610b08565b604051610416919061589b565b61045c61048c3660046152a2565b610b26565b610409610c7b565b61045c6104a736600461505b565b610c81565b6104716104ba3660046152da565b610e68565b6104716104cd366004614b96565b610e7d565b6104e56104e0366004615416565b610f05565b60405161041693929190615e00565b6104fc610f44565b60405161041691906156b6565b6104fc610f53565b610409610f67565b61045c610527366004614f59565b610f6d565b61045c61053a366004614cb9565b610fe2565b61055261054d366004614c46565b611277565b6040516104169291906158a6565b6105526113ec565b61045c610576366004615437565b61143d565b6104096114f4565b61058b611518565b6040516104169190615e16565b610409611521565b61045c6105ae3660046152a2565b611564565b6104716105c1366004614d47565b6116b4565b61045c611702565b61045c6105dc3660046152da565b6117aa565b61045c6105ef3660046152da565b611804565b6106076106023660046152da565b61185e565b604051610416939291906156ed565b6104096106243660046149ca565b6118a1565b61045c610637366004614a88565b6118c0565b610409611b2d565b61043c611b76565b610552611b93565b61045c611bfc565b61040961066a3660046149ca565b611ea2565b61040961067d3660046150c3565b611ebd565b61045c6106903660046152da565b611fe4565b61040961203e565b6104096106ab3660046152da565b612044565b61043c61208c565b6104096106c6366004614dc8565b6120ed565b61040961213d565b610427612142565b6104716106e9366004614d47565b6121cf565b6104716106fc366004614d47565b612237565b61045c61070f3660046149ca565b61224b565b610409612365565b61040961236b565b6104096107323660046150c3565b612371565b61045c6107453660046152f2565b612419565b61045c6107583660046152f2565b6124a9565b610409612548565b6104096125c9565b61045c61077b3660046149ca565b6125cf565b61045c61078e3660046152da565b6126e5565b61045c6107a13660046152da565b61273f565b610409612827565b61045c6107bc366004614bd6565b61282d565b6104096107cf3660046152da565b612a14565b61045c6107e23660046152da565b612a52565b610409612aac565b6104096107fd366004614a50565b612ab2565b6108156108103660046152da565b612add565b604051610416929190615735565b610552610831366004614d72565b612b12565b6104096108443660046149ca565b612bba565b6104096108573660046149ca565b612bcc565b61045c61086a36600461505b565b612bde565b61040961087d366004614e2f565b612d40565b60445481565b6060603960019054906101000a90046001600160a01b03166001600160a01b031663d71f05e66040518163ffffffff1660e01b815260040160206040518083038186803b1580156108d857600080fd5b505afa1580156108ec573d6000803e3d6000fd5b505050506040513d601f19601f8201168201806040525081019061091091906149e6565b6001600160a01b031663a64e1e7b60f0604254901c60ff166047546040518363ffffffff1660e01b81526004016109489291906155a1565b60006040518083038186803b15801561096057600080fd5b505afa158015610974573d6000803e3d6000fd5b505050506040513d6000823e601f3d908101601f1916820160405261099c9190810190615152565b90505b90565b60378054604080516020601f6002600019610100600188161502019095169490940493840181900481028201810190925282815260609390929091830182828015610a2e5780601f10610a0357610100808354040283529160200191610a2e565b820191906000526020600020905b815481529060010190602001808311610a1157829003601f168201915b5050505050905090565b610afc603960019054906101000a90046001600160a01b03166001600160a01b031663289b3c0d6040518163ffffffff1660e01b815260040160206040518083038186803b158015610a8957600080fd5b505afa158015610a9d573d6000803e3d6000fd5b505050506040513d601f19601f82011682018060405250810190610ac191906149e6565b6040518060400160405280601f81526020017f63616c6c6572206973206e6f7420686176696e6720676f7665726e616e636500815250612da6565b610b0581612dd0565b50565b6000610b1c610b15612dd5565b8484612dd9565b5060015b92915050565b610b77603960019054906101000a90046001600160a01b03166001600160a01b031663289b3c0d6040518163ffffffff1660e01b815260040160206040518083038186803b158015610a8957600080fd5b60428054600160ff60f81b031690558015610c415760428054600160f81b179055603f5415610c4157610c2e6048805480602002602001604051908101604052809291908181526020016000905b82821015610c25576000848152602090819020604080516060810182526002860290920180546001600160a01b03908116845260019182015490811684860152600160a01b900460ff161515918301919091529083529092019101610bc5565b50505050612e8d565b6000603f819055610c4190604890614662565b6042546040513391600160f81b161515907f3f14e04c219cb203de89f60db463113cc68cf16c00a46ef96a1fce6ca8abb5bb90600090a350565b60365490565b610d45603960019054906101000a90046001600160a01b03166001600160a01b0316637af0e5576040518163ffffffff1660e01b815260040160206040518083038186803b158015610cd257600080fd5b505afa158015610ce6573d6000803e3d6000fd5b505050506040513d601f19601f82011682018060405250810190610d0a91906149e6565b6040518060400160405280601e81526020017f63616c6c6572206973206e6f7420746865207269736b4f70657261746f720000815250612da6565b604080518082019091526002815261064760f31b60208201528390828214610d895760405162461bcd60e51b8152600401610d809190615948565b60405180910390fd5b5060005b84811015610e6057858582818110610da157fe5b9050602002016020810190610db691906149ca565b6001600160a01b031663095ea7b3858584818110610dd057fe5b9050602002016020810190610de591906149ca565b6000196040518363ffffffff1660e01b8152600401610e05929190615735565b602060405180830381600087803b158015610e1f57600080fd5b505af1158015610e33573d6000803e3d6000fd5b505050506040513d601f19601f82011682018060405250810190610e5791906152be565b50600101610d8d565b505050505050565b604b6020526000908152604090205460ff1681565b6000610e8a848484612e9f565b610efa84610e96612dd5565b610ef585604051806060016040528060288152602001615f54602891396001600160a01b038a16600090815260356020526040812090610ed4612dd5565b6001600160a01b031681526020810191909152604001600020549190612fb4565b612dd9565b5060015b9392505050565b603e6020528160005260406000208181548110610f1e57fe5b600091825260209091206003909102018054600182015460029092015490935090915083565b6043546001600160a01b031681565b60395461010090046001600160a01b031681565b60455481565b610fbe603960019054906101000a90046001600160a01b03166001600160a01b031663289b3c0d6040518163ffffffff1660e01b815260040160206040518083038186803b158015610a8957600080fd5b610b058160405180604001604052806002815260200161313560f01b815250612fe0565b6000610fec613011565b60015490915060ff16806110035750611003613016565b8061100f575060005481115b61102b5760405162461bcd60e51b8152600401610d8090615b0c565b60015460ff1615801561104a576001805460ff19168117905560008290555b6000885111604051806040016040528060018152602001600d60fa1b815250906110875760405162461bcd60e51b8152600401610d809190615948565b5060398054610100600160a81b0319166101006001600160a01b038e16021790556110b0614683565b603954604051639ec39e2f60e01b81526101009091046001600160a01b031690639ec39e2f906110e4908b906004016158c1565b60006040518083038186803b1580156110fc57600080fd5b505afa158015611110573d6000803e3d6000fd5b505050506040513d6000823e601f3d908101601f191682016040526111389190810190615331565b905061114888826060015161301c565b6111518b61306d565b61117f89826080015160405160200161116b9291906155ef565b60405160208183030381529060405261325d565b6111ad898260a0015160405160200161119992919061566c565b604051602081830303815290604052613270565b6043546040805163313ce56760e01b81529051611230926001600160a01b03169163313ce567916004808301926020929190829003018186803b1580156111f357600080fd5b505afa158015611207573d6000803e3d6000fd5b505050506040513d601f19601f8201168201806040525081019061122b9190615462565b613283565b6112398a612dd0565b61124287613299565b61124d86868661329e565b6112556132b9565b60465550801561126a576001805460ff191690555b5050505050505050505050565b60006060604254600160fa1b166000141580156112a357506112a161129b88613351565b84613381565b155b156112ca5750506040805180820190915260018152600760fb1b60208201526000906113e2565b6041548510156112f7575050604080518082019091526002815261031360f41b60208201526000906113e2565b6000611301613390565b90508615801561131b575060455461131982876133a5565b115b15611344575050604080518082019091526002815261313160f01b6020820152600091506113e2565b60455461135182886133cd565b111561137b575050604080518082019091526002815261313160f01b6020820152600091506113e2565b604080546001600160a01b038a166000908152603d60205291909120546113a290886133cd565b11156113cc575050604080518082019091526002815261189960f11b6020820152600091506113e2565b5050604080516020810190915260008152600191505b9550959350505050565b60006060604254600160f91b16600014156114245750506040805180820190915260028152610c4d60f21b6020820152600090611439565b50506040805160208101909152600081526001905b9091565b6114e4603960019054906101000a90046001600160a01b03166001600160a01b031663054159966040518163ffffffff1660e01b815260040160206040518083038186803b15801561148e57600080fd5b505afa1580156114a2573d6000803e3d6000fd5b505050506040513d601f19601f820116820180604052508101906114c691906149e6565b604051806060016040528060218152602001615f3360219139612da6565b6114ef83838361329e565b505050565b7f6e71edae12b1b97f4d1f60370fef10105fa2faae0126114a169c64845d6126c981565b60395460ff1690565b6000467f000000000000000000000000000000000000000000000000000000000000000081141561155657505060465461099f565b61155e6132b9565b91505090565b6115b5603960019054906101000a90046001600160a01b03166001600160a01b031663289b3c0d6040518163ffffffff1660e01b815260040160206040518083038186803b158015610a8957600080fd5b604280546001607f60f91b031690558061166d57603f54156116685761165560488054806020026020016040519081016040528092919081815260200160009082821015610c25576000848152602090819020604080516060810182526002860290920180546001600160a01b03908116845260019182015490811684860152600160a01b900460ff161515918301919091529083529092019101610bc5565b6000603f81905561166890604890614662565b61167a565b60428054600160f91b1790555b6042546040513391600160f91b161515907fbef546d8099130f7f80a42b7eb7f2aa81c1dd73f07fc569fe30338e102bba27390600090a350565b6000610b1c6116c1612dd5565b84610ef585603560006116d2612dd5565b6001600160a01b03908116825260208083019390935260409182016000908120918c1681529252902054906133cd565b61170a6133f2565b603f54156117a8576117a86048805480602002602001604051908101604052809291908181526020016000905b82821015611797576000848152602090819020604080516060810182526002860290920180546001600160a01b03908116845260019182015490811684860152600160a01b900460ff161515918301919091529083529092019101611737565b505050506117a3612548565b613402565b565b6117fb603960019054906101000a90046001600160a01b03166001600160a01b031663054159966040518163ffffffff1660e01b815260040160206040518083038186803b15801561148e57600080fd5b610b05816135a9565b611855603960019054906101000a90046001600160a01b03166001600160a01b031663054159966040518163ffffffff1660e01b815260040160206040518083038186803b15801561148e57600080fd5b610b05816135dc565b6048818154811061186b57fe5b6000918252602090912060029091020180546001909101546001600160a01b03918216925090811690600160a01b900460ff1683565b6001600160a01b0381166000908152603460205260409020545b919050565b611967603960019054906101000a90046001600160a01b03166001600160a01b031663fabee0e66040518163ffffffff1660e01b815260040160206040518083038186803b15801561191157600080fd5b505afa158015611925573d6000803e3d6000fd5b505050506040513d601f19601f8201168201806040525081019061194991906149e6565b604051806060016040528060228152602001615f7c60229139612da6565b6040516370a0823160e01b81526000906001600160a01b038916906370a08231906119969030906004016156b6565b60206040518083038186803b1580156119ae57600080fd5b505afa1580156119c2573d6000803e3d6000fd5b505050506040513d601f19601f820116820180604052508101906119e691906153fe565b90508515611a97576040805160a0810182528381523060208201528082018690526060810183905260808101879052905163c04b8d5960e01b81526001600160a01b0389169163c04b8d5991611a3f9190600401615d38565b602060405180830381600087803b158015611a5957600080fd5b505af1158015611a6d573d6000803e3d6000fd5b505050506040513d601f19601f82011682018060405250810190611a9191906153fe565b50611b23565b6040516338ed173960e01b81526001600160a01b038816906338ed173990611acb9084908990889030908b90600401615d90565b600060405180830381600087803b158015611ae557600080fd5b505af1158015611af9573d6000803e3d6000fd5b505050506040513d6000823e601f3d908101601f19168201604052611b21919081019061521f565b505b5050505050505050565b6000611b37610c7b565b15611b6e57611b67611b47610c7b565b611b61670de0b6b3a7640000611b5b613390565b90613611565b9061364b565b905061099f565b50600061099f565b604051806040016040528060018152602001603160f81b81525081565b60006060604254600160f91b1660001415611bcb5750506040805180820190915260028152610c4d60f21b6020820152600090611439565b604254600160f81b1615611424575050604080518082019091526002815261313360f01b6020820152600090611439565b611c046133f2565b611c14611c0f610888565b61367d565b6000611ca46049805480602002602001604051908101604052809291908181526020016000905b82821015611c9b576000848152602090819020604080516060810182526002860290920180546001600160a01b03908116845260019182015490811684860152600160a01b900460ff161515918301919091529083529092019101611c3b565b50505050611ebd565b9050603f548114611dec57603f5415611d3b57611d3b60488054806020026020016040519081016040528092919081815260200160009082821015610c25576000848152602090819020604080516060810182526002860290920180546001600160a01b03908116845260019182015490811684860152600160a01b900460ff161515918301919091529083529092019101610bc5565b611d4760486000614662565b60005b604954811015611de557604860498281548110611d6357fe5b6000918252602080832084546001818101875595855291909320600292830290930180549190920290920180546001600160a01b03199081166001600160a01b03948516178255918401805491850180549093169190931617808255915460ff600160a01b918290041615150260ff60a01b1990921691909117905501611d4a565b50603f8190555b6000611df6612548565b603f5490915015801590611e0a5750600081115b15611e9e57611e9e6048805480602002602001604051908101604052809291908181526020016000905b82821015611e94576000848152602090819020604080516060810182526002860290920180546001600160a01b03908116845260019182015490811684860152600160a01b900460ff161515918301919091529083529092019101611e34565b5050505082613402565b5050565b6001600160a01b03166000908152604a602052604090205490565b805160009015611fdc57606082516001600160401b0381118015611ee057600080fd5b50604051908082528060200260200182016040528015611f0a578160200160208202803683370190505b50905060005b8351811015611fa857838181518110611f2557fe5b602002602001015160000151848281518110611f3d57fe5b602002602001015160200151858381518110611f5557fe5b602002602001015160400151604051602001611f7393929190615534565b60405160208183030381529060405280519060200120828281518110611f9557fe5b6020908102919091010152600101611f10565b5060475481604051602001611fbe929190615567565b604051602081830303815290604052805190602001209150506118bb565b506000919050565b612035603960019054906101000a90046001600160a01b03166001600160a01b031663054159966040518163ffffffff1660e01b815260040160206040518083038186803b15801561148e57600080fd5b610b0581613717565b60405481565b6000610b20612051611518565b60ff16600a0a6020604254901c61ffff1602612086612710611b616030604254901c61ffff168761361190919063ffffffff16565b906133cd565b60388054604080516020601f6002600019610100600188161502019095169490940493840181900481028201810190925282815260609390929091830182828015610a2e5780601f10610a0357610100808354040283529160200191610a2e565b60006002603a5414156121125760405162461bcd60e51b8152600401610d8090615cca565b6002603a55612121600061374c565b61212e86868686866137bf565b6001603a559695505050505050565b600581565b60606048805480602002602001604051908101604052809291908181526020016000905b828210156121c6576000848152602090819020604080516060810182526002860290920180546001600160a01b03908116845260019182015490811684860152600160a01b900460ff161515918301919091529083529092019101612166565b50505050905090565b6000610b1c6121dc612dd5565b84610ef585604051806060016040528060258152602001615f9e6025913960356000612206612dd5565b6001600160a01b03908116825260208083019390935260409182016000908120918d16815292529020549190612fb4565b6000610b1c612244612dd5565b8484612e9f565b61230f603960019054906101000a90046001600160a01b03166001600160a01b031663e7f43c686040518163ffffffff1660e01b815260040160206040518083038186803b15801561229c57600080fd5b505afa1580156122b0573d6000803e3d6000fd5b505050506040513d601f19601f820116820180604052508101906122d491906149e6565b6040518060400160405280601a81526020017f63616c6c6572206973206e6f7420746865206f70657261746f72000000000000815250612da6565b612321816001600160a01b0316613ae5565b61233d5760405162461bcd60e51b8152600401610d8090615be0565b603980546001600160a01b0390921661010002610100600160a81b0319909216919091179055565b603f5481565b60415481565b603954604354604051633c4e54b360e21b815260009273__$75964efb2d189caa452506d4572908229a$__9263f13952cc926123c99287926001600160a01b03610100909204821692309291909116906004016157c6565b60206040518083038186803b1580156123e157600080fd5b505af41580156123f5573d6000803e3d6000fd5b505050506040513d601f19601f82011682018060405250810190610b2091906153fe565b61246a603960019054906101000a90046001600160a01b03166001600160a01b031663289b3c0d6040518163ffffffff1660e01b815260040160206040518083038186803b158015610a8957600080fd5b611e9e82828080601f01602080910402602001604051908101604052809392919081815260200183838082843760009201919091525061327092505050565b6124fa603960019054906101000a90046001600160a01b03166001600160a01b031663289b3c0d6040518163ffffffff1660e01b815260040160206040518083038186803b158015610a8957600080fd5b61253982828080601f01602080910402602001604051908101604052809392919081815260200183838082843760009201919091525061325d92505050565b6125416132b9565b6046555050565b6043546040516370a0823160e01b81526000916001600160a01b0316906370a08231906125799030906004016156b6565b60206040518083038186803b15801561259157600080fd5b505afa1580156125a5573d6000803e3d6000fd5b505050506040513d601f19601f8201168201806040525081019061099c91906153fe565b60475481565b612620603960019054906101000a90046001600160a01b03166001600160a01b031663fabee0e66040518163ffffffff1660e01b815260040160206040518083038186803b15801561191157600080fd5b603954604051632ff4c5e160e01b8152610b059173__$75964efb2d189caa452506d4572908229a$__91632ff4c5e191612671916001600160a01b03808816926101009004169030906004016156ca565b60006040518083038186803b15801561268957600080fd5b505af415801561269d573d6000803e3d6000fd5b505050506040513d6000823e601f3d908101601f191682016040526126c59190810190614fe1565b60405180604001604052806002815260200161032360f41b815250612fe0565b612736603960019054906101000a90046001600160a01b03166001600160a01b031663289b3c0d6040518163ffffffff1660e01b815260040160206040518083038186803b158015610a8957600080fd5b610b0581613299565b612790603960019054906101000a90046001600160a01b03166001600160a01b031663289b3c0d6040518163ffffffff1660e01b815260040160206040518083038186803b158015610a8957600080fd5b603954604051639ec39e2f60e01b8152610b059183916101009091046001600160a01b031690639ec39e2f906127ca9084906004016158c1565b60006040518083038186803b1580156127e257600080fd5b505afa1580156127f6573d6000803e3d6000fd5b505050506040513d6000823e601f3d908101601f1916820160405261281e9190810190615331565b6060015161301c565b60465481565b604080518082019091526002815261323560f01b60208201526001600160a01b03881661286d5760405162461bcd60e51b8152600401610d809190615948565b508342111560405180604001604052806002815260200161191b60f11b815250906128ab5760405162461bcd60e51b8152600401610d809190615948565b506001600160a01b0387166000908152604a6020526040812054906128ce611521565b7f6e71edae12b1b97f4d1f60370fef10105fa2faae0126114a169c64845d6126c98a8a8a868b604051602001612909969594939291906158ca565b60405160208183030381529060405280519060200120604051602001612930929190615651565b6040516020818303038152906040528051906020012090506001818686866040516000815260200160405260405161296b949392919061592a565b6020604051602081039080840390855afa15801561298d573d6000803e3d6000fd5b505050602060405103516001600160a01b0316896001600160a01b03161460405180604001604052806002815260200161323760f01b815250906129e45760405162461bcd60e51b8152600401610d809190615948565b506129f08260016133cd565b6001600160a01b038a166000908152604a6020526040902055611b21898989612dd9565b6000610b20612a21611518565b60ff16600a0a60425461ffff1602612086612710611b616010604254901c61ffff168761361190919063ffffffff16565b612aa3603960019054906101000a90046001600160a01b03166001600160a01b031663e7f43c686040518163ffffffff1660e01b815260040160206040518083038186803b15801561229c57600080fd5b610b058161306d565b60425481565b6001600160a01b03918216600090815260356020908152604080832093909416825291909152205490565b603b8181548110612aea57fe5b6000918252602090912060029091020180546001909101546001600160a01b03909116915082565b60006060604254600160fa1b16600014158015612b385750612b3661129b86613351565b155b15612b5f5750506040805180820190915260018152600760fb1b6020820152600090612bb2565b600084118015612b775750612b73856118a1565b8411155b612b9d5750506040805180820190915260018152603160f81b6020820152600090612bb2565b50506040805160208101909152600081526001905b935093915050565b603d6020526000908152604090205481565b603c6020526000908152604090205481565b612c2f603960019054906101000a90046001600160a01b03166001600160a01b0316637af0e5576040518163ffffffff1660e01b815260040160206040518083038186803b158015610cd257600080fd5b604080518082019091526002815261064760f31b60208201528390828214612c6a5760405162461bcd60e51b8152600401610d809190615948565b5060005b84811015610e6057858582818110612c8257fe5b9050602002016020810190612c9791906149ca565b6001600160a01b031663095ea7b3858584818110612cb157fe5b9050602002016020810190612cc691906149ca565b60006040518363ffffffff1660e01b8152600401612ce5929190615735565b602060405180830381600087803b158015612cff57600080fd5b505af1158015612d13573d6000803e3d6000fd5b505050506040513d601f19601f82011682018060405250810190612d3791906152be565b50600101612c6e565b60006002603a541415612d655760405162461bcd60e51b8152600401610d8090615cca565b6002603a55612d726133f2565b612d7c600161374c565b612d868585613aeb565b612d9588600089898787613c8d565b6001603a5598975050505050505050565b80336001600160a01b038416146114ef5760405162461bcd60e51b8152600401610d809190615948565b604455565b3390565b6001600160a01b038316612dff5760405162461bcd60e51b8152600401610d8090615c05565b6001600160a01b038216612e255760405162461bcd60e51b8152600401610d809061599e565b6001600160a01b0380841660008181526035602090815260408083209487168084529490915290819020849055517f8c5be1e5ebec7d5bd14f71427d1e84f3dd0314c0f7b2291e5b200ac8c7c3b92590612e809085906158c1565b60405180910390a3505050565b610b0581612e9a83612371565b613def565b6001600160a01b038316612ec55760405162461bcd60e51b8152600401610d8090615b9b565b6001600160a01b038216612eeb5760405162461bcd60e51b8152600401610d809061595b565b612ef6838383613ef9565b612f3381604051806060016040528060268152602001615f0d602691396001600160a01b0386166000908152603460205260409020549190612fb4565b6001600160a01b038085166000908152603460205260408082209390935590841681522054612f6290826133cd565b6001600160a01b0380841660008181526034602052604090819020939093559151908516907fddf252ad1be2c89b69c2b068fc378daa952ba7f163c4a11628f55a4df523b3ef90612e809085906158c1565b60008184841115612fd85760405162461bcd60e51b8152600401610d809190615948565b505050900390565b60005b82518110156114ef57613009838281518110612ffb57fe5b602002602001015183613f3c565b600101612fe3565b600590565b303b1590565b6040805180820190915260018152603560f81b6020820152816130525760405162461bcd60e51b8152600401610d809190615948565b5060425460ff60f01b191660f083901b176042819055505050565b603954604051638346525f60e01b815260609161010090046001600160a01b031690638346525f906130a39085906004016158c1565b60006040518083038186803b1580156130bb57600080fd5b505afa1580156130cf573d6000803e3d6000fd5b505050506040513d6000823e601f3d908101601f191682016040526130f79190810190614ec1565b9050805160011460405180604001604052806002815260200161313760f01b815250906131375760405162461bcd60e51b8152600401610d809190615948565b50603960019054906101000a90046001600160a01b03166001600160a01b0316632d5ad3d58260008151811061316957fe5b60200260200101516040518263ffffffff1660e01b815260040161318d91906156b6565b60206040518083038186803b1580156131a557600080fd5b505afa1580156131b9573d6000803e3d6000fd5b505050506040513d601f19601f820116820180604052508101906131dd91906152be565b60405180604001604052806002815260200161313960f01b815250906132165760405162461bcd60e51b8152600401610d809190615948565b50816047819055508060008151811061322b57fe5b6020026020010151604360006101000a8154816001600160a01b0302191690836001600160a01b031602179055505050565b8051611e9e9060379060208401906146bb565b8051611e9e9060389060208401906146bb565b6039805460ff191660ff92909216919091179055565b604255565b6132a7836135a9565b6132b0826135dc565b6114ef81613717565b6000467f8b73c3c69bb8fe3d512ecc4cf759cc79239f7b179b0ffacaa9a75d522b39400f6132e5613fd8565b805160209182012060408051808201825260018152603160f81b908401525161333593927fc89efdaa54c0f20c7adf612882df0950f5a951637e0307cdcb4c672f298b8bc69186913091016158fe565b6040516020818303038152906040528051906020012091505090565b6000816040516020016133649190615517565b604051602081830303815290604052805190602001209050919050565b6000610efe8260445485613fe2565b600061099c61339d612548565b61208661407f565b6000828211156133c75760405162461bcd60e51b8152600401610d8090615a17565b50900390565b600082820183811015610efe5760405162461bcd60e51b8152600401610d80906159e0565b6133fa614194565b6117a86141d4565b603954604051633b193fe560e01b815260009173__$75964efb2d189caa452506d4572908229a$__91633b193fe59161344e91879161010090046001600160a01b03169060040161579c565b60206040518083038186803b15801561346657600080fd5b505af415801561347a573d6000803e3d6000fd5b505050506040513d601f19601f8201168201806040525081019061349e91906153fe565b905060005b818110156135a3576040805160c0810182526039546001600160a01b03610100909104811682523060208301526043541681830152606081018590526080810183905260a08101849052905163e8f4450d60e01b815261359b9173__$75964efb2d189caa452506d4572908229a$__9163e8f4450d9161352891899190600401615838565b60006040518083038186803b15801561354057600080fd5b505af4158015613554573d6000803e3d6000fd5b505050506040513d6000823e601f3d908101601f1916820160405261357c9190810190614fe1565b604051806040016040528060018152602001601960f91b815250612fe0565b6001016134a3565b50505050565b604081815551339082907f70c87424f133fbd8c8e63b0dc9c2d2702db0a79d7d4139b25a5035f250b9f73890600090a350565b6041819055604051339082907f7af95a1df120276e178a852832ba64d58429b2b5986955c772448d80c08ef39290600090a350565b60008261362057506000610b20565b8282028284828161362d57fe5b0414610efe5760405162461bcd60e51b8152600401610d8090615acb565b600080821161366c5760405162461bcd60e51b8152600401610d8090615a94565b81838161367557fe5b049392505050565b61368960496000614662565b60005b8151811015611e9e5760498282815181106136a357fe5b602090810291909101810151825460018082018555600094855293839020825160029092020180546001600160a01b03199081166001600160a01b039384161782559383015190850180546040909401519390941691161760ff60a01b1916600160a01b911515919091021790550161368c565b6045819055604051339082907fae4cf6e16f407af30e4a8e158871dd4eb7d4ad22f2438ccc43c5855fcd6ebbee90600090a350565b801561377157436000908152604b60205260409020805460ff19166001179055610b05565b436000908152604b60209081526040918290205482518084019093526002835261189b60f11b9183019190915260ff1615611e9e5760405162461bcd60e51b8152600401610d809190615948565b60006137ff338685858080602002602001604051908101604052809392919081815260200183836020028082843760009201919091525061421592505050565b600061381e61380c610c7b565b611b61613817613390565b8990613611565b905061382a3387614248565b6000613834612548565b905081811015613a4457600061384a83836133a5565b905060006048805480602002602001604051908101604052809291908181526020016000905b828210156138d0576000848152602090819020604080516060810182526002860290920180546001600160a01b03908116845260019182015490811684860152600160a01b900460ff161515918301919091529083529092019101613870565b505060395460435460405163beead42360e01b815273__$75964efb2d189caa452506d4572908229a$__9563beead42395506139259450926001600160a01b0361010090910481169216908890600401615802565b60206040518083038186803b15801561393d57600080fd5b505af4158015613951573d6000803e3d6000fd5b505050506040513d601f19601f8201168201806040525081019061397591906153fe565b9050613a066048805480602002602001604051908101604052809291908181526020016000905b828210156139fc576000848152602090819020604080516060810182526002860290920180546001600160a01b03908116845260019182015490811684860152600160a01b900460ff16151591830191909152908352909201910161399c565b5050505082613def565b6000613a10612548565b90506000613a1e82866133a5565b905083811015613a3f57613a3c613a3585836133a5565b87906133a5565b95505b505050505b6000613a4f83612044565b90508015613a7657604254604354613a76916001600160a01b039091169060501c8361432a565b6000613a8284836133a5565b905087811015604051806040016040528060018152602001603960f81b81525090613ac05760405162461bcd60e51b8152600401610d809190615948565b50604354613ad8906001600160a01b03168b8361432a565b9998505050505050505050565b3b151590565b60e0811415613bbd576043546040516000916001600160a01b031690613b209063d505accf60e01b90869086906020016155af565b60408051601f1981840301815290829052613b3a916155d3565b6000604051808303816000865af19150503d8060008114613b77576040519150601f19603f3d011682016040523d82523d6000602084013e613b7c565b606091505b505090508060405180604001604052806002815260200161191960f11b81525090613bba5760405162461bcd60e51b8152600401610d809190615948565b50505b610100811415611e9e576043546040516000916001600160a01b031690613bf3906323f2ebc360e21b90869086906020016155af565b60408051601f1981840301815290829052613c0d916155d3565b6000604051808303816000865af19150503d8060008114613c4a576040519150601f19603f3d011682016040523d82523d6000602084013e613c4f565b606091505b505090508060405180604001604052806002815260200161323360f01b815250906135a35760405162461bcd60e51b8152600401610d809190615948565b600080613c98613390565b90506000613ca587614380565b90506000613cb282612a14565b90506000613cc083836133a5565b9050613d02338b83858b8b808060200260200160405190810160405280939291908181526020018383602002808284376000920191909152506143b892505050565b6001600160a01b038b166000908152603d6020526040902054613d2590826133cd565b6001600160a01b038c166000908152603d60205260409020558115613d6357604254604354613d63916001600160a01b039091169060501c8461432a565b6000841580613d775750613d75610c7b565b155b15613d83575080613d9c565b613d9985611b61613d92610c7b565b8590613611565b90505b6040805180820190915260018152603960f81b602082015289821015613dd55760405162461bcd60e51b8152600401610d809190615948565b50613de08c826143ed565b9b9a5050505050505050505050565b815160005b818110156135a3576040805160c0810182526039546001600160a01b036101009091048116825230602083015260435416818301526060810185905282840360001901608082015260a08101849052905163fc3838d360e01b8152613ef19173__$75964efb2d189caa452506d4572908229a$__9163fc3838d391613e7e91899190600401615838565b60006040518083038186803b158015613e9657600080fd5b505af4158015613eaa573d6000803e3d6000fd5b505050506040513d6000823e601f3d908101601f19168201604052613ed29190810190614fe1565b604051806040016040528060018152602001603360f81b815250612fe0565b600101613df4565b604080518082019091526002815261062760f31b60208201526001600160a01b0383163014156135a35760405162461bcd60e51b8152600401610d809190615948565b6000606083806020019051810190613f549190614a02565b915091506000826001600160a01b031682604051613f7291906155d3565b6000604051808303816000865af19150503d8060008114613faf576040519150601f19603f3d011682016040523d82523d6000602084013e613fb4565b606091505b50509050808490610e605760405162461bcd60e51b8152600401610d809190615948565b606061099c6109a2565b600081815b8551811015614074576000868281518110613ffe57fe5b6020026020010151905080831161403f5782816040516020016140229291906155a1565b60405160208183030381529060405280519060200120925061406b565b80836040516020016140529291906155a1565b6040516020818303038152906040528051906020012092505b50600101613fe7565b509092149392505050565b603f5460009061409057600061099c565b6048805480602002602001604051908101604052809291908181526020016000905b82821015614112576000848152602090819020604080516060810182526002860290920180546001600160a01b03908116845260019182015490811684860152600160a01b900460ff1615159183019190915290835290920191016140b2565b50506039546043546040516390c39beb60e01b815273__$75964efb2d189caa452506d4572908229a$__956390c39beb95506141689450926001600160a01b0361010090910481169230929116906004016157c6565b60206040518083038186803b15801561418057600080fd5b505af41580156125a5573d6000803e3d6000fd5b6042546040805180820190915260028152610c4d60f21b602082015290600160f91b16610b055760405162461bcd60e51b8152600401610d809190615948565b604254604080518082019091526002815261313360f01b602082015290600160f81b1615610b055760405162461bcd60e51b8152600401610d809190615948565b60006060614224858585612b12565b91509150818190610e605760405162461bcd60e51b8152600401610d809190615948565b6001600160a01b03821661426e5760405162461bcd60e51b8152600401610d8090615b5a565b61427a82600083613ef9565b6142b781604051806060016040528060228152602001615eeb602291396001600160a01b0385166000908152603460205260409020549190612fb4565b6001600160a01b0383166000908152603460205260409020556036546142dd90826133a5565b6036556040516000906001600160a01b038416907fddf252ad1be2c89b69c2b068fc378daa952ba7f163c4a11628f55a4df523b3ef9061431e9085906158c1565b60405180910390a35050565b6114ef8363a9059cbb60e01b8484604051602401614349929190615735565b60408051601f198184030181529190526020810180516001600160e01b03166001600160e01b0319909316929092179091526144a1565b60008061438b612548565b6043549091506143a6906001600160a01b0316333086614530565b610efe816143b2612548565b906133a5565b600060606143c98787878787611277565b91509150818190611b235760405162461bcd60e51b8152600401610d809190615948565b6001600160a01b0382166144135760405162461bcd60e51b8152600401610d8090615d01565b61441f60008383613ef9565b60365461442c90826133cd565b6036556001600160a01b03821660009081526034602052604090205461445290826133cd565b6001600160a01b0383166000818152603460205260408082209390935591519091907fddf252ad1be2c89b69c2b068fc378daa952ba7f163c4a11628f55a4df523b3ef9061431e9085906158c1565b60606144f6826040518060400160405280602081526020017f5361666545524332303a206c6f772d6c6576656c2063616c6c206661696c6564815250856001600160a01b03166145519092919063ffffffff16565b8051909150156114ef578080602001905181019061451491906152be565b6114ef5760405162461bcd60e51b8152600401610d8090615c80565b6135a3846323b872dd60e01b85858560405160240161434993929190615711565b60606145608484600085614568565b949350505050565b60608247101561458a5760405162461bcd60e51b8152600401610d8090615a4e565b61459385613ae5565b6145af5760405162461bcd60e51b8152600401610d8090615c49565b60006060866001600160a01b031685876040516145cc91906155d3565b60006040518083038185875af1925050503d8060008114614609576040519150601f19603f3d011682016040523d82523d6000602084013e61460e565b606091505b509150915061461e828286614629565b979650505050505050565b60608315614638575081610efe565b8251156146485782518084602001fd5b8160405162461bcd60e51b8152600401610d809190615948565b5080546000825560020290600052602060002090810190610b059190614739565b6040805160c081018252600080825260208201529081016146a261476a565b8152600060208201526060604082018190529081015290565b828054600181600116156101000203166002900490600052602060002090601f016020900481019282601f106146fc57805160ff1916838001178555614729565b82800160010185558215614729579182015b8281111561472957825182559160200191906001019061470e565b50614735929150614781565b5090565b5b808211156147355780546001600160a01b03191681556001810180546001600160a81b031916905560020161473a565b604080518082019091526000808252602082015290565b5b808211156147355760008155600101614782565b60008083601f8401126147a7578182fd5b5081356001600160401b038111156147bd578182fd5b60208301915083602080830285010111156147d757600080fd5b9250929050565b600082601f8301126147ee578081fd5b81356148016147fc82615e4a565b615e24565b81815291506020808301908481018184028601820187101561482257600080fd5b60005b8481101561484157813584529282019290820190600101614825565b505050505092915050565b8051610b2081615ecd565b60008083601f840112614868578182fd5b5081356001600160401b0381111561487e578182fd5b6020830191508360208285010111156147d757600080fd5b600082601f8301126148a6578081fd5b81356148b46147fc82615e69565b91508082528360208285010111156148cb57600080fd5b8060208401602084013760009082016020015292915050565b600082601f8301126148f4578081fd5b81516149026147fc82615e69565b915080825283602082850101111561491957600080fd5b61492a816020840160208601615e8c565b5092915050565b600060408284031215614942578081fd5b61494c6040615e24565b9050815161495981615edb565b8152602082015161496981615edb565b602082015292915050565b600060608284031215614985578081fd5b61498f6060615e24565b9050813561499c81615eb8565b815260208201356149ac81615eb8565b602082015260408201356149bf81615ecd565b604082015292915050565b6000602082840312156149db578081fd5b8135610efe81615eb8565b6000602082840312156149f7578081fd5b8151610efe81615eb8565b60008060408385031215614a14578081fd5b8251614a1f81615eb8565b60208401519092506001600160401b03811115614a3a578182fd5b614a46858286016148e4565b9150509250929050565b60008060408385031215614a62578182fd5b8235614a6d81615eb8565b91506020830135614a7d81615eb8565b809150509250929050565b600080600080600080600060e0888a031215614aa2578283fd5b8735614aad81615eb8565b9650602088810135614abe81615eb8565b96506040890135614ace81615ecd565b9550606089013594506080890135935060a08901356001600160401b0380821115614af7578485fd5b818b0191508b601f830112614b0a578485fd5b8135614b186147fc82615e4a565b8082825285820191508585018f878886028801011115614b36578889fd5b8895505b83861015614b61578035614b4d81615eb8565b835260019590950194918601918601614b3a565b509650505060c08b0135925080831115614b79578384fd5b5050614b878a828b01614896565b91505092959891949750929550565b600080600060608486031215614baa578081fd5b8335614bb581615eb8565b92506020840135614bc581615eb8565b929592945050506040919091013590565b600080600080600080600060e0888a031215614bf0578081fd5b8735614bfb81615eb8565b96506020880135614c0b81615eb8565b955060408801359450606088013593506080880135614c2981615edb565b9699959850939692959460a0840135945060c09093013592915050565b600080600080600060a08688031215614c5d578283fd5b8535614c6881615eb8565b94506020860135614c7881615ecd565b9350604086013592506060860135915060808601356001600160401b03811115614ca0578182fd5b614cac888289016147de565b9150509295509295909350565b60008060008060008060008060006101208a8c031215614cd7578283fd5b8935614ce281615eb8565b985060208a0135975060408a0135965060608a01356001600160401b03811115614d0a578384fd5b614d168c828d01614896565b999c989b50969960808101359860a0820135985060c0820135975060e0820135965061010090910135945092505050565b60008060408385031215614d59578182fd5b8235614d6481615eb8565b946020939093013593505050565b600080600060608486031215614d86578081fd5b8335614d9181615eb8565b92506020840135915060408401356001600160401b03811115614db2578182fd5b614dbe868287016147de565b9150509250925092565b600080600080600060808688031215614ddf578283fd5b8535614dea81615eb8565b9450602086013593506040860135925060608601356001600160401b03811115614e12578182fd5b614e1e88828901614796565b969995985093965092949392505050565b600080600080600080600060a0888a031215614e49578081fd5b8735614e5481615eb8565b9650602088013595506040880135945060608801356001600160401b0380821115614e7d578283fd5b614e898b838c01614857565b909650945060808a0135915080821115614ea1578283fd5b50614eae8a828b01614796565b989b979a50959850939692959293505050565b60006020808385031215614ed3578182fd5b82516001600160401b03811115614ee8578283fd5b8301601f81018513614ef8578283fd5b8051614f066147fc82615e4a565b8181528381019083850185840285018601891015614f22578687fd5b8694505b83851015614f4d578051614f3981615eb8565b835260019490940193918501918501614f26565b50979650505050505050565b60006020808385031215614f6b578182fd5b82356001600160401b03811115614f80578283fd5b8301601f81018513614f90578283fd5b8035614f9e6147fc82615e4a565b81815283810190838501865b84811015614fd357614fc18a888435890101614896565b84529286019290860190600101614faa565b509098975050505050505050565b60006020808385031215614ff3578182fd5b82516001600160401b03811115615008578283fd5b8301601f81018513615018578283fd5b80516150266147fc82615e4a565b81815283810190838501865b84811015614fd3576150498a8884518901016148e4565b84529286019290860190600101615032565b60008060008060408587031215615070578182fd5b84356001600160401b0380821115615086578384fd5b61509288838901614796565b909650945060208701359150808211156150aa578384fd5b506150b787828801614796565b95989497509550505050565b600060208083850312156150d5578182fd5b82356001600160401b038111156150ea578283fd5b8301601f810185136150fa578283fd5b80356151086147fc82615e4a565b818152838101908385016060808502860187018a1015615126578788fd5b8795505b84861015614fd35761513c8a83614974565b845260019590950194928601929081019061512a565b60006020808385031215615164578182fd5b82516001600160401b03811115615179578283fd5b8301601f81018513615189578283fd5b80516151976147fc82615e4a565b818152838101908385016060808502860187018a10156151b5578788fd5b8795505b84861015614fd35780828b0312156151cf578788fd5b6151d881615e24565b82516151e381615eb8565b8152828801516151f281615eb8565b8189015260408381015161520581615ecd565b9082015284526001959095019492860192908101906151b9565b60006020808385031215615231578182fd5b82516001600160401b03811115615246578283fd5b8301601f81018513615256578283fd5b80516152646147fc82615e4a565b8181528381019083850185840285018601891015615280578687fd5b8694505b83851015614f4d578051835260019490940193918501918501615284565b6000602082840312156152b3578081fd5b8135610efe81615ecd565b6000602082840312156152cf578081fd5b8151610efe81615ecd565b6000602082840312156152eb578081fd5b5035919050565b60008060208385031215615304578182fd5b82356001600160401b03811115615319578283fd5b61532585828601614857565b90969095509350505050565b600060208284031215615342578081fd5b81516001600160401b0380821115615358578283fd5b9083019060e0828603121561536b578283fd5b61537560c0615e24565b82518152615386866020850161484c565b60208201526153988660408501614931565b60408201526153aa866080850161484c565b606082015260a0830151828111156153c0578485fd5b6153cc878286016148e4565b60808301525060c0830151828111156153e3578485fd5b6153ef878286016148e4565b60a08301525095945050505050565b60006020828403121561540f578081fd5b5051919050565b60008060408385031215615428578182fd5b50508035926020909101359150565b60008060006060848603121561544b578081fd5b505081359360208301359350604090920135919050565b600060208284031215615473578081fd5b8151610efe81615edb565b6000815180845260208085019450808401835b838110156154b7576154a48783516154ee565b6060969096019590820190600101615491565b509495945050505050565b600081518084526154da816020860160208601615e8c565b601f01601f19169290920160200192915050565b80516001600160a01b039081168352602080830151909116908301526040908101511515910152565b60609190911b6bffffffffffffffffffffffff1916815260140190565b6bffffffffffffffffffffffff19606094851b811682529290931b9091166014830152151560f81b602882015260290190565b600083825260208083018451828601845b8281101561559457815184529284019290840190600101615578565b5091979650505050505050565b918252602082015260400190565b6001600160e01b031984168152600082846004840137910160040190815292915050565b600082516155e5818460208701615e8c565b9190910192915050565b600066027b83a3ca334960cd1b82528351615611816007850160208801615e8c565b600160fd1b6007918401918201528351615632816008840160208801615e8c565b650815985d5b1d60d21b60089290910191820152600e01949350505050565b61190160f01b81526002810192909252602282015260420190565b60006106f760f41b82528351615689816002850160208801615e8c565b602d60f81b60029184019182015283516156aa816003840160208801615e8c565b01600301949350505050565b6001600160a01b0391909116815260200190565b6001600160a01b0393841681529183166020830152909116604082015260600190565b6001600160a01b039384168152919092166020820152901515604082015260600190565b6001600160a01b039384168152919092166020820152604081019190915260600190565b6001600160a01b03929092168252602082015260400190565b6020808252825182820181905260009190848201906040850190845b818110156157905761577d8385516154ee565b928401926060929092019160010161576a565b50909695505050505050565b6000604082526157af604083018561547e565b905060018060a01b03831660208301529392505050565b6000608082526157d9608083018761547e565b6001600160a01b0395861660208401529385166040830152509216606090920191909152919050565b600060808252615815608083018761547e565b6001600160a01b0395861660208401529390941660408201526060015292915050565b600060e0825261584b60e083018561547e565b905060018060a01b038084511660208401528060208501511660408401528060408501511660608401525060608301516080830152608083015160a083015260a083015160c08301529392505050565b901515815260200190565b600083151582526040602083015261456060408301846154c2565b90815260200190565b9586526001600160a01b0394851660208701529290931660408501526060840152608083019190915260a082015260c00190565b9485526020850193909352604084019190915260608301526001600160a01b0316608082015260a00190565b93845260ff9290921660208401526040830152606082015260800190565b600060208252610efe60208301846154c2565b60208082526023908201527f45524332303a207472616e7366657220746f20746865207a65726f206164647260408201526265737360e81b606082015260800190565b60208082526022908201527f45524332303a20617070726f766520746f20746865207a65726f206164647265604082015261737360f01b606082015260800190565b6020808252601b908201527f536166654d6174683a206164646974696f6e206f766572666c6f770000000000604082015260600190565b6020808252601e908201527f536166654d6174683a207375627472616374696f6e206f766572666c6f770000604082015260600190565b60208082526026908201527f416464726573733a20696e73756666696369656e742062616c616e636520666f6040820152651c8818d85b1b60d21b606082015260800190565b6020808252601a908201527f536166654d6174683a206469766973696f6e206279207a65726f000000000000604082015260600190565b60208082526021908201527f536166654d6174683a206d756c7469706c69636174696f6e206f766572666c6f6040820152607760f81b606082015260800190565b6020808252602e908201527f436f6e747261637420696e7374616e63652068617320616c726561647920626560408201526d195b881a5b9a5d1a585b1a5e995960921b606082015260800190565b60208082526021908201527f45524332303a206275726e2066726f6d20746865207a65726f206164647265736040820152607360f81b606082015260800190565b60208082526025908201527f45524332303a207472616e736665722066726f6d20746865207a65726f206164604082015264647265737360d81b606082015260800190565b6020808252600b908201526a085a5cd0dbdb9d1c9858dd60aa1b604082015260600190565b60208082526024908201527f45524332303a20617070726f76652066726f6d20746865207a65726f206164646040820152637265737360e01b606082015260800190565b6020808252601d908201527f416464726573733a2063616c6c20746f206e6f6e2d636f6e7472616374000000604082015260600190565b6020808252602a908201527f5361666545524332303a204552433230206f7065726174696f6e20646964206e6040820152691bdd081cdd58d8d9595960b21b606082015260800190565b6020808252601f908201527f5265656e7472616e637947756172643a207265656e7472616e742063616c6c00604082015260600190565b6020808252601f908201527f45524332303a206d696e7420746f20746865207a65726f206164647265737300604082015260600190565b600060208252825160a06020840152615d5460c08401826154c2565b905060018060a01b0360208501511660408401526040840151606084015260608401516080840152608084015160a08401528091505092915050565b600060a082018783526020878185015260a0604085015281875180845260c0860191508289019350845b81811015615ddf5784516001600160a01b031683529383019391830191600101615dba565b50506001600160a01b03969096166060850152505050608001529392505050565b9283526020830191909152604082015260600190565b60ff91909116815260200190565b6040518181016001600160401b0381118282101715615e4257600080fd5b604052919050565b60006001600160401b03821115615e5f578081fd5b5060209081020190565b60006001600160401b03821115615e7e578081fd5b50601f01601f191660200190565b60005b83811015615ea7578181015183820152602001615e8f565b838111156135a35750506000910152565b6001600160a01b0381168114610b0557600080fd5b8015158114610b0557600080fd5b60ff81168114610b0557600080fdfe45524332303a206275726e20616d6f756e7420657863656564732062616c616e636545524332303a207472616e7366657220616d6f756e7420657863656564732062616c616e636563616c6c6572206973206e6f74207468652066696e616e63654f70657261746f7245524332303a207472616e7366657220616d6f756e74206578636565647320616c6c6f77616e636563616c6c6572206973206e6f74207468652073747261746567794f70657261746f7245524332303a2064656372656173656420616c6c6f77616e63652062656c6f77207a65726fa164736f6c634300060c000a",
  "libraries": {
    "contracts/protocol/lib/StrategyManager.sol:StrategyManager": "0xD65F12ed2381D4dBF643af20EED294a24165325d"
  }
}