{
  "address": "0x427A8ec94ce6b0fD6Ac52DCB140d55A046D87ACE",
  "abi": [
    {
      "inputs": [
        {
          "internalType": "address",
          "name": "_registry",
          "type": "address"
        }
      ],
      "stateMutability": "nonpayable",
      "type": "constructor"
    },
    {
      "anonymous": false,
      "inputs": [
        {
          "indexed": true,
          "internalType": "uint256",
          "name": "maxDepositAmount",
          "type": "uint256"
        },
        {
          "indexed": true,
          "internalType": "address",
          "name": "caller",
          "type": "address"
        }
      ],
      "name": "LogMaxDepositAmount",
      "type": "event"
    },
    {
      "anonymous": false,
      "inputs": [
        {
          "indexed": true,
          "internalType": "uint256",
          "name": "maxDepositPoolPct",
          "type": "uint256"
        },
        {
          "indexed": true,
          "internalType": "address",
          "name": "caller",
          "type": "address"
        }
      ],
      "name": "LogMaxDepositPoolPct",
      "type": "event"
    },
    {
      "anonymous": false,
      "inputs": [
        {
          "indexed": true,
          "internalType": "enum MaxExposure",
          "name": "maxDepositProtocolMode",
          "type": "uint8"
        },
        {
          "indexed": true,
          "internalType": "address",
          "name": "caller",
          "type": "address"
        }
      ],
      "name": "LogMaxDepositProtocolMode",
      "type": "event"
    },
    {
      "anonymous": false,
      "inputs": [
        {
          "indexed": true,
          "internalType": "uint256",
          "name": "maxDepositProtocolPct",
          "type": "uint256"
        },
        {
          "indexed": true,
          "internalType": "address",
          "name": "caller",
          "type": "address"
        }
      ],
      "name": "LogMaxDepositProtocolPct",
      "type": "event"
    },
    {
      "inputs": [],
      "name": "DENOMINATOR",
      "outputs": [
        {
          "internalType": "uint256",
          "name": "",
          "type": "uint256"
        }
      ],
      "stateMutability": "view",
      "type": "function"
    },
    {
      "inputs": [
        {
          "internalType": "address",
          "name": "_underlyingToken",
          "type": "address"
        },
        {
          "internalType": "address",
          "name": "_liquidityPool",
          "type": "address"
        },
        {
          "internalType": "uint256",
          "name": "_depositAmount",
          "type": "uint256"
        }
      ],
      "name": "calculateAmountInLPToken",
      "outputs": [
        {
          "internalType": "uint256",
          "name": "",
          "type": "uint256"
        }
      ],
      "stateMutability": "view",
      "type": "function"
    },
    {
      "inputs": [
        {
          "internalType": "address payable",
          "name": "_vault",
          "type": "address"
        },
        {
          "internalType": "address",
          "name": "_underlyingToken",
          "type": "address"
        },
        {
          "internalType": "address",
          "name": "_liquidityPool",
          "type": "address"
        },
        {
          "internalType": "uint256",
          "name": "_redeemAmount",
          "type": "uint256"
        }
      ],
      "name": "calculateRedeemableLPTokenAmount",
      "outputs": [
        {
          "internalType": "uint256",
          "name": "",
          "type": "uint256"
        }
      ],
      "stateMutability": "view",
      "type": "function"
    },
    {
      "inputs": [
        {
          "internalType": "address",
          "name": "",
          "type": "address"
        }
      ],
      "name": "canStake",
      "outputs": [
        {
          "internalType": "bool",
          "name": "",
          "type": "bool"
        }
      ],
      "stateMutability": "pure",
      "type": "function"
    },
    {
      "inputs": [],
      "name": "factoryRouter",
      "outputs": [
        {
          "internalType": "contract IUniswapV2Factory",
          "name": "",
          "type": "address"
        }
      ],
      "stateMutability": "view",
      "type": "function"
    },
    {
      "inputs": [
        {
          "internalType": "address payable",
          "name": "_vault",
          "type": "address"
        },
        {
          "internalType": "address",
          "name": "_underlyingToken",
          "type": "address"
        },
        {
          "internalType": "address",
          "name": "_liquidityPool",
          "type": "address"
        }
      ],
      "name": "getAllAmountInToken",
      "outputs": [
        {
          "internalType": "uint256",
          "name": "",
          "type": "uint256"
        }
      ],
      "stateMutability": "view",
      "type": "function"
    },
    {
      "inputs": [
        {
          "internalType": "address payable",
          "name": "_vault",
          "type": "address"
        },
        {
          "internalType": "address",
          "name": "_underlyingToken",
          "type": "address"
        },
        {
          "internalType": "address",
          "name": "_liquidityPool",
          "type": "address"
        }
      ],
      "name": "getDepositAllCodes",
      "outputs": [
        {
          "internalType": "bytes[]",
          "name": "_codes",
          "type": "bytes[]"
        }
      ],
      "stateMutability": "view",
      "type": "function"
    },
    {
      "inputs": [
        {
          "internalType": "address payable",
          "name": "_vault",
          "type": "address"
        },
        {
          "internalType": "address",
          "name": "_underlyingToken",
          "type": "address"
        },
        {
          "internalType": "address",
          "name": "_liquidityPool",
          "type": "address"
        },
        {
          "internalType": "uint256",
          "name": "_amount",
          "type": "uint256"
        }
      ],
      "name": "getDepositSomeCodes",
      "outputs": [
        {
          "internalType": "bytes[]",
          "name": "_codes",
          "type": "bytes[]"
        }
      ],
      "stateMutability": "view",
      "type": "function"
    },
    {
      "inputs": [
        {
          "internalType": "address",
          "name": "",
          "type": "address"
        },
        {
          "internalType": "address",
          "name": "_liquidityPool",
          "type": "address"
        }
      ],
      "name": "getLiquidityPoolToken",
      "outputs": [
        {
          "internalType": "address",
          "name": "",
          "type": "address"
        }
      ],
      "stateMutability": "pure",
      "type": "function"
    },
    {
      "inputs": [
        {
          "internalType": "address payable",
          "name": "_vault",
          "type": "address"
        },
        {
          "internalType": "address",
          "name": "",
          "type": "address"
        },
        {
          "internalType": "address",
          "name": "_liquidityPool",
          "type": "address"
        }
      ],
      "name": "getLiquidityPoolTokenBalance",
      "outputs": [
        {
          "internalType": "uint256",
          "name": "",
          "type": "uint256"
        }
      ],
      "stateMutability": "view",
      "type": "function"
    },
    {
      "inputs": [
        {
          "internalType": "address",
          "name": "_liquidityPool",
          "type": "address"
        },
        {
          "internalType": "address",
          "name": "_underlyingToken",
          "type": "address"
        }
      ],
      "name": "getPoolValue",
      "outputs": [
        {
          "internalType": "uint256",
          "name": "",
          "type": "uint256"
        }
      ],
      "stateMutability": "view",
      "type": "function"
    },
    {
      "inputs": [
        {
          "internalType": "address",
          "name": "",
          "type": "address"
        }
      ],
      "name": "getRewardToken",
      "outputs": [
        {
          "internalType": "address",
          "name": "",
          "type": "address"
        }
      ],
      "stateMutability": "pure",
      "type": "function"
    },
    {
      "inputs": [
        {
          "internalType": "address",
          "name": "_underlyingToken",
          "type": "address"
        },
        {
          "internalType": "address",
          "name": "_liquidityPool",
          "type": "address"
        },
        {
          "internalType": "uint256",
          "name": "_liquidityPoolTokenAmount",
          "type": "uint256"
        }
      ],
      "name": "getSomeAmountInToken",
      "outputs": [
        {
          "internalType": "uint256",
          "name": "",
          "type": "uint256"
        }
      ],
      "stateMutability": "view",
      "type": "function"
    },
    {
      "inputs": [
        {
          "internalType": "address",
          "name": "_liquidityPool",
          "type": "address"
        },
        {
          "internalType": "address",
          "name": "",
          "type": "address"
        }
      ],
      "name": "getUnderlyingTokens",
      "outputs": [
        {
          "internalType": "address[]",
          "name": "_underlyingTokens",
          "type": "address[]"
        }
      ],
      "stateMutability": "view",
      "type": "function"
    },
    {
      "inputs": [
        {
          "internalType": "address payable",
          "name": "_vault",
          "type": "address"
        },
        {
          "internalType": "address",
          "name": "_underlyingToken",
          "type": "address"
        },
        {
          "internalType": "address",
          "name": "_liquidityPool",
          "type": "address"
        }
      ],
      "name": "getWithdrawAllCodes",
      "outputs": [
        {
          "internalType": "bytes[]",
          "name": "_codes",
          "type": "bytes[]"
        }
      ],
      "stateMutability": "view",
      "type": "function"
    },
    {
      "inputs": [
        {
          "internalType": "address payable",
          "name": "_vault",
          "type": "address"
        },
        {
          "internalType": "address",
          "name": "_underlyingToken",
          "type": "address"
        },
        {
          "internalType": "address",
          "name": "_liquidityPool",
          "type": "address"
        },
        {
          "internalType": "uint256",
          "name": "_shares",
          "type": "uint256"
        }
      ],
      "name": "getWithdrawSomeCodes",
      "outputs": [
        {
          "internalType": "bytes[]",
          "name": "_codes",
          "type": "bytes[]"
        }
      ],
      "stateMutability": "view",
      "type": "function"
    },
    {
      "inputs": [
        {
          "internalType": "address payable",
          "name": "_vault",
          "type": "address"
        },
        {
          "internalType": "address",
          "name": "_underlyingToken",
          "type": "address"
        },
        {
          "internalType": "address",
          "name": "_liquidityPool",
          "type": "address"
        },
        {
          "internalType": "uint256",
          "name": "_redeemAmount",
          "type": "uint256"
        }
      ],
      "name": "isRedeemableAmountSufficient",
      "outputs": [
        {
          "internalType": "bool",
          "name": "",
          "type": "bool"
        }
      ],
      "stateMutability": "view",
      "type": "function"
    },
    {
      "inputs": [
        {
          "internalType": "address",
          "name": "",
          "type": "address"
        },
        {
          "internalType": "address",
          "name": "",
          "type": "address"
        }
      ],
      "name": "maxDepositAmount",
      "outputs": [
        {
          "internalType": "uint256",
          "name": "",
          "type": "uint256"
        }
      ],
      "stateMutability": "view",
      "type": "function"
    },
    {
      "inputs": [
        {
          "internalType": "address",
          "name": "",
          "type": "address"
        }
      ],
      "name": "maxDepositPoolPct",
      "outputs": [
        {
          "internalType": "uint256",
          "name": "",
          "type": "uint256"
        }
      ],
      "stateMutability": "view",
      "type": "function"
    },
    {
      "inputs": [],
      "name": "maxDepositProtocolMode",
      "outputs": [
        {
          "internalType": "enum MaxExposure",
          "name": "",
          "type": "uint8"
        }
      ],
      "stateMutability": "view",
      "type": "function"
    },
    {
      "inputs": [],
      "name": "maxDepositProtocolPct",
      "outputs": [
        {
          "internalType": "uint256",
          "name": "",
          "type": "uint256"
        }
      ],
      "stateMutability": "view",
      "type": "function"
    },
    {
      "inputs": [],
      "name": "quickswapRouter",
      "outputs": [
        {
          "internalType": "contract IUniswapV2Router02",
          "name": "",
          "type": "address"
        }
      ],
      "stateMutability": "view",
      "type": "function"
    },
    {
      "inputs": [],
      "name": "registryContract",
      "outputs": [
        {
          "internalType": "contract IAdapterRegistryBase",
          "name": "",
          "type": "address"
        }
      ],
      "stateMutability": "view",
      "type": "function"
    },
    {
      "inputs": [
        {
          "internalType": "address",
          "name": "_liquidityPool",
          "type": "address"
        },
        {
          "internalType": "address",
          "name": "_underlyingToken",
          "type": "address"
        },
        {
          "internalType": "uint256",
          "name": "_maxDepositAmount",
          "type": "uint256"
        }
      ],
      "name": "setMaxDepositAmount",
      "outputs": [],
      "stateMutability": "nonpayable",
      "type": "function"
    },
    {
      "inputs": [
        {
          "internalType": "address",
          "name": "_liquidityPool",
          "type": "address"
        },
        {
          "internalType": "uint256",
          "name": "_maxDepositPoolPct",
          "type": "uint256"
        }
      ],
      "name": "setMaxDepositPoolPct",
      "outputs": [],
      "stateMutability": "nonpayable",
      "type": "function"
    },
    {
      "inputs": [
        {
          "internalType": "enum MaxExposure",
          "name": "_mode",
          "type": "uint8"
        }
      ],
      "name": "setMaxDepositProtocolMode",
      "outputs": [],
      "stateMutability": "nonpayable",
      "type": "function"
    },
    {
      "inputs": [
        {
          "internalType": "uint256",
          "name": "_maxDepositProtocolPct",
          "type": "uint256"
        }
      ],
      "name": "setMaxDepositProtocolPct",
      "outputs": [],
      "stateMutability": "nonpayable",
      "type": "function"
    },
    {
      "inputs": [
        {
          "internalType": "address",
          "name": "_registry",
          "type": "address"
        }
      ],
      "name": "setRegistry",
      "outputs": [],
      "stateMutability": "nonpayable",
      "type": "function"
    }
  ],
  "transactionHash": "0xed115800251810fb235d5e63711a032cdc8419064976af8d7af311e30cb0e83a",
  "args": [
    "0x32bd1a6fdaec327b57cdb2cfde0855afb3255d7c"
  ],
  "bytecode": "0x60806040523480156200001157600080fd5b50604051620027663803806200276683398101604081905262000034916200006f565b600080546001600160a01b0319166001600160a01b038316179055612710600355600480546001919060ff19168280021790555050620000a1565b6000602082840312156200008257600080fd5b81516001600160a01b03811681146200009a57600080fd5b9392505050565b6126b580620000b16000396000f3fe608060405234801561001057600080fd5b50600436106101c35760003560e01c806385541e44116100f9578063da699f9611610097578063ee665bed11610071578063ee665bed146103fe578063ef856be914610411578063f1aacbb714610431578063f49307ca1461044457600080fd5b8063da699f96146103c5578063df935722146103d8578063e49d5ecc146103eb57600080fd5b8063918f8674116100d3578063918f867414610383578063919b69d71461038c578063a91ee0dc1461039f578063d74baaf8146103b257600080fd5b806385541e44146103425780638d87c4eb1461035557806390e616051461037057600080fd5b8063489b529511610166578063609257791161014057806360925779146102f957806364dd5f801461030c578063770788721461031f5780637c47b3f41461032d57600080fd5b8063489b5295146102a65780634ad36e02146102c65780634f83b52d146102d957600080fd5b806328c1f99b116101a257806328c1f99b146102425780632af06b96146102555780632de778381461026f57806336d8bf931461028257600080fd5b8062fac1cf146101c8578063027a304d14610200578063191c194b14610239575b600080fd5b6101e3735757371414417b8c6caad45baef941abc7d3ab3281565b6040516001600160a01b0390911681526020015b60405180910390f35b61022b61020e3660046121bb565b600160209081526000928352604080842090915290825290205481565b6040519081526020016101f7565b61022b60035481565b6000546101e3906001600160a01b031681565b6004546102629060ff1681565b6040516101f7919061220a565b61022b61027d3660046121bb565b610457565b610296610290366004612232565b50600090565b60405190151581526020016101f7565b6102b96102b436600461224f565b6104d7565b6040516101f791906122e7565b61022b6102d4366004612349565b61055e565b61022b6102e7366004612232565b60026020526000908152604090205481565b6102b9610307366004612349565b6105aa565b61022b61031a36600461224f565b610ba2565b6101e3610290366004612232565b61034061033b36600461239a565b610bb4565b005b61022b6103503660046123bb565b610cc4565b6101e373a5e0829caced8ffdd4de3c43696c57f7d7a678ff81565b61022b61037e36600461224f565b610e93565b61022b61271081565b61034061039a3660046123fc565b610f01565b6103406103ad366004612232565b610fef565b6101e36103c03660046121bb565b919050565b6103406103d3366004612428565b61112b565b6102b96103e6366004612349565b611205565b6102966103f9366004612349565b61180f565b61022b61040c3660046123bb565b61182a565b61042461041f3660046121bb565b6119a0565b6040516101f79190612485565b61034061043f3660046123bb565b611af0565b6102b961045236600461224f565b611bee565b6040516370a0823160e01b81526001600160a01b038381166004830152600091908316906370a0823190602401602060405180830381865afa1580156104a1573d6000803e3d6000fd5b505050506040513d601f19601f820116820180604052508101906104c59190612498565b6104d09060026124c7565b9392505050565b6040516370a0823160e01b81526001600160a01b0384811660048301526060916000918516906370a0823190602401602060405180830381865afa158015610523573d6000803e3d6000fd5b505050506040513d601f19601f820116820180604052508101906105479190612498565b905061055585858584611205565b95945050505050565b60008061056c868686610e93565b9050600061057b878787610ba2565b90508061058885846124c7565b61059291906124e6565b61059d906001612508565b925050505b949350505050565b606081156105a25760408051600680825260e0820190925290816020015b60608152602001906001900390816105c85790505060405173a5e0829caced8ffdd4de3c43696c57f7d7a678ff602482015260006044820152909150839060640160408051601f19818403018152918152602080830180516001600160e01b031663095ea7b360e01b179052905161064293929101612520565b6040516020818303038152906040528160008151811061066457610664612544565b602090810291909101015260405173a5e0829caced8ffdd4de3c43696c57f7d7a678ff602482015260448101839052839060640160408051601f19818403018152918152602080830180516001600160e01b031663095ea7b360e01b17905290516106d193929101612520565b604051602081830303815290604052816001815181106106f3576106f3612544565b60200260200101819052506000836001600160a01b031663d21220a76040518163ffffffff1660e01b8152600401602060405180830381865afa15801561073e573d6000803e3d6000fd5b505050506040513d601f19601f82011682018060405250810190610762919061255a565b9050600080856001600160a01b0316630902f1ac6040518163ffffffff1660e01b8152600401606060405180830381865afa1580156107a5573d6000803e3d6000fd5b505050506040513d601f19601f820116820180604052508101906107c9919061258e565b506001600160701b031691506001600160701b0316915060006107ed878484611c0b565b9050806107fa87856124c7565b61080491906124e6565b92508061081187846124c7565b61081b91906124e6565b9150876001600160a01b0316846001600160a01b0316141561089f57866001600160a01b0316630dfe16816040518163ffffffff1660e01b8152600401602060405180830381865afa158015610875573d6000803e3d6000fd5b505050506040513d601f19601f82011682018060405250810190610899919061255a565b93509091905b6040516001600160a01b03808a16602483015280861660448301526064820188905260006084830181905260a48301528a1660c482015260001960e482015273a5e0829caced8ffdd4de3c43696c57f7d7a678ff906101040160408051601f19818403018152918152602080830180516001600160e01b0316635d5155ef60e11b179052905161093193929101612520565b6040516020818303038152906040528560028151811061095357610953612544565b60209081029190910101526040516001600160a01b038816602482015260006044820152849060640160408051601f19818403018152918152602080830180516001600160e01b031663095ea7b360e01b17905290516109b593929101612520565b604051602081830303815290604052856003815181106109d7576109d7612544565b602090810291909101015260405173a5e0829caced8ffdd4de3c43696c57f7d7a678ff602482015260448101839052849060640160408051601f19818403018152918152602080830180516001600160e01b031663095ea7b360e01b1790529051610a4493929101612520565b60405160208183030381529060405285600481518110610a6657610a66612544565b6020908102919091010152604080516002808252606082019092526000918160200160208202803683370190505090508481600081518110610aaa57610aaa612544565b60200260200101906001600160a01b031690816001600160a01b0316815250508881600181518110610ade57610ade612544565b60200260200101906001600160a01b031690816001600160a01b03168152505073a5e0829caced8ffdd4de3c43696c57f7d7a678ff836000838d600019604051602401610b2f9594939291906125d3565b60408051601f19818403018152918152602080830180516001600160e01b03166338ed173960e01b1790529051610b6893929101612520565b60405160208183030381529060405286600581518110610b8a57610b8a612544565b60200260200101819052505050505050949350505050565b60006105a2838361040c878787610e93565b60008054906101000a90046001600160a01b03166001600160a01b0316637af0e5576040518163ffffffff1660e01b8152600401602060405180830381865afa158015610c05573d6000803e3d6000fd5b505050506040513d601f19601f82011682018060405250810190610c29919061255a565b6001600160a01b0316336001600160a01b031614610c625760405162461bcd60e51b8152600401610c5990612612565b60405180910390fd5b6004805482919060ff191660018381811115610c8057610c806121f4565b021790555033816001811115610c9857610c986121f4565b6040517f68e3b01155b193b02181f2c0ed491c934a74348d211ff023f8fc6ac5edf22aa090600090a350565b6000806000846001600160a01b0316630902f1ac6040518163ffffffff1660e01b8152600401606060405180830381865afa158015610d07573d6000803e3d6000fd5b505050506040513d601f19601f82011682018060405250810190610d2b919061258e565b506001600160701b031691506001600160701b03169150856001600160a01b0316856001600160a01b0316630dfe16816040518163ffffffff1660e01b8152600401602060405180830381865afa158015610d8a573d6000803e3d6000fd5b505050506040513d601f19601f82011682018060405250810190610dae919061255a565b6001600160a01b031614610dbe57905b6000610dca8386611df6565b90506000610dd9828585611e4c565b9050610de58285612508565b9350610df18184612649565b92506000610e00888686611c0b565b90506000610e0e8489612649565b90506000610e1d828888611f2b565b905083811115610e37575082610e34818789611f2b565b91505b600087610e4485856124c7565b610e4e91906124e6565b905086610e5b85846124c7565b610e6591906124e6565b811115610e845786610e7785846124c7565b610e8191906124e6565b90505b9b9a5050505050505050505050565b6040516370a0823160e01b81526001600160a01b038481166004830152600091908316906370a0823190602401602060405180830381865afa158015610edd573d6000803e3d6000fd5b505050506040513d601f19601f820116820180604052508101906105a29190612498565b60008054906101000a90046001600160a01b03166001600160a01b0316637af0e5576040518163ffffffff1660e01b8152600401602060405180830381865afa158015610f52573d6000803e3d6000fd5b505050506040513d601f19601f82011682018060405250810190610f76919061255a565b6001600160a01b0316336001600160a01b031614610fa65760405162461bcd60e51b8152600401610c5990612612565b6001600160a01b03821660009081526002602052604080822083905551339183917fac58e29a41d996caca756d050dce90806b277f0c939337653638329247e16f4c9190a35050565b60008054906101000a90046001600160a01b03166001600160a01b031663e7f43c686040518163ffffffff1660e01b8152600401602060405180830381865afa158015611040573d6000803e3d6000fd5b505050506040513d601f19601f82011682018060405250810190611064919061255a565b6001600160a01b0316336001600160a01b0316146110c45760405162461bcd60e51b815260206004820152601a60248201527f63616c6c6572206973206e6f7420746865206f70657261746f720000000000006044820152606401610c59565b6001600160a01b0381163b6111095760405162461bcd60e51b815260206004820152600b60248201526a085a5cd0dbdb9d1c9858dd60aa1b6044820152606401610c59565b600080546001600160a01b0319166001600160a01b0392909216919091179055565b60008054906101000a90046001600160a01b03166001600160a01b0316637af0e5576040518163ffffffff1660e01b8152600401602060405180830381865afa15801561117c573d6000803e3d6000fd5b505050506040513d601f19601f820116820180604052508101906111a0919061255a565b6001600160a01b0316336001600160a01b0316146111d05760405162461bcd60e51b8152600401610c5990612612565b6003819055604051339082907f19c60b0612798cc65bd298cd47e17d9fd07e74e0d3baa6c0019411bb334d9bda90600090a350565b6060611212848484611fcb565b915081156105a25760408051600680825260e0820190925290816020015b60608152602001906001900390816112305790505060405173a5e0829caced8ffdd4de3c43696c57f7d7a678ff602482015260006044820152909150849060640160408051601f19818403018152918152602080830180516001600160e01b031663095ea7b360e01b17905290516112aa93929101612520565b604051602081830303815290604052816000815181106112cc576112cc612544565b60200260200101819052506000806000806000876001600160a01b0316630902f1ac6040518163ffffffff1660e01b8152600401606060405180830381865afa15801561131d573d6000803e3d6000fd5b505050506040513d601f19601f82011682018060405250810190611341919061258e565b506001600160701b031691506001600160701b03169150876001600160a01b031663d21220a76040518163ffffffff1660e01b8152600401602060405180830381865afa158015611396573d6000803e3d6000fd5b505050506040513d601f19601f820116820180604052508101906113ba919061255a565b9450886001600160a01b0316856001600160a01b031614156114455760408051630dfe168160e01b815290519192916001600160a01b038a1691630dfe16819160048083019260209291908290030181865afa15801561141e573d6000803e3d6000fd5b505050506040513d601f19601f82011682018060405250810190611442919061255a565b94505b61144f8288611df6565b935061145c848383611e4c565b60405173a5e0829caced8ffdd4de3c43696c57f7d7a678ff602482015260448101899052909350899250606401905060408051601f19818403018152918152602080830180516001600160e01b031663095ea7b360e01b17905290516114c493929101612520565b604051602081830303815290604052846001815181106114e6576114e6612544565b602090810291909101015260408051600280825260608201909252600091816020016020820280368337019050509050878160008151811061152a5761152a612544565b60200260200101906001600160a01b031690816001600160a01b031681525050838160018151811061155e5761155e612544565b60200260200101906001600160a01b031690816001600160a01b03168152505073a5e0829caced8ffdd4de3c43696c57f7d7a678ff836000838c6000196040516024016115af9594939291906125d3565b60408051601f19818403018152918152602080830180516001600160e01b03166338ed173960e01b17905290516115e893929101612520565b6040516020818303038152906040528560028151811061160a5761160a612544565b602090810291909101015260405173a5e0829caced8ffdd4de3c43696c57f7d7a678ff602482015260006044820152849060640160408051601f19818403018152918152602080830180516001600160e01b031663095ea7b360e01b179052905161167793929101612520565b6040516020818303038152906040528560038151811061169957611699612544565b602090810291909101015260405173a5e0829caced8ffdd4de3c43696c57f7d7a678ff602482015260448101839052849060640160408051601f19818403018152918152602080830180516001600160e01b031663095ea7b360e01b179052905161170693929101612520565b6040516020818303038152906040528560048151811061172857611728612544565b602090810291909101015273a5e0829caced8ffdd4de3c43696c57f7d7a678ff8885611754868a612649565b6040516001600160a01b0393841660248201529183166044830152606482015260848101859052600060a4820181905260c4820152908b1660e48201526000196101048201526101240160408051601f19818403018152918152602080830180516001600160e01b031662e8e33760e81b17905290516117d693929101612520565b604051602081830303815290604052856005815181106117f8576117f8612544565b602002602001018190525050505050949350505050565b60008061181d868686610ba2565b9092111595945050505050565b6000806000846001600160a01b0316630902f1ac6040518163ffffffff1660e01b8152600401606060405180830381865afa15801561186d573d6000803e3d6000fd5b505050506040513d601f19601f82011682018060405250810190611891919061258e565b506001600160701b031691506001600160701b0316915060006118b5868484611c0b565b9050866001600160a01b0316866001600160a01b0316630dfe16816040518163ffffffff1660e01b8152600401602060405180830381865afa1580156118ff573d6000803e3d6000fd5b505050506040513d601f19601f82011682018060405250810190611923919061255a565b6001600160a01b031614611935579091905b60008161194287866124c7565b61194c91906124e6565b905060008261195b88866124c7565b61196591906124e6565b90506000611986826119778188612649565b611981868a612649565b611e4c565b90506119928184612508565b9a9950505050505050505050565b6040805160028082526060808301845292602083019080368337019050509050826001600160a01b0316630dfe16816040518163ffffffff1660e01b8152600401602060405180830381865afa1580156119fe573d6000803e3d6000fd5b505050506040513d601f19601f82011682018060405250810190611a22919061255a565b81600081518110611a3557611a35612544565b60200260200101906001600160a01b031690816001600160a01b031681525050826001600160a01b031663d21220a76040518163ffffffff1660e01b8152600401602060405180830381865afa158015611a93573d6000803e3d6000fd5b505050506040513d601f19601f82011682018060405250810190611ab7919061255a565b81600181518110611aca57611aca612544565b60200260200101906001600160a01b031690816001600160a01b03168152505092915050565b60008054906101000a90046001600160a01b03166001600160a01b0316637af0e5576040518163ffffffff1660e01b8152600401602060405180830381865afa158015611b41573d6000803e3d6000fd5b505050506040513d601f19601f82011682018060405250810190611b65919061255a565b6001600160a01b0316336001600160a01b031614611b955760405162461bcd60e51b8152600401610c5990612612565b6001600160a01b03808416600090815260016020908152604080832093861683529290528181208390559051339183917f197807a6a2633dd9bde6550aca985cfc69e655e9130930314c0e9da01a75cc549190a3505050565b60606000611bfd858585610e93565b9050610555858585846105aa565b6000836001600160a01b03166318160ddd6040518163ffffffff1660e01b8152600401602060405180830381865afa158015611c4b573d6000803e3d6000fd5b505050506040513d601f19601f82011682018060405250810190611c6f9190612498565b905060006001600160a01b0316735757371414417b8c6caad45baef941abc7d3ab326001600160a01b031663017e7e586040518163ffffffff1660e01b8152600401602060405180830381865afa158015611cce573d6000803e3d6000fd5b505050506040513d601f19601f82011682018060405250810190611cf2919061255a565b6001600160a01b0316146104d0576000846001600160a01b0316637464fc3d6040518163ffffffff1660e01b8152600401602060405180830381865afa158015611d40573d6000803e3d6000fd5b505050506040513d601f19601f82011682018060405250810190611d649190612498565b90508015611dee576000611d80611d7b85876124c7565b612134565b90506000611d8d83612134565b905080821115611deb576000611da38284612649565b611dad90866124c7565b9050600082611dbd8560056124c7565b611dc79190612508565b90506000611dd582846124e6565b90508015611de7576119928188612508565b5050505b50505b509392505050565b60006107ca611e07846107cd6124c7565b611e38611e1786623cda296124c7565b611e2486623cda206124c7565b611e2e9190612508565b611d7b90876124c7565b611e429190612649565b6104d091906124e6565b6000808411611eb15760405162461bcd60e51b815260206004820152602b60248201527f556e697377617056324c6962726172793a20494e53554646494349454e545f4960448201526a1394155517d05353d5539560aa1b6064820152608401610c59565b600083118015611ec15750600082115b611edd5760405162461bcd60e51b8152600401610c5990612660565b6000611eeb856103e56124c7565b90506000611ef984836124c7565b9050600082611f0a876103e86124c7565b611f149190612508565b9050611f2081836124e6565b979650505050505050565b6000808411611f8a5760405162461bcd60e51b815260206004820152602560248201527f556e697377617056324c6962726172793a20494e53554646494349454e545f416044820152641353d5539560da1b6064820152608401610c59565b600083118015611f9a5750600082115b611fb65760405162461bcd60e51b8152600401610c5990612660565b82611fc183866124c7565b6105a291906124e6565b60008060045460ff166001811115611fe557611fe56121f4565b141561204b576001600160a01b0380841660009081526001602090815260408083209388168352929052205482111561204457506001600160a01b038083166000908152600160209081526040808320938716835292905220546104d0565b50806104d0565b60006120578486610457565b6001600160a01b038516600090815260026020526040902054909150156120f0576001600160a01b0384166000908152600260205260409020546127109061209f90836124c7565b6120a991906124e6565b8311156120e8576001600160a01b038416600090815260026020526040902054612710906120d790836124c7565b6120e191906124e6565b9150611dee565b829150611dee565b60035415611dee576127106003548261210991906124c7565b61211391906124e6565b83111561212b57612710600354826120d791906124c7565b50909392505050565b60006003821115612195575080600061214e6002836124e6565b612159906001612508565b90505b8181101561218f5790508060028161217481866124e6565b61217e9190612508565b61218891906124e6565b905061215c565b50919050565b81156103c057506001919050565b6001600160a01b03811681146121b857600080fd5b50565b600080604083850312156121ce57600080fd5b82356121d9816121a3565b915060208301356121e9816121a3565b809150509250929050565b634e487b7160e01b600052602160045260246000fd5b602081016002831061222c57634e487b7160e01b600052602160045260246000fd5b91905290565b60006020828403121561224457600080fd5b81356104d0816121a3565b60008060006060848603121561226457600080fd5b833561226f816121a3565b9250602084013561227f816121a3565b9150604084013561228f816121a3565b809150509250925092565b6000815180845260005b818110156122c0576020818501810151868301820152016122a4565b818111156122d2576000602083870101525b50601f01601f19169290920160200192915050565b6000602080830181845280855180835260408601915060408160051b870101925083870160005b8281101561233c57603f1988860301845261232a85835161229a565b9450928501929085019060010161230e565b5092979650505050505050565b6000806000806080858703121561235f57600080fd5b843561236a816121a3565b9350602085013561237a816121a3565b9250604085013561238a816121a3565b9396929550929360600135925050565b6000602082840312156123ac57600080fd5b8135600281106104d057600080fd5b6000806000606084860312156123d057600080fd5b83356123db816121a3565b925060208401356123eb816121a3565b929592945050506040919091013590565b6000806040838503121561240f57600080fd5b823561241a816121a3565b946020939093013593505050565b60006020828403121561243a57600080fd5b5035919050565b600081518084526020808501945080840160005b8381101561247a5781516001600160a01b031687529582019590820190600101612455565b509495945050505050565b6020815260006104d06020830184612441565b6000602082840312156124aa57600080fd5b5051919050565b634e487b7160e01b600052601160045260246000fd5b60008160001904831182151516156124e1576124e16124b1565b500290565b60008261250357634e487b7160e01b600052601260045260246000fd5b500490565b6000821982111561251b5761251b6124b1565b500190565b6001600160a01b03831681526040602082018190526000906105a29083018461229a565b634e487b7160e01b600052603260045260246000fd5b60006020828403121561256c57600080fd5b81516104d0816121a3565b80516001600160701b03811681146103c057600080fd5b6000806000606084860312156125a357600080fd5b6125ac84612577565b92506125ba60208501612577565b9150604084015163ffffffff8116811461228f57600080fd5b85815260ff8516602082015260a0604082015260006125f560a0830186612441565b6001600160a01b0394909416606083015250608001529392505050565b6020808252601e908201527f63616c6c6572206973206e6f7420746865207269736b4f70657261746f720000604082015260600190565b60008282101561265b5761265b6124b1565b500390565b60208082526028908201527f556e697377617056324c6962726172793a20494e53554646494349454e545f4c604082015267495155494449545960c01b60608201526080019056fea164736f6c634300080b000a"
}