{
  "address": "0x632d0F8A6d26dB4ee6a11A06522249A792445475",
  "abi": [
    {
      "inputs": [
        {
          "internalType": "address",
          "name": "_registry",
          "type": "address"
        }
      ],
      "stateMutability": "nonpayable",
      "type": "constructor"
    },
    {
      "inputs": [
        {
          "internalType": "uint256",
          "name": "_riskProfileCode",
          "type": "uint256"
        },
        {
          "internalType": "bytes32",
          "name": "_underlyingTokensHash",
          "type": "bytes32"
        }
      ],
      "name": "getBestStrategy",
      "outputs": [
        {
          "components": [
            {
              "internalType": "address",
              "name": "pool",
              "type": "address"
            },
            {
              "internalType": "address",
              "name": "outputToken",
              "type": "address"
            },
            {
              "internalType": "bool",
              "name": "isSwap",
              "type": "bool"
            }
          ],
          "internalType": "struct DataTypes.StrategyStep[]",
          "name": "",
          "type": "tuple[]"
        }
      ],
      "stateMutability": "view",
      "type": "function"
    },
    {
      "inputs": [
        {
          "internalType": "bytes32",
          "name": "_underlyingTokensHash",
          "type": "bytes32"
        }
      ],
      "name": "getVaultRewardTokenStrategy",
      "outputs": [
        {
          "components": [
            {
              "internalType": "uint256",
              "name": "hold",
              "type": "uint256"
            },
            {
              "internalType": "uint256",
              "name": "convert",
              "type": "uint256"
            }
          ],
          "internalType": "struct DataTypes.VaultRewardStrategy",
          "name": "",
          "type": "tuple"
        }
      ],
      "stateMutability": "view",
      "type": "function"
    },
    {
      "inputs": [],
      "name": "registryContract",
      "outputs": [
        {
          "internalType": "contract IRegistry",
          "name": "",
          "type": "address"
        }
      ],
      "stateMutability": "view",
      "type": "function"
    },
    {
      "inputs": [
        {
          "internalType": "address",
          "name": "_registry",
          "type": "address"
        }
      ],
      "name": "setRegistry",
      "outputs": [],
      "stateMutability": "nonpayable",
      "type": "function"
    }
  ],
  "transactionHash": "0x28fde18f139dd8b36b07a347aab870ac489f6e3815ff22a2445923e22852f8bd",
  "args": [
    "0x32bd1a6fdaec327b57cdb2cfde0855afb3255d7c"
  ],
  "numDeployments": 1,
  "bytecode": "0x608060405234801561001057600080fd5b5060405161108a38038061108a83398101604081905261002f91610054565b600080546001600160a01b0319166001600160a01b0392909216919091179055610082565b600060208284031215610065578081fd5b81516001600160a01b038116811461007b578182fd5b9392505050565b610ff9806100916000396000f3fe608060405234801561001057600080fd5b506004361061004c5760003560e01c8063231921511461005157806328c1f99b1461007a578063a64e1e7b1461008f578063a91ee0dc146100af575b600080fd5b61006461005f366004610c74565b6100c4565b6040516100719190610f38565b60405180910390f35b6100826101d0565b6040516100719190610dee565b6100a261009d366004610dcd565b6101df565b6040516100719190610e02565b6100c26100bd366004610ae0565b6101f2565b005b6100cc610958565b60008054906101000a90046001600160a01b03166001600160a01b031663992812b76040518163ffffffff1660e01b815260040160206040518083038186803b15801561011857600080fd5b505afa15801561012c573d6000803e3d6000fd5b505050506040513d601f19601f820116820180604052508101906101509190610afc565b6001600160a01b031663f4448faf836040518263ffffffff1660e01b815260040161017b9190610e69565b604080518083038186803b15801561019257600080fd5b505afa1580156101a6573d6000803e3d6000fd5b505050506040513d601f19601f820116820180604052508101906101ca9190610d9a565b92915050565b6000546001600160a01b031681565b60606101eb8383610304565b9392505050565b60005460408051631cfe878d60e31b815290516102ab926001600160a01b03169163e7f43c68916004808301926020929190829003018186803b15801561023857600080fd5b505afa15801561024c573d6000803e3d6000fd5b505050506040513d601f19601f820116820180604052508101906102709190610afc565b6040518060400160405280601a81526020017f63616c6c6572206973206e6f7420746865206f70657261746f72000000000000815250610752565b6102bd816001600160a01b0316610781565b6102e25760405162461bcd60e51b81526004016102d990610eef565b60405180910390fd5b600080546001600160a01b0319166001600160a01b0392909216919091179055565b600054604051638346525f60e01b815260609182916001600160a01b0390911690638346525f90610339908690600401610e69565b60006040518083038186803b15801561035157600080fd5b505afa158015610365573d6000803e3d6000fd5b505050506040513d6000823e601f3d908101601f1916820160405261038d9190810190610b18565b905060008151116103b05760405162461bcd60e51b81526004016102d990610ec5565b60005b81518110156104775760005482516001600160a01b0390911690632d5ad3d5908490849081106103df57fe5b60200260200101516040518263ffffffff1660e01b81526004016104039190610dee565b60206040518083038186803b15801561041b57600080fd5b505afa15801561042f573d6000803e3d6000fd5b505050506040513d601f19601f820116820180604052508101906104539190610c54565b61046f5760405162461bcd60e51b81526004016102d990610ea5565b6001016103b3565b50610480610972565b600054604051639ec39e2f60e01b81526001600160a01b0390911690639ec39e2f906104b0908890600401610e69565b60006040518083038186803b1580156104c857600080fd5b505afa1580156104dc573d6000803e3d6000fd5b505050506040513d6000823e601f3d908101601f191682016040526105049190810190610ccc565b905080606001516105275760405162461bcd60e51b81526004016102d990610f14565b6000546040805163992812b760e01b815290516060926001600160a01b03169163992812b7916004808301926020929190829003018186803b15801561056c57600080fd5b505afa158015610580573d6000803e3d6000fd5b505050506040513d601f19601f820116820180604052508101906105a49190610afc565b6001600160a01b031663d11917d587876040518363ffffffff1660e01b81526004016105d1929190610f4f565b60006040518083038186803b1580156105e957600080fd5b505afa1580156105fd573d6000803e3d6000fd5b505050506040513d6000823e601f3d908101601f191682016040526106259190810190610bb6565b905080516000148061063c575061063c8183610787565b156107495760008054906101000a90046001600160a01b03166001600160a01b031663992812b76040518163ffffffff1660e01b815260040160206040518083038186803b15801561068d57600080fd5b505afa1580156106a1573d6000803e3d6000fd5b505050506040513d601f19601f820116820180604052508101906106c59190610afc565b6001600160a01b031663f0e182e787876040518363ffffffff1660e01b81526004016106f2929190610f4f565b60006040518083038186803b15801561070a57600080fd5b505afa15801561071e573d6000803e3d6000fd5b505050506040513d6000823e601f3d908101601f191682016040526107469190810190610bb6565b90505b95945050505050565b80336001600160a01b0384161461077c5760405162461bcd60e51b81526004016102d99190610e72565b505050565b3b151590565b6000805b835181101561094e5761079c6109aa565b8482815181106107a857fe5b6020026020010151604001516108575760005485516001600160a01b0390911690632ae94863908790859081106107db57fe5b6020026020010151600001516040518263ffffffff1660e01b81526004016108039190610dee565b604080518083038186803b15801561081a57600080fd5b505afa15801561082e573d6000803e3d6000fd5b505050506040513d601f19601f820116820180604052508101906108529190610c8c565b6108f1565b60005485516001600160a01b039091169063039bcf8e9087908590811061087a57fe5b6020026020010151600001516040518263ffffffff1660e01b81526004016108a29190610dee565b604080518083038186803b1580156108b957600080fd5b505afa1580156108cd573d6000803e3d6000fd5b505050506040513d601f19601f820116820180604052508101906108f19190610c8c565b90506000816020015115806109325750604085015151825160ff918216911610801590610930575084604001516020015160ff16826000015160ff1611155b155b905080156109445792506101ca915050565b505060010161078b565b5060009392505050565b604051806040016040528060008152602001600081525090565b6040805160c081018252600080825260208201529081016109916109aa565b8152600060208201526060604082018190529081015290565b604080518082019091526000808252602082015290565b805180151581146101ca57600080fd5b600082601f8301126109e1578081fd5b815167ffffffffffffffff8111156109f7578182fd5b610a0a601f8201601f1916602001610f5d565b9150808252836020828501011115610a2157600080fd5b610a32816020840160208601610fa4565b5092915050565b600060408284031215610a4a578081fd5b610a546040610f5d565b9050610a608383610acf565b8152610a6f8360208401610acf565b602082015292915050565b600060608284031215610a8b578081fd5b610a956060610f5d565b90508151610aa281610fd4565b81526020820151610ab281610fd4565b6020820152610ac483604084016109c1565b604082015292915050565b805160ff811681146101ca57600080fd5b600060208284031215610af1578081fd5b81356101eb81610fd4565b600060208284031215610b0d578081fd5b81516101eb81610fd4565b60006020808385031215610b2a578182fd5b825167ffffffffffffffff811115610b40578283fd5b8301601f81018513610b50578283fd5b8051610b63610b5e82610f84565b610f5d565b8181528381019083850185840285018601891015610b7f578687fd5b8694505b83851015610baa578051610b9681610fd4565b835260019490940193918501918501610b83565b50979650505050505050565b60006020808385031215610bc8578182fd5b825167ffffffffffffffff811115610bde578283fd5b8301601f81018513610bee578283fd5b8051610bfc610b5e82610f84565b818152838101908385016060808502860187018a1015610c1a578788fd5b8795505b84861015610c4657610c308a83610a7a565b8452600195909501949286019290810190610c1e565b509098975050505050505050565b600060208284031215610c65578081fd5b815180151581146101eb578182fd5b600060208284031215610c85578081fd5b5035919050565b600060408284031215610c9d578081fd5b610ca76040610f5d565b610cb18484610acf565b8152610cc084602085016109c1565b60208201529392505050565b600060208284031215610cdd578081fd5b815167ffffffffffffffff80821115610cf4578283fd5b9083019060e08286031215610d07578283fd5b610d1160c0610f5d565b82518152610d2286602085016109c1565b6020820152610d348660408501610a39565b6040820152610d4686608085016109c1565b606082015260a083015182811115610d5c578485fd5b610d68878286016109d1565b60808301525060c083015182811115610d7f578485fd5b610d8b878286016109d1565b60a08301525095945050505050565b600060408284031215610dab578081fd5b610db56040610f5d565b82518152602083015160208201528091505092915050565b60008060408385031215610ddf578081fd5b50508035926020909101359150565b6001600160a01b0391909116815260200190565b602080825282518282018190526000919060409081850190868401855b82811015610e5c57815180516001600160a01b03908116865287820151168786015285015115158585015260609093019290850190600101610e1f565b5091979650505050505050565b90815260200190565b6000602082528251806020840152610e91816040850160208701610fa4565b601f01601f19169190910160400192915050565b60208082526006908201526510aa37b5b2b760d11b604082015260600190565b60208082526010908201526f21546f6b656e4861736845786973747360801b604082015260600190565b6020808252600b908201526a085a5cd0dbdb9d1c9858dd60aa1b604082015260600190565b6020808252600a90820152692152705f45786973747360b01b604082015260600190565b815181526020918201519181019190915260400190565b918252602082015260400190565b60405181810167ffffffffffffffff81118282101715610f7c57600080fd5b604052919050565b600067ffffffffffffffff821115610f9a578081fd5b5060209081020190565b60005b83811015610fbf578181015183820152602001610fa7565b83811115610fce576000848401525b50505050565b6001600160a01b0381168114610fe957600080fd5b5056fea164736f6c634300060c000a"
}