{
  "address": "0x72aba46f25C4c270d20c575D023627B45E307446",
  "abi": [
    {
      "inputs": [
        {
          "internalType": "address",
          "name": "_registry",
          "type": "address"
        }
      ],
      "stateMutability": "nonpayable",
      "type": "constructor"
    },
    {
      "anonymous": false,
      "inputs": [
        {
          "indexed": true,
          "internalType": "uint256",
          "name": "maxDepositAmount",
          "type": "uint256"
        },
        {
          "indexed": true,
          "internalType": "address",
          "name": "caller",
          "type": "address"
        }
      ],
      "name": "LogMaxDepositAmount",
      "type": "event"
    },
    {
      "anonymous": false,
      "inputs": [
        {
          "indexed": true,
          "internalType": "uint256",
          "name": "maxDepositPoolPct",
          "type": "uint256"
        },
        {
          "indexed": true,
          "internalType": "address",
          "name": "caller",
          "type": "address"
        }
      ],
      "name": "LogMaxDepositPoolPct",
      "type": "event"
    },
    {
      "anonymous": false,
      "inputs": [
        {
          "indexed": true,
          "internalType": "enum MaxExposure",
          "name": "maxDepositProtocolMode",
          "type": "uint8"
        },
        {
          "indexed": true,
          "internalType": "address",
          "name": "caller",
          "type": "address"
        }
      ],
      "name": "LogMaxDepositProtocolMode",
      "type": "event"
    },
    {
      "anonymous": false,
      "inputs": [
        {
          "indexed": true,
          "internalType": "uint256",
          "name": "maxDepositProtocolPct",
          "type": "uint256"
        },
        {
          "indexed": true,
          "internalType": "address",
          "name": "caller",
          "type": "address"
        }
      ],
      "name": "LogMaxDepositProtocolPct",
      "type": "event"
    },
    {
      "inputs": [],
      "name": "DENOMINATOR",
      "outputs": [
        {
          "internalType": "uint256",
          "name": "",
          "type": "uint256"
        }
      ],
      "stateMutability": "view",
      "type": "function"
    },
    {
      "inputs": [
        {
          "internalType": "address",
          "name": "_underlyingToken",
          "type": "address"
        },
        {
          "internalType": "address",
          "name": "_liquidityPool",
          "type": "address"
        },
        {
          "internalType": "uint256",
          "name": "_depositAmount",
          "type": "uint256"
        }
      ],
      "name": "calculateAmountInLPToken",
      "outputs": [
        {
          "internalType": "uint256",
          "name": "",
          "type": "uint256"
        }
      ],
      "stateMutability": "view",
      "type": "function"
    },
    {
      "inputs": [
        {
          "internalType": "address payable",
          "name": "_vault",
          "type": "address"
        },
        {
          "internalType": "address",
          "name": "_underlyingToken",
          "type": "address"
        },
        {
          "internalType": "address",
          "name": "_liquidityPool",
          "type": "address"
        },
        {
          "internalType": "uint256",
          "name": "_redeemAmount",
          "type": "uint256"
        }
      ],
      "name": "calculateRedeemableLPTokenAmount",
      "outputs": [
        {
          "internalType": "uint256",
          "name": "",
          "type": "uint256"
        }
      ],
      "stateMutability": "view",
      "type": "function"
    },
    {
      "inputs": [
        {
          "internalType": "address",
          "name": "",
          "type": "address"
        }
      ],
      "name": "canStake",
      "outputs": [
        {
          "internalType": "bool",
          "name": "",
          "type": "bool"
        }
      ],
      "stateMutability": "pure",
      "type": "function"
    },
    {
      "inputs": [
        {
          "internalType": "address payable",
          "name": "_vault",
          "type": "address"
        },
        {
          "internalType": "address",
          "name": "_underlyingToken",
          "type": "address"
        },
        {
          "internalType": "address",
          "name": "_liquidityPool",
          "type": "address"
        }
      ],
      "name": "getAllAmountInToken",
      "outputs": [
        {
          "internalType": "uint256",
          "name": "",
          "type": "uint256"
        }
      ],
      "stateMutability": "view",
      "type": "function"
    },
    {
      "inputs": [
        {
          "internalType": "address payable",
          "name": "_vault",
          "type": "address"
        },
        {
          "internalType": "address",
          "name": "_underlyingToken",
          "type": "address"
        },
        {
          "internalType": "address",
          "name": "_liquidityPool",
          "type": "address"
        }
      ],
      "name": "getDepositAllCodes",
      "outputs": [
        {
          "internalType": "bytes[]",
          "name": "_codes",
          "type": "bytes[]"
        }
      ],
      "stateMutability": "view",
      "type": "function"
    },
    {
      "inputs": [
        {
          "internalType": "address payable",
          "name": "_vault",
          "type": "address"
        },
        {
          "internalType": "address",
          "name": "_underlyingToken",
          "type": "address"
        },
        {
          "internalType": "address",
          "name": "_liquidityPool",
          "type": "address"
        },
        {
          "internalType": "uint256",
          "name": "_amount",
          "type": "uint256"
        }
      ],
      "name": "getDepositSomeCodes",
      "outputs": [
        {
          "internalType": "bytes[]",
          "name": "_codes",
          "type": "bytes[]"
        }
      ],
      "stateMutability": "view",
      "type": "function"
    },
    {
      "inputs": [
        {
          "internalType": "address",
          "name": "",
          "type": "address"
        },
        {
          "internalType": "address",
          "name": "_liquidityPool",
          "type": "address"
        }
      ],
      "name": "getLiquidityPoolToken",
      "outputs": [
        {
          "internalType": "address",
          "name": "",
          "type": "address"
        }
      ],
      "stateMutability": "pure",
      "type": "function"
    },
    {
      "inputs": [
        {
          "internalType": "address payable",
          "name": "_vault",
          "type": "address"
        },
        {
          "internalType": "address",
          "name": "",
          "type": "address"
        },
        {
          "internalType": "address",
          "name": "_liquidityPool",
          "type": "address"
        }
      ],
      "name": "getLiquidityPoolTokenBalance",
      "outputs": [
        {
          "internalType": "uint256",
          "name": "",
          "type": "uint256"
        }
      ],
      "stateMutability": "view",
      "type": "function"
    },
    {
      "inputs": [
        {
          "internalType": "address",
          "name": "_liquidityPool",
          "type": "address"
        },
        {
          "internalType": "address",
          "name": "_underlyingToken",
          "type": "address"
        }
      ],
      "name": "getPoolValue",
      "outputs": [
        {
          "internalType": "uint256",
          "name": "",
          "type": "uint256"
        }
      ],
      "stateMutability": "view",
      "type": "function"
    },
    {
      "inputs": [
        {
          "internalType": "address",
          "name": "",
          "type": "address"
        }
      ],
      "name": "getRewardToken",
      "outputs": [
        {
          "internalType": "address",
          "name": "",
          "type": "address"
        }
      ],
      "stateMutability": "pure",
      "type": "function"
    },
    {
      "inputs": [
        {
          "internalType": "address",
          "name": "_underlyingToken",
          "type": "address"
        },
        {
          "internalType": "address",
          "name": "_liquidityPool",
          "type": "address"
        },
        {
          "internalType": "uint256",
          "name": "_liquidityPoolTokenAmount",
          "type": "uint256"
        }
      ],
      "name": "getSomeAmountInToken",
      "outputs": [
        {
          "internalType": "uint256",
          "name": "",
          "type": "uint256"
        }
      ],
      "stateMutability": "view",
      "type": "function"
    },
    {
      "inputs": [
        {
          "internalType": "address",
          "name": "_liquidityPool",
          "type": "address"
        },
        {
          "internalType": "address",
          "name": "",
          "type": "address"
        }
      ],
      "name": "getUnderlyingTokens",
      "outputs": [
        {
          "internalType": "address[]",
          "name": "_underlyingTokens",
          "type": "address[]"
        }
      ],
      "stateMutability": "view",
      "type": "function"
    },
    {
      "inputs": [
        {
          "internalType": "address payable",
          "name": "_vault",
          "type": "address"
        },
        {
          "internalType": "address",
          "name": "_underlyingToken",
          "type": "address"
        },
        {
          "internalType": "address",
          "name": "_liquidityPool",
          "type": "address"
        }
      ],
      "name": "getWithdrawAllCodes",
      "outputs": [
        {
          "internalType": "bytes[]",
          "name": "_codes",
          "type": "bytes[]"
        }
      ],
      "stateMutability": "view",
      "type": "function"
    },
    {
      "inputs": [
        {
          "internalType": "address payable",
          "name": "_vault",
          "type": "address"
        },
        {
          "internalType": "address",
          "name": "_underlyingToken",
          "type": "address"
        },
        {
          "internalType": "address",
          "name": "_liquidityPool",
          "type": "address"
        },
        {
          "internalType": "uint256",
          "name": "_shares",
          "type": "uint256"
        }
      ],
      "name": "getWithdrawSomeCodes",
      "outputs": [
        {
          "internalType": "bytes[]",
          "name": "_codes",
          "type": "bytes[]"
        }
      ],
      "stateMutability": "view",
      "type": "function"
    },
    {
      "inputs": [
        {
          "internalType": "address payable",
          "name": "_vault",
          "type": "address"
        },
        {
          "internalType": "address",
          "name": "_underlyingToken",
          "type": "address"
        },
        {
          "internalType": "address",
          "name": "_liquidityPool",
          "type": "address"
        },
        {
          "internalType": "uint256",
          "name": "_redeemAmount",
          "type": "uint256"
        }
      ],
      "name": "isRedeemableAmountSufficient",
      "outputs": [
        {
          "internalType": "bool",
          "name": "",
          "type": "bool"
        }
      ],
      "stateMutability": "view",
      "type": "function"
    },
    {
      "inputs": [
        {
          "internalType": "address",
          "name": "",
          "type": "address"
        },
        {
          "internalType": "address",
          "name": "",
          "type": "address"
        }
      ],
      "name": "maxDepositAmount",
      "outputs": [
        {
          "internalType": "uint256",
          "name": "",
          "type": "uint256"
        }
      ],
      "stateMutability": "view",
      "type": "function"
    },
    {
      "inputs": [
        {
          "internalType": "address",
          "name": "",
          "type": "address"
        }
      ],
      "name": "maxDepositPoolPct",
      "outputs": [
        {
          "internalType": "uint256",
          "name": "",
          "type": "uint256"
        }
      ],
      "stateMutability": "view",
      "type": "function"
    },
    {
      "inputs": [],
      "name": "maxDepositProtocolMode",
      "outputs": [
        {
          "internalType": "enum MaxExposure",
          "name": "",
          "type": "uint8"
        }
      ],
      "stateMutability": "view",
      "type": "function"
    },
    {
      "inputs": [],
      "name": "maxDepositProtocolPct",
      "outputs": [
        {
          "internalType": "uint256",
          "name": "",
          "type": "uint256"
        }
      ],
      "stateMutability": "view",
      "type": "function"
    },
    {
      "inputs": [],
      "name": "registryContract",
      "outputs": [
        {
          "internalType": "contract IAdapterRegistryBase",
          "name": "",
          "type": "address"
        }
      ],
      "stateMutability": "view",
      "type": "function"
    },
    {
      "inputs": [
        {
          "internalType": "address",
          "name": "_liquidityPool",
          "type": "address"
        },
        {
          "internalType": "address",
          "name": "_underlyingToken",
          "type": "address"
        },
        {
          "internalType": "uint256",
          "name": "_maxDepositAmount",
          "type": "uint256"
        }
      ],
      "name": "setMaxDepositAmount",
      "outputs": [],
      "stateMutability": "nonpayable",
      "type": "function"
    },
    {
      "inputs": [
        {
          "internalType": "address",
          "name": "_liquidityPool",
          "type": "address"
        },
        {
          "internalType": "uint256",
          "name": "_maxDepositPoolPct",
          "type": "uint256"
        }
      ],
      "name": "setMaxDepositPoolPct",
      "outputs": [],
      "stateMutability": "nonpayable",
      "type": "function"
    },
    {
      "inputs": [
        {
          "internalType": "enum MaxExposure",
          "name": "_mode",
          "type": "uint8"
        }
      ],
      "name": "setMaxDepositProtocolMode",
      "outputs": [],
      "stateMutability": "nonpayable",
      "type": "function"
    },
    {
      "inputs": [
        {
          "internalType": "uint256",
          "name": "_maxDepositProtocolPct",
          "type": "uint256"
        }
      ],
      "name": "setMaxDepositProtocolPct",
      "outputs": [],
      "stateMutability": "nonpayable",
      "type": "function"
    },
    {
      "inputs": [
        {
          "internalType": "address",
          "name": "_registry",
          "type": "address"
        }
      ],
      "name": "setRegistry",
      "outputs": [],
      "stateMutability": "nonpayable",
      "type": "function"
    },
    {
      "inputs": [],
      "name": "sushiswapFactory",
      "outputs": [
        {
          "internalType": "contract IUniswapV2Factory",
          "name": "",
          "type": "address"
        }
      ],
      "stateMutability": "view",
      "type": "function"
    },
    {
      "inputs": [],
      "name": "sushiswapRouter",
      "outputs": [
        {
          "internalType": "contract IUniswapV2Router02",
          "name": "",
          "type": "address"
        }
      ],
      "stateMutability": "view",
      "type": "function"
    }
  ],
  "transactionHash": "0x6749f4f90016bbd5ab58731c0d32093ceea864e886bd8a28d20452b60533341a",
  "args": [
    "0x32bd1a6fdaec327b57cdb2cfde0855afb3255d7c"
  ],
  "bytecode": "0x60806040523480156200001157600080fd5b50604051620027673803806200276783398101604081905262000034916200006f565b600080546001600160a01b0319166001600160a01b038316179055612710600355600480546001919060ff19168280021790555050620000a1565b6000602082840312156200008257600080fd5b81516001600160a01b03811681146200009a57600080fd5b9392505050565b6126b680620000b16000396000f3fe608060405234801561001057600080fd5b50600436106101c45760003560e01c806385541e44116100f9578063df93572211610097578063ee665bed11610071578063ee665bed146103ff578063ef856be914610412578063f1aacbb714610432578063f49307ca1461044557600080fd5b8063df935722146103be578063e49d5ecc146103d1578063e9240c2d146103e457600080fd5b8063919b69d7116100d3578063919b69d714610372578063a91ee0dc14610385578063d74baaf814610398578063da699f96146103ab57600080fd5b806385541e441461034357806390e6160514610356578063918f86741461036957600080fd5b80634ad36e0211610166578063609257791161014057806360925779146102fa57806364dd5f801461030d57806377078872146103205780637c47b3f41461032e57600080fd5b80634ad36e02146102ac5780634f83b52d146102bf578063501070be146102df57600080fd5b80632af06b96116101a25780632af06b961461023b5780632de778381461025557806336d8bf9314610268578063489b52951461028c57600080fd5b8063027a304d146101c9578063191c194b1461020757806328c1f99b14610210575b600080fd5b6101f46101d73660046121bc565b600160209081526000928352604080842090915290825290205481565b6040519081526020015b60405180910390f35b6101f460035481565b600054610223906001600160a01b031681565b6040516001600160a01b0390911681526020016101fe565b6004546102489060ff1681565b6040516101fe919061220b565b6101f46102633660046121bc565b610458565b61027c610276366004612233565b50600090565b60405190151581526020016101fe565b61029f61029a366004612250565b6104d8565b6040516101fe91906122e8565b6101f46102ba36600461234a565b61055f565b6101f46102cd366004612233565b60026020526000908152604090205481565b61022373c35dadb65012ec5796536bd9864ed8773abc74c481565b61029f61030836600461234a565b6105ab565b6101f461031b366004612250565b610ba3565b610223610276366004612233565b61034161033c36600461239b565b610bb5565b005b6101f46103513660046123bc565b610cc5565b6101f4610364366004612250565b610e94565b6101f461271081565b6103416103803660046123fd565b610f02565b610341610393366004612233565b610ff0565b6102236103a63660046121bc565b919050565b6103416103b9366004612429565b61112c565b61029f6103cc36600461234a565b611206565b61027c6103df36600461234a565b611810565b610223731b02da8cb0d097eb8d57a175b88c7d8b4799750681565b6101f461040d3660046123bc565b61182b565b6104256104203660046121bc565b6119a1565b6040516101fe9190612486565b6103416104403660046123bc565b611af1565b61029f610453366004612250565b611bef565b6040516370a0823160e01b81526001600160a01b038381166004830152600091908316906370a0823190602401602060405180830381865afa1580156104a2573d6000803e3d6000fd5b505050506040513d601f19601f820116820180604052508101906104c69190612499565b6104d19060026124c8565b9392505050565b6040516370a0823160e01b81526001600160a01b0384811660048301526060916000918516906370a0823190602401602060405180830381865afa158015610524573d6000803e3d6000fd5b505050506040513d601f19601f820116820180604052508101906105489190612499565b905061055685858584611206565b95945050505050565b60008061056d868686610e94565b9050600061057c878787610ba3565b90508061058985846124c8565b61059391906124e7565b61059e906001612509565b925050505b949350505050565b606081156105a35760408051600680825260e0820190925290816020015b60608152602001906001900390816105c957905050604051731b02da8cb0d097eb8d57a175b88c7d8b47997506602482015260006044820152909150839060640160408051601f19818403018152918152602080830180516001600160e01b031663095ea7b360e01b179052905161064393929101612521565b6040516020818303038152906040528160008151811061066557610665612545565b6020908102919091010152604051731b02da8cb0d097eb8d57a175b88c7d8b47997506602482015260448101839052839060640160408051601f19818403018152918152602080830180516001600160e01b031663095ea7b360e01b17905290516106d293929101612521565b604051602081830303815290604052816001815181106106f4576106f4612545565b60200260200101819052506000836001600160a01b031663d21220a76040518163ffffffff1660e01b8152600401602060405180830381865afa15801561073f573d6000803e3d6000fd5b505050506040513d601f19601f82011682018060405250810190610763919061255b565b9050600080856001600160a01b0316630902f1ac6040518163ffffffff1660e01b8152600401606060405180830381865afa1580156107a6573d6000803e3d6000fd5b505050506040513d601f19601f820116820180604052508101906107ca919061258f565b506001600160701b031691506001600160701b0316915060006107ee878484611c0c565b9050806107fb87856124c8565b61080591906124e7565b92508061081287846124c8565b61081c91906124e7565b9150876001600160a01b0316846001600160a01b031614156108a057866001600160a01b0316630dfe16816040518163ffffffff1660e01b8152600401602060405180830381865afa158015610876573d6000803e3d6000fd5b505050506040513d601f19601f8201168201806040525081019061089a919061255b565b93509091905b6040516001600160a01b03808a16602483015280861660448301526064820188905260006084830181905260a48301528a1660c482015260001960e4820152731b02da8cb0d097eb8d57a175b88c7d8b47997506906101040160408051601f19818403018152918152602080830180516001600160e01b0316635d5155ef60e11b179052905161093293929101612521565b6040516020818303038152906040528560028151811061095457610954612545565b60209081029190910101526040516001600160a01b038816602482015260006044820152849060640160408051601f19818403018152918152602080830180516001600160e01b031663095ea7b360e01b17905290516109b693929101612521565b604051602081830303815290604052856003815181106109d8576109d8612545565b6020908102919091010152604051731b02da8cb0d097eb8d57a175b88c7d8b47997506602482015260448101839052849060640160408051601f19818403018152918152602080830180516001600160e01b031663095ea7b360e01b1790529051610a4593929101612521565b60405160208183030381529060405285600481518110610a6757610a67612545565b6020908102919091010152604080516002808252606082019092526000918160200160208202803683370190505090508481600081518110610aab57610aab612545565b60200260200101906001600160a01b031690816001600160a01b0316815250508881600181518110610adf57610adf612545565b60200260200101906001600160a01b031690816001600160a01b031681525050731b02da8cb0d097eb8d57a175b88c7d8b47997506836000838d600019604051602401610b309594939291906125d4565b60408051601f19818403018152918152602080830180516001600160e01b03166338ed173960e01b1790529051610b6993929101612521565b60405160208183030381529060405286600581518110610b8b57610b8b612545565b60200260200101819052505050505050949350505050565b60006105a3838361040d878787610e94565b60008054906101000a90046001600160a01b03166001600160a01b0316637af0e5576040518163ffffffff1660e01b8152600401602060405180830381865afa158015610c06573d6000803e3d6000fd5b505050506040513d601f19601f82011682018060405250810190610c2a919061255b565b6001600160a01b0316336001600160a01b031614610c635760405162461bcd60e51b8152600401610c5a90612613565b60405180910390fd5b6004805482919060ff191660018381811115610c8157610c816121f5565b021790555033816001811115610c9957610c996121f5565b6040517f68e3b01155b193b02181f2c0ed491c934a74348d211ff023f8fc6ac5edf22aa090600090a350565b6000806000846001600160a01b0316630902f1ac6040518163ffffffff1660e01b8152600401606060405180830381865afa158015610d08573d6000803e3d6000fd5b505050506040513d601f19601f82011682018060405250810190610d2c919061258f565b506001600160701b031691506001600160701b03169150856001600160a01b0316856001600160a01b0316630dfe16816040518163ffffffff1660e01b8152600401602060405180830381865afa158015610d8b573d6000803e3d6000fd5b505050506040513d601f19601f82011682018060405250810190610daf919061255b565b6001600160a01b031614610dbf57905b6000610dcb8386611df7565b90506000610dda828585611e4d565b9050610de68285612509565b9350610df2818461264a565b92506000610e01888686611c0c565b90506000610e0f848961264a565b90506000610e1e828888611f2c565b905083811115610e38575082610e35818789611f2c565b91505b600087610e4585856124c8565b610e4f91906124e7565b905086610e5c85846124c8565b610e6691906124e7565b811115610e855786610e7885846124c8565b610e8291906124e7565b90505b9b9a5050505050505050505050565b6040516370a0823160e01b81526001600160a01b038481166004830152600091908316906370a0823190602401602060405180830381865afa158015610ede573d6000803e3d6000fd5b505050506040513d601f19601f820116820180604052508101906105a39190612499565b60008054906101000a90046001600160a01b03166001600160a01b0316637af0e5576040518163ffffffff1660e01b8152600401602060405180830381865afa158015610f53573d6000803e3d6000fd5b505050506040513d601f19601f82011682018060405250810190610f77919061255b565b6001600160a01b0316336001600160a01b031614610fa75760405162461bcd60e51b8152600401610c5a90612613565b6001600160a01b03821660009081526002602052604080822083905551339183917fac58e29a41d996caca756d050dce90806b277f0c939337653638329247e16f4c9190a35050565b60008054906101000a90046001600160a01b03166001600160a01b031663e7f43c686040518163ffffffff1660e01b8152600401602060405180830381865afa158015611041573d6000803e3d6000fd5b505050506040513d601f19601f82011682018060405250810190611065919061255b565b6001600160a01b0316336001600160a01b0316146110c55760405162461bcd60e51b815260206004820152601a60248201527f63616c6c6572206973206e6f7420746865206f70657261746f720000000000006044820152606401610c5a565b6001600160a01b0381163b61110a5760405162461bcd60e51b815260206004820152600b60248201526a085a5cd0dbdb9d1c9858dd60aa1b6044820152606401610c5a565b600080546001600160a01b0319166001600160a01b0392909216919091179055565b60008054906101000a90046001600160a01b03166001600160a01b0316637af0e5576040518163ffffffff1660e01b8152600401602060405180830381865afa15801561117d573d6000803e3d6000fd5b505050506040513d601f19601f820116820180604052508101906111a1919061255b565b6001600160a01b0316336001600160a01b0316146111d15760405162461bcd60e51b8152600401610c5a90612613565b6003819055604051339082907f19c60b0612798cc65bd298cd47e17d9fd07e74e0d3baa6c0019411bb334d9bda90600090a350565b6060611213848484611fcc565b915081156105a35760408051600680825260e0820190925290816020015b606081526020019060019003908161123157905050604051731b02da8cb0d097eb8d57a175b88c7d8b47997506602482015260006044820152909150849060640160408051601f19818403018152918152602080830180516001600160e01b031663095ea7b360e01b17905290516112ab93929101612521565b604051602081830303815290604052816000815181106112cd576112cd612545565b60200260200101819052506000806000806000876001600160a01b0316630902f1ac6040518163ffffffff1660e01b8152600401606060405180830381865afa15801561131e573d6000803e3d6000fd5b505050506040513d601f19601f82011682018060405250810190611342919061258f565b506001600160701b031691506001600160701b03169150876001600160a01b031663d21220a76040518163ffffffff1660e01b8152600401602060405180830381865afa158015611397573d6000803e3d6000fd5b505050506040513d601f19601f820116820180604052508101906113bb919061255b565b9450886001600160a01b0316856001600160a01b031614156114465760408051630dfe168160e01b815290519192916001600160a01b038a1691630dfe16819160048083019260209291908290030181865afa15801561141f573d6000803e3d6000fd5b505050506040513d601f19601f82011682018060405250810190611443919061255b565b94505b6114508288611df7565b935061145d848383611e4d565b604051731b02da8cb0d097eb8d57a175b88c7d8b47997506602482015260448101899052909350899250606401905060408051601f19818403018152918152602080830180516001600160e01b031663095ea7b360e01b17905290516114c593929101612521565b604051602081830303815290604052846001815181106114e7576114e7612545565b602090810291909101015260408051600280825260608201909252600091816020016020820280368337019050509050878160008151811061152b5761152b612545565b60200260200101906001600160a01b031690816001600160a01b031681525050838160018151811061155f5761155f612545565b60200260200101906001600160a01b031690816001600160a01b031681525050731b02da8cb0d097eb8d57a175b88c7d8b47997506836000838c6000196040516024016115b09594939291906125d4565b60408051601f19818403018152918152602080830180516001600160e01b03166338ed173960e01b17905290516115e993929101612521565b6040516020818303038152906040528560028151811061160b5761160b612545565b6020908102919091010152604051731b02da8cb0d097eb8d57a175b88c7d8b47997506602482015260006044820152849060640160408051601f19818403018152918152602080830180516001600160e01b031663095ea7b360e01b179052905161167893929101612521565b6040516020818303038152906040528560038151811061169a5761169a612545565b6020908102919091010152604051731b02da8cb0d097eb8d57a175b88c7d8b47997506602482015260448101839052849060640160408051601f19818403018152918152602080830180516001600160e01b031663095ea7b360e01b179052905161170793929101612521565b6040516020818303038152906040528560048151811061172957611729612545565b6020908102919091010152731b02da8cb0d097eb8d57a175b88c7d8b479975068885611755868a61264a565b6040516001600160a01b0393841660248201529183166044830152606482015260848101859052600060a4820181905260c4820152908b1660e48201526000196101048201526101240160408051601f19818403018152918152602080830180516001600160e01b031662e8e33760e81b17905290516117d793929101612521565b604051602081830303815290604052856005815181106117f9576117f9612545565b602002602001018190525050505050949350505050565b60008061181e868686610ba3565b9092111595945050505050565b6000806000846001600160a01b0316630902f1ac6040518163ffffffff1660e01b8152600401606060405180830381865afa15801561186e573d6000803e3d6000fd5b505050506040513d601f19601f82011682018060405250810190611892919061258f565b506001600160701b031691506001600160701b0316915060006118b6868484611c0c565b9050866001600160a01b0316866001600160a01b0316630dfe16816040518163ffffffff1660e01b8152600401602060405180830381865afa158015611900573d6000803e3d6000fd5b505050506040513d601f19601f82011682018060405250810190611924919061255b565b6001600160a01b031614611936579091905b60008161194387866124c8565b61194d91906124e7565b905060008261195c88866124c8565b61196691906124e7565b9050600061198782611978818861264a565b611982868a61264a565b611e4d565b90506119938184612509565b9a9950505050505050505050565b6040805160028082526060808301845292602083019080368337019050509050826001600160a01b0316630dfe16816040518163ffffffff1660e01b8152600401602060405180830381865afa1580156119ff573d6000803e3d6000fd5b505050506040513d601f19601f82011682018060405250810190611a23919061255b565b81600081518110611a3657611a36612545565b60200260200101906001600160a01b031690816001600160a01b031681525050826001600160a01b031663d21220a76040518163ffffffff1660e01b8152600401602060405180830381865afa158015611a94573d6000803e3d6000fd5b505050506040513d601f19601f82011682018060405250810190611ab8919061255b565b81600181518110611acb57611acb612545565b60200260200101906001600160a01b031690816001600160a01b03168152505092915050565b60008054906101000a90046001600160a01b03166001600160a01b0316637af0e5576040518163ffffffff1660e01b8152600401602060405180830381865afa158015611b42573d6000803e3d6000fd5b505050506040513d601f19601f82011682018060405250810190611b66919061255b565b6001600160a01b0316336001600160a01b031614611b965760405162461bcd60e51b8152600401610c5a90612613565b6001600160a01b03808416600090815260016020908152604080832093861683529290528181208390559051339183917f197807a6a2633dd9bde6550aca985cfc69e655e9130930314c0e9da01a75cc549190a3505050565b60606000611bfe858585610e94565b9050610556858585846105ab565b6000836001600160a01b03166318160ddd6040518163ffffffff1660e01b8152600401602060405180830381865afa158015611c4c573d6000803e3d6000fd5b505050506040513d601f19601f82011682018060405250810190611c709190612499565b905060006001600160a01b031673c35dadb65012ec5796536bd9864ed8773abc74c46001600160a01b031663017e7e586040518163ffffffff1660e01b8152600401602060405180830381865afa158015611ccf573d6000803e3d6000fd5b505050506040513d601f19601f82011682018060405250810190611cf3919061255b565b6001600160a01b0316146104d1576000846001600160a01b0316637464fc3d6040518163ffffffff1660e01b8152600401602060405180830381865afa158015611d41573d6000803e3d6000fd5b505050506040513d601f19601f82011682018060405250810190611d659190612499565b90508015611def576000611d81611d7c85876124c8565b612135565b90506000611d8e83612135565b905080821115611dec576000611da4828461264a565b611dae90866124c8565b9050600082611dbe8560056124c8565b611dc89190612509565b90506000611dd682846124e7565b90508015611de8576119938188612509565b5050505b50505b509392505050565b60006107ca611e08846107cd6124c8565b611e39611e1886623cda296124c8565b611e2586623cda206124c8565b611e2f9190612509565b611d7c90876124c8565b611e43919061264a565b6104d191906124e7565b6000808411611eb25760405162461bcd60e51b815260206004820152602b60248201527f556e697377617056324c6962726172793a20494e53554646494349454e545f4960448201526a1394155517d05353d5539560aa1b6064820152608401610c5a565b600083118015611ec25750600082115b611ede5760405162461bcd60e51b8152600401610c5a90612661565b6000611eec856103e56124c8565b90506000611efa84836124c8565b9050600082611f0b876103e86124c8565b611f159190612509565b9050611f2181836124e7565b979650505050505050565b6000808411611f8b5760405162461bcd60e51b815260206004820152602560248201527f556e697377617056324c6962726172793a20494e53554646494349454e545f416044820152641353d5539560da1b6064820152608401610c5a565b600083118015611f9b5750600082115b611fb75760405162461bcd60e51b8152600401610c5a90612661565b82611fc283866124c8565b6105a391906124e7565b60008060045460ff166001811115611fe657611fe66121f5565b141561204c576001600160a01b0380841660009081526001602090815260408083209388168352929052205482111561204557506001600160a01b038083166000908152600160209081526040808320938716835292905220546104d1565b50806104d1565b60006120588486610458565b6001600160a01b038516600090815260026020526040902054909150156120f1576001600160a01b038416600090815260026020526040902054612710906120a090836124c8565b6120aa91906124e7565b8311156120e9576001600160a01b038416600090815260026020526040902054612710906120d890836124c8565b6120e291906124e7565b9150611def565b829150611def565b60035415611def576127106003548261210a91906124c8565b61211491906124e7565b83111561212c57612710600354826120d891906124c8565b50909392505050565b60006003821115612196575080600061214f6002836124e7565b61215a906001612509565b90505b818110156121905790508060028161217581866124e7565b61217f9190612509565b61218991906124e7565b905061215d565b50919050565b81156103a657506001919050565b6001600160a01b03811681146121b957600080fd5b50565b600080604083850312156121cf57600080fd5b82356121da816121a4565b915060208301356121ea816121a4565b809150509250929050565b634e487b7160e01b600052602160045260246000fd5b602081016002831061222d57634e487b7160e01b600052602160045260246000fd5b91905290565b60006020828403121561224557600080fd5b81356104d1816121a4565b60008060006060848603121561226557600080fd5b8335612270816121a4565b92506020840135612280816121a4565b91506040840135612290816121a4565b809150509250925092565b6000815180845260005b818110156122c1576020818501810151868301820152016122a5565b818111156122d3576000602083870101525b50601f01601f19169290920160200192915050565b6000602080830181845280855180835260408601915060408160051b870101925083870160005b8281101561233d57603f1988860301845261232b85835161229b565b9450928501929085019060010161230f565b5092979650505050505050565b6000806000806080858703121561236057600080fd5b843561236b816121a4565b9350602085013561237b816121a4565b9250604085013561238b816121a4565b9396929550929360600135925050565b6000602082840312156123ad57600080fd5b8135600281106104d157600080fd5b6000806000606084860312156123d157600080fd5b83356123dc816121a4565b925060208401356123ec816121a4565b929592945050506040919091013590565b6000806040838503121561241057600080fd5b823561241b816121a4565b946020939093013593505050565b60006020828403121561243b57600080fd5b5035919050565b600081518084526020808501945080840160005b8381101561247b5781516001600160a01b031687529582019590820190600101612456565b509495945050505050565b6020815260006104d16020830184612442565b6000602082840312156124ab57600080fd5b5051919050565b634e487b7160e01b600052601160045260246000fd5b60008160001904831182151516156124e2576124e26124b2565b500290565b60008261250457634e487b7160e01b600052601260045260246000fd5b500490565b6000821982111561251c5761251c6124b2565b500190565b6001600160a01b03831681526040602082018190526000906105a39083018461229b565b634e487b7160e01b600052603260045260246000fd5b60006020828403121561256d57600080fd5b81516104d1816121a4565b80516001600160701b03811681146103a657600080fd5b6000806000606084860312156125a457600080fd5b6125ad84612578565b92506125bb60208501612578565b9150604084015163ffffffff8116811461229057600080fd5b85815260ff8516602082015260a0604082015260006125f660a0830186612442565b6001600160a01b0394909416606083015250608001529392505050565b6020808252601e908201527f63616c6c6572206973206e6f7420746865207269736b4f70657261746f720000604082015260600190565b60008282101561265c5761265c6124b2565b500390565b60208082526028908201527f556e697377617056324c6962726172793a20494e53554646494349454e545f4c604082015267495155494449545960c01b60608201526080019056fea164736f6c634300080b000a"
}