{
  "address": "0x3a60CaD68b2d469B63060a5904A5F74c8aD46d98",
  "abi": [
    {
      "inputs": [
        {
          "internalType": "address",
          "name": "_registry",
          "type": "address"
        }
      ],
      "stateMutability": "nonpayable",
      "type": "constructor"
    },
    {
      "anonymous": false,
      "inputs": [
        {
          "indexed": true,
          "internalType": "uint256",
          "name": "maxDepositAmount",
          "type": "uint256"
        },
        {
          "indexed": true,
          "internalType": "address",
          "name": "caller",
          "type": "address"
        }
      ],
      "name": "LogMaxDepositAmount",
      "type": "event"
    },
    {
      "anonymous": false,
      "inputs": [
        {
          "indexed": true,
          "internalType": "uint256",
          "name": "maxDepositPoolPct",
          "type": "uint256"
        },
        {
          "indexed": true,
          "internalType": "address",
          "name": "caller",
          "type": "address"
        }
      ],
      "name": "LogMaxDepositPoolPct",
      "type": "event"
    },
    {
      "anonymous": false,
      "inputs": [
        {
          "indexed": true,
          "internalType": "enum MaxExposure",
          "name": "maxDepositProtocolMode",
          "type": "uint8"
        },
        {
          "indexed": true,
          "internalType": "address",
          "name": "caller",
          "type": "address"
        }
      ],
      "name": "LogMaxDepositProtocolMode",
      "type": "event"
    },
    {
      "anonymous": false,
      "inputs": [
        {
          "indexed": true,
          "internalType": "uint256",
          "name": "maxDepositProtocolPct",
          "type": "uint256"
        },
        {
          "indexed": true,
          "internalType": "address",
          "name": "caller",
          "type": "address"
        }
      ],
      "name": "LogMaxDepositProtocolPct",
      "type": "event"
    },
    {
      "inputs": [],
      "name": "PROTOCOL_DATA_PROVIDER_ID",
      "outputs": [
        {
          "internalType": "bytes32",
          "name": "",
          "type": "bytes32"
        }
      ],
      "stateMutability": "view",
      "type": "function"
    },
    {
      "inputs": [],
      "name": "WMATIC",
      "outputs": [
        {
          "internalType": "address",
          "name": "",
          "type": "address"
        }
      ],
      "stateMutability": "view",
      "type": "function"
    },
    {
      "inputs": [
        {
          "internalType": "address",
          "name": "",
          "type": "address"
        },
        {
          "internalType": "address",
          "name": "",
          "type": "address"
        },
        {
          "internalType": "uint256",
          "name": "_underlyingTokenAmount",
          "type": "uint256"
        }
      ],
      "name": "calculateAmountInLPToken",
      "outputs": [
        {
          "internalType": "uint256",
          "name": "",
          "type": "uint256"
        }
      ],
      "stateMutability": "pure",
      "type": "function"
    },
    {
      "inputs": [
        {
          "internalType": "address payable",
          "name": "",
          "type": "address"
        },
        {
          "internalType": "address",
          "name": "",
          "type": "address"
        },
        {
          "internalType": "address",
          "name": "",
          "type": "address"
        },
        {
          "internalType": "uint256",
          "name": "_redeemAmount",
          "type": "uint256"
        }
      ],
      "name": "calculateRedeemableLPTokenAmount",
      "outputs": [
        {
          "internalType": "uint256",
          "name": "",
          "type": "uint256"
        }
      ],
      "stateMutability": "pure",
      "type": "function"
    },
    {
      "inputs": [
        {
          "internalType": "address",
          "name": "",
          "type": "address"
        }
      ],
      "name": "canStake",
      "outputs": [
        {
          "internalType": "bool",
          "name": "",
          "type": "bool"
        }
      ],
      "stateMutability": "pure",
      "type": "function"
    },
    {
      "inputs": [
        {
          "internalType": "address payable",
          "name": "_vault",
          "type": "address"
        },
        {
          "internalType": "address",
          "name": "_underlyingToken",
          "type": "address"
        }
      ],
      "name": "getAddLiquidityCodes",
      "outputs": [
        {
          "internalType": "bytes[]",
          "name": "_codes",
          "type": "bytes[]"
        }
      ],
      "stateMutability": "view",
      "type": "function"
    },
    {
      "inputs": [
        {
          "internalType": "address payable",
          "name": "_vault",
          "type": "address"
        },
        {
          "internalType": "address",
          "name": "_underlyingToken",
          "type": "address"
        },
        {
          "internalType": "address",
          "name": "_liquidityPoolAddressProviderRegistry",
          "type": "address"
        }
      ],
      "name": "getAllAmountInToken",
      "outputs": [
        {
          "internalType": "uint256",
          "name": "",
          "type": "uint256"
        }
      ],
      "stateMutability": "view",
      "type": "function"
    },
    {
      "inputs": [
        {
          "internalType": "address payable",
          "name": "_vault",
          "type": "address"
        },
        {
          "internalType": "address",
          "name": "",
          "type": "address"
        }
      ],
      "name": "getClaimRewardTokenCode",
      "outputs": [
        {
          "internalType": "bytes[]",
          "name": "_codes",
          "type": "bytes[]"
        }
      ],
      "stateMutability": "view",
      "type": "function"
    },
    {
      "inputs": [
        {
          "internalType": "address payable",
          "name": "_vault",
          "type": "address"
        },
        {
          "internalType": "address",
          "name": "_underlyingToken",
          "type": "address"
        },
        {
          "internalType": "address",
          "name": "_liquidityPoolAddressProviderRegistry",
          "type": "address"
        }
      ],
      "name": "getDepositAllCodes",
      "outputs": [
        {
          "internalType": "bytes[]",
          "name": "",
          "type": "bytes[]"
        }
      ],
      "stateMutability": "view",
      "type": "function"
    },
    {
      "inputs": [
        {
          "internalType": "address payable",
          "name": "_vault",
          "type": "address"
        },
        {
          "internalType": "address",
          "name": "_underlyingToken",
          "type": "address"
        },
        {
          "internalType": "address",
          "name": "_liquidityPoolAddressProviderRegistry",
          "type": "address"
        },
        {
          "internalType": "uint256",
          "name": "_amount",
          "type": "uint256"
        }
      ],
      "name": "getDepositSomeCodes",
      "outputs": [
        {
          "internalType": "bytes[]",
          "name": "_codes",
          "type": "bytes[]"
        }
      ],
      "stateMutability": "view",
      "type": "function"
    },
    {
      "inputs": [
        {
          "internalType": "address payable",
          "name": "_vault",
          "type": "address"
        },
        {
          "internalType": "address",
          "name": "_underlyingToken",
          "type": "address"
        },
        {
          "internalType": "address",
          "name": "",
          "type": "address"
        }
      ],
      "name": "getHarvestAllCodes",
      "outputs": [
        {
          "internalType": "bytes[]",
          "name": "_codes",
          "type": "bytes[]"
        }
      ],
      "stateMutability": "view",
      "type": "function"
    },
    {
      "inputs": [
        {
          "internalType": "address payable",
          "name": "_vault",
          "type": "address"
        },
        {
          "internalType": "address",
          "name": "_underlyingToken",
          "type": "address"
        },
        {
          "internalType": "address",
          "name": "",
          "type": "address"
        },
        {
          "internalType": "uint256",
          "name": "_rewardTokenAmount",
          "type": "uint256"
        }
      ],
      "name": "getHarvestSomeCodes",
      "outputs": [
        {
          "internalType": "bytes[]",
          "name": "_codes",
          "type": "bytes[]"
        }
      ],
      "stateMutability": "view",
      "type": "function"
    },
    {
      "inputs": [
        {
          "internalType": "address",
          "name": "_underlyingToken",
          "type": "address"
        },
        {
          "internalType": "address",
          "name": "_liquidityPoolAddressProviderRegistry",
          "type": "address"
        }
      ],
      "name": "getLiquidityPoolToken",
      "outputs": [
        {
          "internalType": "address",
          "name": "",
          "type": "address"
        }
      ],
      "stateMutability": "view",
      "type": "function"
    },
    {
      "inputs": [
        {
          "internalType": "address payable",
          "name": "_vault",
          "type": "address"
        },
        {
          "internalType": "address",
          "name": "_underlyingToken",
          "type": "address"
        },
        {
          "internalType": "address",
          "name": "_liquidityPoolAddressProviderRegistry",
          "type": "address"
        }
      ],
      "name": "getLiquidityPoolTokenBalance",
      "outputs": [
        {
          "internalType": "uint256",
          "name": "",
          "type": "uint256"
        }
      ],
      "stateMutability": "view",
      "type": "function"
    },
    {
      "inputs": [
        {
          "internalType": "address",
          "name": "_liquidityPoolAddressProviderRegistry",
          "type": "address"
        },
        {
          "internalType": "address",
          "name": "_underlyingToken",
          "type": "address"
        }
      ],
      "name": "getPoolValue",
      "outputs": [
        {
          "internalType": "uint256",
          "name": "",
          "type": "uint256"
        }
      ],
      "stateMutability": "view",
      "type": "function"
    },
    {
      "inputs": [
        {
          "internalType": "address",
          "name": "",
          "type": "address"
        }
      ],
      "name": "getRewardToken",
      "outputs": [
        {
          "internalType": "address",
          "name": "",
          "type": "address"
        }
      ],
      "stateMutability": "view",
      "type": "function"
    },
    {
      "inputs": [
        {
          "internalType": "address",
          "name": "",
          "type": "address"
        },
        {
          "internalType": "address",
          "name": "",
          "type": "address"
        },
        {
          "internalType": "uint256",
          "name": "_liquidityPoolTokenAmount",
          "type": "uint256"
        }
      ],
      "name": "getSomeAmountInToken",
      "outputs": [
        {
          "internalType": "uint256",
          "name": "",
          "type": "uint256"
        }
      ],
      "stateMutability": "pure",
      "type": "function"
    },
    {
      "inputs": [
        {
          "internalType": "address payable",
          "name": "_vault",
          "type": "address"
        },
        {
          "internalType": "address",
          "name": "",
          "type": "address"
        },
        {
          "internalType": "address",
          "name": "",
          "type": "address"
        }
      ],
      "name": "getUnclaimedRewardTokenAmount",
      "outputs": [
        {
          "internalType": "uint256",
          "name": "_codes",
          "type": "uint256"
        }
      ],
      "stateMutability": "view",
      "type": "function"
    },
    {
      "inputs": [
        {
          "internalType": "address",
          "name": "",
          "type": "address"
        },
        {
          "internalType": "address",
          "name": "_liquidityPoolToken",
          "type": "address"
        }
      ],
      "name": "getUnderlyingTokens",
      "outputs": [
        {
          "internalType": "address[]",
          "name": "_underlyingTokens",
          "type": "address[]"
        }
      ],
      "stateMutability": "view",
      "type": "function"
    },
    {
      "inputs": [
        {
          "internalType": "address payable",
          "name": "_vault",
          "type": "address"
        },
        {
          "internalType": "address",
          "name": "_underlyingToken",
          "type": "address"
        },
        {
          "internalType": "address",
          "name": "_liquidityPoolAddressProviderRegistry",
          "type": "address"
        }
      ],
      "name": "getWithdrawAllCodes",
      "outputs": [
        {
          "internalType": "bytes[]",
          "name": "",
          "type": "bytes[]"
        }
      ],
      "stateMutability": "view",
      "type": "function"
    },
    {
      "inputs": [
        {
          "internalType": "address payable",
          "name": "_vault",
          "type": "address"
        },
        {
          "internalType": "address",
          "name": "_underlyingToken",
          "type": "address"
        },
        {
          "internalType": "address",
          "name": "_liquidityPoolAddressProviderRegistry",
          "type": "address"
        },
        {
          "internalType": "uint256",
          "name": "_amount",
          "type": "uint256"
        }
      ],
      "name": "getWithdrawSomeCodes",
      "outputs": [
        {
          "internalType": "bytes[]",
          "name": "_codes",
          "type": "bytes[]"
        }
      ],
      "stateMutability": "view",
      "type": "function"
    },
    {
      "inputs": [],
      "name": "incentivesController",
      "outputs": [
        {
          "internalType": "address",
          "name": "",
          "type": "address"
        }
      ],
      "stateMutability": "view",
      "type": "function"
    },
    {
      "inputs": [
        {
          "internalType": "address payable",
          "name": "_vault",
          "type": "address"
        },
        {
          "internalType": "address",
          "name": "_underlyingToken",
          "type": "address"
        },
        {
          "internalType": "address",
          "name": "_liquidityPoolAddressProviderRegistry",
          "type": "address"
        },
        {
          "internalType": "uint256",
          "name": "_redeemAmount",
          "type": "uint256"
        }
      ],
      "name": "isRedeemableAmountSufficient",
      "outputs": [
        {
          "internalType": "bool",
          "name": "",
          "type": "bool"
        }
      ],
      "stateMutability": "view",
      "type": "function"
    },
    {
      "inputs": [
        {
          "internalType": "address",
          "name": "",
          "type": "address"
        },
        {
          "internalType": "address",
          "name": "",
          "type": "address"
        }
      ],
      "name": "maxDepositAmount",
      "outputs": [
        {
          "internalType": "uint256",
          "name": "",
          "type": "uint256"
        }
      ],
      "stateMutability": "view",
      "type": "function"
    },
    {
      "inputs": [
        {
          "internalType": "address",
          "name": "",
          "type": "address"
        }
      ],
      "name": "maxDepositPoolPct",
      "outputs": [
        {
          "internalType": "uint256",
          "name": "",
          "type": "uint256"
        }
      ],
      "stateMutability": "view",
      "type": "function"
    },
    {
      "inputs": [],
      "name": "maxDepositProtocolMode",
      "outputs": [
        {
          "internalType": "enum MaxExposure",
          "name": "",
          "type": "uint8"
        }
      ],
      "stateMutability": "view",
      "type": "function"
    },
    {
      "inputs": [],
      "name": "maxDepositProtocolPct",
      "outputs": [
        {
          "internalType": "uint256",
          "name": "",
          "type": "uint256"
        }
      ],
      "stateMutability": "view",
      "type": "function"
    },
    {
      "inputs": [],
      "name": "quickSwapV2Router02",
      "outputs": [
        {
          "internalType": "address",
          "name": "",
          "type": "address"
        }
      ],
      "stateMutability": "view",
      "type": "function"
    },
    {
      "inputs": [],
      "name": "registryContract",
      "outputs": [
        {
          "internalType": "contract IAdapterRegistryBase",
          "name": "",
          "type": "address"
        }
      ],
      "stateMutability": "view",
      "type": "function"
    },
    {
      "inputs": [
        {
          "internalType": "address",
          "name": "_liquidityPool",
          "type": "address"
        },
        {
          "internalType": "address",
          "name": "_underlyingToken",
          "type": "address"
        },
        {
          "internalType": "uint256",
          "name": "_maxDepositAmount",
          "type": "uint256"
        }
      ],
      "name": "setMaxDepositAmount",
      "outputs": [],
      "stateMutability": "nonpayable",
      "type": "function"
    },
    {
      "inputs": [
        {
          "internalType": "address",
          "name": "_liquidityPool",
          "type": "address"
        },
        {
          "internalType": "uint256",
          "name": "_maxDepositPoolPct",
          "type": "uint256"
        }
      ],
      "name": "setMaxDepositPoolPct",
      "outputs": [],
      "stateMutability": "nonpayable",
      "type": "function"
    },
    {
      "inputs": [
        {
          "internalType": "enum MaxExposure",
          "name": "_mode",
          "type": "uint8"
        }
      ],
      "name": "setMaxDepositProtocolMode",
      "outputs": [],
      "stateMutability": "nonpayable",
      "type": "function"
    },
    {
      "inputs": [
        {
          "internalType": "uint256",
          "name": "_maxDepositProtocolPct",
          "type": "uint256"
        }
      ],
      "name": "setMaxDepositProtocolPct",
      "outputs": [],
      "stateMutability": "nonpayable",
      "type": "function"
    },
    {
      "inputs": [
        {
          "internalType": "address",
          "name": "_registry",
          "type": "address"
        }
      ],
      "name": "setRegistry",
      "outputs": [],
      "stateMutability": "nonpayable",
      "type": "function"
    }
  ],
  "transactionHash": "0x946f4b07c1ee1e94553d4b5715789902cc4c32c51c8e762b2a0c2b6926cfd9a2",
  "args": [
    "0x32bD1a6FdaeC327B57cdB2CFDe0855AfB3255d7C"
  ],
  "bytecode": "0x608060405234801561001057600080fd5b50604051620023663803806200236683398101604081905261003191610064565b600080546127106001556001600160a01b03929092166001600160a81b031990921691909117600160a01b179055610094565b60006020828403121561007657600080fd5b81516001600160a01b038116811461008d57600080fd5b9392505050565b6122c280620000a46000396000f3fe608060405234801561001057600080fd5b50600436106102065760003560e01c80637c47b3f41161011a578063d463fcf6116100ad578063e49d5ecc1161007c578063e49d5ecc146104ba578063ee665bed146103f3578063ef856be9146104cd578063f1aacbb7146104ed578063f49307ca1461050057600080fd5b8063d463fcf61461046e578063d74baaf814610481578063da699f9614610494578063df935722146104a757600080fd5b8063919b69d7116100e9578063919b69d71461041a578063a91ee0dc1461042d578063af1df25514610440578063b3fe7f5a1461045b57600080fd5b80637c47b3f4146103c85780637df50ed8146103dd57806385541e44146103f357806390e616051461040757600080fd5b8063489b52951161019d5780634f83b52d1161016c5780634f83b52d1461035c578063609257791461037c57806364dd5f801461038f5780636d267d7c146103a257806377078872146103b557600080fd5b8063489b5295146103005780634ad36e02146103135780634d41a1e5146103265780634d95cad91461034157600080fd5b806328c1f99b116101d957806328c1f99b1461027d5780632af06b96146102a85780632de77838146102c957806336d8bf93146102dc57600080fd5b8063027a304d1461020b5780630c9d8d5c14610249578063119d610514610269578063191c194b14610274575b600080fd5b610236610219366004611a59565b600260209081526000928352604080842090915290825290205481565b6040519081526020015b60405180910390f35b61025c610257366004611a92565b610513565b6040516102409190611b2a565b610236600160f81b81565b61023660015481565b600054610290906001600160a01b031681565b6040516001600160a01b039091168152602001610240565b6000546102bc90600160a01b900460ff1681565b6040516102409190611ba2565b6102366102d7366004611a59565b6105a5565b6102f06102ea366004611bca565b50600090565b6040519015158152602001610240565b61025c61030e366004611a92565b6105b9565b610236610321366004611be7565b610637565b61029073a5e0829caced8ffdd4de3c43696c57f7d7a678ff81565b610290730d500b1d8e8ef31e21c99d1db9a6444d3adf127081565b61023661036a366004611bca565b60036020526000908152604090205481565b61025c61038a366004611be7565b610641565b61023661039d366004611a92565b610830565b61025c6103b0366004611a59565b61083d565b6102906103c3366004611bca565b610917565b6103db6103d6366004611c38565b61098f565b005b61025c6103eb366004611a59565b606092915050565b610236610401366004611c59565b92915050565b610236610415366004611a92565b610ab3565b6103db610428366004611c9a565b610b2c565b6103db61043b366004611bca565b610c1a565b61029073357d51124f59836ded84c8a1730d72b749d8bc2381565b610236610469366004611a92565b610d11565b61025c61047c366004611be7565b610d54565b61029061048f366004611a59565b610d6b565b6103db6104a2366004611cc6565b610df5565b61025c6104b5366004611be7565b610ecf565b6102f06104c8366004611be7565b6110a2565b6104e06104db366004611a59565b6110bd565b6040516102409190611d23565b6103db6104fb366004611c59565b61117a565b61025c61050e366004611a92565b611278565b606060006105216000610917565b6040516370a0823160e01b81526001600160a01b03878116600483015291909116906370a0823190602401602060405180830381865afa158015610569573d6000803e3d6000fd5b505050506040513d601f19601f8201168201806040525081019061058d9190611d36565b905061059c8585600084610d54565b95945050505050565b60006105b18383611295565b519392505050565b6040516370a0823160e01b81526001600160a01b0384811660048301526060916000918516906370a0823190602401602060405180830381865afa158015610605573d6000803e3d6000fd5b505050506040513d601f19601f820116820180604052508101906106299190611d36565b905061059c85858584610ecf565b805b949350505050565b606081156106395760006106548461136f565b905060006106628686610d6b565b60408051600380825260808201909252919250816020015b606081526020019060019003908161067a579050506040516001600160a01b038416602482015260006044820152909350819060640160408051601f19818403018152918152602080830180516001600160e01b031663095ea7b360e01b17905290516106e993929101611d65565b6040516020818303038152906040528360008151811061070b5761070b611d89565b60209081029190910101526040516001600160a01b038316602482015260448101859052819060640160408051601f19818403018152918152602080830180516001600160e01b031663095ea7b360e01b179052905161076d93929101611d65565b6040516020818303038152906040528360018151811061078f5761078f611d89565b60209081029190910101526040516001600160a01b0380881660248301526044820186905288166064820152829060840160408051601f19818403018152918152602080830180516001600160e01b0316631a4ca37b60e21b17905290516107f993929101611d65565b6040516020818303038152906040528360028151811061081b5761081b611d89565b60200260200101819052505050949350505050565b6000610639848484610ab3565b6060600061084d84600080610d11565b60408051600180825281830190925291925060609190816020015b606081526020019060019003908161086857905050925073357d51124f59836ded84c8a1730d72b749d8bc238183876040516024016108a993929190611d9f565b60408051601f19818403018152918152602080830180516001600160e01b0316633111e7b360e01b17905290516108e293929101611d65565b6040516020818303038152906040528360008151811061090457610904611d89565b6020026020010181905250505092915050565b600073357d51124f59836ded84c8a1730d72b749d8bc236001600160a01b03166399248ea76040518163ffffffff1660e01b8152600401602060405180830381865afa15801561096b573d6000803e3d6000fd5b505050506040513d601f19601f820116820180604052508101906104019190611de2565b60008054906101000a90046001600160a01b03166001600160a01b0316637af0e5576040518163ffffffff1660e01b8152600401602060405180830381865afa1580156109e0573d6000803e3d6000fd5b505050506040513d601f19601f82011682018060405250810190610a049190611de2565b6001600160a01b0316336001600160a01b031614610a3d5760405162461bcd60e51b8152600401610a3490611dff565b60405180910390fd5b6000805482919060ff60a01b1916600160a01b836001811115610a6257610a62611b8c565b02179055506000543390600160a01b900460ff166001811115610a8757610a87611b8c565b6040517f68e3b01155b193b02181f2c0ed491c934a74348d211ff023f8fc6ac5edf22aa090600090a350565b6000610abf8383610d6b565b6040516370a0823160e01b81526001600160a01b03868116600483015291909116906370a08231906024015b602060405180830381865afa158015610b08573d6000803e3d6000fd5b505050506040513d601f19601f820116820180604052508101906106399190611d36565b60008054906101000a90046001600160a01b03166001600160a01b0316637af0e5576040518163ffffffff1660e01b8152600401602060405180830381865afa158015610b7d573d6000803e3d6000fd5b505050506040513d601f19601f82011682018060405250810190610ba19190611de2565b6001600160a01b0316336001600160a01b031614610bd15760405162461bcd60e51b8152600401610a3490611dff565b6001600160a01b03821660009081526003602052604080822083905551339183917fac58e29a41d996caca756d050dce90806b277f0c939337653638329247e16f4c9190a35050565b60008054906101000a90046001600160a01b03166001600160a01b031663e7f43c686040518163ffffffff1660e01b8152600401602060405180830381865afa158015610c6b573d6000803e3d6000fd5b505050506040513d601f19601f82011682018060405250810190610c8f9190611de2565b6001600160a01b0316336001600160a01b031614610cef5760405162461bcd60e51b815260206004820152601a60248201527f63616c6c6572206973206e6f7420746865206f70657261746f720000000000006044820152606401610a34565b600080546001600160a01b0319166001600160a01b0392909216919091179055565b604051630cc7d40f60e11b81526001600160a01b038416600482015260009073357d51124f59836ded84c8a1730d72b749d8bc239063198fa81e90602401610aeb565b606061059c85610d646000610917565b86856113b7565b600080610d778361136f565b6040516335ea6a7560e01b81526001600160a01b0386811660048301529192506000918316906335ea6a759060240161018060405180830381865afa158015610dc4573d6000803e3d6000fd5b505050506040513d601f19601f82011682018060405250810190610de89190611f3d565b60e0015195945050505050565b60008054906101000a90046001600160a01b03166001600160a01b0316637af0e5576040518163ffffffff1660e01b8152600401602060405180830381865afa158015610e46573d6000803e3d6000fd5b505050506040513d601f19601f82011682018060405250810190610e6a9190611de2565b6001600160a01b0316336001600160a01b031614610e9a5760405162461bcd60e51b8152600401610a3490611dff565b6001819055604051339082907f19c60b0612798cc65bd298cd47e17d9fd07e74e0d3baa6c0019411bb334d9bda90600090a350565b60606000610ee8848685610ee3888a6105a5565b61167a565b90508015611099576000610efb8561136f565b60408051600380825260808201909252919250816020015b6060815260200190600190039081610f13579050506040516001600160a01b038316602482015260006044820152909350869060640160408051601f19818403018152918152602080830180516001600160e01b031663095ea7b360e01b1790529051610f8293929101611d65565b60405160208183030381529060405283600081518110610fa457610fa4611d89565b60209081029190910101526040516001600160a01b038216602482015260448101839052869060640160408051601f19818403018152918152602080830180516001600160e01b031663095ea7b360e01b179052905161100693929101611d65565b6040516020818303038152906040528360018151811061102857611028611d89565b60209081029190910101526040516001600160a01b038088166024830152604482018490528816606482015260006084820152819060a40160408051601f19818403018152918152602080830180516001600160e01b031663e8eda9df60e01b17905290516107f993929101611d65565b50949350505050565b6000806110b0868686610830565b9092111595945050505050565b60408051600180825281830190925260609160208083019080368337019050509050816001600160a01b031663b16a19de6040518163ffffffff1660e01b8152600401602060405180830381865afa15801561111d573d6000803e3d6000fd5b505050506040513d601f19601f820116820180604052508101906111419190611de2565b8160008151811061115457611154611d89565b60200260200101906001600160a01b031690816001600160a01b03168152505092915050565b60008054906101000a90046001600160a01b03166001600160a01b0316637af0e5576040518163ffffffff1660e01b8152600401602060405180830381865afa1580156111cb573d6000803e3d6000fd5b505050506040513d601f19601f820116820180604052508101906111ef9190611de2565b6001600160a01b0316336001600160a01b03161461121f5760405162461bcd60e51b8152600401610a3490611dff565b6001600160a01b03838116600090815260026020908152604080832093861683529290528181208390559051339183917f197807a6a2633dd9bde6550aca985cfc69e655e9130930314c0e9da01a75cc549190a3505050565b60606000611287858585610ab3565b905061059c85858584610641565b6112f2604051806101400160405280600081526020016000815260200160008152602001600081526020016000815260200160008152602001600081526020016000815260200160008152602001600064ffffffffff1681525090565b6112fb836116f2565b6040516335ea6a7560e01b81526001600160a01b03848116600483015291909116906335ea6a759060240161014060405180830381865afa158015611344573d6000803e3d6000fd5b505050506040513d601f19601f82011682018060405250810190611368919061202a565b9392505050565b600061137a82611747565b6001600160a01b0316630261bf8b6040518163ffffffff1660e01b8152600401602060405180830381865afa15801561096b573d6000803e3d6000fd5b6060811561063957600073a5e0829caced8ffdd4de3c43696c57f7d7a678ff63d06ca61f846113e688886117d0565b6040518363ffffffff1660e01b81526004016114039291906120a9565b600060405180830381865afa158015611420573d6000803e3d6000fd5b505050506040513d6000823e601f3d908101601f1916820160405261144891908101906120e6565b90506000816001835161145b9190612192565b8151811061146b5761146b611d89565b60200260200101511115611099576040805160038082526080820190925290816020015b606081526020019060019003908161148f5750506040805173a5e0829caced8ffdd4de3c43696c57f7d7a678ff602482015260006044808301919091528251808303909101815260649091018252602080820180516001600160e01b031663095ea7b360e01b179052915192945061150992889201611d65565b6040516020818303038152906040528260008151811061152b5761152b611d89565b6020908102919091018101919091526040805173a5e0829caced8ffdd4de3c43696c57f7d7a678ff60248201526044808201879052825180830390910181526064909101825280830180516001600160e01b031663095ea7b360e01b17905290516115999288929101611d65565b604051602081830303815290604052826001815181106115bb576115bb611d89565b602090810291909101015273a5e0829caced8ffdd4de3c43696c57f7d7a678ff806338ed17398560006115ee8a8a6117d0565b8b6000196040516024016116069594939291906121a9565b604051602081830303815290604052915060e01b6020820180516001600160e01b038381831617835250505050604051602001611644929190611d65565b6040516020818303038152906040528260028151811061166657611666611d89565b602002602001018190525050949350505050565b6000806001600054600160a01b900460ff16600181111561169d5761169d611b8c565b146116cd576001600160a01b038087166000908152600260209081526040808320938916835292905220546116d7565b6116d786846119ea565b90508084116116e657836116e8565b805b9695505050505050565b60006116fd82611747565b6040516321f8a72160e01b8152600160f81b60048201526001600160a01b0391909116906321f8a72190602401602060405180830381865afa15801561096b573d6000803e3d6000fd5b6000816001600160a01b031663365ccbbf6040518163ffffffff1660e01b8152600401600060405180830381865afa158015611787573d6000803e3d6000fd5b505050506040513d6000823e601f3d908101601f191682016040526117af91908101906121e5565b6000815181106117c1576117c1611d89565b60200260200101519050919050565b60606001600160a01b038216730d500b1d8e8ef31e21c99d1db9a6444d3adf12701415611898576040805160028082526060820183529091602083019080368337019050509050828160008151811061182b5761182b611d89565b60200260200101906001600160a01b031690816001600160a01b031681525050730d500b1d8e8ef31e21c99d1db9a6444d3adf12708160018151811061187357611873611d89565b60200260200101906001600160a01b031690816001600160a01b031681525050610401565b6001600160a01b038316730d500b1d8e8ef31e21c99d1db9a6444d3adf12701415611939576040805160028082526060820183529091602083019080368337019050509050730d500b1d8e8ef31e21c99d1db9a6444d3adf12708160008151811061190557611905611d89565b60200260200101906001600160a01b031690816001600160a01b031681525050818160018151811061187357611873611d89565b604080516003808252608082019092529060208201606080368337019050509050828160008151811061196e5761196e611d89565b60200260200101906001600160a01b031690816001600160a01b031681525050730d500b1d8e8ef31e21c99d1db9a6444d3adf1270816001815181106119b6576119b6611d89565b60200260200101906001600160a01b031690816001600160a01b031681525050818160028151811061115457611154611d89565b6001600160a01b038216600090815260036020526040812054818115611a2657612710611a178386612274565b611a219190612293565b61059c565b61271060015485611a379190612274565b61059c9190612293565b6001600160a01b0381168114611a5657600080fd5b50565b60008060408385031215611a6c57600080fd5b8235611a7781611a41565b91506020830135611a8781611a41565b809150509250929050565b600080600060608486031215611aa757600080fd5b8335611ab281611a41565b92506020840135611ac281611a41565b91506040840135611ad281611a41565b809150509250925092565b6000815180845260005b81811015611b0357602081850181015186830182015201611ae7565b81811115611b15576000602083870101525b50601f01601f19169290920160200192915050565b6000602080830181845280855180835260408601915060408160051b870101925083870160005b82811015611b7f57603f19888603018452611b6d858351611add565b94509285019290850190600101611b51565b5092979650505050505050565b634e487b7160e01b600052602160045260246000fd5b6020810160028310611bc457634e487b7160e01b600052602160045260246000fd5b91905290565b600060208284031215611bdc57600080fd5b813561136881611a41565b60008060008060808587031215611bfd57600080fd5b8435611c0881611a41565b93506020850135611c1881611a41565b92506040850135611c2881611a41565b9396929550929360600135925050565b600060208284031215611c4a57600080fd5b81356002811061136857600080fd5b600080600060608486031215611c6e57600080fd5b8335611c7981611a41565b92506020840135611c8981611a41565b929592945050506040919091013590565b60008060408385031215611cad57600080fd5b8235611cb881611a41565b946020939093013593505050565b600060208284031215611cd857600080fd5b5035919050565b600081518084526020808501945080840160005b83811015611d185781516001600160a01b031687529582019590820190600101611cf3565b509495945050505050565b6020815260006113686020830184611cdf565b600060208284031215611d4857600080fd5b5051919050565b634e487b7160e01b600052604160045260246000fd5b6001600160a01b038316815260406020820181905260009061063990830184611add565b634e487b7160e01b600052603260045260246000fd5b606081526000611db26060830186611cdf565b6020830194909452506001600160a01b0391909116604090910152919050565b8051611ddd81611a41565b919050565b600060208284031215611df457600080fd5b815161136881611a41565b6020808252601e908201527f63616c6c6572206973206e6f7420746865207269736b4f70657261746f720000604082015260600190565b604051610180810167ffffffffffffffff81118282101715611e5a57611e5a611d4f565b60405290565b604051610140810167ffffffffffffffff81118282101715611e5a57611e5a611d4f565b604051601f8201601f1916810167ffffffffffffffff81118282101715611ead57611ead611d4f565b604052919050565b600060208284031215611ec757600080fd5b6040516020810181811067ffffffffffffffff82111715611eea57611eea611d4f565b6040529151825250919050565b80516fffffffffffffffffffffffffffffffff81168114611ddd57600080fd5b805164ffffffffff81168114611ddd57600080fd5b805160ff81168114611ddd57600080fd5b60006101808284031215611f5057600080fd5b611f58611e36565b611f628484611eb5565b8152611f7060208401611ef7565b6020820152611f8160408401611ef7565b6040820152611f9260608401611ef7565b6060820152611fa360808401611ef7565b6080820152611fb460a08401611ef7565b60a0820152611fc560c08401611f17565b60c0820152611fd660e08401611dd2565b60e0820152610100611fe9818501611dd2565b90820152610120611ffb848201611dd2565b9082015261014061200d848201611dd2565b9082015261016061201f848201611f2c565b908201529392505050565b6000610140828403121561203d57600080fd5b612045611e60565b825181526020830151602082015260408301516040820152606083015160608201526080830151608082015260a083015160a082015260c083015160c082015260e083015160e082015261010080840151818301525061012061201f818501611f17565b8281526040602082015260006106396040830184611cdf565b600067ffffffffffffffff8211156120dc576120dc611d4f565b5060051b60200190565b600060208083850312156120f957600080fd5b825167ffffffffffffffff81111561211057600080fd5b8301601f8101851361212157600080fd5b805161213461212f826120c2565b611e84565b81815260059190911b8201830190838101908783111561215357600080fd5b928401925b8284101561217157835182529284019290840190612158565b979650505050505050565b634e487b7160e01b600052601160045260246000fd5b6000828210156121a4576121a461217c565b500390565b85815284602082015260a0604082015260006121c860a0830186611cdf565b6001600160a01b0394909416606083015250608001529392505050565b600060208083850312156121f857600080fd5b825167ffffffffffffffff81111561220f57600080fd5b8301601f8101851361222057600080fd5b805161222e61212f826120c2565b81815260059190911b8201830190838101908783111561224d57600080fd5b928401925b8284101561217157835161226581611a41565b82529284019290840190612252565b600081600019048311821515161561228e5761228e61217c565b500290565b6000826122b057634e487b7160e01b600052601260045260246000fd5b50049056fea164736f6c634300080b000a"
}