{
  "address": "0x2600a57481C655dd6264f6a91A550504B800B261",
  "abi": [
    {
      "inputs": [
        {
          "internalType": "address",
          "name": "_registry",
          "type": "address"
        }
      ],
      "stateMutability": "nonpayable",
      "type": "constructor"
    },
    {
      "anonymous": false,
      "inputs": [
        {
          "indexed": true,
          "internalType": "uint256",
          "name": "maxDepositAmount",
          "type": "uint256"
        },
        {
          "indexed": true,
          "internalType": "address",
          "name": "caller",
          "type": "address"
        }
      ],
      "name": "LogMaxDepositAmount",
      "type": "event"
    },
    {
      "anonymous": false,
      "inputs": [
        {
          "indexed": true,
          "internalType": "uint256",
          "name": "maxDepositPoolPct",
          "type": "uint256"
        },
        {
          "indexed": true,
          "internalType": "address",
          "name": "caller",
          "type": "address"
        }
      ],
      "name": "LogMaxDepositPoolPct",
      "type": "event"
    },
    {
      "anonymous": false,
      "inputs": [
        {
          "indexed": true,
          "internalType": "enum MaxExposure",
          "name": "maxDepositProtocolMode",
          "type": "uint8"
        },
        {
          "indexed": true,
          "internalType": "address",
          "name": "caller",
          "type": "address"
        }
      ],
      "name": "LogMaxDepositProtocolMode",
      "type": "event"
    },
    {
      "anonymous": false,
      "inputs": [
        {
          "indexed": true,
          "internalType": "uint256",
          "name": "maxDepositProtocolPct",
          "type": "uint256"
        },
        {
          "indexed": true,
          "internalType": "address",
          "name": "caller",
          "type": "address"
        }
      ],
      "name": "LogMaxDepositProtocolPct",
      "type": "event"
    },
    {
      "inputs": [],
      "name": "BIFI",
      "outputs": [
        {
          "internalType": "address",
          "name": "",
          "type": "address"
        }
      ],
      "stateMutability": "view",
      "type": "function"
    },
    {
      "inputs": [],
      "name": "BIFI_DEPOSIT_POOL",
      "outputs": [
        {
          "internalType": "address",
          "name": "",
          "type": "address"
        }
      ],
      "stateMutability": "view",
      "type": "function"
    },
    {
      "inputs": [],
      "name": "BIFI_STAKE_VAULT",
      "outputs": [
        {
          "internalType": "address",
          "name": "",
          "type": "address"
        }
      ],
      "stateMutability": "view",
      "type": "function"
    },
    {
      "inputs": [],
      "name": "DAI_DEPOSIT_POOL",
      "outputs": [
        {
          "internalType": "address",
          "name": "",
          "type": "address"
        }
      ],
      "stateMutability": "view",
      "type": "function"
    },
    {
      "inputs": [],
      "name": "MATIC",
      "outputs": [
        {
          "internalType": "address",
          "name": "",
          "type": "address"
        }
      ],
      "stateMutability": "view",
      "type": "function"
    },
    {
      "inputs": [],
      "name": "MOO_POLYGON_BIFI_STAKE_VAULT",
      "outputs": [
        {
          "internalType": "address",
          "name": "",
          "type": "address"
        }
      ],
      "stateMutability": "view",
      "type": "function"
    },
    {
      "inputs": [],
      "name": "USDC_DEPOSIT_POOL",
      "outputs": [
        {
          "internalType": "address",
          "name": "",
          "type": "address"
        }
      ],
      "stateMutability": "view",
      "type": "function"
    },
    {
      "inputs": [],
      "name": "WATCH",
      "outputs": [
        {
          "internalType": "address",
          "name": "",
          "type": "address"
        }
      ],
      "stateMutability": "view",
      "type": "function"
    },
    {
      "inputs": [],
      "name": "WBTC_DEPOSIT_POOL",
      "outputs": [
        {
          "internalType": "address",
          "name": "",
          "type": "address"
        }
      ],
      "stateMutability": "view",
      "type": "function"
    },
    {
      "inputs": [],
      "name": "WETH_DEPOSIT_POOL",
      "outputs": [
        {
          "internalType": "address",
          "name": "",
          "type": "address"
        }
      ],
      "stateMutability": "view",
      "type": "function"
    },
    {
      "inputs": [],
      "name": "apeswapRouter",
      "outputs": [
        {
          "internalType": "address",
          "name": "",
          "type": "address"
        }
      ],
      "stateMutability": "view",
      "type": "function"
    },
    {
      "inputs": [
        {
          "internalType": "address",
          "name": "",
          "type": "address"
        },
        {
          "internalType": "address",
          "name": "_liquidityPool",
          "type": "address"
        },
        {
          "internalType": "uint256",
          "name": "_depositAmount",
          "type": "uint256"
        }
      ],
      "name": "calculateAmountInLPToken",
      "outputs": [
        {
          "internalType": "uint256",
          "name": "",
          "type": "uint256"
        }
      ],
      "stateMutability": "view",
      "type": "function"
    },
    {
      "inputs": [
        {
          "internalType": "address payable",
          "name": "_vault",
          "type": "address"
        },
        {
          "internalType": "address",
          "name": "_underlyingToken",
          "type": "address"
        },
        {
          "internalType": "address",
          "name": "_liquidityPool",
          "type": "address"
        },
        {
          "internalType": "uint256",
          "name": "_redeemAmount",
          "type": "uint256"
        }
      ],
      "name": "calculateRedeemableLPTokenAmount",
      "outputs": [
        {
          "internalType": "uint256",
          "name": "_amount",
          "type": "uint256"
        }
      ],
      "stateMutability": "view",
      "type": "function"
    },
    {
      "inputs": [
        {
          "internalType": "address payable",
          "name": "_vault",
          "type": "address"
        },
        {
          "internalType": "address",
          "name": "_underlyingToken",
          "type": "address"
        },
        {
          "internalType": "address",
          "name": "_liquidityPool",
          "type": "address"
        },
        {
          "internalType": "uint256",
          "name": "_redeemAmount",
          "type": "uint256"
        }
      ],
      "name": "calculateRedeemableLPTokenAmountStake",
      "outputs": [
        {
          "internalType": "uint256",
          "name": "_amount",
          "type": "uint256"
        }
      ],
      "stateMutability": "view",
      "type": "function"
    },
    {
      "inputs": [
        {
          "internalType": "address",
          "name": "_address",
          "type": "address"
        }
      ],
      "name": "canStake",
      "outputs": [
        {
          "internalType": "bool",
          "name": "",
          "type": "bool"
        }
      ],
      "stateMutability": "pure",
      "type": "function"
    },
    {
      "inputs": [
        {
          "internalType": "address payable",
          "name": "",
          "type": "address"
        },
        {
          "internalType": "address",
          "name": "",
          "type": "address"
        }
      ],
      "name": "getAddLiquidityCodes",
      "outputs": [
        {
          "internalType": "bytes[]",
          "name": "",
          "type": "bytes[]"
        }
      ],
      "stateMutability": "view",
      "type": "function"
    },
    {
      "inputs": [
        {
          "internalType": "address payable",
          "name": "_vault",
          "type": "address"
        },
        {
          "internalType": "address",
          "name": "_underlyingToken",
          "type": "address"
        },
        {
          "internalType": "address",
          "name": "_liquidityPool",
          "type": "address"
        }
      ],
      "name": "getAllAmountInToken",
      "outputs": [
        {
          "internalType": "uint256",
          "name": "",
          "type": "uint256"
        }
      ],
      "stateMutability": "view",
      "type": "function"
    },
    {
      "inputs": [
        {
          "internalType": "address payable",
          "name": "_vault",
          "type": "address"
        },
        {
          "internalType": "address",
          "name": "",
          "type": "address"
        },
        {
          "internalType": "address",
          "name": "_liquidityPool",
          "type": "address"
        }
      ],
      "name": "getAllAmountInTokenStake",
      "outputs": [
        {
          "internalType": "uint256",
          "name": "",
          "type": "uint256"
        }
      ],
      "stateMutability": "view",
      "type": "function"
    },
    {
      "inputs": [
        {
          "internalType": "address payable",
          "name": "",
          "type": "address"
        },
        {
          "internalType": "address",
          "name": "_liquidityPool",
          "type": "address"
        }
      ],
      "name": "getClaimRewardTokenCode",
      "outputs": [
        {
          "internalType": "bytes[]",
          "name": "_codes",
          "type": "bytes[]"
        }
      ],
      "stateMutability": "view",
      "type": "function"
    },
    {
      "inputs": [
        {
          "internalType": "address payable",
          "name": "_vault",
          "type": "address"
        },
        {
          "internalType": "address",
          "name": "_underlyingToken",
          "type": "address"
        },
        {
          "internalType": "address",
          "name": "_liquidityPool",
          "type": "address"
        }
      ],
      "name": "getDepositAllCodes",
      "outputs": [
        {
          "internalType": "bytes[]",
          "name": "_codes",
          "type": "bytes[]"
        }
      ],
      "stateMutability": "view",
      "type": "function"
    },
    {
      "inputs": [
        {
          "internalType": "address payable",
          "name": "",
          "type": "address"
        },
        {
          "internalType": "address",
          "name": "_underlyingToken",
          "type": "address"
        },
        {
          "internalType": "address",
          "name": "_liquidityPool",
          "type": "address"
        },
        {
          "internalType": "uint256",
          "name": "_amount",
          "type": "uint256"
        }
      ],
      "name": "getDepositSomeCodes",
      "outputs": [
        {
          "internalType": "bytes[]",
          "name": "_codes",
          "type": "bytes[]"
        }
      ],
      "stateMutability": "view",
      "type": "function"
    },
    {
      "inputs": [
        {
          "internalType": "address payable",
          "name": "_vault",
          "type": "address"
        },
        {
          "internalType": "address",
          "name": "_underlyingToken",
          "type": "address"
        },
        {
          "internalType": "address",
          "name": "_liquidityPool",
          "type": "address"
        }
      ],
      "name": "getHarvestAllCodes",
      "outputs": [
        {
          "internalType": "bytes[]",
          "name": "_codes",
          "type": "bytes[]"
        }
      ],
      "stateMutability": "view",
      "type": "function"
    },
    {
      "inputs": [
        {
          "internalType": "address payable",
          "name": "_vault",
          "type": "address"
        },
        {
          "internalType": "address",
          "name": "_underlyingToken",
          "type": "address"
        },
        {
          "internalType": "address",
          "name": "_liquidityPool",
          "type": "address"
        },
        {
          "internalType": "uint256",
          "name": "_rewardTokenAmount",
          "type": "uint256"
        }
      ],
      "name": "getHarvestSomeCodes",
      "outputs": [
        {
          "internalType": "bytes[]",
          "name": "_codes",
          "type": "bytes[]"
        }
      ],
      "stateMutability": "view",
      "type": "function"
    },
    {
      "inputs": [
        {
          "internalType": "address",
          "name": "",
          "type": "address"
        },
        {
          "internalType": "address",
          "name": "_liquidityPool",
          "type": "address"
        }
      ],
      "name": "getLiquidityPoolToken",
      "outputs": [
        {
          "internalType": "address",
          "name": "",
          "type": "address"
        }
      ],
      "stateMutability": "pure",
      "type": "function"
    },
    {
      "inputs": [
        {
          "internalType": "address payable",
          "name": "_vault",
          "type": "address"
        },
        {
          "internalType": "address",
          "name": "",
          "type": "address"
        },
        {
          "internalType": "address",
          "name": "_liquidityPool",
          "type": "address"
        }
      ],
      "name": "getLiquidityPoolTokenBalance",
      "outputs": [
        {
          "internalType": "uint256",
          "name": "",
          "type": "uint256"
        }
      ],
      "stateMutability": "view",
      "type": "function"
    },
    {
      "inputs": [
        {
          "internalType": "address payable",
          "name": "_vault",
          "type": "address"
        },
        {
          "internalType": "address",
          "name": "_liquidityPool",
          "type": "address"
        }
      ],
      "name": "getLiquidityPoolTokenBalanceStake",
      "outputs": [
        {
          "internalType": "uint256",
          "name": "",
          "type": "uint256"
        }
      ],
      "stateMutability": "view",
      "type": "function"
    },
    {
      "inputs": [
        {
          "internalType": "address",
          "name": "_liquidityPool",
          "type": "address"
        },
        {
          "internalType": "address",
          "name": "",
          "type": "address"
        }
      ],
      "name": "getPoolValue",
      "outputs": [
        {
          "internalType": "uint256",
          "name": "",
          "type": "uint256"
        }
      ],
      "stateMutability": "view",
      "type": "function"
    },
    {
      "inputs": [
        {
          "internalType": "address",
          "name": "_liquidityPool",
          "type": "address"
        }
      ],
      "name": "getRewardToken",
      "outputs": [
        {
          "internalType": "address",
          "name": "",
          "type": "address"
        }
      ],
      "stateMutability": "view",
      "type": "function"
    },
    {
      "inputs": [
        {
          "internalType": "address",
          "name": "",
          "type": "address"
        },
        {
          "internalType": "address",
          "name": "_liquidityPool",
          "type": "address"
        },
        {
          "internalType": "uint256",
          "name": "_liquidityPoolTokenAmount",
          "type": "uint256"
        }
      ],
      "name": "getSomeAmountInToken",
      "outputs": [
        {
          "internalType": "uint256",
          "name": "",
          "type": "uint256"
        }
      ],
      "stateMutability": "view",
      "type": "function"
    },
    {
      "inputs": [
        {
          "internalType": "address payable",
          "name": "_vault",
          "type": "address"
        },
        {
          "internalType": "address",
          "name": "_underlyingToken",
          "type": "address"
        },
        {
          "internalType": "address",
          "name": "_liquidityPool",
          "type": "address"
        }
      ],
      "name": "getStakeAllCodes",
      "outputs": [
        {
          "internalType": "bytes[]",
          "name": "_codes",
          "type": "bytes[]"
        }
      ],
      "stateMutability": "view",
      "type": "function"
    },
    {
      "inputs": [
        {
          "internalType": "address",
          "name": "_liquidityPool",
          "type": "address"
        },
        {
          "internalType": "uint256",
          "name": "_shares",
          "type": "uint256"
        }
      ],
      "name": "getStakeSomeCodes",
      "outputs": [
        {
          "internalType": "bytes[]",
          "name": "_codes",
          "type": "bytes[]"
        }
      ],
      "stateMutability": "view",
      "type": "function"
    },
    {
      "inputs": [
        {
          "internalType": "address payable",
          "name": "_vault",
          "type": "address"
        },
        {
          "internalType": "address",
          "name": "_liquidityPool",
          "type": "address"
        },
        {
          "internalType": "address",
          "name": "",
          "type": "address"
        }
      ],
      "name": "getUnclaimedRewardTokenAmount",
      "outputs": [
        {
          "internalType": "uint256",
          "name": "",
          "type": "uint256"
        }
      ],
      "stateMutability": "view",
      "type": "function"
    },
    {
      "inputs": [
        {
          "internalType": "address",
          "name": "_liquidityPool",
          "type": "address"
        },
        {
          "internalType": "address",
          "name": "",
          "type": "address"
        }
      ],
      "name": "getUnderlyingTokens",
      "outputs": [
        {
          "internalType": "address[]",
          "name": "_underlyingTokens",
          "type": "address[]"
        }
      ],
      "stateMutability": "view",
      "type": "function"
    },
    {
      "inputs": [
        {
          "internalType": "address payable",
          "name": "_vault",
          "type": "address"
        },
        {
          "internalType": "address",
          "name": "_liquidityPool",
          "type": "address"
        }
      ],
      "name": "getUnstakeAllCodes",
      "outputs": [
        {
          "internalType": "bytes[]",
          "name": "_codes",
          "type": "bytes[]"
        }
      ],
      "stateMutability": "view",
      "type": "function"
    },
    {
      "inputs": [
        {
          "internalType": "address payable",
          "name": "_vault",
          "type": "address"
        },
        {
          "internalType": "address",
          "name": "_underlyingToken",
          "type": "address"
        },
        {
          "internalType": "address",
          "name": "_liquidityPool",
          "type": "address"
        }
      ],
      "name": "getUnstakeAndWithdrawAllCodes",
      "outputs": [
        {
          "internalType": "bytes[]",
          "name": "_codes",
          "type": "bytes[]"
        }
      ],
      "stateMutability": "view",
      "type": "function"
    },
    {
      "inputs": [
        {
          "internalType": "address payable",
          "name": "_vault",
          "type": "address"
        },
        {
          "internalType": "address",
          "name": "_underlyingToken",
          "type": "address"
        },
        {
          "internalType": "address",
          "name": "_liquidityPool",
          "type": "address"
        },
        {
          "internalType": "uint256",
          "name": "_redeemAmount",
          "type": "uint256"
        }
      ],
      "name": "getUnstakeAndWithdrawSomeCodes",
      "outputs": [
        {
          "internalType": "bytes[]",
          "name": "_codes",
          "type": "bytes[]"
        }
      ],
      "stateMutability": "view",
      "type": "function"
    },
    {
      "inputs": [
        {
          "internalType": "address",
          "name": "_liquidityPool",
          "type": "address"
        },
        {
          "internalType": "uint256",
          "name": "_shares",
          "type": "uint256"
        }
      ],
      "name": "getUnstakeSomeCodes",
      "outputs": [
        {
          "internalType": "bytes[]",
          "name": "_codes",
          "type": "bytes[]"
        }
      ],
      "stateMutability": "view",
      "type": "function"
    },
    {
      "inputs": [
        {
          "internalType": "address payable",
          "name": "_vault",
          "type": "address"
        },
        {
          "internalType": "address",
          "name": "_underlyingToken",
          "type": "address"
        },
        {
          "internalType": "address",
          "name": "_liquidityPool",
          "type": "address"
        }
      ],
      "name": "getWithdrawAllCodes",
      "outputs": [
        {
          "internalType": "bytes[]",
          "name": "_codes",
          "type": "bytes[]"
        }
      ],
      "stateMutability": "view",
      "type": "function"
    },
    {
      "inputs": [
        {
          "internalType": "address payable",
          "name": "",
          "type": "address"
        },
        {
          "internalType": "address",
          "name": "_underlyingToken",
          "type": "address"
        },
        {
          "internalType": "address",
          "name": "_liquidityPool",
          "type": "address"
        },
        {
          "internalType": "uint256",
          "name": "_shares",
          "type": "uint256"
        }
      ],
      "name": "getWithdrawSomeCodes",
      "outputs": [
        {
          "internalType": "bytes[]",
          "name": "_codes",
          "type": "bytes[]"
        }
      ],
      "stateMutability": "pure",
      "type": "function"
    },
    {
      "inputs": [
        {
          "internalType": "address payable",
          "name": "_vault",
          "type": "address"
        },
        {
          "internalType": "address",
          "name": "_underlyingToken",
          "type": "address"
        },
        {
          "internalType": "address",
          "name": "_liquidityPool",
          "type": "address"
        },
        {
          "internalType": "uint256",
          "name": "_redeemAmount",
          "type": "uint256"
        }
      ],
      "name": "isRedeemableAmountSufficient",
      "outputs": [
        {
          "internalType": "bool",
          "name": "",
          "type": "bool"
        }
      ],
      "stateMutability": "view",
      "type": "function"
    },
    {
      "inputs": [
        {
          "internalType": "address payable",
          "name": "_vault",
          "type": "address"
        },
        {
          "internalType": "address",
          "name": "_underlyingToken",
          "type": "address"
        },
        {
          "internalType": "address",
          "name": "_liquidityPool",
          "type": "address"
        },
        {
          "internalType": "uint256",
          "name": "_redeemAmount",
          "type": "uint256"
        }
      ],
      "name": "isRedeemableAmountSufficientStake",
      "outputs": [
        {
          "internalType": "bool",
          "name": "",
          "type": "bool"
        }
      ],
      "stateMutability": "view",
      "type": "function"
    },
    {
      "inputs": [
        {
          "internalType": "address",
          "name": "",
          "type": "address"
        }
      ],
      "name": "liquidityPoolToStakingVault",
      "outputs": [
        {
          "internalType": "address",
          "name": "",
          "type": "address"
        }
      ],
      "stateMutability": "view",
      "type": "function"
    },
    {
      "inputs": [
        {
          "internalType": "address",
          "name": "",
          "type": "address"
        },
        {
          "internalType": "address",
          "name": "",
          "type": "address"
        }
      ],
      "name": "maxDepositAmount",
      "outputs": [
        {
          "internalType": "uint256",
          "name": "",
          "type": "uint256"
        }
      ],
      "stateMutability": "view",
      "type": "function"
    },
    {
      "inputs": [
        {
          "internalType": "address",
          "name": "",
          "type": "address"
        }
      ],
      "name": "maxDepositPoolPct",
      "outputs": [
        {
          "internalType": "uint256",
          "name": "",
          "type": "uint256"
        }
      ],
      "stateMutability": "view",
      "type": "function"
    },
    {
      "inputs": [],
      "name": "maxDepositProtocolMode",
      "outputs": [
        {
          "internalType": "enum MaxExposure",
          "name": "",
          "type": "uint8"
        }
      ],
      "stateMutability": "view",
      "type": "function"
    },
    {
      "inputs": [],
      "name": "maxDepositProtocolPct",
      "outputs": [
        {
          "internalType": "uint256",
          "name": "",
          "type": "uint256"
        }
      ],
      "stateMutability": "view",
      "type": "function"
    },
    {
      "inputs": [],
      "name": "registryContract",
      "outputs": [
        {
          "internalType": "contract IAdapterRegistryBase",
          "name": "",
          "type": "address"
        }
      ],
      "stateMutability": "view",
      "type": "function"
    },
    {
      "inputs": [
        {
          "internalType": "address",
          "name": "_liquidityPool",
          "type": "address"
        },
        {
          "internalType": "address",
          "name": "_underlyingToken",
          "type": "address"
        },
        {
          "internalType": "uint256",
          "name": "_maxDepositAmount",
          "type": "uint256"
        }
      ],
      "name": "setMaxDepositAmount",
      "outputs": [],
      "stateMutability": "nonpayable",
      "type": "function"
    },
    {
      "inputs": [
        {
          "internalType": "address",
          "name": "_liquidityPool",
          "type": "address"
        },
        {
          "internalType": "uint256",
          "name": "_maxDepositPoolPct",
          "type": "uint256"
        }
      ],
      "name": "setMaxDepositPoolPct",
      "outputs": [],
      "stateMutability": "nonpayable",
      "type": "function"
    },
    {
      "inputs": [
        {
          "internalType": "enum MaxExposure",
          "name": "_mode",
          "type": "uint8"
        }
      ],
      "name": "setMaxDepositProtocolMode",
      "outputs": [],
      "stateMutability": "nonpayable",
      "type": "function"
    },
    {
      "inputs": [
        {
          "internalType": "uint256",
          "name": "_maxDepositProtocolPct",
          "type": "uint256"
        }
      ],
      "name": "setMaxDepositProtocolPct",
      "outputs": [],
      "stateMutability": "nonpayable",
      "type": "function"
    },
    {
      "inputs": [
        {
          "internalType": "address",
          "name": "_registry",
          "type": "address"
        }
      ],
      "name": "setRegistry",
      "outputs": [],
      "stateMutability": "nonpayable",
      "type": "function"
    },
    {
      "inputs": [
        {
          "internalType": "address",
          "name": "",
          "type": "address"
        }
      ],
      "name": "stakingVaultToRewardToken",
      "outputs": [
        {
          "internalType": "address",
          "name": "",
          "type": "address"
        }
      ],
      "stateMutability": "view",
      "type": "function"
    }
  ],
  "transactionHash": "0x66d3a668facbdaeffde0d99c5807de1cadeb41089db126f27731e98adda99faf",
  "args": [
    "0x32bD1a6FdaeC327B57cdB2CFDe0855AfB3255d7C"
  ],
  "bytecode": "0x60806040523480156200001157600080fd5b5060405162002a9738038062002a97833981016040819052620000349162000173565b600080546127106001556001600160a01b03929092166001600160a81b031990921691909117600160a01b1781557f8bddf24ded73b7c9dba4d38c3f1b5be079befb55bf9fa3128f90c4899e7205ce80546001600160a01b031990811673deb0a777ba6f59c78c654b8c92f80238c8002dd2179091557f3c8c345f0018462db38a9c11650917511d105567eaa0e87e44b3875d7647dd18805482167371a4449dd18177a1a19fef671558964f10af4be890811790915560056020527f51ae4f7ea34cb0b6456090b07323f0e62c0b854f43c247a19185cadd41511d2580548316730d500b1d8e8ef31e21c99d1db9a6444d3adf12701790559091527fd0246301541db8978c3f99466b558b96ebb06f5b112a6c440f0ace4b3736b86580549091167309211dc67f9fe98fb7bbb91be0ef05f4a12fa2b2179055620001a5565b6000602082840312156200018657600080fd5b81516001600160a01b03811681146200019e57600080fd5b9392505050565b6128e280620001b56000396000f3fe608060405234801561001057600080fd5b50600436106103275760003560e01c80637df50ed8116101b8578063b3fe7f5a11610104578063ecdd76f3116100a2578063ef856be91161007c578063ef856be9146107c9578063f1aacbb7146107e9578063f49307ca146107fc578063fd1365ea1461080f57600080fd5b8063ecdd76f314610780578063ecebc29c1461079b578063ee665bed146107b657600080fd5b8063da699f96116100de578063da699f961461072c578063df9357221461073f578063e085edc514610752578063e49d5ecc1461076d57600080fd5b8063b3fe7f5a146106f3578063d463fcf614610706578063d74baaf81461071957600080fd5b80639c115fd111610171578063a68da4aa1161014b578063a68da4aa14610697578063a91ee0dc146106b2578063a9842ff4146106c5578063afd908d9146106e057600080fd5b80639c115fd11461064e578063a2e7f8c414610661578063a61d81081461067c57600080fd5b80637df50ed8146105d15780638476fdec146105e757806385541e44146105fa57806390e06fc21461060d57806390e6160514610628578063919b69d71461063b57600080fd5b80634ad36e021161027757806364dd5f80116102305780637213c07c1161020a5780637213c07c1461056d57806374df3b2f1461059657806377078872146105a95780637c47b3f4146105bc57600080fd5b806364dd5f801461052c57806367ddfad91461053f5780636d267d7c1461055a57600080fd5b80634ad36e02146104a55780634d9e541a146104b85780634f83b52d146104d35780635adca02e146104f35780635e6502e014610506578063609257791461051957600080fd5b80632627a099116102e45780632af06b96116102be5780632af06b961461043b5780632de778381461045c57806336d8bf931461046f578063489b52951461049257600080fd5b80632627a0991461040257806328c1f99b14610415578063292ccf021461042857600080fd5b8063027a304d1461032c5780630c9d8d5c1461036a57806315b550d61461038a578063179af4e5146103bd578063191c194b146103d057806325e45978146103d9575b600080fd5b61035761033a3660046122b7565b600360209081526000928352604080842090915290825290205481565b6040519081526020015b60405180910390f35b61037d6103783660046122f0565b610822565b6040516103619190612388565b6103a5730d500b1d8e8ef31e21c99d1db9a6444d3adf127081565b6040516001600160a01b039091168152602001610361565b61037d6103cb3660046122f0565b6108b2565b61035760015481565b6103a56103e73660046123ea565b6004602052600090815260409020546001600160a01b031681565b6103576104103660046122f0565b6108ce565b6000546103a5906001600160a01b031681565b61037d61043636600461240e565b610a56565b60005461044f90600160a01b900460ff1681565b6040516103619190612475565b61035761046a3660046122b7565b610b1a565b61048261047d3660046123ea565b610b87565b6040519015158152602001610361565b61037d6104a03660046122f0565b610bbe565b6103576104b336600461240e565b610c3c565b6103a57309211dc67f9fe98fb7bbb91be0ef05f4a12fa2b281565b6103576104e13660046123ea565b60026020526000908152604090205481565b61035761050136600461240e565b610c86565b61037d6105143660046122b7565b610d56565b61037d61052736600461240e565b610d70565b61035761053a3660046122f0565b610e0d565b6103a573c0788a3ad43d79aa53b09c2eacc313a787d1d60781565b61037d6105683660046122b7565b610e1f565b6103a561057b3660046123ea565b6005602052600090815260409020546001600160a01b031681565b61037d6105a43660046122f0565b610ed8565b6103a56105b73660046123ea565b610ef3565b6105cf6105ca36600461249d565b610f20565b005b61037d6105df3660046122b7565b606092915050565b6104826105f536600461240e565b611044565b6103576106083660046124be565b61105f565b6103a573d3395577febc6adab25490a69955ebc47040766c81565b6103576106363660046122f0565b611144565b6105cf6106493660046124ff565b6111b3565b61037d61065c3660046124ff565b6112a1565b6103a57377276a7c9ff3a6cbd334524d6f1f6219d039ac0e81565b6103a5739b36eceac46b70acfb7c2d6f3fd51aea87c3101881565b6103a573deb0a777ba6f59c78c654b8c92f80238c8002dd281565b6105cf6106c03660046123ea565b611482565b6103a573e71f3c11d4535a7f8c5fb03fda57899b2c9c721f81565b6103576106ee3660046122b7565b611579565b6103576107013660046122f0565b6115c9565b61037d61071436600461240e565b611615565b6103a56107273660046122b7565b919050565b6105cf61073a36600461252b565b61162b565b61037d61074d36600461240e565b611705565b6103a57371a4449dd18177a1a19fef671558964f10af4be881565b61048261077b36600461240e565b611970565b6103a573fecf784f48125ccb7d8855cdda7c5ed6b5024cb381565b6103a573fbdd194376de19a88118e84e279b977f165d01b881565b6103576107c43660046124be565b61197e565b6107dc6107d73660046122b7565b611a73565b6040516103619190612588565b6105cf6107f73660046124be565b611b30565b61037d61080a3660046122f0565b611c2e565b61037d61081d3660046124ff565b611c4b565b6060600061082f83610ef3565b6040516370a0823160e01b81526001600160a01b03878116600483015291909116906370a0823190602401602060405180830381865afa158015610877573d6000803e3d6000fd5b505050506040513d601f19601f8201168201806040525081019061089b919061259b565b90506108a985858584611615565b95945050505050565b606060006108c08584611579565b90506108a985858584610a56565b6001600160a01b0380821660009081526004602081905260408083205490516370a0823160e01b815292931691839183916370a0823191610920918a91016001600160a01b0391909116815260200190565b602060405180830381865afa15801561093d573d6000803e3d6000fd5b505050506040513d601f19601f82011682018060405250810190610961919061259b565b905080156108a957836001600160a01b031663313ce5676040518163ffffffff1660e01b8152600401602060405180830381865afa1580156109a7573d6000803e3d6000fd5b505050506040513d601f19601f820116820180604052508101906109cb919061259b565b6109d690600a6126ae565b846001600160a01b03166377c7b8fc6040518163ffffffff1660e01b8152600401602060405180830381865afa158015610a14573d6000803e3d6000fd5b505050506040513d601f19601f82011682018060405250810190610a38919061259b565b610a4290836126ba565b610a4c91906126d9565b9695505050505050565b60608115610b12576040805160028082526060820190925290816020015b6060815260200190600190039081610a74579050509050610a958383611c4b565b600081518110610aa757610aa7612711565b602002602001015181600081518110610ac257610ac2612711565b6020026020010181905250610ad985858585610d70565b600081518110610aeb57610aeb612711565b602002602001015181600181518110610b0657610b06612711565b60200260200101819052505b949350505050565b6000826001600160a01b031663b69ef8a86040518163ffffffff1660e01b8152600401602060405180830381865afa158015610b5a573d6000803e3d6000fd5b505050506040513d601f19601f82011682018060405250810190610b7e919061259b565b90505b92915050565b60006001600160a01b03821673fbdd194376de19a88118e84e279b977f165d01b81415610bb657506001919050565b506000919050565b6040516370a0823160e01b81526001600160a01b0384811660048301526060916000918516906370a0823190602401602060405180830381865afa158015610c0a573d6000803e3d6000fd5b505050506040513d601f19601f82011682018060405250810190610c2e919061259b565b90506108a985858584611705565b600080610c4a868686611144565b90506000610c59878787610e0d565b905080610c6685846126ba565b610c7091906126d9565b610c7b906001612727565b979650505050505050565b6001600160a01b0380831660009081526004602081905260408083205490516370a0823160e01b815292931691839183916370a0823191610cd8918b91016001600160a01b0391909116815260200190565b602060405180830381865afa158015610cf5573d6000803e3d6000fd5b505050506040513d601f19601f82011682018060405250810190610d19919061259b565b90506000610d288888886108ce565b905080610d3586846126ba565b610d3f91906126d9565b610d4a906001612727565b98975050505050505050565b60606000610d648484611579565b9050610b128382611c4b565b60608115610b125760408051600180825281830190925290816020015b6060815260200190600190039081610d8d579050509050826040516024810184905260440160408051601f19818403018152918152602080830180516001600160e01b0316632e1a7d4d60e01b1790529051610deb9392910161273f565b60405160208183030381529060405281600081518110610b0657610b06612711565b6000610b1283836107c4878787611144565b6001600160a01b038181166000908152600460205260409081902054815160018082528184019093526060939190911691816020015b6060815260200190600190039081610e55579050506040805160048152602481018252602080820180516001600160e01b0316631e8c5c8960e11b1790529151929450610ea49284920161273f565b60405160208183030381529060405282600081518110610ec657610ec6612711565b60200260200101819052505092915050565b60606000610ee7858585611144565b90506108a983826112a1565b6001600160a01b039081166000908152600460209081526040808320548416835260059091529020541690565b60008054906101000a90046001600160a01b03166001600160a01b0316637af0e5576040518163ffffffff1660e01b8152600401602060405180830381865afa158015610f71573d6000803e3d6000fd5b505050506040513d601f19601f82011682018060405250810190610f959190612763565b6001600160a01b0316336001600160a01b031614610fce5760405162461bcd60e51b8152600401610fc590612780565b60405180910390fd5b6000805482919060ff60a01b1916600160a01b836001811115610ff357610ff361245f565b02179055506000543390600160a01b900460ff1660018111156110185761101861245f565b6040517f68e3b01155b193b02181f2c0ed491c934a74348d211ff023f8fc6ac5edf22aa090600090a350565b6000806110528686866108ce565b9092111595945050505050565b6000826001600160a01b03166377c7b8fc6040518163ffffffff1660e01b8152600401602060405180830381865afa15801561109f573d6000803e3d6000fd5b505050506040513d601f19601f820116820180604052508101906110c3919061259b565b836001600160a01b031663313ce5676040518163ffffffff1660e01b8152600401602060405180830381865afa158015611101573d6000803e3d6000fd5b505050506040513d601f19601f82011682018060405250810190611125919061259b565b61113090600a6126ae565b61113a90846126ba565b610b1291906126d9565b6040516370a0823160e01b81526001600160a01b038481166004830152600091908316906370a08231906024015b602060405180830381865afa15801561118f573d6000803e3d6000fd5b505050506040513d601f19601f82011682018060405250810190610b12919061259b565b60008054906101000a90046001600160a01b03166001600160a01b0316637af0e5576040518163ffffffff1660e01b8152600401602060405180830381865afa158015611204573d6000803e3d6000fd5b505050506040513d601f19601f820116820180604052508101906112289190612763565b6001600160a01b0316336001600160a01b0316146112585760405162461bcd60e51b8152600401610fc590612780565b6001600160a01b03821660009081526002602052604080822083905551339183917fac58e29a41d996caca756d050dce90806b277f0c939337653638329247e16f4c9190a35050565b60608115610b81576001600160a01b03838116600090815260046020526040812054909116908460408051600380825260808201909252919250816020015b60608152602001906001900390816112e0579050506040516001600160a01b038416602482015260006044820152909350819060640160408051601f19818403018152918152602080830180516001600160e01b031663095ea7b360e01b179052905161134f9392910161273f565b6040516020818303038152906040528360008151811061137157611371612711565b60209081029190910101526040516001600160a01b038316602482015260448101859052819060640160408051601f19818403018152918152602080830180516001600160e01b031663095ea7b360e01b17905290516113d39392910161273f565b604051602081830303815290604052836001815181106113f5576113f5612711565b6020026020010181905250818460405160240161141491815260200190565b60408051601f19818403018152918152602080830180516001600160e01b031663534a7e1d60e11b179052905161144d9392910161273f565b6040516020818303038152906040528360028151811061146f5761146f612711565b6020026020010181905250505092915050565b60008054906101000a90046001600160a01b03166001600160a01b031663e7f43c686040518163ffffffff1660e01b8152600401602060405180830381865afa1580156114d3573d6000803e3d6000fd5b505050506040513d601f19601f820116820180604052508101906114f79190612763565b6001600160a01b0316336001600160a01b0316146115575760405162461bcd60e51b815260206004820152601a60248201527f63616c6c6572206973206e6f7420746865206f70657261746f720000000000006044820152606401610fc5565b600080546001600160a01b0319166001600160a01b0392909216919091179055565b6001600160a01b0380821660009081526004602081905260408083205490516370a0823160e01b81529293169182916370a0823191611172918891016001600160a01b0391909116815260200190565b6001600160a01b0380831660009081526004602081905260408083205490516246613160e11b815292931691628cc26291611172918891016001600160a01b0391909116815260200190565b60606108a98561162485610ef3565b8685611ce9565b60008054906101000a90046001600160a01b03166001600160a01b0316637af0e5576040518163ffffffff1660e01b8152600401602060405180830381865afa15801561167c573d6000803e3d6000fd5b505050506040513d601f19601f820116820180604052508101906116a09190612763565b6001600160a01b0316336001600160a01b0316146116d05760405162461bcd60e51b8152600401610fc590612780565b6001819055604051339082907f19c60b0612798cc65bd298cd47e17d9fd07e74e0d3baa6c0019411bb334d9bda90600090a350565b60606000821161174d5760405162461bcd60e51b8152602060048201526013602482015272125b9cdd59999a58da595b9d08185b5bdd5b9d606a1b6044820152606401610fc5565b6000611765848685611760886000610b1a565b611f73565b9050600081116117b75760405162461bcd60e51b815260206004820152601b60248201527f496e73756666696369656e74206465706f73697420616d6f756e7400000000006044820152606401610fc5565b6040805160038082526080820190925290816020015b60608152602001906001900390816117cd579050506040516001600160a01b038616602482015260006044820152909250859060640160408051601f19818403018152918152602080830180516001600160e01b031663095ea7b360e01b179052905161183c9392910161273f565b6040516020818303038152906040528260008151811061185e5761185e612711565b60209081029190910101526040516001600160a01b038516602482015260448101829052859060640160408051601f19818403018152918152602080830180516001600160e01b031663095ea7b360e01b17905290516118c09392910161273f565b604051602081830303815290604052826001815181106118e2576118e2612711565b6020026020010181905250838160405160240161190191815260200190565b60408051601f19818403018152918152602080830180516001600160e01b031663b6b55f2560e01b179052905161193a9392910161273f565b6040516020818303038152906040528260028151811061195c5761195c612711565b602002602001018190525050949350505050565b600080611052868686610e0d565b60008115611a6c57826001600160a01b031663313ce5676040518163ffffffff1660e01b8152600401602060405180830381865afa1580156119c4573d6000803e3d6000fd5b505050506040513d601f19601f820116820180604052508101906119e8919061259b565b6119f390600a6126ae565b836001600160a01b03166377c7b8fc6040518163ffffffff1660e01b8152600401602060405180830381865afa158015611a31573d6000803e3d6000fd5b505050506040513d601f19601f82011682018060405250810190611a55919061259b565b611a5f90846126ba565b611a6991906126d9565b91505b5092915050565b60408051600180825281830190925260609160208083019080368337019050509050826001600160a01b0316631f1fcd516040518163ffffffff1660e01b8152600401602060405180830381865afa158015611ad3573d6000803e3d6000fd5b505050506040513d601f19601f82011682018060405250810190611af79190612763565b81600081518110611b0a57611b0a612711565b60200260200101906001600160a01b031690816001600160a01b03168152505092915050565b60008054906101000a90046001600160a01b03166001600160a01b0316637af0e5576040518163ffffffff1660e01b8152600401602060405180830381865afa158015611b81573d6000803e3d6000fd5b505050506040513d601f19601f82011682018060405250810190611ba59190612763565b6001600160a01b0316336001600160a01b031614611bd55760405162461bcd60e51b8152600401610fc590612780565b6001600160a01b03838116600090815260036020908152604080832093861683529290528181208390559051339183917f197807a6a2633dd9bde6550aca985cfc69e655e9130930314c0e9da01a75cc549190a3505050565b60606000611c3d858585611144565b90506108a985858584610d70565b60608115610b81576001600160a01b0383811660009081526004602052604090819020548151600180825281840190935292169190816020015b6060815260200190600190039081611c855790505091508083604051602401611cb091815260200190565b60408051601f19818403018152918152602080830180516001600160e01b0316632e1a7d4d60e01b1790529051610ea49392910161273f565b60608115610b1257600073c0788a3ad43d79aa53b09c2eacc313a787d1d60763d06ca61f84611d188888611fdf565b6040518363ffffffff1660e01b8152600401611d359291906127b7565b600060405180830381865afa158015611d52573d6000803e3d6000fd5b505050506040513d6000823e601f3d908101601f19168201604052611d7a91908101906127d0565b905060008160018351611d8d9190612882565b81518110611d9d57611d9d612711565b60200260200101511115611f6a576040805160038082526080820190925290816020015b6060815260200190600190039081611dc15790505060405173c0788a3ad43d79aa53b09c2eacc313a787d1d607602482015260006044820152909250859060640160408051601f19818403018152918152602080830180516001600160e01b031663095ea7b360e01b1790529051611e3b9392910161273f565b60405160208183030381529060405282600081518110611e5d57611e5d612711565b602090810291909101015260405173c0788a3ad43d79aa53b09c2eacc313a787d1d607602482015260448101849052859060640160408051601f19818403018152918152602080830180516001600160e01b031663095ea7b360e01b1790529051611eca9392910161273f565b60405160208183030381529060405282600181518110611eec57611eec612711565b602002602001018190525073c0788a3ad43d79aa53b09c2eacc313a787d1d607836000611f198888611fdf565b89600019604051602401611f31959493929190612899565b60408051601f19818403018152918152602080830180516001600160e01b03166338ed173960e01b179052905161193a9392910161273f565b50949350505050565b6000806001600054600160a01b900460ff166001811115611f9657611f9661245f565b14611fc6576001600160a01b03808716600090815260036020908152604080832093891683529290522054611fd0565b611fd08684612248565b90508084116108a95783610a4c565b6060600073c0788a3ad43d79aa53b09c2eacc313a787d1d6076001600160a01b031663ad5c46486040518163ffffffff1660e01b8152600401602060405180830381865afa158015612035573d6000803e3d6000fd5b505050506040513d601f19601f820116820180604052508101906120599190612763565b9050806001600160a01b0316836001600160a01b0316141561210257604080516002808252606082018352909160208301908036833701905050915083826000815181106120a9576120a9612711565b60200260200101906001600160a01b031690816001600160a01b03168152505080826001815181106120dd576120dd612711565b60200260200101906001600160a01b031690816001600160a01b031681525050611a6c565b806001600160a01b0316846001600160a01b03161415612184576040805160028082526060820183529091602083019080368337019050509150808260008151811061215057612150612711565b60200260200101906001600160a01b031690816001600160a01b03168152505082826001815181106120dd576120dd612711565b60408051600380825260808201909252906020820160608036833701905050915083826000815181106121b9576121b9612711565b60200260200101906001600160a01b031690816001600160a01b03168152505080826001815181106121ed576121ed612711565b60200260200101906001600160a01b031690816001600160a01b031681525050828260028151811061222157612221612711565b60200260200101906001600160a01b031690816001600160a01b0316815250505092915050565b6001600160a01b0382166000908152600260205260408120548181156122845761271061227583866126ba565b61227f91906126d9565b6108a9565b6127106001548561229591906126ba565b6108a991906126d9565b6001600160a01b03811681146122b457600080fd5b50565b600080604083850312156122ca57600080fd5b82356122d58161229f565b915060208301356122e58161229f565b809150509250929050565b60008060006060848603121561230557600080fd5b83356123108161229f565b925060208401356123208161229f565b915060408401356123308161229f565b809150509250925092565b6000815180845260005b8181101561236157602081850181015186830182015201612345565b81811115612373576000602083870101525b50601f01601f19169290920160200192915050565b6000602080830181845280855180835260408601915060408160051b870101925083870160005b828110156123dd57603f198886030184526123cb85835161233b565b945092850192908501906001016123af565b5092979650505050505050565b6000602082840312156123fc57600080fd5b81356124078161229f565b9392505050565b6000806000806080858703121561242457600080fd5b843561242f8161229f565b9350602085013561243f8161229f565b9250604085013561244f8161229f565b9396929550929360600135925050565b634e487b7160e01b600052602160045260246000fd5b602081016002831061249757634e487b7160e01b600052602160045260246000fd5b91905290565b6000602082840312156124af57600080fd5b81356002811061240757600080fd5b6000806000606084860312156124d357600080fd5b83356124de8161229f565b925060208401356124ee8161229f565b929592945050506040919091013590565b6000806040838503121561251257600080fd5b823561251d8161229f565b946020939093013593505050565b60006020828403121561253d57600080fd5b5035919050565b600081518084526020808501945080840160005b8381101561257d5781516001600160a01b031687529582019590820190600101612558565b509495945050505050565b602081526000610b7e6020830184612544565b6000602082840312156125ad57600080fd5b5051919050565b634e487b7160e01b600052601160045260246000fd5b600181815b808511156126055781600019048211156125eb576125eb6125b4565b808516156125f857918102915b93841c93908002906125cf565b509250929050565b60008261261c57506001610b81565b8161262957506000610b81565b816001811461263f576002811461264957612665565b6001915050610b81565b60ff84111561265a5761265a6125b4565b50506001821b610b81565b5060208310610133831016604e8410600b8410161715612688575081810a610b81565b61269283836125ca565b80600019048211156126a6576126a66125b4565b029392505050565b6000610b7e838361260d565b60008160001904831182151516156126d4576126d46125b4565b500290565b6000826126f657634e487b7160e01b600052601260045260246000fd5b500490565b634e487b7160e01b600052604160045260246000fd5b634e487b7160e01b600052603260045260246000fd5b6000821982111561273a5761273a6125b4565b500190565b6001600160a01b0383168152604060208201819052600090610b129083018461233b565b60006020828403121561277557600080fd5b81516124078161229f565b6020808252601e908201527f63616c6c6572206973206e6f7420746865207269736b4f70657261746f720000604082015260600190565b828152604060208201526000610b126040830184612544565b600060208083850312156127e357600080fd5b825167ffffffffffffffff808211156127fb57600080fd5b818501915085601f83011261280f57600080fd5b815181811115612821576128216126fb565b8060051b604051601f19603f83011681018181108582111715612846576128466126fb565b60405291825284820192508381018501918883111561286457600080fd5b938501935b82851015610d4a57845184529385019392850192612869565b600082821015612894576128946125b4565b500390565b85815284602082015260a0604082015260006128b860a0830186612544565b6001600160a01b039490941660608301525060800152939250505056fea164736f6c634300080b000a"
}