{
  "address": "0xfe28e4C3403dE2a3680d113De1E3CB4Ec716b58e",
  "abi": [
    {
      "inputs": [
        {
          "internalType": "address",
          "name": "_registry",
          "type": "address"
        }
      ],
      "stateMutability": "nonpayable",
      "type": "constructor"
    },
    {
      "inputs": [],
      "name": "CRV",
      "outputs": [
        {
          "internalType": "address",
          "name": "",
          "type": "address"
        }
      ],
      "stateMutability": "view",
      "type": "function"
    },
    {
      "inputs": [],
      "name": "WMATIC",
      "outputs": [
        {
          "internalType": "address",
          "name": "",
          "type": "address"
        }
      ],
      "stateMutability": "view",
      "type": "function"
    },
    {
      "inputs": [],
      "name": "am3CrvGauge",
      "outputs": [
        {
          "internalType": "address",
          "name": "",
          "type": "address"
        }
      ],
      "stateMutability": "view",
      "type": "function"
    },
    {
      "inputs": [],
      "name": "btcCrvGauge",
      "outputs": [
        {
          "internalType": "address",
          "name": "",
          "type": "address"
        }
      ],
      "stateMutability": "view",
      "type": "function"
    },
    {
      "inputs": [
        {
          "internalType": "address",
          "name": "",
          "type": "address"
        },
        {
          "internalType": "address",
          "name": "",
          "type": "address"
        },
        {
          "internalType": "uint256",
          "name": "_underlyingTokenAmount",
          "type": "uint256"
        }
      ],
      "name": "calculateAmountInLPToken",
      "outputs": [
        {
          "internalType": "uint256",
          "name": "",
          "type": "uint256"
        }
      ],
      "stateMutability": "pure",
      "type": "function"
    },
    {
      "inputs": [
        {
          "internalType": "address payable",
          "name": "",
          "type": "address"
        },
        {
          "internalType": "address",
          "name": "",
          "type": "address"
        },
        {
          "internalType": "address",
          "name": "",
          "type": "address"
        },
        {
          "internalType": "uint256",
          "name": "_redeemAmount",
          "type": "uint256"
        }
      ],
      "name": "calculateRedeemableLPTokenAmount",
      "outputs": [
        {
          "internalType": "uint256",
          "name": "_amount",
          "type": "uint256"
        }
      ],
      "stateMutability": "pure",
      "type": "function"
    },
    {
      "inputs": [
        {
          "internalType": "address",
          "name": "",
          "type": "address"
        }
      ],
      "name": "canStake",
      "outputs": [
        {
          "internalType": "bool",
          "name": "",
          "type": "bool"
        }
      ],
      "stateMutability": "pure",
      "type": "function"
    },
    {
      "inputs": [],
      "name": "crvUSDBTCETHGauge",
      "outputs": [
        {
          "internalType": "address",
          "name": "",
          "type": "address"
        }
      ],
      "stateMutability": "view",
      "type": "function"
    },
    {
      "inputs": [
        {
          "internalType": "address payable",
          "name": "_vault",
          "type": "address"
        },
        {
          "internalType": "address",
          "name": "_underlyingToken",
          "type": "address"
        }
      ],
      "name": "getAddLiquidityCodes",
      "outputs": [
        {
          "internalType": "bytes[]",
          "name": "_codes",
          "type": "bytes[]"
        }
      ],
      "stateMutability": "view",
      "type": "function"
    },
    {
      "inputs": [
        {
          "internalType": "address payable",
          "name": "_vault",
          "type": "address"
        },
        {
          "internalType": "address",
          "name": "_underlyingToken",
          "type": "address"
        },
        {
          "internalType": "address",
          "name": "_liquidityPool",
          "type": "address"
        }
      ],
      "name": "getAllAmountInToken",
      "outputs": [
        {
          "internalType": "uint256",
          "name": "",
          "type": "uint256"
        }
      ],
      "stateMutability": "view",
      "type": "function"
    },
    {
      "inputs": [
        {
          "internalType": "address payable",
          "name": "_vault",
          "type": "address"
        },
        {
          "internalType": "address",
          "name": "_liquidityPool",
          "type": "address"
        }
      ],
      "name": "getClaimRewardTokenCode",
      "outputs": [
        {
          "internalType": "bytes[]",
          "name": "_codes",
          "type": "bytes[]"
        }
      ],
      "stateMutability": "pure",
      "type": "function"
    },
    {
      "inputs": [
        {
          "internalType": "address payable",
          "name": "_vault",
          "type": "address"
        },
        {
          "internalType": "address",
          "name": "_underlyingToken",
          "type": "address"
        },
        {
          "internalType": "address",
          "name": "_liquidityPool",
          "type": "address"
        }
      ],
      "name": "getDepositAllCodes",
      "outputs": [
        {
          "internalType": "bytes[]",
          "name": "",
          "type": "bytes[]"
        }
      ],
      "stateMutability": "view",
      "type": "function"
    },
    {
      "inputs": [
        {
          "internalType": "address payable",
          "name": "_vault",
          "type": "address"
        },
        {
          "internalType": "address",
          "name": "_underlyingToken",
          "type": "address"
        },
        {
          "internalType": "address",
          "name": "_liquidityPool",
          "type": "address"
        },
        {
          "internalType": "uint256",
          "name": "_amount",
          "type": "uint256"
        }
      ],
      "name": "getDepositSomeCodes",
      "outputs": [
        {
          "internalType": "bytes[]",
          "name": "_codes",
          "type": "bytes[]"
        }
      ],
      "stateMutability": "pure",
      "type": "function"
    },
    {
      "inputs": [
        {
          "internalType": "address payable",
          "name": "_vault",
          "type": "address"
        },
        {
          "internalType": "address",
          "name": "_underlyingToken",
          "type": "address"
        },
        {
          "internalType": "address",
          "name": "_liquidityPool",
          "type": "address"
        },
        {
          "internalType": "address",
          "name": "_rewardToken",
          "type": "address"
        }
      ],
      "name": "getHarvestAllCodes",
      "outputs": [
        {
          "internalType": "bytes[]",
          "name": "_codes",
          "type": "bytes[]"
        }
      ],
      "stateMutability": "view",
      "type": "function"
    },
    {
      "inputs": [
        {
          "internalType": "address payable",
          "name": "_vault",
          "type": "address"
        },
        {
          "internalType": "address",
          "name": "_underlyingToken",
          "type": "address"
        },
        {
          "internalType": "address",
          "name": "_liquidityPool",
          "type": "address"
        }
      ],
      "name": "getHarvestAllCodes",
      "outputs": [
        {
          "internalType": "bytes[]",
          "name": "_codes",
          "type": "bytes[]"
        }
      ],
      "stateMutability": "view",
      "type": "function"
    },
    {
      "inputs": [
        {
          "internalType": "address payable",
          "name": "_vault",
          "type": "address"
        },
        {
          "internalType": "address",
          "name": "_underlyingToken",
          "type": "address"
        },
        {
          "internalType": "address",
          "name": "",
          "type": "address"
        },
        {
          "internalType": "address",
          "name": "_rewardToken",
          "type": "address"
        },
        {
          "internalType": "uint256",
          "name": "_rewardTokenAmount",
          "type": "uint256"
        }
      ],
      "name": "getHarvestSomeCodes",
      "outputs": [
        {
          "internalType": "bytes[]",
          "name": "_codes",
          "type": "bytes[]"
        }
      ],
      "stateMutability": "view",
      "type": "function"
    },
    {
      "inputs": [
        {
          "internalType": "address payable",
          "name": "_vault",
          "type": "address"
        },
        {
          "internalType": "address",
          "name": "_underlyingToken",
          "type": "address"
        },
        {
          "internalType": "address",
          "name": "_liquidityPool",
          "type": "address"
        },
        {
          "internalType": "uint256",
          "name": "_rewardTokenAmount",
          "type": "uint256"
        }
      ],
      "name": "getHarvestSomeCodes",
      "outputs": [
        {
          "internalType": "bytes[]",
          "name": "_codes",
          "type": "bytes[]"
        }
      ],
      "stateMutability": "view",
      "type": "function"
    },
    {
      "inputs": [
        {
          "internalType": "address",
          "name": "",
          "type": "address"
        },
        {
          "internalType": "address",
          "name": "_liquidityPool",
          "type": "address"
        }
      ],
      "name": "getLiquidityPoolToken",
      "outputs": [
        {
          "internalType": "address",
          "name": "",
          "type": "address"
        }
      ],
      "stateMutability": "pure",
      "type": "function"
    },
    {
      "inputs": [
        {
          "internalType": "address payable",
          "name": "_vault",
          "type": "address"
        },
        {
          "internalType": "address",
          "name": "",
          "type": "address"
        },
        {
          "internalType": "address",
          "name": "_liquidityPool",
          "type": "address"
        }
      ],
      "name": "getLiquidityPoolTokenBalance",
      "outputs": [
        {
          "internalType": "uint256",
          "name": "",
          "type": "uint256"
        }
      ],
      "stateMutability": "view",
      "type": "function"
    },
    {
      "inputs": [
        {
          "internalType": "address",
          "name": "_liquidityPool",
          "type": "address"
        },
        {
          "internalType": "address",
          "name": "",
          "type": "address"
        }
      ],
      "name": "getPoolValue",
      "outputs": [
        {
          "internalType": "uint256",
          "name": "",
          "type": "uint256"
        }
      ],
      "stateMutability": "view",
      "type": "function"
    },
    {
      "inputs": [
        {
          "internalType": "address",
          "name": "",
          "type": "address"
        }
      ],
      "name": "getRewardToken",
      "outputs": [
        {
          "internalType": "address",
          "name": "",
          "type": "address"
        }
      ],
      "stateMutability": "pure",
      "type": "function"
    },
    {
      "inputs": [
        {
          "internalType": "address",
          "name": "_liquidityPool",
          "type": "address"
        }
      ],
      "name": "getRewardTokens",
      "outputs": [
        {
          "internalType": "address[]",
          "name": "_rewardTokens",
          "type": "address[]"
        }
      ],
      "stateMutability": "view",
      "type": "function"
    },
    {
      "inputs": [
        {
          "internalType": "address",
          "name": "",
          "type": "address"
        },
        {
          "internalType": "address",
          "name": "",
          "type": "address"
        },
        {
          "internalType": "uint256",
          "name": "_liquidityPoolTokenAmount",
          "type": "uint256"
        }
      ],
      "name": "getSomeAmountInToken",
      "outputs": [
        {
          "internalType": "uint256",
          "name": "",
          "type": "uint256"
        }
      ],
      "stateMutability": "pure",
      "type": "function"
    },
    {
      "inputs": [
        {
          "internalType": "address payable",
          "name": "",
          "type": "address"
        },
        {
          "internalType": "address",
          "name": "",
          "type": "address"
        },
        {
          "internalType": "address",
          "name": "",
          "type": "address"
        },
        {
          "internalType": "address",
          "name": "",
          "type": "address"
        }
      ],
      "name": "getUnclaimedRewardTokenAmount",
      "outputs": [
        {
          "internalType": "uint256",
          "name": "_amount",
          "type": "uint256"
        }
      ],
      "stateMutability": "view",
      "type": "function"
    },
    {
      "inputs": [
        {
          "internalType": "address payable",
          "name": "",
          "type": "address"
        },
        {
          "internalType": "address",
          "name": "",
          "type": "address"
        },
        {
          "internalType": "address",
          "name": "",
          "type": "address"
        }
      ],
      "name": "getUnclaimedRewardTokenAmount",
      "outputs": [
        {
          "internalType": "uint256",
          "name": "",
          "type": "uint256"
        }
      ],
      "stateMutability": "view",
      "type": "function"
    },
    {
      "inputs": [
        {
          "internalType": "address",
          "name": "_liquidityPool",
          "type": "address"
        },
        {
          "internalType": "address",
          "name": "",
          "type": "address"
        }
      ],
      "name": "getUnderlyingTokens",
      "outputs": [
        {
          "internalType": "address[]",
          "name": "_underlyingTokens",
          "type": "address[]"
        }
      ],
      "stateMutability": "view",
      "type": "function"
    },
    {
      "inputs": [
        {
          "internalType": "address payable",
          "name": "_vault",
          "type": "address"
        },
        {
          "internalType": "address",
          "name": "",
          "type": "address"
        },
        {
          "internalType": "address",
          "name": "_liquidityPool",
          "type": "address"
        }
      ],
      "name": "getWithdrawAllCodes",
      "outputs": [
        {
          "internalType": "bytes[]",
          "name": "_codes",
          "type": "bytes[]"
        }
      ],
      "stateMutability": "view",
      "type": "function"
    },
    {
      "inputs": [
        {
          "internalType": "address payable",
          "name": "",
          "type": "address"
        },
        {
          "internalType": "address",
          "name": "",
          "type": "address"
        },
        {
          "internalType": "address",
          "name": "_liquidityPool",
          "type": "address"
        },
        {
          "internalType": "uint256",
          "name": "_amount",
          "type": "uint256"
        }
      ],
      "name": "getWithdrawSomeCodes",
      "outputs": [
        {
          "internalType": "bytes[]",
          "name": "_codes",
          "type": "bytes[]"
        }
      ],
      "stateMutability": "pure",
      "type": "function"
    },
    {
      "inputs": [
        {
          "internalType": "address payable",
          "name": "_vault",
          "type": "address"
        },
        {
          "internalType": "address",
          "name": "_underlyingToken",
          "type": "address"
        },
        {
          "internalType": "address",
          "name": "_liquidityPool",
          "type": "address"
        },
        {
          "internalType": "uint256",
          "name": "_redeemAmount",
          "type": "uint256"
        }
      ],
      "name": "isRedeemableAmountSufficient",
      "outputs": [
        {
          "internalType": "bool",
          "name": "",
          "type": "bool"
        }
      ],
      "stateMutability": "view",
      "type": "function"
    },
    {
      "inputs": [
        {
          "internalType": "address",
          "name": "",
          "type": "address"
        }
      ],
      "name": "nRewardTokens",
      "outputs": [
        {
          "internalType": "uint256",
          "name": "",
          "type": "uint256"
        }
      ],
      "stateMutability": "view",
      "type": "function"
    },
    {
      "inputs": [],
      "name": "quickSwapV2Router02",
      "outputs": [
        {
          "internalType": "address",
          "name": "",
          "type": "address"
        }
      ],
      "stateMutability": "view",
      "type": "function"
    },
    {
      "inputs": [],
      "name": "registryContract",
      "outputs": [
        {
          "internalType": "contract IAdapterRegistryBase",
          "name": "",
          "type": "address"
        }
      ],
      "stateMutability": "view",
      "type": "function"
    },
    {
      "inputs": [
        {
          "internalType": "address",
          "name": "",
          "type": "address"
        },
        {
          "internalType": "uint256",
          "name": "",
          "type": "uint256"
        }
      ],
      "name": "rewardTokens",
      "outputs": [
        {
          "internalType": "address",
          "name": "",
          "type": "address"
        }
      ],
      "stateMutability": "view",
      "type": "function"
    },
    {
      "inputs": [
        {
          "internalType": "address[]",
          "name": "_gauges",
          "type": "address[]"
        },
        {
          "internalType": "uint256[]",
          "name": "_nRewardTokens",
          "type": "uint256[]"
        }
      ],
      "name": "setNRewardToken",
      "outputs": [],
      "stateMutability": "nonpayable",
      "type": "function"
    },
    {
      "inputs": [
        {
          "internalType": "address",
          "name": "_registry",
          "type": "address"
        }
      ],
      "name": "setRegistry",
      "outputs": [],
      "stateMutability": "nonpayable",
      "type": "function"
    },
    {
      "inputs": [
        {
          "internalType": "address[]",
          "name": "_gauges",
          "type": "address[]"
        },
        {
          "internalType": "uint256[]",
          "name": "_indexes",
          "type": "uint256[]"
        },
        {
          "internalType": "address[]",
          "name": "_rewardTokens",
          "type": "address[]"
        }
      ],
      "name": "setRewardTokens",
      "outputs": [],
      "stateMutability": "nonpayable",
      "type": "function"
    }
  ],
  "transactionHash": "0xdffa7bbbcaaaf58ad6c8401c68b9d151be62ff8b6c8aa6ad0ccdd088bbce3f6b",
  "args": [
    "0x32bD1a6FdaeC327B57cdB2CFDe0855AfB3255d7C"
  ],
  "bytecode": "0x608060405234801561001057600080fd5b506040516120ee3803806120ee83398101604081905261002f91610203565b600080546001600160a01b03929092166001600160a01b03199283161781557f1a669c69d67b5f1480a749aa7d3d614b1e2cb51c7e789315c07a86c9dc56090c8054831673172370d5cd63279efa6d502dab29171933a610af9081179091557f1a669c69d67b5f1480a749aa7d3d614b1e2cb51c7e789315c07a86c9dc56090d80548416730d500b1d8e8ef31e21c99d1db9a6444d3adf127090811790915560027ffe2e9de55ee06647d2ba41a46297ce06920b2b593af05c3c2c817021e18fa6d28190557f7caf5542ca88e99b11ee72a7506603147f8871053f85e6eb7626adcfa081534080548616841790557f7caf5542ca88e99b11ee72a7506603147f8871053f85e6eb7626adcfa081534180548616831790557f1852561c65e6cee869bc4ced2bfd24646fc1245c6a06df837553fd17b654b9f081905573b0a366b987d77b5ed5803cbd95c80bb6deab48c09093527f9c5480277ad772a7210554d3f1bc85f8cd72c9acc19a90bb599b0b3058c825fb805485169092179091557f9c5480277ad772a7210554d3f1bc85f8cd72c9acc19a90bb599b0b3058c825fc80549093161790915560208190527f3243fcfb47fedb4b06547df4dcbd40df311965cdabc7be2a7a0c459e5b68b82f55610233565b60006020828403121561021557600080fd5b81516001600160a01b038116811461022c57600080fd5b9392505050565b611eac806102426000396000f3fe608060405234801561001057600080fd5b506004361061021b5760003560e01c80637707887211610125578063ab74dee1116100ad578063df9357221161007c578063df93572214610510578063e49d5ecc14610523578063ee665bed14610456578063ef856be914610536578063f49307ca1461054957600080fd5b8063ab74dee1146104c0578063b3fe7f5a146104d3578063d463fcf6146104ea578063d74baaf8146104fd57600080fd5b806385541e44116100f457806385541e441461045657806390e616051461046a578063945c91421461047d5780639712048714610498578063a91ee0dc146104ad57600080fd5b806377078872146103ff5780637df50ed81461040d57806381a4af151461042357806384773f251461043657600080fd5b8063489b5295116101a85780636092577911610177578063609257791461039057806364dd5f80146103a35780636667f1a6146103b65780636d267d7c146103d15780636fac53ee146103e457600080fd5b8063489b5295146103325780634ad36e02146103455780634d41a1e51461035a5780634d95cad91461037557600080fd5b806328c1f99b116101ef57806328c1f99b1461028f578063298916b2146102ba5780632de77838146102e057806332da07e2146102f357806336d8bf931461030e57600080fd5b806201b0b61461022057806304b87c4c146102495780630c9d8d5c1461026957806310f1fbe51461027c575b600080fd5b61023361022e36600461175a565b61055c565b60405161024091906117bb565b60405180910390f35b61025c6102573660046117ce565b610644565b6040516102409190611877565b61025c6102773660046118d9565b6106c7565b61025c61028a366004611924565b610773565b6000546102a2906001600160a01b031681565b6040516001600160a01b039091168152602001610240565b6102d26102c83660046117ce565b6000949350505050565b604051908152602001610240565b6102d26102ee366004611988565b61078b565b6102a273ffbacce0cc7c19d46132f1258fc16cf6871d153c81565b61032261031c36600461175a565b50600090565b6040519015158152602001610240565b61025c6103403660046118d9565b6107ef565b6102d26103533660046119c1565b9392505050565b6102a273a5e0829caced8ffdd4de3c43696c57f7d7a678ff81565b6102a2730d500b1d8e8ef31e21c99d1db9a6444d3adf127081565b61025c61039e3660046119c1565b610868565b6102d26103b13660046118d9565b61091b565b6102a27319793b454d3afc7b454f206ffe95ade26ca6912c81565b61025c6103df366004611988565b610928565b6102a273b0a366b987d77b5ed5803cbd95c80bb6deab48c081565b6102a261031c36600461175a565b61025c61041b366004611988565b606092915050565b6102a2610431366004611a12565b6109da565b6102d261044436600461175a565b60026020526000908152604090205481565b6102d2610464366004611a3e565b92915050565b6102d26104783660046118d9565b610a08565b6102a273172370d5cd63279efa6d502dab29171933a610af81565b6104ab6104a6366004611bb9565b610a76565b005b6104ab6104bb36600461175a565b610caa565b6104ab6104ce366004611c41565b610d98565b6102d26104e13660046118d9565b60009392505050565b61025c6104f83660046119c1565b610f2a565b6102a261050b366004611988565b919050565b61025c61051e3660046119c1565b610f5a565b6103226105313660046119c1565b611113565b610233610544366004611988565b61112e565b61025c6105573660046118d9565b6111eb565b6001600160a01b0381166000908152600260205260409020546060908067ffffffffffffffff81111561059157610591611a7f565b6040519080825280602002602001820160405280156105ba578160200160208202803683370190505b50915060005b8181101561063d576001600160a01b038416600090815260016020526040902081600881106105f1576105f1611ca5565b015483516001600160a01b039091169084908390811061061357610613611ca5565b6001600160a01b03909216602092830291909101909101528061063581611cd1565b9150506105c0565b5050919050565b6040516370a0823160e01b81526001600160a01b0380861660048301526060916106bc91879187918791908716906370a0823190602401602060405180830381865afa158015610698573d6000803e3d6000fd5b505050506040513d601f19601f820116820180604052508101906104f89190611cec565b90505b949350505050565b606060006106d48361055c565b6000815181106106e6576106e6611ca5565b60209081029190910101516040516370a0823160e01b81526001600160a01b038781166004830152909116906370a0823190602401602060405180830381865afa158015610738573d6000803e3d6000fd5b505050506040513d601f19601f8201168201806040525081019061075c9190611cec565b905061076a85858584610f2a565b95945050505050565b606061078186848785611264565b9695505050505050565b6000826001600160a01b03166318160ddd6040518163ffffffff1660e01b8152600401602060405180830381865afa1580156107cb573d6000803e3d6000fd5b505050506040513d601f19601f820116820180604052508101906103539190611cec565b6040516370a0823160e01b81526001600160a01b0384811660048301526060916106bf9160009186918691908316906370a0823190602401602060405180830381865afa158015610844573d6000803e3d6000fd5b505050506040513d601f19601f8201168201806040525081019061051e9190611cec565b604080516001808252818301909252606091816020015b606081526020019060019003908161087f579050506040516024810184905260016044820152909150839060640160408051601f19818403018152918152602080830180516001600160e01b0316631c683a1b60e11b17905290516108e693929101611d05565b6040516020818303038152906040528160008151811061090857610908611ca5565b6020026020010181905250949350505050565b60006106bf848484610a08565b604080516001808252818301909252606091816020015b606081526020019060019003908161093f579050506040516001600160a01b0385166024820152909150829060440160408051601f19818403018152918152602080830180516001600160e01b0316634274debf60e11b17905290516109a793929101611d05565b604051602081830303815290604052816000815181106109c9576109c9611ca5565b602002602001018190525092915050565b600160205281600052604060002081600881106109f657600080fd5b01546001600160a01b03169150829050565b6040516370a0823160e01b81526001600160a01b038481166004830152600091908316906370a0823190602401602060405180830381865afa158015610a52573d6000803e3d6000fd5b505050506040513d601f19601f820116820180604052508101906106bf9190611cec565b60008054906101000a90046001600160a01b03166001600160a01b031663e7f43c686040518163ffffffff1660e01b8152600401602060405180830381865afa158015610ac7573d6000803e3d6000fd5b505050506040513d601f19601f82011682018060405250810190610aeb9190611d29565b6001600160a01b0316336001600160a01b031614610b245760405162461bcd60e51b8152600401610b1b90611d46565b60405180910390fd5b8251825181148015610b365750815181145b610b6c5760405162461bcd60e51b8152602060048201526007602482015266042d8cadccee8d60cb1b6044820152606401610b1b565b60005b81811015610ca357610ba3858281518110610b8c57610b8c611ca5565b60200260200101516001600160a01b03163b151590565b610bbf5760405162461bcd60e51b8152600401610b1b90611d7d565b610bd4838281518110610b8c57610b8c611ca5565b610bf05760405162461bcd60e51b8152600401610b1b90611d7d565b828181518110610c0257610c02611ca5565b602002602001015160016000878481518110610c2057610c20611ca5565b60200260200101516001600160a01b03166001600160a01b03168152602001908152602001600020858381518110610c5a57610c5a611ca5565b602002602001015160088110610c7257610c72611ca5565b0180546001600160a01b0319166001600160a01b039290921691909117905580610c9b81611cd1565b915050610b6f565b5050505050565b60008054906101000a90046001600160a01b03166001600160a01b031663e7f43c686040518163ffffffff1660e01b8152600401602060405180830381865afa158015610cfb573d6000803e3d6000fd5b505050506040513d601f19601f82011682018060405250810190610d1f9190611d29565b6001600160a01b0316336001600160a01b031614610d4f5760405162461bcd60e51b8152600401610b1b90611d46565b6001600160a01b0381163b610d765760405162461bcd60e51b8152600401610b1b90611d7d565b600080546001600160a01b0319166001600160a01b0392909216919091179055565b60008054906101000a90046001600160a01b03166001600160a01b031663e7f43c686040518163ffffffff1660e01b8152600401602060405180830381865afa158015610de9573d6000803e3d6000fd5b505050506040513d601f19601f82011682018060405250810190610e0d9190611d29565b6001600160a01b0316336001600160a01b031614610e3d5760405162461bcd60e51b8152600401610b1b90611d46565b815181518114610e795760405162461bcd60e51b8152602060048201526007602482015266042d8cadccee8d60cb1b6044820152606401610b1b565b60005b81811015610f2457610e99848281518110610b8c57610b8c611ca5565b610eb55760405162461bcd60e51b8152600401610b1b90611d7d565b828181518110610ec757610ec7611ca5565b602002602001015160026000868481518110610ee557610ee5611ca5565b60200260200101516001600160a01b03166001600160a01b03168152602001908152602001600020819055508080610f1c90611cd1565b915050610e7c565b50505050565b60606106bc85610f398561055c565b600081518110610f4b57610f4b611ca5565b60200260200101518685611264565b60408051600380825260808201909252606091816020015b6060815260200190600190039081610f72575050604080516001600160a01b038616602482015260006044808301919091528251808303909101815260649091018252602080820180516001600160e01b031663095ea7b360e01b1790529151929350610fe192879201611d05565b6040516020818303038152906040528160008151811061100357611003611ca5565b602090810291909101810191909152604080516001600160a01b03861660248201526044808201869052825180830390910181526064909101825280830180516001600160e01b031663095ea7b360e01b17905290516110669287929101611d05565b6040516020818303038152906040528160018151811061108857611088611ca5565b6020908102919091010152604051602481018390526001600160a01b038616604482015260016064820152839060840160408051601f19818403018152918152602080830180516001600160e01b03166383df674760e01b17905290516110f193929101611d05565b6040516020818303038152906040528160028151811061090857610908611ca5565b60008061112186868661091b565b9092111595945050505050565b60408051600180825281830190925260609160208083019080368337019050509050826001600160a01b03166382c630666040518163ffffffff1660e01b8152600401602060405180830381865afa15801561118e573d6000803e3d6000fd5b505050506040513d601f19601f820116820180604052508101906111b29190611d29565b816000815181106111c5576111c5611ca5565b60200260200101906001600160a01b031690816001600160a01b03168152505092915050565b6040516370a0823160e01b81526001600160a01b0384811660048301526060916106bf9160009182918691908216906370a0823190602401602060405180830381865afa158015611240573d6000803e3d6000fd5b505050506040513d601f19601f8201168201806040525081019061039e9190611cec565b606081156106bf57600073a5e0829caced8ffdd4de3c43696c57f7d7a678ff63d06ca61f846112938888611528565b6040518363ffffffff1660e01b81526004016112b0929190611da2565b600060405180830381865afa1580156112cd573d6000803e3d6000fd5b505050506040513d6000823e601f3d908101601f191682016040526112f59190810190611dbb565b9050600081600183516113089190611e4c565b8151811061131857611318611ca5565b6020026020010151111561151f576040805160038082526080820190925290816020015b606081526020019060019003908161133c5750506040805173a5e0829caced8ffdd4de3c43696c57f7d7a678ff602482015260006044808301919091528251808303909101815260649091018252602080820180516001600160e01b031663095ea7b360e01b17905291519294506113b692889201611d05565b604051602081830303815290604052826000815181106113d8576113d8611ca5565b6020908102919091018101919091526040805173a5e0829caced8ffdd4de3c43696c57f7d7a678ff60248201526044808201879052825180830390910181526064909101825280830180516001600160e01b031663095ea7b360e01b17905290516114469288929101611d05565b6040516020818303038152906040528260018151811061146857611468611ca5565b602090810291909101015273a5e0829caced8ffdd4de3c43696c57f7d7a678ff806338ed173985600061149b8a8a611528565b8b6000196040516024016114b3959493929190611e63565b604051602081830303815290604052915060e01b6020820180516001600160e01b0383818316178352505050506040516020016114f1929190611d05565b6040516020818303038152906040528260028151811061151357611513611ca5565b60200260200101819052505b50949350505050565b60606001600160a01b038216730d500b1d8e8ef31e21c99d1db9a6444d3adf127014156115f0576040805160028082526060820183529091602083019080368337019050509050828160008151811061158357611583611ca5565b60200260200101906001600160a01b031690816001600160a01b031681525050730d500b1d8e8ef31e21c99d1db9a6444d3adf1270816001815181106115cb576115cb611ca5565b60200260200101906001600160a01b031690816001600160a01b031681525050610464565b6001600160a01b038316730d500b1d8e8ef31e21c99d1db9a6444d3adf12701415611691576040805160028082526060820183529091602083019080368337019050509050730d500b1d8e8ef31e21c99d1db9a6444d3adf12708160008151811061165d5761165d611ca5565b60200260200101906001600160a01b031690816001600160a01b03168152505081816001815181106115cb576115cb611ca5565b60408051600380825260808201909252906020820160608036833701905050905082816000815181106116c6576116c6611ca5565b60200260200101906001600160a01b031690816001600160a01b031681525050730d500b1d8e8ef31e21c99d1db9a6444d3adf12708160018151811061170e5761170e611ca5565b60200260200101906001600160a01b031690816001600160a01b03168152505081816002815181106111c5576111c5611ca5565b6001600160a01b038116811461175757600080fd5b50565b60006020828403121561176c57600080fd5b813561035381611742565b600081518084526020808501945080840160005b838110156117b05781516001600160a01b03168752958201959082019060010161178b565b509495945050505050565b6020815260006103536020830184611777565b600080600080608085870312156117e457600080fd5b84356117ef81611742565b935060208501356117ff81611742565b9250604085013561180f81611742565b9150606085013561181f81611742565b939692955090935050565b6000815180845260005b8181101561185057602081850181015186830182015201611834565b81811115611862576000602083870101525b50601f01601f19169290920160200192915050565b6000602080830181845280855180835260408601915060408160051b870101925083870160005b828110156118cc57603f198886030184526118ba85835161182a565b9450928501929085019060010161189e565b5092979650505050505050565b6000806000606084860312156118ee57600080fd5b83356118f981611742565b9250602084013561190981611742565b9150604084013561191981611742565b809150509250925092565b600080600080600060a0868803121561193c57600080fd5b853561194781611742565b9450602086013561195781611742565b9350604086013561196781611742565b9250606086013561197781611742565b949793965091946080013592915050565b6000806040838503121561199b57600080fd5b82356119a681611742565b915060208301356119b681611742565b809150509250929050565b600080600080608085870312156119d757600080fd5b84356119e281611742565b935060208501356119f281611742565b92506040850135611a0281611742565b9396929550929360600135925050565b60008060408385031215611a2557600080fd5b8235611a3081611742565b946020939093013593505050565b600080600060608486031215611a5357600080fd5b8335611a5e81611742565b92506020840135611a6e81611742565b929592945050506040919091013590565b634e487b7160e01b600052604160045260246000fd5b604051601f8201601f1916810167ffffffffffffffff81118282101715611abe57611abe611a7f565b604052919050565b600067ffffffffffffffff821115611ae057611ae0611a7f565b5060051b60200190565b600082601f830112611afb57600080fd5b81356020611b10611b0b83611ac6565b611a95565b82815260059290921b84018101918181019086841115611b2f57600080fd5b8286015b84811015611b53578035611b4681611742565b8352918301918301611b33565b509695505050505050565b600082601f830112611b6f57600080fd5b81356020611b7f611b0b83611ac6565b82815260059290921b84018101918181019086841115611b9e57600080fd5b8286015b84811015611b535780358352918301918301611ba2565b600080600060608486031215611bce57600080fd5b833567ffffffffffffffff80821115611be657600080fd5b611bf287838801611aea565b94506020860135915080821115611c0857600080fd5b611c1487838801611b5e565b93506040860135915080821115611c2a57600080fd5b50611c3786828701611aea565b9150509250925092565b60008060408385031215611c5457600080fd5b823567ffffffffffffffff80821115611c6c57600080fd5b611c7886838701611aea565b93506020850135915080821115611c8e57600080fd5b50611c9b85828601611b5e565b9150509250929050565b634e487b7160e01b600052603260045260246000fd5b634e487b7160e01b600052601160045260246000fd5b6000600019821415611ce557611ce5611cbb565b5060010190565b600060208284031215611cfe57600080fd5b5051919050565b6001600160a01b03831681526040602082018190526000906106bf9083018461182a565b600060208284031215611d3b57600080fd5b815161035381611742565b6020808252601a908201527f63616c6c6572206973206e6f7420746865206f70657261746f72000000000000604082015260600190565b6020808252600b908201526a085a5cd0dbdb9d1c9858dd60aa1b604082015260600190565b8281526040602082015260006106bf6040830184611777565b60006020808385031215611dce57600080fd5b825167ffffffffffffffff811115611de557600080fd5b8301601f81018513611df657600080fd5b8051611e04611b0b82611ac6565b81815260059190911b82018301908381019087831115611e2357600080fd5b928401925b82841015611e4157835182529284019290840190611e28565b979650505050505050565b600082821015611e5e57611e5e611cbb565b500390565b85815284602082015260a060408201526000611e8260a0830186611777565b6001600160a01b039490941660608301525060800152939250505056fea164736f6c634300080b000a"
}