{
  "address": "0x46F0FD86744AbF60D4beA64564EED55970e3a459",
  "abi": [
    {
      "inputs": [
        {
          "internalType": "address",
          "name": "_registry",
          "type": "address"
        }
      ],
      "stateMutability": "nonpayable",
      "type": "constructor"
    },
    {
      "anonymous": false,
      "inputs": [
        {
          "indexed": false,
          "internalType": "address",
          "name": "oldImplementation",
          "type": "address"
        },
        {
          "indexed": false,
          "internalType": "address",
          "name": "newImplementation",
          "type": "address"
        }
      ],
      "name": "NewImplementation",
      "type": "event"
    },
    {
      "anonymous": false,
      "inputs": [
        {
          "indexed": false,
          "internalType": "address",
          "name": "oldPendingImplementation",
          "type": "address"
        },
        {
          "indexed": false,
          "internalType": "address",
          "name": "newPendingImplementation",
          "type": "address"
        }
      ],
      "name": "NewPendingImplementation",
      "type": "event"
    },
    {
      "stateMutability": "payable",
      "type": "fallback"
    },
    {
      "inputs": [],
      "name": "acceptImplementation",
      "outputs": [
        {
          "internalType": "uint256",
          "name": "",
          "type": "uint256"
        }
      ],
      "stateMutability": "nonpayable",
      "type": "function"
    },
    {
      "inputs": [],
      "name": "pendingRiskManagerImplementation",
      "outputs": [
        {
          "internalType": "address",
          "name": "",
          "type": "address"
        }
      ],
      "stateMutability": "view",
      "type": "function"
    },
    {
      "inputs": [],
      "name": "registryContract",
      "outputs": [
        {
          "internalType": "contract IRegistry",
          "name": "",
          "type": "address"
        }
      ],
      "stateMutability": "view",
      "type": "function"
    },
    {
      "inputs": [],
      "name": "riskManagerImplementation",
      "outputs": [
        {
          "internalType": "address",
          "name": "",
          "type": "address"
        }
      ],
      "stateMutability": "view",
      "type": "function"
    },
    {
      "inputs": [
        {
          "internalType": "address",
          "name": "newPendingImplementation",
          "type": "address"
        }
      ],
      "name": "setPendingImplementation",
      "outputs": [],
      "stateMutability": "nonpayable",
      "type": "function"
    },
    {
      "inputs": [
        {
          "internalType": "address",
          "name": "_registry",
          "type": "address"
        }
      ],
      "name": "setRegistry",
      "outputs": [],
      "stateMutability": "nonpayable",
      "type": "function"
    },
    {
      "stateMutability": "payable",
      "type": "receive"
    }
  ],
  "transactionHash": "0xad9936e402b4c9e9bf8aa1fab704edae29eb1f3e8d4fc17d29b7179fa44ec3b3",
  "args": [
    "0x32bD1a6FdaeC327B57cdB2CFDe0855AfB3255d7C"
  ],
  "bytecode": "0x608060405234801561001057600080fd5b506040516106333803806106338339818101604052602081101561003357600080fd5b5051600280546001600160a01b0319166001600160a01b039092169190911790556105d0806100636000396000f3fe6080604052600436106100595760003560e01c806309ed43c9146100e657806315ba56e51461011b57806328c1f99b1461014257806343aa3987146101735780638db4fab414610188578063a91ee0dc1461019d57610063565b3661006357600080fd5b600080546040516001600160a01b0390911690829036908083838082843760405192019450600093509091505080830381855af49150503d80600081146100c6576040519150601f19603f3d011682016040523d82523d6000602084013e6100cb565b606091505b505090506040513d6000823e8180156100e2573d82f35b3d82fd5b3480156100f257600080fd5b506101196004803603602081101561010957600080fd5b50356001600160a01b03166101d0565b005b34801561012757600080fd5b50610130610308565b60408051918252519081900360200190f35b34801561014e57600080fd5b50610157610426565b604080516001600160a01b039092168252519081900360200190f35b34801561017f57600080fd5b50610157610435565b34801561019457600080fd5b50610157610444565b3480156101a957600080fd5b50610119600480360360208110156101c057600080fd5b50356001600160a01b0316610453565b600260009054906101000a90046001600160a01b03166001600160a01b031663e7f43c686040518163ffffffff1660e01b815260040160206040518083038186803b15801561021e57600080fd5b505afa158015610232573d6000803e3d6000fd5b505050506040513d602081101561024857600080fd5b50516001600160a01b031633146102a6576040805162461bcd60e51b815260206004820152601a60248201527f63616c6c6572206973206e6f7420746865206f70657261746f72000000000000604482015290519081900360640190fd5b600180546001600160a01b038381166001600160a01b0319831617928390556040805192821680845293909116602083015280517fe945ccee5d701fc83f9b8aa8ca94ea4219ec1fcbd4f4cab4f0ea57c5c3e1d8159281900390910190a15050565b6001546000906001600160a01b03163314801561032f57506001546001600160a01b031615155b61036a5760405162461bcd60e51b81526004018080602001828103825260218152602001806105a36021913960400191505060405180910390fd5b60008054600180546001600160a01b038082166001600160a01b031980861682179687905590921690925560408051938316808552949092166020840152815190927fd604de94d45953f9138079ec1b82d533cb2160c906d1076d1f7ed54befbca97a92908290030190a1600154604080516001600160a01b038085168252909216602083015280517fe945ccee5d701fc83f9b8aa8ca94ea4219ec1fcbd4f4cab4f0ea57c5c3e1d8159281900390910190a160009250505090565b6002546001600160a01b031681565b6000546001600160a01b031681565b6001546001600160a01b031681565b600260009054906101000a90046001600160a01b03166001600160a01b031663e7f43c686040518163ffffffff1660e01b815260040160206040518083038186803b1580156104a157600080fd5b505afa1580156104b5573d6000803e3d6000fd5b505050506040513d60208110156104cb57600080fd5b50516001600160a01b03163314610529576040805162461bcd60e51b815260206004820152601a60248201527f63616c6c6572206973206e6f7420746865206f70657261746f72000000000000604482015290519081900360640190fd5b61053b816001600160a01b031661059c565b61057a576040805162461bcd60e51b815260206004820152600b60248201526a085a5cd0dbdb9d1c9858dd60aa1b604482015290519081900360640190fd5b600280546001600160a01b0319166001600160a01b0392909216919091179055565b3b15159056fe2170656e64696e675269736b4d616e61676572496d706c656d656e746174696f6ea164736f6c634300060c000a"
}