{
  "address": "0x677140EB227374bdb8bFFcDe704E58996F65CC64",
  "abi": [
    {
      "inputs": [
        {
          "internalType": "address",
          "name": "_registry",
          "type": "address"
        },
        {
          "internalType": "address",
          "name": "_aaveV1ETHGatewayContract",
          "type": "address"
        }
      ],
      "stateMutability": "nonpayable",
      "type": "constructor"
    },
    {
      "anonymous": false,
      "inputs": [
        {
          "indexed": true,
          "internalType": "uint256",
          "name": "maxDepositAmount",
          "type": "uint256"
        },
        {
          "indexed": true,
          "internalType": "address",
          "name": "caller",
          "type": "address"
        }
      ],
      "name": "LogMaxDepositAmount",
      "type": "event"
    },
    {
      "anonymous": false,
      "inputs": [
        {
          "indexed": true,
          "internalType": "uint256",
          "name": "maxDepositPoolPct",
          "type": "uint256"
        },
        {
          "indexed": true,
          "internalType": "address",
          "name": "caller",
          "type": "address"
        }
      ],
      "name": "LogMaxDepositPoolPct",
      "type": "event"
    },
    {
      "anonymous": false,
      "inputs": [
        {
          "indexed": true,
          "internalType": "enum MaxExposure",
          "name": "maxDepositProtocolMode",
          "type": "uint8"
        },
        {
          "indexed": true,
          "internalType": "address",
          "name": "caller",
          "type": "address"
        }
      ],
      "name": "LogMaxDepositProtocolMode",
      "type": "event"
    },
    {
      "anonymous": false,
      "inputs": [
        {
          "indexed": true,
          "internalType": "uint256",
          "name": "maxDepositProtocolPct",
          "type": "uint256"
        },
        {
          "indexed": true,
          "internalType": "address",
          "name": "caller",
          "type": "address"
        }
      ],
      "name": "LogMaxDepositProtocolPct",
      "type": "event"
    },
    {
      "inputs": [],
      "name": "AETH",
      "outputs": [
        {
          "internalType": "address",
          "name": "",
          "type": "address"
        }
      ],
      "stateMutability": "view",
      "type": "function"
    },
    {
      "inputs": [],
      "name": "ETH",
      "outputs": [
        {
          "internalType": "address",
          "name": "",
          "type": "address"
        }
      ],
      "stateMutability": "view",
      "type": "function"
    },
    {
      "inputs": [],
      "name": "WETH",
      "outputs": [
        {
          "internalType": "address",
          "name": "",
          "type": "address"
        }
      ],
      "stateMutability": "view",
      "type": "function"
    },
    {
      "inputs": [],
      "name": "aaveV1ETHGatewayContract",
      "outputs": [
        {
          "internalType": "address",
          "name": "",
          "type": "address"
        }
      ],
      "stateMutability": "view",
      "type": "function"
    },
    {
      "inputs": [
        {
          "internalType": "address",
          "name": "",
          "type": "address"
        },
        {
          "internalType": "address",
          "name": "",
          "type": "address"
        },
        {
          "internalType": "uint256",
          "name": "_underlyingTokenAmount",
          "type": "uint256"
        }
      ],
      "name": "calculateAmountInLPToken",
      "outputs": [
        {
          "internalType": "uint256",
          "name": "",
          "type": "uint256"
        }
      ],
      "stateMutability": "view",
      "type": "function"
    },
    {
      "inputs": [
        {
          "internalType": "address payable",
          "name": "",
          "type": "address"
        },
        {
          "internalType": "address",
          "name": "",
          "type": "address"
        },
        {
          "internalType": "address",
          "name": "",
          "type": "address"
        },
        {
          "internalType": "uint256",
          "name": "_redeemAmount",
          "type": "uint256"
        }
      ],
      "name": "calculateRedeemableLPTokenAmount",
      "outputs": [
        {
          "internalType": "uint256",
          "name": "",
          "type": "uint256"
        }
      ],
      "stateMutability": "view",
      "type": "function"
    },
    {
      "inputs": [
        {
          "internalType": "address",
          "name": "",
          "type": "address"
        }
      ],
      "name": "canStake",
      "outputs": [
        {
          "internalType": "bool",
          "name": "",
          "type": "bool"
        }
      ],
      "stateMutability": "view",
      "type": "function"
    },
    {
      "inputs": [
        {
          "internalType": "address payable",
          "name": "_vault",
          "type": "address"
        },
        {
          "internalType": "address",
          "name": "_underlyingToken",
          "type": "address"
        },
        {
          "internalType": "address",
          "name": "_liquidityPoolAddressProvider",
          "type": "address"
        }
      ],
      "name": "getAllAmountInToken",
      "outputs": [
        {
          "internalType": "uint256",
          "name": "",
          "type": "uint256"
        }
      ],
      "stateMutability": "view",
      "type": "function"
    },
    {
      "inputs": [
        {
          "internalType": "address payable",
          "name": "_vault",
          "type": "address"
        },
        {
          "internalType": "address",
          "name": "_underlyingToken",
          "type": "address"
        },
        {
          "internalType": "address",
          "name": "_liquidityPoolAddressProvider",
          "type": "address"
        },
        {
          "internalType": "address",
          "name": "_borrowToken",
          "type": "address"
        },
        {
          "internalType": "uint256",
          "name": "_borrowAmount",
          "type": "uint256"
        }
      ],
      "name": "getAllAmountInTokenBorrow",
      "outputs": [
        {
          "internalType": "uint256",
          "name": "",
          "type": "uint256"
        }
      ],
      "stateMutability": "view",
      "type": "function"
    },
    {
      "inputs": [
        {
          "internalType": "address payable",
          "name": "_vault",
          "type": "address"
        },
        {
          "internalType": "address",
          "name": "_underlyingToken",
          "type": "address"
        },
        {
          "internalType": "address",
          "name": "_liquidityPoolAddressProvider",
          "type": "address"
        },
        {
          "internalType": "address",
          "name": "_outputToken",
          "type": "address"
        }
      ],
      "name": "getBorrowAllCodes",
      "outputs": [
        {
          "internalType": "bytes[]",
          "name": "_codes",
          "type": "bytes[]"
        }
      ],
      "stateMutability": "view",
      "type": "function"
    },
    {
      "inputs": [
        {
          "internalType": "address payable",
          "name": "_vault",
          "type": "address"
        },
        {
          "internalType": "address",
          "name": "_underlyingToken",
          "type": "address"
        },
        {
          "internalType": "address",
          "name": "_liquidityPoolAddressProvider",
          "type": "address"
        }
      ],
      "name": "getDepositAllCodes",
      "outputs": [
        {
          "internalType": "bytes[]",
          "name": "",
          "type": "bytes[]"
        }
      ],
      "stateMutability": "view",
      "type": "function"
    },
    {
      "inputs": [
        {
          "internalType": "address payable",
          "name": "_vault",
          "type": "address"
        },
        {
          "internalType": "address",
          "name": "_underlyingToken",
          "type": "address"
        },
        {
          "internalType": "address",
          "name": "_liquidityPoolAddressProvider",
          "type": "address"
        },
        {
          "internalType": "uint256",
          "name": "_amount",
          "type": "uint256"
        }
      ],
      "name": "getDepositSomeCodes",
      "outputs": [
        {
          "internalType": "bytes[]",
          "name": "_codes",
          "type": "bytes[]"
        }
      ],
      "stateMutability": "view",
      "type": "function"
    },
    {
      "inputs": [
        {
          "internalType": "address",
          "name": "_underlyingToken",
          "type": "address"
        },
        {
          "internalType": "address",
          "name": "_liquidityPoolAddressProvider",
          "type": "address"
        }
      ],
      "name": "getLiquidityPoolToken",
      "outputs": [
        {
          "internalType": "address",
          "name": "",
          "type": "address"
        }
      ],
      "stateMutability": "view",
      "type": "function"
    },
    {
      "inputs": [
        {
          "internalType": "address payable",
          "name": "_vault",
          "type": "address"
        },
        {
          "internalType": "address",
          "name": "_underlyingToken",
          "type": "address"
        },
        {
          "internalType": "address",
          "name": "_liquidityPoolAddressProvider",
          "type": "address"
        }
      ],
      "name": "getLiquidityPoolTokenBalance",
      "outputs": [
        {
          "internalType": "uint256",
          "name": "",
          "type": "uint256"
        }
      ],
      "stateMutability": "view",
      "type": "function"
    },
    {
      "inputs": [
        {
          "internalType": "address",
          "name": "_liquidityPoolAddressProvider",
          "type": "address"
        },
        {
          "internalType": "address",
          "name": "_underlyingToken",
          "type": "address"
        }
      ],
      "name": "getPoolValue",
      "outputs": [
        {
          "internalType": "uint256",
          "name": "",
          "type": "uint256"
        }
      ],
      "stateMutability": "view",
      "type": "function"
    },
    {
      "inputs": [
        {
          "internalType": "address payable",
          "name": "_vault",
          "type": "address"
        },
        {
          "internalType": "address",
          "name": "_underlyingToken",
          "type": "address"
        },
        {
          "internalType": "address",
          "name": "_liquidityPoolAddressProvider",
          "type": "address"
        },
        {
          "internalType": "address",
          "name": "_outputToken",
          "type": "address"
        }
      ],
      "name": "getRepayAndWithdrawAllCodes",
      "outputs": [
        {
          "internalType": "bytes[]",
          "name": "_codes",
          "type": "bytes[]"
        }
      ],
      "stateMutability": "view",
      "type": "function"
    },
    {
      "inputs": [
        {
          "internalType": "address",
          "name": "",
          "type": "address"
        }
      ],
      "name": "getRewardToken",
      "outputs": [
        {
          "internalType": "address",
          "name": "",
          "type": "address"
        }
      ],
      "stateMutability": "view",
      "type": "function"
    },
    {
      "inputs": [
        {
          "internalType": "address",
          "name": "",
          "type": "address"
        },
        {
          "internalType": "address",
          "name": "",
          "type": "address"
        },
        {
          "internalType": "uint256",
          "name": "_liquidityPoolTokenAmount",
          "type": "uint256"
        }
      ],
      "name": "getSomeAmountInToken",
      "outputs": [
        {
          "internalType": "uint256",
          "name": "",
          "type": "uint256"
        }
      ],
      "stateMutability": "view",
      "type": "function"
    },
    {
      "inputs": [
        {
          "internalType": "address payable",
          "name": "_vault",
          "type": "address"
        },
        {
          "internalType": "address",
          "name": "_underlyingToken",
          "type": "address"
        },
        {
          "internalType": "address",
          "name": "_liquidityPoolAddressProvider",
          "type": "address"
        },
        {
          "internalType": "uint256",
          "name": "_liquidityPoolTokenBalance",
          "type": "uint256"
        },
        {
          "internalType": "address",
          "name": "_borrowToken",
          "type": "address"
        },
        {
          "internalType": "uint256",
          "name": "_borrowAmount",
          "type": "uint256"
        }
      ],
      "name": "getSomeAmountInTokenBorrow",
      "outputs": [
        {
          "internalType": "uint256",
          "name": "",
          "type": "uint256"
        }
      ],
      "stateMutability": "view",
      "type": "function"
    },
    {
      "inputs": [
        {
          "internalType": "address",
          "name": "",
          "type": "address"
        },
        {
          "internalType": "address",
          "name": "_liquidityPoolToken",
          "type": "address"
        }
      ],
      "name": "getUnderlyingTokens",
      "outputs": [
        {
          "internalType": "address[]",
          "name": "_underlyingTokens",
          "type": "address[]"
        }
      ],
      "stateMutability": "view",
      "type": "function"
    },
    {
      "inputs": [
        {
          "internalType": "address payable",
          "name": "_vault",
          "type": "address"
        },
        {
          "internalType": "address",
          "name": "_underlyingToken",
          "type": "address"
        },
        {
          "internalType": "address",
          "name": "_liquidityPoolAddressProvider",
          "type": "address"
        }
      ],
      "name": "getWithdrawAllCodes",
      "outputs": [
        {
          "internalType": "bytes[]",
          "name": "_codes",
          "type": "bytes[]"
        }
      ],
      "stateMutability": "view",
      "type": "function"
    },
    {
      "inputs": [
        {
          "internalType": "address payable",
          "name": "_vault",
          "type": "address"
        },
        {
          "internalType": "address",
          "name": "_underlyingToken",
          "type": "address"
        },
        {
          "internalType": "address",
          "name": "_liquidityPoolAddressProvider",
          "type": "address"
        },
        {
          "internalType": "uint256",
          "name": "_amount",
          "type": "uint256"
        }
      ],
      "name": "getWithdrawSomeCodes",
      "outputs": [
        {
          "internalType": "bytes[]",
          "name": "_codes",
          "type": "bytes[]"
        }
      ],
      "stateMutability": "view",
      "type": "function"
    },
    {
      "inputs": [],
      "name": "healthFactor",
      "outputs": [
        {
          "internalType": "uint256",
          "name": "",
          "type": "uint256"
        }
      ],
      "stateMutability": "view",
      "type": "function"
    },
    {
      "inputs": [
        {
          "internalType": "address payable",
          "name": "_vault",
          "type": "address"
        },
        {
          "internalType": "address",
          "name": "_underlyingToken",
          "type": "address"
        },
        {
          "internalType": "address",
          "name": "_liquidityPool",
          "type": "address"
        },
        {
          "internalType": "uint256",
          "name": "_redeemAmount",
          "type": "uint256"
        }
      ],
      "name": "isRedeemableAmountSufficient",
      "outputs": [
        {
          "internalType": "bool",
          "name": "",
          "type": "bool"
        }
      ],
      "stateMutability": "view",
      "type": "function"
    },
    {
      "inputs": [],
      "name": "ltv",
      "outputs": [
        {
          "internalType": "uint256",
          "name": "",
          "type": "uint256"
        }
      ],
      "stateMutability": "view",
      "type": "function"
    },
    {
      "inputs": [],
      "name": "max",
      "outputs": [
        {
          "internalType": "uint256",
          "name": "",
          "type": "uint256"
        }
      ],
      "stateMutability": "view",
      "type": "function"
    },
    {
      "inputs": [
        {
          "internalType": "address",
          "name": "",
          "type": "address"
        },
        {
          "internalType": "address",
          "name": "",
          "type": "address"
        }
      ],
      "name": "maxDepositAmount",
      "outputs": [
        {
          "internalType": "uint256",
          "name": "",
          "type": "uint256"
        }
      ],
      "stateMutability": "view",
      "type": "function"
    },
    {
      "inputs": [
        {
          "internalType": "address",
          "name": "",
          "type": "address"
        }
      ],
      "name": "maxDepositPoolPct",
      "outputs": [
        {
          "internalType": "uint256",
          "name": "",
          "type": "uint256"
        }
      ],
      "stateMutability": "view",
      "type": "function"
    },
    {
      "inputs": [],
      "name": "maxDepositProtocolMode",
      "outputs": [
        {
          "internalType": "enum MaxExposure",
          "name": "",
          "type": "uint8"
        }
      ],
      "stateMutability": "view",
      "type": "function"
    },
    {
      "inputs": [],
      "name": "maxDepositProtocolPct",
      "outputs": [
        {
          "internalType": "uint256",
          "name": "",
          "type": "uint256"
        }
      ],
      "stateMutability": "view",
      "type": "function"
    },
    {
      "inputs": [],
      "name": "registryContract",
      "outputs": [
        {
          "internalType": "contract IRegistry",
          "name": "",
          "type": "address"
        }
      ],
      "stateMutability": "view",
      "type": "function"
    },
    {
      "inputs": [
        {
          "internalType": "address",
          "name": "_liquidityPool",
          "type": "address"
        },
        {
          "internalType": "address",
          "name": "_underlyingToken",
          "type": "address"
        },
        {
          "internalType": "uint256",
          "name": "_maxDepositAmount",
          "type": "uint256"
        }
      ],
      "name": "setMaxDepositAmount",
      "outputs": [],
      "stateMutability": "nonpayable",
      "type": "function"
    },
    {
      "inputs": [
        {
          "internalType": "address",
          "name": "_liquidityPool",
          "type": "address"
        },
        {
          "internalType": "uint256",
          "name": "_maxDepositPoolPct",
          "type": "uint256"
        }
      ],
      "name": "setMaxDepositPoolPct",
      "outputs": [],
      "stateMutability": "nonpayable",
      "type": "function"
    },
    {
      "inputs": [
        {
          "internalType": "enum MaxExposure",
          "name": "_mode",
          "type": "uint8"
        }
      ],
      "name": "setMaxDepositProtocolMode",
      "outputs": [],
      "stateMutability": "nonpayable",
      "type": "function"
    },
    {
      "inputs": [
        {
          "internalType": "uint256",
          "name": "_maxDepositProtocolPct",
          "type": "uint256"
        }
      ],
      "name": "setMaxDepositProtocolPct",
      "outputs": [],
      "stateMutability": "nonpayable",
      "type": "function"
    },
    {
      "inputs": [
        {
          "internalType": "address",
          "name": "_registry",
          "type": "address"
        }
      ],
      "name": "setRegistry",
      "outputs": [],
      "stateMutability": "nonpayable",
      "type": "function"
    }
  ],
  "transactionHash": "0x6f8f6add7508f6301ee9bbbdd23e61644043688337075264d9dddb7e3a11b1f0",
  "args": [
    "0x99fa011e33a8c6196869dec7bc407e896ba67fe3",
    "0x68d2BA9fc2009c39384F5a0e28a4f1E72E6AB1fA"
  ],
  "numDeployments": 1,
  "bytecode": "0x60a060405260028055604160035560646004553480156200001f57600080fd5b50604051620034d1380380620034d1833981016040819052620000429162000094565b600080546001600160a01b0319166001600160a01b03841617808255606083901b6001600160601b0319166080526127106001908155919060ff60a01b1916600160a01b8302179055505050620000eb565b60008060408385031215620000a7578182fd5b8251620000b481620000d2565b6020840151909250620000c781620000d2565b809150509250929050565b6001600160a01b0381168114620000e857600080fd5b50565b60805160601c6133aa62000127600039806109c25280610a6b5280610afe5280610c7452806119345280611a335280611aec52506133aa6000f3fe608060405234801561001057600080fd5b506004361061021c5760003560e01c80638322fff211610125578063d74baaf8116100ad578063ee665bed1161007c578063ee665bed14610379578063ef856be914610447578063f1aacbb714610467578063f49307ca1461047a578063f5f55b7d1461048d5761021c565b8063d74baaf8146103fb578063da699f961461040e578063df93572214610421578063e49d5ecc146104345761021c565b8063919b69d7116100f4578063919b69d7146103a757806398c43ef9146103ba578063a91ee0dc146103cd578063aa5ced22146103e0578063ad5c4648146103f35761021c565b80638322fff21461037157806385541e441461037957806389257a121461038c57806390e61605146103945761021c565b80634f83b52d116101a85780636ac5db19116101775780636ac5db19146103365780636ccc7a051461033e5780636fb49d7314610346578063770788721461034e5780637c47b3f41461035c5761021c565b80634f83b52d146102ea5780635c69c394146102fd578063609257791461031057806364dd5f80146103235761021c565b80632af06b96116101ef5780632af06b961461026f5780632de778381461028457806336d8bf9314610297578063489b5295146102b75780634ad36e02146102d75761021c565b8063027a304d14610221578063191c194b1461024a57806322841f011461025257806328c1f99b1461025a575b600080fd5b61023461022f366004612b04565b6104a0565b6040516102419190613355565b60405180910390f35b6102346104bd565b6102346104c3565b6102626104c9565b6040516102419190612ea8565b6102776104d8565b6040516102419190613116565b610234610292366004612b04565b6104e8565b6102aa6102a5366004612905565b610584565b604051610241919061310b565b6102ca6102c536600461293d565b61058a565b60405161024191906130ab565b6102346102e5366004612a45565b610623565b6102346102f8366004612905565b61062d565b6102ca61030b366004612987565b61063f565b6102ca61031e366004612a45565b610946565b61023461033136600461293d565b610c5f565b610234610c6c565b610262610c72565b610234610c96565b6102626102a5366004612905565b61036f61036a366004612ba7565b610c9c565b005b610262610dc3565b610234610387366004612b3c565b61057e565b610262610ddb565b6102346103a236600461293d565b610df3565b61036f6103b5366004612b7c565b610e82565b6102ca6103c8366004612987565b610fad565b61036f6103db366004612905565b61139e565b6102346103ee366004612a95565b6114a2565b61026261160d565b610262610409366004612b04565b611625565b61036f61041c366004612e0c565b6116ce565b6102ca61042f366004612a45565b6117b7565b6102aa610442366004612a45565b611c37565b61045a610455366004612b04565b611c52565b604051610241919061305e565b61036f610475366004612b3c565b611d18565b6102ca61048836600461293d565b611e8c565b61023461049b3660046129e2565b611f98565b600660209081526000928352604080842090915290825290205481565b60015481565b60025481565b6000546001600160a01b031681565b600054600160a01b900460ff1681565b60006104f383611fcf565b6001600160a01b03166335ea6a7561050a84612042565b6040518263ffffffff1660e01b81526004016105269190612ea8565b6101a06040518083038186803b15801561053f57600080fd5b505afa158015610553573d6000803e3d6000fd5b505050506040513d601f19601f820116820180604052508101906105779190612c5e565b6020015190505b92915050565b50600090565b60606000836001600160a01b03166370a08231866040518263ffffffff1660e01b81526004016105ba9190612ea8565b60206040518083038186803b1580156105d257600080fd5b505afa1580156105e6573d6000803e3d6000fd5b505050506040513d601f19601f8201168201806040525081019061060a9190612e24565b9050610618858585846117b7565b9150505b9392505050565b805b949350505050565b60056020526000908152604090205481565b606061064a84612042565b9350600061065784612089565b9050600061066485611fcf565b90506000610673888888610df3565b90506000856001600160a01b03166370a082318a6040518263ffffffff1660e01b81526004016106a39190612ea8565b60206040518083038186803b1580156106bb57600080fd5b505afa1580156106cf573d6000803e3d6000fd5b505050506040513d601f19601f820116820180604052508101906106f39190612e24565b905060006107048a85858a866120c4565b905060006107158b8b8b8b86612138565b9050801561093857828111156107285750815b80156109385760408051600480825260a0820190925290816020015b606081526020019060019003908161074457905050965087866000604051602401610770929190612fd3565b60408051601f19818403018152918152602080830180516001600160e01b031663095ea7b360e01b17905290516107a993929101612faf565b604051602081830303815290604052876000815181106107c557fe5b60200260200101819052508786846040516024016107e4929190612fd3565b60408051601f19818403018152918152602080830180516001600160e01b031663095ea7b360e01b179052905161081d93929101612faf565b6040516020818303038152906040528760018151811061083957fe5b60200260200101819052508488848d60405160240161085a93929190612fec565b60408051601f19818403018152918152602080830180516001600160e01b031663173aba7160e21b179052905161089393929101612faf565b604051602081830303815290604052876002815181106108af57fe5b60200260200101819052506108c48a8a611625565b6000196040516024016108d79190613355565b60408051601f19818403018152918152602080830180516001600160e01b031663db006a7560e01b179052905161091093929101612faf565b6040516020818303038152906040528760038151811061092c57fe5b60200260200101819052505b505050505050949350505050565b606061095184612042565b93508115610625576001600160a01b03841673eeeeeeeeeeeeeeeeeeeeeeeeeeeeeeeeeeeeeeee1415610bb0576040805160038082526080820190925290816020015b6060815260200190600190039081610994579050509050733a3a65aab0dd2a17e3f1947ba16138cd37d08c047f000000000000000000000000000000000000000000000000000000000000000060006040516024016109f4929190612fd3565b60408051601f19818403018152918152602080830180516001600160e01b031663095ea7b360e01b1790529051610a2d93929101612faf565b60405160208183030381529060405281600081518110610a4957fe5b6020026020010181905250733a3a65aab0dd2a17e3f1947ba16138cd37d08c047f000000000000000000000000000000000000000000000000000000000000000083604051602401610a9c929190612fd3565b60408051601f19818403018152918152602080830180516001600160e01b031663095ea7b360e01b1790529051610ad593929101612faf565b60405160208183030381529060405281600181518110610af157fe5b60200260200101819052507f00000000000000000000000000000000000000000000000000000000000000008584733a3a65aab0dd2a17e3f1947ba16138cd37d08c04856000604051602401610b4b959493929190612f1f565b60408051601f19818403018152918152602080830180516001600160e01b0316631ff2027560e11b1790529051610b8493929101612faf565b60405160208183030381529060405281600281518110610ba057fe5b6020026020010181905250610625565b60408051600180825281830190925290816020015b6060815260200190600190039081610bc5579050509050610be68484611625565b82604051602401610bf79190613355565b60408051601f19818403018152918152602080830180516001600160e01b031663db006a7560e01b1790529051610c3093929101612faf565b60405160208183030381529060405281600081518110610c4c57fe5b6020026020010181905250949350505050565b6000610625848484610df3565b60045481565b7f000000000000000000000000000000000000000000000000000000000000000081565b60035481565b60008054906101000a90046001600160a01b03166001600160a01b0316637af0e5576040518163ffffffff1660e01b815260040160206040518083038186803b158015610ce857600080fd5b505afa158015610cfc573d6000803e3d6000fd5b505050506040513d601f19601f82011682018060405250810190610d209190612921565b6001600160a01b0316336001600160a01b031614610d595760405162461bcd60e51b8152600401610d509061331e565b60405180910390fd5b6000805482919060ff60a01b1916600160a01b836001811115610d7857fe5b02179055506000543390600160a01b900460ff166001811115610d9757fe5b6040517f68e3b01155b193b02181f2c0ed491c934a74348d211ff023f8fc6ac5edf22aa090600090a350565b73eeeeeeeeeeeeeeeeeeeeeeeeeeeeeeeeeeeeeeee81565b733a3a65aab0dd2a17e3f1947ba16138cd37d08c0481565b6000610e07610e0184612042565b83611625565b6001600160a01b03166370a08231856040518263ffffffff1660e01b8152600401610e329190612ea8565b60206040518083038186803b158015610e4a57600080fd5b505afa158015610e5e573d6000803e3d6000fd5b505050506040513d601f19601f820116820180604052508101906106259190612e24565b60008054906101000a90046001600160a01b03166001600160a01b0316637af0e5576040518163ffffffff1660e01b815260040160206040518083038186803b158015610ece57600080fd5b505afa158015610ee2573d6000803e3d6000fd5b505050506040513d601f19601f82011682018060405250810190610f069190612921565b6001600160a01b0316336001600160a01b031614610f365760405162461bcd60e51b8152600401610d509061331e565b610f48826001600160a01b0316612255565b610f645760405162461bcd60e51b8152600401610d509061328b565b6001600160a01b03821660009081526005602052604080822083905551339183917fac58e29a41d996caca756d050dce90806b277f0c939337653638329247e16f4c9190a35050565b6060610fb884612042565b93506000610fc584611fcf565b9050610fcf6127d4565b604051633e15014160e01b81526001600160a01b03831690633e15014190610ffb908990600401612ea8565b6101006040518083038186803b15801561101457600080fd5b505afa158015611028573d6000803e3d6000fd5b505050506040513d601f19601f8201168201806040525081019061104c9190612bc6565b90506110566127d4565b604051633e15014160e01b81526001600160a01b03841690633e15014190611082908890600401612ea8565b6101006040518083038186803b15801561109b57600080fd5b505afa1580156110af573d6000803e3d6000fd5b505050506040513d601f19601f820116820180604052508101906110d39190612bc6565b90508160e0015180156110e7575081608001515b80156110f457508060e001515b801561110157508060a001515b61111d5760405162461bcd60e51b8152600401610d509061326a565b600061112a89888861225b565b90508015611392576040516328dd2d0160e01b81526000906001600160a01b038616906328dd2d0190611163908c908e90600401612f56565b6101406040518083038186803b15801561117c57600080fd5b505afa158015611190573d6000803e3d6000fd5b505050506040513d601f19601f820116820180604052508101906111b49190612d89565b6101200151905060008360c001516111cd5760026111d0565b60015b905081156112825760408051600180825281830190925290816020015b60608152602001906001900390816111ed57905050965085888483600060405160240161121d9493929190613034565b60408051601f19818403018152918152602080830180516001600160e01b031663c858f5f960e01b179052905161125693929101612faf565b6040516020818303038152906040528760008151811061127257fe5b6020026020010181905250610938565b6040805160028082526060820190925290816020015b6060815260200190600190039081611298579050509650858a60016040516024016112c4929190612f94565b60408051601f19818403018152918152602080830180516001600160e01b0316635a3b74b960e01b17905290516112fd93929101612faf565b6040516020818303038152906040528760008151811061131957fe5b602002602001018190525085888483600060405160240161133d9493929190613034565b60408051601f19818403018152918152602080830180516001600160e01b031663c858f5f960e01b179052905161137693929101612faf565b6040516020818303038152906040528760018151811061092c57fe5b50505050949350505050565b60008054906101000a90046001600160a01b03166001600160a01b031663e7f43c686040518163ffffffff1660e01b815260040160206040518083038186803b1580156113ea57600080fd5b505afa1580156113fe573d6000803e3d6000fd5b505050506040513d601f19601f820116820180604052508101906114229190612921565b6001600160a01b0316336001600160a01b0316146114525760405162461bcd60e51b8152600401610d5090613198565b611464816001600160a01b0316612255565b6114805760405162461bcd60e51b8152600401610d509061328b565b600080546001600160a01b0319166001600160a01b0392909216919091179055565b60006114ad86612042565b955060006114ba86611fcf565b905060006114cb89838888886120c4565b905060006114dc8a8a8a8986612138565b9050848111156114f0575091506116039050565b6000546040805163450b674360e11b815290516115fd926001600160a01b031691638a16ce86916004808301926020929190829003018186803b15801561153657600080fd5b505afa15801561154a573d6000803e3d6000fd5b505050506040513d601f19601f8201168201806040525081019061156e9190612921565b6001600160a01b0316634df044a0888c6115888a876122cb565b6040518463ffffffff1660e01b81526004016115a693929190612f70565b60206040518083038186803b1580156115be57600080fd5b505afa1580156115d2573d6000803e3d6000fd5b505050506040513d601f19601f820116820180604052508101906115f69190612e24565b83906122f3565b93505050505b9695505050505050565b73c02aaa39b223fe8d0a0e5c4f27ead9083c756cc281565b60008061163183611fcf565b905061163b612818565b816001600160a01b03166335ea6a7561165387612042565b6040518263ffffffff1660e01b815260040161166f9190612ea8565b6101a06040518083038186803b15801561168857600080fd5b505afa15801561169c573d6000803e3d6000fd5b505050506040513d601f19601f820116820180604052508101906116c09190612c5e565b610160015195945050505050565b60008054906101000a90046001600160a01b03166001600160a01b0316637af0e5576040518163ffffffff1660e01b815260040160206040518083038186803b15801561171a57600080fd5b505afa15801561172e573d6000803e3d6000fd5b505050506040513d601f19601f820116820180604052508101906117529190612921565b6001600160a01b0316336001600160a01b0316146117825760405162461bcd60e51b8152600401610d509061331e565b6001819055604051339082907f19c60b0612798cc65bd298cd47e17d9fd07e74e0d3baa6c0019411bb334d9bda90600090a350565b60606117c284612042565b935060006117d1848685612318565b90508015611c2e5760006117e485611fcf565b90506117ee6127d4565b604051633e15014160e01b81526001600160a01b03831690633e1501419061181a908a90600401612ea8565b6101006040518083038186803b15801561183357600080fd5b505afa158015611847573d6000803e3d6000fd5b505050506040513d601f19601f8201168201806040525081019061186b9190612bc6565b90508060e0015161188e5760405162461bcd60e51b8152600401610d5090613206565b600061189987612089565b60408051600380825260808201909252919250816020015b60608152602001906001900390816118b15790505094506001600160a01b03881673eeeeeeeeeeeeeeeeeeeeeeeeeeeeeeeeeeeeeeee146118f25787611908565b73c02aaa39b223fe8d0a0e5c4f27ead9083c756cc25b6001600160a01b03891673eeeeeeeeeeeeeeeeeeeeeeeeeeeeeeeeeeeeeeee146119325781611954565b7f00000000000000000000000000000000000000000000000000000000000000005b6000604051602401611967929190612fd3565b60408051601f19818403018152918152602080830180516001600160e01b031663095ea7b360e01b17905290516119a093929101612faf565b604051602081830303815290604052856000815181106119bc57fe5b60209081029190910101526001600160a01b03881673eeeeeeeeeeeeeeeeeeeeeeeeeeeeeeeeeeeeeeee146119f15787611a07565b73c02aaa39b223fe8d0a0e5c4f27ead9083c756cc25b6001600160a01b03891673eeeeeeeeeeeeeeeeeeeeeeeeeeeeeeeeeeeeeeee14611a315781611a53565b7f00000000000000000000000000000000000000000000000000000000000000005b85604051602401611a65929190612fd3565b60408051601f19818403018152918152602080830180516001600160e01b031663095ea7b360e01b1790529051611a9e93929101612faf565b60405160208183030381529060405285600181518110611aba57fe5b60209081029190910101526001600160a01b03881673eeeeeeeeeeeeeeeeeeeeeeeeeeeeeeeeeeeeeeee1415611bb3577f00000000000000000000000000000000000000000000000000000000000000008988733a3a65aab0dd2a17e3f1947ba16138cd37d08c04604051806040016040528089815260200160008152506000604051602401611b4e959493929190612ebc565b60408051601f19818403018152918152602080830180516001600160e01b0316632c12c6b160e21b1790529051611b8793929101612faf565b60405160208183030381529060405285600281518110611ba357fe5b6020026020010181905250611392565b8288856000604051602401611bca9392919061300f565b60408051601f19818403018152918152602080830180516001600160e01b0316636968703360e11b1790529051611c0393929101612faf565b60405160208183030381529060405285600281518110611c1f57fe5b60200260200101819052505050505b50949350505050565b600080611c45868686610c5f565b9092111595945050505050565b60408051600180825281830190925260609160208083019080368337019050509050816001600160a01b03166389d1a0fc6040518163ffffffff1660e01b815260040160206040518083038186803b158015611cad57600080fd5b505afa158015611cc1573d6000803e3d6000fd5b505050506040513d601f19601f82011682018060405250810190611ce59190612921565b81600081518110611cf257fe5b60200260200101906001600160a01b031690816001600160a01b03168152505092915050565b60008054906101000a90046001600160a01b03166001600160a01b0316637af0e5576040518163ffffffff1660e01b815260040160206040518083038186803b158015611d6457600080fd5b505afa158015611d78573d6000803e3d6000fd5b505050506040513d601f19601f82011682018060405250810190611d9c9190612921565b6001600160a01b0316336001600160a01b031614611dcc5760405162461bcd60e51b8152600401610d509061331e565b611dde836001600160a01b0316612255565b611dfa5760405162461bcd60e51b8152600401610d50906132e7565b611e0c826001600160a01b0316612255565b611e285760405162461bcd60e51b8152600401610d50906132b0565b611e3182612042565b6001600160a01b03848116600090815260066020908152604080832093851683529290528181208490559051919350339183917f197807a6a2633dd9bde6550aca985cfc69e655e9130930314c0e9da01a75cc5491a3505050565b60606000611e9b858585610df3565b90508015611f9057611eac84612042565b93506001600160a01b03841673eeeeeeeeeeeeeeeeeeeeeeeeeeeeeeeeeeeeeeee1415611ee657611edf85858584610946565b9150611f90565b60408051600180825281830190925290816020015b6060815260200190600190039081611efb579050509150611f1c8484611625565b600019604051602401611f2f9190613355565b60408051601f19818403018152918152602080830180516001600160e01b031663db006a7560e01b1790529051611f6893929101612faf565b60405160208183030381529060405282600081518110611f8457fe5b60200260200101819052505b509392505050565b6000611fa385612042565b94506000611fb2878787610df3565b9050611fc28787878488886114a2565b9150505b95945050505050565b6000816001600160a01b0316630261bf8b6040518163ffffffff1660e01b815260040160206040518083038186803b15801561200a57600080fd5b505afa15801561201e573d6000803e3d6000fd5b505050506040513d601f19601f8201168201806040525081019061057e9190612921565b60006001600160a01b03821673c02aaa39b223fe8d0a0e5c4f27ead9083c756cc21461206e578161057e565b5073eeeeeeeeeeeeeeeeeeeeeeeeeeeeeeeeeeeeeeee919050565b6000816001600160a01b031663ed6ff7606040518163ffffffff1660e01b815260040160206040518083038186803b15801561200a57600080fd5b6000806120ef670de0b6b3a76400006120e96120e28a8a898961238a565b88906123a8565b906123e2565b9050848111156121025784915050611fc6565b600061210e86836122cb565b905061212f612128600254836123a890919063ffffffff16565b87906122cb565b92505050611fc6565b600080612146868685612414565b905060008061215589886124e0565b50909250905061216b60646120e98460696123a8565b91508183111561217e576000915061218b565b61218882846122cb565b91505b808210156122495760006121ad826120e96121a682876122cb565b85906123a8565b905061223d6121bc89896125b3565b6120e9896001600160a01b031663313ce5676040518163ffffffff1660e01b815260040160206040518083038186803b1580156121f857600080fd5b505afa15801561220c573d6000803e3d6000fd5b505050506040513d601f19601f820116820180604052508101906122309190612e3c565b849060ff16600a0a6123a8565b9450611fc69350505050565b60009350505050611fc6565b3b151590565b60008061226885856125bf565b905080156122c1576122b961227d85856125b3565b6120e9856001600160a01b031663313ce5676040518163ffffffff1660e01b815260040160206040518083038186803b1580156121f857600080fd5b91505061061c565b600091505061061c565b6000828211156122ed5760405162461bcd60e51b8152600401610d5090613161565b50900390565b60008282018381101561061c5760405162461bcd60e51b8152600401610d509061312a565b600061232383612042565b925060006001600054600160a01b900460ff16600181111561234157fe5b14612371576001600160a01b0380861660009081526006602090815260408083209388168352929052205461237b565b61237b858561261e565b90508083116106255782610618565b6000611fc661239a86868661267d565b6120e984670de0b6b3a76400005b6000826123b75750600061057e565b828202828482816123c457fe5b041461061c5760405162461bcd60e51b8152600401610d5090613229565b60008082116124035760405162461bcd60e51b8152600401610d50906131cf565b81838161240c57fe5b049392505050565b600061241f84612042565b9350600061242d8585611625565b90506124bd816001600160a01b031663313ce5676040518163ffffffff1660e01b815260040160206040518083038186803b15801561246b57600080fd5b505afa15801561247f573d6000803e3d6000fd5b505050506040513d601f19601f820116820180604052508101906124a39190612e3c565b60ff16600a0a6120e96124b687896125b3565b86906123a8565b92506106186002546120e96004546120e9600354886123a890919063ffffffff16565b60008060006124ed612890565b6124f685611fcf565b6001600160a01b031663bf92857c876040518263ffffffff1660e01b81526004016125219190612ea8565b6101006040518083038186803b15801561253a57600080fd5b505afa15801561254e573d6000803e3d6000fd5b505050506040513d601f19601f820116820180604052508101906125729190612d17565b6040810151608082015191925090600061258c83836122f3565b90506125a3600254826123e290919063ffffffff16565b9650919450925050509250925092565b600061061c838361270b565b6000806000806125cf86866124e0565b919450925090506125e660646120e985605f6123a8565b92508183111561261257612608816120e961260186866122cb565b84906123a8565b935050505061057e565b6000935050505061057e565b60008061262b84846104e8565b6001600160a01b03851660009081526005602052604081205491925081156126625761265d6127106120e985856123a8565b611603565b6116036127106120e9600154866123a890919063ffffffff16565b6040516328dd2d0160e01b81526000906001600160a01b038416906328dd2d01906126ae9085908890600401612f56565b6101406040518083038186803b1580156126c757600080fd5b505afa1580156126db573d6000803e3d6000fd5b505050506040513d601f19601f820116820180604052508101906126ff9190612d89565b60200151949350505050565b600061271683612799565b6001600160a01b031663b3596f0761272d84612042565b6040518263ffffffff1660e01b81526004016127499190612ea8565b60206040518083038186803b15801561276157600080fd5b505afa158015612775573d6000803e3d6000fd5b505050506040513d601f19601f8201168201806040525081019061061c9190612e24565b6000816001600160a01b031663fca513a86040518163ffffffff1660e01b815260040160206040518083038186803b15801561200a57600080fd5b6040805161010081018252600080825260208201819052918101829052606081018290526080810182905260a0810182905260c0810182905260e081019190915290565b604051806101a00160405280600081526020016000815260200160008152602001600081526020016000815260200160008152602001600081526020016000815260200160008152602001600081526020016000815260200160006001600160a01b03168152602001600064ffffffffff1681525090565b60405180610100016040528060008152602001600081526020016000815260200160008152602001600081526020016000815260200160008152602001600081525090565b805161057e81613385565b8051801515811461057e57600080fd5b805164ffffffffff8116811461057e57600080fd5b600060208284031215612916578081fd5b813561061c81613385565b600060208284031215612932578081fd5b815161061c81613385565b600080600060608486031215612951578182fd5b833561295c81613385565b9250602084013561296c81613385565b9150604084013561297c81613385565b809150509250925092565b6000806000806080858703121561299c578081fd5b84356129a781613385565b935060208501356129b781613385565b925060408501356129c781613385565b915060608501356129d781613385565b939692955090935050565b600080600080600060a086880312156129f9578283fd5b8535612a0481613385565b94506020860135612a1481613385565b93506040860135612a2481613385565b92506060860135612a3481613385565b949793965091946080013592915050565b60008060008060808587031215612a5a578182fd5b8435612a6581613385565b93506020850135612a7581613385565b92506040850135612a8581613385565b9396929550929360600135925050565b60008060008060008060c08789031215612aad578384fd5b8635612ab881613385565b95506020870135612ac881613385565b94506040870135612ad881613385565b9350606087013592506080870135612aef81613385565b8092505060a087013590509295509295509295565b60008060408385031215612b16578182fd5b8235612b2181613385565b91506020830135612b3181613385565b809150509250929050565b600080600060608486031215612b50578081fd5b8335612b5b81613385565b92506020840135612b6b81613385565b929592945050506040919091013590565b60008060408385031215612b8e578182fd5b8235612b9981613385565b946020939093013593505050565b600060208284031215612bb8578081fd5b81356002811061061c578182fd5b6000610100808385031215612bd9578182fd5b612be28161335e565b90508251815260208301516020820152604083015160408201526060830151612c0a81613385565b6060820152612c1c84608085016128e0565b6080820152612c2e8460a085016128e0565b60a0820152612c408460c085016128e0565b60c0820152612c528460e085016128e0565b60e08201529392505050565b60006101a0808385031215612c71578182fd5b612c7a8161335e565b9050825181526020830151602082015260408301516040820152606083015160608201526080830151608082015260a083015160a082015260c083015160c082015260e083015160e0820152610100808401518183015250610120808401518183015250610140808401518183015250610160612cf9858286016128d5565b90820152610180612d0c858583016128f0565b908201529392505050565b6000610100808385031215612d2a578182fd5b612d338161335e565b9050825181526020830151602082015260408301516040820152606083015160608201526080830151608082015260a083015160a082015260c083015160c082015260e083015160e08201528091505092915050565b6000610140808385031215612d9c578182fd5b612da58161335e565b9050825181526020830151602082015260408301516040820152606083015160608201526080830151608082015260a083015160a082015260c083015160c082015260e083015160e0820152610100808401518183015250610120612d0c858286016128e0565b600060208284031215612e1d578081fd5b5035919050565b600060208284031215612e35578081fd5b5051919050565b600060208284031215612e4d578081fd5b815160ff8116811461061c578182fd5b60008151808452815b81811015612e8257602081850181015186830182015201612e66565b81811115612e935782602083870101525b50601f01601f19169290920160200192915050565b6001600160a01b0391909116815260200190565b6001600160a01b038681168252858116602080840191909152908516604083015260c082019060608301908560005b6002811015612f0857815184529282019290820190600101612eeb565b5050505082600f0b60a08301529695505050505050565b6001600160a01b03958616815293851660208501529190931660408301526060820192909252600f9190910b608082015260a00190565b6001600160a01b0392831681529116602082015260400190565b6001600160a01b039384168152919092166020820152604081019190915260600190565b6001600160a01b039290921682521515602082015260400190565b6001600160a01b038316815260406020820181905260009061062590830184612e5d565b6001600160a01b03929092168252602082015260400190565b6001600160a01b0393841681526020810192909252909116604082015260600190565b6001600160a01b03939093168352602083019190915261ffff16604082015260600190565b6001600160a01b039490941684526020840192909252604083015261ffff16606082015260800190565b6020808252825182820181905260009190848201906040850190845b8181101561309f5783516001600160a01b03168352928401929184019160010161307a565b50909695505050505050565b6000602080830181845280855180835260408601915060408482028701019250838701855b828110156130fe57603f198886030184526130ec858351612e5d565b945092850192908501906001016130d0565b5092979650505050505050565b901515815260200190565b602081016002831061312457fe5b91905290565b6020808252601b908201527f536166654d6174683a206164646974696f6e206f766572666c6f770000000000604082015260600190565b6020808252601e908201527f536166654d6174683a207375627472616374696f6e206f766572666c6f770000604082015260600190565b6020808252601a908201527f63616c6c6572206973206e6f7420746865206f70657261746f72000000000000604082015260600190565b6020808252601a908201527f536166654d6174683a206469766973696f6e206279207a65726f000000000000604082015260600190565b60208082526009908201526821697341637469766560b81b604082015260600190565b60208082526021908201527f536166654d6174683a206d756c7469706c69636174696f6e206f766572666c6f6040820152607760f81b606082015260800190565b60208082526007908201526621626f72726f7760c81b604082015260600190565b6020808252600b908201526a085a5cd0dbdb9d1c9858dd60aa1b604082015260600190565b6020808252601e908201527f215f756e6465726c79696e67546f6b656e2e6973436f6e747261637428290000604082015260600190565b6020808252601c908201527f215f6c6971756964697479506f6f6c2e6973436f6e7472616374282900000000604082015260600190565b6020808252601e908201527f63616c6c6572206973206e6f7420746865207269736b4f70657261746f720000604082015260600190565b90815260200190565b60405181810167ffffffffffffffff8111828210171561337d57600080fd5b604052919050565b6001600160a01b038116811461339a57600080fd5b5056fea164736f6c634300060c000a"
}