{
  "address": "0xAA2e6dF081f60B7a5205A525019AC4dA3aC5Cf5d",
  "abi": [
    {
      "inputs": [
        {
          "internalType": "address",
          "name": "_registry",
          "type": "address"
        },
        {
          "internalType": "address",
          "name": "_factory",
          "type": "address"
        },
        {
          "internalType": "address",
          "name": "_metaRegistry",
          "type": "address"
        }
      ],
      "stateMutability": "nonpayable",
      "type": "constructor"
    },
    {
      "inputs": [],
      "name": "FACTORY",
      "outputs": [
        {
          "internalType": "address",
          "name": "",
          "type": "address"
        }
      ],
      "stateMutability": "view",
      "type": "function"
    },
    {
      "inputs": [],
      "name": "META_REGISTRY",
      "outputs": [
        {
          "internalType": "address",
          "name": "",
          "type": "address"
        }
      ],
      "stateMutability": "view",
      "type": "function"
    },
    {
      "inputs": [
        {
          "internalType": "address",
          "name": "_underlyingToken",
          "type": "address"
        },
        {
          "internalType": "address",
          "name": "_swapPool",
          "type": "address"
        },
        {
          "internalType": "uint256",
          "name": "_underlyingTokenAmount",
          "type": "uint256"
        }
      ],
      "name": "calculateAmountInLPToken",
      "outputs": [
        {
          "internalType": "uint256",
          "name": "_amount",
          "type": "uint256"
        }
      ],
      "stateMutability": "view",
      "type": "function"
    },
    {
      "inputs": [
        {
          "internalType": "address payable",
          "name": "_vault",
          "type": "address"
        },
        {
          "internalType": "address",
          "name": "_underlyingToken",
          "type": "address"
        },
        {
          "internalType": "address",
          "name": "_swapPool",
          "type": "address"
        },
        {
          "internalType": "uint256",
          "name": "_redeemAmount",
          "type": "uint256"
        }
      ],
      "name": "calculateRedeemableLPTokenAmount",
      "outputs": [
        {
          "internalType": "uint256",
          "name": "",
          "type": "uint256"
        }
      ],
      "stateMutability": "view",
      "type": "function"
    },
    {
      "inputs": [
        {
          "internalType": "address",
          "name": "",
          "type": "address"
        }
      ],
      "name": "canStake",
      "outputs": [
        {
          "internalType": "bool",
          "name": "",
          "type": "bool"
        }
      ],
      "stateMutability": "pure",
      "type": "function"
    },
    {
      "inputs": [
        {
          "internalType": "address payable",
          "name": "_vault",
          "type": "address"
        },
        {
          "internalType": "address",
          "name": "_underlyingToken",
          "type": "address"
        },
        {
          "internalType": "address",
          "name": "_swapPool",
          "type": "address"
        }
      ],
      "name": "getAllAmountInToken",
      "outputs": [
        {
          "internalType": "uint256",
          "name": "",
          "type": "uint256"
        }
      ],
      "stateMutability": "view",
      "type": "function"
    },
    {
      "inputs": [
        {
          "internalType": "address payable",
          "name": "_vault",
          "type": "address"
        },
        {
          "internalType": "address",
          "name": "_underlyingToken",
          "type": "address"
        },
        {
          "internalType": "address",
          "name": "_swapPool",
          "type": "address"
        }
      ],
      "name": "getDepositAllCodes",
      "outputs": [
        {
          "internalType": "bytes[]",
          "name": "",
          "type": "bytes[]"
        }
      ],
      "stateMutability": "view",
      "type": "function"
    },
    {
      "inputs": [
        {
          "internalType": "address payable",
          "name": "_vault",
          "type": "address"
        },
        {
          "internalType": "address",
          "name": "_underlyingToken",
          "type": "address"
        },
        {
          "internalType": "address",
          "name": "_swapPool",
          "type": "address"
        },
        {
          "internalType": "uint256",
          "name": "_amount",
          "type": "uint256"
        }
      ],
      "name": "getDepositSomeCodes",
      "outputs": [
        {
          "internalType": "bytes[]",
          "name": "",
          "type": "bytes[]"
        }
      ],
      "stateMutability": "view",
      "type": "function"
    },
    {
      "inputs": [
        {
          "internalType": "address",
          "name": "",
          "type": "address"
        },
        {
          "internalType": "address",
          "name": "_swapPool",
          "type": "address"
        }
      ],
      "name": "getLiquidityPoolToken",
      "outputs": [
        {
          "internalType": "address",
          "name": "",
          "type": "address"
        }
      ],
      "stateMutability": "view",
      "type": "function"
    },
    {
      "inputs": [
        {
          "internalType": "address payable",
          "name": "_vault",
          "type": "address"
        },
        {
          "internalType": "address",
          "name": "",
          "type": "address"
        },
        {
          "internalType": "address",
          "name": "_swapPool",
          "type": "address"
        }
      ],
      "name": "getLiquidityPoolTokenBalance",
      "outputs": [
        {
          "internalType": "uint256",
          "name": "",
          "type": "uint256"
        }
      ],
      "stateMutability": "view",
      "type": "function"
    },
    {
      "inputs": [
        {
          "internalType": "address",
          "name": "_swapPool",
          "type": "address"
        },
        {
          "internalType": "address",
          "name": "",
          "type": "address"
        }
      ],
      "name": "getPoolValue",
      "outputs": [
        {
          "internalType": "uint256",
          "name": "",
          "type": "uint256"
        }
      ],
      "stateMutability": "view",
      "type": "function"
    },
    {
      "inputs": [
        {
          "internalType": "address",
          "name": "",
          "type": "address"
        }
      ],
      "name": "getRewardToken",
      "outputs": [
        {
          "internalType": "address",
          "name": "",
          "type": "address"
        }
      ],
      "stateMutability": "pure",
      "type": "function"
    },
    {
      "inputs": [
        {
          "internalType": "address",
          "name": "_underlyingToken",
          "type": "address"
        },
        {
          "internalType": "address",
          "name": "_swapPool",
          "type": "address"
        },
        {
          "internalType": "uint256",
          "name": "_liquidityPoolTokenAmount",
          "type": "uint256"
        }
      ],
      "name": "getSomeAmountInToken",
      "outputs": [
        {
          "internalType": "uint256",
          "name": "",
          "type": "uint256"
        }
      ],
      "stateMutability": "view",
      "type": "function"
    },
    {
      "inputs": [
        {
          "internalType": "address",
          "name": "_swapPool",
          "type": "address"
        },
        {
          "internalType": "address",
          "name": "",
          "type": "address"
        }
      ],
      "name": "getUnderlyingTokens",
      "outputs": [
        {
          "internalType": "address[]",
          "name": "_underlyingTokens",
          "type": "address[]"
        }
      ],
      "stateMutability": "view",
      "type": "function"
    },
    {
      "inputs": [
        {
          "internalType": "address payable",
          "name": "_vault",
          "type": "address"
        },
        {
          "internalType": "address",
          "name": "_underlyingToken",
          "type": "address"
        },
        {
          "internalType": "address",
          "name": "_swapPool",
          "type": "address"
        }
      ],
      "name": "getWithdrawAllCodes",
      "outputs": [
        {
          "internalType": "bytes[]",
          "name": "",
          "type": "bytes[]"
        }
      ],
      "stateMutability": "view",
      "type": "function"
    },
    {
      "inputs": [
        {
          "internalType": "address payable",
          "name": "",
          "type": "address"
        },
        {
          "internalType": "address",
          "name": "_underlyingToken",
          "type": "address"
        },
        {
          "internalType": "address",
          "name": "_swapPool",
          "type": "address"
        },
        {
          "internalType": "uint256",
          "name": "_amount",
          "type": "uint256"
        }
      ],
      "name": "getWithdrawSomeCodes",
      "outputs": [
        {
          "internalType": "bytes[]",
          "name": "_codes",
          "type": "bytes[]"
        }
      ],
      "stateMutability": "view",
      "type": "function"
    },
    {
      "inputs": [
        {
          "internalType": "address payable",
          "name": "_vault",
          "type": "address"
        },
        {
          "internalType": "address",
          "name": "_underlyingToken",
          "type": "address"
        },
        {
          "internalType": "address",
          "name": "_swapPool",
          "type": "address"
        },
        {
          "internalType": "uint256",
          "name": "_redeemAmount",
          "type": "uint256"
        }
      ],
      "name": "isRedeemableAmountSufficient",
      "outputs": [
        {
          "internalType": "bool",
          "name": "",
          "type": "bool"
        }
      ],
      "stateMutability": "view",
      "type": "function"
    },
    {
      "inputs": [],
      "name": "registryContract",
      "outputs": [
        {
          "internalType": "contract IAdapterRegistryBase",
          "name": "",
          "type": "address"
        }
      ],
      "stateMutability": "view",
      "type": "function"
    },
    {
      "inputs": [
        {
          "internalType": "address",
          "name": "_registry",
          "type": "address"
        }
      ],
      "name": "setRegistry",
      "outputs": [],
      "stateMutability": "nonpayable",
      "type": "function"
    }
  ],
  "transactionHash": "0x57757f8b988ee4b7566260bc0bdee253e2adade4a29e9e545e345c050fca5875",
  "args": [
    "0x99fa011e33a8c6196869dec7bc407e896ba67fe3",
    "0xF18056Bbd320E96A48e3Fbf8bC061322531aac99",
    "0xF98B45FA17DE75FB1aD0e7aFD971b0ca00e379fC"
  ],
  "numDeployments": 1,
  "bytecode": "0x60c06040523480156200001157600080fd5b50604051620019ad380380620019ad83398101604081905262000034916200007d565b600080546001600160a01b0319166001600160a01b039485161790559082166080521660a052620000c7565b80516001600160a01b03811681146200007857600080fd5b919050565b6000806000606084860312156200009357600080fd5b6200009e8462000060565b9250620000ae6020850162000060565b9150620000be6040850162000060565b90509250925092565b60805160a05161188f6200011e6000396000818161012b015281816105f101528181610a4c0152610fb10152600081816101820152818161062701528181610a1e01528181610e3f0152610fdf015261188f6000f3fe608060405234801561001057600080fd5b50600436106101215760003560e01c806377078872116100ad578063df93572211610071578063df9357221461029e578063e49d5ecc146102b1578063ee665bed146102c4578063ef856be9146102d7578063f49307ca146102f757600080fd5b8063770788721461024257806385541e441461025057806390e6160514610263578063a91ee0dc14610276578063d74baaf81461028b57600080fd5b806336d8bf93116100f457806336d8bf93146101c5578063489b5295146101e95780634ad36e0214610209578063609257791461021c57806364dd5f801461022f57600080fd5b806303a3279d1461012657806328c1f99b1461016a5780632dd310001461017d5780632de77838146101a4575b600080fd5b61014d7f000000000000000000000000000000000000000000000000000000000000000081565b6040516001600160a01b0390911681526020015b60405180910390f35b60005461014d906001600160a01b031681565b61014d7f000000000000000000000000000000000000000000000000000000000000000081565b6101b76101b2366004611396565b61030a565b604051908152602001610161565b6101d96101d33660046113cf565b50600090565b6040519015158152602001610161565b6101fc6101f73660046113ec565b610409565b6040516101619190611484565b6101b76102173660046114e6565b610492565b6101fc61022a3660046114e6565b6104e0565b6101b761023d3660046113ec565b6105cc565b61014d6101d33660046113cf565b6101b761025e366004611537565b6105e8565b6101b76102713660046113ec565b61072c565b6102896102843660046113cf565b6107a5565b005b61014d610299366004611396565b6108e6565b6101fc6102ac3660046114e6565b61094a565b6101d96102bf3660046114e6565b610961565b6101b76102d2366004611537565b61097c565b6102ea6102e5366004611396565b610a14565b6040516101619190611578565b6101fc6103053660046113ec565b610b1e565b600080836001600160a01b031663bb7b8b806040518163ffffffff1660e01b8152600401602060405180830381865afa15801561034b573d6000803e3d6000fd5b505050506040513d601f19601f8201168201806040525081019061036f91906115c5565b9050600061037e6000866108e6565b6001600160a01b03166318160ddd6040518163ffffffff1660e01b8152600401602060405180830381865afa1580156103bb573d6000803e3d6000fd5b505050506040513d601f19601f820116820180604052508101906103df91906115c5565b9050670de0b6b3a76400006103f482846115f4565b6103fe9190611613565b925050505b92915050565b6040516370a0823160e01b81526001600160a01b0384811660048301526060916000918516906370a0823190602401602060405180830381865afa158015610455573d6000803e3d6000fd5b505050506040513d601f19601f8201168201806040525081019061047991906115c5565b905061048785858584610b3c565b9150505b9392505050565b6000806104a18660008661072c565b905060006104b08787876105cc565b90506001816104bf86856115f4565b6104c99190611613565b6104d39190611635565b925050505b949350505050565b606081156104d85760408051600180825281830190925290816020015b60608152602001906001900390816104fd57905050905082826105208587610e36565b6064605f61052f89898961097c565b61053991906115f4565b6105439190611613565b60405160248101939093526044830191909152606482015260840160408051601f19818403018152918152602080830180516001600160e01b031663f1dc3cc960e01b179052905161059793929101611663565b604051602081830303815290604052816000815181106105b9576105b9611687565b6020026020010181905250949350505050565b6000806105db8560008561072c565b905061048784848361097c565b600080610615847f0000000000000000000000000000000000000000000000000000000000000000610ec7565b905061061f611360565b600061064b867f0000000000000000000000000000000000000000000000000000000000000000610f35565b905060005b838110156106b357876001600160a01b031682826002811061067457610674611687565b60200201516001600160a01b031614156106a1578583826002811061069b5761069b611687565b60200201525b806106ab8161169d565b915050610650565b50604051638d8ea72760e01b81526001600160a01b03871690638d8ea727906106e09085906004016116e1565b602060405180830381865afa1580156106fd573d6000803e3d6000fd5b505050506040513d601f19601f8201168201806040525081019061072191906115c5565b979650505050505050565b60006107396000836108e6565b6040516370a0823160e01b81526001600160a01b03868116600483015291909116906370a0823190602401602060405180830381865afa158015610781573d6000803e3d6000fd5b505050506040513d601f19601f820116820180604052508101906104d891906115c5565b60008054906101000a90046001600160a01b03166001600160a01b031663e7f43c686040518163ffffffff1660e01b8152600401602060405180830381865afa1580156107f6573d6000803e3d6000fd5b505050506040513d601f19601f8201168201806040525081019061081a91906116ff565b6001600160a01b0316336001600160a01b03161461087f5760405162461bcd60e51b815260206004820152601a60248201527f63616c6c6572206973206e6f7420746865206f70657261746f7200000000000060448201526064015b60405180910390fd5b6001600160a01b0381163b6108c45760405162461bcd60e51b815260206004820152600b60248201526a085a5cd0dbdb9d1c9858dd60aa1b6044820152606401610876565b600080546001600160a01b0319166001600160a01b0392909216919091179055565b6000816001600160a01b031663fc0c546a6040518163ffffffff1660e01b8152600401602060405180830381865afa158015610926573d6000803e3d6000fd5b505050506040513d601f19601f8201168201806040525081019061048b91906116ff565b606061095885858585610b3c565b95945050505050565b60008061096f8686866105cc565b9092111595945050505050565b60008115610a0a57826001600160a01b0316634fb08c5e8361099e8688610e36565b6040516001600160e01b031960e085901b16815260048101929092526024820152604401602060405180830381865afa1580156109df573d6000803e3d6000fd5b505050506040513d601f19601f82011682018060405250810190610a0391906115c5565b905061048b565b5060009392505050565b60606000610a42847f0000000000000000000000000000000000000000000000000000000000000000610f35565b90506000610a70857f0000000000000000000000000000000000000000000000000000000000000000610ec7565b90508067ffffffffffffffff811115610a8b57610a8b61164d565b604051908082528060200260200182016040528015610ab4578160200160208202803683370190505b50925060005b81811015610b1557828160028110610ad457610ad4611687565b6020020151848281518110610aeb57610aeb611687565b6001600160a01b039092166020928302919091019091015280610b0d8161169d565b915050610aba565b50505092915050565b60606000610b2e8560008561072c565b9050610487858585846104e0565b60606000806000610b4e878787610fa6565b6040805160018082528183019092529396509194509250816020015b6060815260200190600190039081610b6a5790505093506002831415610c57576000604051806040016040528084600081518110610baa57610baa611687565b6020026020010151815260200184600181518110610bca57610bca611687565b60200260200101518152509050868183604051602401610beb92919061171c565b60408051601f19818403018152918152602080830180516001600160e01b0316630b4c7e4d60e01b1790529051610c2493929101611663565b60405160208183030381529060405285600081518110610c4657610c46611687565b602002602001018190525050610e2b565b6003831415610d1a576000604051806060016040528084600081518110610c8057610c80611687565b6020026020010151815260200184600181518110610ca057610ca0611687565b6020026020010151815260200184600281518110610cc057610cc0611687565b60200260200101518152509050868183604051602401610ce192919061175a565b60408051601f19818403018152918152602080830180516001600160e01b0316634515cef360e01b1790529051610c2493929101611663565b6004831415610e2b576000604051806080016040528084600081518110610d4357610d43611687565b6020026020010151815260200184600181518110610d6357610d63611687565b6020026020010151815260200184600281518110610d8357610d83611687565b6020026020010151815260200184600381518110610da357610da3611687565b60200260200101518152509050868183604051602401610dc4929190611798565b60408051601f19818403018152918152602080830180516001600160e01b031662a6cbcd60e21b1790529051610dfc93929101611663565b60405160208183030381529060405285600081518110610e1e57610e1e611687565b6020026020010181905250505b505050949350505050565b600080610e63847f0000000000000000000000000000000000000000000000000000000000000000610f35565b905060005b6002811015610ebc57836001600160a01b0316828260028110610e8d57610e8d611687565b60200201516001600160a01b03161415610eaa5791506104039050565b80610eb48161169d565b915050610e68565b506000949350505050565b60405163940494f160e01b81526001600160a01b0383811660048301526000919083169063940494f190602401602060405180830381865afa158015610f11573d6000803e3d6000fd5b505050506040513d601f19601f8201168201806040525081019061048b91906115c5565b610f3d611360565b604051639ac90d3d60e01b81526001600160a01b038481166004830152831690639ac90d3d906024016040805180830381865afa158015610f82573d6000803e3d6000fd5b505050506040513d601f19601f8201168201806040525081019061048b91906117b3565b6000606081610fd5857f0000000000000000000000000000000000000000000000000000000000000000610ec7565b92506000611003867f0000000000000000000000000000000000000000000000000000000000000000610f35565b90508367ffffffffffffffff81111561101e5761101e61164d565b604051908082528060200260200182016040528015611047578160200160208202803683370190505b50925060005b848110156110b757876001600160a01b031682826002811061107157611071611687565b60200201516001600160a01b031614156110a5578584828151811061109857611098611687565b6020026020010181815250505b806110af8161169d565b91505061104d565b50600284141561119657612710866001600160a01b0316638d8ea7276040518060400160405280876000815181106110f1576110f1611687565b602002602001015181526020018760018151811061111157611111611687565b60200260200101518152506040518263ffffffff1660e01b815260040161113891906116e1565b602060405180830381865afa158015611155573d6000803e3d6000fd5b505050506040513d601f19601f8201168201806040525081019061117991906115c5565b611185906126ac6115f4565b61118f9190611613565b9150611356565b600384141561123957612710866001600160a01b0316633883e1196040518060600160405280876000815181106111cf576111cf611687565b60200260200101518152602001876001815181106111ef576111ef611687565b602002602001015181526020018760028151811061120f5761120f611687565b602002602001015181525060016040518363ffffffff1660e01b8152600401611138929190611848565b600484141561135657612710866001600160a01b031663cf701ff760405180608001604052808760008151811061127257611272611687565b602002602001015181526020018760018151811061129257611292611687565b60200260200101518152602001876002815181106112b2576112b2611687565b60200260200101518152602001876003815181106112d2576112d2611687565b602002602001015181525060016040518363ffffffff1660e01b81526004016112fc929190611865565b602060405180830381865afa158015611319573d6000803e3d6000fd5b505050506040513d601f19601f8201168201806040525081019061133d91906115c5565b611349906126ac6115f4565b6113539190611613565b91505b5093509350939050565b60405180604001604052806002906020820280368337509192915050565b6001600160a01b038116811461139357600080fd5b50565b600080604083850312156113a957600080fd5b82356113b48161137e565b915060208301356113c48161137e565b809150509250929050565b6000602082840312156113e157600080fd5b813561048b8161137e565b60008060006060848603121561140157600080fd5b833561140c8161137e565b9250602084013561141c8161137e565b9150604084013561142c8161137e565b809150509250925092565b6000815180845260005b8181101561145d57602081850181015186830182015201611441565b8181111561146f576000602083870101525b50601f01601f19169290920160200192915050565b6000602080830181845280855180835260408601915060408160051b870101925083870160005b828110156114d957603f198886030184526114c7858351611437565b945092850192908501906001016114ab565b5092979650505050505050565b600080600080608085870312156114fc57600080fd5b84356115078161137e565b935060208501356115178161137e565b925060408501356115278161137e565b9396929550929360600135925050565b60008060006060848603121561154c57600080fd5b83356115578161137e565b925060208401356115678161137e565b929592945050506040919091013590565b6020808252825182820181905260009190848201906040850190845b818110156115b95783516001600160a01b031683529284019291840191600101611594565b50909695505050505050565b6000602082840312156115d757600080fd5b5051919050565b634e487b7160e01b600052601160045260246000fd5b600081600019048311821515161561160e5761160e6115de565b500290565b60008261163057634e487b7160e01b600052601260045260246000fd5b500490565b60008219821115611648576116486115de565b500190565b634e487b7160e01b600052604160045260246000fd5b6001600160a01b03831681526040602082018190526000906104d890830184611437565b634e487b7160e01b600052603260045260246000fd5b60006000198214156116b1576116b16115de565b5060010190565b8060005b60028110156116db5781518452602093840193909101906001016116bc565b50505050565b6040810161040382846116b8565b80516116fa8161137e565b919050565b60006020828403121561171157600080fd5b815161048b8161137e565b6060810161172a82856116b8565b8260408301529392505050565b8060005b60038110156116db57815184526020938401939091019060010161173b565b608081016117688285611737565b8260608301529392505050565b8060005b60048110156116db578151845260209384019390910190600101611779565b60a081016117a68285611775565b8260808301529392505050565b6000604082840312156117c557600080fd5b82601f8301126117d457600080fd5b6040516040810181811067ffffffffffffffff8211171561180557634e487b7160e01b600052604160045260246000fd5b806040525080604084018581111561181c57600080fd5b845b8181101561183d5761182f816116ef565b83526020928301920161181e565b509195945050505050565b608081016118568285611737565b82151560608301529392505050565b60a081016118738285611775565b8215156080830152939250505056fea164736f6c634300080b000a"
}