{
  "address": "0x46364cD540B5A62f974B79Fc4a0A52A67aA3d281",
  "abi": [
    {
      "inputs": [
        {
          "internalType": "address",
          "name": "_registry",
          "type": "address"
        }
      ],
      "stateMutability": "nonpayable",
      "type": "constructor"
    },
    {
      "anonymous": false,
      "inputs": [
        {
          "indexed": true,
          "internalType": "uint256",
          "name": "maxDepositAmount",
          "type": "uint256"
        },
        {
          "indexed": true,
          "internalType": "address",
          "name": "caller",
          "type": "address"
        }
      ],
      "name": "LogMaxDepositAmount",
      "type": "event"
    },
    {
      "anonymous": false,
      "inputs": [
        {
          "indexed": true,
          "internalType": "uint256",
          "name": "maxDepositPoolPct",
          "type": "uint256"
        },
        {
          "indexed": true,
          "internalType": "address",
          "name": "caller",
          "type": "address"
        }
      ],
      "name": "LogMaxDepositPoolPct",
      "type": "event"
    },
    {
      "anonymous": false,
      "inputs": [
        {
          "indexed": true,
          "internalType": "enum MaxExposure",
          "name": "maxDepositProtocolMode",
          "type": "uint8"
        },
        {
          "indexed": true,
          "internalType": "address",
          "name": "caller",
          "type": "address"
        }
      ],
      "name": "LogMaxDepositProtocolMode",
      "type": "event"
    },
    {
      "anonymous": false,
      "inputs": [
        {
          "indexed": true,
          "internalType": "uint256",
          "name": "maxDepositProtocolPct",
          "type": "uint256"
        },
        {
          "indexed": true,
          "internalType": "address",
          "name": "caller",
          "type": "address"
        }
      ],
      "name": "LogMaxDepositProtocolPct",
      "type": "event"
    },
    {
      "inputs": [],
      "name": "ADDRESS_PROVIDER",
      "outputs": [
        {
          "internalType": "address",
          "name": "",
          "type": "address"
        }
      ],
      "stateMutability": "view",
      "type": "function"
    },
    {
      "inputs": [],
      "name": "ETH",
      "outputs": [
        {
          "internalType": "address",
          "name": "",
          "type": "address"
        }
      ],
      "stateMutability": "view",
      "type": "function"
    },
    {
      "inputs": [],
      "name": "ETH_ankrETH_STABLESWAP",
      "outputs": [
        {
          "internalType": "address",
          "name": "",
          "type": "address"
        }
      ],
      "stateMutability": "view",
      "type": "function"
    },
    {
      "inputs": [],
      "name": "ETH_rETH_STABLESWAP",
      "outputs": [
        {
          "internalType": "address",
          "name": "",
          "type": "address"
        }
      ],
      "stateMutability": "view",
      "type": "function"
    },
    {
      "inputs": [],
      "name": "ETH_sETH_STABLESWAP",
      "outputs": [
        {
          "internalType": "address",
          "name": "",
          "type": "address"
        }
      ],
      "stateMutability": "view",
      "type": "function"
    },
    {
      "inputs": [],
      "name": "ETH_stETH_STABLESWAP",
      "outputs": [
        {
          "internalType": "address",
          "name": "",
          "type": "address"
        }
      ],
      "stateMutability": "view",
      "type": "function"
    },
    {
      "inputs": [],
      "name": "HBTC",
      "outputs": [
        {
          "internalType": "address",
          "name": "",
          "type": "address"
        }
      ],
      "stateMutability": "view",
      "type": "function"
    },
    {
      "inputs": [],
      "name": "WETH",
      "outputs": [
        {
          "internalType": "address",
          "name": "",
          "type": "address"
        }
      ],
      "stateMutability": "view",
      "type": "function"
    },
    {
      "inputs": [],
      "name": "Y_SWAP_POOL",
      "outputs": [
        {
          "internalType": "address",
          "name": "",
          "type": "address"
        }
      ],
      "stateMutability": "view",
      "type": "function"
    },
    {
      "inputs": [
        {
          "internalType": "address",
          "name": "_underlyingToken",
          "type": "address"
        },
        {
          "internalType": "address",
          "name": "_liquidityPool",
          "type": "address"
        },
        {
          "internalType": "uint256",
          "name": "_underlyingTokenAmount",
          "type": "uint256"
        }
      ],
      "name": "calculateAmountInLPToken",
      "outputs": [
        {
          "internalType": "uint256",
          "name": "",
          "type": "uint256"
        }
      ],
      "stateMutability": "view",
      "type": "function"
    },
    {
      "inputs": [
        {
          "internalType": "address payable",
          "name": "_vault",
          "type": "address"
        },
        {
          "internalType": "address",
          "name": "_underlyingToken",
          "type": "address"
        },
        {
          "internalType": "address",
          "name": "_liquidityPool",
          "type": "address"
        },
        {
          "internalType": "uint256",
          "name": "_redeemAmount",
          "type": "uint256"
        }
      ],
      "name": "calculateRedeemableLPTokenAmount",
      "outputs": [
        {
          "internalType": "uint256",
          "name": "",
          "type": "uint256"
        }
      ],
      "stateMutability": "view",
      "type": "function"
    },
    {
      "inputs": [
        {
          "internalType": "address payable",
          "name": "_vault",
          "type": "address"
        },
        {
          "internalType": "address",
          "name": "_underlyingToken",
          "type": "address"
        },
        {
          "internalType": "address",
          "name": "_liquidityPool",
          "type": "address"
        },
        {
          "internalType": "uint256",
          "name": "_redeemAmount",
          "type": "uint256"
        }
      ],
      "name": "calculateRedeemableLPTokenAmountStake",
      "outputs": [
        {
          "internalType": "uint256",
          "name": "",
          "type": "uint256"
        }
      ],
      "stateMutability": "view",
      "type": "function"
    },
    {
      "inputs": [
        {
          "internalType": "address payable",
          "name": "_vault",
          "type": "address"
        },
        {
          "internalType": "address",
          "name": "_underlyingToken",
          "type": "address"
        },
        {
          "internalType": "address",
          "name": "_liquidityPool",
          "type": "address"
        },
        {
          "internalType": "uint256",
          "name": "_redeemAmount",
          "type": "uint256"
        }
      ],
      "name": "calculateRedeemableLPTokenAmountStakeWrite",
      "outputs": [
        {
          "internalType": "uint256",
          "name": "",
          "type": "uint256"
        }
      ],
      "stateMutability": "nonpayable",
      "type": "function"
    },
    {
      "inputs": [
        {
          "internalType": "address",
          "name": "_liquidityPool",
          "type": "address"
        }
      ],
      "name": "canStake",
      "outputs": [
        {
          "internalType": "bool",
          "name": "",
          "type": "bool"
        }
      ],
      "stateMutability": "view",
      "type": "function"
    },
    {
      "inputs": [],
      "name": "curveSwapETHGatewayContract",
      "outputs": [
        {
          "internalType": "address",
          "name": "",
          "type": "address"
        }
      ],
      "stateMutability": "view",
      "type": "function"
    },
    {
      "inputs": [
        {
          "internalType": "address payable",
          "name": "",
          "type": "address"
        },
        {
          "internalType": "address",
          "name": "",
          "type": "address"
        }
      ],
      "name": "getAddLiquidityCodes",
      "outputs": [
        {
          "internalType": "bytes[]",
          "name": "",
          "type": "bytes[]"
        }
      ],
      "stateMutability": "view",
      "type": "function"
    },
    {
      "inputs": [
        {
          "internalType": "address payable",
          "name": "_vault",
          "type": "address"
        },
        {
          "internalType": "address",
          "name": "_underlyingToken",
          "type": "address"
        },
        {
          "internalType": "address",
          "name": "_liquidityPool",
          "type": "address"
        }
      ],
      "name": "getAllAmountInToken",
      "outputs": [
        {
          "internalType": "uint256",
          "name": "",
          "type": "uint256"
        }
      ],
      "stateMutability": "view",
      "type": "function"
    },
    {
      "inputs": [
        {
          "internalType": "address payable",
          "name": "_vault",
          "type": "address"
        },
        {
          "internalType": "address",
          "name": "_underlyingToken",
          "type": "address"
        },
        {
          "internalType": "address",
          "name": "_liquidityPool",
          "type": "address"
        }
      ],
      "name": "getAllAmountInTokenStake",
      "outputs": [
        {
          "internalType": "uint256",
          "name": "",
          "type": "uint256"
        }
      ],
      "stateMutability": "view",
      "type": "function"
    },
    {
      "inputs": [
        {
          "internalType": "address payable",
          "name": "_vault",
          "type": "address"
        },
        {
          "internalType": "address",
          "name": "_underlyingToken",
          "type": "address"
        },
        {
          "internalType": "address",
          "name": "_liquidityPool",
          "type": "address"
        }
      ],
      "name": "getAllAmountInTokenStakeWrite",
      "outputs": [
        {
          "internalType": "uint256",
          "name": "",
          "type": "uint256"
        }
      ],
      "stateMutability": "nonpayable",
      "type": "function"
    },
    {
      "inputs": [
        {
          "internalType": "address payable",
          "name": "",
          "type": "address"
        },
        {
          "internalType": "address",
          "name": "_liquidityPool",
          "type": "address"
        }
      ],
      "name": "getClaimRewardTokenCode",
      "outputs": [
        {
          "internalType": "bytes[]",
          "name": "_codes",
          "type": "bytes[]"
        }
      ],
      "stateMutability": "view",
      "type": "function"
    },
    {
      "inputs": [
        {
          "internalType": "address payable",
          "name": "_vault",
          "type": "address"
        },
        {
          "internalType": "address",
          "name": "_underlyingToken",
          "type": "address"
        },
        {
          "internalType": "address",
          "name": "_liquidityPool",
          "type": "address"
        }
      ],
      "name": "getDepositAllCodes",
      "outputs": [
        {
          "internalType": "bytes[]",
          "name": "",
          "type": "bytes[]"
        }
      ],
      "stateMutability": "view",
      "type": "function"
    },
    {
      "inputs": [
        {
          "internalType": "address payable",
          "name": "_vault",
          "type": "address"
        },
        {
          "internalType": "address",
          "name": "_underlyingToken",
          "type": "address"
        },
        {
          "internalType": "address",
          "name": "_liquidityPool",
          "type": "address"
        },
        {
          "internalType": "uint256",
          "name": "_amount",
          "type": "uint256"
        }
      ],
      "name": "getDepositSomeCodes",
      "outputs": [
        {
          "internalType": "bytes[]",
          "name": "",
          "type": "bytes[]"
        }
      ],
      "stateMutability": "view",
      "type": "function"
    },
    {
      "inputs": [
        {
          "internalType": "address payable",
          "name": "_vault",
          "type": "address"
        },
        {
          "internalType": "address",
          "name": "_underlyingToken",
          "type": "address"
        },
        {
          "internalType": "address",
          "name": "_liquidityPool",
          "type": "address"
        }
      ],
      "name": "getHarvestAllCodes",
      "outputs": [
        {
          "internalType": "bytes[]",
          "name": "",
          "type": "bytes[]"
        }
      ],
      "stateMutability": "view",
      "type": "function"
    },
    {
      "inputs": [
        {
          "internalType": "address payable",
          "name": "_vault",
          "type": "address"
        },
        {
          "internalType": "address",
          "name": "_underlyingToken",
          "type": "address"
        },
        {
          "internalType": "address",
          "name": "_liquidityPool",
          "type": "address"
        },
        {
          "internalType": "uint256",
          "name": "_rewardTokenAmount",
          "type": "uint256"
        }
      ],
      "name": "getHarvestSomeCodes",
      "outputs": [
        {
          "internalType": "bytes[]",
          "name": "",
          "type": "bytes[]"
        }
      ],
      "stateMutability": "view",
      "type": "function"
    },
    {
      "inputs": [
        {
          "internalType": "address",
          "name": "",
          "type": "address"
        },
        {
          "internalType": "address",
          "name": "_liquidityPool",
          "type": "address"
        }
      ],
      "name": "getLiquidityPoolToken",
      "outputs": [
        {
          "internalType": "address",
          "name": "",
          "type": "address"
        }
      ],
      "stateMutability": "view",
      "type": "function"
    },
    {
      "inputs": [
        {
          "internalType": "address payable",
          "name": "_vault",
          "type": "address"
        },
        {
          "internalType": "address",
          "name": "",
          "type": "address"
        },
        {
          "internalType": "address",
          "name": "_liquidityPool",
          "type": "address"
        }
      ],
      "name": "getLiquidityPoolTokenBalance",
      "outputs": [
        {
          "internalType": "uint256",
          "name": "",
          "type": "uint256"
        }
      ],
      "stateMutability": "view",
      "type": "function"
    },
    {
      "inputs": [
        {
          "internalType": "address payable",
          "name": "_vault",
          "type": "address"
        },
        {
          "internalType": "address",
          "name": "_liquidityPool",
          "type": "address"
        }
      ],
      "name": "getLiquidityPoolTokenBalanceStake",
      "outputs": [
        {
          "internalType": "uint256",
          "name": "",
          "type": "uint256"
        }
      ],
      "stateMutability": "view",
      "type": "function"
    },
    {
      "inputs": [
        {
          "internalType": "address",
          "name": "_liquidityPool",
          "type": "address"
        },
        {
          "internalType": "address",
          "name": "",
          "type": "address"
        }
      ],
      "name": "getPoolValue",
      "outputs": [
        {
          "internalType": "uint256",
          "name": "",
          "type": "uint256"
        }
      ],
      "stateMutability": "view",
      "type": "function"
    },
    {
      "inputs": [
        {
          "internalType": "address",
          "name": "_liquidityPool",
          "type": "address"
        }
      ],
      "name": "getRewardToken",
      "outputs": [
        {
          "internalType": "address",
          "name": "",
          "type": "address"
        }
      ],
      "stateMutability": "view",
      "type": "function"
    },
    {
      "inputs": [
        {
          "internalType": "address",
          "name": "_underlyingToken",
          "type": "address"
        },
        {
          "internalType": "address",
          "name": "_liquidityPool",
          "type": "address"
        },
        {
          "internalType": "uint256",
          "name": "_liquidityPoolTokenAmount",
          "type": "uint256"
        }
      ],
      "name": "getSomeAmountInToken",
      "outputs": [
        {
          "internalType": "uint256",
          "name": "",
          "type": "uint256"
        }
      ],
      "stateMutability": "view",
      "type": "function"
    },
    {
      "inputs": [
        {
          "internalType": "address payable",
          "name": "_vault",
          "type": "address"
        },
        {
          "internalType": "address",
          "name": "",
          "type": "address"
        },
        {
          "internalType": "address",
          "name": "_liquidityPool",
          "type": "address"
        }
      ],
      "name": "getStakeAllCodes",
      "outputs": [
        {
          "internalType": "bytes[]",
          "name": "",
          "type": "bytes[]"
        }
      ],
      "stateMutability": "view",
      "type": "function"
    },
    {
      "inputs": [
        {
          "internalType": "address",
          "name": "_liquidityPool",
          "type": "address"
        },
        {
          "internalType": "uint256",
          "name": "_stakeAmount",
          "type": "uint256"
        }
      ],
      "name": "getStakeSomeCodes",
      "outputs": [
        {
          "internalType": "bytes[]",
          "name": "_codes",
          "type": "bytes[]"
        }
      ],
      "stateMutability": "view",
      "type": "function"
    },
    {
      "inputs": [
        {
          "internalType": "address payable",
          "name": "",
          "type": "address"
        },
        {
          "internalType": "address",
          "name": "_liquidityPool",
          "type": "address"
        },
        {
          "internalType": "address",
          "name": "",
          "type": "address"
        }
      ],
      "name": "getUnclaimedRewardTokenAmount",
      "outputs": [
        {
          "internalType": "uint256",
          "name": "",
          "type": "uint256"
        }
      ],
      "stateMutability": "view",
      "type": "function"
    },
    {
      "inputs": [
        {
          "internalType": "address payable",
          "name": "_vault",
          "type": "address"
        },
        {
          "internalType": "address",
          "name": "_liquidityPool",
          "type": "address"
        },
        {
          "internalType": "address",
          "name": "",
          "type": "address"
        }
      ],
      "name": "getUnclaimedRewardTokenAmountWrite",
      "outputs": [
        {
          "internalType": "uint256",
          "name": "",
          "type": "uint256"
        }
      ],
      "stateMutability": "nonpayable",
      "type": "function"
    },
    {
      "inputs": [
        {
          "internalType": "address",
          "name": "_liquidityPool",
          "type": "address"
        },
        {
          "internalType": "address",
          "name": "",
          "type": "address"
        }
      ],
      "name": "getUnderlyingTokens",
      "outputs": [
        {
          "internalType": "address[]",
          "name": "_underlyingTokens",
          "type": "address[]"
        }
      ],
      "stateMutability": "view",
      "type": "function"
    },
    {
      "inputs": [
        {
          "internalType": "address payable",
          "name": "_vault",
          "type": "address"
        },
        {
          "internalType": "address",
          "name": "_liquidityPool",
          "type": "address"
        }
      ],
      "name": "getUnstakeAllCodes",
      "outputs": [
        {
          "internalType": "bytes[]",
          "name": "",
          "type": "bytes[]"
        }
      ],
      "stateMutability": "view",
      "type": "function"
    },
    {
      "inputs": [
        {
          "internalType": "address payable",
          "name": "_vault",
          "type": "address"
        },
        {
          "internalType": "address",
          "name": "_underlyingToken",
          "type": "address"
        },
        {
          "internalType": "address",
          "name": "_liquidityPool",
          "type": "address"
        }
      ],
      "name": "getUnstakeAndWithdrawAllCodes",
      "outputs": [
        {
          "internalType": "bytes[]",
          "name": "",
          "type": "bytes[]"
        }
      ],
      "stateMutability": "view",
      "type": "function"
    },
    {
      "inputs": [
        {
          "internalType": "address payable",
          "name": "_vault",
          "type": "address"
        },
        {
          "internalType": "address",
          "name": "_underlyingToken",
          "type": "address"
        },
        {
          "internalType": "address",
          "name": "_liquidityPool",
          "type": "address"
        },
        {
          "internalType": "uint256",
          "name": "_redeemAmount",
          "type": "uint256"
        }
      ],
      "name": "getUnstakeAndWithdrawSomeCodes",
      "outputs": [
        {
          "internalType": "bytes[]",
          "name": "_codes",
          "type": "bytes[]"
        }
      ],
      "stateMutability": "view",
      "type": "function"
    },
    {
      "inputs": [
        {
          "internalType": "address",
          "name": "_liquidityPool",
          "type": "address"
        },
        {
          "internalType": "uint256",
          "name": "_unstakeAmount",
          "type": "uint256"
        }
      ],
      "name": "getUnstakeSomeCodes",
      "outputs": [
        {
          "internalType": "bytes[]",
          "name": "_codes",
          "type": "bytes[]"
        }
      ],
      "stateMutability": "view",
      "type": "function"
    },
    {
      "inputs": [
        {
          "internalType": "address payable",
          "name": "_vault",
          "type": "address"
        },
        {
          "internalType": "address",
          "name": "_underlyingToken",
          "type": "address"
        },
        {
          "internalType": "address",
          "name": "_liquidityPool",
          "type": "address"
        }
      ],
      "name": "getWithdrawAllCodes",
      "outputs": [
        {
          "internalType": "bytes[]",
          "name": "",
          "type": "bytes[]"
        }
      ],
      "stateMutability": "view",
      "type": "function"
    },
    {
      "inputs": [
        {
          "internalType": "address payable",
          "name": "_vault",
          "type": "address"
        },
        {
          "internalType": "address",
          "name": "_underlyingToken",
          "type": "address"
        },
        {
          "internalType": "address",
          "name": "_liquidityPool",
          "type": "address"
        },
        {
          "internalType": "uint256",
          "name": "_amount",
          "type": "uint256"
        }
      ],
      "name": "getWithdrawSomeCodes",
      "outputs": [
        {
          "internalType": "bytes[]",
          "name": "_codes",
          "type": "bytes[]"
        }
      ],
      "stateMutability": "view",
      "type": "function"
    },
    {
      "inputs": [
        {
          "internalType": "address payable",
          "name": "_vault",
          "type": "address"
        },
        {
          "internalType": "address",
          "name": "_underlyingToken",
          "type": "address"
        },
        {
          "internalType": "address",
          "name": "_liquidityPool",
          "type": "address"
        },
        {
          "internalType": "uint256",
          "name": "_redeemAmount",
          "type": "uint256"
        }
      ],
      "name": "isRedeemableAmountSufficient",
      "outputs": [
        {
          "internalType": "bool",
          "name": "",
          "type": "bool"
        }
      ],
      "stateMutability": "view",
      "type": "function"
    },
    {
      "inputs": [
        {
          "internalType": "address payable",
          "name": "_vault",
          "type": "address"
        },
        {
          "internalType": "address",
          "name": "_underlyingToken",
          "type": "address"
        },
        {
          "internalType": "address",
          "name": "_liquidityPool",
          "type": "address"
        },
        {
          "internalType": "uint256",
          "name": "_redeemAmount",
          "type": "uint256"
        }
      ],
      "name": "isRedeemableAmountSufficientStake",
      "outputs": [
        {
          "internalType": "bool",
          "name": "",
          "type": "bool"
        }
      ],
      "stateMutability": "view",
      "type": "function"
    },
    {
      "inputs": [
        {
          "internalType": "address payable",
          "name": "_vault",
          "type": "address"
        },
        {
          "internalType": "address",
          "name": "_underlyingToken",
          "type": "address"
        },
        {
          "internalType": "address",
          "name": "_liquidityPool",
          "type": "address"
        },
        {
          "internalType": "uint256",
          "name": "_redeemAmount",
          "type": "uint256"
        }
      ],
      "name": "isRedeemableAmountSufficientStakeWrite",
      "outputs": [
        {
          "internalType": "bool",
          "name": "",
          "type": "bool"
        }
      ],
      "stateMutability": "nonpayable",
      "type": "function"
    },
    {
      "inputs": [
        {
          "internalType": "address",
          "name": "",
          "type": "address"
        }
      ],
      "name": "maxDepositAmount",
      "outputs": [
        {
          "internalType": "uint256",
          "name": "",
          "type": "uint256"
        }
      ],
      "stateMutability": "view",
      "type": "function"
    },
    {
      "inputs": [
        {
          "internalType": "address",
          "name": "",
          "type": "address"
        }
      ],
      "name": "maxDepositPoolPct",
      "outputs": [
        {
          "internalType": "uint256",
          "name": "",
          "type": "uint256"
        }
      ],
      "stateMutability": "view",
      "type": "function"
    },
    {
      "inputs": [],
      "name": "maxDepositProtocolMode",
      "outputs": [
        {
          "internalType": "enum MaxExposure",
          "name": "",
          "type": "uint8"
        }
      ],
      "stateMutability": "view",
      "type": "function"
    },
    {
      "inputs": [],
      "name": "maxDepositProtocolPct",
      "outputs": [
        {
          "internalType": "uint256",
          "name": "",
          "type": "uint256"
        }
      ],
      "stateMutability": "view",
      "type": "function"
    },
    {
      "inputs": [],
      "name": "registryContract",
      "outputs": [
        {
          "internalType": "contract IRegistry",
          "name": "",
          "type": "address"
        }
      ],
      "stateMutability": "view",
      "type": "function"
    },
    {
      "inputs": [
        {
          "internalType": "address",
          "name": "_liquidityPool",
          "type": "address"
        },
        {
          "internalType": "address",
          "name": "",
          "type": "address"
        },
        {
          "internalType": "uint256",
          "name": "_maxDepositAmount",
          "type": "uint256"
        }
      ],
      "name": "setMaxDepositAmount",
      "outputs": [],
      "stateMutability": "nonpayable",
      "type": "function"
    },
    {
      "inputs": [
        {
          "internalType": "address",
          "name": "_liquidityPool",
          "type": "address"
        },
        {
          "internalType": "uint256",
          "name": "_maxDepositPoolPct",
          "type": "uint256"
        }
      ],
      "name": "setMaxDepositPoolPct",
      "outputs": [],
      "stateMutability": "nonpayable",
      "type": "function"
    },
    {
      "inputs": [
        {
          "internalType": "enum MaxExposure",
          "name": "_mode",
          "type": "uint8"
        }
      ],
      "name": "setMaxDepositProtocolMode",
      "outputs": [],
      "stateMutability": "nonpayable",
      "type": "function"
    },
    {
      "inputs": [
        {
          "internalType": "uint256",
          "name": "_maxDepositProtocolPct",
          "type": "uint256"
        }
      ],
      "name": "setMaxDepositProtocolPct",
      "outputs": [],
      "stateMutability": "nonpayable",
      "type": "function"
    },
    {
      "inputs": [
        {
          "internalType": "address",
          "name": "_registry",
          "type": "address"
        }
      ],
      "name": "setRegistry",
      "outputs": [],
      "stateMutability": "nonpayable",
      "type": "function"
    }
  ],
  "transactionHash": "0xc556410fccc7983dc33897b4ebee04bbd61b8326eb8d99d9dbe41272e3f61115",
  "args": [
    "0x99fa011e33a8c6196869dec7bc407e896ba67fe3"
  ],
  "numDeployments": 1,
  "bytecode": "0x60a06040523480156200001157600080fd5b50604051620058ca380380620058ca833981016040819052620000349162000155565b600080546001600160a01b0319166001600160a01b0383161790556040805160808101825273c5424b857f758e906013f3555dad202e4bdb4567815273a96a65c051bf88b4095ee1f2451c2a9d43f53ae2602082015273f9440930043eb3997fc70e1339dbb11f341de7a88183015273dc24316b9ae028f1497c275eb9192a3ea0f670226060820152905173c02aaa39b223fe8d0a0e5c4f27ead9083c756cc2918391600190620000e59062000147565b620000f4949392919062000185565b604051809103906000f08015801562000111573d6000803e3d6000fd5b5060601b6001600160601b03191660805261271060019081556000805460ff60a01b1916600160a01b83021790555050620001e3565b6118e78062003fe383390190565b60006020828403121562000167578081fd5b81516001600160a01b03811681146200017e578182fd5b9392505050565b6001600160a01b03858116825284811660208084019190915260e083019190604084018660005b6004811015620001cd578151851683529183019190830190600101620001ac565b505050505082151560c083015295945050505050565b60805160601c613dce6200021560003980610bcd5280610c5b5280610e4e528061249652806128485250613dce6000f3fe608060405234801561001057600080fd5b50600436106103425760003560e01c80637c47b3f4116101b8578063afd908d911610104578063e49d5ecc116100a2578063f1aacbb71161007c578063f1aacbb7146106d2578063f2f5087e146106e5578063f49307ca146106ed578063fd1365ea1461070057610342565b8063e49d5ecc1461068c578063ee665bed1461069f578063ef856be9146106b257610342565b8063d6441046116100de578063d644104614610640578063d74baaf814610653578063da699f9614610666578063df9357221461067957610342565b8063afd908d914610607578063b3fe7f5a1461061a578063d463fcf61461062d57610342565b8063919b69d711610171578063a167a66e1161014b578063a167a66e146105d1578063a878c26a146105e4578063a91ee0dc146105ec578063ad5c4648146105ff57610342565b8063919b69d7146105a35780639bb30da6146105b65780639c115fd1146105be57610342565b80637c47b3f41461053a5780637df50ed81461054f5780638322fff2146105625780638476fdec1461056a57806385541e441461057d57806390e616051461059057610342565b8063489b52951161029257806360925779116102305780636d267d7c1161020a5780636d267d7c146104ee5780636ee6e4b41461050157806374df3b2f14610514578063770788721461052757610342565b806360925779146104c057806364dd5f80146104d357806367b8a4e7146104e657610342565b80634f83b52d1161026c5780634f83b52d1461047f578063537e1066146104925780635adca02e1461049a5780635e6502e0146104ad57610342565b8063489b5295146104515780634ad36e02146104645780634e14342a1461047757610342565b80632627a099116102ff5780632af06b96116102d95780632af06b96146103f65780632de778381461040b57806336d8bf931461041e5780633978c52b1461043e57610342565b80632627a099146103c857806328c1f99b146103db578063292ccf02146103e357610342565b80630c9d8d5c14610347578063179af4e5146103705780631848effa14610383578063191c194b14610398578063214ead2e146103ad57806323490689146103b5575b600080fd5b61035a610355366004613443565b610713565b6040516103679190613a66565b60405180910390f35b61035a61037e366004613443565b6107b4565b61038b6107d0565b6040516103679190613903565b6103a06107e4565b6040516103679190613d06565b61038b6107ea565b6103a06103c3366004613443565b610802565b6103a06103d6366004613443565b610816565b61038b610830565b61035a6103f136600461348d565b61083f565b6103fe61094a565b6040516103679190613b79565b6103a06104193660046134dd565b61095a565b61043161042c3660046133d3565b610a76565b6040516103679190613b6e565b6103a061044c36600461348d565b610ab2565b61035a61045f366004613443565b610af5565b6103a061047236600461348d565b610b83565b61038b610ba1565b6103a061048d3660046133d3565b610bb9565b61038b610bcb565b6103a06104a836600461348d565b610bef565b61035a6104bb36600461340b565b610c0b565b61035a6104ce36600461348d565b610c25565b6103a06104e1366004613443565b610efa565b61038b610f09565b61035a6104fc36600461340b565b610f21565b6103a061050f366004613443565b610ffb565b61035a610522366004613443565b611016565b61038b6105353660046133d3565b611032565b61054d6105483660046137f8565b6110e8565b005b61035a61055d36600461340b565b61120f565b61038b611217565b61043161057836600461348d565b61122f565b6103a061058b3660046134ef565b611259565b6103a061059e366004613443565b611582565b61054d6105b136600461352f565b61160a565b61038b611707565b61035a6105cc36600461352f565b61171f565b6104316105df36600461348d565b6118e1565b61038b6118fe565b61054d6105fa3660046133d3565b611916565b61038b611a1a565b6103a061061536600461340b565b611a32565b6103a0610628366004613443565b611ac0565b61035a61063b36600461348d565b611ac9565b6103a061064e3660046133d3565b611bdc565b61038b6106613660046134dd565b611bee565b61054d610674366004613817565b611c73565b61035a61068736600461348d565b611d5c565b61043161069a36600461348d565b611d6a565b6103a06106ad3660046134ef565b611d85565b6106c56106c03660046134dd565b611e1b565b6040516103679190613a19565b61054d6106e03660046134ef565b611ee1565b61038b611fdf565b61035a6106fb366004613443565b611ff7565b61035a61070e36600461352f565b612015565b6060600061072083611032565b6001600160a01b03166370a08231866040518263ffffffff1660e01b815260040161074b9190613903565b60206040518083038186803b15801561076357600080fd5b505afa158015610777573d6000803e3d6000fd5b505050506040513d601f19601f8201168201806040525081019061079b919061382f565b90506107a985858584611ac9565b9150505b9392505050565b606060006107c28584611a32565b90506107a98585858461083f565b6f22d53366457f9d5e68ec105046fc438381565b60015481565b730316eb71485b0ab14103307bf65a021042c6d38081565b600061080e84846120ae565b949350505050565b6000806108238584611a32565b90506107a9848483611d85565b6000546001600160a01b031681565b6060811561080e5760408051600480825260a0820190925290816020015b606081526020019060019003908161085d57905050905061087e8383612015565b60008151811061088a57fe5b60200260200101518160008151811061089f57fe5b602002602001018190525060606108b886868686610c25565b9050806000815181106108c757fe5b6020026020010151826001815181106108dc57fe5b6020026020010181905250806001815181106108f457fe5b60200260200101518260028151811061090957fe5b60200260200101819052508060028151811061092157fe5b60200260200101518260038151811061093657fe5b602002602001018190525050949350505050565b600054600160a01b900460ff1681565b600080836001600160a01b031663bb7b8b806040518163ffffffff1660e01b815260040160206040518083038186803b15801561099657600080fd5b505afa1580156109aa573d6000803e3d6000fd5b505050506040513d601f19601f820116820180604052508101906109ce919061382f565b905060006109dd600086611bee565b6001600160a01b03166318160ddd6040518163ffffffff1660e01b815260040160206040518083038186803b158015610a1557600080fd5b505afa158015610a29573d6000803e3d6000fd5b505050506040513d601f19601f82011682018060405250810190610a4d919061382f565b9050610a6b670de0b6b3a7640000610a658484612154565b9061218e565b925050505b92915050565b600080610a816121c0565b90506000610a8f8483612248565b6001600160a01b031614610aa7576001915050610aad565b60009150505b919050565b600080610abf8685611a32565b90506000610acf878787856122d9565b9050610aea6001610ae483610a658689612154565b90612411565b979650505050505050565b60606000836001600160a01b03166370a08231866040518263ffffffff1660e01b8152600401610b259190613903565b60206040518083038186803b158015610b3d57600080fd5b505afa158015610b51573d6000803e3d6000fd5b505050506040513d601f19601f82011682018060405250810190610b75919061382f565b90506107a985858584612436565b600080610b9286600086611582565b90506000610acf878787610efa565b73c5424b857f758e906013f3555dad202e4bdb456781565b60036020526000908152604090205481565b7f000000000000000000000000000000000000000000000000000000000000000081565b600080610bfc8685611a32565b90506000610acf868684611d85565b60606000610c198484611a32565b905061080e8382612015565b6060811561080e5760006001600160a01b03851673c02aaa39b223fe8d0a0e5c4f27ead9083c756cc214610c595783610c7b565b7f00000000000000000000000000000000000000000000000000000000000000005b90506000610c8a600086611bee565b60408051600380825260808201909252919250816020015b6060815260200190600190039081610ca257905050925080826000604051602401610cce929190613a00565b60408051601f19818403018152918152602080830180516001600160e01b031663095ea7b360e01b1790529051610d07939291016139dc565b60405160208183030381529060405283600081518110610d2357fe5b6020026020010181905250808285604051602401610d42929190613a00565b60408051601f19818403018152918152602080830180516001600160e01b031663095ea7b360e01b1790529051610d7b939291016139dc565b60405160208183030381529060405283600181518110610d9757fe5b60209081029190910101526001600160a01b03861673c02aaa39b223fe8d0a0e5c4f27ead9083c756cc214610e4c578184610dd28789612ad3565b610ded6064610a65605f610de78d8d8d611d85565b90612154565b604051602401610dff93929190613d20565b60408051601f19818403018152918152602080830180516001600160e01b0316630d2680e960e11b1790529051610e38939291016139dc565b604051602081830303815290604052610ed8565b7f000000000000000000000000000000000000000000000000000000000000000087868387610e7b8a8c612ad3565b604051602401610e8f959493929190613981565b60408051601f19818403018152918152602080830180516001600160e01b0316631ff2027560e11b1790529051610ec8939291016139dc565b6040516020818303038152906040525b83600281518110610ee557fe5b60200260200101819052505050949350505050565b60008061082385600085611582565b73f9440930043eb3997fc70e1339dbb11f341de7a881565b60606000610f2d6121c0565b90506000610f3b8483612248565b90506001600160a01b03811615610ff35760408051600180825281830190925290816020015b6060815260200190600190039081610f61579050509250610f8181612b82565b81604051602401610f929190613903565b60408051601f19818403018152918152602080830180516001600160e01b03166335313c2160e11b1790529051610fcb939291016139dc565b60405160208183030381529060405283600081518110610fe757fe5b60200260200101819052505b505092915050565b6000806110088584611a32565b90506107a9858585846122d9565b6060600061102685600085611582565b90506107a9838261171f565b60008061103d6121c0565b9050600061104b8483612248565b90506001600160a01b038116156110de5761106581612b82565b6001600160a01b031663fc0c546a6040518163ffffffff1660e01b815260040160206040518083038186803b15801561109d57600080fd5b505afa1580156110b1573d6000803e3d6000fd5b505050506040513d601f19601f820116820180604052508101906110d591906133ef565b92505050610aad565b5060009392505050565b60008054906101000a90046001600160a01b03166001600160a01b0316637af0e5576040518163ffffffff1660e01b815260040160206040518083038186803b15801561113457600080fd5b505afa158015611148573d6000803e3d6000fd5b505050506040513d601f19601f8201168201806040525081019061116c91906133ef565b6001600160a01b0316336001600160a01b0316146111a55760405162461bcd60e51b815260040161119c90613ccf565b60405180910390fd5b6000805482919060ff60a01b1916600160a01b8360018111156111c457fe5b02179055506000543390600160a01b900460ff1660018111156111e357fe5b6040517f68e3b01155b193b02181f2c0ed491c934a74348d211ff023f8fc6ac5edf22aa090600090a350565b606092915050565b73eeeeeeeeeeeeeeeeeeeeeeeeeeeeeeeeeeeeeeee81565b60008061123c8685611a32565b9050600061124b868684611d85565b909311159695505050505050565b600081156110de5760006112748461126f6121c0565b612bf5565b905061127e61331e565b61128f8561128a6121c0565b612c7b565b905060608267ffffffffffffffff811180156112aa57600080fd5b506040519080825280602002602001820160405280156112d4578160200160208202803683370190505b5090506001600160a01b03871673c02aaa39b223fe8d0a0e5c4f27ead9083c756cc2146113015786611317565b73eeeeeeeeeeeeeeeeeeeeeeeeeeeeeeeeeeeeeeee5b965060005b8381101561137057876001600160a01b031683826008811061133a57fe5b60200201516001600160a01b03161415611368578582828151811061135b57fe5b6020026020010181815250505b60010161131c565b50826002141561143f57856001600160a01b031663ed8e84f36040518060400160405280846000815181106113a157fe5b60200260200101518152602001846001815181106113bb57fe5b602002602001015181525060016040518363ffffffff1660e01b81526004016113e5929190613ac6565b60206040518083038186803b1580156113fd57600080fd5b505afa158015611411573d6000803e3d6000fd5b505050506040513d601f19601f82011682018060405250810190611435919061382f565b93505050506107ad565b82600314156114cd57856001600160a01b0316633883e11960405180606001604052808460008151811061146f57fe5b602002602001015181526020018460018151811061148957fe5b60200260200101518152602001846002815181106114a357fe5b602002602001015181525060016040518363ffffffff1660e01b81526004016113e5929190613afe565b826004141561157557856001600160a01b031663cf701ff76040518060800160405280846000815181106114fd57fe5b602002602001015181526020018460018151811061151757fe5b602002602001015181526020018460028151811061153157fe5b602002602001015181526020018460038151811061154b57fe5b602002602001015181525060016040518363ffffffff1660e01b81526004016113e5929190613b36565b5050505060009392505050565b600061158f600083611bee565b6001600160a01b03166370a08231856040518263ffffffff1660e01b81526004016115ba9190613903565b60206040518083038186803b1580156115d257600080fd5b505afa1580156115e6573d6000803e3d6000fd5b505050506040513d601f19601f8201168201806040525081019061080e919061382f565b60008054906101000a90046001600160a01b03166001600160a01b0316637af0e5576040518163ffffffff1660e01b815260040160206040518083038186803b15801561165657600080fd5b505afa15801561166a573d6000803e3d6000fd5b505050506040513d601f19601f8201168201806040525081019061168e91906133ef565b6001600160a01b0316336001600160a01b0316146116be5760405162461bcd60e51b815260040161119c90613ccf565b6001600160a01b03821660009081526003602052604080822083905551339183917fac58e29a41d996caca756d050dce90806b277f0c939337653638329247e16f4c9190a35050565b732dded6da1bf5dbdf597c45fcfaa3194e53ecfeaf81565b60608115610a705760006117316121c0565b9050600061173f8583612248565b9050600061174e600087611bee565b60408051600380825260808201909252919250816020015b606081526020019060019003908161176657905050935080826000604051602401611792929190613a00565b60408051601f19818403018152918152602080830180516001600160e01b031663095ea7b360e01b17905290516117cb939291016139dc565b604051602081830303815290604052846000815181106117e757fe5b6020026020010181905250808286604051602401611806929190613a00565b60408051601f19818403018152918152602080830180516001600160e01b031663095ea7b360e01b179052905161183f939291016139dc565b6040516020818303038152906040528460018151811061185b57fe5b602002602001018190525081856040516024016118789190613d06565b60408051601f19818403018152918152602080830180516001600160e01b031663b6b55f2560e01b17905290516118b1939291016139dc565b604051602081830303815290604052846002815181106118cd57fe5b602002602001018190525050505092915050565b6000806118ee8685611a32565b9050600061124b878787856122d9565b73a96a65c051bf88b4095ee1f2451c2a9d43f53ae281565b60008054906101000a90046001600160a01b03166001600160a01b031663e7f43c686040518163ffffffff1660e01b815260040160206040518083038186803b15801561196257600080fd5b505afa158015611976573d6000803e3d6000fd5b505050506040513d601f19601f8201168201806040525081019061199a91906133ef565b6001600160a01b0316336001600160a01b0316146119ca5760405162461bcd60e51b815260040161119c90613bfb565b6119dc816001600160a01b0316612d00565b6119f85760405162461bcd60e51b815260040161119c90613caa565b600080546001600160a01b0319166001600160a01b0392909216919091179055565b73c02aaa39b223fe8d0a0e5c4f27ead9083c756cc281565b6000611a4582611a406121c0565b612248565b6001600160a01b03166370a08231846040518263ffffffff1660e01b8152600401611a709190613903565b60206040518083038186803b158015611a8857600080fd5b505afa158015611a9c573d6000803e3d6000fd5b505050506040513d601f19601f820116820180604052508101906107ad919061382f565b60009392505050565b6000546040805163450b674360e11b815290516060926001600160a01b031691638a16ce86916004808301926020929190829003018186803b158015611b0e57600080fd5b505afa158015611b22573d6000803e3d6000fd5b505050506040513d601f19601f82011682018060405250810190611b4691906133ef565b6001600160a01b031663218826cd86611b5e86611032565b87866040518563ffffffff1660e01b8152600401611b7f9493929190613957565b60006040518083038186803b158015611b9757600080fd5b505afa158015611bab573d6000803e3d6000fd5b505050506040513d6000823e601f3d908101601f19168201604052611bd391908101906136aa565b95945050505050565b60026020526000908152604090205481565b6000611bf86121c0565b6001600160a01b03166337951049836040518263ffffffff1660e01b8152600401611c239190613903565b60206040518083038186803b158015611c3b57600080fd5b505afa158015611c4f573d6000803e3d6000fd5b505050506040513d601f19601f820116820180604052508101906107ad91906133ef565b60008054906101000a90046001600160a01b03166001600160a01b0316637af0e5576040518163ffffffff1660e01b815260040160206040518083038186803b158015611cbf57600080fd5b505afa158015611cd3573d6000803e3d6000fd5b505050506040513d601f19601f82011682018060405250810190611cf791906133ef565b6001600160a01b0316336001600160a01b031614611d275760405162461bcd60e51b815260040161119c90613ccf565b6001819055604051339082907f19c60b0612798cc65bd298cd47e17d9fd07e74e0d3baa6c0019411bb334d9bda90600090a350565b6060611bd385858585612436565b600080611d78868686610efa565b9092111595945050505050565b600081156110de57826001600160a01b031663cc2b27d783611da78688612ad3565b6040518363ffffffff1660e01b8152600401611dc4929190613d0f565b60206040518083038186803b158015611ddc57600080fd5b505afa158015611df0573d6000803e3d6000fd5b505050506040513d601f19601f82011682018060405250810190611e14919061382f565b90506107ad565b60606000611e276121c0565b9050611e3161331e565b611e3b8583612c7b565b90506000611e498684612bf5565b90508067ffffffffffffffff81118015611e6257600080fd5b50604051908082528060200260200182016040528015611e8c578160200160208202803683370190505b50935060005b81811015611ed757828160088110611ea657fe5b6020020151858281518110611eb757fe5b6001600160a01b0390921660209283029190910190910152600101611e92565b5050505092915050565b60008054906101000a90046001600160a01b03166001600160a01b0316637af0e5576040518163ffffffff1660e01b815260040160206040518083038186803b158015611f2d57600080fd5b505afa158015611f41573d6000803e3d6000fd5b505050506040513d601f19601f82011682018060405250810190611f6591906133ef565b6001600160a01b0316336001600160a01b031614611f955760405162461bcd60e51b815260040161119c90613ccf565b6001600160a01b03831660009081526002602052604080822083905551339183917f197807a6a2633dd9bde6550aca985cfc69e655e9130930314c0e9da01a75cc549190a3505050565b73dc24316b9ae028f1497c275eb9192a3ea0f6702281565b6060600061200785600085611582565b90506107a985858584610c25565b60608115610a705760006120276121c0565b905060006120358583612248565b604080516001808252818301909252919250816020015b606081526020019060019003908161204c57905050925080846040516024016120759190613d06565b60408051601f19818403018152918152602080830180516001600160e01b0316632e1a7d4d60e01b1790529051610fcb939291016139dc565b6000806120bd83611a406121c0565b90506001600160a01b038116156110de57604051633313458360e01b81526001600160a01b038216906333134583906120fa908790600401613903565b602060405180830381600087803b15801561211457600080fd5b505af1158015612128573d6000803e3d6000fd5b505050506040513d601f19601f8201168201806040525081019061214c919061382f565b915050610a70565b60008261216357506000610a70565b8282028284828161217057fe5b04146107ad5760405162461bcd60e51b815260040161119c90613c69565b60008082116121af5760405162461bcd60e51b815260040161119c90613c32565b8183816121b857fe5b049392505050565b60006f22d53366457f9d5e68ec105046fc43836001600160a01b031663a262904b6040518163ffffffff1660e01b815260040160206040518083038186803b15801561220b57600080fd5b505afa15801561221f573d6000803e3d6000fd5b505050506040513d601f19601f8201168201806040525081019061224391906133ef565b905090565b600061225261333d565b6040516356059ffb60e01b81526001600160a01b038416906356059ffb9061227e908790600401613903565b6102806040518083038186803b15801561229757600080fd5b505afa1580156122ab573d6000803e3d6000fd5b505050506040513d601f19601f820116820180604052508101906122cf919061355a565b5051949350505050565b6000806122e7858585611d85565b905061240760008054906101000a90046001600160a01b03166001600160a01b0316638a16ce866040518163ffffffff1660e01b815260040160206040518083038186803b15801561233857600080fd5b505afa15801561234c573d6000803e3d6000fd5b505050506040513d601f19601f8201168201806040525081019061237091906133ef565b6001600160a01b0316639eb8aa3161238787611032565b886123928b8a6120ae565b6040518463ffffffff1660e01b81526004016123b0939291906139b8565b60206040518083038186803b1580156123c857600080fd5b505afa1580156123dc573d6000803e3d6000fd5b505050506040513d601f19601f82011682018060405250810190612400919061382f565b8290612411565b9695505050505050565b6000828201838110156107ad5760405162461bcd60e51b815260040161119c90613b8d565b606060008061244361331e565b60606000806124538a8a8a612d06565b955095509550955095509550600073c02aaa39b223fe8d0a0e5c4f27ead9083c756cc26001600160a01b03168b6001600160a01b03161461249457896124b6565b7f00000000000000000000000000000000000000000000000000000000000000005b90506001831115612ac4578267ffffffffffffffff811180156124d857600080fd5b5060405190808252806020026020018201604052801561250c57816020015b60608152602001906001900390816124f75790505b5097506000805b8781101561276157600073eeeeeeeeeeeeeeeeeeeeeeeeeeeeeeeeeeeeeeee88836008811061253e57fe5b60200201516001600160a01b0316146125675787826008811061255d57fe5b602002015161257d565b73c02aaa39b223fe8d0a0e5c4f27ead9083c756cc25b9050600087838151811061258d57fe5b60200260200101511115612758576001600160a01b038116730316eb71485b0ab14103307bf65a021042c6d38014156126515780848884815181106125ce57fe5b60200260200101516040516024016125e7929190613a00565b60408051601f19818403018152918152602080830180516001600160e01b031663095ea7b360e01b1790529051612620939291016139dc565b6040516020818303038152906040528b848060010195508151811061264157fe5b6020026020010181905250612758565b80846000604051602401612666929190613a00565b60408051601f19818403018152918152602080830180516001600160e01b031663095ea7b360e01b179052905161269f939291016139dc565b6040516020818303038152906040528b84806001019550815181106126c057fe5b602002602001018190525080848884815181106126d957fe5b60200260200101516040516024016126f2929190613a00565b60408051601f19818403018152918152602080830180516001600160e01b031663095ea7b360e01b179052905161272b939291016139dc565b6040516020818303038152906040528b848060010195508151811061274c57fe5b60200260200101819052505b50600101612513565b5060028714156128e75761277361335c565b60405180604001604052808760008151811061278b57fe5b60200260200101518152602001876001815181106127a557fe5b6020026020010151815250905060006127bf60008e611bee565b90506001600160a01b038e1673c02aaa39b223fe8d0a0e5c4f27ead9083c756cc214612846578382866040516024016127f9929190613ae3565b60408051601f19818403018152918152602080830180516001600160e01b0316630b4c7e4d60e01b1790529051612832939291016139dc565b6040516020818303038152906040526128c9565b7f00000000000000000000000000000000000000000000000000000000000000008f8e83858e604051602401612880959493929190613917565b60408051601f19818403018152918152602080830180516001600160e01b0316632c12c6b160e21b17905290516128b9939291016139dc565b6040516020818303038152906040525b8b84815181106128d557fe5b60200260200101819052505050612ac2565b60038714156129ca576128f861337a565b60405180606001604052808760008151811061291057fe5b602002602001015181526020018760018151811061292a57fe5b602002602001015181526020018760028151811061294457fe5b60200260200101518152509050828185604051602401612965929190613b1b565b60408051601f19818403018152918152602080830180516001600160e01b0316634515cef360e01b179052905161299e939291016139dc565b6040516020818303038152906040528a83815181106129b957fe5b602002602001018190525050612ac2565b6004871415612ac2576129db613398565b6040518060800160405280876000815181106129f357fe5b6020026020010151815260200187600181518110612a0d57fe5b6020026020010151815260200187600281518110612a2757fe5b6020026020010151815260200187600381518110612a4157fe5b60200260200101518152509050828185604051602401612a62929190613b53565b60408051601f19818403018152918152602080830180516001600160e01b031662a6cbcd60e21b1790529051612a9a939291016139dc565b6040516020818303038152906040528a8381518110612ab557fe5b6020026020010181905250505b505b50505050505050949350505050565b6000806001600160a01b03831673c02aaa39b223fe8d0a0e5c4f27ead9083c756cc214612b005782612b16565b73eeeeeeeeeeeeeeeeeeeeeeeeeeeeeeeeeeeeeeee5b9050612b2061331e565b612b2c8561128a6121c0565b905060005b6008811015612b7657826001600160a01b0316828260088110612b5057fe5b60200201516001600160a01b03161415612b6e579250610a70915050565b600101612b31565b50600095945050505050565b6000816001600160a01b031663075461726040518163ffffffff1660e01b815260040160206040518083038186803b158015612bbd57600080fd5b505afa158015612bd1573d6000803e3d6000fd5b505050506040513d601f19601f82011682018060405250810190610a7091906133ef565b60405163940494f160e01b81526000906001600160a01b0383169063940494f190612c24908690600401613903565b604080518083038186803b158015612c3b57600080fd5b505afa158015612c4f573d6000803e3d6000fd5b505050506040513d601f19601f82011682018060405250810190612c739190613792565b519392505050565b612c8361331e565b604051639ac90d3d60e01b81526001600160a01b03831690639ac90d3d90612caf908690600401613903565b6101006040518083038186803b158015612cc857600080fd5b505afa158015612cdc573d6000803e3d6000fd5b505050506040513d601f19601f820116820180604052508101906107ad9190613639565b3b151590565b600080612d1161331e565b60606000806000612d206121c0565b9050612d2c8982612bf5565b9550612d388982612c7b565b945060006001600160a01b038b1673c02aaa39b223fe8d0a0e5c4f27ead9083c756cc214612d66578a612d7c565b73eeeeeeeeeeeeeeeeeeeeeeeeeeeeeeeeeeeeeeee5b9050612d888a82612ad3565b97508667ffffffffffffffff81118015612da157600080fd5b50604051908082528060200260200182016040528015612dcb578160200160208202803683370190505b5094506001935060005b87811015612e9557816001600160a01b0316878260088110612df357fe5b60200201516001600160a01b03161415612e8d57612e128b8d8c6130c6565b868281518110612e1e57fe5b6020026020010181815250506000868281518110612e3857fe5b60200260200101511115612e8d57730316eb71485b0ab14103307bf65a021042c6d380878260088110612e6757fe5b60200201516001600160a01b03161415612e8657600190940193612e8d565b6002850194505b600101612dd5565b506002871415612f6b57612f646064610a65605f8d6001600160a01b031663ed8e84f360405180604001604052808c600081518110612ed057fe5b602002602001015181526020018c600181518110612eea57fe5b602002602001015181525060016040518363ffffffff1660e01b8152600401612f14929190613ac6565b60206040518083038186803b158015612f2c57600080fd5b505afa158015612f40573d6000803e3d6000fd5b505050506040513d601f19601f82011682018060405250810190610de7919061382f565b92506130b8565b600387141561300357612f646064610a65605f8d6001600160a01b0316633883e11960405180606001604052808c600081518110612fa557fe5b602002602001015181526020018c600181518110612fbf57fe5b602002602001015181526020018c600281518110612fd957fe5b602002602001015181525060016040518363ffffffff1660e01b8152600401612f14929190613afe565b60048714156130b8576130b56064610a65605f8d6001600160a01b031663cf701ff760405180608001604052808c60008151811061303d57fe5b602002602001015181526020018c60018151811061305757fe5b602002602001015181526020018c60028151811061307157fe5b602002602001015181526020018c60038151811061308b57fe5b602002602001015181525060016040518363ffffffff1660e01b8152600401612f14929190613b36565b92505b505093975093979195509350565b60006001600054600160a01b900460ff1660018111156130e257fe5b146130f7576130f2848484613102565b61080e565b61080e8484846131bc565b600080836001600160a01b031663313ce5676040518163ffffffff1660e01b815260040160206040518083038186803b15801561313e57600080fd5b505afa158015613152573d6000803e3d6000fd5b505050506040513d601f19601f820116820180604052508101906131769190613847565b60ff16905060006131ad61318b6012846132f6565b6001600160a01b03881660009081526002602052604090205490600a0a61218e565b9050808411611bd35783612407565b6000806131ca85600061095a565b9050600060036000876001600160a01b03166001600160a01b031681526020019081526020016000205490506000856001600160a01b031663313ce5676040518163ffffffff1660e01b815260040160206040518083038186803b15801561323157600080fd5b505afa158015613245573d6000803e3d6000fd5b505050506040513d601f19601f820116820180604052508101906132699190613847565b60ff169050600061328861327e6012846132f6565b8790600a0a612154565b9050600083156132a7576132a2612710610a658787612154565b6132c2565b6132c2612710610a656001548861215490919063ffffffff16565b90508082116132d157866132e9565b6132e96132df6012856132f6565b8290600a0a61218e565b9998505050505050505050565b6000828211156133185760405162461bcd60e51b815260040161119c90613bc4565b50900390565b6040518061010001604052806008906020820280368337509192915050565b604051806101400160405280600a906020820280368337509192915050565b60405180604001604052806002906020820280368337509192915050565b60405180606001604052806003906020820280368337509192915050565b60405180608001604052806004906020820280368337509192915050565b8051610a7081613da9565b8051600f81900b8114610a7057600080fd5b6000602082840312156133e4578081fd5b81356107ad81613da9565b600060208284031215613400578081fd5b81516107ad81613da9565b6000806040838503121561341d578081fd5b823561342881613da9565b9150602083013561343881613da9565b809150509250929050565b600080600060608486031215613457578081fd5b833561346281613da9565b9250602084013561347281613da9565b9150604084013561348281613da9565b809150509250925092565b600080600080608085870312156134a2578081fd5b84356134ad81613da9565b935060208501356134bd81613da9565b925060408501356134cd81613da9565b9396929550929360600135925050565b6000806040838503121561341d578182fd5b600080600060608486031215613503578283fd5b833561350e81613da9565b9250602084013561351e81613da9565b929592945050506040919091013590565b60008060408385031215613541578182fd5b823561354c81613da9565b946020939093013593505050565b60008061028080848603121561356e578283fd5b84601f85011261357c578283fd5b600a61358f61358a82613d60565b613d39565b80866101408801898111156135a2578788fd5b875b858110156135cb576135b68b846133b6565b855260209485019492909201916001016135a4565b508297508961015f8a01126135de578687fd5b6135ea61358a86613d60565b935083925090508785018910156135ff578586fd5b8594505b8385101561362a5761361589826133c1565b83526001949094019360209283019201613603565b50809450505050509250929050565b600061010080838503121561364c578182fd5b83601f84011261365a578182fd5b61366381613d39565b8084868487011115613673578485fd5b8493505b60088410156136a057805161368b81613da9565b83526001939093019260209283019201613677565b5095945050505050565b600060208083850312156136bc578182fd5b825167ffffffffffffffff808211156136d3578384fd5b8185019150601f86818401126136e7578485fd5b8251828111156136f5578586fd5b6137028586830201613d39565b81815285810190858701885b8481101561378257815188018c603f820112613728578a8bfd5b8981015188811115613738578b8cfd5b613749818901601f19168c01613d39565b81815260408f8184860101111561375e578d8efd5b61376d838e8401838701613d7d565b5086525050928801929088019060010161370e565b50909a9950505050505050505050565b6000604082840312156137a3578081fd5b82601f8301126137b1578081fd5b6137bb6040613d39565b8083856040860111156137cc578384fd5b835b60028110156137ed5781518452602093840193909101906001016137ce565b509095945050505050565b600060208284031215613809578081fd5b8135600281106107ad578182fd5b600060208284031215613828578081fd5b5035919050565b600060208284031215613840578081fd5b5051919050565b600060208284031215613858578081fd5b815160ff811681146107ad578182fd5b8060005b600281101561388b57815184526020938401939091019060010161386c565b50505050565b8060005b600381101561388b578151845260209384019390910190600101613895565b8060005b600481101561388b5781518452602093840193909101906001016138b8565b600081518084526138ef816020860160208601613d7d565b601f01601f19169290920160200192915050565b6001600160a01b0391909116815260200190565b6001600160a01b03868116825285811660208301528416604082015260c081016139446060830185613868565b82600f0b60a08301529695505050505050565b6001600160a01b039485168152928416602084015292166040820152606081019190915260800190565b6001600160a01b03958616815293851660208501529190931660408301526060820192909252600f9190910b608082015260a00190565b6001600160a01b039384168152919092166020820152604081019190915260600190565b6001600160a01b038316815260406020820181905260009061080e908301846138d7565b6001600160a01b03929092168252602082015260400190565b6020808252825182820181905260009190848201906040850190845b81811015613a5a5783516001600160a01b031683529284019291840191600101613a35565b50909695505050505050565b6000602080830181845280855180835260408601915060408482028701019250838701855b82811015613ab957603f19888603018452613aa78583516138d7565b94509285019290850190600101613a8b565b5092979650505050505050565b60608101613ad48285613868565b82151560408301529392505050565b60608101613af18285613868565b8260408301529392505050565b60808101613b0c8285613891565b82151560608301529392505050565b60808101613b298285613891565b8260608301529392505050565b60a08101613b4482856138b4565b82151560808301529392505050565b60a08101613b6182856138b4565b8260808301529392505050565b901515815260200190565b6020810160028310613b8757fe5b91905290565b6020808252601b908201527f536166654d6174683a206164646974696f6e206f766572666c6f770000000000604082015260600190565b6020808252601e908201527f536166654d6174683a207375627472616374696f6e206f766572666c6f770000604082015260600190565b6020808252601a908201527f63616c6c6572206973206e6f7420746865206f70657261746f72000000000000604082015260600190565b6020808252601a908201527f536166654d6174683a206469766973696f6e206279207a65726f000000000000604082015260600190565b60208082526021908201527f536166654d6174683a206d756c7469706c69636174696f6e206f766572666c6f6040820152607760f81b606082015260800190565b6020808252600b908201526a085a5cd0dbdb9d1c9858dd60aa1b604082015260600190565b6020808252601e908201527f63616c6c6572206973206e6f7420746865207269736b4f70657261746f720000604082015260600190565b90815260200190565b918252600f0b602082015260400190565b928352600f9190910b6020830152604082015260600190565b60405181810167ffffffffffffffff81118282101715613d5857600080fd5b604052919050565b600067ffffffffffffffff821115613d76578081fd5b5060200290565b60005b83811015613d98578181015183820152602001613d80565b8381111561388b5750506000910152565b6001600160a01b0381168114613dbe57600080fd5b5056fea164736f6c634300060c000a60a06040523480156200001157600080fd5b50604051620018e7380380620018e7833981016040819052620000349162000108565b600080546001600160a01b0319166001600160a01b038516178155606085901b6001600160601b0319166080526002805460ff60a01b1916600160a01b841515021790555b6004811015620000ce5760018060008584600481106200009557fe5b602090810291909101516001600160a01b03168252810191909152604001600020805460ff191691151591909117905560010162000079565b5050505050620001d2565b80516001600160a01b0381168114620000f157600080fd5b92915050565b80518015158114620000f157600080fd5b60008060008060e085870312156200011e578384fd5b6200012a8686620000d9565b935060206200013c87828801620000d9565b935086605f8701126200014d578283fd5b604051608081016001600160401b03811182821017156200016c578485fd5b8060405250806040880160c089018a81111562000187578687fd5b865b6004811015620001b2576200019f8c84620000d9565b8452928501929185019160010162000189565b50839650620001c28b82620000f7565b9550505050505092959194509250565b60805160601c6116df620002086000398060f152806104e0528061056652806109ae52806109d25280610a8852506116df6000f3fe6080604052600436106100e15760003560e01c8063a3d5b2551161007f578063b04b1ac411610059578063b04b1ac414610297578063c1eced83146102b7578063eed88b8d146102d7578063f2f5087e146102f757610153565b8063a3d5b25514610242578063a91ee0dc14610262578063affa88171461028257610153565b80633fe404ea116100bb5780633fe404ea146101d857806340644270146101f85780635474012d1461020d57806399940ece1461022d57610153565b806315a88d221461016b5780631695ca4e1461019657806328c1f99b146101c357610153565b3661015357336001600160a01b037f000000000000000000000000000000000000000000000000000000000000000016148061012c57503360009081526001602052604090205460ff165b6101515760405162461bcd60e51b8152600401610148906114c5565b60405180910390fd5b005b60405162461bcd60e51b815260040161014890611497565b34801561017757600080fd5b5061018061030c565b60405161018d9190611403565b60405180910390f35b3480156101a257600080fd5b506101b66101b13660046111ba565b61031b565b60405161018d919061148c565b3480156101cf57600080fd5b50610180610330565b3480156101e457600080fd5b506101516101f33660046112ab565b61033f565b34801561020457600080fd5b506101b6610670565b34801561021957600080fd5b506101516102283660046111ba565b610680565b34801561023957600080fd5b50610180610756565b34801561024e57600080fd5b5061015161025d36600461130f565b61076e565b34801561026e57600080fd5b5061015161027d3660046111ba565b6108a8565b34801561028e57600080fd5b506101806109ac565b3480156102a357600080fd5b506101516102b23660046111f2565b6109d0565b3480156102c357600080fd5b506101516102d236600461137a565b610ed1565b3480156102e357600080fd5b506101516102f236600461134f565b610fa3565b34801561030357600080fd5b50610180611065565b6002546001600160a01b031681565b60016020526000908152604090205460ff1681565b6000546001600160a01b031681565b6040516323b872dd60e01b81526001600160a01b038416906323b872dd9061036f90889030908790600401611417565b602060405180830381600087803b15801561038957600080fd5b505af115801561039d573d6000803e3d6000fd5b505050506040513d601f19601f820116820180604052508101906103c19190611396565b5060006104586064610452605f886001600160a01b031663cc2b27d788886040518363ffffffff1660e01b81526004016103fc92919061163e565b60206040518083038186803b15801561041457600080fd5b505afa158015610428573d6000803e3d6000fd5b505050506040513d601f19601f8201168201806040525081019061044c91906113b2565b9061107d565b906110c0565b604051630d2680e960e11b81529091506001600160a01b03861690631a4d01d29061048b9086908690869060040161164f565b602060405180830381600087803b1580156104a557600080fd5b505af11580156104b9573d6000803e3d6000fd5b505050506040513d601f19601f820116820180604052508101906104dd91906113b2565b507f00000000000000000000000000000000000000000000000000000000000000006001600160a01b031663d0e30db0476040518263ffffffff1660e01b81526004016000604051808303818588803b15801561053957600080fd5b505af115801561054d573d6000803e3d6000fd5b50506040516370a0823160e01b81526001600160a01b037f000000000000000000000000000000000000000000000000000000000000000016935063a9059cbb925089915083906370a08231906105a8903090600401611403565b60206040518083038186803b1580156105c057600080fd5b505afa1580156105d4573d6000803e3d6000fd5b505050506040513d601f19601f820116820180604052508101906105f891906113b2565b6040518363ffffffff1660e01b815260040161061592919061143b565b602060405180830381600087803b15801561062f57600080fd5b505af1158015610643573d6000803e3d6000fd5b505050506040513d601f19601f820116820180604052508101906106679190611396565b50505050505050565b600254600160a01b900460ff1681565b60008054906101000a90046001600160a01b03166001600160a01b031663e7f43c686040518163ffffffff1660e01b815260040160206040518083038186803b1580156106cc57600080fd5b505afa1580156106e0573d6000803e3d6000fd5b505050506040513d601f19601f8201168201806040525081019061070491906111d6565b6001600160a01b0316336001600160a01b0316146107345760405162461bcd60e51b8152600401610148906114f2565b600280546001600160a01b0319166001600160a01b0392909216919091179055565b73ae7ab96520de3a18e5e111b5eaab095312d7fe8481565b60008054906101000a90046001600160a01b03166001600160a01b031663e7f43c686040518163ffffffff1660e01b815260040160206040518083038186803b1580156107ba57600080fd5b505afa1580156107ce573d6000803e3d6000fd5b505050506040513d601f19601f820116820180604052508101906107f291906111d6565b6001600160a01b0316336001600160a01b0316146108225760405162461bcd60e51b8152600401610148906114f2565b60405163a9059cbb60e01b81526001600160a01b0384169063a9059cbb90610850908590859060040161143b565b602060405180830381600087803b15801561086a57600080fd5b505af115801561087e573d6000803e3d6000fd5b505050506040513d601f19601f820116820180604052508101906108a29190611396565b50505050565b60008054906101000a90046001600160a01b03166001600160a01b031663e7f43c686040518163ffffffff1660e01b815260040160206040518083038186803b1580156108f457600080fd5b505afa158015610908573d6000803e3d6000fd5b505050506040513d601f19601f8201168201806040525081019061092c91906111d6565b6001600160a01b0316336001600160a01b03161461095c5760405162461bcd60e51b8152600401610148906114f2565b61096e816001600160a01b03166110f2565b61098a5760405162461bcd60e51b8152600401610148906115e3565b600080546001600160a01b0319166001600160a01b0392909216919091179055565b7f000000000000000000000000000000000000000000000000000000000000000090565b7f00000000000000000000000000000000000000000000000000000000000000006001600160a01b03166323b872dd86308585600f0b60028110610a1057fe5b60200201516040518463ffffffff1660e01b8152600401610a3393929190611417565b602060405180830381600087803b158015610a4d57600080fd5b505af1158015610a61573d6000803e3d6000fd5b505050506040513d601f19601f82011682018060405250810190610a859190611396565b507f00000000000000000000000000000000000000000000000000000000000000006001600160a01b0316632e1a7d4d8383600f0b60028110610ac457fe5b60200201516040518263ffffffff1660e01b8152600401610ae59190611635565b600060405180830381600087803b158015610aff57600080fd5b505af1158015610b13573d6000803e3d6000fd5b505050506000610b85610b5a6064876001600160a01b031663bb7b8b806040518163ffffffff1660e01b815260040160206040518083038186803b15801561041457600080fd5b610452605f61044c670de0b6b3a76400008888600f0b60028110610b7a57fe5b60200201519061107d565b600254909150600160a01b900460ff168015610bbd57506001600160a01b03851673dc24316b9ae028f1497c275eb9192a3ea0f67022145b15610e175760025460405163a1903eab60e01b815273ae7ab96520de3a18e5e111b5eaab095312d7fe849163a1903eab914791610c08916001600160a01b0390911690600401611403565b6020604051808303818588803b158015610c2157600080fd5b505af1158015610c35573d6000803e3d6000fd5b50505050506040513d601f19601f82011682018060405250810190610c5a91906113b2565b50610c6361118a565b6040805180820182526000815290516370a0823160e01b8152602082019073ae7ab96520de3a18e5e111b5eaab095312d7fe84906370a0823190610cab903090600401611403565b60206040518083038186803b158015610cc357600080fd5b505afa158015610cd7573d6000803e3d6000fd5b505050506040513d601f19601f82011682018060405250810190610cfb91906113b2565b9052602081015160405163095ea7b360e01b815291925073ae7ab96520de3a18e5e111b5eaab095312d7fe849163095ea7b391610d3d918a919060040161143b565b602060405180830381600087803b158015610d5757600080fd5b505af1158015610d6b573d6000803e3d6000fd5b505050506040513d601f19601f82011682018060405250810190610d8f9190611396565b50604051630b4c7e4d60e01b81526001600160a01b03871690630b4c7e4d90610dbe9084908690600401611454565b602060405180830381600087803b158015610dd857600080fd5b505af1158015610dec573d6000803e3d6000fd5b505050506040513d601f19601f82011682018060405250810190610e1091906113b2565b5050610e9b565b604051630b4c7e4d60e01b81526001600160a01b03861690630b4c7e4d904790610e479087908690600401611454565b6020604051808303818588803b158015610e6057600080fd5b505af1158015610e74573d6000803e3d6000fd5b50505050506040513d601f19601f82011682018060405250810190610e9991906113b2565b505b6040516370a0823160e01b81526001600160a01b0385169063a9059cbb90889083906370a08231906105a8903090600401611403565b60008054906101000a90046001600160a01b03166001600160a01b031663fabee0e66040518163ffffffff1660e01b815260040160206040518083038186803b158015610f1d57600080fd5b505afa158015610f31573d6000803e3d6000fd5b505050506040513d601f19601f82011682018060405250810190610f5591906111d6565b6001600160a01b0316336001600160a01b031614610f855760405162461bcd60e51b8152600401610148906115a1565b60028054911515600160a01b0260ff60a01b19909216919091179055565b60008054906101000a90046001600160a01b03166001600160a01b031663e7f43c686040518163ffffffff1660e01b815260040160206040518083038186803b158015610fef57600080fd5b505afa158015611003573d6000803e3d6000fd5b505050506040513d601f19601f8201168201806040525081019061102791906111d6565b6001600160a01b0316336001600160a01b0316146110575760405162461bcd60e51b8152600401610148906114f2565b61106182826110f8565b5050565b73dc24316b9ae028f1497c275eb9192a3ea0f6702281565b60008261108c575060006110ba565b8282028284828161109957fe5b04146110b75760405162461bcd60e51b815260040161014890611560565b90505b92915050565b60008082116110e15760405162461bcd60e51b815260040161014890611529565b8183816110ea57fe5b049392505050565b3b151590565b604080516000808252602082019092526001600160a01b03841690839060405161112291906113ca565b60006040518083038185875af1925050503d806000811461115f576040519150601f19603f3d011682016040523d82523d6000602084013e611164565b606091505b50509050806111855760405162461bcd60e51b815260040161014890611608565b505050565b60405180604001604052806002906020820280368337509192915050565b8035600f81900b81146110ba57600080fd5b6000602082840312156111cb578081fd5b81356110b7816116ac565b6000602082840312156111e7578081fd5b81516110b7816116ac565b600080600080600060c08688031215611209578081fd5b8535611214816116ac565b9450602086810135611225816116ac565b94506040870135611235816116ac565b9350607f87018813611245578182fd5b60026112586112538261168f565b611668565b8060608a0160a08b018c81111561126d578687fd5b865b8581101561128b5782358552938601939186019160010161126f565b508297506112998d826111a8565b96505050505050509295509295909350565b600080600080600060a086880312156112c2578081fd5b85356112cd816116ac565b945060208601356112dd816116ac565b935060408601356112ed816116ac565b92506060860135915061130387608088016111a8565b90509295509295909350565b600080600060608486031215611323578283fd5b833561132e816116ac565b9250602084013561133e816116ac565b929592945050506040919091013590565b60008060408385031215611361578182fd5b823561136c816116ac565b946020939093013593505050565b60006020828403121561138b578081fd5b81356110b7816116c4565b6000602082840312156113a7578081fd5b81516110b7816116c4565b6000602082840312156113c3578081fd5b5051919050565b60008251815b818110156113ea57602081860181015185830152016113d0565b818111156113f85782828501525b509190910192915050565b6001600160a01b0391909116815260200190565b6001600160a01b039384168152919092166020820152604081019190915260600190565b6001600160a01b03929092168252602082015260400190565b60608101818460005b600281101561147c57815183526020928301929091019060010161145d565b5050508260408301529392505050565b901515815260200190565b60208082526014908201527311985b1b189858dac81b9bdd08185b1b1bddd95960621b604082015260600190565b602080825260139082015272149958d95a5d99481b9bdd08185b1b1bddd959606a1b604082015260600190565b6020808252601a908201527f63616c6c6572206973206e6f7420746865206f70657261746f72000000000000604082015260600190565b6020808252601a908201527f536166654d6174683a206469766973696f6e206279207a65726f000000000000604082015260600190565b60208082526021908201527f536166654d6174683a206d756c7469706c69636174696f6e206f766572666c6f6040820152607760f81b606082015260800190565b60208082526022908201527f63616c6c6572206973206e6f74207468652073747261746567794f706572617460408201526137b960f11b606082015260800190565b6020808252600b908201526a085a5cd0dbdb9d1c9858dd60aa1b604082015260600190565b60208082526013908201527211551217d514905394d1915497d19052531151606a1b604082015260600190565b90815260200190565b918252600f0b602082015260400190565b928352600f9190910b6020830152604082015260600190565b60405181810167ffffffffffffffff8111828210171561168757600080fd5b604052919050565b600067ffffffffffffffff8211156116a5578081fd5b5060200290565b6001600160a01b03811681146116c157600080fd5b50565b80151581146116c157600080fdfea164736f6c634300060c000a"
}