{
  "address": "0x3d75A191f19826a9E176bC9dfCE91eB9D0849269",
  "abi": [
    {
      "inputs": [
        {
          "internalType": "address",
          "name": "_registry",
          "type": "address"
        },
        {
          "internalType": "contract ICurveRegistryExchange",
          "name": "_curveRegistryExchange",
          "type": "address"
        },
        {
          "internalType": "contract ICurveMetaRegistry",
          "name": "_metaRegistry",
          "type": "address"
        },
        {
          "internalType": "address",
          "name": "_wrappedNetworkToken",
          "type": "address"
        },
        {
          "internalType": "address",
          "name": "_eth",
          "type": "address"
        },
        {
          "internalType": "address",
          "name": "_ETH_sETH_STABLESWAP",
          "type": "address"
        },
        {
          "internalType": "address",
          "name": "_ETH_ankrETH_STABLESWAP",
          "type": "address"
        },
        {
          "internalType": "address",
          "name": "_ETH_rETH_STABLESWAP",
          "type": "address"
        },
        {
          "internalType": "address",
          "name": "_ETH_stETH_STABLESWAP",
          "type": "address"
        }
      ],
      "stateMutability": "nonpayable",
      "type": "constructor"
    },
    {
      "inputs": [],
      "name": "CurveRegistryExchange",
      "outputs": [
        {
          "internalType": "contract ICurveRegistryExchange",
          "name": "",
          "type": "address"
        }
      ],
      "stateMutability": "view",
      "type": "function"
    },
    {
      "inputs": [],
      "name": "ETH",
      "outputs": [
        {
          "internalType": "address",
          "name": "",
          "type": "address"
        }
      ],
      "stateMutability": "view",
      "type": "function"
    },
    {
      "inputs": [],
      "name": "META_REGISTRY",
      "outputs": [
        {
          "internalType": "contract ICurveMetaRegistry",
          "name": "",
          "type": "address"
        }
      ],
      "stateMutability": "view",
      "type": "function"
    },
    {
      "inputs": [],
      "name": "WrappedNetworkToken",
      "outputs": [
        {
          "internalType": "address",
          "name": "",
          "type": "address"
        }
      ],
      "stateMutability": "view",
      "type": "function"
    },
    {
      "inputs": [
        {
          "internalType": "address",
          "name": "_inputToken",
          "type": "address"
        },
        {
          "internalType": "address",
          "name": "_liquidityPool",
          "type": "address"
        },
        {
          "internalType": "address",
          "name": "_outputToken",
          "type": "address"
        },
        {
          "internalType": "uint256",
          "name": "_inputTokenAmount",
          "type": "uint256"
        }
      ],
      "name": "calculateAmountInLPToken",
      "outputs": [
        {
          "internalType": "uint256",
          "name": "",
          "type": "uint256"
        }
      ],
      "stateMutability": "view",
      "type": "function"
    },
    {
      "inputs": [
        {
          "internalType": "address",
          "name": "",
          "type": "address"
        }
      ],
      "name": "canStake",
      "outputs": [
        {
          "internalType": "bool",
          "name": "",
          "type": "bool"
        }
      ],
      "stateMutability": "pure",
      "type": "function"
    },
    {
      "inputs": [],
      "name": "curveExchangeETHGatewayContract",
      "outputs": [
        {
          "internalType": "address",
          "name": "",
          "type": "address"
        }
      ],
      "stateMutability": "view",
      "type": "function"
    },
    {
      "inputs": [
        {
          "internalType": "address payable",
          "name": "_vault",
          "type": "address"
        },
        {
          "internalType": "address",
          "name": "_underlyingToken",
          "type": "address"
        },
        {
          "internalType": "address",
          "name": "_liquidityPool",
          "type": "address"
        },
        {
          "internalType": "address",
          "name": "_outputToken",
          "type": "address"
        }
      ],
      "name": "getAllAmountInToken",
      "outputs": [
        {
          "internalType": "uint256",
          "name": "",
          "type": "uint256"
        }
      ],
      "stateMutability": "view",
      "type": "function"
    },
    {
      "inputs": [
        {
          "internalType": "address payable",
          "name": "_vault",
          "type": "address"
        },
        {
          "internalType": "address",
          "name": "_inputToken",
          "type": "address"
        },
        {
          "internalType": "address",
          "name": "_liquidityPool",
          "type": "address"
        },
        {
          "internalType": "address",
          "name": "_outputToken",
          "type": "address"
        }
      ],
      "name": "getDepositAllCodes",
      "outputs": [
        {
          "internalType": "bytes[]",
          "name": "",
          "type": "bytes[]"
        }
      ],
      "stateMutability": "view",
      "type": "function"
    },
    {
      "inputs": [
        {
          "internalType": "address payable",
          "name": "_vault",
          "type": "address"
        },
        {
          "internalType": "address",
          "name": "_inputToken",
          "type": "address"
        },
        {
          "internalType": "address",
          "name": "_liquidityPool",
          "type": "address"
        },
        {
          "internalType": "address",
          "name": "_outputToken",
          "type": "address"
        },
        {
          "internalType": "uint256",
          "name": "_inputTokenAmount",
          "type": "uint256"
        }
      ],
      "name": "getDepositSomeCodes",
      "outputs": [
        {
          "internalType": "bytes[]",
          "name": "_codes",
          "type": "bytes[]"
        }
      ],
      "stateMutability": "view",
      "type": "function"
    },
    {
      "inputs": [
        {
          "internalType": "address payable",
          "name": "_vault",
          "type": "address"
        },
        {
          "internalType": "address",
          "name": "",
          "type": "address"
        },
        {
          "internalType": "address",
          "name": "",
          "type": "address"
        },
        {
          "internalType": "address",
          "name": "_outputToken",
          "type": "address"
        }
      ],
      "name": "getLiquidityPoolTokenBalance",
      "outputs": [
        {
          "internalType": "uint256",
          "name": "",
          "type": "uint256"
        }
      ],
      "stateMutability": "view",
      "type": "function"
    },
    {
      "inputs": [
        {
          "internalType": "address",
          "name": "_inputToken",
          "type": "address"
        },
        {
          "internalType": "address",
          "name": "_liquidityPool",
          "type": "address"
        },
        {
          "internalType": "address",
          "name": "_outputToken",
          "type": "address"
        },
        {
          "internalType": "uint256",
          "name": "_outputTokenAmount",
          "type": "uint256"
        }
      ],
      "name": "getSomeAmountInToken",
      "outputs": [
        {
          "internalType": "uint256",
          "name": "",
          "type": "uint256"
        }
      ],
      "stateMutability": "view",
      "type": "function"
    },
    {
      "inputs": [
        {
          "internalType": "address payable",
          "name": "_vault",
          "type": "address"
        },
        {
          "internalType": "address",
          "name": "_underlyingToken",
          "type": "address"
        },
        {
          "internalType": "address",
          "name": "_liquidityPool",
          "type": "address"
        },
        {
          "internalType": "address",
          "name": "_outputToken",
          "type": "address"
        }
      ],
      "name": "getWithdrawAllCodes",
      "outputs": [
        {
          "internalType": "bytes[]",
          "name": "_codes",
          "type": "bytes[]"
        }
      ],
      "stateMutability": "view",
      "type": "function"
    },
    {
      "inputs": [
        {
          "internalType": "address payable",
          "name": "_vault",
          "type": "address"
        },
        {
          "internalType": "address",
          "name": "_inputToken",
          "type": "address"
        },
        {
          "internalType": "address",
          "name": "_liquidityPool",
          "type": "address"
        },
        {
          "internalType": "address",
          "name": "_outputToken",
          "type": "address"
        },
        {
          "internalType": "uint256",
          "name": "_outputTokenAmount",
          "type": "uint256"
        }
      ],
      "name": "getWithdrawSomeCodes",
      "outputs": [
        {
          "internalType": "bytes[]",
          "name": "_codes",
          "type": "bytes[]"
        }
      ],
      "stateMutability": "view",
      "type": "function"
    },
    {
      "inputs": [],
      "name": "registryContract",
      "outputs": [
        {
          "internalType": "contract IAdapterRegistryBase",
          "name": "",
          "type": "address"
        }
      ],
      "stateMutability": "view",
      "type": "function"
    },
    {
      "inputs": [
        {
          "internalType": "address",
          "name": "_registry",
          "type": "address"
        }
      ],
      "name": "setRegistry",
      "outputs": [],
      "stateMutability": "nonpayable",
      "type": "function"
    }
  ],
  "transactionHash": "0x488f5f6fcb98af7e0ad691fd1842b261d4660e6f0bd86da6343306bdb6933e4a",
  "args": [
    "0x99fa011e33a8c6196869dec7bc407e896ba67fe3",
    "0x55B916Ce078eA594c10a874ba67eCc3d62e29822",
    "0xF98B45FA17DE75FB1aD0e7aFD971b0ca00e379fC",
    "0xC02aaA39b223FE8D0A0e5C4F27eAD9083C756Cc2",
    "0xEeeeeEeeeEeEeeEeEeEeeEEEeeeeEeeeeeeeEEeE",
    "0xc5424B857f758E906013F3555Dad202e4bdB4567",
    "0xA96A65c051bF88B4095Ee1f2451C2A9d43F53Ae2",
    "0xF9440930043eb3997fc70e1339dBb11F341de7A8",
    "0xDC24316b9AE028F1497c275EB9192a3Ea0f67022"
  ],
  "numDeployments": 1,
  "bytecode": "0x6101006040523480156200001257600080fd5b50604051620046d6380380620046d683398101604081905262000035916200012c565b600080546001600160a01b0319166001600160a01b038b811691909117909155888116608090815288821660a05287821660c05286821660e05260408051918201815286831682528583166020830152848316828201529183166060820152905187918b918b9190620000a89062000105565b620000b7949392919062000203565b604051809103906000f080158015620000d4573d6000803e3d6000fd5b50600180546001600160a01b0319166001600160a01b03929092169190911790555062000261975050505050505050565b611d51806200298583390190565b6001600160a01b03811681146200012957600080fd5b50565b60008060008060008060008060006101208a8c0312156200014c57600080fd5b8951620001598162000113565b60208b01519099506200016c8162000113565b60408b01519098506200017f8162000113565b60608b0151909750620001928162000113565b60808b0151909650620001a58162000113565b60a08b0151909550620001b88162000113565b60c08b0151909450620001cb8162000113565b60e08b0151909350620001de8162000113565b6101008b0151909250620001f28162000113565b809150509295985092959850929598565b6001600160a01b038581168252848116602080840191909152848216604084015260e083019190606084018560005b60048110156200025357815185168352918301919083019060010162000232565b505050505095945050505050565b60805160a05160c05160e0516125cb620003ba600039600081816101ff015281816104c70152818161052801528181610615015281816107040152818161099201528181610cc601528181610d27015281816110c301528181611386015281816113e7015281816114d40152818161155801528181611b0c0152611cd301526000818161027401528181610488015281816104e9015281816105c3015281816106b20152818161095301528181610c8701528181610ce801528181611084015281816110e50152818161118801528181611347015281816113a80152818161148201528181611506015281816116cc01528181611acd0152611c9401526000818161010a015281816115e6015281816119c80152611a5c01526000818161029b015281816104580152818161076f0152818161079701528181610c570152818161105401528181611317015261158a01526125cb6000f3fe608060405234801561001057600080fd5b50600436106101005760003560e01c80638322fff211610097578063b3c2c83b11610066578063b3c2c83b1461025c578063ddef425f1461026f578063f21749a714610296578063f2bbc6e2146102bd57600080fd5b80638322fff2146101fa578063a91ee0dc14610221578063a9d5210614610236578063ac48c6361461024957600080fd5b80631ee383e8116100d35780631ee383e81461019d578063281c4ec5146101b057806328c1f99b146101c357806336d8bf93146101d657600080fd5b806303a3279d146101055780630a797578146101495780630b39c588146101695780631b5dfc921461018a575b600080fd5b61012c7f000000000000000000000000000000000000000000000000000000000000000081565b6040516001600160a01b0390911681526020015b60405180910390f35b61015c610157366004612052565b6102d0565b60405161014091906120fb565b61017c610177366004612052565b610354565b604051908152602001610140565b61015c61019836600461215d565b6103cc565b61017c6101ab3660046121c1565b6108c6565b61015c6101be366004612052565b610dba565b60005461012c906001600160a01b031681565b6101ea6101e4366004612212565b50600090565b6040519015158152602001610140565b61012c7f000000000000000000000000000000000000000000000000000000000000000081565b61023461022f366004612212565b610e33565b005b61017c610244366004612052565b610f74565b61017c6102573660046121c1565b610fe2565b60015461012c906001600160a01b031681565b61012c7f000000000000000000000000000000000000000000000000000000000000000081565b61012c7f000000000000000000000000000000000000000000000000000000000000000081565b61015c6102cb36600461215d565b611122565b6040516370a0823160e01b81526001600160a01b0380861660048301526060916103499187918791879187918416906370a0823190602401602060405180830381865afa158015610325573d6000803e3d6000fd5b505050506040513d601f19601f820116820180604052508101906102cb919061222f565b90505b949350505050565b6040516370a0823160e01b81526001600160a01b03858116600483015260009161034991869186918691908216906370a0823190602401602060405180830381865afa1580156103a8573d6000803e3d6000fd5b505050506040513d601f19601f820116820180604052508101906101ab919061222f565b606081156108bd5760408051600180825281830190925290816020015b60608152602001906001900390816103e9579050509050846001600160a01b0316610413856115c4565b6001600160a01b031614156104515761042e86848685611659565b816000815181106104415761044161225e565b60200260200101819052506108bd565b60006127107f00000000000000000000000000000000000000000000000000000000000000006001600160a01b0316633973e834877f00000000000000000000000000000000000000000000000000000000000000006001600160a01b0316886001600160a01b0316146104c557876104e7565b7f00000000000000000000000000000000000000000000000000000000000000005b7f00000000000000000000000000000000000000000000000000000000000000006001600160a01b03168b6001600160a01b031614610526578a610548565b7f00000000000000000000000000000000000000000000000000000000000000005b886040518563ffffffff1660e01b81526004016105689493929190612274565b602060405180830381865afa158015610585573d6000803e3d6000fd5b505050506040513d601f19601f820116820180604052508101906105a9919061222f565b6105b5906126ac6122b4565b6105bf91906122d3565b90507f00000000000000000000000000000000000000000000000000000000000000006001600160a01b0316866001600160a01b031614156106b0576001546040516001600160a01b03909116906106459089907f00000000000000000000000000000000000000000000000000000000000000009089908990899088906024016122f5565b60408051601f19818403018152918152602080830180516001600160e01b03166334f0430f60e21b179052905161067e9392910161232f565b604051602081830303815290604052826000815181106106a0576106a061225e565b60200260200101819052506108bb565b7f00000000000000000000000000000000000000000000000000000000000000006001600160a01b0316846001600160a01b0316141561076d576001546040516001600160a01b03909116906107349089907f00000000000000000000000000000000000000000000000000000000000000009089908b90899088906024016122f5565b60408051601f19818403018152918152602080830180516001600160e01b03166307a858eb60e01b179052905161067e9392910161232f565b7f0000000000000000000000000000000000000000000000000000000000000000858588866127107f00000000000000000000000000000000000000000000000000000000000000006001600160a01b0316633973e8348c8c8f8d6040518563ffffffff1660e01b81526004016107e79493929190612274565b602060405180830381865afa158015610804573d6000803e3d6000fd5b505050506040513d601f19601f82011682018060405250810190610828919061222f565b610834906126ac6122b4565b61083e91906122d3565b8c60405160240161085496959493929190612353565b60408051601f19818403018152918152602080830180516001600160e01b0316631a4c1ca360e01b179052905161088d9392910161232f565b604051602081830303815290604052826000815181106108af576108af61225e565b60200260200101819052505b505b95945050505050565b60008115610daf57846001600160a01b03166108e1856115c4565b6001600160a01b03161415610c555760006108fb856119a6565b9050600061090886611a35565b905060008267ffffffffffffffff81111561092557610925612248565b60405190808252806020026020018201604052801561094e578160200160208202803683370190505b5090507f00000000000000000000000000000000000000000000000000000000000000006001600160a01b0316866001600160a01b03161461099057856109b2565b7f00000000000000000000000000000000000000000000000000000000000000005b955060005b83811015610a2157866001600160a01b03168382600881106109db576109db61225e565b60200201516001600160a01b03161415610a0f5785828281518110610a0257610a0261225e565b6020026020010181815250505b80610a198161238b565b9150506109b7565b508260021415610aed57866001600160a01b031663ed8e84f3604051806040016040528084600081518110610a5857610a5861225e565b6020026020010151815260200184600181518110610a7857610a7861225e565b602002602001015181525060016040518363ffffffff1660e01b8152600401610aa29291906123cf565b602060405180830381865afa158015610abf573d6000803e3d6000fd5b505050506040513d601f19601f82011682018060405250810190610ae3919061222f565b935050505061034c565b8260031415610b8d57866001600160a01b0316633883e119604051806060016040528084600081518110610b2357610b2361225e565b6020026020010151815260200184600181518110610b4357610b4361225e565b6020026020010151815260200184600281518110610b6357610b6361225e565b602002602001015181525060016040518363ffffffff1660e01b8152600401610aa292919061240f565b8260041415610c4d57866001600160a01b031663cf701ff7604051806080016040528084600081518110610bc357610bc361225e565b6020026020010151815260200184600181518110610be357610be361225e565b6020026020010151815260200184600281518110610c0357610c0361225e565b6020026020010151815260200184600381518110610c2357610c2361225e565b602002602001015181525060016040518363ffffffff1660e01b8152600401610aa292919061244f565b505050610daf565b7f00000000000000000000000000000000000000000000000000000000000000006001600160a01b0316633973e834857f00000000000000000000000000000000000000000000000000000000000000006001600160a01b0316866001600160a01b031614610cc45785610ce6565b7f00000000000000000000000000000000000000000000000000000000000000005b7f00000000000000000000000000000000000000000000000000000000000000006001600160a01b0316896001600160a01b031614610d255788610d47565b7f00000000000000000000000000000000000000000000000000000000000000005b866040518563ffffffff1660e01b8152600401610d679493929190612274565b602060405180830381865afa158015610d84573d6000803e3d6000fd5b505050506040513d601f19601f82011682018060405250810190610da8919061222f565b905061034c565b506000949350505050565b6040516370a0823160e01b81526001600160a01b0380861660048301526060916103499187918791879187918216906370a0823190602401602060405180830381865afa158015610e0f573d6000803e3d6000fd5b505050506040513d601f19601f82011682018060405250810190610198919061222f565b60008054906101000a90046001600160a01b03166001600160a01b031663e7f43c686040518163ffffffff1660e01b8152600401602060405180830381865afa158015610e84573d6000803e3d6000fd5b505050506040513d601f19601f82011682018060405250810190610ea8919061247c565b6001600160a01b0316336001600160a01b031614610f0d5760405162461bcd60e51b815260206004820152601a60248201527f63616c6c6572206973206e6f7420746865206f70657261746f7200000000000060448201526064015b60405180910390fd5b6001600160a01b0381163b610f525760405162461bcd60e51b815260206004820152600b60248201526a085a5cd0dbdb9d1c9858dd60aa1b6044820152606401610f04565b600080546001600160a01b0319166001600160a01b0392909216919091179055565b6040516370a0823160e01b81526001600160a01b038581166004830152600091908316906370a0823190602401602060405180830381865afa158015610fbe573d6000803e3d6000fd5b505050506040513d601f19601f82011682018060405250810190610349919061222f565b60008115610daf57846001600160a01b0316610ffd856115c4565b6001600160a01b0316141561105257836001600160a01b031663cc2b27d7836110268787611ac8565b6040516001600160e01b031960e085901b1681526004810192909252600f0b6024820152604401610d67565b7f00000000000000000000000000000000000000000000000000000000000000006001600160a01b0316633973e834857f00000000000000000000000000000000000000000000000000000000000000006001600160a01b0316886001600160a01b0316146110c157876110e3565b7f00000000000000000000000000000000000000000000000000000000000000005b7f00000000000000000000000000000000000000000000000000000000000000006001600160a01b0316876001600160a01b031614610d255786610d47565b606081156108bd5760408051600180825281830190925290816020015b606081526020019060019003908161113f579050509050846001600160a01b0316611169856115c4565b6001600160a01b031614156113105760006111848585611ac8565b90507f00000000000000000000000000000000000000000000000000000000000000006001600160a01b0316846001600160a01b0316146112655784856001600160a01b0316631a4d01d285846127106111df8b8a89611b9f565b6111eb906126ac6122b4565b6111f591906122d3565b6040516024810193909352600f9190910b60448301526064820152608401604051602081830303815290604052915060e01b6020820180516001600160e01b03838183161783525050505060405160200161125192919061232f565b6040516020818303038152906040526112ec565b6001546040516001600160a01b0389811660248301528781166044830152888116606483015260848201869052600f84900b60a48301529091169060c40160408051601f19818403018152918152602080830180516001600160e01b0316631ff2027560e11b17905290516112dc9392910161232f565b6040516020818303038152906040525b826000815181106112ff576112ff61225e565b6020026020010181905250506108bd565b60006127107f00000000000000000000000000000000000000000000000000000000000000006001600160a01b0316633973e834877f00000000000000000000000000000000000000000000000000000000000000006001600160a01b03168a6001600160a01b03161461138457896113a6565b7f00000000000000000000000000000000000000000000000000000000000000005b7f00000000000000000000000000000000000000000000000000000000000000006001600160a01b0316896001600160a01b0316146113e55788611407565b7f00000000000000000000000000000000000000000000000000000000000000005b886040518563ffffffff1660e01b81526004016114279493929190612274565b602060405180830381865afa158015611444573d6000803e3d6000fd5b505050506040513d601f19601f82011682018060405250810190611468919061222f565b611474906126ac6122b4565b61147e91906122d3565b90507f00000000000000000000000000000000000000000000000000000000000000006001600160a01b0316866001600160a01b03161415611504576001546040516001600160a01b03909116906107349089907f00000000000000000000000000000000000000000000000000000000000000009089908990899088906024016122f5565b7f00000000000000000000000000000000000000000000000000000000000000006001600160a01b0316846001600160a01b03161415611588576001546040516001600160a01b03909116906106459089907f00000000000000000000000000000000000000000000000000000000000000009089908b90899088906024016122f5565b7f000000000000000000000000000000000000000000000000000000000000000085878686858c60405160240161085496959493929190612353565b604051633795104960e01b81526001600160a01b0382811660048301526000917f000000000000000000000000000000000000000000000000000000000000000090911690633795104990602401602060405180830381865afa15801561162f573d6000803e3d6000fd5b505050506040513d601f19601f82011682018060405250810190611653919061247c565b92915050565b606060008060008061166c888888611c2c565b935093509350935060028314156117e257600060405180604001604052808460008151811061169d5761169d61225e565b60200260200101518152602001846001815181106116bd576116bd61225e565b602002602001015181525090507f00000000000000000000000000000000000000000000000000000000000000006001600160a01b0316896001600160a01b03161461176457878183604051602401611717929190612499565b60408051601f19818403018152918152602080830180516001600160e01b0316630b4c7e4d60e01b17905290516117509392910161232f565b6040516020818303038152906040526117da565b6001546001600160a01b03168a8961177b816115c4565b84896040516024016117919594939291906124b4565b60408051601f19818403018152918152602080830180516001600160e01b0316632c12c6b160e21b17905290516117ca9392910161232f565b6040516020818303038152906040525b95505061199a565b60038314156118a557600060405180606001604052808460008151811061180b5761180b61225e565b602002602001015181526020018460018151811061182b5761182b61225e565b602002602001015181526020018460028151811061184b5761184b61225e565b6020026020010151815250905087818360405160240161186c9291906124f4565b60408051601f19818403018152918152602080830180516001600160e01b0316634515cef360e01b17905290516117ca9392910161232f565b600483141561199a5760006040518060800160405280846000815181106118ce576118ce61225e565b60200260200101518152602001846001815181106118ee576118ee61225e565b602002602001015181526020018460028151811061190e5761190e61225e565b602002602001015181526020018460038151811061192e5761192e61225e565b6020026020010151815250905087818360405160240161194f92919061250f565b60408051601f19818403018152918152602080830180516001600160e01b031662a6cbcd60e21b17905290516119879392910161232f565b6040516020818303038152906040529550505b50505050949350505050565b60405163014e018160e31b81526001600160a01b0382811660048301526000917f000000000000000000000000000000000000000000000000000000000000000090911690630a700c0890602401602060405180830381865afa158015611a11573d6000803e3d6000fd5b505050506040513d601f19601f82011682018060405250810190611653919061222f565b611a3d61201b565b60405163a77576ef60e01b81526001600160a01b0383811660048301527f0000000000000000000000000000000000000000000000000000000000000000169063a77576ef9060240161010060405180830381865afa158015611aa4573d6000803e3d6000fd5b505050506040513d601f19601f82011682018060405250810190611653919061252a565b6000807f00000000000000000000000000000000000000000000000000000000000000006001600160a01b0316836001600160a01b031614611b0a5782611b2c565b7f00000000000000000000000000000000000000000000000000000000000000005b90506000611b3985611a35565b905060005b6008811015611b9357826001600160a01b0316828260088110611b6357611b6361225e565b60200201516001600160a01b03161415611b81579250611653915050565b80611b8b8161238b565b915050611b3e565b50600095945050505050565b60008215611c215760405163cc2b27d760e01b815260048101849052600f83900b60248201526001600160a01b0385169063cc2b27d790604401602060405180830381865afa158015611bf6573d6000803e3d6000fd5b505050506040513d601f19601f82011682018060405250810190611c1a919061222f565b9050611c25565b5060005b9392505050565b60008060606000611c3c866119a6565b92506000611c4987611a35565b90508367ffffffffffffffff811115611c6457611c64612248565b604051908082528060200260200182016040528015611c8d578160200160208202803683370190505b50925060007f00000000000000000000000000000000000000000000000000000000000000006001600160a01b0316896001600160a01b031614611cd15788611cf3565b7f00000000000000000000000000000000000000000000000000000000000000005b9050611cff8882611ac8565b955060005b85811015611d6e57816001600160a01b0316838260088110611d2857611d2861225e565b60200201516001600160a01b03161415611d5c5787858281518110611d4f57611d4f61225e565b6020026020010181815250505b80611d668161238b565b915050611d04565b506002851415611e5057612710886001600160a01b031663ed8e84f3604051806040016040528088600081518110611da857611da861225e565b6020026020010151815260200188600181518110611dc857611dc861225e565b602002602001015181525060016040518363ffffffff1660e01b8152600401611df29291906123cf565b602060405180830381865afa158015611e0f573d6000803e3d6000fd5b505050506040513d601f19601f82011682018060405250810190611e33919061222f565b611e3f906126ac6122b4565b611e4991906122d3565b9250612010565b6003851415611ef357612710886001600160a01b0316633883e119604051806060016040528088600081518110611e8957611e8961225e565b6020026020010151815260200188600181518110611ea957611ea961225e565b6020026020010151815260200188600281518110611ec957611ec961225e565b602002602001015181525060016040518363ffffffff1660e01b8152600401611df292919061240f565b600485141561201057612710886001600160a01b031663cf701ff7604051806080016040528088600081518110611f2c57611f2c61225e565b6020026020010151815260200188600181518110611f4c57611f4c61225e565b6020026020010151815260200188600281518110611f6c57611f6c61225e565b6020026020010151815260200188600381518110611f8c57611f8c61225e565b602002602001015181525060016040518363ffffffff1660e01b8152600401611fb692919061244f565b602060405180830381865afa158015611fd3573d6000803e3d6000fd5b505050506040513d601f19601f82011682018060405250810190611ff7919061222f565b612003906126ac6122b4565b61200d91906122d3565b92505b505093509350935093565b6040518061010001604052806008906020820280368337509192915050565b6001600160a01b038116811461204f57600080fd5b50565b6000806000806080858703121561206857600080fd5b84356120738161203a565b935060208501356120838161203a565b925060408501356120938161203a565b915060608501356120a38161203a565b939692955090935050565b6000815180845260005b818110156120d4576020818501810151868301820152016120b8565b818111156120e6576000602083870101525b50601f01601f19169290920160200192915050565b6000602080830181845280855180835260408601915060408160051b870101925083870160005b8281101561215057603f1988860301845261213e8583516120ae565b94509285019290850190600101612122565b5092979650505050505050565b600080600080600060a0868803121561217557600080fd5b85356121808161203a565b945060208601356121908161203a565b935060408601356121a08161203a565b925060608601356121b08161203a565b949793965091946080013592915050565b600080600080608085870312156121d757600080fd5b84356121e28161203a565b935060208501356121f28161203a565b925060408501356122028161203a565b9396929550929360600135925050565b60006020828403121561222457600080fd5b8135611c258161203a565b60006020828403121561224157600080fd5b5051919050565b634e487b7160e01b600052604160045260246000fd5b634e487b7160e01b600052603260045260246000fd5b6001600160a01b039485168152928416602084015292166040820152606081019190915260800190565b634e487b7160e01b600052601160045260246000fd5b60008160001904831182151516156122ce576122ce61229e565b500290565b6000826122f057634e487b7160e01b600052601260045260246000fd5b500490565b6001600160a01b0396871681529486166020860152928516604085015293166060830152608082019290925260a081019190915260c00190565b6001600160a01b038316815260406020820181905260009061034c908301846120ae565b6001600160a01b039687168152948616602086015292851660408501526060840191909152608083015290911660a082015260c00190565b600060001982141561239f5761239f61229e565b5060010190565b8060005b60028110156123c95781518452602093840193909101906001016123aa565b50505050565b606081016123dd82856123a6565b82151560408301529392505050565b8060005b60038110156123c95781518452602093840193909101906001016123f0565b6080810161241d82856123ec565b82151560608301529392505050565b8060005b60048110156123c9578151845260209384019390910190600101612430565b60a0810161245d828561242c565b82151560808301529392505050565b80516124778161203a565b919050565b60006020828403121561248e57600080fd5b8151611c258161203a565b606081016124a782856123a6565b8260408301529392505050565b6001600160a01b03868116825285811660208301528416604082015260c081016124e160608301856123a6565b82600f0b60a08301529695505050505050565b6080810161250282856123ec565b8260608301529392505050565b60a0810161251d828561242c565b8260808301529392505050565b600061010080838503121561253e57600080fd5b83601f84011261254d57600080fd5b60405181810181811067ffffffffffffffff8211171561257d57634e487b7160e01b600052604160045260246000fd5b60405290830190808583111561259257600080fd5b845b838110156125b3576125a58161246c565b825260209182019101612594565b50909594505050505056fea164736f6c634300080b000a60c06040523480156200001157600080fd5b5060405162001d5138038062001d51833981016040819052620000349162000139565b600080546001600160a01b0319166001600160a01b03858116919091178255858116608052831660a0525b6004811015620000c857600180600084846004811062000083576200008362000209565b602090810291909101516001600160a01b03168252810191909152604001600020805460ff191691151591909117905580620000bf816200021f565b9150506200005f565b50506001600160a01b03166000908152600160208190526040909120805460ff1916909117905550620002499050565b6001600160a01b03811681146200010e57600080fd5b50565b80516200011e81620000f8565b919050565b634e487b7160e01b600052604160045260246000fd5b60008060008060e085870312156200015057600080fd5b84516200015d81620000f8565b809450506020808601516200017281620000f8565b60408701519094506200018581620000f8565b9250607f860187136200019757600080fd5b604051608081016001600160401b0381118282101715620001bc57620001bc62000123565b6040528060e0880189811115620001d257600080fd5b606089015b81811015620001f957620001eb8162000111565b8352918401918401620001d7565b5096999598509396509450505050565b634e487b7160e01b600052603260045260246000fd5b60006000198214156200024257634e487b7160e01b600052601160045260246000fd5b5060010190565b60805160a051611a9d620002b46000396000818161037b015281816104ee01528181610fd3015261103501526000818160d6015281816102e5015281816103b401528181610447015281816108010152818161088501528181610caf0152610d5c0152611a9d6000f3fe6080604052600436106100c65760003560e01c8063a3d5b2551161007f578063b04b1ac411610059578063b04b1ac414610309578063d3c10c3c14610329578063eed88b8d14610349578063f21749a7146103695761015a565b8063a3d5b25514610296578063a91ee0dc146102b6578063affa8817146102d65761015a565b806307a858eb146101995780631695ca4e146101b95780632353c2c9146101fe57806328c1f99b1461021e5780633fe404ea146102565780635c34c2d8146102765761015a565b3661015a57336001600160a01b037f000000000000000000000000000000000000000000000000000000000000000016148061011157503360009081526001602052604090205460ff165b6101585760405162461bcd60e51b8152602060048201526013602482015272149958d95a5d99481b9bdd08185b1b1bddd959606a1b60448201526064015b60405180910390fd5b005b60405162461bcd60e51b815260206004820152601460248201527311985b1b189858dac81b9bdd08185b1b1bddd95960621b604482015260640161014f565b3480156101a557600080fd5b506101586101b4366004611565565b61039d565b3480156101c557600080fd5b506101e96101d43660046115d3565b60016020526000908152604090205460ff1681565b60405190151581526020015b60405180910390f35b34801561020a57600080fd5b50610158610219366004611660565b610568565b34801561022a57600080fd5b5060005461023e906001600160a01b031681565b6040516001600160a01b0390911681526020016101f5565b34801561026257600080fd5b50610158610271366004611729565b61067a565b34801561028257600080fd5b50610158610291366004611660565b610975565b3480156102a257600080fd5b506101586102b136600461178d565b610a83565b3480156102c257600080fd5b506101586102d13660046115d3565b610ba1565b3480156102e257600080fd5b507f000000000000000000000000000000000000000000000000000000000000000061023e565b34801561031557600080fd5b506101586103243660046117ce565b610cad565b34801561033557600080fd5b50610158610344366004611565565b610f50565b34801561035557600080fd5b50610158610364366004611876565b611064565b34801561037557600080fd5b5061023e7f000000000000000000000000000000000000000000000000000000000000000081565b6040516323b872dd60e01b81526001600160a01b037f000000000000000000000000000000000000000000000000000000000000000016906323b872dd906103ed908990309087906004016118a2565b6020604051808303816000875af115801561040c573d6000803e3d6000fd5b505050506040513d601f19601f8201168201806040525081019061043091906118c6565b50604051632e1a7d4d60e01b8152600481018390527f00000000000000000000000000000000000000000000000000000000000000006001600160a01b031690632e1a7d4d90602401600060405180830381600087803b15801561049357600080fd5b505af11580156104a7573d6000803e3d6000fd5b5050604051631a4c1ca360e01b81526001600160a01b03878116600483015288811660248301528681166044830152606482018690526084820185905289811660a48301527f0000000000000000000000000000000000000000000000000000000000000000169250631a4c1ca39150849060c40160206040518083038185885af115801561053a573d6000803e3d6000fd5b50505050506040513d601f19601f8201168201806040525081019061055f91906118e8565b50505050505050565b60008054906101000a90046001600160a01b03166001600160a01b031663e7f43c686040518163ffffffff1660e01b8152600401602060405180830381865afa1580156105b9573d6000803e3d6000fd5b505050506040513d601f19601f820116820180604052508101906105dd9190611901565b6001600160a01b0316336001600160a01b03161461060d5760405162461bcd60e51b815260040161014f9061191e565b805160005b8181101561067557600180600085848151811061063157610631611955565b6020908102919091018101516001600160a01b03168252810191909152604001600020805460ff19169115159190911790558061066d81611981565b915050610612565b505050565b6040516323b872dd60e01b81526001600160a01b038416906323b872dd906106aa908890309087906004016118a2565b6020604051808303816000875af11580156106c9573d6000803e3d6000fd5b505050506040513d601f19601f820116820180604052508101906106ed91906118c6565b5060405163cc2b27d760e01b815260048101839052600f82900b6024820152600090612710906001600160a01b0387169063cc2b27d790604401602060405180830381865afa158015610744573d6000803e3d6000fd5b505050506040513d601f19601f8201168201806040525081019061076891906118e8565b610774906126ac61199c565b61077e91906119bb565b604051630d2680e960e11b815260048101859052600f84900b6024820152604481018290529091506001600160a01b03861690631a4d01d2906064015b6020604051808303816000875af11580156107da573d6000803e3d6000fd5b505050506040513d601f19601f820116820180604052508101906107fe91906118e8565b507f00000000000000000000000000000000000000000000000000000000000000006001600160a01b031663d0e30db0476040518263ffffffff1660e01b81526004016000604051808303818588803b15801561085a57600080fd5b505af115801561086e573d6000803e3d6000fd5b50506040516370a0823160e01b81523060048201527f00000000000000000000000000000000000000000000000000000000000000006001600160a01b0316935063a9059cbb925089915083906370a08231906024015b602060405180830381865afa1580156108e2573d6000803e3d6000fd5b505050506040513d601f19601f8201168201806040525081019061090691906118e8565b6040516001600160e01b031960e085901b1681526001600160a01b03909216600483015260248201526044016020604051808303816000875af1158015610951573d6000803e3d6000fd5b505050506040513d601f19601f8201168201806040525081019061055f91906118c6565b60008054906101000a90046001600160a01b03166001600160a01b031663e7f43c686040518163ffffffff1660e01b8152600401602060405180830381865afa1580156109c6573d6000803e3d6000fd5b505050506040513d601f19601f820116820180604052508101906109ea9190611901565b6001600160a01b0316336001600160a01b031614610a1a5760405162461bcd60e51b815260040161014f9061191e565b805160005b8181101561067557600060016000858481518110610a3f57610a3f611955565b6020908102919091018101516001600160a01b03168252810191909152604001600020805460ff191691151591909117905580610a7b81611981565b915050610a1f565b60008054906101000a90046001600160a01b03166001600160a01b031663e7f43c686040518163ffffffff1660e01b8152600401602060405180830381865afa158015610ad4573d6000803e3d6000fd5b505050506040513d601f19601f82011682018060405250810190610af89190611901565b6001600160a01b0316336001600160a01b031614610b285760405162461bcd60e51b815260040161014f9061191e565b60405163a9059cbb60e01b81526001600160a01b0383811660048301526024820183905284169063a9059cbb906044016020604051808303816000875af1158015610b77573d6000803e3d6000fd5b505050506040513d601f19601f82011682018060405250810190610b9b91906118c6565b50505050565b60008054906101000a90046001600160a01b03166001600160a01b031663e7f43c686040518163ffffffff1660e01b8152600401602060405180830381865afa158015610bf2573d6000803e3d6000fd5b505050506040513d601f19601f82011682018060405250810190610c169190611901565b6001600160a01b0316336001600160a01b031614610c465760405162461bcd60e51b815260040161014f9061191e565b6001600160a01b0381163b610c8b5760405162461bcd60e51b815260206004820152600b60248201526a085a5cd0dbdb9d1c9858dd60aa1b604482015260640161014f565b600080546001600160a01b0319166001600160a01b0392909216919091179055565b7f00000000000000000000000000000000000000000000000000000000000000006001600160a01b03166323b872dd86308585600f0b60028110610cf357610cf3611955565b60200201516040518463ffffffff1660e01b8152600401610d16939291906118a2565b6020604051808303816000875af1158015610d35573d6000803e3d6000fd5b505050506040513d601f19601f82011682018060405250810190610d5991906118c6565b507f00000000000000000000000000000000000000000000000000000000000000006001600160a01b0316632e1a7d4d8383600f0b60028110610d9e57610d9e611955565b60200201516040518263ffffffff1660e01b8152600401610dc191815260200190565b600060405180830381600087803b158015610ddb57600080fd5b505af1158015610def573d6000803e3d6000fd5b505050506000846001600160a01b031663bb7b8b806040518163ffffffff1660e01b8152600401602060405180830381865afa158015610e33573d6000803e3d6000fd5b505050506040513d601f19601f82011682018060405250810190610e5791906118e8565b610e639061271061199c565b8383600f0b60028110610e7857610e78611955565b6020020151610e8f90670de0b6b3a764000061199c565b610e9b9061251c61199c565b610ea591906119bb565b9050846001600160a01b0316630b4c7e4d4785846040518463ffffffff1660e01b8152600401610ed69291906119dd565b60206040518083038185885af1158015610ef4573d6000803e3d6000fd5b50505050506040513d601f19601f82011682018060405250810190610f1991906118e8565b506040516370a0823160e01b81523060048201526001600160a01b0385169063a9059cbb90889083906370a08231906024016108c5565b6040516323b872dd60e01b81526001600160a01b038416906323b872dd90610f80908990309087906004016118a2565b6020604051808303816000875af1158015610f9f573d6000803e3d6000fd5b505050506040513d601f19601f82011682018060405250810190610fc391906118c6565b50610ff86001600160a01b0384167f000000000000000000000000000000000000000000000000000000000000000084611117565b604051634798ce5b60e01b81526001600160a01b0385811660048301528481166024830152868116604483015260648201849052608482018390527f00000000000000000000000000000000000000000000000000000000000000001690634798ce5b9060a4016107bb565b60008054906101000a90046001600160a01b03166001600160a01b031663e7f43c686040518163ffffffff1660e01b8152600401602060405180830381865afa1580156110b5573d6000803e3d6000fd5b505050506040513d601f19601f820116820180604052508101906110d99190611901565b6001600160a01b0316336001600160a01b0316146111095760405162461bcd60e51b815260040161014f9061191e565b611113828261124e565b5050565b8015806111915750604051636eb1769f60e11b81523060048201526001600160a01b03838116602483015284169063dd62ed3e90604401602060405180830381865afa15801561116b573d6000803e3d6000fd5b505050506040513d601f19601f8201168201806040525081019061118f91906118e8565b155b6111fc5760405162461bcd60e51b815260206004820152603660248201527f5361666545524332303a20617070726f76652066726f6d206e6f6e2d7a65726f60448201527520746f206e6f6e2d7a65726f20616c6c6f77616e636560501b606482015260840161014f565b604080516001600160a01b038416602482015260448082018490528251808303909101815260649091019091526020810180516001600160e01b031663095ea7b360e01b179052610675908490611301565b604080516000808252602082019092526001600160a01b0384169083906040516112789190611a41565b60006040518083038185875af1925050503d80600081146112b5576040519150601f19603f3d011682016040523d82523d6000602084013e6112ba565b606091505b50509050806106755760405162461bcd60e51b815260206004820152601360248201527211551217d514905394d1915497d19052531151606a1b604482015260640161014f565b6000611356826040518060400160405280602081526020017f5361666545524332303a206c6f772d6c6576656c2063616c6c206661696c6564815250856001600160a01b03166113d39092919063ffffffff16565b805190915015610675578080602001905181019061137491906118c6565b6106755760405162461bcd60e51b815260206004820152602a60248201527f5361666545524332303a204552433230206f7065726174696f6e20646964206e6044820152691bdd081cdd58d8d9595960b21b606482015260840161014f565b60606113e284846000856113ec565b90505b9392505050565b60608247101561144d5760405162461bcd60e51b815260206004820152602660248201527f416464726573733a20696e73756666696369656e742062616c616e636520666f6044820152651c8818d85b1b60d21b606482015260840161014f565b843b61149b5760405162461bcd60e51b815260206004820152601d60248201527f416464726573733a2063616c6c20746f206e6f6e2d636f6e7472616374000000604482015260640161014f565b600080866001600160a01b031685876040516114b79190611a41565b60006040518083038185875af1925050503d80600081146114f4576040519150601f19603f3d011682016040523d82523d6000602084013e6114f9565b606091505b5091509150611509828286611514565b979650505050505050565b606083156115235750816113e5565b8251156115335782518084602001fd5b8160405162461bcd60e51b815260040161014f9190611a5d565b6001600160a01b038116811461156257600080fd5b50565b60008060008060008060c0878903121561157e57600080fd5b86356115898161154d565b955060208701356115998161154d565b945060408701356115a98161154d565b935060608701356115b98161154d565b9598949750929560808101359460a0909101359350915050565b6000602082840312156115e557600080fd5b81356113e58161154d565b634e487b7160e01b600052604160045260246000fd5b6040805190810167ffffffffffffffff81118282101715611629576116296115f0565b60405290565b604051601f8201601f1916810167ffffffffffffffff81118282101715611658576116586115f0565b604052919050565b6000602080838503121561167357600080fd5b823567ffffffffffffffff8082111561168b57600080fd5b818501915085601f83011261169f57600080fd5b8135818111156116b1576116b16115f0565b8060051b91506116c284830161162f565b81815291830184019184810190888411156116dc57600080fd5b938501935b8385101561170657843592506116f68361154d565b82825293850193908501906116e1565b98975050505050505050565b8035600f81900b811461172457600080fd5b919050565b600080600080600060a0868803121561174157600080fd5b853561174c8161154d565b9450602086013561175c8161154d565b9350604086013561176c8161154d565b92506060860135915061178160808701611712565b90509295509295909350565b6000806000606084860312156117a257600080fd5b83356117ad8161154d565b925060208401356117bd8161154d565b929592945050506040919091013590565b600080600080600060c086880312156117e657600080fd5b85356117f18161154d565b94506020868101356118028161154d565b945060408701356118128161154d565b9350607f8701881361182357600080fd5b61182b611606565b8060a089018a81111561183d57600080fd5b60608a015b818110156118595780358452928401928401611842565b5081955061186681611712565b9450505050509295509295909350565b6000806040838503121561188957600080fd5b82356118948161154d565b946020939093013593505050565b6001600160a01b039384168152919092166020820152604081019190915260600190565b6000602082840312156118d857600080fd5b815180151581146113e557600080fd5b6000602082840312156118fa57600080fd5b5051919050565b60006020828403121561191357600080fd5b81516113e58161154d565b6020808252601a908201527f63616c6c6572206973206e6f7420746865206f70657261746f72000000000000604082015260600190565b634e487b7160e01b600052603260045260246000fd5b634e487b7160e01b600052601160045260246000fd5b60006000198214156119955761199561196b565b5060010190565b60008160001904831182151516156119b6576119b661196b565b500290565b6000826119d857634e487b7160e01b600052601260045260246000fd5b500490565b60608101818460005b6002811015611a055781518352602092830192909101906001016119e6565b5050508260408301529392505050565b60005b83811015611a30578181015183820152602001611a18565b83811115610b9b5750506000910152565b60008251611a53818460208701611a15565b9190910192915050565b6020815260008251806020840152611a7c816040850160208701611a15565b601f01601f1916919091016040019291505056fea164736f6c634300080b000a"
}