{
  "address": "0xd23Eaf8Cd8a2a638a165E2b754EDE7ba4428Bca2",
  "abi": [
    {
      "inputs": [
        {
          "internalType": "address",
          "name": "_registry",
          "type": "address"
        }
      ],
      "stateMutability": "nonpayable",
      "type": "constructor"
    },
    {
      "inputs": [],
      "name": "CRV_TOKEN",
      "outputs": [
        {
          "internalType": "address",
          "name": "",
          "type": "address"
        }
      ],
      "stateMutability": "view",
      "type": "function"
    },
    {
      "inputs": [],
      "name": "MINTER",
      "outputs": [
        {
          "internalType": "address",
          "name": "",
          "type": "address"
        }
      ],
      "stateMutability": "view",
      "type": "function"
    },
    {
      "inputs": [
        {
          "internalType": "address",
          "name": "",
          "type": "address"
        },
        {
          "internalType": "address",
          "name": "",
          "type": "address"
        },
        {
          "internalType": "uint256",
          "name": "_underlyingTokenAmount",
          "type": "uint256"
        }
      ],
      "name": "calculateAmountInLPToken",
      "outputs": [
        {
          "internalType": "uint256",
          "name": "",
          "type": "uint256"
        }
      ],
      "stateMutability": "pure",
      "type": "function"
    },
    {
      "inputs": [
        {
          "internalType": "address payable",
          "name": "_vault",
          "type": "address"
        },
        {
          "internalType": "address",
          "name": "_underlyingToken",
          "type": "address"
        },
        {
          "internalType": "address",
          "name": "_gauge",
          "type": "address"
        },
        {
          "internalType": "uint256",
          "name": "_redeemAmount",
          "type": "uint256"
        }
      ],
      "name": "calculateRedeemableLPTokenAmount",
      "outputs": [
        {
          "internalType": "uint256",
          "name": "_amount",
          "type": "uint256"
        }
      ],
      "stateMutability": "view",
      "type": "function"
    },
    {
      "inputs": [
        {
          "internalType": "address",
          "name": "",
          "type": "address"
        }
      ],
      "name": "canStake",
      "outputs": [
        {
          "internalType": "bool",
          "name": "",
          "type": "bool"
        }
      ],
      "stateMutability": "pure",
      "type": "function"
    },
    {
      "inputs": [
        {
          "internalType": "address payable",
          "name": "",
          "type": "address"
        },
        {
          "internalType": "address",
          "name": "",
          "type": "address"
        }
      ],
      "name": "getAddLiquidityCodes",
      "outputs": [
        {
          "internalType": "bytes[]",
          "name": "",
          "type": "bytes[]"
        }
      ],
      "stateMutability": "view",
      "type": "function"
    },
    {
      "inputs": [
        {
          "internalType": "address payable",
          "name": "_vault",
          "type": "address"
        },
        {
          "internalType": "address",
          "name": "",
          "type": "address"
        },
        {
          "internalType": "address",
          "name": "_gauge",
          "type": "address"
        }
      ],
      "name": "getAllAmountInToken",
      "outputs": [
        {
          "internalType": "uint256",
          "name": "_amount",
          "type": "uint256"
        }
      ],
      "stateMutability": "view",
      "type": "function"
    },
    {
      "inputs": [
        {
          "internalType": "address payable",
          "name": "",
          "type": "address"
        },
        {
          "internalType": "address",
          "name": "_gauge",
          "type": "address"
        }
      ],
      "name": "getClaimRewardTokenCode",
      "outputs": [
        {
          "internalType": "bytes[]",
          "name": "_codes",
          "type": "bytes[]"
        }
      ],
      "stateMutability": "view",
      "type": "function"
    },
    {
      "inputs": [
        {
          "internalType": "address payable",
          "name": "_vault",
          "type": "address"
        },
        {
          "internalType": "address",
          "name": "_underlyingToken",
          "type": "address"
        },
        {
          "internalType": "address",
          "name": "_gauge",
          "type": "address"
        }
      ],
      "name": "getDepositAllCodes",
      "outputs": [
        {
          "internalType": "bytes[]",
          "name": "_codes",
          "type": "bytes[]"
        }
      ],
      "stateMutability": "view",
      "type": "function"
    },
    {
      "inputs": [
        {
          "internalType": "address payable",
          "name": "",
          "type": "address"
        },
        {
          "internalType": "address",
          "name": "",
          "type": "address"
        },
        {
          "internalType": "address",
          "name": "_gauge",
          "type": "address"
        },
        {
          "internalType": "uint256",
          "name": "_amount",
          "type": "uint256"
        }
      ],
      "name": "getDepositSomeCodes",
      "outputs": [
        {
          "internalType": "bytes[]",
          "name": "_codes",
          "type": "bytes[]"
        }
      ],
      "stateMutability": "pure",
      "type": "function"
    },
    {
      "inputs": [
        {
          "internalType": "address payable",
          "name": "_vault",
          "type": "address"
        },
        {
          "internalType": "address",
          "name": "_underlyingToken",
          "type": "address"
        },
        {
          "internalType": "address",
          "name": "_liquidityPool",
          "type": "address"
        },
        {
          "internalType": "address",
          "name": "_rewardToken",
          "type": "address"
        }
      ],
      "name": "getHarvestAllCodes",
      "outputs": [
        {
          "internalType": "bytes[]",
          "name": "_codes",
          "type": "bytes[]"
        }
      ],
      "stateMutability": "view",
      "type": "function"
    },
    {
      "inputs": [
        {
          "internalType": "address payable",
          "name": "_vault",
          "type": "address"
        },
        {
          "internalType": "address",
          "name": "_underlyingToken",
          "type": "address"
        },
        {
          "internalType": "address",
          "name": "_gauge",
          "type": "address"
        }
      ],
      "name": "getHarvestAllCodes",
      "outputs": [
        {
          "internalType": "bytes[]",
          "name": "_codes",
          "type": "bytes[]"
        }
      ],
      "stateMutability": "view",
      "type": "function"
    },
    {
      "inputs": [
        {
          "internalType": "address payable",
          "name": "_vault",
          "type": "address"
        },
        {
          "internalType": "address",
          "name": "_underlyingToken",
          "type": "address"
        },
        {
          "internalType": "address",
          "name": "",
          "type": "address"
        },
        {
          "internalType": "address",
          "name": "_rewardToken",
          "type": "address"
        },
        {
          "internalType": "uint256",
          "name": "_rewardTokenAmount",
          "type": "uint256"
        }
      ],
      "name": "getHarvestSomeCodes",
      "outputs": [
        {
          "internalType": "bytes[]",
          "name": "_codes",
          "type": "bytes[]"
        }
      ],
      "stateMutability": "view",
      "type": "function"
    },
    {
      "inputs": [
        {
          "internalType": "address payable",
          "name": "_vault",
          "type": "address"
        },
        {
          "internalType": "address",
          "name": "_underlyingToken",
          "type": "address"
        },
        {
          "internalType": "address",
          "name": "_gauge",
          "type": "address"
        },
        {
          "internalType": "uint256",
          "name": "_rewardTokenAmount",
          "type": "uint256"
        }
      ],
      "name": "getHarvestSomeCodes",
      "outputs": [
        {
          "internalType": "bytes[]",
          "name": "_codes",
          "type": "bytes[]"
        }
      ],
      "stateMutability": "view",
      "type": "function"
    },
    {
      "inputs": [
        {
          "internalType": "address",
          "name": "",
          "type": "address"
        },
        {
          "internalType": "address",
          "name": "_gauge",
          "type": "address"
        }
      ],
      "name": "getLiquidityPoolToken",
      "outputs": [
        {
          "internalType": "address",
          "name": "",
          "type": "address"
        }
      ],
      "stateMutability": "pure",
      "type": "function"
    },
    {
      "inputs": [
        {
          "internalType": "address payable",
          "name": "_vault",
          "type": "address"
        },
        {
          "internalType": "address",
          "name": "",
          "type": "address"
        },
        {
          "internalType": "address",
          "name": "_gauge",
          "type": "address"
        }
      ],
      "name": "getLiquidityPoolTokenBalance",
      "outputs": [
        {
          "internalType": "uint256",
          "name": "",
          "type": "uint256"
        }
      ],
      "stateMutability": "view",
      "type": "function"
    },
    {
      "inputs": [
        {
          "internalType": "address",
          "name": "_gauge",
          "type": "address"
        },
        {
          "internalType": "address",
          "name": "",
          "type": "address"
        }
      ],
      "name": "getPoolValue",
      "outputs": [
        {
          "internalType": "uint256",
          "name": "",
          "type": "uint256"
        }
      ],
      "stateMutability": "view",
      "type": "function"
    },
    {
      "inputs": [
        {
          "internalType": "address",
          "name": "",
          "type": "address"
        }
      ],
      "name": "getRewardToken",
      "outputs": [
        {
          "internalType": "address",
          "name": "",
          "type": "address"
        }
      ],
      "stateMutability": "pure",
      "type": "function"
    },
    {
      "inputs": [
        {
          "internalType": "address",
          "name": "_gauge",
          "type": "address"
        }
      ],
      "name": "getRewardTokens",
      "outputs": [
        {
          "internalType": "address[]",
          "name": "_rewardTokens",
          "type": "address[]"
        }
      ],
      "stateMutability": "view",
      "type": "function"
    },
    {
      "inputs": [
        {
          "internalType": "address",
          "name": "",
          "type": "address"
        },
        {
          "internalType": "address",
          "name": "",
          "type": "address"
        },
        {
          "internalType": "uint256",
          "name": "_liquidityPoolTokenAmount",
          "type": "uint256"
        }
      ],
      "name": "getSomeAmountInToken",
      "outputs": [
        {
          "internalType": "uint256",
          "name": "",
          "type": "uint256"
        }
      ],
      "stateMutability": "pure",
      "type": "function"
    },
    {
      "inputs": [
        {
          "internalType": "address payable",
          "name": "",
          "type": "address"
        },
        {
          "internalType": "address",
          "name": "",
          "type": "address"
        },
        {
          "internalType": "address",
          "name": "",
          "type": "address"
        },
        {
          "internalType": "address",
          "name": "",
          "type": "address"
        }
      ],
      "name": "getUnclaimedRewardTokenAmount",
      "outputs": [
        {
          "internalType": "uint256",
          "name": "",
          "type": "uint256"
        }
      ],
      "stateMutability": "view",
      "type": "function"
    },
    {
      "inputs": [
        {
          "internalType": "address payable",
          "name": "",
          "type": "address"
        },
        {
          "internalType": "address",
          "name": "",
          "type": "address"
        },
        {
          "internalType": "address",
          "name": "",
          "type": "address"
        }
      ],
      "name": "getUnclaimedRewardTokenAmount",
      "outputs": [
        {
          "internalType": "uint256",
          "name": "",
          "type": "uint256"
        }
      ],
      "stateMutability": "view",
      "type": "function"
    },
    {
      "inputs": [
        {
          "internalType": "address",
          "name": "_gauge",
          "type": "address"
        },
        {
          "internalType": "address",
          "name": "",
          "type": "address"
        }
      ],
      "name": "getUnderlyingTokens",
      "outputs": [
        {
          "internalType": "address[]",
          "name": "_underlyingTokens",
          "type": "address[]"
        }
      ],
      "stateMutability": "view",
      "type": "function"
    },
    {
      "inputs": [
        {
          "internalType": "address payable",
          "name": "_vault",
          "type": "address"
        },
        {
          "internalType": "address",
          "name": "_underlyingToken",
          "type": "address"
        },
        {
          "internalType": "address",
          "name": "_gauge",
          "type": "address"
        }
      ],
      "name": "getWithdrawAllCodes",
      "outputs": [
        {
          "internalType": "bytes[]",
          "name": "_codes",
          "type": "bytes[]"
        }
      ],
      "stateMutability": "view",
      "type": "function"
    },
    {
      "inputs": [
        {
          "internalType": "address payable",
          "name": "",
          "type": "address"
        },
        {
          "internalType": "address",
          "name": "",
          "type": "address"
        },
        {
          "internalType": "address",
          "name": "_gauge",
          "type": "address"
        },
        {
          "internalType": "uint256",
          "name": "_amount",
          "type": "uint256"
        }
      ],
      "name": "getWithdrawSomeCodes",
      "outputs": [
        {
          "internalType": "bytes[]",
          "name": "_codes",
          "type": "bytes[]"
        }
      ],
      "stateMutability": "pure",
      "type": "function"
    },
    {
      "inputs": [
        {
          "internalType": "address payable",
          "name": "_vault",
          "type": "address"
        },
        {
          "internalType": "address",
          "name": "_underlyingToken",
          "type": "address"
        },
        {
          "internalType": "address",
          "name": "_gauge",
          "type": "address"
        },
        {
          "internalType": "uint256",
          "name": "_redeemAmount",
          "type": "uint256"
        }
      ],
      "name": "isRedeemableAmountSufficient",
      "outputs": [
        {
          "internalType": "bool",
          "name": "",
          "type": "bool"
        }
      ],
      "stateMutability": "view",
      "type": "function"
    },
    {
      "inputs": [],
      "name": "registryContract",
      "outputs": [
        {
          "internalType": "contract IAdapterRegistryBase",
          "name": "",
          "type": "address"
        }
      ],
      "stateMutability": "view",
      "type": "function"
    },
    {
      "inputs": [
        {
          "internalType": "address",
          "name": "_registry",
          "type": "address"
        }
      ],
      "name": "setRegistry",
      "outputs": [],
      "stateMutability": "nonpayable",
      "type": "function"
    },
    {
      "inputs": [],
      "name": "uniswapV2Router02",
      "outputs": [
        {
          "internalType": "address",
          "name": "",
          "type": "address"
        }
      ],
      "stateMutability": "view",
      "type": "function"
    }
  ],
  "transactionHash": "0x07c3f2a07990a6f7cbf46f5c0580217569ccdf19b51ceed6c036feee855dd6c6",
  "args": [
    "0x99fa011e33a8c6196869dec7bc407e896ba67fe3"
  ],
  "numDeployments": 1,
  "bytecode": "0x608060405234801561001057600080fd5b506040516118eb3803806118eb83398101604081905261002f91610054565b600080546001600160a01b0319166001600160a01b0392909216919091179055610084565b60006020828403121561006657600080fd5b81516001600160a01b038116811461007d57600080fd5b9392505050565b611858806100936000396000f3fe608060405234801561001057600080fd5b50600436106101ce5760003560e01c80637707887211610104578063d463fcf6116100a2578063ee665bed11610071578063ee665bed14610381578063ef856be914610428578063f49307ca1461043b578063fe6d81241461044e57600080fd5b8063d463fcf6146103dc578063d74baaf8146103ef578063df93572214610402578063e49d5ecc1461041557600080fd5b806390e61605116100de57806390e6160514610303578063a7c6402c14610395578063a91ee0dc146103b0578063b3fe7f5a146103c557600080fd5b806377078872146103445780637df50ed81461036b57806385541e441461038157600080fd5b806336d8bf9311610171578063609257791161014b57806360925779146102f057806364dd5f8014610303578063657428a3146103165780636d267d7c1461033157600080fd5b806336d8bf93146102a6578063489b5295146102ca5780634ad36e02146102dd57600080fd5b806310f1fbe5116101ad57806310f1fbe51461022f57806328c1f99b14610242578063298916b21461026d5780632de778381461029357600080fd5b806201b0b6146101d357806304b87c4c146101fc5780630c9d8d5c1461021c575b600080fd5b6101e66101e1366004611318565b610469565b6040516101f39190611379565b60405180910390f35b61020f61020a36600461138c565b610597565b6040516101f39190611435565b61020f61022a366004611497565b61061a565b61020f61023d3660046114e2565b6106b6565b600054610255906001600160a01b031681565b6040516001600160a01b0390911681526020016101f3565b61028561027b36600461138c565b6000949350505050565b6040519081526020016101f3565b6102856102a1366004611546565b6106ce565b6102ba6102b4366004611318565b50600090565b60405190151581526020016101f3565b61020f6102d8366004611497565b610739565b6102856102eb36600461157f565b6107b7565b61020f6102fe36600461157f565b610801565b610285610311366004611497565b6108b7565b61025573d533a949740bb3306d119cc777fa900ba034cd5281565b61020f61033f366004611546565b610925565b610255610352366004611318565b5073d533a949740bb3306d119cc777fa900ba034cd5290565b61020f610379366004611546565b606092915050565b61028561038f3660046115d0565b92915050565b610255737a250d5630b4cf539739df2c5dacb4c659f2488d81565b6103c36103be366004611318565b610af9565b005b6102856103d3366004611497565b60009392505050565b61020f6103ea36600461157f565b610c3a565b6102556103fd366004611546565b919050565b61020f61041036600461157f565b610c5c565b6102ba61042336600461157f565b610cdd565b6101e6610436366004611546565b610cf8565b61020f610449366004611497565b610db5565b61025573d061d61a4d941c39e5453435b6345dc261c2fce081565b6040805160098082526101408201909252606091602082016101208036833701905050905073d533a949740bb3306d119cc777fa900ba034cd52816000815181106104b6576104b6611627565b60200260200101906001600160a01b031690816001600160a01b03168152505060005b6008811015610591576040516354c49fe960e01b8152600481018290526001600160a01b038416906354c49fe990602401602060405180830381865afa158015610527573d6000803e3d6000fd5b505050506040513d601f19601f8201168201806040525081019061054b919061163d565b82610557836001611670565b8151811061056757610567611627565b6001600160a01b03909216602092830291909101909101528061058981611688565b9150506104d9565b50919050565b6040516370a0823160e01b81526001600160a01b03808616600483015260609161060f91879187918791908716906370a0823190602401602060405180830381865afa1580156105eb573d6000803e3d6000fd5b505050506040513d601f19601f820116820180604052508101906103ea91906116a3565b90505b949350505050565b6060600073d533a949740bb3306d119cc777fa900ba034cd526040516370a0823160e01b81526001600160a01b03878116600483015291909116906370a0823190602401602060405180830381865afa15801561067b573d6000803e3d6000fd5b505050506040513d601f19601f8201168201806040525081019061069f91906116a3565b90506106ad85858584610c3a565b95945050505050565b60606106c486848785610dd2565b9695505050505050565b6000826001600160a01b03166318160ddd6040518163ffffffff1660e01b8152600401602060405180830381865afa15801561070e573d6000803e3d6000fd5b505050506040513d601f19601f8201168201806040525081019061073291906116a3565b9392505050565b6040516370a0823160e01b81526001600160a01b0384811660048301526060916000918516906370a0823190602401602060405180830381865afa158015610785573d6000803e3d6000fd5b505050506040513d601f19601f820116820180604052508101906107a991906116a3565b90506106ad85858584610c5c565b6000806107c58686866108b7565b905060006107d48787876108b7565b9050806107e185846116bc565b6107eb91906116db565b6107f6906001611670565b979650505050505050565b606081156106125760408051600180825281830190925290816020015b606081526020019060019003908161081e579050509050828260405160240161084991815260200190565b60408051601f19818403018152918152602080830180516001600160e01b0316632e1a7d4d60e01b1790529051610882939291016116fd565b604051602081830303815290604052816000815181106108a4576108a4611627565b6020026020010181905250949350505050565b6040516370a0823160e01b81526001600160a01b038481166004830152600091908316906370a0823190602401602060405180830381865afa158015610901573d6000803e3d6000fd5b505050506040513d601f19601f8201168201806040525081019061061291906116a3565b60606001600061093484610469565b905060006001600160a01b03168160018151811061095457610954611627565b60200260200101516001600160a01b031614610978578161097481611688565b9250505b8167ffffffffffffffff81111561099157610991611611565b6040519080825280602002602001820160405280156109c457816020015b60608152602001906001900390816109af5790505b50925073d061d61a4d941c39e5453435b6345dc261c2fce06040516001600160a01b038616602482015260440160408051601f19818403018152918152602080830180516001600160e01b03166335313c2160e11b1790529051610a2a939291016116fd565b60405160208183030381529060405283600081518110610a4c57610a4c611627565b602002602001018190525060006001600160a01b031681600181518110610a7557610a75611627565b60200260200101516001600160a01b031614610af1576040805160048152602481018252602080820180516001600160e01b0316637378ed7960e11b1790529151610ac392879291016116fd565b60405160208183030381529060405283600181518110610ae557610ae5611627565b60200260200101819052505b505092915050565b60008054906101000a90046001600160a01b03166001600160a01b031663e7f43c686040518163ffffffff1660e01b8152600401602060405180830381865afa158015610b4a573d6000803e3d6000fd5b505050506040513d601f19601f82011682018060405250810190610b6e919061163d565b6001600160a01b0316336001600160a01b031614610bd35760405162461bcd60e51b815260206004820152601a60248201527f63616c6c6572206973206e6f7420746865206f70657261746f7200000000000060448201526064015b60405180910390fd5b6001600160a01b0381163b610c185760405162461bcd60e51b815260206004820152600b60248201526a085a5cd0dbdb9d1c9858dd60aa1b6044820152606401610bca565b600080546001600160a01b0319166001600160a01b0392909216919091179055565b606061060f8573d533a949740bb3306d119cc777fa900ba034cd528685610dd2565b606081156106125760408051600180825281830190925290816020015b6060815260200190600190039081610c795790505090508282604051602401610ca491815260200190565b60408051601f19818403018152918152602080830180516001600160e01b031663b6b55f2560e01b1790529051610882939291016116fd565b600080610ceb8686866108b7565b9092111595945050505050565b60408051600180825281830190925260609160208083019080368337019050509050826001600160a01b03166382c630666040518163ffffffff1660e01b8152600401602060405180830381865afa158015610d58573d6000803e3d6000fd5b505050506040513d601f19601f82011682018060405250810190610d7c919061163d565b81600081518110610d8f57610d8f611627565b60200260200101906001600160a01b031690816001600160a01b03168152505092915050565b60606000610dc48585856108b7565b90506106ad85858584610801565b60608115610612576000737a250d5630b4cf539739df2c5dacb4c659f2488d63d06ca61f84610e018888611096565b6040518363ffffffff1660e01b8152600401610e1e929190611721565b600060405180830381865afa158015610e3b573d6000803e3d6000fd5b505050506040513d6000823e601f3d908101601f19168201604052610e63919081019061173a565b905060008160018351610e7691906117f8565b81518110610e8657610e86611627565b6020026020010151111561108d576040805160038082526080820190925290816020015b6060815260200190600190039081610eaa57505060408051737a250d5630b4cf539739df2c5dacb4c659f2488d602482015260006044808301919091528251808303909101815260649091018252602080820180516001600160e01b031663095ea7b360e01b1790529151929450610f24928892016116fd565b60405160208183030381529060405282600081518110610f4657610f46611627565b60209081029190910181019190915260408051737a250d5630b4cf539739df2c5dacb4c659f2488d60248201526044808201879052825180830390910181526064909101825280830180516001600160e01b031663095ea7b360e01b1790529051610fb492889291016116fd565b60405160208183030381529060405282600181518110610fd657610fd6611627565b6020908102919091010152737a250d5630b4cf539739df2c5dacb4c659f2488d806338ed17398560006110098a8a611096565b8b60001960405160240161102195949392919061180f565b604051602081830303815290604052915060e01b6020820180516001600160e01b03838183161783525050505060405160200161105f9291906116fd565b6040516020818303038152906040528260028151811061108157611081611627565b60200260200101819052505b50949350505050565b60606000737a250d5630b4cf539739df2c5dacb4c659f2488d6001600160a01b031663ad5c46486040518163ffffffff1660e01b8152600401602060405180830381865afa1580156110ec573d6000803e3d6000fd5b505050506040513d601f19601f82011682018060405250810190611110919061163d565b9050806001600160a01b0316836001600160a01b031614156111b9576040805160028082526060820183529091602083019080368337019050509150838260008151811061116057611160611627565b60200260200101906001600160a01b031690816001600160a01b031681525050808260018151811061119457611194611627565b60200260200101906001600160a01b031690816001600160a01b0316815250506112f9565b806001600160a01b0316846001600160a01b0316141561123b576040805160028082526060820183529091602083019080368337019050509150808260008151811061120757611207611627565b60200260200101906001600160a01b031690816001600160a01b031681525050828260018151811061119457611194611627565b604080516003808252608082019092529060208201606080368337019050509150838260008151811061127057611270611627565b60200260200101906001600160a01b031690816001600160a01b03168152505080826001815181106112a4576112a4611627565b60200260200101906001600160a01b031690816001600160a01b03168152505082826002815181106112d8576112d8611627565b60200260200101906001600160a01b031690816001600160a01b0316815250505b5092915050565b6001600160a01b038116811461131557600080fd5b50565b60006020828403121561132a57600080fd5b813561073281611300565b600081518084526020808501945080840160005b8381101561136e5781516001600160a01b031687529582019590820190600101611349565b509495945050505050565b6020815260006107326020830184611335565b600080600080608085870312156113a257600080fd5b84356113ad81611300565b935060208501356113bd81611300565b925060408501356113cd81611300565b915060608501356113dd81611300565b939692955090935050565b6000815180845260005b8181101561140e576020818501810151868301820152016113f2565b81811115611420576000602083870101525b50601f01601f19169290920160200192915050565b6000602080830181845280855180835260408601915060408160051b870101925083870160005b8281101561148a57603f198886030184526114788583516113e8565b9450928501929085019060010161145c565b5092979650505050505050565b6000806000606084860312156114ac57600080fd5b83356114b781611300565b925060208401356114c781611300565b915060408401356114d781611300565b809150509250925092565b600080600080600060a086880312156114fa57600080fd5b853561150581611300565b9450602086013561151581611300565b9350604086013561152581611300565b9250606086013561153581611300565b949793965091946080013592915050565b6000806040838503121561155957600080fd5b823561156481611300565b9150602083013561157481611300565b809150509250929050565b6000806000806080858703121561159557600080fd5b84356115a081611300565b935060208501356115b081611300565b925060408501356115c081611300565b9396929550929360600135925050565b6000806000606084860312156115e557600080fd5b83356115f081611300565b9250602084013561160081611300565b929592945050506040919091013590565b634e487b7160e01b600052604160045260246000fd5b634e487b7160e01b600052603260045260246000fd5b60006020828403121561164f57600080fd5b815161073281611300565b634e487b7160e01b600052601160045260246000fd5b600082198211156116835761168361165a565b500190565b600060001982141561169c5761169c61165a565b5060010190565b6000602082840312156116b557600080fd5b5051919050565b60008160001904831182151516156116d6576116d661165a565b500290565b6000826116f857634e487b7160e01b600052601260045260246000fd5b500490565b6001600160a01b0383168152604060208201819052600090610612908301846113e8565b8281526040602082015260006106126040830184611335565b6000602080838503121561174d57600080fd5b825167ffffffffffffffff8082111561176557600080fd5b818501915085601f83011261177957600080fd5b81518181111561178b5761178b611611565b8060051b604051601f19603f830116810181811085821117156117b0576117b0611611565b6040529182528482019250838101850191888311156117ce57600080fd5b938501935b828510156117ec578451845293850193928501926117d3565b98975050505050505050565b60008282101561180a5761180a61165a565b500390565b85815284602082015260a06040820152600061182e60a0830186611335565b6001600160a01b039490941660608301525060800152939250505056fea164736f6c634300080b000a"
}