{
  "address": "0x1630aa5855fC22197426681337db357aE91b9bE7",
  "abi": [
    {
      "inputs": [
        {
          "internalType": "address",
          "name": "_registry",
          "type": "address"
        }
      ],
      "stateMutability": "nonpayable",
      "type": "constructor"
    },
    {
      "anonymous": false,
      "inputs": [
        {
          "indexed": true,
          "internalType": "uint256",
          "name": "maxDepositAmount",
          "type": "uint256"
        },
        {
          "indexed": true,
          "internalType": "address",
          "name": "caller",
          "type": "address"
        }
      ],
      "name": "LogMaxDepositAmount",
      "type": "event"
    },
    {
      "anonymous": false,
      "inputs": [
        {
          "indexed": true,
          "internalType": "uint256",
          "name": "maxDepositPoolPct",
          "type": "uint256"
        },
        {
          "indexed": true,
          "internalType": "address",
          "name": "caller",
          "type": "address"
        }
      ],
      "name": "LogMaxDepositPoolPct",
      "type": "event"
    },
    {
      "anonymous": false,
      "inputs": [
        {
          "indexed": true,
          "internalType": "enum MaxExposure",
          "name": "maxDepositProtocolMode",
          "type": "uint8"
        },
        {
          "indexed": true,
          "internalType": "address",
          "name": "caller",
          "type": "address"
        }
      ],
      "name": "LogMaxDepositProtocolMode",
      "type": "event"
    },
    {
      "anonymous": false,
      "inputs": [
        {
          "indexed": true,
          "internalType": "uint256",
          "name": "maxDepositProtocolPct",
          "type": "uint256"
        },
        {
          "indexed": true,
          "internalType": "address",
          "name": "caller",
          "type": "address"
        }
      ],
      "name": "LogMaxDepositProtocolPct",
      "type": "event"
    },
    {
      "inputs": [
        {
          "internalType": "address",
          "name": "",
          "type": "address"
        },
        {
          "internalType": "address",
          "name": "",
          "type": "address"
        },
        {
          "internalType": "uint256",
          "name": "_depositAmount",
          "type": "uint256"
        }
      ],
      "name": "calculateAmountInLPToken",
      "outputs": [
        {
          "internalType": "uint256",
          "name": "",
          "type": "uint256"
        }
      ],
      "stateMutability": "pure",
      "type": "function"
    },
    {
      "inputs": [
        {
          "internalType": "address payable",
          "name": "",
          "type": "address"
        },
        {
          "internalType": "address",
          "name": "",
          "type": "address"
        },
        {
          "internalType": "address",
          "name": "",
          "type": "address"
        },
        {
          "internalType": "uint256",
          "name": "_redeemAmount",
          "type": "uint256"
        }
      ],
      "name": "calculateRedeemableLPTokenAmount",
      "outputs": [
        {
          "internalType": "uint256",
          "name": "",
          "type": "uint256"
        }
      ],
      "stateMutability": "pure",
      "type": "function"
    },
    {
      "inputs": [
        {
          "internalType": "address",
          "name": "",
          "type": "address"
        }
      ],
      "name": "canStake",
      "outputs": [
        {
          "internalType": "bool",
          "name": "",
          "type": "bool"
        }
      ],
      "stateMutability": "pure",
      "type": "function"
    },
    {
      "inputs": [
        {
          "internalType": "address payable",
          "name": "",
          "type": "address"
        },
        {
          "internalType": "address",
          "name": "",
          "type": "address"
        }
      ],
      "name": "getAddLiquidityCodes",
      "outputs": [
        {
          "internalType": "bytes[]",
          "name": "",
          "type": "bytes[]"
        }
      ],
      "stateMutability": "view",
      "type": "function"
    },
    {
      "inputs": [
        {
          "internalType": "address payable",
          "name": "_vault",
          "type": "address"
        },
        {
          "internalType": "address",
          "name": "_underlyingToken",
          "type": "address"
        },
        {
          "internalType": "address",
          "name": "_liquidityPool",
          "type": "address"
        }
      ],
      "name": "getAllAmountInToken",
      "outputs": [
        {
          "internalType": "uint256",
          "name": "",
          "type": "uint256"
        }
      ],
      "stateMutability": "view",
      "type": "function"
    },
    {
      "inputs": [
        {
          "internalType": "address payable",
          "name": "",
          "type": "address"
        },
        {
          "internalType": "address",
          "name": "_liquidityPool",
          "type": "address"
        }
      ],
      "name": "getClaimRewardTokenCode",
      "outputs": [
        {
          "internalType": "bytes[]",
          "name": "_codes",
          "type": "bytes[]"
        }
      ],
      "stateMutability": "pure",
      "type": "function"
    },
    {
      "inputs": [
        {
          "internalType": "address payable",
          "name": "_vault",
          "type": "address"
        },
        {
          "internalType": "address",
          "name": "_underlyingToken",
          "type": "address"
        },
        {
          "internalType": "address",
          "name": "_liquidityPool",
          "type": "address"
        }
      ],
      "name": "getDepositAllCodes",
      "outputs": [
        {
          "internalType": "bytes[]",
          "name": "_codes",
          "type": "bytes[]"
        }
      ],
      "stateMutability": "view",
      "type": "function"
    },
    {
      "inputs": [
        {
          "internalType": "address payable",
          "name": "",
          "type": "address"
        },
        {
          "internalType": "address",
          "name": "_underlyingToken",
          "type": "address"
        },
        {
          "internalType": "address",
          "name": "_liquidityPool",
          "type": "address"
        },
        {
          "internalType": "uint256",
          "name": "_amount",
          "type": "uint256"
        }
      ],
      "name": "getDepositSomeCodes",
      "outputs": [
        {
          "internalType": "bytes[]",
          "name": "_codes",
          "type": "bytes[]"
        }
      ],
      "stateMutability": "view",
      "type": "function"
    },
    {
      "inputs": [
        {
          "internalType": "address payable",
          "name": "_vault",
          "type": "address"
        },
        {
          "internalType": "address",
          "name": "_underlyingToken",
          "type": "address"
        },
        {
          "internalType": "address",
          "name": "_liquidityPool",
          "type": "address"
        }
      ],
      "name": "getHarvestAllCodes",
      "outputs": [
        {
          "internalType": "bytes[]",
          "name": "_codes",
          "type": "bytes[]"
        }
      ],
      "stateMutability": "view",
      "type": "function"
    },
    {
      "inputs": [
        {
          "internalType": "address payable",
          "name": "_vault",
          "type": "address"
        },
        {
          "internalType": "address",
          "name": "_underlyingToken",
          "type": "address"
        },
        {
          "internalType": "address",
          "name": "_liquidityPool",
          "type": "address"
        },
        {
          "internalType": "uint256",
          "name": "_rewardTokenAmount",
          "type": "uint256"
        }
      ],
      "name": "getHarvestSomeCodes",
      "outputs": [
        {
          "internalType": "bytes[]",
          "name": "_codes",
          "type": "bytes[]"
        }
      ],
      "stateMutability": "view",
      "type": "function"
    },
    {
      "inputs": [
        {
          "internalType": "address",
          "name": "",
          "type": "address"
        },
        {
          "internalType": "address",
          "name": "_liquidityPool",
          "type": "address"
        }
      ],
      "name": "getLiquidityPoolToken",
      "outputs": [
        {
          "internalType": "address",
          "name": "",
          "type": "address"
        }
      ],
      "stateMutability": "pure",
      "type": "function"
    },
    {
      "inputs": [
        {
          "internalType": "address payable",
          "name": "_vault",
          "type": "address"
        },
        {
          "internalType": "address",
          "name": "",
          "type": "address"
        },
        {
          "internalType": "address",
          "name": "_liquidityPool",
          "type": "address"
        }
      ],
      "name": "getLiquidityPoolTokenBalance",
      "outputs": [
        {
          "internalType": "uint256",
          "name": "",
          "type": "uint256"
        }
      ],
      "stateMutability": "view",
      "type": "function"
    },
    {
      "inputs": [
        {
          "internalType": "address",
          "name": "_liquidityPool",
          "type": "address"
        },
        {
          "internalType": "address",
          "name": "",
          "type": "address"
        }
      ],
      "name": "getPoolValue",
      "outputs": [
        {
          "internalType": "uint256",
          "name": "",
          "type": "uint256"
        }
      ],
      "stateMutability": "view",
      "type": "function"
    },
    {
      "inputs": [
        {
          "internalType": "address",
          "name": "",
          "type": "address"
        }
      ],
      "name": "getRewardToken",
      "outputs": [
        {
          "internalType": "address",
          "name": "",
          "type": "address"
        }
      ],
      "stateMutability": "pure",
      "type": "function"
    },
    {
      "inputs": [
        {
          "internalType": "address",
          "name": "",
          "type": "address"
        },
        {
          "internalType": "address",
          "name": "",
          "type": "address"
        },
        {
          "internalType": "uint256",
          "name": "_liquidityPoolTokenAmount",
          "type": "uint256"
        }
      ],
      "name": "getSomeAmountInToken",
      "outputs": [
        {
          "internalType": "uint256",
          "name": "",
          "type": "uint256"
        }
      ],
      "stateMutability": "pure",
      "type": "function"
    },
    {
      "inputs": [
        {
          "internalType": "address payable",
          "name": "_vault",
          "type": "address"
        },
        {
          "internalType": "address",
          "name": "_liquidityPool",
          "type": "address"
        },
        {
          "internalType": "address",
          "name": "",
          "type": "address"
        }
      ],
      "name": "getUnclaimedRewardTokenAmount",
      "outputs": [
        {
          "internalType": "uint256",
          "name": "",
          "type": "uint256"
        }
      ],
      "stateMutability": "view",
      "type": "function"
    },
    {
      "inputs": [
        {
          "internalType": "address",
          "name": "_liquidityPool",
          "type": "address"
        },
        {
          "internalType": "address",
          "name": "",
          "type": "address"
        }
      ],
      "name": "getUnderlyingTokens",
      "outputs": [
        {
          "internalType": "address[]",
          "name": "_underlyingTokens",
          "type": "address[]"
        }
      ],
      "stateMutability": "view",
      "type": "function"
    },
    {
      "inputs": [
        {
          "internalType": "address payable",
          "name": "_vault",
          "type": "address"
        },
        {
          "internalType": "address",
          "name": "_underlyingToken",
          "type": "address"
        },
        {
          "internalType": "address",
          "name": "_liquidityPool",
          "type": "address"
        }
      ],
      "name": "getWithdrawAllCodes",
      "outputs": [
        {
          "internalType": "bytes[]",
          "name": "_codes",
          "type": "bytes[]"
        }
      ],
      "stateMutability": "view",
      "type": "function"
    },
    {
      "inputs": [
        {
          "internalType": "address payable",
          "name": "",
          "type": "address"
        },
        {
          "internalType": "address",
          "name": "",
          "type": "address"
        },
        {
          "internalType": "address",
          "name": "_liquidityPool",
          "type": "address"
        },
        {
          "internalType": "uint256",
          "name": "_shares",
          "type": "uint256"
        }
      ],
      "name": "getWithdrawSomeCodes",
      "outputs": [
        {
          "internalType": "bytes[]",
          "name": "_codes",
          "type": "bytes[]"
        }
      ],
      "stateMutability": "pure",
      "type": "function"
    },
    {
      "inputs": [
        {
          "internalType": "address payable",
          "name": "_vault",
          "type": "address"
        },
        {
          "internalType": "address",
          "name": "_underlyingToken",
          "type": "address"
        },
        {
          "internalType": "address",
          "name": "_liquidityPool",
          "type": "address"
        },
        {
          "internalType": "uint256",
          "name": "_redeemAmount",
          "type": "uint256"
        }
      ],
      "name": "isRedeemableAmountSufficient",
      "outputs": [
        {
          "internalType": "bool",
          "name": "",
          "type": "bool"
        }
      ],
      "stateMutability": "view",
      "type": "function"
    },
    {
      "inputs": [
        {
          "internalType": "address",
          "name": "",
          "type": "address"
        },
        {
          "internalType": "address",
          "name": "",
          "type": "address"
        }
      ],
      "name": "maxDepositAmount",
      "outputs": [
        {
          "internalType": "uint256",
          "name": "",
          "type": "uint256"
        }
      ],
      "stateMutability": "view",
      "type": "function"
    },
    {
      "inputs": [
        {
          "internalType": "address",
          "name": "",
          "type": "address"
        }
      ],
      "name": "maxDepositPoolPct",
      "outputs": [
        {
          "internalType": "uint256",
          "name": "",
          "type": "uint256"
        }
      ],
      "stateMutability": "view",
      "type": "function"
    },
    {
      "inputs": [],
      "name": "maxDepositProtocolMode",
      "outputs": [
        {
          "internalType": "enum MaxExposure",
          "name": "",
          "type": "uint8"
        }
      ],
      "stateMutability": "view",
      "type": "function"
    },
    {
      "inputs": [],
      "name": "maxDepositProtocolPct",
      "outputs": [
        {
          "internalType": "uint256",
          "name": "",
          "type": "uint256"
        }
      ],
      "stateMutability": "view",
      "type": "function"
    },
    {
      "inputs": [],
      "name": "registryContract",
      "outputs": [
        {
          "internalType": "contract IAdapterRegistryBase",
          "name": "",
          "type": "address"
        }
      ],
      "stateMutability": "view",
      "type": "function"
    },
    {
      "inputs": [],
      "name": "rewardToken",
      "outputs": [
        {
          "internalType": "address",
          "name": "",
          "type": "address"
        }
      ],
      "stateMutability": "view",
      "type": "function"
    },
    {
      "inputs": [
        {
          "internalType": "address",
          "name": "_liquidityPool",
          "type": "address"
        },
        {
          "internalType": "address",
          "name": "_underlyingToken",
          "type": "address"
        },
        {
          "internalType": "uint256",
          "name": "_maxDepositAmount",
          "type": "uint256"
        }
      ],
      "name": "setMaxDepositAmount",
      "outputs": [],
      "stateMutability": "nonpayable",
      "type": "function"
    },
    {
      "inputs": [
        {
          "internalType": "address",
          "name": "_liquidityPool",
          "type": "address"
        },
        {
          "internalType": "uint256",
          "name": "_maxDepositPoolPct",
          "type": "uint256"
        }
      ],
      "name": "setMaxDepositPoolPct",
      "outputs": [],
      "stateMutability": "nonpayable",
      "type": "function"
    },
    {
      "inputs": [
        {
          "internalType": "enum MaxExposure",
          "name": "_mode",
          "type": "uint8"
        }
      ],
      "name": "setMaxDepositProtocolMode",
      "outputs": [],
      "stateMutability": "nonpayable",
      "type": "function"
    },
    {
      "inputs": [
        {
          "internalType": "uint256",
          "name": "_maxDepositProtocolPct",
          "type": "uint256"
        }
      ],
      "name": "setMaxDepositProtocolPct",
      "outputs": [],
      "stateMutability": "nonpayable",
      "type": "function"
    },
    {
      "inputs": [
        {
          "internalType": "address",
          "name": "_registry",
          "type": "address"
        }
      ],
      "name": "setRegistry",
      "outputs": [],
      "stateMutability": "nonpayable",
      "type": "function"
    },
    {
      "inputs": [],
      "name": "uniswapV2Router02",
      "outputs": [
        {
          "internalType": "address",
          "name": "",
          "type": "address"
        }
      ],
      "stateMutability": "view",
      "type": "function"
    }
  ],
  "transactionHash": "0xdc1aa8e546fbe21e166c6e2a9ffffe04e45a4d20fbeb255f656ee00a2845a27d",
  "args": [
    "0x99fa011e33a8c6196869dec7bc407e896ba67fe3"
  ],
  "bytecode": "0x608060405234801561001057600080fd5b50604051611c18380380611c1883398101604081905261002f91610062565b600080546127106001556001600160a01b03929092166001600160a81b031990921691909117600160a01b179055610092565b60006020828403121561007457600080fd5b81516001600160a01b038116811461008b57600080fd5b9392505050565b611b77806100a16000396000f3fe608060405234801561001057600080fd5b50600436106101f05760003560e01c806385541e441161010f578063da699f96116100a2578063ef856be911610071578063ef856be91461048a578063f1aacbb7146104aa578063f49307ca146104bd578063f7c618c1146104d057600080fd5b8063da699f9614610451578063df93572214610464578063e49d5ecc14610477578063ee665bed146103b057600080fd5b8063a91ee0dc116100de578063a91ee0dc14610405578063b3fe7f5a14610418578063d463fcf61461042b578063d74baaf81461043e57600080fd5b806385541e44146103b057806390e61605146103c4578063919b69d7146103d7578063a7c6402c146103ea57600080fd5b80634ad36e02116101875780636d267d7c116101565780636d267d7c1461034b578063770788721461035e5780637c47b3f4146103855780637df50ed81461039a57600080fd5b80634ad36e02146102f25780634f83b52d14610305578063609257791461032557806364dd5f801461033857600080fd5b80632af06b96116101c35780632af06b96146102875780632de77838146102a857806336d8bf93146102bb578063489b5295146102df57600080fd5b8063027a304d146101f55780630c9d8d5c14610233578063191c194b1461025357806328c1f99b1461025c575b600080fd5b61022061020336600461164f565b600360209081526000928352604080842090915290825290205481565b6040519081526020015b60405180910390f35b610246610241366004611688565b6104eb565b60405161022a9190611720565b61022060015481565b60005461026f906001600160a01b031681565b6040516001600160a01b03909116815260200161022a565b60005461029b90600160a01b900460ff1681565b60405161022a9190611798565b6102206102b636600461164f565b610587565b6102cf6102c93660046117c0565b50600090565b604051901515815260200161022a565b6102466102ed366004611688565b6105f2565b6102206103003660046117dd565b610670565b6102206103133660046117c0565b60026020526000908152604090205481565b6102466103333660046117dd565b61067a565b610220610346366004611688565b610744565b61024661035936600461164f565b610751565b61026f61036c3660046117c0565b507398585dfc8d9e7d48f0b1ae47ce33332cf4237d9690565b61039861039336600461182e565b6107ea565b005b6102466103a836600461164f565b606092915050565b6102206103be36600461184f565b92915050565b6102206103d2366004611688565b61090e565b6103986103e5366004611890565b61097d565b61026f737a250d5630b4cf539739df2c5dacb4c659f2488d81565b6103986104133660046117c0565b610a6b565b610220610426366004611688565b610ba7565b6102466104393660046117dd565b610bd7565b61026f61044c36600461164f565b919050565b61039861045f3660046118bc565b610bf9565b6102466104723660046117dd565b610cd3565b6102cf6104853660046117dd565b610eb9565b61049d61049836600461164f565b610ed4565b60405161022a9190611919565b6103986104b836600461184f565b610f91565b6102466104cb366004611688565b61108f565b61026f7398585dfc8d9e7d48f0b1ae47ce33332cf4237d9681565b606060007398585dfc8d9e7d48f0b1ae47ce33332cf4237d966040516370a0823160e01b81526001600160a01b03878116600483015291909116906370a0823190602401602060405180830381865afa15801561054c573d6000803e3d6000fd5b505050506040513d601f19601f82011682018060405250810190610570919061192c565b905061057e85858584610bd7565b95945050505050565b6000826001600160a01b03166318160ddd6040518163ffffffff1660e01b8152600401602060405180830381865afa1580156105c7573d6000803e3d6000fd5b505050506040513d601f19601f820116820180604052508101906105eb919061192c565b9392505050565b6040516370a0823160e01b81526001600160a01b0384811660048301526060916000918516906370a0823190602401602060405180830381865afa15801561063e573d6000803e3d6000fd5b505050506040513d601f19601f82011682018060405250810190610662919061192c565b905061057e85858584610cd3565b805b949350505050565b606081156106725760408051600180825281830190925290816020015b606081526020019060019003908161069757905050905082836001600160a01b0316632e1a7d4d846040516024016106d191815260200190565b604051602081830303815290604052915060e01b6020820180516001600160e01b03838183161783525050505060405160200161070f92919061195b565b604051602081830303815290604052816000815181106107315761073161197f565b6020026020010181905250949350505050565b600061067284848461090e565b604080516001808252818301909252606091816020015b6060815260200190600190039081610768579050506040805160048152602481018252602080820180516001600160e01b0316631e8c5c8960e11b17905291519293506107b79285920161195b565b604051602081830303815290604052816000815181106107d9576107d961197f565b602002602001018190525092915050565b60008054906101000a90046001600160a01b03166001600160a01b0316637af0e5576040518163ffffffff1660e01b8152600401602060405180830381865afa15801561083b573d6000803e3d6000fd5b505050506040513d601f19601f8201168201806040525081019061085f9190611995565b6001600160a01b0316336001600160a01b0316146108985760405162461bcd60e51b815260040161088f906119b2565b60405180910390fd5b6000805482919060ff60a01b1916600160a01b8360018111156108bd576108bd611782565b02179055506000543390600160a01b900460ff1660018111156108e2576108e2611782565b6040517f68e3b01155b193b02181f2c0ed491c934a74348d211ff023f8fc6ac5edf22aa090600090a350565b6040516370a0823160e01b81526001600160a01b038481166004830152600091908316906370a08231906024015b602060405180830381865afa158015610959573d6000803e3d6000fd5b505050506040513d601f19601f82011682018060405250810190610672919061192c565b60008054906101000a90046001600160a01b03166001600160a01b0316637af0e5576040518163ffffffff1660e01b8152600401602060405180830381865afa1580156109ce573d6000803e3d6000fd5b505050506040513d601f19601f820116820180604052508101906109f29190611995565b6001600160a01b0316336001600160a01b031614610a225760405162461bcd60e51b815260040161088f906119b2565b6001600160a01b03821660009081526002602052604080822083905551339183917fac58e29a41d996caca756d050dce90806b277f0c939337653638329247e16f4c9190a35050565b60008054906101000a90046001600160a01b03166001600160a01b031663e7f43c686040518163ffffffff1660e01b8152600401602060405180830381865afa158015610abc573d6000803e3d6000fd5b505050506040513d601f19601f82011682018060405250810190610ae09190611995565b6001600160a01b0316336001600160a01b031614610b405760405162461bcd60e51b815260206004820152601a60248201527f63616c6c6572206973206e6f7420746865206f70657261746f72000000000000604482015260640161088f565b6001600160a01b0381163b610b855760405162461bcd60e51b815260206004820152600b60248201526a085a5cd0dbdb9d1c9858dd60aa1b604482015260640161088f565b600080546001600160a01b0319166001600160a01b0392909216919091179055565b6040516246613160e11b81526001600160a01b03848116600483015260009190841690628cc2629060240161093c565b606061057e857398585dfc8d9e7d48f0b1ae47ce33332cf4237d9686856110ac565b60008054906101000a90046001600160a01b03166001600160a01b0316637af0e5576040518163ffffffff1660e01b8152600401602060405180830381865afa158015610c4a573d6000803e3d6000fd5b505050506040513d601f19601f82011682018060405250810190610c6e9190611995565b6001600160a01b0316336001600160a01b031614610c9e5760405162461bcd60e51b815260040161088f906119b2565b6001819055604051339082907f19c60b0612798cc65bd298cd47e17d9fd07e74e0d3baa6c0019411bb334d9bda90600090a350565b60606000610ce28486856112fb565b90508015610eb0576040805160038082526080820190925290816020015b6060815260200190600190039081610d00575050604080516001600160a01b038716602482015260006044808301919091528251808303909101815260649091018252602080820180516001600160e01b031663095ea7b360e01b1790529151929450610d6f9288920161195b565b60405160208183030381529060405282600081518110610d9157610d9161197f565b602090810291909101810191909152604080516001600160a01b03871660248201526044808201859052825180830390910181526064909101825280830180516001600160e01b031663095ea7b360e01b1790529051610df4928892910161195b565b60405160208183030381529060405282600181518110610e1657610e1661197f565b602002602001018190525083846001600160a01b031663a694fc3a83604051602401610e4491815260200190565b604051602081830303815290604052915060e01b6020820180516001600160e01b038381831617835250505050604051602001610e8292919061195b565b60405160208183030381529060405282600281518110610ea457610ea461197f565b60200260200101819052505b50949350505050565b600080610ec7868686610744565b9092111595945050505050565b60408051600180825281830190925260609160208083019080368337019050509050826001600160a01b03166372f702f36040518163ffffffff1660e01b8152600401602060405180830381865afa158015610f34573d6000803e3d6000fd5b505050506040513d601f19601f82011682018060405250810190610f589190611995565b81600081518110610f6b57610f6b61197f565b60200260200101906001600160a01b031690816001600160a01b03168152505092915050565b60008054906101000a90046001600160a01b03166001600160a01b0316637af0e5576040518163ffffffff1660e01b8152600401602060405180830381865afa158015610fe2573d6000803e3d6000fd5b505050506040513d601f19601f820116820180604052508101906110069190611995565b6001600160a01b0316336001600160a01b0316146110365760405162461bcd60e51b815260040161088f906119b2565b6001600160a01b03838116600090815260036020908152604080832093861683529290528181208390559051339183917f197807a6a2633dd9bde6550aca985cfc69e655e9130930314c0e9da01a75cc549190a3505050565b6060600061109e85858561090e565b905061057e8585858461067a565b60608115610672576000737a250d5630b4cf539739df2c5dacb4c659f2488d63d06ca61f846110db8888611366565b6040518363ffffffff1660e01b81526004016110f89291906119e9565b600060405180830381865afa158015611115573d6000803e3d6000fd5b505050506040513d6000823e601f3d908101601f1916820160405261113d9190810190611a02565b9050600081600183516111509190611ad6565b815181106111605761116061197f565b60200260200101511115610eb0576040805160038082526080820190925290816020015b606081526020019060019003908161118457505060408051737a250d5630b4cf539739df2c5dacb4c659f2488d602482015260006044808301919091528251808303909101815260649091018252602080820180516001600160e01b031663095ea7b360e01b17905291519294506111fe9288920161195b565b604051602081830303815290604052826000815181106112205761122061197f565b60209081029190910181019190915260408051737a250d5630b4cf539739df2c5dacb4c659f2488d60248201526044808201879052825180830390910181526064909101825280830180516001600160e01b031663095ea7b360e01b179052905161128e928892910161195b565b604051602081830303815290604052826001815181106112b0576112b061197f565b6020908102919091010152737a250d5630b4cf539739df2c5dacb4c659f2488d806338ed17398560006112e38a8a611366565b8b600019604051602401610e44959493929190611aed565b6000806001600054600160a01b900460ff16600181111561131e5761131e611782565b1461134e576001600160a01b03808616600090815260036020908152604080832093881683529290522054611357565b611357856115d0565b9050808311610672578261057e565b60606000737a250d5630b4cf539739df2c5dacb4c659f2488d6001600160a01b031663ad5c46486040518163ffffffff1660e01b8152600401602060405180830381865afa1580156113bc573d6000803e3d6000fd5b505050506040513d601f19601f820116820180604052508101906113e09190611995565b9050806001600160a01b0316836001600160a01b0316141561148957604080516002808252606082018352909160208301908036833701905050915083826000815181106114305761143061197f565b60200260200101906001600160a01b031690816001600160a01b03168152505080826001815181106114645761146461197f565b60200260200101906001600160a01b031690816001600160a01b0316815250506115c9565b806001600160a01b0316846001600160a01b0316141561150b57604080516002808252606082018352909160208301908036833701905050915080826000815181106114d7576114d761197f565b60200260200101906001600160a01b031690816001600160a01b03168152505082826001815181106114645761146461197f565b60408051600380825260808201909252906020820160608036833701905050915083826000815181106115405761154061197f565b60200260200101906001600160a01b031690816001600160a01b03168152505080826001815181106115745761157461197f565b60200260200101906001600160a01b031690816001600160a01b03168152505082826002815181106115a8576115a861197f565b60200260200101906001600160a01b031690816001600160a01b0316815250505b5092915050565b6000806115de836000610587565b6001600160a01b038416600090815260026020526040812054919250811561161c5761271061160d8385611b29565b6116179190611b48565b61057e565b6127106001548461162d9190611b29565b61057e9190611b48565b6001600160a01b038116811461164c57600080fd5b50565b6000806040838503121561166257600080fd5b823561166d81611637565b9150602083013561167d81611637565b809150509250929050565b60008060006060848603121561169d57600080fd5b83356116a881611637565b925060208401356116b881611637565b915060408401356116c881611637565b809150509250925092565b6000815180845260005b818110156116f9576020818501810151868301820152016116dd565b8181111561170b576000602083870101525b50601f01601f19169290920160200192915050565b6000602080830181845280855180835260408601915060408160051b870101925083870160005b8281101561177557603f198886030184526117638583516116d3565b94509285019290850190600101611747565b5092979650505050505050565b634e487b7160e01b600052602160045260246000fd5b60208101600283106117ba57634e487b7160e01b600052602160045260246000fd5b91905290565b6000602082840312156117d257600080fd5b81356105eb81611637565b600080600080608085870312156117f357600080fd5b84356117fe81611637565b9350602085013561180e81611637565b9250604085013561181e81611637565b9396929550929360600135925050565b60006020828403121561184057600080fd5b8135600281106105eb57600080fd5b60008060006060848603121561186457600080fd5b833561186f81611637565b9250602084013561187f81611637565b929592945050506040919091013590565b600080604083850312156118a357600080fd5b82356118ae81611637565b946020939093013593505050565b6000602082840312156118ce57600080fd5b5035919050565b600081518084526020808501945080840160005b8381101561190e5781516001600160a01b0316875295820195908201906001016118e9565b509495945050505050565b6020815260006105eb60208301846118d5565b60006020828403121561193e57600080fd5b5051919050565b634e487b7160e01b600052604160045260246000fd5b6001600160a01b0383168152604060208201819052600090610672908301846116d3565b634e487b7160e01b600052603260045260246000fd5b6000602082840312156119a757600080fd5b81516105eb81611637565b6020808252601e908201527f63616c6c6572206973206e6f7420746865207269736b4f70657261746f720000604082015260600190565b82815260406020820152600061067260408301846118d5565b60006020808385031215611a1557600080fd5b825167ffffffffffffffff80821115611a2d57600080fd5b818501915085601f830112611a4157600080fd5b815181811115611a5357611a53611945565b8060051b604051601f19603f83011681018181108582111715611a7857611a78611945565b604052918252848201925083810185019188831115611a9657600080fd5b938501935b82851015611ab457845184529385019392850192611a9b565b98975050505050505050565b634e487b7160e01b600052601160045260246000fd5b600082821015611ae857611ae8611ac0565b500390565b85815284602082015260a060408201526000611b0c60a08301866118d5565b6001600160a01b0394909416606083015250608001529392505050565b6000816000190483118215151615611b4357611b43611ac0565b500290565b600082611b6557634e487b7160e01b600052601260045260246000fd5b50049056fea164736f6c634300080b000a"
}