{
  "address": "0xfdFa100f405102FdD2718E14CA13911ed569B43a",
  "abi": [
    {
      "inputs": [
        {
          "internalType": "address",
          "name": "_registry",
          "type": "address"
        },
        {
          "internalType": "string",
          "name": "_name",
          "type": "string"
        },
        {
          "internalType": "string",
          "name": "_symbol",
          "type": "string"
        },
        {
          "internalType": "string",
          "name": "_riskProfileName",
          "type": "string"
        },
        {
          "internalType": "string",
          "name": "_riskProfileSymbol",
          "type": "string"
        }
      ],
      "stateMutability": "nonpayable",
      "type": "constructor"
    },
    {
      "anonymous": false,
      "inputs": [
        {
          "indexed": true,
          "internalType": "address",
          "name": "owner",
          "type": "address"
        },
        {
          "indexed": true,
          "internalType": "address",
          "name": "spender",
          "type": "address"
        },
        {
          "indexed": false,
          "internalType": "uint256",
          "name": "value",
          "type": "uint256"
        }
      ],
      "name": "Approval",
      "type": "event"
    },
    {
      "anonymous": false,
      "inputs": [
        {
          "indexed": true,
          "internalType": "bool",
          "name": "emergencyShutdown",
          "type": "bool"
        },
        {
          "indexed": true,
          "internalType": "address",
          "name": "caller",
          "type": "address"
        }
      ],
      "name": "LogEmergencyShutdown",
      "type": "event"
    },
    {
      "anonymous": false,
      "inputs": [
        {
          "indexed": true,
          "internalType": "uint256",
          "name": "minimumDepositValueUT",
          "type": "uint256"
        },
        {
          "indexed": true,
          "internalType": "address",
          "name": "caller",
          "type": "address"
        }
      ],
      "name": "LogMinimumDepositValueUT",
      "type": "event"
    },
    {
      "anonymous": false,
      "inputs": [
        {
          "indexed": true,
          "internalType": "uint256",
          "name": "totalValueLockedLimitUT",
          "type": "uint256"
        },
        {
          "indexed": true,
          "internalType": "address",
          "name": "caller",
          "type": "address"
        }
      ],
      "name": "LogTotalValueLockedLimitUT",
      "type": "event"
    },
    {
      "anonymous": false,
      "inputs": [
        {
          "indexed": true,
          "internalType": "bool",
          "name": "unpaused",
          "type": "bool"
        },
        {
          "indexed": true,
          "internalType": "address",
          "name": "caller",
          "type": "address"
        }
      ],
      "name": "LogUnpause",
      "type": "event"
    },
    {
      "anonymous": false,
      "inputs": [
        {
          "indexed": true,
          "internalType": "uint256",
          "name": "userDepositCapUT",
          "type": "uint256"
        },
        {
          "indexed": true,
          "internalType": "address",
          "name": "caller",
          "type": "address"
        }
      ],
      "name": "LogUserDepositCapUT",
      "type": "event"
    },
    {
      "anonymous": false,
      "inputs": [
        {
          "indexed": true,
          "internalType": "address",
          "name": "from",
          "type": "address"
        },
        {
          "indexed": true,
          "internalType": "address",
          "name": "to",
          "type": "address"
        },
        {
          "indexed": false,
          "internalType": "uint256",
          "name": "value",
          "type": "uint256"
        }
      ],
      "name": "Transfer",
      "type": "event"
    },
    {
      "inputs": [
        {
          "internalType": "bytes[]",
          "name": "_codes",
          "type": "bytes[]"
        }
      ],
      "name": "adminCall",
      "outputs": [],
      "stateMutability": "nonpayable",
      "type": "function"
    },
    {
      "inputs": [
        {
          "internalType": "address",
          "name": "owner",
          "type": "address"
        },
        {
          "internalType": "address",
          "name": "spender",
          "type": "address"
        }
      ],
      "name": "allowance",
      "outputs": [
        {
          "internalType": "uint256",
          "name": "",
          "type": "uint256"
        }
      ],
      "stateMutability": "view",
      "type": "function"
    },
    {
      "inputs": [
        {
          "internalType": "address",
          "name": "spender",
          "type": "address"
        },
        {
          "internalType": "uint256",
          "name": "amount",
          "type": "uint256"
        }
      ],
      "name": "approve",
      "outputs": [
        {
          "internalType": "bool",
          "name": "",
          "type": "bool"
        }
      ],
      "stateMutability": "nonpayable",
      "type": "function"
    },
    {
      "inputs": [
        {
          "internalType": "address",
          "name": "account",
          "type": "address"
        }
      ],
      "name": "balanceOf",
      "outputs": [
        {
          "internalType": "uint256",
          "name": "",
          "type": "uint256"
        }
      ],
      "stateMutability": "view",
      "type": "function"
    },
    {
      "inputs": [],
      "name": "balanceUT",
      "outputs": [
        {
          "internalType": "uint256",
          "name": "",
          "type": "uint256"
        }
      ],
      "stateMutability": "view",
      "type": "function"
    },
    {
      "inputs": [
        {
          "internalType": "uint256",
          "name": "",
          "type": "uint256"
        },
        {
          "internalType": "uint256",
          "name": "",
          "type": "uint256"
        }
      ],
      "name": "blockToBlockVaultValues",
      "outputs": [
        {
          "internalType": "uint256",
          "name": "actualVaultValue",
          "type": "uint256"
        },
        {
          "internalType": "uint256",
          "name": "blockMinVaultValue",
          "type": "uint256"
        },
        {
          "internalType": "uint256",
          "name": "blockMaxVaultValue",
          "type": "uint256"
        }
      ],
      "stateMutability": "view",
      "type": "function"
    },
    {
      "inputs": [
        {
          "internalType": "uint256",
          "name": "_userDepositUT",
          "type": "uint256"
        }
      ],
      "name": "calcDepositFeeUT",
      "outputs": [
        {
          "internalType": "uint256",
          "name": "",
          "type": "uint256"
        }
      ],
      "stateMutability": "view",
      "type": "function"
    },
    {
      "inputs": [
        {
          "internalType": "uint256",
          "name": "_userWithdrawUT",
          "type": "uint256"
        }
      ],
      "name": "calcWithdrawalFeeUT",
      "outputs": [
        {
          "internalType": "uint256",
          "name": "",
          "type": "uint256"
        }
      ],
      "stateMutability": "view",
      "type": "function"
    },
    {
      "inputs": [
        {
          "components": [
            {
              "internalType": "address",
              "name": "pool",
              "type": "address"
            },
            {
              "internalType": "address",
              "name": "outputToken",
              "type": "address"
            },
            {
              "internalType": "bool",
              "name": "isBorrow",
              "type": "bool"
            }
          ],
          "internalType": "struct DataTypes.StrategyStep[]",
          "name": "_investStrategySteps",
          "type": "tuple[]"
        }
      ],
      "name": "computeInvestStrategyHash",
      "outputs": [
        {
          "internalType": "bytes32",
          "name": "",
          "type": "bytes32"
        }
      ],
      "stateMutability": "view",
      "type": "function"
    },
    {
      "inputs": [],
      "name": "decimals",
      "outputs": [
        {
          "internalType": "uint8",
          "name": "",
          "type": "uint8"
        }
      ],
      "stateMutability": "view",
      "type": "function"
    },
    {
      "inputs": [
        {
          "internalType": "address",
          "name": "spender",
          "type": "address"
        },
        {
          "internalType": "uint256",
          "name": "subtractedValue",
          "type": "uint256"
        }
      ],
      "name": "decreaseAllowance",
      "outputs": [
        {
          "internalType": "bool",
          "name": "",
          "type": "bool"
        }
      ],
      "stateMutability": "nonpayable",
      "type": "function"
    },
    {
      "inputs": [],
      "name": "getInvestStrategySteps",
      "outputs": [
        {
          "components": [
            {
              "internalType": "address",
              "name": "pool",
              "type": "address"
            },
            {
              "internalType": "address",
              "name": "outputToken",
              "type": "address"
            },
            {
              "internalType": "bool",
              "name": "isBorrow",
              "type": "bool"
            }
          ],
          "internalType": "struct DataTypes.StrategyStep[]",
          "name": "",
          "type": "tuple[]"
        }
      ],
      "stateMutability": "view",
      "type": "function"
    },
    {
      "inputs": [
        {
          "components": [
            {
              "internalType": "address",
              "name": "pool",
              "type": "address"
            },
            {
              "internalType": "address",
              "name": "outputToken",
              "type": "address"
            },
            {
              "internalType": "bool",
              "name": "isBorrow",
              "type": "bool"
            }
          ],
          "internalType": "struct DataTypes.StrategyStep[]",
          "name": "_investStrategySteps",
          "type": "tuple[]"
        }
      ],
      "name": "getLastStrategyStepBalanceLP",
      "outputs": [
        {
          "internalType": "uint256",
          "name": "",
          "type": "uint256"
        }
      ],
      "stateMutability": "view",
      "type": "function"
    },
    {
      "inputs": [],
      "name": "getNextBestInvestStrategy",
      "outputs": [
        {
          "components": [
            {
              "internalType": "address",
              "name": "pool",
              "type": "address"
            },
            {
              "internalType": "address",
              "name": "outputToken",
              "type": "address"
            },
            {
              "internalType": "bool",
              "name": "isBorrow",
              "type": "bool"
            }
          ],
          "internalType": "struct DataTypes.StrategyStep[]",
          "name": "",
          "type": "tuple[]"
        }
      ],
      "stateMutability": "view",
      "type": "function"
    },
    {
      "inputs": [],
      "name": "getPricePerFullShare",
      "outputs": [
        {
          "internalType": "uint256",
          "name": "",
          "type": "uint256"
        }
      ],
      "stateMutability": "view",
      "type": "function"
    },
    {
      "inputs": [
        {
          "internalType": "address",
          "name": "spender",
          "type": "address"
        },
        {
          "internalType": "uint256",
          "name": "addedValue",
          "type": "uint256"
        }
      ],
      "name": "increaseAllowance",
      "outputs": [
        {
          "internalType": "bool",
          "name": "",
          "type": "bool"
        }
      ],
      "stateMutability": "nonpayable",
      "type": "function"
    },
    {
      "inputs": [
        {
          "internalType": "address",
          "name": "_registry",
          "type": "address"
        },
        {
          "internalType": "bytes32",
          "name": "_underlyingTokensHash",
          "type": "bytes32"
        },
        {
          "internalType": "string",
          "name": "_name",
          "type": "string"
        },
        {
          "internalType": "string",
          "name": "_symbol",
          "type": "string"
        },
        {
          "internalType": "uint256",
          "name": "_riskProfileCode",
          "type": "uint256"
        }
      ],
      "name": "initialize",
      "outputs": [],
      "stateMutability": "nonpayable",
      "type": "function"
    },
    {
      "inputs": [],
      "name": "investStrategyHash",
      "outputs": [
        {
          "internalType": "bytes32",
          "name": "",
          "type": "bytes32"
        }
      ],
      "stateMutability": "view",
      "type": "function"
    },
    {
      "inputs": [
        {
          "internalType": "uint256",
          "name": "",
          "type": "uint256"
        }
      ],
      "name": "investStrategySteps",
      "outputs": [
        {
          "internalType": "address",
          "name": "pool",
          "type": "address"
        },
        {
          "internalType": "address",
          "name": "outputToken",
          "type": "address"
        },
        {
          "internalType": "bool",
          "name": "isBorrow",
          "type": "bool"
        }
      ],
      "stateMutability": "view",
      "type": "function"
    },
    {
      "inputs": [
        {
          "internalType": "uint256",
          "name": "_diff",
          "type": "uint256"
        },
        {
          "internalType": "uint256",
          "name": "_currentVaultValue",
          "type": "uint256"
        }
      ],
      "name": "isMaxVaultValueJumpAllowed",
      "outputs": [
        {
          "internalType": "bool",
          "name": "",
          "type": "bool"
        }
      ],
      "stateMutability": "view",
      "type": "function"
    },
    {
      "inputs": [],
      "name": "minimumDepositValueUT",
      "outputs": [
        {
          "internalType": "uint256",
          "name": "",
          "type": "uint256"
        }
      ],
      "stateMutability": "view",
      "type": "function"
    },
    {
      "inputs": [],
      "name": "name",
      "outputs": [
        {
          "internalType": "string",
          "name": "",
          "type": "string"
        }
      ],
      "stateMutability": "view",
      "type": "function"
    },
    {
      "inputs": [],
      "name": "opTOKEN_REVISION",
      "outputs": [
        {
          "internalType": "uint256",
          "name": "",
          "type": "uint256"
        }
      ],
      "stateMutability": "view",
      "type": "function"
    },
    {
      "inputs": [
        {
          "internalType": "address",
          "name": "",
          "type": "address"
        }
      ],
      "name": "pendingDeposits",
      "outputs": [
        {
          "internalType": "uint256",
          "name": "",
          "type": "uint256"
        }
      ],
      "stateMutability": "view",
      "type": "function"
    },
    {
      "inputs": [
        {
          "internalType": "uint256",
          "name": "",
          "type": "uint256"
        }
      ],
      "name": "queue",
      "outputs": [
        {
          "internalType": "address",
          "name": "account",
          "type": "address"
        },
        {
          "internalType": "uint256",
          "name": "value",
          "type": "uint256"
        }
      ],
      "stateMutability": "view",
      "type": "function"
    },
    {
      "inputs": [],
      "name": "rebalance",
      "outputs": [],
      "stateMutability": "nonpayable",
      "type": "function"
    },
    {
      "inputs": [],
      "name": "registryContract",
      "outputs": [
        {
          "internalType": "contract IRegistry",
          "name": "",
          "type": "address"
        }
      ],
      "stateMutability": "view",
      "type": "function"
    },
    {
      "inputs": [
        {
          "internalType": "bool",
          "name": "_active",
          "type": "bool"
        }
      ],
      "name": "setEmergencyShutdown",
      "outputs": [],
      "stateMutability": "nonpayable",
      "type": "function"
    },
    {
      "inputs": [
        {
          "internalType": "uint256",
          "name": "_minimumDepositValueUT",
          "type": "uint256"
        }
      ],
      "name": "setMinimumDepositValueUT",
      "outputs": [],
      "stateMutability": "nonpayable",
      "type": "function"
    },
    {
      "inputs": [
        {
          "internalType": "address",
          "name": "_registry",
          "type": "address"
        }
      ],
      "name": "setRegistry",
      "outputs": [],
      "stateMutability": "nonpayable",
      "type": "function"
    },
    {
      "inputs": [
        {
          "internalType": "uint256",
          "name": "_riskProfileCode",
          "type": "uint256"
        }
      ],
      "name": "setRiskProfileCode",
      "outputs": [],
      "stateMutability": "nonpayable",
      "type": "function"
    },
    {
      "inputs": [
        {
          "internalType": "uint256",
          "name": "_totalValueLockedLimitUT",
          "type": "uint256"
        }
      ],
      "name": "setTotalValueLockedLimitUT",
      "outputs": [],
      "stateMutability": "nonpayable",
      "type": "function"
    },
    {
      "inputs": [
        {
          "internalType": "bytes32",
          "name": "_underlyingTokensHash",
          "type": "bytes32"
        }
      ],
      "name": "setUnderlyingTokensHash",
      "outputs": [],
      "stateMutability": "nonpayable",
      "type": "function"
    },
    {
      "inputs": [
        {
          "internalType": "bool",
          "name": "_unpaused",
          "type": "bool"
        }
      ],
      "name": "setUnpaused",
      "outputs": [],
      "stateMutability": "nonpayable",
      "type": "function"
    },
    {
      "inputs": [
        {
          "internalType": "uint256",
          "name": "_userDepositCapUT",
          "type": "uint256"
        }
      ],
      "name": "setUserDepositCapUT",
      "outputs": [],
      "stateMutability": "nonpayable",
      "type": "function"
    },
    {
      "inputs": [
        {
          "internalType": "uint256",
          "name": "_userDepositCapUT",
          "type": "uint256"
        },
        {
          "internalType": "uint256",
          "name": "_minimumDepositValueUT",
          "type": "uint256"
        },
        {
          "internalType": "uint256",
          "name": "_totalValueLockedLimitUT",
          "type": "uint256"
        }
      ],
      "name": "setValueControlParams",
      "outputs": [],
      "stateMutability": "nonpayable",
      "type": "function"
    },
    {
      "inputs": [
        {
          "internalType": "uint256",
          "name": "_vaultConfiguration",
          "type": "uint256"
        }
      ],
      "name": "setVaultConfiguration",
      "outputs": [],
      "stateMutability": "nonpayable",
      "type": "function"
    },
    {
      "inputs": [
        {
          "internalType": "bytes32",
          "name": "_whitelistedAccountsRoot",
          "type": "bytes32"
        }
      ],
      "name": "setWhitelistedAccountsRoot",
      "outputs": [],
      "stateMutability": "nonpayable",
      "type": "function"
    },
    {
      "inputs": [
        {
          "internalType": "bytes32",
          "name": "_whitelistedCodesRoot",
          "type": "bytes32"
        }
      ],
      "name": "setWhitelistedCodesRoot",
      "outputs": [],
      "stateMutability": "nonpayable",
      "type": "function"
    },
    {
      "inputs": [],
      "name": "symbol",
      "outputs": [
        {
          "internalType": "string",
          "name": "",
          "type": "string"
        }
      ],
      "stateMutability": "view",
      "type": "function"
    },
    {
      "inputs": [
        {
          "internalType": "address",
          "name": "",
          "type": "address"
        }
      ],
      "name": "totalDeposits",
      "outputs": [
        {
          "internalType": "uint256",
          "name": "",
          "type": "uint256"
        }
      ],
      "stateMutability": "view",
      "type": "function"
    },
    {
      "inputs": [],
      "name": "totalSupply",
      "outputs": [
        {
          "internalType": "uint256",
          "name": "",
          "type": "uint256"
        }
      ],
      "stateMutability": "view",
      "type": "function"
    },
    {
      "inputs": [],
      "name": "totalValueLockedLimitUT",
      "outputs": [
        {
          "internalType": "uint256",
          "name": "",
          "type": "uint256"
        }
      ],
      "stateMutability": "view",
      "type": "function"
    },
    {
      "inputs": [
        {
          "internalType": "address",
          "name": "recipient",
          "type": "address"
        },
        {
          "internalType": "uint256",
          "name": "amount",
          "type": "uint256"
        }
      ],
      "name": "transfer",
      "outputs": [
        {
          "internalType": "bool",
          "name": "",
          "type": "bool"
        }
      ],
      "stateMutability": "nonpayable",
      "type": "function"
    },
    {
      "inputs": [
        {
          "internalType": "address",
          "name": "sender",
          "type": "address"
        },
        {
          "internalType": "address",
          "name": "recipient",
          "type": "address"
        },
        {
          "internalType": "uint256",
          "name": "amount",
          "type": "uint256"
        }
      ],
      "name": "transferFrom",
      "outputs": [
        {
          "internalType": "bool",
          "name": "",
          "type": "bool"
        }
      ],
      "stateMutability": "nonpayable",
      "type": "function"
    },
    {
      "inputs": [],
      "name": "underlyingToken",
      "outputs": [
        {
          "internalType": "address",
          "name": "",
          "type": "address"
        }
      ],
      "stateMutability": "view",
      "type": "function"
    },
    {
      "inputs": [],
      "name": "underlyingTokensHash",
      "outputs": [
        {
          "internalType": "bytes32",
          "name": "",
          "type": "bytes32"
        }
      ],
      "stateMutability": "view",
      "type": "function"
    },
    {
      "inputs": [],
      "name": "userDepositCapUT",
      "outputs": [
        {
          "internalType": "uint256",
          "name": "",
          "type": "uint256"
        }
      ],
      "stateMutability": "view",
      "type": "function"
    },
    {
      "inputs": [
        {
          "internalType": "address",
          "name": "_user",
          "type": "address"
        },
        {
          "internalType": "bool",
          "name": "_addUserDepositUT",
          "type": "bool"
        },
        {
          "internalType": "uint256",
          "name": "_userDepositUTWithDeductions",
          "type": "uint256"
        },
        {
          "internalType": "uint256",
          "name": "_deductions",
          "type": "uint256"
        },
        {
          "internalType": "bytes32[]",
          "name": "_accountsProof",
          "type": "bytes32[]"
        },
        {
          "internalType": "bytes32[]",
          "name": "_codesProof",
          "type": "bytes32[]"
        }
      ],
      "name": "userDepositPermitted",
      "outputs": [
        {
          "internalType": "bool",
          "name": "",
          "type": "bool"
        },
        {
          "internalType": "string",
          "name": "",
          "type": "string"
        }
      ],
      "stateMutability": "view",
      "type": "function"
    },
    {
      "inputs": [
        {
          "internalType": "uint256",
          "name": "_userDepositUT",
          "type": "uint256"
        },
        {
          "internalType": "bytes32[]",
          "name": "_accountsProof",
          "type": "bytes32[]"
        },
        {
          "internalType": "bytes32[]",
          "name": "_codesProof",
          "type": "bytes32[]"
        }
      ],
      "name": "userDepositVault",
      "outputs": [],
      "stateMutability": "nonpayable",
      "type": "function"
    },
    {
      "inputs": [
        {
          "internalType": "address",
          "name": "_user",
          "type": "address"
        },
        {
          "internalType": "uint256",
          "name": "_userWithdrawVT",
          "type": "uint256"
        },
        {
          "internalType": "bytes32[]",
          "name": "_accountsProof",
          "type": "bytes32[]"
        },
        {
          "internalType": "bytes32[]",
          "name": "_codesProof",
          "type": "bytes32[]"
        }
      ],
      "name": "userWithdrawPermitted",
      "outputs": [
        {
          "internalType": "bool",
          "name": "",
          "type": "bool"
        },
        {
          "internalType": "string",
          "name": "",
          "type": "string"
        }
      ],
      "stateMutability": "view",
      "type": "function"
    },
    {
      "inputs": [
        {
          "internalType": "uint256",
          "name": "_userWithdrawVT",
          "type": "uint256"
        },
        {
          "internalType": "bytes32[]",
          "name": "_accountsProof",
          "type": "bytes32[]"
        },
        {
          "internalType": "bytes32[]",
          "name": "_codesProof",
          "type": "bytes32[]"
        }
      ],
      "name": "userWithdrawVault",
      "outputs": [],
      "stateMutability": "nonpayable",
      "type": "function"
    },
    {
      "inputs": [],
      "name": "vaultConfiguration",
      "outputs": [
        {
          "internalType": "uint256",
          "name": "",
          "type": "uint256"
        }
      ],
      "stateMutability": "view",
      "type": "function"
    },
    {
      "inputs": [],
      "name": "vaultDepositAllToStrategy",
      "outputs": [],
      "stateMutability": "nonpayable",
      "type": "function"
    },
    {
      "inputs": [],
      "name": "vaultDepositPermitted",
      "outputs": [
        {
          "internalType": "bool",
          "name": "",
          "type": "bool"
        },
        {
          "internalType": "string",
          "name": "",
          "type": "string"
        }
      ],
      "stateMutability": "view",
      "type": "function"
    },
    {
      "inputs": [],
      "name": "vaultWithdrawPermitted",
      "outputs": [
        {
          "internalType": "bool",
          "name": "",
          "type": "bool"
        },
        {
          "internalType": "string",
          "name": "",
          "type": "string"
        }
      ],
      "stateMutability": "view",
      "type": "function"
    },
    {
      "inputs": [],
      "name": "whitelistedAccountsRoot",
      "outputs": [
        {
          "internalType": "bytes32",
          "name": "",
          "type": "bytes32"
        }
      ],
      "stateMutability": "view",
      "type": "function"
    },
    {
      "inputs": [],
      "name": "whitelistedCodesRoot",
      "outputs": [
        {
          "internalType": "bytes32",
          "name": "",
          "type": "bytes32"
        }
      ],
      "stateMutability": "view",
      "type": "function"
    }
  ],
  "transactionHash": "0x9b9b5a6e6c05fb5b46b1b2320651b2018a3fb6c959fc6d09d6e46d46aa9504a7",
  "args": [
    "0x99fa011e33a8c6196869dec7bc407e896ba67fe3",
    "Newo Order",
    "NEWO",
    "Invest",
    "invst"
  ],
  "bytecode": "0x6080604052600080553480156200001557600080fd5b50604051620063823803806200638283398101604081905262000038916200020f565b8484836040516020016200004e92919062000327565b604051602081830303815290604052848360405160200162000072929190620002e3565b60408051601f19818403018152919052815162000097906037906020850190620000f2565b508051620000ad906038906020840190620000f2565b5050603980546001600160a01b0390931661010002610100600160a81b031960ff19909416601217939093169290921790915550506001603a5550620003a992505050565b828054600181600116156101000203166002900490600052602060002090601f016020900481019282601f106200013557805160ff191683800117855562000165565b8280016001018555821562000165579182015b828111156200016557825182559160200191906001019062000148565b506200017392915062000177565b5090565b5b8082111562000173576000815560010162000178565b600082601f8301126200019f578081fd5b81516001600160401b0380821115620001b6578283fd5b604051601f8301601f191681016020018281118282101715620001d7578485fd5b604052828152925082848301602001861015620001f357600080fd5b6200020683602083016020880162000376565b50505092915050565b600080600080600060a0868803121562000227578081fd5b85516001600160a01b03811681146200023e578182fd5b60208701519095506001600160401b03808211156200025b578283fd5b6200026989838a016200018e565b955060408801519150808211156200027f578283fd5b6200028d89838a016200018e565b94506060880151915080821115620002a3578283fd5b620002b189838a016200018e565b93506080880151915080821115620002c7578283fd5b50620002d6888289016200018e565b9150509295509295909350565b60006106f760f41b825283516200030281600285016020880162000376565b8351908301906200031b81600284016020880162000376565b01600201949350505050565b600062037b8160ed1b825283516200034781600385016020880162000376565b600160fd1b60039184019182015283516200036a81600484016020880162000376565b01600401949350505050565b60005b838110156200039357818101518382015260200162000379565b83811115620003a3576000848401525b50505050565b615fc980620003b96000396000f3fe608060405234801561001057600080fd5b506004361061038e5760003560e01c806387a53e7a116101de578063b1ff85221161010f578063d5802ec2116100ad578063dd62ed3e1161007c578063dd62ed3e1461071d578063ddf0b00914610730578063e940325614610751578063eb3349b9146107645761038e565b8063d5802ec2146106dc578063d952ca50146106ef578063da7058e414610702578063db7e5632146107155761038e565b8063c66da8e8116100e9578063c66da8e8146106a6578063c9dd6b24146106ae578063cf85f080146106b6578063d07c179b146106c95761038e565b8063b1ff852214610678578063b318b82d1461068b578063b8332c49146106935761038e565b8063a37085841161017c578063a91ee0dc11610156578063a91ee0dc14610642578063a9b497c814610655578063ae78b1b01461065d578063b00fce2a146106655761038e565b8063a370858414610614578063a457c2d71461061c578063a9059cbb1461062f5761038e565b80638c0e0357116101b85780638c0e0357146105e95780638d1efd78146105f157806395d89b4114610604578063a30b72711461060c5761038e565b806387a53e7a146105b0578063890ddde8146105c35780638aa2e4b4146105d65761038e565b80632e40939c116102c35780636889d6731161026157806376e57d031161023057806376e57d031461058557806377c7b8fc146105985780637c8eb82a146105a05780637d7c2a1c146105a85761038e565b80636889d6731461052a5780636db5eeb21461053d57806370a082311461055f57806371679bcb146105725761038e565b806337d62e541161029d57806337d62e54146104e957806339509351146104fc5780633c870dcf1461050f57806357a194ab146105175761038e565b80632e40939c146104b95780632e935aa7146104c1578063313ce567146104d45761038e565b806318160ddd116103305780632495a5991161030a5780632495a5991461048157806328c1f99b1461049657806329dc06581461049e5780632a4d7943146104a65761038e565b806318160ddd1461044457806323b872dd1461044c57806323bb5fac1461045f5761038e565b806306fdde031161036c57806306fdde03146103e757806307134773146103fc578063095ea7b31461041157806314c64402146104315761038e565b806301dcad0f1461039357806303f2e589146103bd5780630537df97146103d2575b600080fd5b6103a66103a13660046151c8565b610777565b6040516103b49291906159c9565b60405180910390f35b6103c561089e565b6040516103b49190615790565b6103da6108a4565b6040516103b49190615964565b6103ef6109be565b6040516103b491906159e4565b61040f61040a366004615534565b610a54565b005b61042461041f36600461519d565b610b18565b6040516103b491906159be565b61040f61043f3660046154fc565b610b36565b6103c5610cf0565b61042461045a366004615042565b610cf6565b61047261046d3660046156a7565b610d7e565b6040516103b493929190615e3d565b610489610dbd565b6040516103b49190615888565b610489610dcc565b6103c5610de0565b61040f6104b43660046152dc565b610de6565b6103a6610ec3565b61040f6104cf3660046156c8565b610f14565b6104dc610fea565b6040516103b49190615e53565b61040f6104f73660046154fc565b610ff3565b61042461050a36600461519d565b6111a8565b61040f6111f6565b61040f610525366004615534565b6112c9565b61040f610538366004615534565b611388565b61055061054b366004615534565b611447565b6040516103b493929190615903565b6103c561056d366004614f84565b61148a565b61040f610580366004615631565b6114a9565b61040f610593366004615119565b6116a9565b6103c5611950565b6103a6611993565b61040f6119fc565b61040f6105be366004615534565b611d00565b6103c56105d13660046153de565b611dbb565b61040f6105e4366004615534565b611ee2565b6103c5611fa1565b6103c56105ff366004615534565b611fa7565b6103ef611fef565b6103c5612050565b6103da612055565b61042461062a36600461519d565b6120e2565b61042461063d36600461519d565b61214a565b61040f610650366004614f84565b61215e565b6103c561226a565b6103c5612270565b6103a6610673366004615082565b612276565b6103c56106863660046153de565b61242e565b6103c5612456565b6104246106a13660046156a7565b61245c565b6103c561248a565b6103c561250b565b61040f6106c4366004615534565b612511565b61040f6106d7366004615534565b6125cc565b6103c56106ea366004615534565b612719565b61040f6106fd366004615534565b612757565b61040f610710366004615631565b612816565b6103c5612b21565b6103c561072b36600461500a565b612b27565b61074361073e366004615534565b612b52565b6040516103b492919061594b565b6103c561075f366004614f84565b612b87565b6103c5610772366004614f84565b612b99565b60006060604254600160fa1b166000141580156107a357506107a161079b87612bab565b85612bdb565b155b156107ca5750506040805180820190915260018152600760fb1b6020820152600090610895565b6001600160a01b03861632148015906107eb57506107e9868585612bea565b155b156108125750506040805180820190915260018152603960f81b6020820152600090610895565b604254600160f91b166108425750506040805180820190915260028152610c4d60f21b6020820152600090610895565b60008511801561085a57506108568661148a565b8511155b6108805750506040805180820190915260018152603160f81b6020820152600090610895565b50506040805160208101909152600081526001905b94509492505050565b60445481565b6060603960019054906101000a90046001600160a01b03166001600160a01b031663d71f05e66040518163ffffffff1660e01b815260040160206040518083038186803b1580156108f457600080fd5b505afa158015610908573d6000803e3d6000fd5b505050506040513d601f19601f8201168201806040525081019061092c9190614fa0565b6001600160a01b031663a64e1e7b60f0604254901c60ff166047546040518363ffffffff1660e01b81526004016109649291906157d3565b60006040518083038186803b15801561097c57600080fd5b505afa158015610990573d6000803e3d6000fd5b505050506040513d6000823e601f3d908101601f191682016040526109b8919081019061546d565b90505b90565b60378054604080516020601f6002600019610100600188161502019095169490940493840181900481028201810190925282815260609390929091830182828015610a4a5780601f10610a1f57610100808354040283529160200191610a4a565b820191906000526020600020905b815481529060010190602001808311610a2d57829003601f168201915b5050505050905090565b603960019054906101000a90046001600160a01b03166001600160a01b031663289b3c0d6040518163ffffffff1660e01b815260040160206040518083038186803b158015610aa257600080fd5b505afa158015610ab6573d6000803e3d6000fd5b505050506040513d601f19601f82011682018060405250810190610ada9190614fa0565b6001600160a01b0316336001600160a01b031614610b135760405162461bcd60e51b8152600401610b0a906159f7565b60405180910390fd5b604455565b6000610b2c610b25612c27565b8484612c2b565b5060015b92915050565b603960019054906101000a90046001600160a01b03166001600160a01b031663289b3c0d6040518163ffffffff1660e01b815260040160206040518083038186803b158015610b8457600080fd5b505afa158015610b98573d6000803e3d6000fd5b505050506040513d601f19601f82011682018060405250810190610bbc9190614fa0565b6001600160a01b0316336001600160a01b031614610bec5760405162461bcd60e51b8152600401610b0a906159f7565b60428054600160ff60f81b031690558015610cb65760428054600160f81b179055603f5415610cb657610ca36048805480602002602001604051908101604052809291908181526020016000905b82821015610c9a576000848152602090819020604080516060810182526002860290920180546001600160a01b03908116845260019182015490811684860152600160a01b900460ff161515918301919091529083529092019101610c3a565b50505050612cdf565b6000603f819055610cb690604890614c10565b6042546040513391600160f81b161515907f3f14e04c219cb203de89f60db463113cc68cf16c00a46ef96a1fce6ca8abb5bb90600090a350565b60365490565b6000610d03848484612cf1565b610d7384610d0f612c27565b610d6e85604051806060016040528060288152602001615f70602891396001600160a01b038a16600090815260356020526040812090610d4d612c27565b6001600160a01b031681526020810191909152604001600020549190612e06565b612c2b565b5060015b9392505050565b603e6020528160005260406000208181548110610d9757fe5b600091825260209091206003909102018054600182015460029092015490935090915083565b6043546001600160a01b031681565b60395461010090046001600160a01b031681565b60455481565b603960019054906101000a90046001600160a01b03166001600160a01b031663e7f43c686040518163ffffffff1660e01b815260040160206040518083038186803b158015610e3457600080fd5b505afa158015610e48573d6000803e3d6000fd5b505050506040513d601f19601f82011682018060405250810190610e6c9190614fa0565b6001600160a01b0316336001600160a01b031614610e9c5760405162461bcd60e51b8152600401610b0a90615b21565b610ec08160405180604001604052806002815260200161313560f01b815250612e32565b50565b60006060604254600160f91b1660001415610efb5750506040805180820190915260028152610c4d60f21b6020820152600090610f10565b50506040805160208101909152600081526001905b9091565b603960019054906101000a90046001600160a01b03166001600160a01b031663054159966040518163ffffffff1660e01b815260040160206040518083038186803b158015610f6257600080fd5b505afa158015610f76573d6000803e3d6000fd5b505050506040513d601f19601f82011682018060405250810190610f9a9190614fa0565b6001600160a01b0316336001600160a01b031614610fca5760405162461bcd60e51b8152600401610b0a90615bd0565b610fd383612e63565b610fdc82612e96565b610fe581612ecb565b505050565b60395460ff1690565b603960019054906101000a90046001600160a01b03166001600160a01b031663289b3c0d6040518163ffffffff1660e01b815260040160206040518083038186803b15801561104157600080fd5b505afa158015611055573d6000803e3d6000fd5b505050506040513d601f19601f820116820180604052508101906110799190614fa0565b6001600160a01b0316336001600160a01b0316146110a95760405162461bcd60e51b8152600401610b0a906159f7565b604280546001607f60f91b031690558061116157603f541561115c5761114960488054806020026020016040519081016040528092919081815260200160009082821015610c9a576000848152602090819020604080516060810182526002860290920180546001600160a01b03908116845260019182015490811684860152600160a01b900460ff161515918301919091529083529092019101610c3a565b6000603f81905561115c90604890614c10565b61116e565b60428054600160f91b1790555b6042546040513391600160f91b161515907fbef546d8099130f7f80a42b7eb7f2aa81c1dd73f07fc569fe30338e102bba27390600090a350565b6000610b2c6111b5612c27565b84610d6e85603560006111c6612c27565b6001600160a01b03908116825260208083019390935260409182016000908120918c168152925290205490612f00565b60006060611202611993565b915091508181906112265760405162461bcd60e51b8152600401610b0a91906159e4565b50603f54156112c5576112c56048805480602002602001604051908101604052809291908181526020016000905b828210156112b4576000848152602090819020604080516060810182526002860290920180546001600160a01b03908116845260019182015490811684860152600160a01b900460ff161515918301919091529083529092019101611254565b505050506112c061248a565b612f25565b5050565b603960019054906101000a90046001600160a01b03166001600160a01b031663054159966040518163ffffffff1660e01b815260040160206040518083038186803b15801561131757600080fd5b505afa15801561132b573d6000803e3d6000fd5b505050506040513d601f19601f8201168201806040525081019061134f9190614fa0565b6001600160a01b0316336001600160a01b03161461137f5760405162461bcd60e51b8152600401610b0a90615bd0565b610ec081612e63565b603960019054906101000a90046001600160a01b03166001600160a01b031663054159966040518163ffffffff1660e01b815260040160206040518083038186803b1580156113d657600080fd5b505afa1580156113ea573d6000803e3d6000fd5b505050506040513d601f19601f8201168201806040525081019061140e9190614fa0565b6001600160a01b0316336001600160a01b03161461143e5760405162461bcd60e51b8152600401610b0a90615bd0565b610ec081612e96565b6048818154811061145457fe5b6000918252602090912060029091020180546001909101546001600160a01b03918216925090811690600160a01b900460ff1683565b6001600160a01b0381166000908152603460205260409020545b919050565b6002603a5414156114cc5760405162461bcd60e51b8152600401610b0a90615dcf565b6002603a55600060606114dd611993565b915091508181906115015760405162461bcd60e51b8152600401610b0a91906159e4565b50505061151461150f612fd2565b613099565b600061151e6132e9565b9050600061152a61248a565b604354909150611545906001600160a01b031633308a6132fe565b600061154f61248a565b9050600061155d8284613356565b9050600061156a82612719565b905060006115788383613356565b90506115fd33600083858e8e80806020026020016040519081016040528093929190818152602001838360200280828437600081840152601f19601f820116905080830192505050505050508d8d8080602002602001604051908101604052809392919081815260200183836020028082843760009201919091525061337e92505050565b336000908152603d60205260409020546116179082612f00565b336000908152603d6020526040902055811561164c5760425460435461164c916001600160a01b039091169060501c846133bf565b85158061165e575061165c610cf0565b155b156116725761166d33826133de565b611697565b611697336116928861168c611685610cf0565b869061349e565b906134d8565b6133de565b50506001603a55505050505050505050565b60006116b361350a565b60015490915060ff16806116ca57506116ca61350f565b806116d6575060005481115b6116f25760405162461bcd60e51b8152600401610b0a90615c11565b60015460ff16158015611711576001805460ff19168117905560008290555b6000855111604051806040016040528060018152602001600d60fa1b8152509061174e5760405162461bcd60e51b8152600401610b0a91906159e4565b506000845111604051806040016040528060018152602001600d60fa1b8152509061178c5760405162461bcd60e51b8152600401610b0a91906159e4565b5060398054610100600160a81b0319166101006001600160a01b038a16021790556117b5614c31565b603954604051639ec39e2f60e01b81526101009091046001600160a01b031690639ec39e2f906117e9908790600401615790565b60006040518083038186803b15801561180157600080fd5b505afa158015611815573d6000803e3d6000fd5b505050506040513d6000823e601f3d908101601f1916820160405261183d919081019061554c565b905061184d848260600151613515565b61185687613566565b61188486826080015160405160200161187092919061583d565b604051602081830303815290604052613756565b6118b2858260a0015160405160200161189e9291906157fd565b604051602081830303815290604052613769565b6043546040805163313ce56760e01b81529051611935926001600160a01b03169163313ce567916004808301926020929190829003018186803b1580156118f857600080fd5b505afa15801561190c573d6000803e3d6000fd5b505050506040513d601f19601f8201168201806040525081019061193091906156f3565b61377c565b508015611947576001805460ff191690555b50505050505050565b600061195a610cf0565b1561198b5761198461196a610cf0565b61168c670de0b6b3a764000061197e6132e9565b9061349e565b90506109bb565b5060006109bb565b60006060604254600160f91b16600014156119cb5750506040805180820190915260028152610c4d60f21b6020820152600090610f10565b604254600160f81b1615610efb575050604080518082019091526002815261313360f01b6020820152600090610f10565b60006060611a08611993565b91509150818190611a2c5760405162461bcd60e51b8152600401610b0a91906159e4565b5060006060611a39610ec3565b91509150818190611a5d5760405162461bcd60e51b8152600401610b0a91906159e4565b50611a6e611a696108a4565b613792565b6000611afe6049805480602002602001604051908101604052809291908181526020016000905b82821015611af5576000848152602090819020604080516060810182526002860290920180546001600160a01b03908116845260019182015490811684860152600160a01b900460ff161515918301919091529083529092019101611a95565b50505050611dbb565b9050603f548114611c4657603f5415611b9557611b9560488054806020026020016040519081016040528092919081815260200160009082821015610c9a576000848152602090819020604080516060810182526002860290920180546001600160a01b03908116845260019182015490811684860152600160a01b900460ff161515918301919091529083529092019101610c3a565b611ba160486000614c10565b60005b604954811015611c3f57604860498281548110611bbd57fe5b6000918252602080832084546001818101875595855291909320600292830290930180549190920290920180546001600160a01b03199081166001600160a01b03948516178255918401805491850180549093169190931617808255915460ff600160a01b918290041615150260ff60a01b1990921691909117905501611ba4565b50603f8190555b6000611c5061248a565b603f5490915015801590611c645750600081115b15611cf857611cf86048805480602002602001604051908101604052809291908181526020016000905b82821015611cee576000848152602090819020604080516060810182526002860290920180546001600160a01b03908116845260019182015490811684860152600160a01b900460ff161515918301919091529083529092019101611c8e565b5050505082612f25565b505050505050565b603960019054906101000a90046001600160a01b03166001600160a01b031663289b3c0d6040518163ffffffff1660e01b815260040160206040518083038186803b158015611d4e57600080fd5b505afa158015611d62573d6000803e3d6000fd5b505050506040513d601f19601f82011682018060405250810190611d869190614fa0565b6001600160a01b0316336001600160a01b031614611db65760405162461bcd60e51b8152600401610b0a906159f7565b604655565b805160009015611eda57606082516001600160401b0381118015611dde57600080fd5b50604051908082528060200260200182016040528015611e08578160200160208202803683370190505b50905060005b8351811015611ea657838181518110611e2357fe5b602002602001015160000151848281518110611e3b57fe5b602002602001015160200151858381518110611e5357fe5b602002602001015160400151604051602001611e719392919061575d565b60405160208183030381529060405280519060200120828281518110611e9357fe5b6020908102919091010152600101611e0e565b5060475481604051602001611ebc929190615799565b604051602081830303815290604052805190602001209150506114a4565b506000919050565b603960019054906101000a90046001600160a01b03166001600160a01b031663054159966040518163ffffffff1660e01b815260040160206040518083038186803b158015611f3057600080fd5b505afa158015611f44573d6000803e3d6000fd5b505050506040513d601f19601f82011682018060405250810190611f689190614fa0565b6001600160a01b0316336001600160a01b031614611f985760405162461bcd60e51b8152600401610b0a90615bd0565b610ec081612ecb565b60405481565b6000610b30611fb4610fea565b60ff16600a0a6020604254901c61ffff1602611fe961271061168c6030604254901c61ffff168761349e90919063ffffffff16565b90612f00565b60388054604080516020601f6002600019610100600188161502019095169490940493840181900481028201810190925282815260609390929091830182828015610a4a5780601f10610a1f57610100808354040283529160200191610a4a565b600381565b60606048805480602002602001604051908101604052809291908181526020016000905b828210156120d9576000848152602090819020604080516060810182526002860290920180546001600160a01b03908116845260019182015490811684860152600160a01b900460ff161515918301919091529083529092019101612079565b50505050905090565b6000610b2c6120ef612c27565b84610d6e85604051806060016040528060258152602001615f986025913960356000612119612c27565b6001600160a01b03908116825260208083019390935260409182016000908120918d16815292529020549190612e06565b6000610b2c612157612c27565b8484612cf1565b603960019054906101000a90046001600160a01b03166001600160a01b031663e7f43c686040518163ffffffff1660e01b815260040160206040518083038186803b1580156121ac57600080fd5b505afa1580156121c0573d6000803e3d6000fd5b505050506040513d601f19601f820116820180604052508101906121e49190614fa0565b6001600160a01b0316336001600160a01b0316146122145760405162461bcd60e51b8152600401610b0a90615b21565b612226816001600160a01b031661382c565b6122425760405162461bcd60e51b8152600401610b0a90615ce5565b603980546001600160a01b0390921661010002610100600160a81b0319909216919091179055565b603f5481565b60415481565b60006060604254600160fa1b1660001415801561229c575061229a61079b89612bab565b155b156122c35750506040805180820190915260018152600760fb1b6020820152600090612423565b6001600160a01b03881632148015906122e457506122e2888585612bea565b155b1561230b5750506040805180820190915260018152603960f81b6020820152600090612423565b604154861015612338575050604080518082019091526002815261031360f41b6020820152600090612423565b60006123426132e9565b90508715801561235c575060455461235a8288613356565b115b15612385575050604080518082019091526002815261313160f01b602082015260009150612423565b6045546123928289612f00565b11156123bc575050604080518082019091526002815261313160f01b602082015260009150612423565b604080546001600160a01b038b166000908152603d60205291909120546123e39089612f00565b111561240d575050604080518082019091526002815261189960f11b602082015260009150612423565b5050604080516020810190915260008152600191505b965096945050505050565b603954604354600091610b309184916001600160a01b03610100909104811691309116613832565b60465481565b60006040604254901c61ffff166124828361168c6127108761349e90919063ffffffff16565b109392505050565b6043546040516370a0823160e01b81526000916001600160a01b0316906370a08231906124bb903090600401615888565b60206040518083038186803b1580156124d357600080fd5b505afa1580156124e7573d6000803e3d6000fd5b505050506040513d601f19601f820116820180604052508101906109b89190615619565b60475481565b603960019054906101000a90046001600160a01b03166001600160a01b031663289b3c0d6040518163ffffffff1660e01b815260040160206040518083038186803b15801561255f57600080fd5b505afa158015612573573d6000803e3d6000fd5b505050506040513d601f19601f820116820180604052508101906125979190614fa0565b6001600160a01b0316336001600160a01b0316146125c75760405162461bcd60e51b8152600401610b0a906159f7565b604255565b603960019054906101000a90046001600160a01b03166001600160a01b031663289b3c0d6040518163ffffffff1660e01b815260040160206040518083038186803b15801561261a57600080fd5b505afa15801561262e573d6000803e3d6000fd5b505050506040513d601f19601f820116820180604052508101906126529190614fa0565b6001600160a01b0316336001600160a01b0316146126825760405162461bcd60e51b8152600401610b0a906159f7565b603954604051639ec39e2f60e01b8152610ec09183916101009091046001600160a01b031690639ec39e2f906126bc908490600401615790565b60006040518083038186803b1580156126d457600080fd5b505afa1580156126e8573d6000803e3d6000fd5b505050506040513d6000823e601f3d908101601f19168201604052612710919081019061554c565b60600151613515565b6000610b30612726610fea565b60ff16600a0a60425461ffff1602611fe961271061168c6010604254901c61ffff168761349e90919063ffffffff16565b603960019054906101000a90046001600160a01b03166001600160a01b031663e7f43c686040518163ffffffff1660e01b815260040160206040518083038186803b1580156127a557600080fd5b505afa1580156127b9573d6000803e3d6000fd5b505050506040513d601f19601f820116820180604052508101906127dd9190614fa0565b6001600160a01b0316336001600160a01b03161461280d5760405162461bcd60e51b8152600401610b0a90615b21565b610ec081613566565b6002603a5414156128395760405162461bcd60e51b8152600401610b0a90615dcf565b6002603a556000606061284a610ec3565b9150915081819061286e5760405162461bcd60e51b8152600401610b0a91906159e4565b50505061287c61150f612fd2565b6128eb338686868080602002602001604051908101604052809392919081815260200183836020028082843760009201919091525050604080516020808a02828101820190935289825290935089925088918291850190849080828437600092019190915250613a6292505050565b600061290a6128f8610cf0565b61168c6129036132e9565b899061349e565b90506129163387613a96565b600061292061248a565b905081811015612abf5760006129368383613356565b60395460435460488054604080516020808402820181019092528281529596506000956129f0956001600160a01b03610100909104811695169388939192909190889084015b828210156129dc576000848152602090819020604080516060810182526002860290920180546001600160a01b03908116845260019182015490811684860152600160a01b900460ff16151591830191909152908352909201910161297c565b50505050613b6c909392919063ffffffff16565b9050612a816048805480602002602001604051908101604052809291908181526020016000905b82821015612a77576000848152602090819020604080516060810182526002860290920180546001600160a01b03908116845260019182015490811684860152600160a01b900460ff161515918301919091529083529092019101612a17565b5050505082613ce4565b6000612a8b61248a565b90506000612a998286613356565b905083811015612aba57612ab7612ab08583613356565b8790613356565b95505b505050505b6000612aca83611fa7565b90508015612af157604254604354612af1916001600160a01b039091169060501c836133bf565b612b1233612aff8584613356565b6043546001600160a01b031691906133bf565b50506001603a55505050505050565b60425481565b6001600160a01b03918216600090815260356020908152604080832093909416825291909152205490565b603b8181548110612b5f57fe5b6000918252602090912060029091020180546001909101546001600160a01b03909116915082565b603d6020526000908152604090205481565b603c6020526000908152604090205481565b600081604051602001612bbe9190615740565b604051602081830303815290604052805190602001209050919050565b6000610d778260445485613d71565b6000612bfe612bf885612bab565b84612bdb565b8015612c1f5750612c1f612c19612c1486613e0e565b613e12565b83613e25565b949350505050565b3390565b6001600160a01b038316612c515760405162461bcd60e51b8152600401610b0a90615d0a565b6001600160a01b038216612c775760405162461bcd60e51b8152600401610b0a90615a71565b6001600160a01b0380841660008181526035602090815260408083209487168084529490915290819020849055517f8c5be1e5ebec7d5bd14f71427d1e84f3dd0314c0f7b2291e5b200ac8c7c3b92590612cd2908590615790565b60405180910390a3505050565b610ec081612cec8361242e565b613ce4565b6001600160a01b038316612d175760405162461bcd60e51b8152600401610b0a90615ca0565b6001600160a01b038216612d3d5760405162461bcd60e51b8152600401610b0a90615a2e565b612d48838383613e34565b612d8581604051806060016040528060268152602001615f4a602691396001600160a01b0386166000908152603460205260409020549190612e06565b6001600160a01b038085166000908152603460205260408082209390935590841681522054612db49082612f00565b6001600160a01b0380841660008181526034602052604090819020939093559151908516907fddf252ad1be2c89b69c2b068fc378daa952ba7f163c4a11628f55a4df523b3ef90612cd2908590615790565b60008184841115612e2a5760405162461bcd60e51b8152600401610b0a91906159e4565b505050900390565b60005b8251811015610fe557612e5b838281518110612e4d57fe5b602002602001015183613e77565b600101612e35565b604081815551339082907f70c87424f133fbd8c8e63b0dc9c2d2702db0a79d7d4139b25a5035f250b9f73890600090a350565b6041819055604051339082907f7af95a1df120276e178a852832ba64d58429b2b5986955c772448d80c08ef39290600090a350565b6045819055604051339082907fae4cf6e16f407af30e4a8e158871dd4eb7d4ad22f2438ccc43c5855fcd6ebbee90600090a350565b600082820183811015610d775760405162461bcd60e51b8152600401610b0a90615ab3565b603954600090612f4490849061010090046001600160a01b0316613f13565b905060005b81811015612fcc576040805160c0810182526039546001600160a01b03610100909104811682523060208301526043541691810191909152606081018490526080810182905260a08101839052612fc490612fa5908690614045565b604051806040016040528060018152602001601960f91b815250612e32565b600101612f49565b50505050565b603f54600090612fe35760006109b8565b60395460435460488054604080516020808402820181019092528281526109b8956001600160a01b036101009091048116953095911693919290919060009084015b82821015613085576000848152602090819020604080516060810182526002860290920180546001600160a01b03908116845260019182015490811684860152600160a01b900460ff161515918301919091529083529092019101613025565b5050505061442c909392919063ffffffff16565b436000908152603e6020526040902054801561329357436000818152603e6020818152604080842081516060810190925287825294909352908152825490820190839060001986019081106130ea57fe5b906000526020600020906003020160010154851061313857436000908152603e602052604090208054600019860190811061312157fe5b90600052602060002090600302016001015461313a565b845b8152602001603e6000438152602001908152602001600020600185038154811061316057fe5b90600052602060002090600302016002015485116131ae57436000908152603e602052604090208054600019860190811061319757fe5b9060005260206000209060030201600201546131b0565b845b90528154600181810184556000938452602080852084516003909402019283558084015191830191909155604092830151600290920191909155438352603e9052902080546132549161324e918490811061320757fe5b906000526020600020906003020160010154603e6000438152602001908152602001600020848154811061323757fe5b906000526020600020906003020160020154614742565b8361245c565b60405180604001604052806002815260200161189b60f11b8152509061328d5760405162461bcd60e51b8152600401610b0a91906159e4565b506112c5565b436000908152603e60209081526040808320815160608101835286815280840187815292810187815282546001818101855593875294909520905160039094020192835590519082015590516002909101555050565b60006109b86132f661248a565b611fe9612fd2565b612fcc846323b872dd60e01b85858560405160240161331f93929190615927565b60408051601f198184030181529190526020810180516001600160e01b03166001600160e01b031990931692909217909152614764565b6000828211156133785760405162461bcd60e51b8152600401610b0a90615aea565b50900390565b60006060613390888888888888612276565b915091508181906133b45760405162461bcd60e51b8152600401610b0a91906159e4565b505050505050505050565b610fe58363a9059cbb60e01b848460405160240161331f92919061594b565b6001600160a01b0382166134045760405162461bcd60e51b8152600401610b0a90615e06565b61341060008383613e34565b60365461341d9082612f00565b6036556001600160a01b0382166000908152603460205260409020546134439082612f00565b6001600160a01b0383166000818152603460205260408082209390935591519091907fddf252ad1be2c89b69c2b068fc378daa952ba7f163c4a11628f55a4df523b3ef90613492908590615790565b60405180910390a35050565b6000826134ad57506000610b30565b828202828482816134ba57fe5b0414610d775760405162461bcd60e51b8152600401610b0a90615b8f565b60008082116134f95760405162461bcd60e51b8152600401610b0a90615b58565b81838161350257fe5b049392505050565b600390565b303b1590565b6040805180820190915260018152603560f81b60208201528161354b5760405162461bcd60e51b8152600401610b0a91906159e4565b5060425460ff60f01b191660f083901b176042819055505050565b603954604051638346525f60e01b815260609161010090046001600160a01b031690638346525f9061359c908590600401615790565b60006040518083038186803b1580156135b457600080fd5b505afa1580156135c8573d6000803e3d6000fd5b505050506040513d6000823e601f3d908101601f191682016040526135f09190810190615244565b9050805160011460405180604001604052806002815260200161313760f01b815250906136305760405162461bcd60e51b8152600401610b0a91906159e4565b50603960019054906101000a90046001600160a01b03166001600160a01b0316632d5ad3d58260008151811061366257fe5b60200260200101516040518263ffffffff1660e01b81526004016136869190615888565b60206040518083038186803b15801561369e57600080fd5b505afa1580156136b2573d6000803e3d6000fd5b505050506040513d601f19601f820116820180604052508101906136d69190615518565b60405180604001604052806002815260200161313960f01b8152509061370f5760405162461bcd60e51b8152600401610b0a91906159e4565b50816047819055508060008151811061372457fe5b6020026020010151604360006101000a8154816001600160a01b0302191690836001600160a01b031602179055505050565b80516112c5906037906020840190614c69565b80516112c5906038906020840190614c69565b6039805460ff191660ff92909216919091179055565b61379e60496000614c10565b60005b81518110156112c55760498282815181106137b857fe5b602090810291909101810151825460018082018555600094855293839020825160029092020180546001600160a01b03199081166001600160a01b039384161782559383015190850180546040909401519390941691161760ff60a01b1916600160a01b91151591909102179055016137a1565b3b151590565b6000808560018751038151811061384557fe5b60200260200101516000015190506000856001600160a01b031663923bb7ff836040518263ffffffff1660e01b81526004016138819190615888565b60206040518083038186803b15801561389957600080fd5b505afa1580156138ad573d6000803e3d6000fd5b505050506040513d601f19601f820116820180604052508101906138d19190614fa0565b6040516336d8bf9360e01b81529091506001600160a01b038216906336d8bf9390613900908590600401615888565b60206040518083038186803b15801561391857600080fd5b505afa15801561392c573d6000803e3d6000fd5b505050506040513d601f19601f820116820180604052508101906139509190615518565b6139d9576040516390e6160560e01b81526001600160a01b038216906390e6160590613984908890889087906004016158b6565b60206040518083038186803b15801561399c57600080fd5b505afa1580156139b0573d6000803e3d6000fd5b505050506040513d601f19601f820116820180604052508101906139d49190615619565b613a57565b60405163afd908d960e01b81526001600160a01b0382169063afd908d990613a07908890869060040161589c565b60206040518083038186803b158015613a1f57600080fd5b505afa158015613a33573d6000803e3d6000fd5b505050506040513d601f19601f82011682018060405250810190613a579190615619565b979650505050505050565b60006060613a7286868686610777565b915091508181906119475760405162461bcd60e51b8152600401610b0a91906159e4565b6001600160a01b038216613abc5760405162461bcd60e51b8152600401610b0a90615c5f565b613ac882600083613e34565b613b0581604051806060016040528060228152602001615f28602291396001600160a01b0385166000908152603460205260409020549190612e06565b6001600160a01b038316600090815260346020526040902055603654613b2b9082613356565b6036556040516000906001600160a01b038416907fddf252ad1be2c89b69c2b068fc378daa952ba7f163c4a11628f55a4df523b3ef90613492908590615790565b8351600090815b81811015613cda576000878281518110613b8957fe5b60200260200101516000015190506000876001600160a01b031663923bb7ff836040518263ffffffff1660e01b8152600401613bc59190615888565b60206040518083038186803b158015613bdd57600080fd5b505afa158015613bf1573d6000803e3d6000fd5b505050506040513d601f19601f82011682018060405250810190613c159190614fa0565b9050868315613c3c57896001850381518110613c2d57fe5b60200260200101516020015190505b6001600160a01b0382166385541e4482858715613c595789613c5b565b8a5b6040518463ffffffff1660e01b8152600401613c7993929190615927565b60206040518083038186803b158015613c9157600080fd5b505afa158015613ca5573d6000803e3d6000fd5b505050506040513d601f19601f82011682018060405250810190613cc99190615619565b95505060019092019150613b739050565b5050949350505050565b815160005b81811015612fcc576040805160c0810182526039546001600160a01b036101009091048116825230602083015260435416918101919091526060810184905281830360001901608082015260a08101839052613d6990613d4a9086906147f3565b604051806040016040528060018152602001603360f81b815250612e32565b600101613ce9565b600081815b8551811015613e03576000868281518110613d8d57fe5b60200260200101519050808311613dce578281604051602001613db19291906157d3565b604051602081830303815290604052805190602001209250613dfa565b8083604051602001613de19291906157d3565b6040516020818303038152906040528051906020012092505b50600101613d76565b509092149392505050565b3f90565b600081604051602001612bbe9190615790565b6000610d778260465485613d71565b604080518082019091526002815261062760f31b60208201526001600160a01b038316301415612fcc5760405162461bcd60e51b8152600401610b0a91906159e4565b6000606083806020019051810190613e8f9190614fbc565b915091506000826001600160a01b031682604051613ead91906157e1565b6000604051808303816000865af19150503d8060008114613eea576040519150601f19603f3d011682016040523d82523d6000602084013e613eef565b606091505b50509050808490611cf85760405162461bcd60e51b8152600401610b0a91906159e4565b815160009081846000198301838110613f2857fe5b6020026020010151600001519050836001600160a01b031663923bb7ff826040518263ffffffff1660e01b8152600401613f629190615888565b60206040518083038186803b158015613f7a57600080fd5b505afa158015613f8e573d6000803e3d6000fd5b505050506040513d601f19601f82011682018060405250810190613fb29190614fa0565b6001600160a01b03166336d8bf93826040518263ffffffff1660e01b8152600401613fdd9190615888565b60206040518083038186803b158015613ff557600080fd5b505afa158015614009573d6000803e3d6000fd5b505050506040513d601f19601f8201168201806040525081019061402d9190615518565b1561403d57506001019050610b30565b509392505050565b8051604082015160608381015185516080860151929493928114156142435760008760018860800151038151811061407957fe5b60200260200101516000015190506000856001600160a01b031663923bb7ff836040518263ffffffff1660e01b81526004016140b59190615888565b60206040518083038186803b1580156140cd57600080fd5b505afa1580156140e1573d6000803e3d6000fd5b505050506040513d601f19601f820116820180604052508101906141059190614fa0565b90508860018960800151038151811061411a57fe5b602002602001015160200151945087604001516001600160a01b03166370a0823189602001516040518263ffffffff1660e01b815260040161415c9190615888565b60206040518083038186803b15801561417457600080fd5b505afa158015614188573d6000803e3d6000fd5b505050506040513d601f19601f820116820180604052508101906141ac9190615619565b9350806001600160a01b03166374df3b2f89602001518a60400151856040518463ffffffff1660e01b81526004016141e6939291906158b6565b60006040518083038186803b1580156141fe57600080fd5b505afa158015614212573d6000803e3d6000fd5b505050506040513d6000823e601f3d908101601f1916820160405261423a9190810190615364565b96505050614422565b60008787608001518151811061425557fe5b60200260200101516000015190506000856001600160a01b031663923bb7ff836040518263ffffffff1660e01b81526004016142919190615888565b60206040518083038186803b1580156142a957600080fd5b505afa1580156142bd573d6000803e3d6000fd5b505050506040513d601f19601f820116820180604052508101906142e19190614fa0565b90508760800151600014614393578860018960800151038151811061430257fe5b6020026020010151602001519450846001600160a01b03166370a0823189602001516040518263ffffffff1660e01b81526004016143409190615888565b60206040518083038186803b15801561435857600080fd5b505afa15801561436c573d6000803e3d6000fd5b505050506040513d601f19601f820116820180604052508101906143909190615619565b93505b6020880151604051636fc9ab9160e11b81526001600160a01b0383169163df935722916143c99190899087908a906004016158d9565b60006040518083038186803b1580156143e157600080fd5b505afa1580156143f5573d6000803e3d6000fd5b505050506040513d6000823e601f3d908101601f1916820160405261441d9190810190615364565b965050505b5050505092915050565b835160009081805b828110156147375760008160018503039050600089828151811061445457fe5b60200260200101516000015190506000896001600160a01b031663923bb7ff836040518263ffffffff1660e01b81526004016144909190615888565b60206040518083038186803b1580156144a857600080fd5b505afa1580156144bc573d6000803e3d6000fd5b505050506040513d601f19601f820116820180604052508101906144e09190614fa0565b9050878315614507578b60018503815181106144f857fe5b60200260200101516020015190505b600187038414156146a1576040516336d8bf9360e01b81526001600160a01b038316906336d8bf939061453e908690600401615888565b60206040518083038186803b15801561455657600080fd5b505afa15801561456a573d6000803e3d6000fd5b505050506040513d601f19601f8201168201806040525081019061458e9190615518565b1561461a57604051632627a09960e01b81526001600160a01b03831690632627a099906145c3908d90859088906004016158b6565b60206040518083038186803b1580156145db57600080fd5b505afa1580156145ef573d6000803e3d6000fd5b505050506040513d601f19601f820116820180604052508101906146139190615619565b975061469c565b60405162c9babf60e71b81526001600160a01b038316906364dd5f8090614649908d90859088906004016158b6565b60206040518083038186803b15801561466157600080fd5b505afa158015614675573d6000803e3d6000fd5b505050506040513d601f19601f820116820180604052508101906146999190615619565b97505b614724565b60405163ee665bed60e01b81526001600160a01b0383169063ee665bed906146d190849087908b90600401615927565b60206040518083038186803b1580156146e957600080fd5b505afa1580156146fd573d6000803e3d6000fd5b505050506040513d601f19601f820116820180604052508101906147219190615619565b97505b5086945050600190920191506144349050565b505050949350505050565b600081831161475a576147558284613356565b610d77565b610d778383613356565b60606147b9826040518060400160405280602081526020017f5361666545524332303a206c6f772d6c6576656c2063616c6c206661696c6564815250856001600160a01b0316614b3d9092919063ffffffff16565b805190915015610fe557808060200190518101906147d79190615518565b610fe55760405162461bcd60e51b8152600401610b0a90615d85565b606060008383608001518151811061480757fe5b602090810291909101015151835160405163923bb7ff60e01b8152919250906000906001600160a01b0383169063923bb7ff90614848908690600401615888565b60206040518083038186803b15801561486057600080fd5b505afa158015614874573d6000803e3d6000fd5b505050506040513d601f19601f820116820180604052508101906148989190614fa0565b6040860151606087015160808801519293509091156148d357876001886080015103815181106148c457fe5b60200260200101516020015191505b60018760a001510387608001511461498357878760800151815181106148f557fe5b6020026020010151602001516001600160a01b03166370a0823188602001516040518263ffffffff1660e01b81526004016149309190615888565b60206040518083038186803b15801561494857600080fd5b505afa15801561495c573d6000803e3d6000fd5b505050506040513d601f19601f820116820180604052508101906149809190615619565b90505b60018760a00151038760800151148015614a1457506040516336d8bf9360e01b81526001600160a01b038416906336d8bf93906149c4908890600401615888565b60206040518083038186803b1580156149dc57600080fd5b505afa1580156149f0573d6000803e3d6000fd5b505050506040513d601f19601f82011682018060405250810190614a149190615518565b614aa7576020870151604051636092577960e01b81526001600160a01b03851691636092577991614a4e919086908a9087906004016158d9565b60006040518083038186803b158015614a6657600080fd5b505afa158015614a7a573d6000803e3d6000fd5b505050506040513d6000823e601f3d908101601f19168201604052614aa29190810190615364565b614b31565b6020870151604051631496678160e11b81526001600160a01b0385169163292ccf0291614add919086908a9087906004016158d9565b60006040518083038186803b158015614af557600080fd5b505afa158015614b09573d6000803e3d6000fd5b505050506040513d6000823e601f3d908101601f19168201604052614b319190810190615364565b98975050505050505050565b6060612c1f848460008585614b518561382c565b614b6d5760405162461bcd60e51b8152600401610b0a90615d4e565b60006060866001600160a01b03168587604051614b8a91906157e1565b60006040518083038185875af1925050503d8060008114614bc7576040519150601f19603f3d011682016040523d82523d6000602084013e614bcc565b606091505b5091509150613a5782828660608315614be6575081610d77565b825115614bf65782518084602001fd5b8160405162461bcd60e51b8152600401610b0a91906159e4565b5080546000825560020290600052602060002090810190610ec09190614ce7565b6040805160c08101825260008082526020820152908101614c50614d18565b8152600060208201526060604082018190529081015290565b828054600181600116156101000203166002900490600052602060002090601f016020900481019282601f10614caa57805160ff1916838001178555614cd7565b82800160010185558215614cd7579182015b82811115614cd7578251825591602001919060010190614cbc565b50614ce3929150614d2f565b5090565b5b80821115614ce35780546001600160a01b03191681556001810180546001600160a81b0319169055600201614ce8565b604080518082019091526000808252602082015290565b5b80821115614ce35760008155600101614d30565b60008083601f840112614d55578182fd5b5081356001600160401b03811115614d6b578182fd5b6020830191508360208083028501011115614d8557600080fd5b9250929050565b600082601f830112614d9c578081fd5b8135614daf614daa82615e87565b615e61565b818152915060208083019084810181840286018201871015614dd057600080fd5b60005b84811015614def57813584529282019290820190600101614dd3565b505050505092915050565b8051610b3081615f0a565b600082601f830112614e15578081fd5b8135614e23614daa82615ea6565b9150808252836020828501011115614e3a57600080fd5b8060208401602084013760009082016020015292915050565b600082601f830112614e63578081fd5b8151614e71614daa82615ea6565b9150808252836020828501011115614e8857600080fd5b614e99816020840160208601615ec9565b5092915050565b600060408284031215614eb1578081fd5b614ebb6040615e61565b90508151614ec881615f18565b81526020820151614ed881615f18565b602082015292915050565b600060608284031215614ef4578081fd5b614efe6060615e61565b90508135614f0b81615ef5565b81526020820135614f1b81615ef5565b60208201526040820135614f2e81615f0a565b604082015292915050565b600060608284031215614f4a578081fd5b614f546060615e61565b90508151614f6181615ef5565b81526020820151614f7181615ef5565b60208201526040820151614f2e81615f0a565b600060208284031215614f95578081fd5b8135610d7781615ef5565b600060208284031215614fb1578081fd5b8151610d7781615ef5565b60008060408385031215614fce578081fd5b8251614fd981615ef5565b60208401519092506001600160401b03811115614ff4578182fd5b61500085828601614e53565b9150509250929050565b6000806040838503121561501c578182fd5b823561502781615ef5565b9150602083013561503781615ef5565b809150509250929050565b600080600060608486031215615056578081fd5b833561506181615ef5565b9250602084013561507181615ef5565b929592945050506040919091013590565b60008060008060008060c0878903121561509a578384fd5b86356150a581615ef5565b955060208701356150b581615f0a565b9450604087013593506060870135925060808701356001600160401b03808211156150de578384fd5b6150ea8a838b01614d8c565b935060a08901359150808211156150ff578283fd5b5061510c89828a01614d8c565b9150509295509295509295565b600080600080600060a08688031215615130578283fd5b853561513b81615ef5565b94506020860135935060408601356001600160401b038082111561515d578485fd5b61516989838a01614e05565b9450606088013591508082111561517e578283fd5b5061518b88828901614e05565b95989497509295608001359392505050565b600080604083850312156151af578182fd5b82356151ba81615ef5565b946020939093013593505050565b600080600080608085870312156151dd578182fd5b84356151e881615ef5565b93506020850135925060408501356001600160401b038082111561520a578384fd5b61521688838901614d8c565b9350606087013591508082111561522b578283fd5b5061523887828801614d8c565b91505092959194509250565b60006020808385031215615256578182fd5b82516001600160401b0381111561526b578283fd5b8301601f8101851361527b578283fd5b8051615289614daa82615e87565b81815283810190838501858402850186018910156152a5578687fd5b8694505b838510156152d05780516152bc81615ef5565b8352600194909401939185019185016152a9565b50979650505050505050565b600060208083850312156152ee578182fd5b82356001600160401b03811115615303578283fd5b8301601f81018513615313578283fd5b8035615321614daa82615e87565b81815283810190838501865b84811015615356576153448a888435890101614e05565b8452928601929086019060010161532d565b509098975050505050505050565b60006020808385031215615376578182fd5b82516001600160401b0381111561538b578283fd5b8301601f8101851361539b578283fd5b80516153a9614daa82615e87565b81815283810190838501865b84811015615356576153cc8a888451890101614e53565b845292860192908601906001016153b5565b600060208083850312156153f0578182fd5b82356001600160401b03811115615405578283fd5b8301601f81018513615415578283fd5b8035615423614daa82615e87565b818152838101908385016060808502860187018a1015615441578788fd5b8795505b84861015615356576154578a83614ee3565b8452600195909501949286019290810190615445565b6000602080838503121561547f578182fd5b82516001600160401b03811115615494578283fd5b8301601f810185136154a4578283fd5b80516154b2614daa82615e87565b818152838101908385016060808502860187018a10156154d0578788fd5b8795505b84861015615356576154e68a83614f39565b84526001959095019492860192908101906154d4565b60006020828403121561550d578081fd5b8135610d7781615f0a565b600060208284031215615529578081fd5b8151610d7781615f0a565b600060208284031215615545578081fd5b5035919050565b60006020828403121561555d578081fd5b81516001600160401b0380821115615573578283fd5b9083019060e08286031215615586578283fd5b61559060c0615e61565b825181526155a18660208501614dfa565b60208201526155b38660408501614ea0565b60408201526155c58660808501614dfa565b606082015260a0830151828111156155db578485fd5b6155e787828601614e53565b60808301525060c0830151828111156155fe578485fd5b61560a87828601614e53565b60a08301525095945050505050565b60006020828403121561562a578081fd5b5051919050565b600080600080600060608688031215615648578283fd5b8535945060208601356001600160401b0380821115615665578485fd5b61567189838a01614d44565b90965094506040880135915080821115615689578283fd5b5061569688828901614d44565b969995985093965092949392505050565b600080604083850312156156b9578182fd5b50508035926020909101359150565b6000806000606084860312156156dc578081fd5b505081359360208301359350604090920135919050565b600060208284031215615704578081fd5b815160ff81168114610d77578182fd5b6000815180845261572c816020860160208601615ec9565b601f01601f19169290920160200192915050565b60609190911b6bffffffffffffffffffffffff1916815260140190565b6bffffffffffffffffffffffff19606094851b811682529290931b9091166014830152151560f81b602882015260290190565b90815260200190565b600083825260208083018451828601845b828110156157c6578151845292840192908401906001016157aa565b5091979650505050505050565b918252602082015260400190565b600082516157f3818460208701615ec9565b9190910192915050565b60006106f760f41b8252835161581a816002850160208801615ec9565b835190830190615831816002840160208801615ec9565b01600201949350505050565b600062037b8160ed1b8252835161585b816003850160208801615ec9565b600160fd1b600391840191820152835161587c816004840160208801615ec9565b01600401949350505050565b6001600160a01b0391909116815260200190565b6001600160a01b0392831681529116602082015260400190565b6001600160a01b0393841681529183166020830152909116604082015260600190565b6001600160a01b039485168152928416602084015292166040820152606081019190915260800190565b6001600160a01b039384168152919092166020820152901515604082015260600190565b6001600160a01b039384168152919092166020820152604081019190915260600190565b6001600160a01b03929092168252602082015260400190565b602080825282518282018190526000919060409081850190868401855b828110156157c657815180516001600160a01b03908116865287820151168786015285015115158585015260609093019290850190600101615981565b901515815260200190565b6000831515825260406020830152612c1f6040830184615714565b600060208252610d776020830184615714565b6020808252601f908201527f63616c6c6572206973206e6f7420686176696e6720676f7665726e616e636500604082015260600190565b60208082526023908201527f45524332303a207472616e7366657220746f20746865207a65726f206164647260408201526265737360e81b606082015260800190565b60208082526022908201527f45524332303a20617070726f766520746f20746865207a65726f206164647265604082015261737360f01b606082015260800190565b6020808252601b908201527f536166654d6174683a206164646974696f6e206f766572666c6f770000000000604082015260600190565b6020808252601e908201527f536166654d6174683a207375627472616374696f6e206f766572666c6f770000604082015260600190565b6020808252601a908201527f63616c6c6572206973206e6f7420746865206f70657261746f72000000000000604082015260600190565b6020808252601a908201527f536166654d6174683a206469766973696f6e206279207a65726f000000000000604082015260600190565b60208082526021908201527f536166654d6174683a206d756c7469706c69636174696f6e206f766572666c6f6040820152607760f81b606082015260800190565b60208082526021908201527f63616c6c6572206973206e6f74207468652066696e616e63654f70657261746f6040820152603960f91b606082015260800190565b6020808252602e908201527f436f6e747261637420696e7374616e63652068617320616c726561647920626560408201526d195b881a5b9a5d1a585b1a5e995960921b606082015260800190565b60208082526021908201527f45524332303a206275726e2066726f6d20746865207a65726f206164647265736040820152607360f81b606082015260800190565b60208082526025908201527f45524332303a207472616e736665722066726f6d20746865207a65726f206164604082015264647265737360d81b606082015260800190565b6020808252600b908201526a085a5cd0dbdb9d1c9858dd60aa1b604082015260600190565b60208082526024908201527f45524332303a20617070726f76652066726f6d20746865207a65726f206164646040820152637265737360e01b606082015260800190565b6020808252601d908201527f416464726573733a2063616c6c20746f206e6f6e2d636f6e7472616374000000604082015260600190565b6020808252602a908201527f5361666545524332303a204552433230206f7065726174696f6e20646964206e6040820152691bdd081cdd58d8d9595960b21b606082015260800190565b6020808252601f908201527f5265656e7472616e637947756172643a207265656e7472616e742063616c6c00604082015260600190565b6020808252601f908201527f45524332303a206d696e7420746f20746865207a65726f206164647265737300604082015260600190565b9283526020830191909152604082015260600190565b60ff91909116815260200190565b6040518181016001600160401b0381118282101715615e7f57600080fd5b604052919050565b60006001600160401b03821115615e9c578081fd5b5060209081020190565b60006001600160401b03821115615ebb578081fd5b50601f01601f191660200190565b60005b83811015615ee4578181015183820152602001615ecc565b83811115612fcc5750506000910152565b6001600160a01b0381168114610ec057600080fd5b8015158114610ec057600080fd5b60ff81168114610ec057600080fdfe45524332303a206275726e20616d6f756e7420657863656564732062616c616e636545524332303a207472616e7366657220616d6f756e7420657863656564732062616c616e636545524332303a207472616e7366657220616d6f756e74206578636565647320616c6c6f77616e636545524332303a2064656372656173656420616c6c6f77616e63652062656c6f77207a65726fa164736f6c634300060c000a"
}