{
  "address": "0xf34bf99d10AA7993D43588D6dD916dFB3ff33123",
  "abi": [
    {
      "inputs": [
        {
          "internalType": "uint256",
          "name": "_defaultChainlinkTimeAllowance",
          "type": "uint256"
        },
        {
          "internalType": "uint256",
          "name": "_defaultOptyFiTimeAllowance",
          "type": "uint256"
        }
      ],
      "stateMutability": "nonpayable",
      "type": "constructor"
    },
    {
      "anonymous": false,
      "inputs": [
        {
          "indexed": true,
          "internalType": "address",
          "name": "previousOwner",
          "type": "address"
        },
        {
          "indexed": true,
          "internalType": "address",
          "name": "newOwner",
          "type": "address"
        }
      ],
      "name": "OwnershipTransferred",
      "type": "event"
    },
    {
      "inputs": [],
      "name": "USD",
      "outputs": [
        {
          "internalType": "address",
          "name": "",
          "type": "address"
        }
      ],
      "stateMutability": "view",
      "type": "function"
    },
    {
      "inputs": [
        {
          "internalType": "address",
          "name": "",
          "type": "address"
        },
        {
          "internalType": "address",
          "name": "",
          "type": "address"
        }
      ],
      "name": "chainlinkPriceFeed",
      "outputs": [
        {
          "internalType": "address",
          "name": "",
          "type": "address"
        }
      ],
      "stateMutability": "view",
      "type": "function"
    },
    {
      "inputs": [
        {
          "internalType": "address",
          "name": "",
          "type": "address"
        },
        {
          "internalType": "address",
          "name": "",
          "type": "address"
        }
      ],
      "name": "chainlinkTimeAllowance",
      "outputs": [
        {
          "internalType": "uint256",
          "name": "",
          "type": "uint256"
        }
      ],
      "stateMutability": "view",
      "type": "function"
    },
    {
      "inputs": [],
      "name": "defaultChainlinkTimeAllowance",
      "outputs": [
        {
          "internalType": "uint256",
          "name": "",
          "type": "uint256"
        }
      ],
      "stateMutability": "view",
      "type": "function"
    },
    {
      "inputs": [],
      "name": "defaultMainOracle",
      "outputs": [
        {
          "internalType": "enum OptyFiOracleDataTypes.MainOracle",
          "name": "",
          "type": "uint8"
        }
      ],
      "stateMutability": "view",
      "type": "function"
    },
    {
      "inputs": [],
      "name": "defaultMode",
      "outputs": [
        {
          "internalType": "bool",
          "name": "",
          "type": "bool"
        }
      ],
      "stateMutability": "view",
      "type": "function"
    },
    {
      "inputs": [],
      "name": "defaultOptyFiTimeAllowance",
      "outputs": [
        {
          "internalType": "uint256",
          "name": "",
          "type": "uint256"
        }
      ],
      "stateMutability": "view",
      "type": "function"
    },
    {
      "inputs": [
        {
          "internalType": "address",
          "name": "_tokenA",
          "type": "address"
        },
        {
          "internalType": "address",
          "name": "_tokenB",
          "type": "address"
        }
      ],
      "name": "getTokenPrice",
      "outputs": [
        {
          "internalType": "uint256",
          "name": "_price",
          "type": "uint256"
        }
      ],
      "stateMutability": "view",
      "type": "function"
    },
    {
      "inputs": [
        {
          "internalType": "address",
          "name": "",
          "type": "address"
        },
        {
          "internalType": "address",
          "name": "",
          "type": "address"
        }
      ],
      "name": "optyFiTimeAllowance",
      "outputs": [
        {
          "internalType": "uint256",
          "name": "",
          "type": "uint256"
        }
      ],
      "stateMutability": "view",
      "type": "function"
    },
    {
      "inputs": [
        {
          "internalType": "address",
          "name": "",
          "type": "address"
        },
        {
          "internalType": "address",
          "name": "",
          "type": "address"
        }
      ],
      "name": "optyFiTokenAToTokenBToLatestTimestamp",
      "outputs": [
        {
          "internalType": "uint256",
          "name": "",
          "type": "uint256"
        }
      ],
      "stateMutability": "view",
      "type": "function"
    },
    {
      "inputs": [
        {
          "internalType": "address",
          "name": "",
          "type": "address"
        },
        {
          "internalType": "address",
          "name": "",
          "type": "address"
        },
        {
          "internalType": "uint256",
          "name": "",
          "type": "uint256"
        }
      ],
      "name": "optyFiTokenAToTokenBToTimestampToPrice",
      "outputs": [
        {
          "internalType": "uint256",
          "name": "",
          "type": "uint256"
        }
      ],
      "stateMutability": "view",
      "type": "function"
    },
    {
      "inputs": [],
      "name": "owner",
      "outputs": [
        {
          "internalType": "address",
          "name": "",
          "type": "address"
        }
      ],
      "stateMutability": "view",
      "type": "function"
    },
    {
      "inputs": [],
      "name": "renounceOwnership",
      "outputs": [],
      "stateMutability": "nonpayable",
      "type": "function"
    },
    {
      "inputs": [
        {
          "components": [
            {
              "internalType": "address",
              "name": "tokenA",
              "type": "address"
            },
            {
              "internalType": "address",
              "name": "tokenB",
              "type": "address"
            },
            {
              "internalType": "address",
              "name": "priceFeed",
              "type": "address"
            }
          ],
          "internalType": "struct OptyFiOracleDataTypes.TokenPairPriceFeed[]",
          "name": "_tokenPairPriceFeeds",
          "type": "tuple[]"
        }
      ],
      "name": "setChainlinkPriceFeed",
      "outputs": [],
      "stateMutability": "nonpayable",
      "type": "function"
    },
    {
      "inputs": [
        {
          "components": [
            {
              "internalType": "address",
              "name": "tokenA",
              "type": "address"
            },
            {
              "internalType": "address",
              "name": "tokenB",
              "type": "address"
            },
            {
              "internalType": "uint256",
              "name": "timeAllowance",
              "type": "uint256"
            }
          ],
          "internalType": "struct OptyFiOracleDataTypes.TokenPairTimeAllowance[]",
          "name": "_tokenPairTimeAllowances",
          "type": "tuple[]"
        }
      ],
      "name": "setChainlinkTimeAllowance",
      "outputs": [],
      "stateMutability": "nonpayable",
      "type": "function"
    },
    {
      "inputs": [
        {
          "internalType": "uint256",
          "name": "_defaultChainlinkTimeAllowance",
          "type": "uint256"
        }
      ],
      "name": "setDefaultChainlinkTimeAllowance",
      "outputs": [],
      "stateMutability": "nonpayable",
      "type": "function"
    },
    {
      "inputs": [
        {
          "internalType": "enum OptyFiOracleDataTypes.MainOracle",
          "name": "_defaultMainOracle",
          "type": "uint8"
        }
      ],
      "name": "setDefaultMainOracle",
      "outputs": [],
      "stateMutability": "nonpayable",
      "type": "function"
    },
    {
      "inputs": [
        {
          "internalType": "bool",
          "name": "_defaultMode",
          "type": "bool"
        }
      ],
      "name": "setDefaultMode",
      "outputs": [],
      "stateMutability": "nonpayable",
      "type": "function"
    },
    {
      "inputs": [
        {
          "internalType": "uint256",
          "name": "_defaultOptyFiTimeAllowance",
          "type": "uint256"
        }
      ],
      "name": "setDefaultOptyFiTimeAllowance",
      "outputs": [],
      "stateMutability": "nonpayable",
      "type": "function"
    },
    {
      "inputs": [
        {
          "components": [
            {
              "internalType": "address",
              "name": "tokenA",
              "type": "address"
            },
            {
              "internalType": "address",
              "name": "tokenB",
              "type": "address"
            },
            {
              "internalType": "enum OptyFiOracleDataTypes.MainOracle",
              "name": "mainOracle",
              "type": "uint8"
            }
          ],
          "internalType": "struct OptyFiOracleDataTypes.TokenPairPriceOracle[]",
          "name": "_tokenPairPriceOracles",
          "type": "tuple[]"
        }
      ],
      "name": "setMainOracle",
      "outputs": [],
      "stateMutability": "nonpayable",
      "type": "function"
    },
    {
      "inputs": [
        {
          "components": [
            {
              "internalType": "address",
              "name": "tokenA",
              "type": "address"
            },
            {
              "internalType": "address",
              "name": "tokenB",
              "type": "address"
            },
            {
              "internalType": "uint256",
              "name": "timeAllowance",
              "type": "uint256"
            }
          ],
          "internalType": "struct OptyFiOracleDataTypes.TokenPairTimeAllowance[]",
          "name": "_tokenPairTimeAllowances",
          "type": "tuple[]"
        }
      ],
      "name": "setOptyFiTimeAllowance",
      "outputs": [],
      "stateMutability": "nonpayable",
      "type": "function"
    },
    {
      "inputs": [
        {
          "internalType": "address",
          "name": "",
          "type": "address"
        },
        {
          "internalType": "address",
          "name": "",
          "type": "address"
        }
      ],
      "name": "tokenAToTokenBMainOracle",
      "outputs": [
        {
          "internalType": "enum OptyFiOracleDataTypes.MainOracle",
          "name": "",
          "type": "uint8"
        }
      ],
      "stateMutability": "view",
      "type": "function"
    },
    {
      "inputs": [
        {
          "internalType": "address",
          "name": "newOwner",
          "type": "address"
        }
      ],
      "name": "transferOwnership",
      "outputs": [],
      "stateMutability": "nonpayable",
      "type": "function"
    },
    {
      "inputs": [
        {
          "components": [
            {
              "internalType": "address",
              "name": "tokenA",
              "type": "address"
            },
            {
              "internalType": "address",
              "name": "tokenB",
              "type": "address"
            },
            {
              "internalType": "uint256",
              "name": "price",
              "type": "uint256"
            }
          ],
          "internalType": "struct OptyFiOracleDataTypes.TokenPairPrice[]",
          "name": "_tokenPairPrices",
          "type": "tuple[]"
        }
      ],
      "name": "updateOptyFiTokenAToTokenBPrice",
      "outputs": [],
      "stateMutability": "nonpayable",
      "type": "function"
    }
  ],
  "transactionHash": "0xbce243b24c9444b2beec1f705bb24a91140f06e93493dc30ae64ac8f284447d6",
  "args": [
    "3600",
    "3600"
  ],
  "bytecode": "0x608060405234801561001057600080fd5b50604051611a3e380380611a3e83398101604081905261002f916100b9565b6100383361005f565b6007919091556008556009805460ff199081166001179091556000805490911690556100dd565b600980546001600160a01b03838116610100818102610100600160a81b031985161790945560405193909204169182907f8be0079c531659141344cd1fd0a4f28419497f9722a3daafe3b4186f6b6457e090600090a35050565b600080604083850312156100cc57600080fd5b505080516020909101519092909150565b611952806100ec6000396000f3fe608060405234801561001057600080fd5b50600436106101585760003560e01c80639884687e116100c3578063b4ea2ccd1161007c578063b4ea2ccd14610316578063dbbd7efa1461034a578063f2fde38b1461037b578063f340e2af1461038e578063f6ec7e6c146103a1578063fac49fc4146103b457600080fd5b80639884687e1461028c578063a55edcb6146102a9578063a5e9e379146102c3578063a952934d146102f1578063afa99860146102fa578063b4cfe2ba1461030d57600080fd5b80635a037d3b116101155780635a037d3b146102225780636a3a673714610235578063715018a61461024857806378d94d5b146102505780638da5cb5b1461026357806397a11e7e1461027957600080fd5b806312d462fe1461015d5780631bf6c21b14610172578063385b05741461019857806344387160146101d157806348ef1981146101fc5780635430a83c1461020f575b600080fd5b61017061016b366004611545565b6103df565b005b61017b61034881565b6040516001600160a01b0390911681526020015b60405180910390f35b6101c36101a63660046115a3565b600460209081526000928352604080842090915290825290205481565b60405190815260200161018f565b6101c36101df3660046115a3565b600560209081526000928352604080842090915290825290205481565b61017061020a3660046115d6565b6104ea565b61017061021d3660046115fe565b610540565b610170610230366004611545565b610575565b610170610243366004611545565b61069c565b6101706107bd565b61017061025e366004611617565b6107f9565b60095461010090046001600160a01b031661017b565b6101706102873660046115fe565b61083c565b6009546102999060ff1681565b604051901515815260200161018f565b6000546102b69060ff1681565b60405161018f919061164f565b6102b66102d13660046115a3565b600660209081526000928352604080842090915290825290205460ff1681565b6101c360075481565b6101c36103083660046115a3565b610871565b6101c360085481565b61017b6103243660046115a3565b60036020908152600092835260408084209091529082529020546001600160a01b031681565b6101c3610358366004611677565b600260209081526000938452604080852082529284528284209052825290205481565b6101706103893660046116b3565b610994565b61017061039c366004611545565b610a35565b6101706103af366004611545565b610be4565b6101c36103c23660046115a3565b600160209081526000928352604080842090915290825290205481565b6009546001600160a01b036101009091041633146104185760405162461bcd60e51b815260040161040f906116ce565b60405180910390fd5b8060005b818110156104e45783838281811061043657610436611703565b905060600201604001356004600086868581811061045657610456611703565b61046c92602060609092020190810191506116b3565b6001600160a01b03166001600160a01b0316815260200190815260200160002060008686858181106104a0576104a0611703565b90506060020160200160208101906104b891906116b3565b6001600160a01b03168152602081019190915260400160002055806104dc8161172f565b91505061041c565b50505050565b6009546001600160a01b0361010090910416331461051a5760405162461bcd60e51b815260040161040f906116ce565b6000805482919060ff19166001838181111561053857610538611639565b021790555050565b6009546001600160a01b036101009091041633146105705760405162461bcd60e51b815260040161040f906116ce565b600755565b6009546001600160a01b036101009091041633146105a55760405162461bcd60e51b815260040161040f906116ce565b8060005b818110156104e4578383828181106105c3576105c3611703565b90506060020160400160208101906105db91906115d6565b600660008686858181106105f1576105f1611703565b61060792602060609092020190810191506116b3565b6001600160a01b03166001600160a01b03168152602001908152602001600020600086868581811061063b5761063b611703565b905060600201602001602081019061065391906116b3565b6001600160a01b031681526020810191909152604001600020805460ff19166001838181111561068557610685611639565b0217905550806106948161172f565b9150506105a9565b6009546001600160a01b036101009091041633146106cc5760405162461bcd60e51b815260040161040f906116ce565b8060005b818110156104e4578383828181106106ea576106ea611703565b905060600201604001602081019061070291906116b3565b6003600086868581811061071857610718611703565b61072e92602060609092020190810191506116b3565b6001600160a01b03166001600160a01b03168152602001908152602001600020600086868581811061076257610762611703565b905060600201602001602081019061077a91906116b3565b6001600160a01b039081168252602082019290925260400160002080546001600160a01b03191692909116919091179055806107b58161172f565b9150506106d0565b6009546001600160a01b036101009091041633146107ed5760405162461bcd60e51b815260040161040f906116ce565b6107f76000610ce0565b565b6009546001600160a01b036101009091041633146108295760405162461bcd60e51b815260040161040f906116ce565b6009805460ff1916911515919091179055565b6009546001600160a01b0361010090910416331461086c5760405162461bcd60e51b815260040161040f906116ce565b600855565b60095460009060ff161515600114156108e157600160005460ff16600181111561089d5761089d611639565b14156108b4576108ad8383610d3a565b905061097c565b6000805460ff1660018111156108cc576108cc611639565b14156108dc576108ad8383610e6f565b61097c565b60016001600160a01b0380851660009081526006602090815260408083209387168352929052205460ff16600181111561091d5761091d611639565b141561092d576108ad8383610d3a565b60006001600160a01b0380851660009081526006602090815260408083209387168352929052205460ff16600181111561096957610969611639565b141561097c576109798383610e6f565b90505b8061098e5761098b83836110cd565b90505b92915050565b6009546001600160a01b036101009091041633146109c45760405162461bcd60e51b815260040161040f906116ce565b6001600160a01b038116610a295760405162461bcd60e51b815260206004820152602660248201527f4f776e61626c653a206e6577206f776e657220697320746865207a65726f206160448201526564647265737360d01b606482015260840161040f565b610a3281610ce0565b50565b6009546001600160a01b03610100909104163314610a655760405162461bcd60e51b815260040161040f906116ce565b8060005b818110156104e457838382818110610a8357610a83611703565b9050606002016040013560026000868685818110610aa357610aa3611703565b610ab992602060609092020190810191506116b3565b6001600160a01b03166001600160a01b031681526020019081526020016000206000868685818110610aed57610aed611703565b9050606002016020016020810190610b0591906116b3565b6001600160a01b03166001600160a01b031681526020019081526020016000206000610b2e4290565b81526020810191909152604001600020554260016000868685818110610b5657610b56611703565b610b6c92602060609092020190810191506116b3565b6001600160a01b03166001600160a01b031681526020019081526020016000206000868685818110610ba057610ba0611703565b9050606002016020016020810190610bb891906116b3565b6001600160a01b0316815260208101919091526040016000205580610bdc8161172f565b915050610a69565b6009546001600160a01b03610100909104163314610c145760405162461bcd60e51b815260040161040f906116ce565b8060005b818110156104e457838382818110610c3257610c32611703565b9050606002016040013560056000868685818110610c5257610c52611703565b610c6892602060609092020190810191506116b3565b6001600160a01b03166001600160a01b031681526020019081526020016000206000868685818110610c9c57610c9c611703565b9050606002016020016020810190610cb491906116b3565b6001600160a01b0316815260208101919091526040016000205580610cd88161172f565b915050610c18565b600980546001600160a01b03838116610100818102610100600160a81b031985161790945560405193909204169182907f8be0079c531659141344cd1fd0a4f28419497f9722a3daafe3b4186f6b6457e090600090a35050565b6001600160a01b03808316600081815260016020908152604080832094861680845294825280832054938352600482528083209483529390529182205415610dff576001600160a01b03848116600081815260046020908152604080832094881680845294825280832054938352600182528083209483529390529190912054610dc4904261174a565b11610dfa576001600160a01b03808516600090815260026020908152604080832093871683529281528282208483529052205491505b610e68565b6008546001600160a01b03858116600090815260016020908152604080832093881683529290522054610e32904261174a565b11610e68576001600160a01b03808516600090815260026020908152604080832093871683529281528282208483529052205491505b5092915050565b6001600160a01b038083166000908152600360209081526040808320858516845290915281205490911680156110bb57600080826001600160a01b031663feaf968c6040518163ffffffff1660e01b815260040160a060405180830381865afa158015610ee0573d6000803e3d6000fd5b505050506040513d601f19601f82011682018060405250810190610f04919061177b565b506001600160a01b03808b166000908152600560209081526040808320938d168352929052205492955093505015905061100d576001600160a01b03868116600090815260056020908152604080832093891683529290522054610f68824261174a565b1115610f7f57610f788686611147565b93506110b4565b6000836001600160a01b031663313ce5676040518163ffffffff1660e01b8152600401602060405180830381865afa158015610fbf573d6000803e3d6000fd5b505050506040513d601f19601f82011682018060405250810190610fe391906117cb565b9050610ff08160126117ee565b610ffb90600a6118f5565b6110059084611904565b9450506110b4565b60075461101a824261174a565b111561102a57610f788686611147565b6000836001600160a01b031663313ce5676040518163ffffffff1660e01b8152600401602060405180830381865afa15801561106a573d6000803e3d6000fd5b505050506040513d601f19601f8201168201806040525081019061108e91906117cb565b905061109b8160126117ee565b6110a690600a6118f5565b6110b09084611904565b9450505b5050610e68565b6110c58484611147565b949350505050565b6001600160a01b03808316600090815260066020908152604080832093851683529290529081205460ff16600181600181111561110c5761110c611639565b14156111235761111c8484610e6f565b9150610e68565b600081600181111561113757611137611639565b1415610e68576110c58484610d3a565b6001600160a01b03808316600090815260036020908152604080832061034884529091528120549091168015610e68576001600160a01b03808416600090815260036020908152604080832061034884529091529020541680156114f157600080836001600160a01b031663feaf968c6040518163ffffffff1660e01b815260040160a060405180830381865afa1580156111e6573d6000803e3d6000fd5b505050506040513d601f19601f8201168201806040525081019061120a919061177b565b50935050925050600080846001600160a01b031663feaf968c6040518163ffffffff1660e01b815260040160a060405180830381865afa158015611252573d6000803e3d6000fd5b505050506040513d601f19601f82011682018060405250810190611276919061177b565b509350509250506000866001600160a01b031663313ce5676040518163ffffffff1660e01b8152600401602060405180830381865afa1580156112bd573d6000803e3d6000fd5b505050506040513d601f19601f820116820180604052508101906112e191906117cb565b90506000866001600160a01b031663313ce5676040518163ffffffff1660e01b8152600401602060405180830381865afa158015611323573d6000803e3d6000fd5b505050506040513d601f19601f8201168201806040525081019061134791906117cb565b6001600160a01b03808d166000908152600560209081526040808320938f168352929052205490915015611455576001600160a01b038b81166000908152600560209081526040808320938e16835292905220546113a5864261174a565b111580156113e157506001600160a01b038b81166000908152600560209081526040808320938e16835292905220546113de844261174a565b11155b156114505760006113f38360126117ee565b6113fe90600a6118f5565b6114089088611904565b905060006114178360126117ee565b61142290600a6118f5565b61142c9087611904565b90508061144183670de0b6b3a7640000611904565b61144b9190611923565b9a5050505b6114ea565b600754611462864261174a565b1115801561147b5750600754611478844261174a565b11155b156114ea57600061148d8360126117ee565b61149890600a6118f5565b6114a29088611904565b905060006114b18360126117ee565b6114bc90600a6118f5565b6114c69087611904565b9050806114db83670de0b6b3a7640000611904565b6114e59190611923565b9a5050505b5050505050505b505092915050565b60008083601f84011261150b57600080fd5b50813567ffffffffffffffff81111561152357600080fd5b60208301915083602060608302850101111561153e57600080fd5b9250929050565b6000806020838503121561155857600080fd5b823567ffffffffffffffff81111561156f57600080fd5b61157b858286016114f9565b90969095509350505050565b80356001600160a01b038116811461159e57600080fd5b919050565b600080604083850312156115b657600080fd5b6115bf83611587565b91506115cd60208401611587565b90509250929050565b6000602082840312156115e857600080fd5b8135600281106115f757600080fd5b9392505050565b60006020828403121561161057600080fd5b5035919050565b60006020828403121561162957600080fd5b813580151581146115f757600080fd5b634e487b7160e01b600052602160045260246000fd5b602081016002831061167157634e487b7160e01b600052602160045260246000fd5b91905290565b60008060006060848603121561168c57600080fd5b61169584611587565b92506116a360208501611587565b9150604084013590509250925092565b6000602082840312156116c557600080fd5b61098b82611587565b6020808252818101527f4f776e61626c653a2063616c6c6572206973206e6f7420746865206f776e6572604082015260600190565b634e487b7160e01b600052603260045260246000fd5b634e487b7160e01b600052601160045260246000fd5b600060001982141561174357611743611719565b5060010190565b60008282101561175c5761175c611719565b500390565b805169ffffffffffffffffffff8116811461159e57600080fd5b600080600080600060a0868803121561179357600080fd5b61179c86611761565b94506020860151935060408601519250606086015191506117bf60808701611761565b90509295509295909350565b6000602082840312156117dd57600080fd5b815160ff811681146115f757600080fd5b600060ff821660ff84168082101561180857611808611719565b90039392505050565b600181815b8085111561184c57816000190482111561183257611832611719565b8085161561183f57918102915b93841c9390800290611816565b509250929050565b6000826118635750600161098e565b816118705750600061098e565b81600181146118865760028114611890576118ac565b600191505061098e565b60ff8411156118a1576118a1611719565b50506001821b61098e565b5060208310610133831016604e8410600b84101617156118cf575081810a61098e565b6118d98383611811565b80600019048211156118ed576118ed611719565b029392505050565b600061098b60ff841683611854565b600081600019048311821515161561191e5761191e611719565b500290565b60008261194057634e487b7160e01b600052601260045260246000fd5b50049056fea164736f6c634300080b000a"
}