{
  "address": "0x2A9eB5C2F1d9ACB7EA9d6A9B0521A2e2551170F3",
  "abi": [
    {
      "inputs": [
        {
          "internalType": "address",
          "name": "_registry",
          "type": "address"
        }
      ],
      "stateMutability": "nonpayable",
      "type": "constructor"
    },
    {
      "anonymous": false,
      "inputs": [
        {
          "indexed": true,
          "internalType": "address",
          "name": "owner",
          "type": "address"
        },
        {
          "indexed": true,
          "internalType": "address",
          "name": "spender",
          "type": "address"
        },
        {
          "indexed": false,
          "internalType": "uint256",
          "name": "value",
          "type": "uint256"
        }
      ],
      "name": "Approval",
      "type": "event"
    },
    {
      "anonymous": false,
      "inputs": [
        {
          "indexed": true,
          "internalType": "uint256",
          "name": "minimumDepositValueUT",
          "type": "uint256"
        },
        {
          "indexed": true,
          "internalType": "address",
          "name": "caller",
          "type": "address"
        }
      ],
      "name": "LogMinimumDepositValueUT",
      "type": "event"
    },
    {
      "anonymous": false,
      "inputs": [
        {
          "indexed": true,
          "internalType": "uint256",
          "name": "totalValueLockedLimitUT",
          "type": "uint256"
        },
        {
          "indexed": true,
          "internalType": "address",
          "name": "caller",
          "type": "address"
        }
      ],
      "name": "LogTotalValueLockedLimitUT",
      "type": "event"
    },
    {
      "anonymous": false,
      "inputs": [
        {
          "indexed": true,
          "internalType": "uint256",
          "name": "userDepositCapUT",
          "type": "uint256"
        },
        {
          "indexed": true,
          "internalType": "address",
          "name": "caller",
          "type": "address"
        }
      ],
      "name": "LogUserDepositCapUT",
      "type": "event"
    },
    {
      "anonymous": false,
      "inputs": [
        {
          "indexed": true,
          "internalType": "address",
          "name": "from",
          "type": "address"
        },
        {
          "indexed": true,
          "internalType": "address",
          "name": "to",
          "type": "address"
        },
        {
          "indexed": false,
          "internalType": "uint256",
          "name": "value",
          "type": "uint256"
        }
      ],
      "name": "Transfer",
      "type": "event"
    },
    {
      "inputs": [],
      "name": "DOMAIN_SEPARATOR",
      "outputs": [
        {
          "internalType": "bytes32",
          "name": "",
          "type": "bytes32"
        }
      ],
      "stateMutability": "view",
      "type": "function"
    },
    {
      "inputs": [],
      "name": "EIP712_REVISION",
      "outputs": [
        {
          "internalType": "bytes",
          "name": "",
          "type": "bytes"
        }
      ],
      "stateMutability": "view",
      "type": "function"
    },
    {
      "inputs": [],
      "name": "PERMIT_TYPEHASH",
      "outputs": [
        {
          "internalType": "bytes32",
          "name": "",
          "type": "bytes32"
        }
      ],
      "stateMutability": "view",
      "type": "function"
    },
    {
      "inputs": [],
      "name": "_domainSeparator",
      "outputs": [
        {
          "internalType": "bytes32",
          "name": "",
          "type": "bytes32"
        }
      ],
      "stateMutability": "view",
      "type": "function"
    },
    {
      "inputs": [
        {
          "internalType": "address[]",
          "name": "_accounts",
          "type": "address[]"
        },
        {
          "internalType": "uint256[]",
          "name": "_amounts",
          "type": "uint256[]"
        }
      ],
      "name": "adminBurn",
      "outputs": [],
      "stateMutability": "nonpayable",
      "type": "function"
    },
    {
      "inputs": [
        {
          "internalType": "bytes[]",
          "name": "_codes",
          "type": "bytes[]"
        }
      ],
      "name": "adminCall",
      "outputs": [],
      "stateMutability": "nonpayable",
      "type": "function"
    },
    {
      "inputs": [
        {
          "internalType": "address[]",
          "name": "_accounts",
          "type": "address[]"
        },
        {
          "internalType": "uint256[]",
          "name": "_amounts",
          "type": "uint256[]"
        }
      ],
      "name": "adminMint",
      "outputs": [],
      "stateMutability": "nonpayable",
      "type": "function"
    },
    {
      "inputs": [
        {
          "internalType": "address",
          "name": "owner",
          "type": "address"
        },
        {
          "internalType": "address",
          "name": "spender",
          "type": "address"
        }
      ],
      "name": "allowance",
      "outputs": [
        {
          "internalType": "uint256",
          "name": "",
          "type": "uint256"
        }
      ],
      "stateMutability": "view",
      "type": "function"
    },
    {
      "inputs": [
        {
          "internalType": "address",
          "name": "spender",
          "type": "address"
        },
        {
          "internalType": "uint256",
          "name": "amount",
          "type": "uint256"
        }
      ],
      "name": "approve",
      "outputs": [
        {
          "internalType": "bool",
          "name": "",
          "type": "bool"
        }
      ],
      "stateMutability": "nonpayable",
      "type": "function"
    },
    {
      "inputs": [
        {
          "internalType": "address",
          "name": "account",
          "type": "address"
        }
      ],
      "name": "balanceOf",
      "outputs": [
        {
          "internalType": "uint256",
          "name": "",
          "type": "uint256"
        }
      ],
      "stateMutability": "view",
      "type": "function"
    },
    {
      "inputs": [
        {
          "internalType": "uint256",
          "name": "",
          "type": "uint256"
        },
        {
          "internalType": "uint256",
          "name": "",
          "type": "uint256"
        }
      ],
      "name": "blockToBlockVaultValues",
      "outputs": [
        {
          "internalType": "uint256",
          "name": "actualVaultValue",
          "type": "uint256"
        },
        {
          "internalType": "uint256",
          "name": "blockMinVaultValue",
          "type": "uint256"
        },
        {
          "internalType": "uint256",
          "name": "blockMaxVaultValue",
          "type": "uint256"
        }
      ],
      "stateMutability": "view",
      "type": "function"
    },
    {
      "inputs": [
        {
          "internalType": "uint256",
          "name": "",
          "type": "uint256"
        }
      ],
      "name": "blockTransaction",
      "outputs": [
        {
          "internalType": "bool",
          "name": "",
          "type": "bool"
        }
      ],
      "stateMutability": "view",
      "type": "function"
    },
    {
      "inputs": [],
      "name": "decimals",
      "outputs": [
        {
          "internalType": "uint8",
          "name": "",
          "type": "uint8"
        }
      ],
      "stateMutability": "view",
      "type": "function"
    },
    {
      "inputs": [
        {
          "internalType": "address",
          "name": "spender",
          "type": "address"
        },
        {
          "internalType": "uint256",
          "name": "subtractedValue",
          "type": "uint256"
        }
      ],
      "name": "decreaseAllowance",
      "outputs": [
        {
          "internalType": "bool",
          "name": "",
          "type": "bool"
        }
      ],
      "stateMutability": "nonpayable",
      "type": "function"
    },
    {
      "inputs": [
        {
          "internalType": "address",
          "name": "spender",
          "type": "address"
        },
        {
          "internalType": "uint256",
          "name": "addedValue",
          "type": "uint256"
        }
      ],
      "name": "increaseAllowance",
      "outputs": [
        {
          "internalType": "bool",
          "name": "",
          "type": "bool"
        }
      ],
      "stateMutability": "nonpayable",
      "type": "function"
    },
    {
      "inputs": [
        {
          "internalType": "address",
          "name": "_registry",
          "type": "address"
        },
        {
          "internalType": "bytes32",
          "name": "_underlyingTokensHash",
          "type": "bytes32"
        },
        {
          "internalType": "bytes32",
          "name": "_whitelistedAccountsRoot",
          "type": "bytes32"
        },
        {
          "internalType": "string",
          "name": "_symbol",
          "type": "string"
        },
        {
          "internalType": "uint256",
          "name": "_riskProfileCode",
          "type": "uint256"
        },
        {
          "internalType": "uint256",
          "name": "_vaultConfiguration",
          "type": "uint256"
        },
        {
          "internalType": "uint256",
          "name": "_userDepositCapUT",
          "type": "uint256"
        },
        {
          "internalType": "uint256",
          "name": "_minimumDepositValueUT",
          "type": "uint256"
        },
        {
          "internalType": "uint256",
          "name": "_totalValueLockedLimitUT",
          "type": "uint256"
        }
      ],
      "name": "initialize",
      "outputs": [],
      "stateMutability": "nonpayable",
      "type": "function"
    },
    {
      "inputs": [],
      "name": "investStrategyHash",
      "outputs": [
        {
          "internalType": "bytes32",
          "name": "",
          "type": "bytes32"
        }
      ],
      "stateMutability": "view",
      "type": "function"
    },
    {
      "inputs": [
        {
          "internalType": "uint256",
          "name": "",
          "type": "uint256"
        }
      ],
      "name": "investStrategySteps",
      "outputs": [
        {
          "internalType": "address",
          "name": "pool",
          "type": "address"
        },
        {
          "internalType": "address",
          "name": "outputToken",
          "type": "address"
        },
        {
          "internalType": "bool",
          "name": "isSwap",
          "type": "bool"
        }
      ],
      "stateMutability": "view",
      "type": "function"
    },
    {
      "inputs": [],
      "name": "minimumDepositValueUT",
      "outputs": [
        {
          "internalType": "uint256",
          "name": "",
          "type": "uint256"
        }
      ],
      "stateMutability": "view",
      "type": "function"
    },
    {
      "inputs": [],
      "name": "name",
      "outputs": [
        {
          "internalType": "string",
          "name": "",
          "type": "string"
        }
      ],
      "stateMutability": "view",
      "type": "function"
    },
    {
      "inputs": [
        {
          "internalType": "address",
          "name": "owner",
          "type": "address"
        }
      ],
      "name": "nonces",
      "outputs": [
        {
          "internalType": "uint256",
          "name": "",
          "type": "uint256"
        }
      ],
      "stateMutability": "view",
      "type": "function"
    },
    {
      "inputs": [],
      "name": "opTOKEN_REVISION",
      "outputs": [
        {
          "internalType": "uint256",
          "name": "",
          "type": "uint256"
        }
      ],
      "stateMutability": "view",
      "type": "function"
    },
    {
      "inputs": [
        {
          "internalType": "address",
          "name": "",
          "type": "address"
        }
      ],
      "name": "pendingDeposits",
      "outputs": [
        {
          "internalType": "uint256",
          "name": "",
          "type": "uint256"
        }
      ],
      "stateMutability": "view",
      "type": "function"
    },
    {
      "inputs": [
        {
          "internalType": "uint256",
          "name": "",
          "type": "uint256"
        }
      ],
      "name": "queue",
      "outputs": [
        {
          "internalType": "address",
          "name": "account",
          "type": "address"
        },
        {
          "internalType": "uint256",
          "name": "value",
          "type": "uint256"
        }
      ],
      "stateMutability": "view",
      "type": "function"
    },
    {
      "inputs": [],
      "name": "registryContract",
      "outputs": [
        {
          "internalType": "contract IRegistry",
          "name": "",
          "type": "address"
        }
      ],
      "stateMutability": "view",
      "type": "function"
    },
    {
      "inputs": [
        {
          "internalType": "address",
          "name": "_registry",
          "type": "address"
        }
      ],
      "name": "setRegistry",
      "outputs": [],
      "stateMutability": "nonpayable",
      "type": "function"
    },
    {
      "inputs": [],
      "name": "symbol",
      "outputs": [
        {
          "internalType": "string",
          "name": "",
          "type": "string"
        }
      ],
      "stateMutability": "view",
      "type": "function"
    },
    {
      "inputs": [
        {
          "internalType": "address",
          "name": "",
          "type": "address"
        }
      ],
      "name": "totalDeposits",
      "outputs": [
        {
          "internalType": "uint256",
          "name": "",
          "type": "uint256"
        }
      ],
      "stateMutability": "view",
      "type": "function"
    },
    {
      "inputs": [],
      "name": "totalSupply",
      "outputs": [
        {
          "internalType": "uint256",
          "name": "",
          "type": "uint256"
        }
      ],
      "stateMutability": "view",
      "type": "function"
    },
    {
      "inputs": [],
      "name": "totalValueLockedLimitUT",
      "outputs": [
        {
          "internalType": "uint256",
          "name": "",
          "type": "uint256"
        }
      ],
      "stateMutability": "view",
      "type": "function"
    },
    {
      "inputs": [
        {
          "internalType": "address",
          "name": "recipient",
          "type": "address"
        },
        {
          "internalType": "uint256",
          "name": "amount",
          "type": "uint256"
        }
      ],
      "name": "transfer",
      "outputs": [
        {
          "internalType": "bool",
          "name": "",
          "type": "bool"
        }
      ],
      "stateMutability": "nonpayable",
      "type": "function"
    },
    {
      "inputs": [
        {
          "internalType": "address",
          "name": "sender",
          "type": "address"
        },
        {
          "internalType": "address",
          "name": "recipient",
          "type": "address"
        },
        {
          "internalType": "uint256",
          "name": "amount",
          "type": "uint256"
        }
      ],
      "name": "transferFrom",
      "outputs": [
        {
          "internalType": "bool",
          "name": "",
          "type": "bool"
        }
      ],
      "stateMutability": "nonpayable",
      "type": "function"
    },
    {
      "inputs": [],
      "name": "underlyingToken",
      "outputs": [
        {
          "internalType": "address",
          "name": "",
          "type": "address"
        }
      ],
      "stateMutability": "view",
      "type": "function"
    },
    {
      "inputs": [],
      "name": "underlyingTokensHash",
      "outputs": [
        {
          "internalType": "bytes32",
          "name": "",
          "type": "bytes32"
        }
      ],
      "stateMutability": "view",
      "type": "function"
    },
    {
      "inputs": [],
      "name": "userDepositCapUT",
      "outputs": [
        {
          "internalType": "uint256",
          "name": "",
          "type": "uint256"
        }
      ],
      "stateMutability": "view",
      "type": "function"
    },
    {
      "inputs": [],
      "name": "vaultConfiguration",
      "outputs": [
        {
          "internalType": "uint256",
          "name": "",
          "type": "uint256"
        }
      ],
      "stateMutability": "view",
      "type": "function"
    },
    {
      "inputs": [],
      "name": "whitelistedAccountsRoot",
      "outputs": [
        {
          "internalType": "bytes32",
          "name": "",
          "type": "bytes32"
        }
      ],
      "stateMutability": "view",
      "type": "function"
    }
  ],
  "transactionHash": "0x00c46b97fb4de6e0acc7c82ee00aaebf8360f5c09e2df3a7562ee96ae008174a",
  "args": [
    "0x99fa011e33a8c6196869dec7bc407e896ba67fe3"
  ],
  "numDeployments": 1,
  "bytecode": "0x60a0604052600080553480156200001557600080fd5b50604051620026eb380380620026eb833981016040819052620000389162000185565b806040516020016200004a90620001b5565b6040516020818303038152906040526040516020016200006a90620001b5565b60408051601f1981840301815291905281516200008f906037906020850190620000e9565b508051620000a5906038906020840190620000e9565b5050603980546001600160a01b0390931661010002610100600160a81b031960ff19909416601217939093169290921790915550506001603a5546608052620001cd565b828054600181600116156101000203166002900490600052602060002090601f016020900481019282601f106200012c57805160ff19168380011785556200015c565b828001600101855582156200015c579182015b828111156200015c5782518255916020019190600101906200013f565b506200016a9291506200016e565b5090565b5b808211156200016a57600081556001016200016f565b60006020828403121562000197578081fd5b81516001600160a01b0381168114620001ae578182fd5b9392505050565b6b1bdc1513d2d15397d253541360a21b8152600c0190565b608051612503620001e860003980610af552506125036000f3fe608060405234801561001057600080fd5b50600436106102275760003560e01c806370a0823111610130578063a91ee0dc116100b8578063db7e56321161007c578063db7e56321461043b578063dd62ed3e14610443578063ddf0b00914610456578063e940325614610477578063eb3349b91461048a57610227565b8063a91ee0dc14610408578063a9b497c81461041b578063ae78b1b014610423578063c9dd6b241461042b578063d46ae8e21461043357610227565b806395d89b41116100ff57806395d89b41146103bf578063a30b7271146103c7578063a457c2d7146103cf578063a49340cc146103e2578063a9059cbb146103f557610227565b806370a0823114610389578063781603761461039c5780637ecebe00146103a45780638c0e0357146103b757610227565b806328c1f99b116101b357806330adf81f1161018257806330adf81f1461032f578063313ce567146103375780633644e5151461034c57806339509351146103545780636db5eeb21461036757610227565b806328c1f99b146102f957806329dc0658146103015780632a4d7943146103095780632b86b6661461031c57610227565b80631dcec00b116101fa5780631dcec00b146102875780631f6dcbce1461029c57806323b872dd146102af57806323bb5fac146102c25780632495a599146102e457610227565b806303f2e5891461022c57806306fdde031461024a578063095ea7b31461025f57806318160ddd1461027f575b600080fd5b61023461049d565b60405161024191906120e2565b60405180910390f35b6102526104a3565b6040516102419190612117565b61027261026d366004611c4a565b61053a565b60405161024191906120d7565b610234610558565b61029a610295366004611d0e565b61055e565b005b6102726102aa366004611f3e565b6106b2565b6102726102bd366004611b7b565b6106c7565b6102d56102d0366004611f56565b61074e565b60405161024193929190612391565b6102ec61078d565b6040516102419190612086565b6102ec61079c565b6102346107b0565b61029a610317366004611dc7565b6107b6565b61029a61032a366004611bbb565b61082e565b610234610ac3565b61033f610ae7565b60405161024191906123a7565b610234610af0565b610272610362366004611c4a565b610b33565b61037a610375366004611f3e565b610b81565b6040516102419392919061209a565b610234610397366004611abc565b610bc4565b610252610bdf565b6102346103b2366004611abc565b610bfc565b610234610c17565b610252610c1d565b610234610c7e565b6102726103dd366004611c4a565b610c83565b61029a6103f0366004611d0e565b610ceb565b610272610403366004611c4a565b610dbd565b61029a610416366004611abc565b610dd1565b610234610eeb565b610234610ef1565b610234610ef7565b610234610efd565b610234610f03565b610234610451366004611b43565b610f09565b610469610464366004611f3e565b610f34565b6040516102419291906120be565b610234610485366004611abc565b610f69565b610234610498366004611abc565b610f7b565b60445481565b60378054604080516020601f600260001961010060018816150201909516949094049384018190048102820181019092528281526060939092909183018282801561052f5780601f106105045761010080835404028352916020019161052f565b820191906000526020600020905b81548152906001019060200180831161051257829003601f168201915b505050505090505b90565b600061054e610547610f8d565b8484610f91565b5060015b92915050565b60365490565b610622603960019054906101000a90046001600160a01b03166001600160a01b031663289b3c0d6040518163ffffffff1660e01b815260040160206040518083038186803b1580156105af57600080fd5b505afa1580156105c3573d6000803e3d6000fd5b505050506040513d601f19601f820116820180604052508101906105e79190611ad8565b6040518060400160405280601f81526020017f63616c6c6572206973206e6f7420686176696e6720676f7665726e616e636500815250611045565b81518151604080518082019091526002815261064760f31b60208201529082146106685760405162461bcd60e51b815260040161065f9190612117565b60405180910390fd5b5060005b818110156106ac576106a484828151811061068357fe5b602002602001015184838151811061069757fe5b6020026020010151611074565b60010161066c565b50505050565b604b6020526000908152604090205460ff1681565b60006106d4848484611156565b610744846106e0610f8d565b61073f856040518060600160405280602881526020016124aa602891396001600160a01b038a1660009081526035602052604081209061071e610f8d565b6001600160a01b03168152602081019190915260400160002054919061126b565b610f91565b5060019392505050565b603e602052816000526040600020818154811061076757fe5b600091825260209091206003909102018054600182015460029092015490935090915083565b6043546001600160a01b031681565b60395461010090046001600160a01b031681565b60455481565b610807603960019054906101000a90046001600160a01b03166001600160a01b031663289b3c0d6040518163ffffffff1660e01b815260040160206040518083038186803b1580156105af57600080fd5b61082b8160405180604001604052806002815260200161313560f01b815250611297565b50565b60006108386112c8565b60015490915060ff168061084f575061084f6112cd565b8061085b575060005481115b6108775760405162461bcd60e51b815260040161065f9061221d565b60015460ff16158015610896576001805460ff19168117905560008290555b6000885111604051806040016040528060018152602001600d60fa1b815250906108d35760405162461bcd60e51b815260040161065f9190612117565b5060398054610100600160a81b0319166101006001600160a01b038e16021790556108fc61186f565b603954604051639ec39e2f60e01b81526101009091046001600160a01b031690639ec39e2f90610930908b906004016120e2565b60006040518083038186803b15801561094857600080fd5b505afa15801561095c573d6000803e3d6000fd5b505050506040513d6000823e601f3d908101601f191682016040526109849190810190611e70565b90506109948882606001516112d3565b61099d8b611324565b6109cb8982608001516040516020016109b7929190611fda565b604051602081830303815290604052611514565b6109f9898260a001516040516020016109e592919061203c565b60405160208183030381529060405261152b565b6043546040805163313ce56760e01b81529051610a7c926001600160a01b03169163313ce567916004808301926020929190829003018186803b158015610a3f57600080fd5b505afa158015610a53573d6000803e3d6000fd5b505050506040513d601f19601f82011682018060405250810190610a779190611f77565b61153e565b610a858a611554565b610a8e87611559565b610a9986868661155e565b610aa1611579565b604655508015610ab6576001805460ff191690555b5050505050505050505050565b7f6e71edae12b1b97f4d1f60370fef10105fa2faae0126114a169c64845d6126c981565b60395460ff1690565b6000467f0000000000000000000000000000000000000000000000000000000000000000811415610b25575050604654610537565b610b2d611579565b91505090565b600061054e610b40610f8d565b8461073f8560356000610b51610f8d565b6001600160a01b03908116825260208083019390935260409182016000908120918c168152925290205490611611565b60488181548110610b8e57fe5b6000918252602090912060029091020180546001909101546001600160a01b03918216925090811690600160a01b900460ff1683565b6001600160a01b031660009081526034602052604090205490565b604051806040016040528060018152602001603160f81b81525081565b6001600160a01b03166000908152604a602052604090205490565b60405481565b60388054604080516020601f600260001961010060018816150201909516949094049384018190048102820181019092528281526060939092909183018282801561052f5780601f106105045761010080835404028352916020019161052f565b600081565b600061054e610c90610f8d565b8461073f856040518060600160405280602581526020016124d26025913960356000610cba610f8d565b6001600160a01b03908116825260208083019390935260409182016000908120918d1681529252902054919061126b565b610d3c603960019054906101000a90046001600160a01b03166001600160a01b031663289b3c0d6040518163ffffffff1660e01b815260040160206040518083038186803b1580156105af57600080fd5b81518151604080518082019091526002815261064760f31b6020820152908214610d795760405162461bcd60e51b815260040161065f9190612117565b5060005b818110156106ac57610db5848281518110610d9457fe5b6020026020010151848381518110610da857fe5b602002602001015161163d565b600101610d7d565b600061054e610dca610f8d565b8484611156565b610e95603960019054906101000a90046001600160a01b03166001600160a01b031663e7f43c686040518163ffffffff1660e01b815260040160206040518083038186803b158015610e2257600080fd5b505afa158015610e36573d6000803e3d6000fd5b505050506040513d601f19601f82011682018060405250810190610e5a9190611ad8565b6040518060400160405280601a81526020017f63616c6c6572206973206e6f7420746865206f70657261746f72000000000000815250611045565b610ea7816001600160a01b03166116f1565b610ec35760405162461bcd60e51b815260040161065f906122f1565b603980546001600160a01b0390921661010002610100600160a81b0319909216919091179055565b603f5481565b60415481565b60475481565b60465481565b60425481565b6001600160a01b03918216600090815260356020908152604080832093909416825291909152205490565b603b8181548110610f4157fe5b6000918252602090912060029091020180546001909101546001600160a01b03909116915082565b603d6020526000908152604090205481565b603c6020526000908152604090205481565b3390565b6001600160a01b038316610fb75760405162461bcd60e51b815260040161065f90612316565b6001600160a01b038216610fdd5760405162461bcd60e51b815260040161065f9061216d565b6001600160a01b0380841660008181526035602090815260408083209487168084529490915290819020849055517f8c5be1e5ebec7d5bd14f71427d1e84f3dd0314c0f7b2291e5b200ac8c7c3b925906110389085906120e2565b60405180910390a3505050565b80336001600160a01b0384161461106f5760405162461bcd60e51b815260040161065f9190612117565b505050565b6001600160a01b03821661109a5760405162461bcd60e51b815260040161065f9061226b565b6110a68260008361106f565b6110e381604051806060016040528060228152602001612462602291396001600160a01b038516600090815260346020526040902054919061126b565b6001600160a01b03831660009081526034602052604090205560365461110990826116f7565b6036556040516000906001600160a01b038416907fddf252ad1be2c89b69c2b068fc378daa952ba7f163c4a11628f55a4df523b3ef9061114a9085906120e2565b60405180910390a35050565b6001600160a01b03831661117c5760405162461bcd60e51b815260040161065f906122ac565b6001600160a01b0382166111a25760405162461bcd60e51b815260040161065f9061212a565b6111ad83838361106f565b6111ea81604051806060016040528060268152602001612484602691396001600160a01b038616600090815260346020526040902054919061126b565b6001600160a01b0380851660009081526034602052604080822093909355908416815220546112199082611611565b6001600160a01b0380841660008181526034602052604090819020939093559151908516907fddf252ad1be2c89b69c2b068fc378daa952ba7f163c4a11628f55a4df523b3ef906110389085906120e2565b6000818484111561128f5760405162461bcd60e51b815260040161065f9190612117565b505050900390565b60005b825181101561106f576112c08382815181106112b257fe5b60200260200101518361171f565b60010161129a565b600090565b303b1590565b6040805180820190915260018152603560f81b6020820152816113095760405162461bcd60e51b815260040161065f9190612117565b5060425460ff60f01b191660f083901b176042819055505050565b603954604051638346525f60e01b815260609161010090046001600160a01b031690638346525f9061135a9085906004016120e2565b60006040518083038186803b15801561137257600080fd5b505afa158015611386573d6000803e3d6000fd5b505050506040513d6000823e601f3d908101601f191682016040526113ae9190810190611c75565b9050805160011460405180604001604052806002815260200161313760f01b815250906113ee5760405162461bcd60e51b815260040161065f9190612117565b50603960019054906101000a90046001600160a01b03166001600160a01b0316632d5ad3d58260008151811061142057fe5b60200260200101516040518263ffffffff1660e01b81526004016114449190612086565b60206040518083038186803b15801561145c57600080fd5b505afa158015611470573d6000803e3d6000fd5b505050506040513d601f19601f820116820180604052508101906114949190611e50565b60405180604001604052806002815260200161313960f01b815250906114cd5760405162461bcd60e51b815260040161065f9190612117565b5081604781905550806000815181106114e257fe5b6020026020010151604360006101000a8154816001600160a01b0302191690836001600160a01b031602179055505050565b80516115279060379060208401906118a7565b5050565b80516115279060389060208401906118a7565b6039805460ff191660ff92909216919091179055565b604455565b604255565b611567836117c3565b611570826117f6565b61106f8161182b565b6000467f8b73c3c69bb8fe3d512ecc4cf759cc79239f7b179b0ffacaa9a75d522b39400f6115a5611860565b805160209182012060408051808201825260018152603160f81b90840152516115f593927fc89efdaa54c0f20c7adf612882df0950f5a951637e0307cdcb4c672f298b8bc69186913091016120eb565b6040516020818303038152906040528051906020012091505090565b6000828201838110156116365760405162461bcd60e51b815260040161065f906121af565b9392505050565b6001600160a01b0382166116635760405162461bcd60e51b815260040161065f9061235a565b61166f6000838361106f565b60365461167c9082611611565b6036556001600160a01b0382166000908152603460205260409020546116a29082611611565b6001600160a01b0383166000818152603460205260408082209390935591519091907fddf252ad1be2c89b69c2b068fc378daa952ba7f163c4a11628f55a4df523b3ef9061114a9085906120e2565b3b151590565b6000828211156117195760405162461bcd60e51b815260040161065f906121e6565b50900390565b60006060838060200190518101906117379190611af4565b915091506000826001600160a01b0316826040516117559190611fbe565b6000604051808303816000865af19150503d8060008114611792576040519150601f19603f3d011682016040523d82523d6000602084013e611797565b606091505b505090508084906117bb5760405162461bcd60e51b815260040161065f9190612117565b505050505050565b604081815551339082907f70c87424f133fbd8c8e63b0dc9c2d2702db0a79d7d4139b25a5035f250b9f73890600090a350565b6041819055604051339082907f7af95a1df120276e178a852832ba64d58429b2b5986955c772448d80c08ef39290600090a350565b6045819055604051339082907fae4cf6e16f407af30e4a8e158871dd4eb7d4ad22f2438ccc43c5855fcd6ebbee90600090a350565b606061186a6104a3565b905090565b6040805160c0810182526000808252602082015290810161188e611925565b8152600060208201526060604082018190529081015290565b828054600181600116156101000203166002900490600052602060002090601f016020900481019282601f106118e857805160ff1916838001178555611915565b82800160010185558215611915579182015b828111156119155782518255916020019190600101906118fa565b5061192192915061193c565b5090565b604080518082019091526000808252602082015290565b5b80821115611921576000815560010161193d565b600082601f830112611961578081fd5b813561197461196f826123dc565b6123b5565b81815291506020808301908481018184028601820187101561199557600080fd5b60005b848110156119b457813584529282019290820190600101611998565b505050505092915050565b8051801515811461055257600080fd5b600082601f8301126119df578081fd5b81356119ed61196f826123fc565b9150808252836020828501011115611a0457600080fd5b8060208401602084013760009082016020015292915050565b600082601f830112611a2d578081fd5b8151611a3b61196f826123fc565b9150808252836020828501011115611a5257600080fd5b611a63816020840160208601612420565b5092915050565b600060408284031215611a7b578081fd5b611a8560406123b5565b9050611a918383611aab565b8152611aa08360208401611aab565b602082015292915050565b805160ff8116811461055257600080fd5b600060208284031215611acd578081fd5b81356116368161244c565b600060208284031215611ae9578081fd5b81516116368161244c565b60008060408385031215611b06578081fd5b8251611b118161244c565b602084015190925067ffffffffffffffff811115611b2d578182fd5b611b3985828601611a1d565b9150509250929050565b60008060408385031215611b55578182fd5b8235611b608161244c565b91506020830135611b708161244c565b809150509250929050565b600080600060608486031215611b8f578081fd5b8335611b9a8161244c565b92506020840135611baa8161244c565b929592945050506040919091013590565b60008060008060008060008060006101208a8c031215611bd9578687fd5b8935611be48161244c565b985060208a0135975060408a0135965060608a013567ffffffffffffffff811115611c0d578586fd5b611c198c828d016119cf565b999c989b50969960808101359860a0820135985060c0820135975060e0820135965061010090910135945092505050565b60008060408385031215611c5c578182fd5b8235611c678161244c565b946020939093013593505050565b60006020808385031215611c87578182fd5b825167ffffffffffffffff811115611c9d578283fd5b8301601f81018513611cad578283fd5b8051611cbb61196f826123dc565b8181528381019083850185840285018601891015611cd7578687fd5b8694505b83851015611d02578051611cee8161244c565b835260019490940193918501918501611cdb565b50979650505050505050565b60008060408385031215611d20578182fd5b823567ffffffffffffffff80821115611d37578384fd5b818501915085601f830112611d4a578384fd5b8135611d5861196f826123dc565b80828252602080830192508086018a828387028901011115611d78578889fd5b8896505b84871015611da3578035611d8f8161244c565b845260019690960195928101928101611d7c565b509096508701359350505080821115611dba578283fd5b50611b3985828601611951565b60006020808385031215611dd9578182fd5b823567ffffffffffffffff811115611def578283fd5b8301601f81018513611dff578283fd5b8035611e0d61196f826123dc565b81815283810190838501865b84811015611e4257611e308a8884358901016119cf565b84529286019290860190600101611e19565b509098975050505050505050565b600060208284031215611e61578081fd5b81518015158114611636578182fd5b600060208284031215611e81578081fd5b815167ffffffffffffffff80821115611e98578283fd5b9083019060e08286031215611eab578283fd5b611eb560c06123b5565b82518152611ec686602085016119bf565b6020820152611ed88660408501611a6a565b6040820152611eea86608085016119bf565b606082015260a083015182811115611f00578485fd5b611f0c87828601611a1d565b60808301525060c083015182811115611f23578485fd5b611f2f87828601611a1d565b60a08301525095945050505050565b600060208284031215611f4f578081fd5b5035919050565b60008060408385031215611f68578182fd5b50508035926020909101359150565b600060208284031215611f88578081fd5b6116368383611aab565b60008151808452611faa816020860160208601612420565b601f01601f19169290920160200192915050565b60008251611fd0818460208701612420565b9190910192915050565b600066027b83a3ca334960cd1b82528351611ffc816007850160208801612420565b600160fd1b600791840191820152835161201d816008840160208801612420565b650815985d5b1d60d21b60089290910191820152600e01949350505050565b60006106f760f41b82528351612059816002850160208801612420565b602d60f81b600291840191820152835161207a816003840160208801612420565b01600301949350505050565b6001600160a01b0391909116815260200190565b6001600160a01b039384168152919092166020820152901515604082015260600190565b6001600160a01b03929092168252602082015260400190565b901515815260200190565b90815260200190565b9485526020850193909352604084019190915260608301526001600160a01b0316608082015260a00190565b6000602082526116366020830184611f92565b60208082526023908201527f45524332303a207472616e7366657220746f20746865207a65726f206164647260408201526265737360e81b606082015260800190565b60208082526022908201527f45524332303a20617070726f766520746f20746865207a65726f206164647265604082015261737360f01b606082015260800190565b6020808252601b908201527f536166654d6174683a206164646974696f6e206f766572666c6f770000000000604082015260600190565b6020808252601e908201527f536166654d6174683a207375627472616374696f6e206f766572666c6f770000604082015260600190565b6020808252602e908201527f436f6e747261637420696e7374616e63652068617320616c726561647920626560408201526d195b881a5b9a5d1a585b1a5e995960921b606082015260800190565b60208082526021908201527f45524332303a206275726e2066726f6d20746865207a65726f206164647265736040820152607360f81b606082015260800190565b60208082526025908201527f45524332303a207472616e736665722066726f6d20746865207a65726f206164604082015264647265737360d81b606082015260800190565b6020808252600b908201526a085a5cd0dbdb9d1c9858dd60aa1b604082015260600190565b60208082526024908201527f45524332303a20617070726f76652066726f6d20746865207a65726f206164646040820152637265737360e01b606082015260800190565b6020808252601f908201527f45524332303a206d696e7420746f20746865207a65726f206164647265737300604082015260600190565b9283526020830191909152604082015260600190565b60ff91909116815260200190565b60405181810167ffffffffffffffff811182821017156123d457600080fd5b604052919050565b600067ffffffffffffffff8211156123f2578081fd5b5060209081020190565b600067ffffffffffffffff821115612412578081fd5b50601f01601f191660200190565b60005b8381101561243b578181015183820152602001612423565b838111156106ac5750506000910152565b6001600160a01b038116811461082b57600080fdfe45524332303a206275726e20616d6f756e7420657863656564732062616c616e636545524332303a207472616e7366657220616d6f756e7420657863656564732062616c616e636545524332303a207472616e7366657220616d6f756e74206578636565647320616c6c6f77616e636545524332303a2064656372656173656420616c6c6f77616e63652062656c6f77207a65726fa164736f6c634300060c000a"
}