{
  "address": "0xff2fbd9fbc6d03baa77cf97a3d5671bea183b9a8",
  "abi": [
    {
      "inputs": [
        {
          "internalType": "address",
          "name": "admin",
          "type": "address"
        }
      ],
      "stateMutability": "nonpayable",
      "type": "constructor"
    },
    {
      "anonymous": false,
      "inputs": [
        {
          "indexed": true,
          "internalType": "address",
          "name": "implementation",
          "type": "address"
        }
      ],
      "name": "Upgraded",
      "type": "event"
    },
    {
      "stateMutability": "payable",
      "type": "fallback"
    },
    {
      "inputs": [],
      "name": "admin",
      "outputs": [
        {
          "internalType": "address",
          "name": "",
          "type": "address"
        }
      ],
      "stateMutability": "view",
      "type": "function"
    },
    {
      "inputs": [],
      "name": "implementation",
      "outputs": [
        {
          "internalType": "address",
          "name": "",
          "type": "address"
        }
      ],
      "stateMutability": "view",
      "type": "function"
    },
    {
      "inputs": [
        {
          "internalType": "address",
          "name": "_logic",
          "type": "address"
        },
        {
          "internalType": "bytes",
          "name": "_data",
          "type": "bytes"
        }
      ],
      "name": "initialize",
      "outputs": [],
      "stateMutability": "payable",
      "type": "function"
    },
    {
      "inputs": [
        {
          "internalType": "address",
          "name": "newImplementation",
          "type": "address"
        }
      ],
      "name": "upgradeTo",
      "outputs": [],
      "stateMutability": "nonpayable",
      "type": "function"
    },
    {
      "inputs": [
        {
          "internalType": "address",
          "name": "newImplementation",
          "type": "address"
        },
        {
          "internalType": "bytes",
          "name": "data",
          "type": "bytes"
        }
      ],
      "name": "upgradeToAndCall",
      "outputs": [],
      "stateMutability": "payable",
      "type": "function"
    }
  ],
  "transactionHash": "0xdedcc3ddf40cc6e230d583aa3b09dc396d0d4343e3441c2977df5baf7dec7285",
  "args": [
    "0xf980ea5758f71f418909688b6448b41acb5522e9"
  ],
  "bytecode": "0x608060405234801561001057600080fd5b50610338806100206000396000f3fe60806040526004361061001e5760003560e01c8063d1f5789414610028575b6100266100de565b005b6100266004803603604081101561003e57600080fd5b6001600160a01b03823516919081019060408101602082013564010000000081111561006957600080fd5b82018360208201111561007b57600080fd5b8035906020019184600183028401116401000000008311171561009d57600080fd5b91908080601f0160208091040260200160405190810160405280939291908181526020018383808284376000920191909152509295506100f8945050505050565b6100e66100f6565b6100f66100f16101da565b6101ff565b565b60006101026101da565b6001600160a01b03161461011557600080fd5b61011e82610223565b8051156101d6576000826001600160a01b0316826040518082805190602001908083835b602083106101615780518252601f199092019160209182019101610142565b6001836020036101000a038019825116818451168082178552505050505050905001915050600060405180830381855af49150503d80600081146101c1576040519150601f19603f3d011682016040523d82523d6000602084013e6101c6565b606091505b50509050806101d457600080fd5b505b5050565b7f360894a13ba1a3210667c828492db98dca3e2076cc3735a920a3ca505d382bbc5490565b3660008037600080366000845af43d6000803e80801561021e573d6000f35b3d6000fd5b61022c8161028b565b6102675760405162461bcd60e51b815260040180806020018281038252603b8152602001806102c8603b913960400191505060405180910390fd5b7f360894a13ba1a3210667c828492db98dca3e2076cc3735a920a3ca505d382bbc55565b6000813f7fc5d2460186f7233c927e7db2dcc703c0e500b653ca82273b7bfad8045d85a4708181148015906102bf57508115155b94935050505056fe43616e6e6f742073657420612070726f787920696d706c656d656e746174696f6e20746f2061206e6f6e2d636f6e74726163742061646472657373a2646970667358221220577ad95105c39d373a8a8782377e1efab5226ff7e29093e382b324442697fe3964736f6c634300060c0033",
  "deployedBytecode": "0x60806040526004361061004a5760003560e01c80633659cfe6146100545780634f1ef286146100875780635c60da1b14610107578063d1f5789414610138578063f851a440146101ee575b610052610203565b005b34801561006057600080fd5b506100526004803603602081101561007757600080fd5b50356001600160a01b031661021d565b6100526004803603604081101561009d57600080fd5b6001600160a01b0382351691908101906040810160208201356401000000008111156100c857600080fd5b8201836020820111156100da57600080fd5b803590602001918460018302840111640100000000831117156100fc57600080fd5b509092509050610267565b34801561011357600080fd5b5061011c610324565b604080516001600160a01b039092168252519081900360200190f35b6100526004803603604081101561014e57600080fd5b6001600160a01b03823516919081019060408101602082013564010000000081111561017957600080fd5b82018360208201111561018b57600080fd5b803590602001918460018302840111640100000000831117156101ad57600080fd5b91908080601f016020809104026020016040519081016040528093929190818152602001838380828437600092019190915250929550610333945050505050565b3480156101fa57600080fd5b5061011c610413565b61020b610437565b61021b61021661043f565b610464565b565b336001600160a01b037f000000000000000000000000f980ea5758f71f418909688b6448b41acb5522e916141561025c5761025781610488565b610264565b610264610203565b50565b336001600160a01b037f000000000000000000000000f980ea5758f71f418909688b6448b41acb5522e9161415610317576102a183610488565b6000836001600160a01b031683836040518083838082843760405192019450600093509091505080830381855af49150503d80600081146102fe576040519150601f19603f3d011682016040523d82523d6000602084013e610303565b606091505b505090508061031157600080fd5b5061031f565b61031f610203565b505050565b600061032e61043f565b905090565b600061033d61043f565b6001600160a01b03161461035057600080fd5b610359826104c8565b80511561040f576000826001600160a01b0316826040518082805190602001908083835b6020831061039c5780518252601f19909201916020918201910161037d565b6001836020036101000a038019825116818451168082178552505050505050905001915050600060405180830381855af49150503d80600081146103fc576040519150601f19603f3d011682016040523d82523d6000602084013e610401565b606091505b505090508061031f57600080fd5b5050565b7f000000000000000000000000f980ea5758f71f418909688b6448b41acb5522e990565b61021b610530565b7f360894a13ba1a3210667c828492db98dca3e2076cc3735a920a3ca505d382bbc5490565b3660008037600080366000845af43d6000803e808015610483573d6000f35b3d6000fd5b610491816104c8565b6040516001600160a01b038216907fbc7cd75a20ee27fd9adebab32041f755214dbc6bffa90cc0225b39da2e5c2d3b90600090a250565b6104d1816105a0565b61050c5760405162461bcd60e51b815260040180806020018281038252603b81526020018061060f603b913960400191505060405180910390fd5b7f360894a13ba1a3210667c828492db98dca3e2076cc3735a920a3ca505d382bbc55565b336001600160a01b037f000000000000000000000000f980ea5758f71f418909688b6448b41acb5522e91614156105985760405162461bcd60e51b81526004018080602001828103825260328152602001806105dd6032913960400191505060405180910390fd5b61021b61021b565b6000813f7fc5d2460186f7233c927e7db2dcc703c0e500b653ca82273b7bfad8045d85a4708181148015906105d457508115155b94935050505056fe43616e6e6f742063616c6c2066616c6c6261636b2066756e6374696f6e2066726f6d207468652070726f78792061646d696e43616e6e6f742073657420612070726f787920696d706c656d656e746174696f6e20746f2061206e6f6e2d636f6e74726163742061646472657373a2646970667358221220a4d98f212fe5db4dbad5dccff891114e52d0506ebd2d1c80b102f6dc106f09bc64736f6c634300060c0033"
}