{
  "address": "0x969545125Bd1DAeD1aEe8592c37f9E0c0a0c0fe9",
  "abi": [
    {
      "inputs": [
        {
          "internalType": "address",
          "name": "_registry",
          "type": "address"
        },
        {
          "internalType": "address",
          "name": "_optyFiOracle",
          "type": "address"
        }
      ],
      "stateMutability": "nonpayable",
      "type": "constructor"
    },
    {
      "anonymous": false,
      "inputs": [
        {
          "indexed": true,
          "internalType": "uint256",
          "name": "maxDepositAmount",
          "type": "uint256"
        },
        {
          "indexed": true,
          "internalType": "address",
          "name": "caller",
          "type": "address"
        }
      ],
      "name": "LogMaxDepositAmount",
      "type": "event"
    },
    {
      "anonymous": false,
      "inputs": [
        {
          "indexed": true,
          "internalType": "uint256",
          "name": "maxDepositPoolPct",
          "type": "uint256"
        },
        {
          "indexed": true,
          "internalType": "address",
          "name": "caller",
          "type": "address"
        }
      ],
      "name": "LogMaxDepositPoolPct",
      "type": "event"
    },
    {
      "anonymous": false,
      "inputs": [
        {
          "indexed": true,
          "internalType": "enum MaxExposure",
          "name": "maxDepositProtocolMode",
          "type": "uint8"
        },
        {
          "indexed": true,
          "internalType": "address",
          "name": "caller",
          "type": "address"
        }
      ],
      "name": "LogMaxDepositProtocolMode",
      "type": "event"
    },
    {
      "anonymous": false,
      "inputs": [
        {
          "indexed": true,
          "internalType": "uint256",
          "name": "maxDepositProtocolPct",
          "type": "uint256"
        },
        {
          "indexed": true,
          "internalType": "address",
          "name": "caller",
          "type": "address"
        }
      ],
      "name": "LogMaxDepositProtocolPct",
      "type": "event"
    },
    {
      "inputs": [],
      "name": "APE_USDT",
      "outputs": [
        {
          "internalType": "address",
          "name": "",
          "type": "address"
        }
      ],
      "stateMutability": "view",
      "type": "function"
    },
    {
      "inputs": [],
      "name": "CVX_WETH",
      "outputs": [
        {
          "internalType": "address",
          "name": "",
          "type": "address"
        }
      ],
      "stateMutability": "view",
      "type": "function"
    },
    {
      "inputs": [],
      "name": "DENOMINATOR",
      "outputs": [
        {
          "internalType": "uint256",
          "name": "",
          "type": "uint256"
        }
      ],
      "stateMutability": "view",
      "type": "function"
    },
    {
      "inputs": [],
      "name": "SUSHISWAP_ROUTER",
      "outputs": [
        {
          "internalType": "address",
          "name": "",
          "type": "address"
        }
      ],
      "stateMutability": "view",
      "type": "function"
    },
    {
      "inputs": [],
      "name": "WETH_ENS",
      "outputs": [
        {
          "internalType": "address",
          "name": "",
          "type": "address"
        }
      ],
      "stateMutability": "view",
      "type": "function"
    },
    {
      "inputs": [],
      "name": "WETH_IMX",
      "outputs": [
        {
          "internalType": "address",
          "name": "",
          "type": "address"
        }
      ],
      "stateMutability": "view",
      "type": "function"
    },
    {
      "inputs": [],
      "name": "WETH_JPEG",
      "outputs": [
        {
          "internalType": "address",
          "name": "",
          "type": "address"
        }
      ],
      "stateMutability": "view",
      "type": "function"
    },
    {
      "inputs": [],
      "name": "YGG_WETH",
      "outputs": [
        {
          "internalType": "address",
          "name": "",
          "type": "address"
        }
      ],
      "stateMutability": "view",
      "type": "function"
    },
    {
      "inputs": [
        {
          "internalType": "address",
          "name": "",
          "type": "address"
        },
        {
          "internalType": "address",
          "name": "",
          "type": "address"
        },
        {
          "internalType": "uint256",
          "name": "_amount",
          "type": "uint256"
        }
      ],
      "name": "calculateAmountInLPToken",
      "outputs": [
        {
          "internalType": "uint256",
          "name": "",
          "type": "uint256"
        }
      ],
      "stateMutability": "pure",
      "type": "function"
    },
    {
      "inputs": [
        {
          "internalType": "address payable",
          "name": "_vault",
          "type": "address"
        },
        {
          "internalType": "address",
          "name": "_underlyingToken",
          "type": "address"
        },
        {
          "internalType": "address",
          "name": "_masterChef",
          "type": "address"
        },
        {
          "internalType": "uint256",
          "name": "",
          "type": "uint256"
        }
      ],
      "name": "calculateRedeemableLPTokenAmount",
      "outputs": [
        {
          "internalType": "uint256",
          "name": "_amount",
          "type": "uint256"
        }
      ],
      "stateMutability": "view",
      "type": "function"
    },
    {
      "inputs": [
        {
          "internalType": "address",
          "name": "",
          "type": "address"
        }
      ],
      "name": "canStake",
      "outputs": [
        {
          "internalType": "bool",
          "name": "",
          "type": "bool"
        }
      ],
      "stateMutability": "pure",
      "type": "function"
    },
    {
      "inputs": [
        {
          "internalType": "address payable",
          "name": "_vault",
          "type": "address"
        },
        {
          "internalType": "address",
          "name": "_underlyingToken",
          "type": "address"
        }
      ],
      "name": "getAddLiquidityCodes",
      "outputs": [
        {
          "internalType": "bytes[]",
          "name": "",
          "type": "bytes[]"
        }
      ],
      "stateMutability": "view",
      "type": "function"
    },
    {
      "inputs": [
        {
          "internalType": "address payable",
          "name": "_vault",
          "type": "address"
        },
        {
          "internalType": "address",
          "name": "_underlyingToken",
          "type": "address"
        },
        {
          "internalType": "address",
          "name": "_masterChef",
          "type": "address"
        }
      ],
      "name": "getAllAmountInToken",
      "outputs": [
        {
          "internalType": "uint256",
          "name": "",
          "type": "uint256"
        }
      ],
      "stateMutability": "view",
      "type": "function"
    },
    {
      "inputs": [
        {
          "internalType": "address payable",
          "name": "_vault",
          "type": "address"
        },
        {
          "internalType": "address",
          "name": "_masterChef",
          "type": "address"
        }
      ],
      "name": "getClaimRewardTokenCode",
      "outputs": [
        {
          "internalType": "bytes[]",
          "name": "_codes",
          "type": "bytes[]"
        }
      ],
      "stateMutability": "view",
      "type": "function"
    },
    {
      "inputs": [
        {
          "internalType": "address payable",
          "name": "_vault",
          "type": "address"
        },
        {
          "internalType": "address",
          "name": "_underlyingToken",
          "type": "address"
        },
        {
          "internalType": "address",
          "name": "_masterChef",
          "type": "address"
        }
      ],
      "name": "getDepositAllCodes",
      "outputs": [
        {
          "internalType": "bytes[]",
          "name": "",
          "type": "bytes[]"
        }
      ],
      "stateMutability": "view",
      "type": "function"
    },
    {
      "inputs": [
        {
          "internalType": "address payable",
          "name": "_vault",
          "type": "address"
        },
        {
          "internalType": "address",
          "name": "_underlyingToken",
          "type": "address"
        },
        {
          "internalType": "address",
          "name": "_masterChef",
          "type": "address"
        },
        {
          "internalType": "uint256",
          "name": "_amount",
          "type": "uint256"
        }
      ],
      "name": "getDepositSomeCodes",
      "outputs": [
        {
          "internalType": "bytes[]",
          "name": "_codes",
          "type": "bytes[]"
        }
      ],
      "stateMutability": "view",
      "type": "function"
    },
    {
      "inputs": [
        {
          "internalType": "address payable",
          "name": "_vault",
          "type": "address"
        },
        {
          "internalType": "address",
          "name": "_underlyingToken",
          "type": "address"
        },
        {
          "internalType": "address",
          "name": "_masterChef",
          "type": "address"
        }
      ],
      "name": "getHarvestAllCodes",
      "outputs": [
        {
          "internalType": "bytes[]",
          "name": "",
          "type": "bytes[]"
        }
      ],
      "stateMutability": "view",
      "type": "function"
    },
    {
      "inputs": [
        {
          "internalType": "address payable",
          "name": "_vault",
          "type": "address"
        },
        {
          "internalType": "address",
          "name": "_underlyingToken",
          "type": "address"
        },
        {
          "internalType": "address",
          "name": "_masterChef",
          "type": "address"
        },
        {
          "internalType": "uint256",
          "name": "_rewardTokenAmount",
          "type": "uint256"
        }
      ],
      "name": "getHarvestSomeCodes",
      "outputs": [
        {
          "internalType": "bytes[]",
          "name": "",
          "type": "bytes[]"
        }
      ],
      "stateMutability": "view",
      "type": "function"
    },
    {
      "inputs": [
        {
          "internalType": "address",
          "name": "_underlyingToken",
          "type": "address"
        },
        {
          "internalType": "address",
          "name": "",
          "type": "address"
        }
      ],
      "name": "getLiquidityPoolToken",
      "outputs": [
        {
          "internalType": "address",
          "name": "",
          "type": "address"
        }
      ],
      "stateMutability": "pure",
      "type": "function"
    },
    {
      "inputs": [
        {
          "internalType": "address payable",
          "name": "_vault",
          "type": "address"
        },
        {
          "internalType": "address",
          "name": "_underlyingToken",
          "type": "address"
        },
        {
          "internalType": "address",
          "name": "_masterChef",
          "type": "address"
        }
      ],
      "name": "getLiquidityPoolTokenBalance",
      "outputs": [
        {
          "internalType": "uint256",
          "name": "",
          "type": "uint256"
        }
      ],
      "stateMutability": "view",
      "type": "function"
    },
    {
      "inputs": [
        {
          "internalType": "address",
          "name": "_masterChef",
          "type": "address"
        },
        {
          "internalType": "address",
          "name": "_underlyingToken",
          "type": "address"
        }
      ],
      "name": "getPoolValue",
      "outputs": [
        {
          "internalType": "uint256",
          "name": "",
          "type": "uint256"
        }
      ],
      "stateMutability": "view",
      "type": "function"
    },
    {
      "inputs": [
        {
          "internalType": "address",
          "name": "_masterChef",
          "type": "address"
        }
      ],
      "name": "getRewardToken",
      "outputs": [
        {
          "internalType": "address",
          "name": "",
          "type": "address"
        }
      ],
      "stateMutability": "view",
      "type": "function"
    },
    {
      "inputs": [
        {
          "internalType": "address",
          "name": "",
          "type": "address"
        },
        {
          "internalType": "address",
          "name": "",
          "type": "address"
        },
        {
          "internalType": "uint256",
          "name": "_amount",
          "type": "uint256"
        }
      ],
      "name": "getSomeAmountInToken",
      "outputs": [
        {
          "internalType": "uint256",
          "name": "",
          "type": "uint256"
        }
      ],
      "stateMutability": "pure",
      "type": "function"
    },
    {
      "inputs": [
        {
          "internalType": "address payable",
          "name": "_vault",
          "type": "address"
        },
        {
          "internalType": "address",
          "name": "_masterChef",
          "type": "address"
        },
        {
          "internalType": "address",
          "name": "_underlyingToken",
          "type": "address"
        }
      ],
      "name": "getUnclaimedRewardTokenAmount",
      "outputs": [
        {
          "internalType": "uint256",
          "name": "",
          "type": "uint256"
        }
      ],
      "stateMutability": "view",
      "type": "function"
    },
    {
      "inputs": [
        {
          "internalType": "address",
          "name": "",
          "type": "address"
        },
        {
          "internalType": "address",
          "name": "",
          "type": "address"
        }
      ],
      "name": "getUnderlyingTokens",
      "outputs": [
        {
          "internalType": "address[]",
          "name": "",
          "type": "address[]"
        }
      ],
      "stateMutability": "pure",
      "type": "function"
    },
    {
      "inputs": [
        {
          "internalType": "address payable",
          "name": "_vault",
          "type": "address"
        },
        {
          "internalType": "address",
          "name": "_underlyingToken",
          "type": "address"
        },
        {
          "internalType": "address",
          "name": "_masterChef",
          "type": "address"
        }
      ],
      "name": "getWithdrawAllCodes",
      "outputs": [
        {
          "internalType": "bytes[]",
          "name": "",
          "type": "bytes[]"
        }
      ],
      "stateMutability": "view",
      "type": "function"
    },
    {
      "inputs": [
        {
          "internalType": "address payable",
          "name": "_vault",
          "type": "address"
        },
        {
          "internalType": "address",
          "name": "_underlyingToken",
          "type": "address"
        },
        {
          "internalType": "address",
          "name": "_masterChef",
          "type": "address"
        },
        {
          "internalType": "uint256",
          "name": "_redeemAmount",
          "type": "uint256"
        }
      ],
      "name": "getWithdrawSomeCodes",
      "outputs": [
        {
          "internalType": "bytes[]",
          "name": "_codes",
          "type": "bytes[]"
        }
      ],
      "stateMutability": "view",
      "type": "function"
    },
    {
      "inputs": [
        {
          "internalType": "address payable",
          "name": "_vault",
          "type": "address"
        },
        {
          "internalType": "address",
          "name": "_underlyingToken",
          "type": "address"
        },
        {
          "internalType": "address",
          "name": "_masterChef",
          "type": "address"
        },
        {
          "internalType": "uint256",
          "name": "_redeemAmount",
          "type": "uint256"
        }
      ],
      "name": "isRedeemableAmountSufficient",
      "outputs": [
        {
          "internalType": "bool",
          "name": "",
          "type": "bool"
        }
      ],
      "stateMutability": "view",
      "type": "function"
    },
    {
      "inputs": [
        {
          "internalType": "address",
          "name": "",
          "type": "address"
        },
        {
          "internalType": "address",
          "name": "",
          "type": "address"
        }
      ],
      "name": "maxDepositAmount",
      "outputs": [
        {
          "internalType": "uint256",
          "name": "",
          "type": "uint256"
        }
      ],
      "stateMutability": "view",
      "type": "function"
    },
    {
      "inputs": [
        {
          "internalType": "address",
          "name": "",
          "type": "address"
        }
      ],
      "name": "maxDepositPoolPct",
      "outputs": [
        {
          "internalType": "uint256",
          "name": "",
          "type": "uint256"
        }
      ],
      "stateMutability": "view",
      "type": "function"
    },
    {
      "inputs": [],
      "name": "maxDepositProtocolMode",
      "outputs": [
        {
          "internalType": "enum MaxExposure",
          "name": "",
          "type": "uint8"
        }
      ],
      "stateMutability": "view",
      "type": "function"
    },
    {
      "inputs": [],
      "name": "maxDepositProtocolPct",
      "outputs": [
        {
          "internalType": "uint256",
          "name": "",
          "type": "uint256"
        }
      ],
      "stateMutability": "view",
      "type": "function"
    },
    {
      "inputs": [],
      "name": "optyFiOracle",
      "outputs": [
        {
          "internalType": "contract IOptyFiOracle",
          "name": "",
          "type": "address"
        }
      ],
      "stateMutability": "view",
      "type": "function"
    },
    {
      "inputs": [],
      "name": "registryContract",
      "outputs": [
        {
          "internalType": "contract IAdapterRegistryBase",
          "name": "",
          "type": "address"
        }
      ],
      "stateMutability": "view",
      "type": "function"
    },
    {
      "inputs": [
        {
          "internalType": "address",
          "name": "_masterChef",
          "type": "address"
        },
        {
          "internalType": "address",
          "name": "_underlyingToken",
          "type": "address"
        },
        {
          "internalType": "uint256",
          "name": "_maxDepositAmount",
          "type": "uint256"
        }
      ],
      "name": "setMaxDepositAmount",
      "outputs": [],
      "stateMutability": "nonpayable",
      "type": "function"
    },
    {
      "inputs": [
        {
          "internalType": "address",
          "name": "_underlyingToken",
          "type": "address"
        },
        {
          "internalType": "uint256",
          "name": "_maxDepositPoolPct",
          "type": "uint256"
        }
      ],
      "name": "setMaxDepositPoolPct",
      "outputs": [],
      "stateMutability": "nonpayable",
      "type": "function"
    },
    {
      "inputs": [
        {
          "internalType": "enum MaxExposure",
          "name": "_mode",
          "type": "uint8"
        }
      ],
      "name": "setMaxDepositProtocolMode",
      "outputs": [],
      "stateMutability": "nonpayable",
      "type": "function"
    },
    {
      "inputs": [
        {
          "internalType": "uint256",
          "name": "_maxDepositProtocolPct",
          "type": "uint256"
        }
      ],
      "name": "setMaxDepositProtocolPct",
      "outputs": [],
      "stateMutability": "nonpayable",
      "type": "function"
    },
    {
      "inputs": [
        {
          "internalType": "address",
          "name": "_optyFiOracle",
          "type": "address"
        }
      ],
      "name": "setOptyFiOracle",
      "outputs": [],
      "stateMutability": "nonpayable",
      "type": "function"
    },
    {
      "inputs": [
        {
          "internalType": "address",
          "name": "_registry",
          "type": "address"
        }
      ],
      "name": "setRegistry",
      "outputs": [],
      "stateMutability": "nonpayable",
      "type": "function"
    },
    {
      "inputs": [
        {
          "components": [
            {
              "internalType": "address",
              "name": "underlyingToken",
              "type": "address"
            },
            {
              "internalType": "uint256",
              "name": "pid",
              "type": "uint256"
            }
          ],
          "internalType": "struct SushiswapMasterChefV2AdapterEthereum.Pid[]",
          "name": "_pids",
          "type": "tuple[]"
        }
      ],
      "name": "setUnderlyingTokenToPid",
      "outputs": [],
      "stateMutability": "nonpayable",
      "type": "function"
    },
    {
      "inputs": [
        {
          "components": [
            {
              "internalType": "address",
              "name": "underlyingToken",
              "type": "address"
            },
            {
              "internalType": "uint256",
              "name": "tolerance",
              "type": "uint256"
            }
          ],
          "internalType": "struct SushiswapMasterChefV2AdapterEthereum.Tolerance[]",
          "name": "_tolerances",
          "type": "tuple[]"
        }
      ],
      "name": "setUnderlyingTokenToTolerance",
      "outputs": [],
      "stateMutability": "nonpayable",
      "type": "function"
    },
    {
      "inputs": [
        {
          "internalType": "address",
          "name": "",
          "type": "address"
        }
      ],
      "name": "underlyingTokenToPid",
      "outputs": [
        {
          "internalType": "uint256",
          "name": "",
          "type": "uint256"
        }
      ],
      "stateMutability": "view",
      "type": "function"
    },
    {
      "inputs": [
        {
          "internalType": "address",
          "name": "",
          "type": "address"
        }
      ],
      "name": "underlyingTokenToTolerance",
      "outputs": [
        {
          "internalType": "uint256",
          "name": "",
          "type": "uint256"
        }
      ],
      "stateMutability": "view",
      "type": "function"
    }
  ],
  "transactionHash": "0x2f244cf0205ad2e8b070b978a04d76ab9fcd7e2cb3eae90b449fee8f0fc694dc",
  "args": [
    "0x99fa011e33a8c6196869dec7bc407e896ba67fe3",
    "0xf34bf99d10AA7993D43588D6dD916dFB3ff33123"
  ],
  "numDeployments": 1,
  "bytecode": "0x60806040523480156200001157600080fd5b50604051620029d1380380620029d183398101604081905262000034916200018e565b6000805461271060019081556001600160a01b039485166001600160a81b031990921691909117600160a01b178255600560205260067f3c69fd084857244e6ff55b1e1bf1a5b3d9796d69cfaabafced9dec88a73b32565560187fe63f05920a066cba5a9cec676dc8cb254661c9c5fbf9d91bfe9cb76fdbd2f74655601b7ffec26fd5dbe1d638e65ffe0db789738a51df6c9fbb135726eb7af541305117955560367f31e8dcb5921a734ae74ad4238e8f0e971f6021ff2d38ac4cb8a2733fe3d2a1185560377fe0e0cd91ae6dff80fc85dc883b7e848377d5b30c518b51b81f1045e49fd57275557305767d9ef41dc40689678ffca0608878fb3de9069091527fed1b0a5435199d2ebb3ca4fc7cffd09f1712abc843b5c6c547c4ee4dcc62068455600280546001600160a01b03191691909216179055620001c6565b80516001600160a01b03811681146200018957600080fd5b919050565b60008060408385031215620001a257600080fd5b620001ad8362000171565b9150620001bd6020840162000171565b90509250929050565b6127fb80620001d66000396000f3fe608060405234801561001057600080fd5b50600436106102745760003560e01c806390e6160511610151578063d74baaf8116100c3578063e40a299a11610087578063e40a299a146105ef578063e49d5ecc1461060a578063ee665bed14610484578063ef856be91461061d578063f1aacbb71461063d578063f49307ca1461065057600080fd5b8063d74baaf814610589578063d99477111461059b578063da699f96146105ae578063db06231f146105c1578063df935722146105dc57600080fd5b8063a91ee0dc11610115578063a91ee0dc146104fa578063aab97a9e1461050d578063af1a556e1461052d578063b3fe7f5a14610548578063d463fcf61461055b578063d6dd6ae61461056e57600080fd5b806390e6160514610422578063918f8674146104ab578063919b69d7146104b457806393f83f51146104c7578063a222f7e0146104da57600080fd5b80634ad36e02116101ea5780636d267d7c116101ae5780636d267d7c1461043557806377078872146104485780637c47b3f41461045b5780637df50ed81461046e57806385541e441461048457806388bbd0f01461049857600080fd5b80634ad36e02146103c15780634f83b52d146103d457806356ee07ba146103f4578063609257791461040f57806364dd5f801461042257600080fd5b806328c1f99b1161023c57806328c1f99b146103285780632af06b961461033b5780632de778381461035c57806336d8bf931461036f57806339a99bc014610393578063489b5295146103ae57600080fd5b8063027a304d146102795780630c9d8d5c146102b7578063191c194b146102d757806327503290146102e0578063277754ed146102f5575b600080fd5b6102a4610287366004611f7a565b600460209081526000928352604080842090915290825290205481565b6040519081526020015b60405180910390f35b6102ca6102c5366004611fb3565b610663565b6040516102ae919061204b565b6102a460015481565b6102f36102ee3660046120ad565b6106e8565b005b61031073d9e1ce17f2641f24ae83637ab66a2cca9c378b9f81565b6040516001600160a01b0390911681526020016102ae565b600054610310906001600160a01b031681565b60005461034f90600160a01b900460ff1681565b6040516102ae91906120e0565b6102a461036a366004611f7a565b6107b8565b61038361037d3660046120ad565b50600090565b60405190151581526020016102ae565b6103107305767d9ef41dc40689678ffca0608878fb3de90681565b6102ca6103bc366004611fb3565b61082d565b6102a46103cf366004612108565b6108a5565b6102a46103e23660046120ad565b60036020526000908152604090205481565b61031073a1181481beb2dc5de0daf2c85392d81c704bf75d81565b6102ca61041d366004612108565b610934565b6102a4610430366004611fb3565b610a11565b6102ca610443366004611f7a565b610a75565b6103106104563660046120ad565b610c87565b6102f3610469366004612159565b610ceb565b6102ca61047c366004611f7a565b606092915050565b6102a461049236600461217a565b92915050565b6102f36104a6366004612207565b610e06565b6102a461271081565b6102f36104c2366004612249565b610f31565b6102f36104d5366004612207565b61101f565b6102a46104e83660046120ad565b60066020526000908152604090205481565b6102f36105083660046120ad565b611144565b6102a461051b3660046120ad565b60056020526000908152604090205481565b6103107318cd890f4e23422dc4aa8c2d6e0bd3f3bd8873d881565b6102a4610556366004611fb3565b611250565b6102ca610569366004612108565b6112d6565b6103107399b42f2b49c395d2a77d973f6009abb5d67da34381565b610310610597366004611f7a565b5090565b600254610310906001600160a01b031681565b6102f36105bc366004612275565b6112f5565b61031073db06a76733528761eda47d356647297bc35a98bd81565b6102ca6105ea366004612108565b6113cf565b61031073b27c7b131cf4915bec6c4bc1ce2f33f9ee434b9f81565b610383610618366004612108565b6115c9565b61063061062b366004611f7a565b6115e2565b6040516102ae91906122d2565b6102f361064b36600461217a565b611616565b6102ca61065e366004611fb3565b611714565b60606106e084848461067486610c87565b6040516370a0823160e01b81526001600160a01b038a8116600483015291909116906370a0823190602401602060405180830381865afa1580156106bc573d6000803e3d6000fd5b505050506040513d601f19601f8201168201806040525081019061056991906122e5565b949350505050565b60008054906101000a90046001600160a01b03166001600160a01b031663e7f43c686040518163ffffffff1660e01b8152600401602060405180830381865afa158015610739573d6000803e3d6000fd5b505050506040513d601f19601f8201168201806040525081019061075d91906122fe565b6001600160a01b0316336001600160a01b0316146107965760405162461bcd60e51b815260040161078d9061231b565b60405180910390fd5b600280546001600160a01b0319166001600160a01b0392909216919091179055565b6040516370a0823160e01b81526001600160a01b038381166004830152600091908316906370a0823190602401602060405180830381865afa158015610802573d6000803e3d6000fd5b505050506040513d601f19601f8201168201806040525081019061082691906122e5565b9392505050565b6040516370a0823160e01b81526001600160a01b0380851660048301526060916106e091869186918691908316906370a0823190602401602060405180830381865afa158015610881573d6000803e3d6000fd5b505050506040513d601f19601f820116820180604052508101906105ea91906122e5565b6001600160a01b038381166000908152600560205260408082205490516393f1a40b60e01b81526004810191909152868316602482015290918416906393f1a40b906044016040805180830381865afa158015610906573d6000803e3d6000fd5b505050506040513d601f19601f8201168201806040525081019061092a9190612352565b5095945050505050565b606081156106e05760408051600180825281830190925290816020015b6060815260200190600190039081610951579050506001600160a01b03858116600090815260056020526040908190205490516024810191909152604481018590529087166064820152909150839060840160408051601f19818403018152918152602080830180516001600160e01b0316630ad58d2f60e01b17905290516109dc9392910161238c565b604051602081830303815290604052816000815181106109fe576109fe6123b0565b6020026020010181905250949350505050565b6001600160a01b038281166000908152600560205260408082205490516393f1a40b60e01b81526004810191909152858316602482015290918291908416906393f1a40b906044016040805180830381865afa158015610906573d6000803e3d6000fd5b60606000836001600160a01b031663a37085846040518163ffffffff1660e01b8152600401600060405180830381865afa158015610ab7573d6000803e3d6000fd5b505050506040513d6000823e601f3d908101601f19168201604052610adf9190810190612444565b805190915060006001821415610b7d5760056000876001600160a01b0316632495a5996040518163ffffffff1660e01b8152600401602060405180830381865afa158015610b31573d6000803e3d6000fd5b505050506040513d601f19601f82011682018060405250810190610b5591906122fe565b6001600160a01b03166001600160a01b03168152602001908152602001600020549050610bcd565b6005600084610b8d60028661253e565b81518110610b9d57610b9d6123b0565b6020026020010151602001516001600160a01b03166001600160a01b031681526020019081526020016000205490505b60408051600180825281830190925290816020015b6060815260200190600190039081610be257905050604051602481018390526001600160a01b0388166044820152909450859060640160408051601f19818403018152918152602080830180516001600160e01b0316630c7e663b60e11b1790529051610c519392910161238c565b60405160208183030381529060405284600081518110610c7357610c736123b0565b602002602001018190525050505092915050565b6000816001600160a01b031663ab560e106040518163ffffffff1660e01b8152600401602060405180830381865afa158015610cc7573d6000803e3d6000fd5b505050506040513d601f19601f8201168201806040525081019061049291906122fe565b60008054906101000a90046001600160a01b03166001600160a01b0316637af0e5576040518163ffffffff1660e01b8152600401602060405180830381865afa158015610d3c573d6000803e3d6000fd5b505050506040513d601f19601f82011682018060405250810190610d6091906122fe565b6001600160a01b0316336001600160a01b031614610d905760405162461bcd60e51b815260040161078d90612555565b6000805482919060ff60a01b1916600160a01b836001811115610db557610db56120ca565b02179055506000543390600160a01b900460ff166001811115610dda57610dda6120ca565b6040517f68e3b01155b193b02181f2c0ed491c934a74348d211ff023f8fc6ac5edf22aa090600090a350565b60008054906101000a90046001600160a01b03166001600160a01b031663e7f43c686040518163ffffffff1660e01b8152600401602060405180830381865afa158015610e57573d6000803e3d6000fd5b505050506040513d601f19601f82011682018060405250810190610e7b91906122fe565b6001600160a01b0316336001600160a01b031614610eab5760405162461bcd60e51b815260040161078d9061231b565b8060005b81811015610f2b57838382818110610ec957610ec96123b0565b9050604002016020013560056000868685818110610ee957610ee96123b0565b610eff92602060409092020190810191506120ad565b6001600160a01b0316815260208101919091526040016000205580610f238161258c565b915050610eaf565b50505050565b60008054906101000a90046001600160a01b03166001600160a01b0316637af0e5576040518163ffffffff1660e01b8152600401602060405180830381865afa158015610f82573d6000803e3d6000fd5b505050506040513d601f19601f82011682018060405250810190610fa691906122fe565b6001600160a01b0316336001600160a01b031614610fd65760405162461bcd60e51b815260040161078d90612555565b6001600160a01b03821660009081526003602052604080822083905551339183917fac58e29a41d996caca756d050dce90806b277f0c939337653638329247e16f4c9190a35050565b60008054906101000a90046001600160a01b03166001600160a01b0316637af0e5576040518163ffffffff1660e01b8152600401602060405180830381865afa158015611070573d6000803e3d6000fd5b505050506040513d601f19601f8201168201806040525081019061109491906122fe565b6001600160a01b0316336001600160a01b0316146110c45760405162461bcd60e51b815260040161078d90612555565b8060005b81811015610f2b578383828181106110e2576110e26123b0565b9050604002016020013560066000868685818110611102576111026123b0565b61111892602060409092020190810191506120ad565b6001600160a01b031681526020810191909152604001600020558061113c8161258c565b9150506110c8565b60008054906101000a90046001600160a01b03166001600160a01b031663e7f43c686040518163ffffffff1660e01b8152600401602060405180830381865afa158015611195573d6000803e3d6000fd5b505050506040513d601f19601f820116820180604052508101906111b991906122fe565b6001600160a01b0316336001600160a01b0316146111e95760405162461bcd60e51b815260040161078d9061231b565b6001600160a01b0381163b61122e5760405162461bcd60e51b815260206004820152600b60248201526a085a5cd0dbdb9d1c9858dd60aa1b604482015260640161078d565b600080546001600160a01b0319166001600160a01b0392909216919091179055565b6001600160a01b0381811660009081526005602052604080822054905163065509bb60e21b815260048101919091528583166024820152909184169063195426ec90604401602060405180830381865afa1580156112b2573d6000803e3d6000fd5b505050506040513d601f19601f820116820180604052508101906106e091906122e5565b60606112ec856112e585610c87565b8685611727565b95945050505050565b60008054906101000a90046001600160a01b03166001600160a01b0316637af0e5576040518163ffffffff1660e01b8152600401602060405180830381865afa158015611346573d6000803e3d6000fd5b505050506040513d601f19601f8201168201806040525081019061136a91906122fe565b6001600160a01b0316336001600160a01b03161461139a5760405162461bcd60e51b815260040161078d90612555565b6001819055604051339082907f19c60b0612798cc65bd298cd47e17d9fd07e74e0d3baa6c0019411bb334d9bda90600090a350565b606060006113de848685611a4b565b905080156115c0576040805160038082526080820190925290816020015b60608152602001906001900390816113fc579050506040516001600160a01b038616602482015260006044820152909250859060640160408051601f19818403018152918152602080830180516001600160e01b031663095ea7b360e01b179052905161146b9392910161238c565b6040516020818303038152906040528260008151811061148d5761148d6123b0565b60209081029190910101526040516001600160a01b038516602482015260448101829052859060640160408051601f19818403018152918152602080830180516001600160e01b031663095ea7b360e01b17905290516114ef9392910161238c565b60405160208183030381529060405282600181518110611511576115116123b0565b6020908102919091018101919091526001600160a01b038087166000908152600590925260409182902054915160248101929092526044820183905287166064820152849060840160408051601f19818403018152918152602080830180516001600160e01b0316638dbdbe6d60e01b17905290516115929392910161238c565b604051602081830303815290604052826002815181106115b4576115b46123b0565b60200260200101819052505b50949350505050565b6000816115d7868686610a11565b101595945050505050565b60405162461bcd60e51b815260206004820152600660248201526521656d70747960d01b604482015260609060640161078d565b60008054906101000a90046001600160a01b03166001600160a01b0316637af0e5576040518163ffffffff1660e01b8152600401602060405180830381865afa158015611667573d6000803e3d6000fd5b505050506040513d601f19601f8201168201806040525081019061168b91906122fe565b6001600160a01b0316336001600160a01b0316146116bb5760405162461bcd60e51b815260040161078d90612555565b6001600160a01b03838116600090815260046020908152604080832093861683529290528181208390559051339183917f197807a6a2633dd9bde6550aca985cfc69e655e9130930314c0e9da01a75cc549190a3505050565b60606106e084848461041d888888610a11565b606081156106e057600073d9e1ce17f2641f24ae83637ab66a2cca9c378b9f63d06ca61f846117568888611ab7565b6040518363ffffffff1660e01b81526004016117739291906125a7565b600060405180830381865afa158015611790573d6000803e3d6000fd5b505050506040513d6000823e601f3d908101601f191682016040526117b891908101906125c0565b9050600081600183516117cb919061253e565b815181106117db576117db6123b0565b602002602001015111156115c05760006117f6848787611d21565b60408051600380825260808201909252919250816020015b606081526020019060019003908161180e5750506040805173d9e1ce17f2641f24ae83637ab66a2cca9c378b9f602482015260006044808301919091528251808303909101815260649091018252602080820180516001600160e01b031663095ea7b360e01b17905291519295506118889289920161238c565b604051602081830303815290604052836000815181106118aa576118aa6123b0565b6020908102919091018101919091526040805173d9e1ce17f2641f24ae83637ab66a2cca9c378b9f60248201526044808201889052825180830390910181526064909101825280830180516001600160e01b031663095ea7b360e01b1790529051611918928992910161238c565b6040516020818303038152906040528360018151811061193a5761193a6123b0565b602002602001018190525073d9e1ce17f2641f24ae83637ab66a2cca9c378b9f806001600160a01b03166338ed173986612710600660008b6001600160a01b03166001600160a01b03168152602001908152602001600020546127106119a0919061253e565b6119aa9087612646565b6119b49190612665565b6119be8b8b611ab7565b8c6000196040516024016119d6959493929190612687565b604051602081830303815290604052915060e01b6020820180516001600160e01b038381831617835250505050604051602001611a1492919061238c565b60405160208183030381529060405283600281518110611a3657611a366123b0565b60200260200101819052505050949350505050565b6000806001600054600160a01b900460ff166001811115611a6e57611a6e6120ca565b14611a9e576001600160a01b03808616600090815260046020908152604080832093881683529290522054611aa8565b611aa88585611ef2565b90508083116106e057826112ec565b6060600073d9e1ce17f2641f24ae83637ab66a2cca9c378b9f6001600160a01b031663ad5c46486040518163ffffffff1660e01b8152600401602060405180830381865afa158015611b0d573d6000803e3d6000fd5b505050506040513d601f19601f82011682018060405250810190611b3191906122fe565b9050806001600160a01b0316836001600160a01b03161415611bda5760408051600280825260608201835290916020830190803683370190505091508382600081518110611b8157611b816123b0565b60200260200101906001600160a01b031690816001600160a01b0316815250508082600181518110611bb557611bb56123b0565b60200260200101906001600160a01b031690816001600160a01b031681525050611d1a565b806001600160a01b0316846001600160a01b03161415611c5c5760408051600280825260608201835290916020830190803683370190505091508082600081518110611c2857611c286123b0565b60200260200101906001600160a01b031690816001600160a01b0316815250508282600181518110611bb557611bb56123b0565b6040805160038082526080820190925290602082016060803683370190505091508382600081518110611c9157611c916123b0565b60200260200101906001600160a01b031690816001600160a01b0316815250508082600181518110611cc557611cc56123b0565b60200260200101906001600160a01b031690816001600160a01b0316815250508282600281518110611cf957611cf96123b0565b60200260200101906001600160a01b031690816001600160a01b0316815250505b5092915050565b60025460405163057d4cc360e51b81526001600160a01b0384811660048301528381166024830152600092839291169063afa9986090604401602060405180830381865afa158015611d77573d6000803e3d6000fd5b505050506040513d601f19601f82011682018060405250810190611d9b91906122e5565b905060008111611dd65760405162461bcd60e51b815260206004820152600660248201526521707269636560d01b604482015260640161078d565b6000846001600160a01b031663313ce5676040518163ffffffff1660e01b8152600401602060405180830381865afa158015611e16573d6000803e3d6000fd5b505050506040513d601f19601f82011682018060405250810190611e3a91906126c3565b60ff1690506000846001600160a01b031663313ce5676040518163ffffffff1660e01b8152600401602060405180830381865afa158015611e7f573d6000803e3d6000fd5b505050506040513d601f19601f82011682018060405250810190611ea391906126c3565b60ff169050611eb38260126126e6565b611ebe90600a6127e2565b611ec982600a6127e2565b611ed3858a612646565b611edd9190612646565b611ee79190612665565b979650505050505050565b600080611eff84846107b8565b6001600160a01b0384166000908152600360205260408120549192508115611f3d57612710611f2e8385612646565b611f389190612665565b611f58565b61271060015484611f4e9190612646565b611f589190612665565b9695505050505050565b6001600160a01b0381168114611f7757600080fd5b50565b60008060408385031215611f8d57600080fd5b8235611f9881611f62565b91506020830135611fa881611f62565b809150509250929050565b600080600060608486031215611fc857600080fd5b8335611fd381611f62565b92506020840135611fe381611f62565b91506040840135611ff381611f62565b809150509250925092565b6000815180845260005b8181101561202457602081850181015186830182015201612008565b81811115612036576000602083870101525b50601f01601f19169290920160200192915050565b6000602080830181845280855180835260408601915060408160051b870101925083870160005b828110156120a057603f1988860301845261208e858351611ffe565b94509285019290850190600101612072565b5092979650505050505050565b6000602082840312156120bf57600080fd5b813561082681611f62565b634e487b7160e01b600052602160045260246000fd5b602081016002831061210257634e487b7160e01b600052602160045260246000fd5b91905290565b6000806000806080858703121561211e57600080fd5b843561212981611f62565b9350602085013561213981611f62565b9250604085013561214981611f62565b9396929550929360600135925050565b60006020828403121561216b57600080fd5b81356002811061082657600080fd5b60008060006060848603121561218f57600080fd5b833561219a81611f62565b925060208401356121aa81611f62565b929592945050506040919091013590565b60008083601f8401126121cd57600080fd5b50813567ffffffffffffffff8111156121e557600080fd5b6020830191508360208260061b850101111561220057600080fd5b9250929050565b6000806020838503121561221a57600080fd5b823567ffffffffffffffff81111561223157600080fd5b61223d858286016121bb565b90969095509350505050565b6000806040838503121561225c57600080fd5b823561226781611f62565b946020939093013593505050565b60006020828403121561228757600080fd5b5035919050565b600081518084526020808501945080840160005b838110156122c75781516001600160a01b0316875295820195908201906001016122a2565b509495945050505050565b602081526000610826602083018461228e565b6000602082840312156122f757600080fd5b5051919050565b60006020828403121561231057600080fd5b815161082681611f62565b6020808252601a908201527f63616c6c6572206973206e6f7420746865206f70657261746f72000000000000604082015260600190565b6000806040838503121561236557600080fd5b505080516020909101519092909150565b634e487b7160e01b600052604160045260246000fd5b6001600160a01b03831681526040602082018190526000906106e090830184611ffe565b634e487b7160e01b600052603260045260246000fd5b6040516060810167ffffffffffffffff811182821017156123e9576123e9612376565b60405290565b604051601f8201601f1916810167ffffffffffffffff8111828210171561241857612418612376565b604052919050565b600067ffffffffffffffff82111561243a5761243a612376565b5060051b60200190565b6000602080838503121561245757600080fd5b825167ffffffffffffffff81111561246e57600080fd5b8301601f8101851361247f57600080fd5b805161249261248d82612420565b6123ef565b818152606091820283018401918482019190888411156124b157600080fd5b938501935b8385101561251c5780858a0312156124ce5760008081fd5b6124d66123c6565b85516124e181611f62565b8152858701516124f081611f62565b8188015260408681015180151581146125095760008081fd5b90820152835293840193918501916124b6565b50979650505050505050565b634e487b7160e01b600052601160045260246000fd5b60008282101561255057612550612528565b500390565b6020808252601e908201527f63616c6c6572206973206e6f7420746865207269736b4f70657261746f720000604082015260600190565b60006000198214156125a0576125a0612528565b5060010190565b8281526040602082015260006106e0604083018461228e565b600060208083850312156125d357600080fd5b825167ffffffffffffffff8111156125ea57600080fd5b8301601f810185136125fb57600080fd5b805161260961248d82612420565b81815260059190911b8201830190838101908783111561262857600080fd5b928401925b82841015611ee75783518252928401929084019061262d565b600081600019048311821515161561266057612660612528565b500290565b60008261268257634e487b7160e01b600052601260045260246000fd5b500490565b85815284602082015260a0604082015260006126a660a083018661228e565b6001600160a01b0394909416606083015250608001529392505050565b6000602082840312156126d557600080fd5b815160ff8116811461082657600080fd5b600082198211156126f9576126f9612528565b500190565b600181815b8085111561273957816000190482111561271f5761271f612528565b8085161561272c57918102915b93841c9390800290612703565b509250929050565b60008261275057506001610492565b8161275d57506000610492565b8160018114612773576002811461277d57612799565b6001915050610492565b60ff84111561278e5761278e612528565b50506001821b610492565b5060208310610133831016604e8410600b84101617156127bc575081810a610492565b6127c683836126fe565b80600019048211156127da576127da612528565b029392505050565b6000610826838361274156fea164736f6c634300080b000a"
}