{
  "address": "0xBB1722f47C7293847857e733A8C2Da07fdFd49a8",
  "abi": [
    {
      "inputs": [
        {
          "internalType": "address",
          "name": "_registry",
          "type": "address"
        },
        {
          "internalType": "address",
          "name": "_optyFiOracle",
          "type": "address"
        }
      ],
      "stateMutability": "nonpayable",
      "type": "constructor"
    },
    {
      "anonymous": false,
      "inputs": [
        {
          "indexed": true,
          "internalType": "uint256",
          "name": "maxDepositAmount",
          "type": "uint256"
        },
        {
          "indexed": true,
          "internalType": "address",
          "name": "caller",
          "type": "address"
        }
      ],
      "name": "LogMaxDepositAmount",
      "type": "event"
    },
    {
      "anonymous": false,
      "inputs": [
        {
          "indexed": true,
          "internalType": "uint256",
          "name": "maxDepositPoolPct",
          "type": "uint256"
        },
        {
          "indexed": true,
          "internalType": "address",
          "name": "caller",
          "type": "address"
        }
      ],
      "name": "LogMaxDepositPoolPct",
      "type": "event"
    },
    {
      "anonymous": false,
      "inputs": [
        {
          "indexed": true,
          "internalType": "enum MaxExposure",
          "name": "maxDepositProtocolMode",
          "type": "uint8"
        },
        {
          "indexed": true,
          "internalType": "address",
          "name": "caller",
          "type": "address"
        }
      ],
      "name": "LogMaxDepositProtocolMode",
      "type": "event"
    },
    {
      "anonymous": false,
      "inputs": [
        {
          "indexed": true,
          "internalType": "uint256",
          "name": "maxDepositProtocolPct",
          "type": "uint256"
        },
        {
          "indexed": true,
          "internalType": "address",
          "name": "caller",
          "type": "address"
        }
      ],
      "name": "LogMaxDepositProtocolPct",
      "type": "event"
    },
    {
      "inputs": [],
      "name": "AAVE",
      "outputs": [
        {
          "internalType": "address",
          "name": "",
          "type": "address"
        }
      ],
      "stateMutability": "view",
      "type": "function"
    },
    {
      "inputs": [],
      "name": "AAVE_WETH",
      "outputs": [
        {
          "internalType": "address",
          "name": "",
          "type": "address"
        }
      ],
      "stateMutability": "view",
      "type": "function"
    },
    {
      "inputs": [],
      "name": "ALCX",
      "outputs": [
        {
          "internalType": "address",
          "name": "",
          "type": "address"
        }
      ],
      "stateMutability": "view",
      "type": "function"
    },
    {
      "inputs": [],
      "name": "ALCX_WETH",
      "outputs": [
        {
          "internalType": "address",
          "name": "",
          "type": "address"
        }
      ],
      "stateMutability": "view",
      "type": "function"
    },
    {
      "inputs": [],
      "name": "APE",
      "outputs": [
        {
          "internalType": "address",
          "name": "",
          "type": "address"
        }
      ],
      "stateMutability": "view",
      "type": "function"
    },
    {
      "inputs": [],
      "name": "APE_USDT",
      "outputs": [
        {
          "internalType": "address",
          "name": "",
          "type": "address"
        }
      ],
      "stateMutability": "view",
      "type": "function"
    },
    {
      "inputs": [],
      "name": "COMP",
      "outputs": [
        {
          "internalType": "address",
          "name": "",
          "type": "address"
        }
      ],
      "stateMutability": "view",
      "type": "function"
    },
    {
      "inputs": [],
      "name": "COMP_WETH",
      "outputs": [
        {
          "internalType": "address",
          "name": "",
          "type": "address"
        }
      ],
      "stateMutability": "view",
      "type": "function"
    },
    {
      "inputs": [],
      "name": "CRV",
      "outputs": [
        {
          "internalType": "address",
          "name": "",
          "type": "address"
        }
      ],
      "stateMutability": "view",
      "type": "function"
    },
    {
      "inputs": [],
      "name": "CRV_WETH",
      "outputs": [
        {
          "internalType": "address",
          "name": "",
          "type": "address"
        }
      ],
      "stateMutability": "view",
      "type": "function"
    },
    {
      "inputs": [],
      "name": "CVX",
      "outputs": [
        {
          "internalType": "address",
          "name": "",
          "type": "address"
        }
      ],
      "stateMutability": "view",
      "type": "function"
    },
    {
      "inputs": [],
      "name": "CVX_WETH",
      "outputs": [
        {
          "internalType": "address",
          "name": "",
          "type": "address"
        }
      ],
      "stateMutability": "view",
      "type": "function"
    },
    {
      "inputs": [],
      "name": "DENOMINATOR",
      "outputs": [
        {
          "internalType": "uint256",
          "name": "",
          "type": "uint256"
        }
      ],
      "stateMutability": "view",
      "type": "function"
    },
    {
      "inputs": [],
      "name": "ENS",
      "outputs": [
        {
          "internalType": "address",
          "name": "",
          "type": "address"
        }
      ],
      "stateMutability": "view",
      "type": "function"
    },
    {
      "inputs": [],
      "name": "ENS_WETH",
      "outputs": [
        {
          "internalType": "address",
          "name": "",
          "type": "address"
        }
      ],
      "stateMutability": "view",
      "type": "function"
    },
    {
      "inputs": [],
      "name": "IMX",
      "outputs": [
        {
          "internalType": "address",
          "name": "",
          "type": "address"
        }
      ],
      "stateMutability": "view",
      "type": "function"
    },
    {
      "inputs": [],
      "name": "IMX_WETH",
      "outputs": [
        {
          "internalType": "address",
          "name": "",
          "type": "address"
        }
      ],
      "stateMutability": "view",
      "type": "function"
    },
    {
      "inputs": [],
      "name": "LDO_WETH",
      "outputs": [
        {
          "internalType": "address",
          "name": "",
          "type": "address"
        }
      ],
      "stateMutability": "view",
      "type": "function"
    },
    {
      "inputs": [],
      "name": "LINK",
      "outputs": [
        {
          "internalType": "address",
          "name": "",
          "type": "address"
        }
      ],
      "stateMutability": "view",
      "type": "function"
    },
    {
      "inputs": [],
      "name": "LINK_WETH",
      "outputs": [
        {
          "internalType": "address",
          "name": "",
          "type": "address"
        }
      ],
      "stateMutability": "view",
      "type": "function"
    },
    {
      "inputs": [],
      "name": "MANA",
      "outputs": [
        {
          "internalType": "address",
          "name": "",
          "type": "address"
        }
      ],
      "stateMutability": "view",
      "type": "function"
    },
    {
      "inputs": [],
      "name": "MANA_WETH",
      "outputs": [
        {
          "internalType": "address",
          "name": "",
          "type": "address"
        }
      ],
      "stateMutability": "view",
      "type": "function"
    },
    {
      "inputs": [],
      "name": "SUSHI",
      "outputs": [
        {
          "internalType": "address",
          "name": "",
          "type": "address"
        }
      ],
      "stateMutability": "view",
      "type": "function"
    },
    {
      "inputs": [],
      "name": "SUSHI_WETH",
      "outputs": [
        {
          "internalType": "address",
          "name": "",
          "type": "address"
        }
      ],
      "stateMutability": "view",
      "type": "function"
    },
    {
      "inputs": [],
      "name": "USDT",
      "outputs": [
        {
          "internalType": "address",
          "name": "",
          "type": "address"
        }
      ],
      "stateMutability": "view",
      "type": "function"
    },
    {
      "inputs": [],
      "name": "WETH",
      "outputs": [
        {
          "internalType": "address",
          "name": "",
          "type": "address"
        }
      ],
      "stateMutability": "view",
      "type": "function"
    },
    {
      "inputs": [],
      "name": "YFI",
      "outputs": [
        {
          "internalType": "address",
          "name": "",
          "type": "address"
        }
      ],
      "stateMutability": "view",
      "type": "function"
    },
    {
      "inputs": [],
      "name": "YFI_WETH",
      "outputs": [
        {
          "internalType": "address",
          "name": "",
          "type": "address"
        }
      ],
      "stateMutability": "view",
      "type": "function"
    },
    {
      "inputs": [],
      "name": "YGG",
      "outputs": [
        {
          "internalType": "address",
          "name": "",
          "type": "address"
        }
      ],
      "stateMutability": "view",
      "type": "function"
    },
    {
      "inputs": [],
      "name": "YGG_WETH",
      "outputs": [
        {
          "internalType": "address",
          "name": "",
          "type": "address"
        }
      ],
      "stateMutability": "view",
      "type": "function"
    },
    {
      "inputs": [
        {
          "internalType": "address",
          "name": "_underlyingToken",
          "type": "address"
        },
        {
          "internalType": "address",
          "name": "_liquidityPool",
          "type": "address"
        },
        {
          "internalType": "uint256",
          "name": "_depositAmount",
          "type": "uint256"
        }
      ],
      "name": "calculateAmountInLPToken",
      "outputs": [
        {
          "internalType": "uint256",
          "name": "",
          "type": "uint256"
        }
      ],
      "stateMutability": "view",
      "type": "function"
    },
    {
      "inputs": [
        {
          "internalType": "address payable",
          "name": "_vault",
          "type": "address"
        },
        {
          "internalType": "address",
          "name": "_underlyingToken",
          "type": "address"
        },
        {
          "internalType": "address",
          "name": "_liquidityPool",
          "type": "address"
        },
        {
          "internalType": "uint256",
          "name": "_redeemAmount",
          "type": "uint256"
        }
      ],
      "name": "calculateRedeemableLPTokenAmount",
      "outputs": [
        {
          "internalType": "uint256",
          "name": "",
          "type": "uint256"
        }
      ],
      "stateMutability": "view",
      "type": "function"
    },
    {
      "inputs": [
        {
          "internalType": "address",
          "name": "",
          "type": "address"
        }
      ],
      "name": "canStake",
      "outputs": [
        {
          "internalType": "bool",
          "name": "",
          "type": "bool"
        }
      ],
      "stateMutability": "pure",
      "type": "function"
    },
    {
      "inputs": [
        {
          "internalType": "address payable",
          "name": "_vault",
          "type": "address"
        },
        {
          "internalType": "address",
          "name": "_underlyingToken",
          "type": "address"
        },
        {
          "internalType": "address",
          "name": "_liquidityPool",
          "type": "address"
        }
      ],
      "name": "getAllAmountInToken",
      "outputs": [
        {
          "internalType": "uint256",
          "name": "",
          "type": "uint256"
        }
      ],
      "stateMutability": "view",
      "type": "function"
    },
    {
      "inputs": [
        {
          "internalType": "address payable",
          "name": "_vault",
          "type": "address"
        },
        {
          "internalType": "address",
          "name": "_underlyingToken",
          "type": "address"
        },
        {
          "internalType": "address",
          "name": "_liquidityPool",
          "type": "address"
        }
      ],
      "name": "getDepositAllCodes",
      "outputs": [
        {
          "internalType": "bytes[]",
          "name": "_codes",
          "type": "bytes[]"
        }
      ],
      "stateMutability": "view",
      "type": "function"
    },
    {
      "inputs": [
        {
          "internalType": "address payable",
          "name": "_vault",
          "type": "address"
        },
        {
          "internalType": "address",
          "name": "_underlyingToken",
          "type": "address"
        },
        {
          "internalType": "address",
          "name": "_liquidityPool",
          "type": "address"
        },
        {
          "internalType": "uint256",
          "name": "_amount",
          "type": "uint256"
        }
      ],
      "name": "getDepositSomeCodes",
      "outputs": [
        {
          "internalType": "bytes[]",
          "name": "_codes",
          "type": "bytes[]"
        }
      ],
      "stateMutability": "view",
      "type": "function"
    },
    {
      "inputs": [
        {
          "internalType": "address",
          "name": "",
          "type": "address"
        },
        {
          "internalType": "address",
          "name": "_liquidityPool",
          "type": "address"
        }
      ],
      "name": "getLiquidityPoolToken",
      "outputs": [
        {
          "internalType": "address",
          "name": "",
          "type": "address"
        }
      ],
      "stateMutability": "pure",
      "type": "function"
    },
    {
      "inputs": [
        {
          "internalType": "address payable",
          "name": "_vault",
          "type": "address"
        },
        {
          "internalType": "address",
          "name": "",
          "type": "address"
        },
        {
          "internalType": "address",
          "name": "_liquidityPool",
          "type": "address"
        }
      ],
      "name": "getLiquidityPoolTokenBalance",
      "outputs": [
        {
          "internalType": "uint256",
          "name": "",
          "type": "uint256"
        }
      ],
      "stateMutability": "view",
      "type": "function"
    },
    {
      "inputs": [
        {
          "internalType": "address",
          "name": "_liquidityPool",
          "type": "address"
        },
        {
          "internalType": "address",
          "name": "_underlyingToken",
          "type": "address"
        }
      ],
      "name": "getPoolValue",
      "outputs": [
        {
          "internalType": "uint256",
          "name": "",
          "type": "uint256"
        }
      ],
      "stateMutability": "view",
      "type": "function"
    },
    {
      "inputs": [
        {
          "internalType": "address",
          "name": "",
          "type": "address"
        }
      ],
      "name": "getRewardToken",
      "outputs": [
        {
          "internalType": "address",
          "name": "",
          "type": "address"
        }
      ],
      "stateMutability": "pure",
      "type": "function"
    },
    {
      "inputs": [
        {
          "internalType": "address",
          "name": "_underlyingToken",
          "type": "address"
        },
        {
          "internalType": "address",
          "name": "_liquidityPool",
          "type": "address"
        },
        {
          "internalType": "uint256",
          "name": "_liquidityPoolTokenAmount",
          "type": "uint256"
        }
      ],
      "name": "getSomeAmountInToken",
      "outputs": [
        {
          "internalType": "uint256",
          "name": "",
          "type": "uint256"
        }
      ],
      "stateMutability": "view",
      "type": "function"
    },
    {
      "inputs": [
        {
          "internalType": "address",
          "name": "_liquidityPool",
          "type": "address"
        },
        {
          "internalType": "address",
          "name": "",
          "type": "address"
        }
      ],
      "name": "getUnderlyingTokens",
      "outputs": [
        {
          "internalType": "address[]",
          "name": "_underlyingTokens",
          "type": "address[]"
        }
      ],
      "stateMutability": "view",
      "type": "function"
    },
    {
      "inputs": [
        {
          "internalType": "address payable",
          "name": "_vault",
          "type": "address"
        },
        {
          "internalType": "address",
          "name": "_underlyingToken",
          "type": "address"
        },
        {
          "internalType": "address",
          "name": "_liquidityPool",
          "type": "address"
        }
      ],
      "name": "getWithdrawAllCodes",
      "outputs": [
        {
          "internalType": "bytes[]",
          "name": "_codes",
          "type": "bytes[]"
        }
      ],
      "stateMutability": "view",
      "type": "function"
    },
    {
      "inputs": [
        {
          "internalType": "address payable",
          "name": "_vault",
          "type": "address"
        },
        {
          "internalType": "address",
          "name": "_underlyingToken",
          "type": "address"
        },
        {
          "internalType": "address",
          "name": "_liquidityPool",
          "type": "address"
        },
        {
          "internalType": "uint256",
          "name": "_shares",
          "type": "uint256"
        }
      ],
      "name": "getWithdrawSomeCodes",
      "outputs": [
        {
          "internalType": "bytes[]",
          "name": "_codes",
          "type": "bytes[]"
        }
      ],
      "stateMutability": "view",
      "type": "function"
    },
    {
      "inputs": [
        {
          "internalType": "address payable",
          "name": "_vault",
          "type": "address"
        },
        {
          "internalType": "address",
          "name": "_underlyingToken",
          "type": "address"
        },
        {
          "internalType": "address",
          "name": "_liquidityPool",
          "type": "address"
        },
        {
          "internalType": "uint256",
          "name": "_redeemAmount",
          "type": "uint256"
        }
      ],
      "name": "isRedeemableAmountSufficient",
      "outputs": [
        {
          "internalType": "bool",
          "name": "",
          "type": "bool"
        }
      ],
      "stateMutability": "view",
      "type": "function"
    },
    {
      "inputs": [
        {
          "internalType": "address",
          "name": "",
          "type": "address"
        }
      ],
      "name": "liquidityPoolToTolerance",
      "outputs": [
        {
          "internalType": "uint256",
          "name": "",
          "type": "uint256"
        }
      ],
      "stateMutability": "view",
      "type": "function"
    },
    {
      "inputs": [
        {
          "internalType": "address",
          "name": "",
          "type": "address"
        },
        {
          "internalType": "address",
          "name": "",
          "type": "address"
        }
      ],
      "name": "liquidityPoolToWantTokenToSlippage",
      "outputs": [
        {
          "internalType": "uint256",
          "name": "",
          "type": "uint256"
        }
      ],
      "stateMutability": "view",
      "type": "function"
    },
    {
      "inputs": [
        {
          "internalType": "address",
          "name": "",
          "type": "address"
        },
        {
          "internalType": "address",
          "name": "",
          "type": "address"
        }
      ],
      "name": "maxDepositAmount",
      "outputs": [
        {
          "internalType": "uint256",
          "name": "",
          "type": "uint256"
        }
      ],
      "stateMutability": "view",
      "type": "function"
    },
    {
      "inputs": [
        {
          "internalType": "address",
          "name": "",
          "type": "address"
        }
      ],
      "name": "maxDepositPoolPct",
      "outputs": [
        {
          "internalType": "uint256",
          "name": "",
          "type": "uint256"
        }
      ],
      "stateMutability": "view",
      "type": "function"
    },
    {
      "inputs": [],
      "name": "maxDepositProtocolMode",
      "outputs": [
        {
          "internalType": "enum MaxExposure",
          "name": "",
          "type": "uint8"
        }
      ],
      "stateMutability": "view",
      "type": "function"
    },
    {
      "inputs": [],
      "name": "maxDepositProtocolPct",
      "outputs": [
        {
          "internalType": "uint256",
          "name": "",
          "type": "uint256"
        }
      ],
      "stateMutability": "view",
      "type": "function"
    },
    {
      "inputs": [],
      "name": "optyFiOracle",
      "outputs": [
        {
          "internalType": "contract IOptyFiOracle",
          "name": "",
          "type": "address"
        }
      ],
      "stateMutability": "view",
      "type": "function"
    },
    {
      "inputs": [],
      "name": "registryContract",
      "outputs": [
        {
          "internalType": "contract IAdapterRegistryBase",
          "name": "",
          "type": "address"
        }
      ],
      "stateMutability": "view",
      "type": "function"
    },
    {
      "inputs": [
        {
          "components": [
            {
              "internalType": "address",
              "name": "liquidityPool",
              "type": "address"
            },
            {
              "internalType": "uint256",
              "name": "tolerance",
              "type": "uint256"
            }
          ],
          "internalType": "struct SushiswapPoolAdapterEthereum.Tolerance[]",
          "name": "_tolerances",
          "type": "tuple[]"
        }
      ],
      "name": "setLiquidityPoolToTolerance",
      "outputs": [],
      "stateMutability": "nonpayable",
      "type": "function"
    },
    {
      "inputs": [
        {
          "components": [
            {
              "internalType": "address",
              "name": "liquidityPool",
              "type": "address"
            },
            {
              "internalType": "address",
              "name": "wantToken",
              "type": "address"
            },
            {
              "internalType": "uint256",
              "name": "slippage",
              "type": "uint256"
            }
          ],
          "internalType": "struct SushiswapPoolAdapterEthereum.Slippage[]",
          "name": "_slippages",
          "type": "tuple[]"
        }
      ],
      "name": "setLiquidityPoolToWantTokenToSlippage",
      "outputs": [],
      "stateMutability": "nonpayable",
      "type": "function"
    },
    {
      "inputs": [
        {
          "internalType": "address",
          "name": "_liquidityPool",
          "type": "address"
        },
        {
          "internalType": "address",
          "name": "_underlyingToken",
          "type": "address"
        },
        {
          "internalType": "uint256",
          "name": "_maxDepositAmount",
          "type": "uint256"
        }
      ],
      "name": "setMaxDepositAmount",
      "outputs": [],
      "stateMutability": "nonpayable",
      "type": "function"
    },
    {
      "inputs": [
        {
          "internalType": "address",
          "name": "_liquidityPool",
          "type": "address"
        },
        {
          "internalType": "uint256",
          "name": "_maxDepositPoolPct",
          "type": "uint256"
        }
      ],
      "name": "setMaxDepositPoolPct",
      "outputs": [],
      "stateMutability": "nonpayable",
      "type": "function"
    },
    {
      "inputs": [
        {
          "internalType": "enum MaxExposure",
          "name": "_mode",
          "type": "uint8"
        }
      ],
      "name": "setMaxDepositProtocolMode",
      "outputs": [],
      "stateMutability": "nonpayable",
      "type": "function"
    },
    {
      "inputs": [
        {
          "internalType": "uint256",
          "name": "_maxDepositProtocolPct",
          "type": "uint256"
        }
      ],
      "name": "setMaxDepositProtocolPct",
      "outputs": [],
      "stateMutability": "nonpayable",
      "type": "function"
    },
    {
      "inputs": [
        {
          "internalType": "address",
          "name": "_optyFiOracle",
          "type": "address"
        }
      ],
      "name": "setOptyFiOracle",
      "outputs": [],
      "stateMutability": "nonpayable",
      "type": "function"
    },
    {
      "inputs": [
        {
          "internalType": "address",
          "name": "_registry",
          "type": "address"
        }
      ],
      "name": "setRegistry",
      "outputs": [],
      "stateMutability": "nonpayable",
      "type": "function"
    },
    {
      "inputs": [],
      "name": "sushiswapFactory",
      "outputs": [
        {
          "internalType": "contract IUniswapV2Factory",
          "name": "",
          "type": "address"
        }
      ],
      "stateMutability": "view",
      "type": "function"
    },
    {
      "inputs": [],
      "name": "sushiswapRouter",
      "outputs": [
        {
          "internalType": "contract IUniswapV2Router02",
          "name": "",
          "type": "address"
        }
      ],
      "stateMutability": "view",
      "type": "function"
    }
  ],
  "transactionHash": "0x1934b64d47cb2738a14b7843303c542eabc4819dce3f7c96248fa922cba936d1",
  "args": [
    "0x99fa011e33a8c6196869dec7bc407e896ba67fe3",
    "0xf34bf99d10AA7993D43588D6dD916dFB3ff33123"
  ],
  "numDeployments": 1,
  "bytecode": "0x60806040523480156200001157600080fd5b506040516200400038038062004000833981016040819052620000349162000683565b600080546001600160a01b039384166001600160a01b03199182161782556127106002556003805460ff1916600190811790915580549390941692169190911790915560327ff2f3ed629113ac4845ca2cfa0a5f3eb0123aa9c38ee748ed335ae692209e2c158190557f39d1e37ea70264cef389e0d5b1dca46bbb9cf0258875271473556030e81c4d3881905560647ff9fc640ef1a9ee56ca6bb3115c4716ef08a9b39c6552311b7cf168291757211381905560967fea862008476ff65899f2af79242c6f766afbfdc53c1ea93d869ff86bd9b6d6bd8190557fec5b12ac4c8409bbe7a8510809c6592854a4fa0ab99f594a43b7ba49ea08bf4d83905560c87f81e0831b5d556c8506228f2c6ab6f70d3f04a24371bf7d5b8010cf029afd9c4b81905560467f24c6b603a29438c478b84d55e23c73e2b038c2a9331cd6c73f23c2170a8215ac8190557f6c58597eaf2849b0606a0b260048ce9339ab3b567d7f74a2a49eb21212e0773d8490557f4e3693cccea32eec7ac60ea9b5304a755d5092aff42383bcddabf091d3bb816e8490557fefecc92ca0ecf7d831d493de041f80da4b81419d4d09d4df478795dfcdff0ee7849055605a7fe2f19e3695a8974c38ff1b6aa6edf21edc2d234a29eb8fc00a9971a5277a04078190557fcb188f690c01ce92845799d11bfec03fe0fa1575372b68d0e06de32039f47eb08690557f4bec8fea6dc4cfcb7455b554292c4a4e25a93ce1470562ee2c3a2b1618a7019b8290556101f47f22542365bef1de77939140da2971c3b460ba7eb687528acde68bb3562b9fa7e4557f07dfaabaacfea4ee960f4924ccbf22820818d10253574df396c5fc48f748cedb8690557f2c49d905edf3d0196f5d48d613c92e949e0fa8fe28ae06964e23448f3ba4ad1a8690557f3e3b030350ef739c2c8fba09af3ff1289d72df7d73549ca80fd567011162dee78290557f1adcc57dd142fd3df3b3fc3853f352d6d5a8cbeab4fc7e2ee5bb19a4d0b6b6198690557fc82a75db2d40bf6ab9714a04610352063f9fd71f8c7015e66a0a2f76d55a2e8f8490557fdcf9c29792f524e03f0e7df6d9215cc042a0ade4fb046ffbf1cb5c5c0d9e6a448690557fdb095db99a96f520ed0fd27746c309ddc800ee5e5e4bd50b1dbfb5bd2a15d0df8190557f3cfc8f6e3dd134ac8a9746b877eb3fa72a1dd50bb76485e1cb29252f7dd133368390557fda4bad3bd2fcc57a000e77a3b600adaee00aa5babb805c06954a3a052a0ec2a28290557f77e355b30054954b963492f55c5b18b03dec3e993262acf7b3348387a71ab2168690557f9a544dcaec9905fad8ee258ceebb773e2c7fc39e05f10b2549e10e18c5f22bfa929092557f633f8c731515f2c2a98b31fe6e1b453e47520d0e1af74c7e9e22212022fbb6108590557f99f05d8b4e55952b9e6420d16ffc6551abc6e36871a01fab96d40e6c95f69a0f8490557f29be989d749c1dfc0d8c31a9d131cf2328d80136ea4a82ea51ccfa744d3ecdb28590557f75effe7591d9776c67690fcb6a1e4a074236088df50ec345f36bd95d41f2e8e38590557f28389fc5d6b9ca65954909052715d27fb772d329d512fb6b5307bcebc83b5ae28390557f626281564497e95303314b5c79c30a49c168b7ca8d82e68c1a1064f1f16692d08490557f559cc9c40e4331701017ecdb9d14466f2800a6e84b88ce280b118ed55dd927f6939093557fc38d45ea4ada1bfb8e095f45a5c1a272902e19fe5172475ba902569b85c84b148190557fbdd1e4a55df7b913f2f63fecb25c38904309c836d844d5d0b0df5684e4ad8ef1919091557ffcd59a9ee8e7075a55c3f745caebf13feff47d974c8927e1fd3a588864588740919091557f7544582c9881ba4d343658b4cb2f594a15579299f7f4cccc3dbd844d6587f7fe8290557f69a95370630ab39eefc022e640f99dfd78d76b0211cab05e1f7eeb2c3d47fcfb557fec3e43e576cf6fc7f47b5413e5e7b57d0e5f017907e6c44d21b5a155af13bdef8190557f9c444059daad1b8c194078601b888652cad387b3f88c67b955c452ed145c33a35573c02aaa39b223fe8d0a0e5c4f27ead9083c756cc290527f37bb5abd9882e66a97b8a649041a6a94a4ae0d4d9b88a5e4cff6c731f7ba03c760205261012c7fe2aef453204689053b6e39f12611d448bbbc91c11a3fc34ab1a0f8d867f804f155620006bb565b80516001600160a01b03811681146200067e57600080fd5b919050565b600080604083850312156200069757600080fd5b620006a28362000666565b9150620006b26020840162000666565b90509250929050565b61393580620006cb6000396000f3fe608060405234801561001057600080fd5b50600436106103c55760003560e01c806377078872116101ff578063d6dd6ae61161011a578063e49d5ecc116100ad578063ef856be91161007c578063ef856be914610998578063f1aacbb7146109b8578063f49307ca146109cb578063fad0fac1146109de57600080fd5b8063e49d5ecc14610942578063e9240c2d14610955578063ecb427951461096a578063ee665bed1461098557600080fd5b8063da699f96116100e9578063da699f96146108ee578063df147b3b14610901578063df93572214610914578063e40a299a1461092757600080fd5b8063d6dd6ae614610892578063d74baaf8146108ad578063d82d41ac146108c0578063d9947711146108db57600080fd5b8063aac722b511610192578063c4e481e711610161578063c4e481e714610821578063c54e44eb1461083c578063cd07801214610857578063cfaa935c1461087757600080fd5b8063aac722b5146107b5578063ab560e10146107d0578063ad5c4648146107eb578063b71501bc1461080657600080fd5b8063918f8674116101ce578063918f86741461076b578063919b69d714610774578063945c914214610787578063a91ee0dc146107a257600080fd5b806377078872146107245780637c47b3f41461073257806385541e441461074557806390e616051461075857600080fd5b806334ff503a116102ef5780634ad36e021161028257806364dd5f801161025157806364dd5f80146106c057806369b97248146106d35780637528e3ab146106ee578063759cb53b1461070957600080fd5b80634ad36e021461065f5780634f83b52d14610672578063501070be1461069257806360925779146106ad57600080fd5b806339a99bc0116102be57806339a99bc0146105ee578063454376e614610609578063489b52951461062457806348ccda3c1461064457600080fd5b806334ff503a146105795780633600e32a1461059457806336d8bf93146105af57806337a9d761146105d357600080fd5b80631b6b6d23116103675780632750329011610336578063275032901461052657806328c1f99b146105395780632af06b961461054c5780632de778381461056657600080fd5b80631b6b6d23146104aa5780631d2e2cc4146104c55780631d98603c146104e05780632336fb41146104fb57600080fd5b8063180f7ad2116103a3578063180f7ad214610456578063191c194b1461046b578063194cbe7b146104745780631b5d145d1461048f57600080fd5b8063027a304d146103ca578063116d6027146104085780631759406f1461043b575b600080fd5b6103f56103d8366004613260565b600460209081526000928352604080842090915290825290205481565b6040519081526020015b60405180910390f35b6104237331503dcb60119a812fee820bb7042752019f235581565b6040516001600160a01b0390911681526020016103ff565b61042373a1181481beb2dc5de0daf2c85392d81c704bf75d81565b610469610464366004613299565b6109f9565b005b6103f560025481565b61042373d75ea151a61d06868e31f8988d28dfe5e9df57b481565b610423734d224452801aced8b2f0aebe155379bb5d59438181565b61042373514910771af9ca656af840dff83e8264ecf986ca81565b61042373c18360217d8f7ab5e7c516566761ea12ce7f9d7281565b6104237318cd890f4e23422dc4aa8c2d6e0bd3f3bd8873d881565b6103f5610509366004613260565b600760209081526000928352604080842090915290825290205481565b61046961053436600461330e565b610b2d565b600054610423906001600160a01b031681565b6003546105599060ff1681565b6040516103ff9190613341565b6103f5610574366004613260565b610c24565b61042373f57e7e7c23978c3caec3c3548e3d615c346e79ff81565b61042373795065dcc9f64b5614c407a6efdc400da6221fb081565b6105c36105bd36600461330e565b50600090565b60405190151581526020016103ff565b61042373c558f600b34a5f69dd2f0d06cb8a88d829b7420a81565b6104237305767d9ef41dc40689678ffca0608878fb3de90681565b6104237325f8087ead173b73d6e8b84329989a8eea16cf7381565b610637610632366004613369565b610ca6565b6040516103ff9190613401565b610423737fc66500c84a76ad7e9c93437bfc5ac33e2ddae981565b6103f561066d366004613463565b610d2f565b6103f561068036600461330e565b60056020526000908152604090205481565b61042373c0aee478e3658e2610c5f7a4a2e1777ce9e4f2ac81565b6106376106bb366004613463565b610d7b565b6103f56106ce366004613369565b6113f1565b61042373c3f279090a47e80990fe3a9c30d24cb117ef91a881565b610423731bec4db6c3bc499f3dbf289f5499c30d541fec9781565b610423734e3fbd56cd56c3e72c1403e103b45db9da5b9d2b81565b6104236105bd36600461330e565b6104696107403660046134b4565b611403565b6103f56107533660046134d5565b61150a565b6103f5610766366004613369565b611827565b6103f561271081565b610469610782366004613516565b611895565b61042373d533a949740bb3306d119cc777fa900ba034cd5281565b6104696107b036600461330e565b611983565b61042373dbdb4d16eda451d0503b854cf79d55697f90c8df81565b610423736b3595068778dd592e39a122f4f5a5cf09c90fe281565b61042373c02aaa39b223fe8d0a0e5c4f27ead9083c756cc281565b61042373c00e94cb662c3520282e6f5717214004a7f2688881565b61042373c40d16476380e4037e6b1a2594caf6a6cc8da96781565b61042373dac17f958d2ee523a2206206994597c13d831ec781565b6103f561086536600461330e565b60066020526000908152604090205481565b61042373088ee5007c98a9677165d78dd2109ae4a3d04d0c81565b6104237399b42f2b49c395d2a77d973f6009abb5d67da34381565b6104236108bb366004613260565b919050565b610423730bc529c00c6401aef6d220be8c6ea1667f6ad93e81565b600154610423906001600160a01b031681565b6104696108fc366004613542565b611abf565b61046961090f36600461355b565b611b99565b610637610922366004613463565b611d0a565b61042373b27c7b131cf4915bec6c4bc1ce2f33f9ee434b9f81565b6105c3610950366004613463565b6123ed565b61042360008051602061390983398151915281565b610423730f5d2fb29fb7d3cfee444a200298f468908cc94281565b6103f56109933660046134d5565b612408565b6109ab6109a6366004613260565b6125eb565b6040516103ff9190613602565b6104696109c63660046134d5565b61273b565b6106376109d9366004613369565b612839565b6104237358dc5a51fe44589beb22e8ce67720b5bc537800981565b60008054906101000a90046001600160a01b03166001600160a01b0316637af0e5576040518163ffffffff1660e01b8152600401602060405180830381865afa158015610a4a573d6000803e3d6000fd5b505050506040513d601f19601f82011682018060405250810190610a6e9190613615565b6001600160a01b0316336001600160a01b031614610aa75760405162461bcd60e51b8152600401610a9e90613632565b60405180910390fd5b8060005b81811015610b2757838382818110610ac557610ac5613669565b9050604002016020013560066000868685818110610ae557610ae5613669565b610afb926020604090920201908101915061330e565b6001600160a01b0316815260208101919091526040016000205580610b1f81613695565b915050610aab565b50505050565b60008054906101000a90046001600160a01b03166001600160a01b031663e7f43c686040518163ffffffff1660e01b8152600401602060405180830381865afa158015610b7e573d6000803e3d6000fd5b505050506040513d601f19601f82011682018060405250810190610ba29190613615565b6001600160a01b0316336001600160a01b031614610c025760405162461bcd60e51b815260206004820152601a60248201527f63616c6c6572206973206e6f7420746865206f70657261746f720000000000006044820152606401610a9e565b600180546001600160a01b0319166001600160a01b0392909216919091179055565b6040516370a0823160e01b81526001600160a01b038381166004830152600091908316906370a0823190602401602060405180830381865afa158015610c6e573d6000803e3d6000fd5b505050506040513d601f19601f82011682018060405250810190610c9291906136b0565b610c9d9060026136c9565b90505b92915050565b6040516370a0823160e01b81526001600160a01b0384811660048301526060916000918516906370a0823190602401602060405180830381865afa158015610cf2573d6000803e3d6000fd5b505050506040513d601f19601f82011682018060405250810190610d1691906136b0565b9050610d2485858584611d0a565b9150505b9392505050565b600080610d3d868686611827565b90506000610d4c8787876113f1565b905080610d5985846136c9565b610d6391906136e8565b610d6e90600161370a565b925050505b949350505050565b60608115610d735760408051600680825260e0820190925290816020015b6060815260200190600190039081610d9957905050604051600080516020613909833981519152602482015260006044820152909150839060640160408051601f19818403018152918152602080830180516001600160e01b031663095ea7b360e01b1790529051610e0d93929101613722565b60405160208183030381529060405281600081518110610e2f57610e2f613669565b6020908102919091010152604051600080516020613909833981519152602482015260448101839052839060640160408051601f19818403018152918152602080830180516001600160e01b031663095ea7b360e01b1790529051610e9693929101613722565b60405160208183030381529060405281600181518110610eb857610eb8613669565b60200260200101819052506000806000856001600160a01b031663d21220a76040518163ffffffff1660e01b8152600401602060405180830381865afa158015610f06573d6000803e3d6000fd5b505050506040513d601f19601f82011682018060405250810190610f2a9190613615565b9050600080876001600160a01b0316630902f1ac6040518163ffffffff1660e01b8152600401606060405180830381865afa158015610f6d573d6000803e3d6000fd5b505050506040513d601f19601f82011682018060405250810190610f91919061375d565b506001600160701b031691506001600160701b031691506000610fb5898484612856565b905080610fc289856136c9565b610fcc91906136e8565b955080610fd989846136c9565b610fe391906136e8565b9450896001600160a01b0316846001600160a01b031614156110715760408051630dfe168160e01b815290519596959293926001600160a01b038b1691630dfe16819160048083019260209291908290030181865afa15801561104a573d6000803e3d6000fd5b505050506040513d601f19601f8201168201806040525081019061106e9190613615565b93505b61107e8a8585858d612a44565b506040516001600160a01b03808b1660248301528085166044830152606482018990526084820187905260a482018690528b1660c482015260001960e4820152600080516020613909833981519152906101040160408051601f19818403018152918152602080830180516001600160e01b0316635d5155ef60e11b179052905161110b93929101613722565b6040516020818303038152906040528660028151811061112d5761112d613669565b6020908102919091010152604051600080516020613909833981519152602482015260006044820152839060640160408051601f19818403018152918152602080830180516001600160e01b031663095ea7b360e01b179052905161119493929101613722565b604051602081830303815290604052866003815181106111b6576111b6613669565b6020908102919091010152604051600080516020613909833981519152602482015260448101859052839060640160408051601f19818403018152918152602080830180516001600160e01b031663095ea7b360e01b179052905161121d93929101613722565b6040516020818303038152906040528660048151811061123f5761123f613669565b602090810291909101015260408051600280825260608201909252600091816020016020820280368337019050509050838160008151811061128357611283613669565b60200260200101906001600160a01b031690816001600160a01b03168152505089816001815181106112b7576112b7613669565b60200260200101906001600160a01b031690816001600160a01b03168152505060006112e486868d612cee565b905060008051602061390983398151915286612710600760008e6001600160a01b03166001600160a01b0316815260200190815260200160002060008f6001600160a01b03166001600160a01b031681526020019081526020016000205461271061134f91906137a2565b61135990856136c9565b61136391906136e8565b848f60001960405160240161137c9594939291906137b9565b60408051601f19818403018152918152602080830180516001600160e01b03166338ed173960e01b17905290516113b593929101613722565b604051602081830303815290604052886005815181106113d7576113d7613669565b602002602001018190525050505050505050949350505050565b6000610d738383610993878787611827565b60008054906101000a90046001600160a01b03166001600160a01b0316637af0e5576040518163ffffffff1660e01b8152600401602060405180830381865afa158015611454573d6000803e3d6000fd5b505050506040513d601f19601f820116820180604052508101906114789190613615565b6001600160a01b0316336001600160a01b0316146114a85760405162461bcd60e51b8152600401610a9e90613632565b6003805482919060ff1916600183818111156114c6576114c661332b565b0217905550338160018111156114de576114de61332b565b6040517f68e3b01155b193b02181f2c0ed491c934a74348d211ff023f8fc6ac5edf22aa090600090a350565b6000806000846001600160a01b0316630902f1ac6040518163ffffffff1660e01b8152600401606060405180830381865afa15801561154d573d6000803e3d6000fd5b505050506040513d601f19601f82011682018060405250810190611571919061375d565b506001600160701b031691506001600160701b031691506000856001600160a01b0316630dfe16816040518163ffffffff1660e01b8152600401602060405180830381865afa1580156115c8573d6000803e3d6000fd5b505050506040513d601f19601f820116820180604052508101906115ec9190613615565b90506000866001600160a01b031663d21220a76040518163ffffffff1660e01b8152600401602060405180830381865afa15801561162e573d6000803e3d6000fd5b505050506040513d601f19601f820116820180604052508101906116529190613615565b9050876001600160a01b0316876001600160a01b0316630dfe16816040518163ffffffff1660e01b8152600401602060405180830381865afa15801561169c573d6000803e3d6000fd5b505050506040513d601f19601f820116820180604052508101906116c09190613615565b6001600160a01b0316146116d357919291905b6116e0828286868b612a44565b6040516370a0823160e01b81523360048201526000906001600160a01b038316906370a0823190602401602060405180830381865afa158015611727573d6000803e3d6000fd5b505050506040513d601f19601f8201168201806040525081019061174b91906136b0565b9050600061175b86868a85612ebf565b9050600061176a828686612cee565b9050611776828861370a565b965061178281876137a2565b955060006117918b8989612856565b9050600061179f848c6137a2565b905060006117ae828b8b612f8f565b9050838111156117c85750826117c5818a8c612f8f565b91505b60008a6117d585856136c9565b6117df91906136e8565b9050896117ec85846136c9565b6117f691906136e8565b811115611815578961180885846136c9565b61181291906136e8565b90505b9e9d5050505050505050505050505050565b6040516370a0823160e01b81526001600160a01b038481166004830152600091908316906370a0823190602401602060405180830381865afa158015611871573d6000803e3d6000fd5b505050506040513d601f19601f82011682018060405250810190610d7391906136b0565b60008054906101000a90046001600160a01b03166001600160a01b0316637af0e5576040518163ffffffff1660e01b8152600401602060405180830381865afa1580156118e6573d6000803e3d6000fd5b505050506040513d601f19601f8201168201806040525081019061190a9190613615565b6001600160a01b0316336001600160a01b03161461193a5760405162461bcd60e51b8152600401610a9e90613632565b6001600160a01b03821660009081526005602052604080822083905551339183917fac58e29a41d996caca756d050dce90806b277f0c939337653638329247e16f4c9190a35050565b60008054906101000a90046001600160a01b03166001600160a01b031663e7f43c686040518163ffffffff1660e01b8152600401602060405180830381865afa1580156119d4573d6000803e3d6000fd5b505050506040513d601f19601f820116820180604052508101906119f89190613615565b6001600160a01b0316336001600160a01b031614611a585760405162461bcd60e51b815260206004820152601a60248201527f63616c6c6572206973206e6f7420746865206f70657261746f720000000000006044820152606401610a9e565b6001600160a01b0381163b611a9d5760405162461bcd60e51b815260206004820152600b60248201526a085a5cd0dbdb9d1c9858dd60aa1b6044820152606401610a9e565b600080546001600160a01b0319166001600160a01b0392909216919091179055565b60008054906101000a90046001600160a01b03166001600160a01b0316637af0e5576040518163ffffffff1660e01b8152600401602060405180830381865afa158015611b10573d6000803e3d6000fd5b505050506040513d601f19601f82011682018060405250810190611b349190613615565b6001600160a01b0316336001600160a01b031614611b645760405162461bcd60e51b8152600401610a9e90613632565b6002819055604051339082907f19c60b0612798cc65bd298cd47e17d9fd07e74e0d3baa6c0019411bb334d9bda90600090a350565b60008054906101000a90046001600160a01b03166001600160a01b0316637af0e5576040518163ffffffff1660e01b8152600401602060405180830381865afa158015611bea573d6000803e3d6000fd5b505050506040513d601f19601f82011682018060405250810190611c0e9190613615565b6001600160a01b0316336001600160a01b031614611c3e5760405162461bcd60e51b8152600401610a9e90613632565b8060005b81811015610b2757838382818110611c5c57611c5c613669565b9050606002016040013560076000868685818110611c7c57611c7c613669565b611c92926020606090920201908101915061330e565b6001600160a01b03166001600160a01b031681526020019081526020016000206000868685818110611cc657611cc6613669565b9050606002016020016020810190611cde919061330e565b6001600160a01b0316815260208101919091526040016000205580611d0281613695565b915050611c42565b6060611d17848484613070565b91508115610d735760408051600680825260e0820190925290816020015b6060815260200190600190039081611d3557905050604051600080516020613909833981519152602482015260006044820152909150849060640160408051601f19818403018152918152602080830180516001600160e01b031663095ea7b360e01b1790529051611da993929101613722565b60405160208183030381529060405281600081518110611dcb57611dcb613669565b60200260200101819052506000806000806000876001600160a01b0316630902f1ac6040518163ffffffff1660e01b8152600401606060405180830381865afa158015611e1c573d6000803e3d6000fd5b505050506040513d601f19601f82011682018060405250810190611e40919061375d565b506001600160701b031691506001600160701b03169150876001600160a01b031663d21220a76040518163ffffffff1660e01b8152600401602060405180830381865afa158015611e95573d6000803e3d6000fd5b505050506040513d601f19601f82011682018060405250810190611eb99190613615565b9450886001600160a01b0316856001600160a01b03161415611f445760408051630dfe168160e01b815290519192916001600160a01b038a1691630dfe16819160048083019260209291908290030181865afa158015611f1d573d6000803e3d6000fd5b505050506040513d601f19601f82011682018060405250810190611f419190613615565b94505b611f51898684848c612a44565b6040516370a0823160e01b81526001600160a01b038b81166004830152611fca91849184918b918a16906370a0823190602401602060405180830381865afa158015611fa1573d6000803e3d6000fd5b505050506040513d601f19601f82011682018060405250810190611fc591906136b0565b612ebf565b9350611fd7848a87612cee565b604051600080516020613909833981519152602482015260448101899052909350899250606401905060408051601f19818403018152918152602080830180516001600160e01b031663095ea7b360e01b179052905161203993929101613722565b6040516020818303038152906040528460018151811061205b5761205b613669565b602090810291909101015260408051600280825260608201909252600091816020016020820280368337019050509050878160008151811061209f5761209f613669565b60200260200101906001600160a01b031690816001600160a01b03168152505083816001815181106120d3576120d3613669565b6001600160a01b03928316602091820292909201810191909152888216600090815260078252604080822093881682529290915220546000805160206139098339815191529084906127109061212990826137a2565b61213390866136c9565b61213d91906136e8565b838c6000196040516024016121569594939291906137b9565b60408051601f19818403018152918152602080830180516001600160e01b03166338ed173960e01b179052905161218f93929101613722565b604051602081830303815290604052856002815181106121b1576121b1613669565b6020908102919091010152604051600080516020613909833981519152602482015260006044820152849060640160408051601f19818403018152918152602080830180516001600160e01b031663095ea7b360e01b179052905161221893929101613722565b6040516020818303038152906040528560038151811061223a5761223a613669565b6020908102919091010152604051600080516020613909833981519152602482015260448101839052849060640160408051601f19818403018152918152602080830180516001600160e01b031663095ea7b360e01b17905290516122a193929101613722565b604051602081830303815290604052856004815181106122c3576122c3613669565b602090810291909101015260008051602061390983398151915288856122e9868a6137a2565b6001600160a01b03808c166000908152600760209081526040808320938c16835292905220546127109061231d90826137a2565b61232790886136c9565b61233191906136e8565b6040516001600160a01b039485166024820152928416604484015260648301919091526084820152600060a4820181905260c4820152908b1660e48201526000196101048201526101240160408051601f19818403018152918152602080830180516001600160e01b031662e8e33760e81b17905290516123b493929101613722565b604051602081830303815290604052856005815181106123d6576123d6613669565b602002602001018190525050505050949350505050565b6000806123fb8686866113f1565b9092111595945050505050565b6000806000846001600160a01b0316630902f1ac6040518163ffffffff1660e01b8152600401606060405180830381865afa15801561244b573d6000803e3d6000fd5b505050506040513d601f19601f8201168201806040525081019061246f919061375d565b506001600160701b031691506001600160701b031691506000612493868484612856565b90506000866001600160a01b031663d21220a76040518163ffffffff1660e01b8152600401602060405180830381865afa1580156124d5573d6000803e3d6000fd5b505050506040513d601f19601f820116820180604052508101906124f99190613615565b9050876001600160a01b0316816001600160a01b031614156125845760408051630dfe168160e01b815290519394936001600160a01b03891691630dfe16819160048083019260209291908290030181865afa15801561255d573d6000803e3d6000fd5b505050506040513d601f19601f820116820180604052508101906125819190613615565b90505b612591888286868b612a44565b60008261259e88876136c9565b6125a891906136e8565b90506000836125b789876136c9565b6125c191906136e8565b905060006125d082858d612cee565b90506125dc818461370a565b9b9a5050505050505050505050565b6040805160028082526060808301845292602083019080368337019050509050826001600160a01b0316630dfe16816040518163ffffffff1660e01b8152600401602060405180830381865afa158015612649573d6000803e3d6000fd5b505050506040513d601f19601f8201168201806040525081019061266d9190613615565b8160008151811061268057612680613669565b60200260200101906001600160a01b031690816001600160a01b031681525050826001600160a01b031663d21220a76040518163ffffffff1660e01b8152600401602060405180830381865afa1580156126de573d6000803e3d6000fd5b505050506040513d601f19601f820116820180604052508101906127029190613615565b8160018151811061271557612715613669565b60200260200101906001600160a01b031690816001600160a01b03168152505092915050565b60008054906101000a90046001600160a01b03166001600160a01b0316637af0e5576040518163ffffffff1660e01b8152600401602060405180830381865afa15801561278c573d6000803e3d6000fd5b505050506040513d601f19601f820116820180604052508101906127b09190613615565b6001600160a01b0316336001600160a01b0316146127e05760405162461bcd60e51b8152600401610a9e90613632565b6001600160a01b03808416600090815260046020908152604080832093861683529290528181208390559051339183917f197807a6a2633dd9bde6550aca985cfc69e655e9130930314c0e9da01a75cc549190a3505050565b60606000612848858585611827565b9050610d2485858584610d7b565b6000836001600160a01b03166318160ddd6040518163ffffffff1660e01b8152600401602060405180830381865afa158015612896573d6000803e3d6000fd5b505050506040513d601f19601f820116820180604052508101906128ba91906136b0565b905060006001600160a01b031673c0aee478e3658e2610c5f7a4a2e1777ce9e4f2ac6001600160a01b031663017e7e586040518163ffffffff1660e01b8152600401602060405180830381865afa158015612919573d6000803e3d6000fd5b505050506040513d601f19601f8201168201806040525081019061293d9190613615565b6001600160a01b031614610d28576000846001600160a01b0316637464fc3d6040518163ffffffff1660e01b8152600401602060405180830381865afa15801561298b573d6000803e3d6000fd5b505050506040513d601f19601f820116820180604052508101906129af91906136b0565b90508015612a3c5760006129cb6129c685876136c9565b6131d9565b905060006129d8836131d9565b905080821115612a395760006129ee82846137a2565b6129f890866136c9565b9050600082612a088560056136c9565b612a12919061370a565b90506000612a2082846136e8565b90508015612a3557612a32818861370a565b96505b5050505b50505b509392505050565b60015460405163057d4cc360e51b81526001600160a01b0387811660048301528681166024830152600092169063afa9986090604401602060405180830381865afa158015612a97573d6000803e3d6000fd5b505050506040513d601f19601f82011682018060405250810190612abb91906136b0565b905060008111612af65760405162461bcd60e51b815260206004820152600660248201526521707269636560d01b6044820152606401610a9e565b6000866001600160a01b031663313ce5676040518163ffffffff1660e01b8152600401602060405180830381865afa158015612b36573d6000803e3d6000fd5b505050506040513d601f19601f82011682018060405250810190612b5a91906137f5565b60ff1690506000866001600160a01b031663313ce5676040518163ffffffff1660e01b8152600401602060405180830381865afa158015612b9f573d6000803e3d6000fd5b505050506040513d601f19601f82011682018060405250810190612bc391906137f5565b60ff1690506000612bd58360126137a2565b612be090600a6138fc565b612bea90886136c9565b612bf58360246137a2565b612c0090600a6138fc565b612c0a90886136c9565b612c1491906136e8565b6001600160a01b0386166000908152600660205260408120549192509061271090612c3f908261370a565b612c4990876136c9565b612c5391906136e8565b6001600160a01b0387166000908152600660205260408120549192509061271090612c7e90826137a2565b612c8890886136c9565b612c9291906136e8565b90508183108015612ca257508083115b612ce15760405162461bcd60e51b815260206004820152601060248201526f085a5b58985b185b98d959081c1bdbdb60821b6044820152606401610a9e565b5050505050505050505050565b60015460405163057d4cc360e51b81526001600160a01b0384811660048301528381166024830152600092839291169063afa9986090604401602060405180830381865afa158015612d44573d6000803e3d6000fd5b505050506040513d601f19601f82011682018060405250810190612d6891906136b0565b905060008111612da35760405162461bcd60e51b815260206004820152600660248201526521707269636560d01b6044820152606401610a9e565b6000846001600160a01b031663313ce5676040518163ffffffff1660e01b8152600401602060405180830381865afa158015612de3573d6000803e3d6000fd5b505050506040513d601f19601f82011682018060405250810190612e0791906137f5565b60ff1690506000846001600160a01b031663313ce5676040518163ffffffff1660e01b8152600401602060405180830381865afa158015612e4c573d6000803e3d6000fd5b505050506040513d601f19601f82011682018060405250810190612e7091906137f5565b60ff169050612e8082601261370a565b612e8b90600a6138fc565b612e9682600a6138fc565b612ea0858a6136c9565b612eaa91906136c9565b612eb491906136e8565b979650505050505050565b6000612ecb848361370a565b612ed7906107ca6136c9565b612ee1858461370a565b612eed876107cd6136c9565b612ef791906136c9565b612f51612f0485896136c9565b612f0f9060096136c9565b612f19888a6136c9565b612f2690623cda296136c9565b612f3089896136c9565b612f3d90623cda206136c9565b612f47919061370a565b6129c6919061370a565b612f68612f5e888761370a565b6129c6908a6136c9565b612f7291906136c9565b612f7c91906137a2565b612f8691906136e8565b95945050505050565b6000808411612fee5760405162461bcd60e51b815260206004820152602560248201527f556e697377617056324c6962726172793a20494e53554646494349454e545f416044820152641353d5539560da1b6064820152608401610a9e565b600083118015612ffe5750600082115b61305b5760405162461bcd60e51b815260206004820152602860248201527f556e697377617056324c6962726172793a20494e53554646494349454e545f4c604482015267495155494449545960c01b6064820152608401610a9e565b8261306683866136c9565b610d7391906136e8565b60008060035460ff16600181111561308a5761308a61332b565b14156130f0576001600160a01b038084166000908152600460209081526040808320938816835292905220548211156130e957506001600160a01b03808316600090815260046020908152604080832093871683529290522054610d28565b5080610d28565b60006130fc8486610c24565b6001600160a01b03851660009081526005602052604090205490915015613195576001600160a01b0384166000908152600560205260409020546127109061314490836136c9565b61314e91906136e8565b83111561318d576001600160a01b0384166000908152600560205260409020546127109061317c90836136c9565b61318691906136e8565b9150612a3c565b829150612a3c565b60025415612a3c57612710600254826131ae91906136c9565b6131b891906136e8565b8311156131d0576127106002548261317c91906136c9565b50909392505050565b6000600382111561323a57508060006131f36002836136e8565b6131fe90600161370a565b90505b818110156132345790508060028161321981866136e8565b613223919061370a565b61322d91906136e8565b9050613201565b50919050565b81156108bb57506001919050565b6001600160a01b038116811461325d57600080fd5b50565b6000806040838503121561327357600080fd5b823561327e81613248565b9150602083013561328e81613248565b809150509250929050565b600080602083850312156132ac57600080fd5b823567ffffffffffffffff808211156132c457600080fd5b818501915085601f8301126132d857600080fd5b8135818111156132e757600080fd5b8660208260061b85010111156132fc57600080fd5b60209290920196919550909350505050565b60006020828403121561332057600080fd5b8135610d2881613248565b634e487b7160e01b600052602160045260246000fd5b602081016002831061336357634e487b7160e01b600052602160045260246000fd5b91905290565b60008060006060848603121561337e57600080fd5b833561338981613248565b9250602084013561339981613248565b915060408401356133a981613248565b809150509250925092565b6000815180845260005b818110156133da576020818501810151868301820152016133be565b818111156133ec576000602083870101525b50601f01601f19169290920160200192915050565b6000602080830181845280855180835260408601915060408160051b870101925083870160005b8281101561345657603f198886030184526134448583516133b4565b94509285019290850190600101613428565b5092979650505050505050565b6000806000806080858703121561347957600080fd5b843561348481613248565b9350602085013561349481613248565b925060408501356134a481613248565b9396929550929360600135925050565b6000602082840312156134c657600080fd5b813560028110610d2857600080fd5b6000806000606084860312156134ea57600080fd5b83356134f581613248565b9250602084013561350581613248565b929592945050506040919091013590565b6000806040838503121561352957600080fd5b823561353481613248565b946020939093013593505050565b60006020828403121561355457600080fd5b5035919050565b6000806020838503121561356e57600080fd5b823567ffffffffffffffff8082111561358657600080fd5b818501915085601f83011261359a57600080fd5b8135818111156135a957600080fd5b8660206060830285010111156132fc57600080fd5b600081518084526020808501945080840160005b838110156135f75781516001600160a01b0316875295820195908201906001016135d2565b509495945050505050565b602081526000610c9d60208301846135be565b60006020828403121561362757600080fd5b8151610d2881613248565b6020808252601e908201527f63616c6c6572206973206e6f7420746865207269736b4f70657261746f720000604082015260600190565b634e487b7160e01b600052603260045260246000fd5b634e487b7160e01b600052601160045260246000fd5b60006000198214156136a9576136a961367f565b5060010190565b6000602082840312156136c257600080fd5b5051919050565b60008160001904831182151516156136e3576136e361367f565b500290565b60008261370557634e487b7160e01b600052601260045260246000fd5b500490565b6000821982111561371d5761371d61367f565b500190565b6001600160a01b0383168152604060208201819052600090610d73908301846133b4565b80516001600160701b03811681146108bb57600080fd5b60008060006060848603121561377257600080fd5b61377b84613746565b925061378960208501613746565b9150604084015163ffffffff811681146133a957600080fd5b6000828210156137b4576137b461367f565b500390565b85815284602082015260a0604082015260006137d860a08301866135be565b6001600160a01b0394909416606083015250608001529392505050565b60006020828403121561380757600080fd5b815160ff81168114610d2857600080fd5b600181815b808511156138535781600019048211156138395761383961367f565b8085161561384657918102915b93841c939080029061381d565b509250929050565b60008261386a57506001610ca0565b8161387757506000610ca0565b816001811461388d5760028114613897576138b3565b6001915050610ca0565b60ff8411156138a8576138a861367f565b50506001821b610ca0565b5060208310610133831016604e8410600b84101617156138d6575081810a610ca0565b6138e08383613818565b80600019048211156138f4576138f461367f565b029392505050565b6000610c9d838361385b56fe000000000000000000000000d9e1ce17f2641f24ae83637ab66a2cca9c378b9fa164736f6c634300080b000a"
}