{
  "address": "0xF68A922071457A8D08E9644C17060Ab57E6990fD",
  "abi": [
    {
      "inputs": [
        {
          "internalType": "address",
          "name": "_registry",
          "type": "address"
        },
        {
          "internalType": "contract IUniswapV2Router02",
          "name": "_uniswapV2Router",
          "type": "address"
        },
        {
          "internalType": "contract IOptyFiOracle",
          "name": "_optyFiOracle",
          "type": "address"
        }
      ],
      "stateMutability": "nonpayable",
      "type": "constructor"
    },
    {
      "inputs": [],
      "name": "DENOMINATOR",
      "outputs": [
        {
          "internalType": "uint256",
          "name": "",
          "type": "uint256"
        }
      ],
      "stateMutability": "view",
      "type": "function"
    },
    {
      "inputs": [],
      "name": "UniswapV2Router",
      "outputs": [
        {
          "internalType": "contract IUniswapV2Router02",
          "name": "",
          "type": "address"
        }
      ],
      "stateMutability": "view",
      "type": "function"
    },
    {
      "inputs": [
        {
          "internalType": "address",
          "name": "_inputToken",
          "type": "address"
        },
        {
          "internalType": "address",
          "name": "",
          "type": "address"
        },
        {
          "internalType": "address",
          "name": "_outputToken",
          "type": "address"
        },
        {
          "internalType": "uint256",
          "name": "_inputTokenAmount",
          "type": "uint256"
        }
      ],
      "name": "calculateAmountInLPToken",
      "outputs": [
        {
          "internalType": "uint256",
          "name": "",
          "type": "uint256"
        }
      ],
      "stateMutability": "view",
      "type": "function"
    },
    {
      "inputs": [
        {
          "internalType": "address",
          "name": "",
          "type": "address"
        }
      ],
      "name": "canStake",
      "outputs": [
        {
          "internalType": "bool",
          "name": "",
          "type": "bool"
        }
      ],
      "stateMutability": "pure",
      "type": "function"
    },
    {
      "inputs": [
        {
          "internalType": "address payable",
          "name": "_vault",
          "type": "address"
        },
        {
          "internalType": "address",
          "name": "_underlyingToken",
          "type": "address"
        },
        {
          "internalType": "address",
          "name": "_liquidityPool",
          "type": "address"
        },
        {
          "internalType": "address",
          "name": "_outputToken",
          "type": "address"
        }
      ],
      "name": "getAllAmountInToken",
      "outputs": [
        {
          "internalType": "uint256",
          "name": "",
          "type": "uint256"
        }
      ],
      "stateMutability": "view",
      "type": "function"
    },
    {
      "inputs": [
        {
          "internalType": "address payable",
          "name": "_vault",
          "type": "address"
        },
        {
          "internalType": "address",
          "name": "_inputToken",
          "type": "address"
        },
        {
          "internalType": "address",
          "name": "_liquidityPool",
          "type": "address"
        },
        {
          "internalType": "address",
          "name": "_outputToken",
          "type": "address"
        }
      ],
      "name": "getDepositAllCodes",
      "outputs": [
        {
          "internalType": "bytes[]",
          "name": "",
          "type": "bytes[]"
        }
      ],
      "stateMutability": "view",
      "type": "function"
    },
    {
      "inputs": [
        {
          "internalType": "address payable",
          "name": "_vault",
          "type": "address"
        },
        {
          "internalType": "address",
          "name": "_inputToken",
          "type": "address"
        },
        {
          "internalType": "address",
          "name": "_liquidityPool",
          "type": "address"
        },
        {
          "internalType": "address",
          "name": "_outputToken",
          "type": "address"
        },
        {
          "internalType": "uint256",
          "name": "_amount",
          "type": "uint256"
        }
      ],
      "name": "getDepositSomeCodes",
      "outputs": [
        {
          "internalType": "bytes[]",
          "name": "_codes",
          "type": "bytes[]"
        }
      ],
      "stateMutability": "view",
      "type": "function"
    },
    {
      "inputs": [
        {
          "internalType": "address payable",
          "name": "_vault",
          "type": "address"
        },
        {
          "internalType": "address",
          "name": "",
          "type": "address"
        },
        {
          "internalType": "address",
          "name": "",
          "type": "address"
        },
        {
          "internalType": "address",
          "name": "_outputToken",
          "type": "address"
        }
      ],
      "name": "getLiquidityPoolTokenBalance",
      "outputs": [
        {
          "internalType": "uint256",
          "name": "",
          "type": "uint256"
        }
      ],
      "stateMutability": "view",
      "type": "function"
    },
    {
      "inputs": [
        {
          "internalType": "address",
          "name": "_underlyingToken",
          "type": "address"
        },
        {
          "internalType": "address",
          "name": "",
          "type": "address"
        },
        {
          "internalType": "address",
          "name": "_outputToken",
          "type": "address"
        },
        {
          "internalType": "uint256",
          "name": "_outputTokenAmount",
          "type": "uint256"
        }
      ],
      "name": "getSomeAmountInToken",
      "outputs": [
        {
          "internalType": "uint256",
          "name": "",
          "type": "uint256"
        }
      ],
      "stateMutability": "view",
      "type": "function"
    },
    {
      "inputs": [
        {
          "internalType": "address payable",
          "name": "_vault",
          "type": "address"
        },
        {
          "internalType": "address",
          "name": "_underlyingToken",
          "type": "address"
        },
        {
          "internalType": "address",
          "name": "_liquidityPool",
          "type": "address"
        },
        {
          "internalType": "address",
          "name": "_outputToken",
          "type": "address"
        }
      ],
      "name": "getWithdrawAllCodes",
      "outputs": [
        {
          "internalType": "bytes[]",
          "name": "_codes",
          "type": "bytes[]"
        }
      ],
      "stateMutability": "view",
      "type": "function"
    },
    {
      "inputs": [
        {
          "internalType": "address payable",
          "name": "_vault",
          "type": "address"
        },
        {
          "internalType": "address",
          "name": "_inputToken",
          "type": "address"
        },
        {
          "internalType": "address",
          "name": "_liquidityPool",
          "type": "address"
        },
        {
          "internalType": "address",
          "name": "_outputToken",
          "type": "address"
        },
        {
          "internalType": "uint256",
          "name": "_amount",
          "type": "uint256"
        }
      ],
      "name": "getWithdrawSomeCodes",
      "outputs": [
        {
          "internalType": "bytes[]",
          "name": "_codes",
          "type": "bytes[]"
        }
      ],
      "stateMutability": "view",
      "type": "function"
    },
    {
      "inputs": [
        {
          "internalType": "address",
          "name": "",
          "type": "address"
        },
        {
          "internalType": "address",
          "name": "",
          "type": "address"
        }
      ],
      "name": "liquidityPoolToWantTokenToSlippage",
      "outputs": [
        {
          "internalType": "uint256",
          "name": "",
          "type": "uint256"
        }
      ],
      "stateMutability": "view",
      "type": "function"
    },
    {
      "inputs": [],
      "name": "optyFiOracle",
      "outputs": [
        {
          "internalType": "contract IOptyFiOracle",
          "name": "",
          "type": "address"
        }
      ],
      "stateMutability": "view",
      "type": "function"
    },
    {
      "inputs": [],
      "name": "registryContract",
      "outputs": [
        {
          "internalType": "contract IAdapterRegistryBase",
          "name": "",
          "type": "address"
        }
      ],
      "stateMutability": "view",
      "type": "function"
    },
    {
      "inputs": [
        {
          "components": [
            {
              "internalType": "address",
              "name": "liquidityPool",
              "type": "address"
            },
            {
              "internalType": "address",
              "name": "wantToken",
              "type": "address"
            },
            {
              "internalType": "uint256",
              "name": "slippage",
              "type": "uint256"
            }
          ],
          "internalType": "struct Slippage[]",
          "name": "_slippages",
          "type": "tuple[]"
        }
      ],
      "name": "setLiquidityPoolToWantTokenToSlippage",
      "outputs": [],
      "stateMutability": "nonpayable",
      "type": "function"
    },
    {
      "inputs": [
        {
          "internalType": "contract IOptyFiOracle",
          "name": "_optyfiOracle",
          "type": "address"
        }
      ],
      "name": "setOptyFiOracle",
      "outputs": [],
      "stateMutability": "nonpayable",
      "type": "function"
    },
    {
      "inputs": [
        {
          "internalType": "address",
          "name": "_registry",
          "type": "address"
        }
      ],
      "name": "setRegistry",
      "outputs": [],
      "stateMutability": "nonpayable",
      "type": "function"
    }
  ],
  "transactionHash": "0xcf54c1a30cf84e114fd1aba38d788463aa8caa420b2c6ee14df7f0acc5b636ad",
  "args": [
    "0x99fa011e33a8c6196869dec7bc407e896ba67fe3",
    "0xd9e1ce17f2641f24ae83637ab66a2cca9c378b9f",
    "0xC77AFEf1deeeF80Eb814aD159c93B28026FEbbe2"
  ],
  "numDeployments": 1,
  "bytecode": "0x60a060405234801561001057600080fd5b506040516200148b3803806200148b83398101604081905261003191610080565b600080546001600160a01b039485166001600160a01b031991821617909155918316608052600180549190931691161790556100cd565b6001600160a01b038116811461007d57600080fd5b50565b60008060006060848603121561009557600080fd5b83516100a081610068565b60208501519093506100b181610068565b60408501519092506100c281610068565b809150509250925092565b608051611394620000f760003960008181610115015281816104a10152610d4f01526113946000f3fe608060405234801561001057600080fd5b506004361061010b5760003560e01c806328c1f99b116100a2578063a9d5210611610071578063a9d5210614610261578063ac48c63614610274578063d994771114610287578063df147b3b1461029a578063f2bbc6e2146102ad57600080fd5b806328c1f99b1461020e57806336d8bf9314610221578063918f867414610245578063a91ee0dc1461024e57600080fd5b80631ee383e8116100de5780631ee383e8146101a85780632336fb41146101bb57806327503290146101e6578063281c4ec5146101fb57600080fd5b8063055add0d146101105780630a797578146101545780630b39c588146101745780631b5dfc9214610195575b600080fd5b6101377f000000000000000000000000000000000000000000000000000000000000000081565b6040516001600160a01b0390911681526020015b60405180910390f35b610167610162366004610e58565b6102c0565b60405161014b9190610f01565b610187610182366004610e58565b610342565b60405190815260200161014b565b6101676101a3366004610f63565b6103ba565b6101876101b6366004610fc7565b61057d565b6101876101c9366004611018565b600260209081526000928352604080842090915290825290205481565b6101f96101f4366004611051565b6106a4565b005b610167610209366004610e58565b6107a0565b600054610137906001600160a01b031681565b61023561022f366004611051565b50600090565b604051901515815260200161014b565b61018761271081565b6101f961025c366004611051565b610819565b61018761026f366004610e58565b610955565b610187610282366004610fc7565b6109c3565b600154610137906001600160a01b031681565b6101f96102a8366004611075565b610ac1565b6101676102bb366004610f63565b610c68565b6040516370a0823160e01b81526001600160a01b0380861660048301526060916103399187918791879187918416906370a0823190602401602060405180830381865afa158015610315573d6000803e3d6000fd5b505050506040513d601f19601f820116820180604052508101906102bb91906110ea565b95945050505050565b6040516370a0823160e01b81526001600160a01b03858116600483015260009161033991869186918691908216906370a0823190602401602060405180830381865afa158015610396573d6000803e3d6000fd5b505050506040513d601f19601f820116820180604052508101906101b691906110ea565b606081156103395760408051600180825281830190925290816020015b60608152602001906001900390816103d757905050905060006103fc8686868661057d565b6040805160028082526060820183529293506000929091602083019080368337019050509050848160008151811061043657610436611103565b60200260200101906001600160a01b031690816001600160a01b031681525050868160018151811061046a5761046a611103565b6001600160a01b0392831660209182029290920181019190915287821660009081526002825260408082208b8516835290925220547f0000000000000000000000000000000000000000000000000000000000000000918216906338ed1739908790612710906104da908261112f565b6104e49088611146565b6104ee9190611165565b858d600019604051602401610507959493929190611187565b604051602081830303815290604052915060e01b6020820180516001600160e01b0383818316178352505050506040516020016105459291906111f8565b6040516020818303038152906040528360008151811061056757610567611103565b6020026020010181905250505095945050505050565b600080856001600160a01b031663313ce5676040518163ffffffff1660e01b8152600401602060405180830381865afa1580156105be573d6000803e3d6000fd5b505050506040513d601f19601f820116820180604052508101906105e29190611224565b60ff1690506000846001600160a01b031663313ce5676040518163ffffffff1660e01b8152600401602060405180830381865afa158015610627573d6000803e3d6000fd5b505050506040513d601f19601f8201168201806040525081019061064b9190611224565b60ff16905061065b816012611247565b61066690600a611343565b61067183600a611343565b61067b878a610d88565b6106859087611146565b61068f9190611146565b6106999190611165565b979650505050505050565b60008054906101000a90046001600160a01b03166001600160a01b031663e7f43c686040518163ffffffff1660e01b8152600401602060405180830381865afa1580156106f5573d6000803e3d6000fd5b505050506040513d601f19601f82011682018060405250810190610719919061134f565b6001600160a01b0316336001600160a01b03161461077e5760405162461bcd60e51b815260206004820152601a60248201527f63616c6c6572206973206e6f7420746865206f70657261746f7200000000000060448201526064015b60405180910390fd5b600180546001600160a01b0319166001600160a01b0392909216919091179055565b6040516370a0823160e01b81526001600160a01b0380861660048301526060916103399187918791879187918216906370a0823190602401602060405180830381865afa1580156107f5573d6000803e3d6000fd5b505050506040513d601f19601f820116820180604052508101906101a391906110ea565b60008054906101000a90046001600160a01b03166001600160a01b031663e7f43c686040518163ffffffff1660e01b8152600401602060405180830381865afa15801561086a573d6000803e3d6000fd5b505050506040513d601f19601f8201168201806040525081019061088e919061134f565b6001600160a01b0316336001600160a01b0316146108ee5760405162461bcd60e51b815260206004820152601a60248201527f63616c6c6572206973206e6f7420746865206f70657261746f720000000000006044820152606401610775565b6001600160a01b0381163b6109335760405162461bcd60e51b815260206004820152600b60248201526a085a5cd0dbdb9d1c9858dd60aa1b6044820152606401610775565b600080546001600160a01b0319166001600160a01b0392909216919091179055565b6040516370a0823160e01b81526001600160a01b038581166004830152600091908316906370a0823190602401602060405180830381865afa15801561099f573d6000803e3d6000fd5b505050506040513d601f19601f8201168201806040525081019061033991906110ea565b600080856001600160a01b031663313ce5676040518163ffffffff1660e01b8152600401602060405180830381865afa158015610a04573d6000803e3d6000fd5b505050506040513d601f19601f82011682018060405250810190610a289190611224565b60ff1690506000846001600160a01b031663313ce5676040518163ffffffff1660e01b8152600401602060405180830381865afa158015610a6d573d6000803e3d6000fd5b505050506040513d601f19601f82011682018060405250810190610a919190611224565b60ff169050610aa1826012611247565b610aac90600a611343565b610ab782600a611343565b61067b8988610d88565b60008054906101000a90046001600160a01b03166001600160a01b0316637af0e5576040518163ffffffff1660e01b8152600401602060405180830381865afa158015610b12573d6000803e3d6000fd5b505050506040513d601f19601f82011682018060405250810190610b36919061134f565b6001600160a01b0316336001600160a01b031614610b965760405162461bcd60e51b815260206004820152601e60248201527f63616c6c6572206973206e6f7420746865207269736b4f70657261746f7200006044820152606401610775565b8060005b81811015610c6257838382818110610bb457610bb4611103565b9050606002016040013560026000868685818110610bd457610bd4611103565b610bea9260206060909202019081019150611051565b6001600160a01b03166001600160a01b031681526020019081526020016000206000868685818110610c1e57610c1e611103565b9050606002016020016020810190610c369190611051565b6001600160a01b0316815260208101919091526040016000205580610c5a8161136c565b915050610b9a565b50505050565b606081156103395760408051600180825281830190925290816020015b6060815260200190600190039081610c855790505090506000610caa868686866109c3565b60408051600280825260608201835292935060009290916020830190803683370190505090508681600081518110610ce457610ce4611103565b60200260200101906001600160a01b031690816001600160a01b0316815250508481600181518110610d1857610d18611103565b6001600160a01b039283166020918202929092018101919091528782166000908152600282526040808220898516835290925220547f0000000000000000000000000000000000000000000000000000000000000000918216906338ed1739908790612710906104da908261112f565b60015460405163057d4cc360e51b81526001600160a01b0384811660048301528381166024830152600092169063afa9986090604401602060405180830381865afa158015610ddb573d6000803e3d6000fd5b505050506040513d601f19601f82011682018060405250810190610dff91906110ea565b905060008111610e3a5760405162461bcd60e51b815260206004820152600660248201526521707269636560d01b6044820152606401610775565b92915050565b6001600160a01b0381168114610e5557600080fd5b50565b60008060008060808587031215610e6e57600080fd5b8435610e7981610e40565b93506020850135610e8981610e40565b92506040850135610e9981610e40565b91506060850135610ea981610e40565b939692955090935050565b6000815180845260005b81811015610eda57602081850181015186830182015201610ebe565b81811115610eec576000602083870101525b50601f01601f19169290920160200192915050565b6000602080830181845280855180835260408601915060408160051b870101925083870160005b82811015610f5657603f19888603018452610f44858351610eb4565b94509285019290850190600101610f28565b5092979650505050505050565b600080600080600060a08688031215610f7b57600080fd5b8535610f8681610e40565b94506020860135610f9681610e40565b93506040860135610fa681610e40565b92506060860135610fb681610e40565b949793965091946080013592915050565b60008060008060808587031215610fdd57600080fd5b8435610fe881610e40565b93506020850135610ff881610e40565b9250604085013561100881610e40565b9396929550929360600135925050565b6000806040838503121561102b57600080fd5b823561103681610e40565b9150602083013561104681610e40565b809150509250929050565b60006020828403121561106357600080fd5b813561106e81610e40565b9392505050565b6000806020838503121561108857600080fd5b823567ffffffffffffffff808211156110a057600080fd5b818501915085601f8301126110b457600080fd5b8135818111156110c357600080fd5b8660206060830285010111156110d857600080fd5b60209290920196919550909350505050565b6000602082840312156110fc57600080fd5b5051919050565b634e487b7160e01b600052603260045260246000fd5b634e487b7160e01b600052601160045260246000fd5b60008282101561114157611141611119565b500390565b600081600019048311821515161561116057611160611119565b500290565b60008261118257634e487b7160e01b600052601260045260246000fd5b500490565b600060a082018783526020878185015260a0604085015281875180845260c086019150828901935060005b818110156111d75784516001600160a01b0316835293830193918301916001016111b2565b50506001600160a01b03969096166060850152505050608001529392505050565b6001600160a01b038316815260406020820181905260009061121c90830184610eb4565b949350505050565b60006020828403121561123657600080fd5b815160ff8116811461106e57600080fd5b6000821982111561125a5761125a611119565b500190565b600181815b8085111561129a57816000190482111561128057611280611119565b8085161561128d57918102915b93841c9390800290611264565b509250929050565b6000826112b157506001610e3a565b816112be57506000610e3a565b81600181146112d457600281146112de576112fa565b6001915050610e3a565b60ff8411156112ef576112ef611119565b50506001821b610e3a565b5060208310610133831016604e8410600b841016171561131d575081810a610e3a565b611327838361125f565b806000190482111561133b5761133b611119565b029392505050565b600061106e83836112a2565b60006020828403121561136157600080fd5b815161106e81610e40565b600060001982141561138057611380611119565b506001019056fea164736f6c634300080b000a"
}