{
  "address": "0x081a71C6fD95acBC5e04c2E409878De09DbdEb37",
  "abi": [
    {
      "inputs": [
        {
          "internalType": "address",
          "name": "_registry",
          "type": "address"
        }
      ],
      "stateMutability": "nonpayable",
      "type": "constructor"
    },
    {
      "anonymous": false,
      "inputs": [
        {
          "indexed": true,
          "internalType": "uint256",
          "name": "maxDepositAmount",
          "type": "uint256"
        },
        {
          "indexed": true,
          "internalType": "address",
          "name": "caller",
          "type": "address"
        }
      ],
      "name": "LogMaxDepositAmount",
      "type": "event"
    },
    {
      "anonymous": false,
      "inputs": [
        {
          "indexed": true,
          "internalType": "uint256",
          "name": "maxDepositPoolPct",
          "type": "uint256"
        },
        {
          "indexed": true,
          "internalType": "address",
          "name": "caller",
          "type": "address"
        }
      ],
      "name": "LogMaxDepositPoolPct",
      "type": "event"
    },
    {
      "anonymous": false,
      "inputs": [
        {
          "indexed": true,
          "internalType": "enum MaxExposure",
          "name": "maxDepositProtocolMode",
          "type": "uint8"
        },
        {
          "indexed": true,
          "internalType": "address",
          "name": "caller",
          "type": "address"
        }
      ],
      "name": "LogMaxDepositProtocolMode",
      "type": "event"
    },
    {
      "anonymous": false,
      "inputs": [
        {
          "indexed": true,
          "internalType": "uint256",
          "name": "maxDepositProtocolPct",
          "type": "uint256"
        },
        {
          "indexed": true,
          "internalType": "address",
          "name": "caller",
          "type": "address"
        }
      ],
      "name": "LogMaxDepositProtocolPct",
      "type": "event"
    },
    {
      "inputs": [],
      "name": "DENOMINATOR",
      "outputs": [
        {
          "internalType": "uint256",
          "name": "",
          "type": "uint256"
        }
      ],
      "stateMutability": "view",
      "type": "function"
    },
    {
      "inputs": [
        {
          "internalType": "address",
          "name": "_underlyingToken",
          "type": "address"
        },
        {
          "internalType": "address",
          "name": "_liquidityPool",
          "type": "address"
        },
        {
          "internalType": "uint256",
          "name": "_depositAmount",
          "type": "uint256"
        }
      ],
      "name": "calculateAmountInLPToken",
      "outputs": [
        {
          "internalType": "uint256",
          "name": "",
          "type": "uint256"
        }
      ],
      "stateMutability": "view",
      "type": "function"
    },
    {
      "inputs": [
        {
          "internalType": "address payable",
          "name": "_vault",
          "type": "address"
        },
        {
          "internalType": "address",
          "name": "_underlyingToken",
          "type": "address"
        },
        {
          "internalType": "address",
          "name": "_liquidityPool",
          "type": "address"
        },
        {
          "internalType": "uint256",
          "name": "_redeemAmount",
          "type": "uint256"
        }
      ],
      "name": "calculateRedeemableLPTokenAmount",
      "outputs": [
        {
          "internalType": "uint256",
          "name": "",
          "type": "uint256"
        }
      ],
      "stateMutability": "view",
      "type": "function"
    },
    {
      "inputs": [
        {
          "internalType": "address",
          "name": "",
          "type": "address"
        }
      ],
      "name": "canStake",
      "outputs": [
        {
          "internalType": "bool",
          "name": "",
          "type": "bool"
        }
      ],
      "stateMutability": "pure",
      "type": "function"
    },
    {
      "inputs": [
        {
          "internalType": "address payable",
          "name": "_vault",
          "type": "address"
        },
        {
          "internalType": "address",
          "name": "_underlyingToken",
          "type": "address"
        },
        {
          "internalType": "address",
          "name": "_liquidityPool",
          "type": "address"
        }
      ],
      "name": "getAllAmountInToken",
      "outputs": [
        {
          "internalType": "uint256",
          "name": "",
          "type": "uint256"
        }
      ],
      "stateMutability": "view",
      "type": "function"
    },
    {
      "inputs": [
        {
          "internalType": "address payable",
          "name": "_vault",
          "type": "address"
        },
        {
          "internalType": "address",
          "name": "_underlyingToken",
          "type": "address"
        },
        {
          "internalType": "address",
          "name": "_liquidityPool",
          "type": "address"
        }
      ],
      "name": "getDepositAllCodes",
      "outputs": [
        {
          "internalType": "bytes[]",
          "name": "_codes",
          "type": "bytes[]"
        }
      ],
      "stateMutability": "view",
      "type": "function"
    },
    {
      "inputs": [
        {
          "internalType": "address payable",
          "name": "_vault",
          "type": "address"
        },
        {
          "internalType": "address",
          "name": "_underlyingToken",
          "type": "address"
        },
        {
          "internalType": "address",
          "name": "_liquidityPool",
          "type": "address"
        },
        {
          "internalType": "uint256",
          "name": "_amount",
          "type": "uint256"
        }
      ],
      "name": "getDepositSomeCodes",
      "outputs": [
        {
          "internalType": "bytes[]",
          "name": "_codes",
          "type": "bytes[]"
        }
      ],
      "stateMutability": "view",
      "type": "function"
    },
    {
      "inputs": [
        {
          "internalType": "address",
          "name": "",
          "type": "address"
        },
        {
          "internalType": "address",
          "name": "_liquidityPool",
          "type": "address"
        }
      ],
      "name": "getLiquidityPoolToken",
      "outputs": [
        {
          "internalType": "address",
          "name": "",
          "type": "address"
        }
      ],
      "stateMutability": "pure",
      "type": "function"
    },
    {
      "inputs": [
        {
          "internalType": "address payable",
          "name": "_vault",
          "type": "address"
        },
        {
          "internalType": "address",
          "name": "",
          "type": "address"
        },
        {
          "internalType": "address",
          "name": "_liquidityPool",
          "type": "address"
        }
      ],
      "name": "getLiquidityPoolTokenBalance",
      "outputs": [
        {
          "internalType": "uint256",
          "name": "",
          "type": "uint256"
        }
      ],
      "stateMutability": "view",
      "type": "function"
    },
    {
      "inputs": [
        {
          "internalType": "address",
          "name": "_liquidityPool",
          "type": "address"
        },
        {
          "internalType": "address",
          "name": "_underlyingToken",
          "type": "address"
        }
      ],
      "name": "getPoolValue",
      "outputs": [
        {
          "internalType": "uint256",
          "name": "",
          "type": "uint256"
        }
      ],
      "stateMutability": "view",
      "type": "function"
    },
    {
      "inputs": [
        {
          "internalType": "address",
          "name": "",
          "type": "address"
        }
      ],
      "name": "getRewardToken",
      "outputs": [
        {
          "internalType": "address",
          "name": "",
          "type": "address"
        }
      ],
      "stateMutability": "pure",
      "type": "function"
    },
    {
      "inputs": [
        {
          "internalType": "address",
          "name": "_underlyingToken",
          "type": "address"
        },
        {
          "internalType": "address",
          "name": "_liquidityPool",
          "type": "address"
        },
        {
          "internalType": "uint256",
          "name": "_liquidityPoolTokenAmount",
          "type": "uint256"
        }
      ],
      "name": "getSomeAmountInToken",
      "outputs": [
        {
          "internalType": "uint256",
          "name": "",
          "type": "uint256"
        }
      ],
      "stateMutability": "view",
      "type": "function"
    },
    {
      "inputs": [
        {
          "internalType": "address",
          "name": "_liquidityPool",
          "type": "address"
        },
        {
          "internalType": "address",
          "name": "",
          "type": "address"
        }
      ],
      "name": "getUnderlyingTokens",
      "outputs": [
        {
          "internalType": "address[]",
          "name": "_underlyingTokens",
          "type": "address[]"
        }
      ],
      "stateMutability": "view",
      "type": "function"
    },
    {
      "inputs": [
        {
          "internalType": "address payable",
          "name": "_vault",
          "type": "address"
        },
        {
          "internalType": "address",
          "name": "_underlyingToken",
          "type": "address"
        },
        {
          "internalType": "address",
          "name": "_liquidityPool",
          "type": "address"
        }
      ],
      "name": "getWithdrawAllCodes",
      "outputs": [
        {
          "internalType": "bytes[]",
          "name": "_codes",
          "type": "bytes[]"
        }
      ],
      "stateMutability": "view",
      "type": "function"
    },
    {
      "inputs": [
        {
          "internalType": "address payable",
          "name": "_vault",
          "type": "address"
        },
        {
          "internalType": "address",
          "name": "_underlyingToken",
          "type": "address"
        },
        {
          "internalType": "address",
          "name": "_liquidityPool",
          "type": "address"
        },
        {
          "internalType": "uint256",
          "name": "_shares",
          "type": "uint256"
        }
      ],
      "name": "getWithdrawSomeCodes",
      "outputs": [
        {
          "internalType": "bytes[]",
          "name": "_codes",
          "type": "bytes[]"
        }
      ],
      "stateMutability": "view",
      "type": "function"
    },
    {
      "inputs": [
        {
          "internalType": "address payable",
          "name": "_vault",
          "type": "address"
        },
        {
          "internalType": "address",
          "name": "_underlyingToken",
          "type": "address"
        },
        {
          "internalType": "address",
          "name": "_liquidityPool",
          "type": "address"
        },
        {
          "internalType": "uint256",
          "name": "_redeemAmount",
          "type": "uint256"
        }
      ],
      "name": "isRedeemableAmountSufficient",
      "outputs": [
        {
          "internalType": "bool",
          "name": "",
          "type": "bool"
        }
      ],
      "stateMutability": "view",
      "type": "function"
    },
    {
      "inputs": [
        {
          "internalType": "address",
          "name": "",
          "type": "address"
        },
        {
          "internalType": "address",
          "name": "",
          "type": "address"
        }
      ],
      "name": "maxDepositAmount",
      "outputs": [
        {
          "internalType": "uint256",
          "name": "",
          "type": "uint256"
        }
      ],
      "stateMutability": "view",
      "type": "function"
    },
    {
      "inputs": [
        {
          "internalType": "address",
          "name": "",
          "type": "address"
        }
      ],
      "name": "maxDepositPoolPct",
      "outputs": [
        {
          "internalType": "uint256",
          "name": "",
          "type": "uint256"
        }
      ],
      "stateMutability": "view",
      "type": "function"
    },
    {
      "inputs": [],
      "name": "maxDepositProtocolMode",
      "outputs": [
        {
          "internalType": "enum MaxExposure",
          "name": "",
          "type": "uint8"
        }
      ],
      "stateMutability": "view",
      "type": "function"
    },
    {
      "inputs": [],
      "name": "maxDepositProtocolPct",
      "outputs": [
        {
          "internalType": "uint256",
          "name": "",
          "type": "uint256"
        }
      ],
      "stateMutability": "view",
      "type": "function"
    },
    {
      "inputs": [],
      "name": "registryContract",
      "outputs": [
        {
          "internalType": "contract IAdapterRegistryBase",
          "name": "",
          "type": "address"
        }
      ],
      "stateMutability": "view",
      "type": "function"
    },
    {
      "inputs": [
        {
          "internalType": "address",
          "name": "_liquidityPool",
          "type": "address"
        },
        {
          "internalType": "address",
          "name": "_underlyingToken",
          "type": "address"
        },
        {
          "internalType": "uint256",
          "name": "_maxDepositAmount",
          "type": "uint256"
        }
      ],
      "name": "setMaxDepositAmount",
      "outputs": [],
      "stateMutability": "nonpayable",
      "type": "function"
    },
    {
      "inputs": [
        {
          "internalType": "address",
          "name": "_liquidityPool",
          "type": "address"
        },
        {
          "internalType": "uint256",
          "name": "_maxDepositPoolPct",
          "type": "uint256"
        }
      ],
      "name": "setMaxDepositPoolPct",
      "outputs": [],
      "stateMutability": "nonpayable",
      "type": "function"
    },
    {
      "inputs": [
        {
          "internalType": "enum MaxExposure",
          "name": "_mode",
          "type": "uint8"
        }
      ],
      "name": "setMaxDepositProtocolMode",
      "outputs": [],
      "stateMutability": "nonpayable",
      "type": "function"
    },
    {
      "inputs": [
        {
          "internalType": "uint256",
          "name": "_maxDepositProtocolPct",
          "type": "uint256"
        }
      ],
      "name": "setMaxDepositProtocolPct",
      "outputs": [],
      "stateMutability": "nonpayable",
      "type": "function"
    },
    {
      "inputs": [
        {
          "internalType": "address",
          "name": "_registry",
          "type": "address"
        }
      ],
      "name": "setRegistry",
      "outputs": [],
      "stateMutability": "nonpayable",
      "type": "function"
    },
    {
      "inputs": [],
      "name": "sushiswapFactory",
      "outputs": [
        {
          "internalType": "contract IUniswapV2Factory",
          "name": "",
          "type": "address"
        }
      ],
      "stateMutability": "view",
      "type": "function"
    },
    {
      "inputs": [],
      "name": "sushiswapRouter",
      "outputs": [
        {
          "internalType": "contract IUniswapV2Router02",
          "name": "",
          "type": "address"
        }
      ],
      "stateMutability": "view",
      "type": "function"
    }
  ],
  "transactionHash": "0x30bfe5eb6a112d17280a301148a3aeb8004f9efaa375c273b3e1711496f2dfa4",
  "args": [
    "0x99fa011e33a8c6196869dec7bc407e896ba67fe3"
  ],
  "bytecode": "0x60806040523480156200001157600080fd5b50604051620027bf380380620027bf83398101604081905262000034916200006f565b600080546001600160a01b0319166001600160a01b038316179055612710600355600480546001919060ff19168280021790555050620000a1565b6000602082840312156200008257600080fd5b81516001600160a01b03811681146200009a57600080fd5b9392505050565b61270e80620000b16000396000f3fe608060405234801561001057600080fd5b50600436106101c45760003560e01c806385541e44116100f9578063df93572211610097578063ee665bed11610071578063ee665bed146103ff578063ef856be914610412578063f1aacbb714610432578063f49307ca1461044557600080fd5b8063df935722146103be578063e49d5ecc146103d1578063e9240c2d146103e457600080fd5b8063919b69d7116100d3578063919b69d714610372578063a91ee0dc14610385578063d74baaf814610398578063da699f96146103ab57600080fd5b806385541e441461034357806390e6160514610356578063918f86741461036957600080fd5b80634ad36e0211610166578063609257791161014057806360925779146102fa57806364dd5f801461030d57806377078872146103205780637c47b3f41461032e57600080fd5b80634ad36e02146102ac5780634f83b52d146102bf578063501070be146102df57600080fd5b80632af06b96116101a25780632af06b961461023b5780632de778381461025557806336d8bf9314610268578063489b52951461028c57600080fd5b8063027a304d146101c9578063191c194b1461020757806328c1f99b14610210575b600080fd5b6101f46101d7366004612217565b600160209081526000928352604080842090915290825290205481565b6040519081526020015b60405180910390f35b6101f460035481565b600054610223906001600160a01b031681565b6040516001600160a01b0390911681526020016101fe565b6004546102489060ff1681565b6040516101fe9190612266565b6101f4610263366004612217565b610458565b61027c61027636600461228e565b50600090565b60405190151581526020016101fe565b61029f61029a3660046122ab565b6104d8565b6040516101fe9190612343565b6101f46102ba3660046123a5565b61055f565b6101f46102cd36600461228e565b60026020526000908152604090205481565b61022373c0aee478e3658e2610c5f7a4a2e1777ce9e4f2ac81565b61029f6103083660046123a5565b6105ab565b6101f461031b3660046122ab565b610bf1565b61022361027636600461228e565b61034161033c3660046123f6565b610c03565b005b6101f4610351366004612417565b610d13565b6101f46103643660046122ab565b610ee2565b6101f461271081565b610341610380366004612458565b610f50565b61034161039336600461228e565b61103e565b6102236103a6366004612217565b919050565b6103416103b9366004612484565b61117a565b61029f6103cc3660046123a5565b611254565b61027c6103df3660046123a5565b61186b565b61022373d9e1ce17f2641f24ae83637ab66a2cca9c378b9f81565b6101f461040d366004612417565b611886565b610425610420366004612217565b6119fc565b6040516101fe91906124e1565b610341610440366004612417565b611b4c565b61029f6104533660046122ab565b611c4a565b6040516370a0823160e01b81526001600160a01b038381166004830152600091908316906370a0823190602401602060405180830381865afa1580156104a2573d6000803e3d6000fd5b505050506040513d601f19601f820116820180604052508101906104c691906124f4565b6104d1906002612523565b9392505050565b6040516370a0823160e01b81526001600160a01b0384811660048301526060916000918516906370a0823190602401602060405180830381865afa158015610524573d6000803e3d6000fd5b505050506040513d601f19601f8201168201806040525081019061054891906124f4565b905061055685858584611254565b95945050505050565b60008061056d868686610ee2565b9050600061057c878787610bf1565b9050806105898584612523565b6105939190612542565b61059e906001612564565b925050505b949350505050565b606081156105a35760408051600680825260e0820190925290816020015b60608152602001906001900390816105c95790505060405173d9e1ce17f2641f24ae83637ab66a2cca9c378b9f602482015260006044820152909150839060640160408051601f19818403018152918152602080830180516001600160e01b031663095ea7b360e01b17905290516106439392910161257c565b60405160208183030381529060405281600081518110610665576106656125a0565b602090810291909101015260405173d9e1ce17f2641f24ae83637ab66a2cca9c378b9f602482015260448101839052839060640160408051601f19818403018152918152602080830180516001600160e01b031663095ea7b360e01b17905290516106d29392910161257c565b604051602081830303815290604052816001815181106106f4576106f46125a0565b60200260200101819052506000836001600160a01b031663d21220a76040518163ffffffff1660e01b8152600401602060405180830381865afa15801561073f573d6000803e3d6000fd5b505050506040513d601f19601f8201168201806040525081019061076391906125b6565b9050600080600080876001600160a01b0316630902f1ac6040518163ffffffff1660e01b8152600401606060405180830381865afa1580156107a9573d6000803e3d6000fd5b505050506040513d601f19601f820116820180604052508101906107cd91906125ea565b506001600160701b03918216935016905060006107eb898484611c67565b9050806107f88985612523565b6108029190612542565b94508061080f8984612523565b6108199190612542565b935073d9e1ce17f2641f24ae83637ab66a2cca9c378b9f90508986896064610842896063612523565b61084c9190612542565b6064610859896063612523565b6108639190612542565b6040516001600160a01b03958616602482015293851660448501526064840192909252608483015260a4820152908c1660c482015260001960e48201526101040160408051601f19818403018152918152602080830180516001600160e01b0316635d5155ef60e11b17905290516108dd9392910161257c565b604051602081830303815290604052866002815181106108ff576108ff6125a0565b6020026020010181905250886001600160a01b0316856001600160a01b0316141561098c57876001600160a01b0316630dfe16816040518163ffffffff1660e01b8152600401602060405180830381865afa158015610962573d6000803e3d6000fd5b505050506040513d601f19601f8201168201806040525081019061098691906125b6565b94509192915b6040516001600160a01b038916602482015260006044820152859060640160408051601f19818403018152918152602080830180516001600160e01b031663095ea7b360e01b17905290516109e39392910161257c565b60405160208183030381529060405286600381518110610a0557610a056125a0565b602090810291909101015260405173d9e1ce17f2641f24ae83637ab66a2cca9c378b9f602482015260448101849052859060640160408051601f19818403018152918152602080830180516001600160e01b031663095ea7b360e01b1790529051610a729392910161257c565b60405160208183030381529060405286600481518110610a9457610a946125a0565b6020908102919091010152604080516002808252606082019092526000918160200160208202803683370190505090508581600081518110610ad857610ad86125a0565b60200260200101906001600160a01b031690816001600160a01b0316815250508981600181518110610b0c57610b0c6125a0565b60200260200101906001600160a01b031690816001600160a01b03168152505073d9e1ce17f2641f24ae83637ab66a2cca9c378b9f846064610b4f888787611e52565b610b5a906063612523565b610b649190612542565b838e600019604051602401610b7d95949392919061262f565b60408051601f19818403018152918152602080830180516001600160e01b03166338ed173960e01b1790529051610bb69392910161257c565b60405160208183030381529060405287600581518110610bd857610bd86125a0565b6020026020010181905250505050505050949350505050565b60006105a3838361040d878787610ee2565b60008054906101000a90046001600160a01b03166001600160a01b0316637af0e5576040518163ffffffff1660e01b8152600401602060405180830381865afa158015610c54573d6000803e3d6000fd5b505050506040513d601f19601f82011682018060405250810190610c7891906125b6565b6001600160a01b0316336001600160a01b031614610cb15760405162461bcd60e51b8152600401610ca89061266b565b60405180910390fd5b6004805482919060ff191660018381811115610ccf57610ccf612250565b021790555033816001811115610ce757610ce7612250565b6040517f68e3b01155b193b02181f2c0ed491c934a74348d211ff023f8fc6ac5edf22aa090600090a350565b6000806000846001600160a01b0316630902f1ac6040518163ffffffff1660e01b8152600401606060405180830381865afa158015610d56573d6000803e3d6000fd5b505050506040513d601f19601f82011682018060405250810190610d7a91906125ea565b506001600160701b031691506001600160701b03169150856001600160a01b0316856001600160a01b0316630dfe16816040518163ffffffff1660e01b8152600401602060405180830381865afa158015610dd9573d6000803e3d6000fd5b505050506040513d601f19601f82011682018060405250810190610dfd91906125b6565b6001600160a01b031614610e0d57905b6000610e198386611f31565b90506000610e28828585611e52565b9050610e348285612564565b9350610e4081846126a2565b92506000610e4f888686611c67565b90506000610e5d84896126a2565b90506000610e6c828888611f87565b905083811115610e86575082610e83818789611f87565b91505b600087610e938585612523565b610e9d9190612542565b905086610eaa8584612523565b610eb49190612542565b811115610ed35786610ec68584612523565b610ed09190612542565b90505b9b9a5050505050505050505050565b6040516370a0823160e01b81526001600160a01b038481166004830152600091908316906370a0823190602401602060405180830381865afa158015610f2c573d6000803e3d6000fd5b505050506040513d601f19601f820116820180604052508101906105a391906124f4565b60008054906101000a90046001600160a01b03166001600160a01b0316637af0e5576040518163ffffffff1660e01b8152600401602060405180830381865afa158015610fa1573d6000803e3d6000fd5b505050506040513d601f19601f82011682018060405250810190610fc591906125b6565b6001600160a01b0316336001600160a01b031614610ff55760405162461bcd60e51b8152600401610ca89061266b565b6001600160a01b03821660009081526002602052604080822083905551339183917fac58e29a41d996caca756d050dce90806b277f0c939337653638329247e16f4c9190a35050565b60008054906101000a90046001600160a01b03166001600160a01b031663e7f43c686040518163ffffffff1660e01b8152600401602060405180830381865afa15801561108f573d6000803e3d6000fd5b505050506040513d601f19601f820116820180604052508101906110b391906125b6565b6001600160a01b0316336001600160a01b0316146111135760405162461bcd60e51b815260206004820152601a60248201527f63616c6c6572206973206e6f7420746865206f70657261746f720000000000006044820152606401610ca8565b6001600160a01b0381163b6111585760405162461bcd60e51b815260206004820152600b60248201526a085a5cd0dbdb9d1c9858dd60aa1b6044820152606401610ca8565b600080546001600160a01b0319166001600160a01b0392909216919091179055565b60008054906101000a90046001600160a01b03166001600160a01b0316637af0e5576040518163ffffffff1660e01b8152600401602060405180830381865afa1580156111cb573d6000803e3d6000fd5b505050506040513d601f19601f820116820180604052508101906111ef91906125b6565b6001600160a01b0316336001600160a01b03161461121f5760405162461bcd60e51b8152600401610ca89061266b565b6003819055604051339082907f19c60b0612798cc65bd298cd47e17d9fd07e74e0d3baa6c0019411bb334d9bda90600090a350565b6060611261848484612027565b915081156105a35760408051600680825260e0820190925290816020015b606081526020019060019003908161127f5790505060405173d9e1ce17f2641f24ae83637ab66a2cca9c378b9f602482015260006044820152909150849060640160408051601f19818403018152918152602080830180516001600160e01b031663095ea7b360e01b17905290516112f99392910161257c565b6040516020818303038152906040528160008151811061131b5761131b6125a0565b60200260200101819052506000806000806000876001600160a01b0316630902f1ac6040518163ffffffff1660e01b8152600401606060405180830381865afa15801561136c573d6000803e3d6000fd5b505050506040513d601f19601f8201168201806040525081019061139091906125ea565b506001600160701b031691506001600160701b03169150876001600160a01b031663d21220a76040518163ffffffff1660e01b8152600401602060405180830381865afa1580156113e5573d6000803e3d6000fd5b505050506040513d601f19601f8201168201806040525081019061140991906125b6565b9450886001600160a01b0316856001600160a01b031614156114945760408051630dfe168160e01b815290519192916001600160a01b038a1691630dfe16819160048083019260209291908290030181865afa15801561146d573d6000803e3d6000fd5b505050506040513d601f19601f8201168201806040525081019061149191906125b6565b94505b61149e8288611f31565b93506114ab848383611e52565b60405173d9e1ce17f2641f24ae83637ab66a2cca9c378b9f602482015260448101899052909350899250606401905060408051601f19818403018152918152602080830180516001600160e01b031663095ea7b360e01b17905290516115139392910161257c565b60405160208183030381529060405284600181518110611535576115356125a0565b6020908102919091010152604080516002808252606082019092526000918160200160208202803683370190505090508781600081518110611579576115796125a0565b60200260200101906001600160a01b031690816001600160a01b03168152505083816001815181106115ad576115ad6125a0565b6001600160a01b039092166020928302919091019091015273d9e1ce17f2641f24ae83637ab66a2cca9c378b9f8360646115e8856063612523565b6115f29190612542565b838c60001960405160240161160b95949392919061262f565b60408051601f19818403018152918152602080830180516001600160e01b03166338ed173960e01b17905290516116449392910161257c565b60405160208183030381529060405285600281518110611666576116666125a0565b602090810291909101015260405173d9e1ce17f2641f24ae83637ab66a2cca9c378b9f602482015260006044820152849060640160408051601f19818403018152918152602080830180516001600160e01b031663095ea7b360e01b17905290516116d39392910161257c565b604051602081830303815290604052856003815181106116f5576116f56125a0565b602090810291909101015260405173d9e1ce17f2641f24ae83637ab66a2cca9c378b9f602482015260448101839052849060640160408051601f19818403018152918152602080830180516001600160e01b031663095ea7b360e01b17905290516117629392910161257c565b60405160208183030381529060405285600481518110611784576117846125a0565b602090810291909101015273d9e1ce17f2641f24ae83637ab66a2cca9c378b9f88856117b0868a6126a2565b6040516001600160a01b0393841660248201529183166044830152606482015260848101859052600060a4820181905260c4820152908b1660e48201526000196101048201526101240160408051601f19818403018152918152602080830180516001600160e01b031662e8e33760e81b17905290516118329392910161257c565b60405160208183030381529060405285600581518110611854576118546125a0565b602002602001018190525050505050949350505050565b600080611879868686610bf1565b9092111595945050505050565b6000806000846001600160a01b0316630902f1ac6040518163ffffffff1660e01b8152600401606060405180830381865afa1580156118c9573d6000803e3d6000fd5b505050506040513d601f19601f820116820180604052508101906118ed91906125ea565b506001600160701b031691506001600160701b031691506000611911868484611c67565b9050866001600160a01b0316866001600160a01b0316630dfe16816040518163ffffffff1660e01b8152600401602060405180830381865afa15801561195b573d6000803e3d6000fd5b505050506040513d601f19601f8201168201806040525081019061197f91906125b6565b6001600160a01b031614611991579091905b60008161199e8786612523565b6119a89190612542565b90506000826119b78886612523565b6119c19190612542565b905060006119e2826119d381886126a2565b6119dd868a6126a2565b611e52565b90506119ee8184612564565b9a9950505050505050505050565b6040805160028082526060808301845292602083019080368337019050509050826001600160a01b0316630dfe16816040518163ffffffff1660e01b8152600401602060405180830381865afa158015611a5a573d6000803e3d6000fd5b505050506040513d601f19601f82011682018060405250810190611a7e91906125b6565b81600081518110611a9157611a916125a0565b60200260200101906001600160a01b031690816001600160a01b031681525050826001600160a01b031663d21220a76040518163ffffffff1660e01b8152600401602060405180830381865afa158015611aef573d6000803e3d6000fd5b505050506040513d601f19601f82011682018060405250810190611b1391906125b6565b81600181518110611b2657611b266125a0565b60200260200101906001600160a01b031690816001600160a01b03168152505092915050565b60008054906101000a90046001600160a01b03166001600160a01b0316637af0e5576040518163ffffffff1660e01b8152600401602060405180830381865afa158015611b9d573d6000803e3d6000fd5b505050506040513d601f19601f82011682018060405250810190611bc191906125b6565b6001600160a01b0316336001600160a01b031614611bf15760405162461bcd60e51b8152600401610ca89061266b565b6001600160a01b03808416600090815260016020908152604080832093861683529290528181208390559051339183917f197807a6a2633dd9bde6550aca985cfc69e655e9130930314c0e9da01a75cc549190a3505050565b60606000611c59858585610ee2565b9050610556858585846105ab565b6000836001600160a01b03166318160ddd6040518163ffffffff1660e01b8152600401602060405180830381865afa158015611ca7573d6000803e3d6000fd5b505050506040513d601f19601f82011682018060405250810190611ccb91906124f4565b905060006001600160a01b031673c0aee478e3658e2610c5f7a4a2e1777ce9e4f2ac6001600160a01b031663017e7e586040518163ffffffff1660e01b8152600401602060405180830381865afa158015611d2a573d6000803e3d6000fd5b505050506040513d601f19601f82011682018060405250810190611d4e91906125b6565b6001600160a01b0316146104d1576000846001600160a01b0316637464fc3d6040518163ffffffff1660e01b8152600401602060405180830381865afa158015611d9c573d6000803e3d6000fd5b505050506040513d601f19601f82011682018060405250810190611dc091906124f4565b90508015611e4a576000611ddc611dd78587612523565b612190565b90506000611de983612190565b905080821115611e47576000611dff82846126a2565b611e099086612523565b9050600082611e19856005612523565b611e239190612564565b90506000611e318284612542565b90508015611e43576119ee8188612564565b5050505b50505b509392505050565b6000808411611eb75760405162461bcd60e51b815260206004820152602b60248201527f556e697377617056324c6962726172793a20494e53554646494349454e545f4960448201526a1394155517d05353d5539560aa1b6064820152608401610ca8565b600083118015611ec75750600082115b611ee35760405162461bcd60e51b8152600401610ca8906126b9565b6000611ef1856103e5612523565b90506000611eff8483612523565b9050600082611f10876103e8612523565b611f1a9190612564565b9050611f268183612542565b979650505050505050565b60006107ca611f42846107cd612523565b611f73611f5286623cda29612523565b611f5f86623cda20612523565b611f699190612564565b611dd79087612523565b611f7d91906126a2565b6104d19190612542565b6000808411611fe65760405162461bcd60e51b815260206004820152602560248201527f556e697377617056324c6962726172793a20494e53554646494349454e545f416044820152641353d5539560da1b6064820152608401610ca8565b600083118015611ff65750600082115b6120125760405162461bcd60e51b8152600401610ca8906126b9565b8261201d8386612523565b6105a39190612542565b60008060045460ff16600181111561204157612041612250565b14156120a7576001600160a01b038084166000908152600160209081526040808320938816835292905220548211156120a057506001600160a01b038083166000908152600160209081526040808320938716835292905220546104d1565b50806104d1565b60006120b38486610458565b6001600160a01b0385166000908152600260205260409020549091501561214c576001600160a01b038416600090815260026020526040902054612710906120fb9083612523565b6121059190612542565b831115612144576001600160a01b038416600090815260026020526040902054612710906121339083612523565b61213d9190612542565b9150611e4a565b829150611e4a565b60035415611e4a57612710600354826121659190612523565b61216f9190612542565b83111561218757612710600354826121339190612523565b50909392505050565b600060038211156121f157508060006121aa600283612542565b6121b5906001612564565b90505b818110156121eb579050806002816121d08186612542565b6121da9190612564565b6121e49190612542565b90506121b8565b50919050565b81156103a657506001919050565b6001600160a01b038116811461221457600080fd5b50565b6000806040838503121561222a57600080fd5b8235612235816121ff565b91506020830135612245816121ff565b809150509250929050565b634e487b7160e01b600052602160045260246000fd5b602081016002831061228857634e487b7160e01b600052602160045260246000fd5b91905290565b6000602082840312156122a057600080fd5b81356104d1816121ff565b6000806000606084860312156122c057600080fd5b83356122cb816121ff565b925060208401356122db816121ff565b915060408401356122eb816121ff565b809150509250925092565b6000815180845260005b8181101561231c57602081850181015186830182015201612300565b8181111561232e576000602083870101525b50601f01601f19169290920160200192915050565b6000602080830181845280855180835260408601915060408160051b870101925083870160005b8281101561239857603f198886030184526123868583516122f6565b9450928501929085019060010161236a565b5092979650505050505050565b600080600080608085870312156123bb57600080fd5b84356123c6816121ff565b935060208501356123d6816121ff565b925060408501356123e6816121ff565b9396929550929360600135925050565b60006020828403121561240857600080fd5b8135600281106104d157600080fd5b60008060006060848603121561242c57600080fd5b8335612437816121ff565b92506020840135612447816121ff565b929592945050506040919091013590565b6000806040838503121561246b57600080fd5b8235612476816121ff565b946020939093013593505050565b60006020828403121561249657600080fd5b5035919050565b600081518084526020808501945080840160005b838110156124d65781516001600160a01b0316875295820195908201906001016124b1565b509495945050505050565b6020815260006104d1602083018461249d565b60006020828403121561250657600080fd5b5051919050565b634e487b7160e01b600052601160045260246000fd5b600081600019048311821515161561253d5761253d61250d565b500290565b60008261255f57634e487b7160e01b600052601260045260246000fd5b500490565b600082198211156125775761257761250d565b500190565b6001600160a01b03831681526040602082018190526000906105a3908301846122f6565b634e487b7160e01b600052603260045260246000fd5b6000602082840312156125c857600080fd5b81516104d1816121ff565b80516001600160701b03811681146103a657600080fd5b6000806000606084860312156125ff57600080fd5b612608846125d3565b9250612616602085016125d3565b9150604084015163ffffffff811681146122eb57600080fd5b85815284602082015260a06040820152600061264e60a083018661249d565b6001600160a01b0394909416606083015250608001529392505050565b6020808252601e908201527f63616c6c6572206973206e6f7420746865207269736b4f70657261746f720000604082015260600190565b6000828210156126b4576126b461250d565b500390565b60208082526028908201527f556e697377617056324c6962726172793a20494e53554646494349454e545f4c604082015267495155494449545960c01b60608201526080019056fea164736f6c634300080b000a"
}