{
  "address": "0xA20d0C0718AE3EfdD095e6360882676422E877f1",
  "abi": [
    {
      "inputs": [
        {
          "internalType": "address",
          "name": "_registry",
          "type": "address"
        }
      ],
      "stateMutability": "nonpayable",
      "type": "constructor"
    },
    {
      "anonymous": false,
      "inputs": [
        {
          "indexed": true,
          "internalType": "uint256",
          "name": "maxDepositAmount",
          "type": "uint256"
        },
        {
          "indexed": true,
          "internalType": "address",
          "name": "caller",
          "type": "address"
        }
      ],
      "name": "LogMaxDepositAmount",
      "type": "event"
    },
    {
      "anonymous": false,
      "inputs": [
        {
          "indexed": true,
          "internalType": "uint256",
          "name": "maxDepositPoolPct",
          "type": "uint256"
        },
        {
          "indexed": true,
          "internalType": "address",
          "name": "caller",
          "type": "address"
        }
      ],
      "name": "LogMaxDepositPoolPct",
      "type": "event"
    },
    {
      "anonymous": false,
      "inputs": [
        {
          "indexed": true,
          "internalType": "enum MaxExposure",
          "name": "maxDepositProtocolMode",
          "type": "uint8"
        },
        {
          "indexed": true,
          "internalType": "address",
          "name": "caller",
          "type": "address"
        }
      ],
      "name": "LogMaxDepositProtocolMode",
      "type": "event"
    },
    {
      "anonymous": false,
      "inputs": [
        {
          "indexed": true,
          "internalType": "uint256",
          "name": "maxDepositProtocolPct",
          "type": "uint256"
        },
        {
          "indexed": true,
          "internalType": "address",
          "name": "caller",
          "type": "address"
        }
      ],
      "name": "LogMaxDepositProtocolPct",
      "type": "event"
    },
    {
      "inputs": [
        {
          "internalType": "address",
          "name": "_underlyingToken",
          "type": "address"
        },
        {
          "internalType": "address",
          "name": "_sushiBar",
          "type": "address"
        },
        {
          "internalType": "uint256",
          "name": "_depositAmount",
          "type": "uint256"
        }
      ],
      "name": "calculateAmountInLPToken",
      "outputs": [
        {
          "internalType": "uint256",
          "name": "",
          "type": "uint256"
        }
      ],
      "stateMutability": "view",
      "type": "function"
    },
    {
      "inputs": [
        {
          "internalType": "address payable",
          "name": "_vault",
          "type": "address"
        },
        {
          "internalType": "address",
          "name": "_underlyingToken",
          "type": "address"
        },
        {
          "internalType": "address",
          "name": "_sushiBar",
          "type": "address"
        },
        {
          "internalType": "uint256",
          "name": "_redeemAmount",
          "type": "uint256"
        }
      ],
      "name": "calculateRedeemableLPTokenAmount",
      "outputs": [
        {
          "internalType": "uint256",
          "name": "",
          "type": "uint256"
        }
      ],
      "stateMutability": "view",
      "type": "function"
    },
    {
      "inputs": [
        {
          "internalType": "address",
          "name": "",
          "type": "address"
        }
      ],
      "name": "canStake",
      "outputs": [
        {
          "internalType": "bool",
          "name": "",
          "type": "bool"
        }
      ],
      "stateMutability": "pure",
      "type": "function"
    },
    {
      "inputs": [
        {
          "internalType": "address payable",
          "name": "_vault",
          "type": "address"
        },
        {
          "internalType": "address",
          "name": "_underlyingToken",
          "type": "address"
        },
        {
          "internalType": "address",
          "name": "_sushiBar",
          "type": "address"
        }
      ],
      "name": "getAllAmountInToken",
      "outputs": [
        {
          "internalType": "uint256",
          "name": "",
          "type": "uint256"
        }
      ],
      "stateMutability": "view",
      "type": "function"
    },
    {
      "inputs": [
        {
          "internalType": "address payable",
          "name": "_vault",
          "type": "address"
        },
        {
          "internalType": "address",
          "name": "_underlyingToken",
          "type": "address"
        },
        {
          "internalType": "address",
          "name": "_sushiBar",
          "type": "address"
        }
      ],
      "name": "getDepositAllCodes",
      "outputs": [
        {
          "internalType": "bytes[]",
          "name": "",
          "type": "bytes[]"
        }
      ],
      "stateMutability": "view",
      "type": "function"
    },
    {
      "inputs": [
        {
          "internalType": "address payable",
          "name": "",
          "type": "address"
        },
        {
          "internalType": "address",
          "name": "_underlyingToken",
          "type": "address"
        },
        {
          "internalType": "address",
          "name": "_sushiBar",
          "type": "address"
        },
        {
          "internalType": "uint256",
          "name": "_amount",
          "type": "uint256"
        }
      ],
      "name": "getDepositSomeCodes",
      "outputs": [
        {
          "internalType": "bytes[]",
          "name": "_codes",
          "type": "bytes[]"
        }
      ],
      "stateMutability": "view",
      "type": "function"
    },
    {
      "inputs": [
        {
          "internalType": "address",
          "name": "",
          "type": "address"
        },
        {
          "internalType": "address",
          "name": "_sushiBar",
          "type": "address"
        }
      ],
      "name": "getLiquidityPoolToken",
      "outputs": [
        {
          "internalType": "address",
          "name": "",
          "type": "address"
        }
      ],
      "stateMutability": "pure",
      "type": "function"
    },
    {
      "inputs": [
        {
          "internalType": "address payable",
          "name": "_vault",
          "type": "address"
        },
        {
          "internalType": "address",
          "name": "",
          "type": "address"
        },
        {
          "internalType": "address",
          "name": "_sushiBar",
          "type": "address"
        }
      ],
      "name": "getLiquidityPoolTokenBalance",
      "outputs": [
        {
          "internalType": "uint256",
          "name": "",
          "type": "uint256"
        }
      ],
      "stateMutability": "view",
      "type": "function"
    },
    {
      "inputs": [
        {
          "internalType": "address",
          "name": "_sushiBar",
          "type": "address"
        },
        {
          "internalType": "address",
          "name": "_underlyingToken",
          "type": "address"
        }
      ],
      "name": "getPoolValue",
      "outputs": [
        {
          "internalType": "uint256",
          "name": "",
          "type": "uint256"
        }
      ],
      "stateMutability": "view",
      "type": "function"
    },
    {
      "inputs": [
        {
          "internalType": "address",
          "name": "",
          "type": "address"
        }
      ],
      "name": "getRewardToken",
      "outputs": [
        {
          "internalType": "address",
          "name": "",
          "type": "address"
        }
      ],
      "stateMutability": "pure",
      "type": "function"
    },
    {
      "inputs": [
        {
          "internalType": "address",
          "name": "_underlyingToken",
          "type": "address"
        },
        {
          "internalType": "address",
          "name": "_sushiBar",
          "type": "address"
        },
        {
          "internalType": "uint256",
          "name": "_amount",
          "type": "uint256"
        }
      ],
      "name": "getSomeAmountInToken",
      "outputs": [
        {
          "internalType": "uint256",
          "name": "",
          "type": "uint256"
        }
      ],
      "stateMutability": "view",
      "type": "function"
    },
    {
      "inputs": [
        {
          "internalType": "address",
          "name": "_sushiBar",
          "type": "address"
        },
        {
          "internalType": "address",
          "name": "",
          "type": "address"
        }
      ],
      "name": "getUnderlyingTokens",
      "outputs": [
        {
          "internalType": "address[]",
          "name": "_underlyingTokens",
          "type": "address[]"
        }
      ],
      "stateMutability": "view",
      "type": "function"
    },
    {
      "inputs": [
        {
          "internalType": "address payable",
          "name": "_vault",
          "type": "address"
        },
        {
          "internalType": "address",
          "name": "_underlyingToken",
          "type": "address"
        },
        {
          "internalType": "address",
          "name": "_sushiBar",
          "type": "address"
        }
      ],
      "name": "getWithdrawAllCodes",
      "outputs": [
        {
          "internalType": "bytes[]",
          "name": "",
          "type": "bytes[]"
        }
      ],
      "stateMutability": "view",
      "type": "function"
    },
    {
      "inputs": [
        {
          "internalType": "address payable",
          "name": "",
          "type": "address"
        },
        {
          "internalType": "address",
          "name": "",
          "type": "address"
        },
        {
          "internalType": "address",
          "name": "_sushiBar",
          "type": "address"
        },
        {
          "internalType": "uint256",
          "name": "_amount",
          "type": "uint256"
        }
      ],
      "name": "getWithdrawSomeCodes",
      "outputs": [
        {
          "internalType": "bytes[]",
          "name": "_codes",
          "type": "bytes[]"
        }
      ],
      "stateMutability": "pure",
      "type": "function"
    },
    {
      "inputs": [
        {
          "internalType": "address payable",
          "name": "_vault",
          "type": "address"
        },
        {
          "internalType": "address",
          "name": "_underlyingToken",
          "type": "address"
        },
        {
          "internalType": "address",
          "name": "_sushiBar",
          "type": "address"
        },
        {
          "internalType": "uint256",
          "name": "_redeemAmount",
          "type": "uint256"
        }
      ],
      "name": "isRedeemableAmountSufficient",
      "outputs": [
        {
          "internalType": "bool",
          "name": "",
          "type": "bool"
        }
      ],
      "stateMutability": "view",
      "type": "function"
    },
    {
      "inputs": [
        {
          "internalType": "address",
          "name": "",
          "type": "address"
        },
        {
          "internalType": "address",
          "name": "",
          "type": "address"
        }
      ],
      "name": "maxDepositAmount",
      "outputs": [
        {
          "internalType": "uint256",
          "name": "",
          "type": "uint256"
        }
      ],
      "stateMutability": "view",
      "type": "function"
    },
    {
      "inputs": [
        {
          "internalType": "address",
          "name": "",
          "type": "address"
        }
      ],
      "name": "maxDepositPoolPct",
      "outputs": [
        {
          "internalType": "uint256",
          "name": "",
          "type": "uint256"
        }
      ],
      "stateMutability": "view",
      "type": "function"
    },
    {
      "inputs": [],
      "name": "maxDepositProtocolMode",
      "outputs": [
        {
          "internalType": "enum MaxExposure",
          "name": "",
          "type": "uint8"
        }
      ],
      "stateMutability": "view",
      "type": "function"
    },
    {
      "inputs": [],
      "name": "maxDepositProtocolPct",
      "outputs": [
        {
          "internalType": "uint256",
          "name": "",
          "type": "uint256"
        }
      ],
      "stateMutability": "view",
      "type": "function"
    },
    {
      "inputs": [],
      "name": "registryContract",
      "outputs": [
        {
          "internalType": "contract IAdapterRegistryBase",
          "name": "",
          "type": "address"
        }
      ],
      "stateMutability": "view",
      "type": "function"
    },
    {
      "inputs": [
        {
          "internalType": "address",
          "name": "_sushiBar",
          "type": "address"
        },
        {
          "internalType": "address",
          "name": "_underlyingToken",
          "type": "address"
        },
        {
          "internalType": "uint256",
          "name": "_maxDepositAmount",
          "type": "uint256"
        }
      ],
      "name": "setMaxDepositAmount",
      "outputs": [],
      "stateMutability": "nonpayable",
      "type": "function"
    },
    {
      "inputs": [
        {
          "internalType": "address",
          "name": "_underlyingToken",
          "type": "address"
        },
        {
          "internalType": "uint256",
          "name": "_maxDepositPoolPct",
          "type": "uint256"
        }
      ],
      "name": "setMaxDepositPoolPct",
      "outputs": [],
      "stateMutability": "nonpayable",
      "type": "function"
    },
    {
      "inputs": [
        {
          "internalType": "enum MaxExposure",
          "name": "_mode",
          "type": "uint8"
        }
      ],
      "name": "setMaxDepositProtocolMode",
      "outputs": [],
      "stateMutability": "nonpayable",
      "type": "function"
    },
    {
      "inputs": [
        {
          "internalType": "uint256",
          "name": "_maxDepositProtocolPct",
          "type": "uint256"
        }
      ],
      "name": "setMaxDepositProtocolPct",
      "outputs": [],
      "stateMutability": "nonpayable",
      "type": "function"
    },
    {
      "inputs": [
        {
          "internalType": "address",
          "name": "_registry",
          "type": "address"
        }
      ],
      "name": "setRegistry",
      "outputs": [],
      "stateMutability": "nonpayable",
      "type": "function"
    }
  ],
  "transactionHash": "0xec82e815a2c82437541c4c757f2513ad9580c93d542432c5736f8639ecaa1897",
  "args": [
    "0x99fa011e33a8c6196869dec7bc407e896ba67fe3"
  ],
  "numDeployments": 1,
  "bytecode": "0x608060405234801561001057600080fd5b5060405161152738038061152783398101604081905261002f91610062565b600080546127106001556001600160a01b03929092166001600160a81b031990921691909117600160a01b179055610092565b60006020828403121561007457600080fd5b81516001600160a01b038116811461008b57600080fd5b9392505050565b611486806100a16000396000f3fe608060405234801561001057600080fd5b50600436106101735760003560e01c80637c47b3f4116100de578063da699f9611610097578063ee665bed11610071578063ee665bed14610376578063ef856be914610389578063f1aacbb7146103a9578063f49307ca146103bc57600080fd5b8063da699f961461033d578063df93572214610350578063e49d5ecc1461036357600080fd5b80637c47b3f4146102c957806385541e44146102de57806390e61605146102f1578063919b69d714610304578063a91ee0dc14610317578063d74baaf81461032a57600080fd5b8063489b529511610130578063489b5295146102425780634ad36e02146102625780634f83b52d14610275578063609257791461029557806364dd5f80146102a857806377078872146102bb57600080fd5b8063027a304d14610178578063191c194b146101b657806328c1f99b146101bf5780632af06b96146101ea5780632de778381461020b57806336d8bf931461021e575b600080fd5b6101a36101863660046110b0565b600360209081526000928352604080842090915290825290205481565b6040519081526020015b60405180910390f35b6101a360015481565b6000546101d2906001600160a01b031681565b6040516001600160a01b0390911681526020016101ad565b6000546101fe90600160a01b900460ff1681565b6040516101ad91906110ff565b6101a36102193660046110b0565b6103cf565b61023261022c366004611127565b50600090565b60405190151581526020016101ad565b610255610250366004611144565b610444565b6040516101ad91906111dc565b6101a361027036600461123e565b6104cb565b6101a3610283366004611127565b60026020526000908152604090205481565b6102556102a336600461123e565b61050a565b6101a36102b6366004611144565b6105ba565b6101d261022c366004611127565b6102dc6102d736600461128f565b6105d4565b005b6101a36102ec3660046112b0565b6106f8565b6101a36102ff366004611144565b6107dc565b6102dc6103123660046112f1565b61084a565b6102dc610325366004611127565b610938565b6101d26103383660046110b0565b919050565b6102dc61034b36600461131d565b610a74565b61025561035e36600461123e565b610b4e565b61023261037136600461123e565b610d1f565b6101a36103843660046112b0565b610d3a565b61039c6103973660046110b0565b610de4565b6040516101ad9190611336565b6102dc6103b73660046112b0565b610ea1565b6102556103ca366004611144565b610f9f565b6040516370a0823160e01b81526001600160a01b038381166004830152600091908316906370a0823190602401602060405180830381865afa158015610419573d6000803e3d6000fd5b505050506040513d601f19601f8201168201806040525081019061043d9190611383565b9392505050565b6040516370a0823160e01b81526001600160a01b0384811660048301526060916000918516906370a0823190602401602060405180830381865afa158015610490573d6000803e3d6000fd5b505050506040513d601f19601f820116820180604052508101906104b49190611383565b90506104c285858584610b4e565b95945050505050565b6000806104d98686866107dc565b905060006104e88787876105ba565b9050806104f5858461139c565b6104ff91906113c9565b979650505050505050565b604080516001808252818301909252606091816020015b6060815260200190600190039081610521579050509050828260405160240161054c91815260200190565b60408051601f19818403018152918152602080830180516001600160e01b03166367dfd4c960e01b1790529051610585939291016113eb565b604051602081830303815290604052816000815181106105a7576105a761140f565b6020026020010181905250949350505050565b60006105cc83836103848787876107dc565b949350505050565b60008054906101000a90046001600160a01b03166001600160a01b0316637af0e5576040518163ffffffff1660e01b8152600401602060405180830381865afa158015610625573d6000803e3d6000fd5b505050506040513d601f19601f820116820180604052508101906106499190611425565b6001600160a01b0316336001600160a01b0316146106825760405162461bcd60e51b815260040161067990611442565b60405180910390fd5b6000805482919060ff60a01b1916600160a01b8360018111156106a7576106a76110e9565b02179055506000543390600160a01b900460ff1660018111156106cc576106cc6110e9565b6040517f68e3b01155b193b02181f2c0ed491c934a74348d211ff023f8fc6ac5edf22aa090600090a350565b6040516370a0823160e01b81526001600160a01b038381166004830152600091908516906370a0823190602401602060405180830381865afa158015610742573d6000803e3d6000fd5b505050506040513d601f19601f820116820180604052508101906107669190611383565b836001600160a01b03166318160ddd6040518163ffffffff1660e01b8152600401602060405180830381865afa1580156107a4573d6000803e3d6000fd5b505050506040513d601f19601f820116820180604052508101906107c89190611383565b6107d2908461139c565b6105cc91906113c9565b6040516370a0823160e01b81526001600160a01b038481166004830152600091908316906370a0823190602401602060405180830381865afa158015610826573d6000803e3d6000fd5b505050506040513d601f19601f820116820180604052508101906105cc9190611383565b60008054906101000a90046001600160a01b03166001600160a01b0316637af0e5576040518163ffffffff1660e01b8152600401602060405180830381865afa15801561089b573d6000803e3d6000fd5b505050506040513d601f19601f820116820180604052508101906108bf9190611425565b6001600160a01b0316336001600160a01b0316146108ef5760405162461bcd60e51b815260040161067990611442565b6001600160a01b03821660009081526002602052604080822083905551339183917fac58e29a41d996caca756d050dce90806b277f0c939337653638329247e16f4c9190a35050565b60008054906101000a90046001600160a01b03166001600160a01b031663e7f43c686040518163ffffffff1660e01b8152600401602060405180830381865afa158015610989573d6000803e3d6000fd5b505050506040513d601f19601f820116820180604052508101906109ad9190611425565b6001600160a01b0316336001600160a01b031614610a0d5760405162461bcd60e51b815260206004820152601a60248201527f63616c6c6572206973206e6f7420746865206f70657261746f720000000000006044820152606401610679565b6001600160a01b0381163b610a525760405162461bcd60e51b815260206004820152600b60248201526a085a5cd0dbdb9d1c9858dd60aa1b6044820152606401610679565b600080546001600160a01b0319166001600160a01b0392909216919091179055565b60008054906101000a90046001600160a01b03166001600160a01b0316637af0e5576040518163ffffffff1660e01b8152600401602060405180830381865afa158015610ac5573d6000803e3d6000fd5b505050506040513d601f19601f82011682018060405250810190610ae99190611425565b6001600160a01b0316336001600160a01b031614610b195760405162461bcd60e51b815260040161067990611442565b6001819055604051339082907f19c60b0612798cc65bd298cd47e17d9fd07e74e0d3baa6c0019411bb334d9bda90600090a350565b60606000610b5d848685610fbc565b90508015610d16576040805160038082526080820190925290816020015b6060815260200190600190039081610b7b579050506040516001600160a01b038616602482015260006044820152909250859060640160408051601f19818403018152918152602080830180516001600160e01b031663095ea7b360e01b1790529051610bea939291016113eb565b60405160208183030381529060405282600081518110610c0c57610c0c61140f565b60209081029190910101526040516001600160a01b038516602482015260448101829052859060640160408051601f19818403018152918152602080830180516001600160e01b031663095ea7b360e01b1790529051610c6e939291016113eb565b60405160208183030381529060405282600181518110610c9057610c9061140f565b60200260200101819052508381604051602401610caf91815260200190565b60408051601f19818403018152918152602080830180516001600160e01b0316632967cf8360e21b1790529051610ce8939291016113eb565b60405160208183030381529060405282600281518110610d0a57610d0a61140f565b60200260200101819052505b50949350505050565b600080610d2d8686866105ba565b9092111595945050505050565b6000826001600160a01b03166318160ddd6040518163ffffffff1660e01b8152600401602060405180830381865afa158015610d7a573d6000803e3d6000fd5b505050506040513d601f19601f82011682018060405250810190610d9e9190611383565b6040516370a0823160e01b81526001600160a01b0385811660048301528616906370a0823190602401602060405180830381865afa1580156107a4573d6000803e3d6000fd5b60408051600180825281830190925260609160208083019080368337019050509050826001600160a01b0316630a0879036040518163ffffffff1660e01b8152600401602060405180830381865afa158015610e44573d6000803e3d6000fd5b505050506040513d601f19601f82011682018060405250810190610e689190611425565b81600081518110610e7b57610e7b61140f565b60200260200101906001600160a01b031690816001600160a01b03168152505092915050565b60008054906101000a90046001600160a01b03166001600160a01b0316637af0e5576040518163ffffffff1660e01b8152600401602060405180830381865afa158015610ef2573d6000803e3d6000fd5b505050506040513d601f19601f82011682018060405250810190610f169190611425565b6001600160a01b0316336001600160a01b031614610f465760405162461bcd60e51b815260040161067990611442565b6001600160a01b03838116600090815260036020908152604080832093861683529290528181208390559051339183917f197807a6a2633dd9bde6550aca985cfc69e655e9130930314c0e9da01a75cc549190a3505050565b60606000610fae8585856107dc565b90506104c28585858461050a565b6000806001600054600160a01b900460ff166001811115610fdf57610fdf6110e9565b1461100f576001600160a01b03808616600090815260036020908152604080832093881683529290522054611019565b6110198585611028565b90508083116105cc57826104c2565b60008061103584846103cf565b6001600160a01b038416600090815260026020526040812054919250811561107357612710611064838561139c565b61106e91906113c9565b61108e565b61271060015484611084919061139c565b61108e91906113c9565b9695505050505050565b6001600160a01b03811681146110ad57600080fd5b50565b600080604083850312156110c357600080fd5b82356110ce81611098565b915060208301356110de81611098565b809150509250929050565b634e487b7160e01b600052602160045260246000fd5b602081016002831061112157634e487b7160e01b600052602160045260246000fd5b91905290565b60006020828403121561113957600080fd5b813561043d81611098565b60008060006060848603121561115957600080fd5b833561116481611098565b9250602084013561117481611098565b9150604084013561118481611098565b809150509250925092565b6000815180845260005b818110156111b557602081850181015186830182015201611199565b818111156111c7576000602083870101525b50601f01601f19169290920160200192915050565b6000602080830181845280855180835260408601915060408160051b870101925083870160005b8281101561123157603f1988860301845261121f85835161118f565b94509285019290850190600101611203565b5092979650505050505050565b6000806000806080858703121561125457600080fd5b843561125f81611098565b9350602085013561126f81611098565b9250604085013561127f81611098565b9396929550929360600135925050565b6000602082840312156112a157600080fd5b81356002811061043d57600080fd5b6000806000606084860312156112c557600080fd5b83356112d081611098565b925060208401356112e081611098565b929592945050506040919091013590565b6000806040838503121561130457600080fd5b823561130f81611098565b946020939093013593505050565b60006020828403121561132f57600080fd5b5035919050565b6020808252825182820181905260009190848201906040850190845b818110156113775783516001600160a01b031683529284019291840191600101611352565b50909695505050505050565b60006020828403121561139557600080fd5b5051919050565b60008160001904831182151516156113c457634e487b7160e01b600052601160045260246000fd5b500290565b6000826113e657634e487b7160e01b600052601260045260246000fd5b500490565b6001600160a01b03831681526040602082018190526000906105cc9083018461118f565b634e487b7160e01b600052603260045260246000fd5b60006020828403121561143757600080fd5b815161043d81611098565b6020808252601e908201527f63616c6c6572206973206e6f7420746865207269736b4f70657261746f72000060408201526060019056fea164736f6c634300080b000a"
}