{
  "address": "0x15C9cF596a4731acDe783EBCeE03b752FD28645A",
  "abi": [
    {
      "inputs": [
        {
          "internalType": "address",
          "name": "_registry",
          "type": "address"
        },
        {
          "internalType": "address",
          "name": "_optyFiOracle",
          "type": "address"
        }
      ],
      "stateMutability": "nonpayable",
      "type": "constructor"
    },
    {
      "anonymous": false,
      "inputs": [
        {
          "indexed": true,
          "internalType": "uint256",
          "name": "maxDepositAmount",
          "type": "uint256"
        },
        {
          "indexed": true,
          "internalType": "address",
          "name": "caller",
          "type": "address"
        }
      ],
      "name": "LogMaxDepositAmount",
      "type": "event"
    },
    {
      "anonymous": false,
      "inputs": [
        {
          "indexed": true,
          "internalType": "uint256",
          "name": "maxDepositPoolPct",
          "type": "uint256"
        },
        {
          "indexed": true,
          "internalType": "address",
          "name": "caller",
          "type": "address"
        }
      ],
      "name": "LogMaxDepositPoolPct",
      "type": "event"
    },
    {
      "anonymous": false,
      "inputs": [
        {
          "indexed": true,
          "internalType": "enum MaxExposure",
          "name": "maxDepositProtocolMode",
          "type": "uint8"
        },
        {
          "indexed": true,
          "internalType": "address",
          "name": "caller",
          "type": "address"
        }
      ],
      "name": "LogMaxDepositProtocolMode",
      "type": "event"
    },
    {
      "anonymous": false,
      "inputs": [
        {
          "indexed": true,
          "internalType": "uint256",
          "name": "maxDepositProtocolPct",
          "type": "uint256"
        },
        {
          "indexed": true,
          "internalType": "address",
          "name": "caller",
          "type": "address"
        }
      ],
      "name": "LogMaxDepositProtocolPct",
      "type": "event"
    },
    {
      "inputs": [],
      "name": "AAVE",
      "outputs": [
        {
          "internalType": "address",
          "name": "",
          "type": "address"
        }
      ],
      "stateMutability": "view",
      "type": "function"
    },
    {
      "inputs": [],
      "name": "AAVE_WETH",
      "outputs": [
        {
          "internalType": "address",
          "name": "",
          "type": "address"
        }
      ],
      "stateMutability": "view",
      "type": "function"
    },
    {
      "inputs": [],
      "name": "ALCX",
      "outputs": [
        {
          "internalType": "address",
          "name": "",
          "type": "address"
        }
      ],
      "stateMutability": "view",
      "type": "function"
    },
    {
      "inputs": [],
      "name": "ALCX_WETH",
      "outputs": [
        {
          "internalType": "address",
          "name": "",
          "type": "address"
        }
      ],
      "stateMutability": "view",
      "type": "function"
    },
    {
      "inputs": [],
      "name": "APE",
      "outputs": [
        {
          "internalType": "address",
          "name": "",
          "type": "address"
        }
      ],
      "stateMutability": "view",
      "type": "function"
    },
    {
      "inputs": [],
      "name": "APE_USDT",
      "outputs": [
        {
          "internalType": "address",
          "name": "",
          "type": "address"
        }
      ],
      "stateMutability": "view",
      "type": "function"
    },
    {
      "inputs": [],
      "name": "COMP",
      "outputs": [
        {
          "internalType": "address",
          "name": "",
          "type": "address"
        }
      ],
      "stateMutability": "view",
      "type": "function"
    },
    {
      "inputs": [],
      "name": "COMP_WETH",
      "outputs": [
        {
          "internalType": "address",
          "name": "",
          "type": "address"
        }
      ],
      "stateMutability": "view",
      "type": "function"
    },
    {
      "inputs": [],
      "name": "CRV",
      "outputs": [
        {
          "internalType": "address",
          "name": "",
          "type": "address"
        }
      ],
      "stateMutability": "view",
      "type": "function"
    },
    {
      "inputs": [],
      "name": "CRV_WETH",
      "outputs": [
        {
          "internalType": "address",
          "name": "",
          "type": "address"
        }
      ],
      "stateMutability": "view",
      "type": "function"
    },
    {
      "inputs": [],
      "name": "CVX",
      "outputs": [
        {
          "internalType": "address",
          "name": "",
          "type": "address"
        }
      ],
      "stateMutability": "view",
      "type": "function"
    },
    {
      "inputs": [],
      "name": "CVX_WETH",
      "outputs": [
        {
          "internalType": "address",
          "name": "",
          "type": "address"
        }
      ],
      "stateMutability": "view",
      "type": "function"
    },
    {
      "inputs": [],
      "name": "DENOMINATOR",
      "outputs": [
        {
          "internalType": "uint256",
          "name": "",
          "type": "uint256"
        }
      ],
      "stateMutability": "view",
      "type": "function"
    },
    {
      "inputs": [],
      "name": "ENS",
      "outputs": [
        {
          "internalType": "address",
          "name": "",
          "type": "address"
        }
      ],
      "stateMutability": "view",
      "type": "function"
    },
    {
      "inputs": [],
      "name": "ENS_WETH",
      "outputs": [
        {
          "internalType": "address",
          "name": "",
          "type": "address"
        }
      ],
      "stateMutability": "view",
      "type": "function"
    },
    {
      "inputs": [],
      "name": "IMX",
      "outputs": [
        {
          "internalType": "address",
          "name": "",
          "type": "address"
        }
      ],
      "stateMutability": "view",
      "type": "function"
    },
    {
      "inputs": [],
      "name": "IMX_WETH",
      "outputs": [
        {
          "internalType": "address",
          "name": "",
          "type": "address"
        }
      ],
      "stateMutability": "view",
      "type": "function"
    },
    {
      "inputs": [],
      "name": "LDO_WETH",
      "outputs": [
        {
          "internalType": "address",
          "name": "",
          "type": "address"
        }
      ],
      "stateMutability": "view",
      "type": "function"
    },
    {
      "inputs": [],
      "name": "LINK",
      "outputs": [
        {
          "internalType": "address",
          "name": "",
          "type": "address"
        }
      ],
      "stateMutability": "view",
      "type": "function"
    },
    {
      "inputs": [],
      "name": "LINK_WETH",
      "outputs": [
        {
          "internalType": "address",
          "name": "",
          "type": "address"
        }
      ],
      "stateMutability": "view",
      "type": "function"
    },
    {
      "inputs": [],
      "name": "MANA",
      "outputs": [
        {
          "internalType": "address",
          "name": "",
          "type": "address"
        }
      ],
      "stateMutability": "view",
      "type": "function"
    },
    {
      "inputs": [],
      "name": "MANA_WETH",
      "outputs": [
        {
          "internalType": "address",
          "name": "",
          "type": "address"
        }
      ],
      "stateMutability": "view",
      "type": "function"
    },
    {
      "inputs": [],
      "name": "SUSHI",
      "outputs": [
        {
          "internalType": "address",
          "name": "",
          "type": "address"
        }
      ],
      "stateMutability": "view",
      "type": "function"
    },
    {
      "inputs": [],
      "name": "SUSHI_WETH",
      "outputs": [
        {
          "internalType": "address",
          "name": "",
          "type": "address"
        }
      ],
      "stateMutability": "view",
      "type": "function"
    },
    {
      "inputs": [],
      "name": "USDT",
      "outputs": [
        {
          "internalType": "address",
          "name": "",
          "type": "address"
        }
      ],
      "stateMutability": "view",
      "type": "function"
    },
    {
      "inputs": [],
      "name": "WETH",
      "outputs": [
        {
          "internalType": "address",
          "name": "",
          "type": "address"
        }
      ],
      "stateMutability": "view",
      "type": "function"
    },
    {
      "inputs": [],
      "name": "YFI",
      "outputs": [
        {
          "internalType": "address",
          "name": "",
          "type": "address"
        }
      ],
      "stateMutability": "view",
      "type": "function"
    },
    {
      "inputs": [],
      "name": "YFI_WETH",
      "outputs": [
        {
          "internalType": "address",
          "name": "",
          "type": "address"
        }
      ],
      "stateMutability": "view",
      "type": "function"
    },
    {
      "inputs": [],
      "name": "YGG",
      "outputs": [
        {
          "internalType": "address",
          "name": "",
          "type": "address"
        }
      ],
      "stateMutability": "view",
      "type": "function"
    },
    {
      "inputs": [],
      "name": "YGG_WETH",
      "outputs": [
        {
          "internalType": "address",
          "name": "",
          "type": "address"
        }
      ],
      "stateMutability": "view",
      "type": "function"
    },
    {
      "inputs": [
        {
          "internalType": "address",
          "name": "_underlyingToken",
          "type": "address"
        },
        {
          "internalType": "address",
          "name": "_liquidityPool",
          "type": "address"
        },
        {
          "internalType": "uint256",
          "name": "_depositAmount",
          "type": "uint256"
        }
      ],
      "name": "calculateAmountInLPToken",
      "outputs": [
        {
          "internalType": "uint256",
          "name": "",
          "type": "uint256"
        }
      ],
      "stateMutability": "view",
      "type": "function"
    },
    {
      "inputs": [
        {
          "internalType": "address payable",
          "name": "_vault",
          "type": "address"
        },
        {
          "internalType": "address",
          "name": "_underlyingToken",
          "type": "address"
        },
        {
          "internalType": "address",
          "name": "_liquidityPool",
          "type": "address"
        },
        {
          "internalType": "uint256",
          "name": "_redeemAmount",
          "type": "uint256"
        }
      ],
      "name": "calculateRedeemableLPTokenAmount",
      "outputs": [
        {
          "internalType": "uint256",
          "name": "",
          "type": "uint256"
        }
      ],
      "stateMutability": "view",
      "type": "function"
    },
    {
      "inputs": [
        {
          "internalType": "address",
          "name": "",
          "type": "address"
        }
      ],
      "name": "canStake",
      "outputs": [
        {
          "internalType": "bool",
          "name": "",
          "type": "bool"
        }
      ],
      "stateMutability": "pure",
      "type": "function"
    },
    {
      "inputs": [
        {
          "internalType": "address payable",
          "name": "_vault",
          "type": "address"
        },
        {
          "internalType": "address",
          "name": "_underlyingToken",
          "type": "address"
        },
        {
          "internalType": "address",
          "name": "_liquidityPool",
          "type": "address"
        }
      ],
      "name": "getAllAmountInToken",
      "outputs": [
        {
          "internalType": "uint256",
          "name": "",
          "type": "uint256"
        }
      ],
      "stateMutability": "view",
      "type": "function"
    },
    {
      "inputs": [
        {
          "internalType": "address payable",
          "name": "_vault",
          "type": "address"
        },
        {
          "internalType": "address",
          "name": "_underlyingToken",
          "type": "address"
        },
        {
          "internalType": "address",
          "name": "_liquidityPool",
          "type": "address"
        }
      ],
      "name": "getDepositAllCodes",
      "outputs": [
        {
          "internalType": "bytes[]",
          "name": "_codes",
          "type": "bytes[]"
        }
      ],
      "stateMutability": "view",
      "type": "function"
    },
    {
      "inputs": [
        {
          "internalType": "address payable",
          "name": "_vault",
          "type": "address"
        },
        {
          "internalType": "address",
          "name": "_underlyingToken",
          "type": "address"
        },
        {
          "internalType": "address",
          "name": "_liquidityPool",
          "type": "address"
        },
        {
          "internalType": "uint256",
          "name": "_amount",
          "type": "uint256"
        }
      ],
      "name": "getDepositSomeCodes",
      "outputs": [
        {
          "internalType": "bytes[]",
          "name": "_codes",
          "type": "bytes[]"
        }
      ],
      "stateMutability": "view",
      "type": "function"
    },
    {
      "inputs": [
        {
          "internalType": "address",
          "name": "",
          "type": "address"
        },
        {
          "internalType": "address",
          "name": "_liquidityPool",
          "type": "address"
        }
      ],
      "name": "getLiquidityPoolToken",
      "outputs": [
        {
          "internalType": "address",
          "name": "",
          "type": "address"
        }
      ],
      "stateMutability": "pure",
      "type": "function"
    },
    {
      "inputs": [
        {
          "internalType": "address payable",
          "name": "_vault",
          "type": "address"
        },
        {
          "internalType": "address",
          "name": "",
          "type": "address"
        },
        {
          "internalType": "address",
          "name": "_liquidityPool",
          "type": "address"
        }
      ],
      "name": "getLiquidityPoolTokenBalance",
      "outputs": [
        {
          "internalType": "uint256",
          "name": "",
          "type": "uint256"
        }
      ],
      "stateMutability": "view",
      "type": "function"
    },
    {
      "inputs": [
        {
          "internalType": "address",
          "name": "_liquidityPool",
          "type": "address"
        },
        {
          "internalType": "address",
          "name": "_underlyingToken",
          "type": "address"
        }
      ],
      "name": "getPoolValue",
      "outputs": [
        {
          "internalType": "uint256",
          "name": "",
          "type": "uint256"
        }
      ],
      "stateMutability": "view",
      "type": "function"
    },
    {
      "inputs": [
        {
          "internalType": "address",
          "name": "",
          "type": "address"
        }
      ],
      "name": "getRewardToken",
      "outputs": [
        {
          "internalType": "address",
          "name": "",
          "type": "address"
        }
      ],
      "stateMutability": "pure",
      "type": "function"
    },
    {
      "inputs": [
        {
          "internalType": "address",
          "name": "_underlyingToken",
          "type": "address"
        },
        {
          "internalType": "address",
          "name": "_liquidityPool",
          "type": "address"
        },
        {
          "internalType": "uint256",
          "name": "_liquidityPoolTokenAmount",
          "type": "uint256"
        }
      ],
      "name": "getSomeAmountInToken",
      "outputs": [
        {
          "internalType": "uint256",
          "name": "",
          "type": "uint256"
        }
      ],
      "stateMutability": "view",
      "type": "function"
    },
    {
      "inputs": [
        {
          "internalType": "address",
          "name": "_liquidityPool",
          "type": "address"
        },
        {
          "internalType": "address",
          "name": "",
          "type": "address"
        }
      ],
      "name": "getUnderlyingTokens",
      "outputs": [
        {
          "internalType": "address[]",
          "name": "_underlyingTokens",
          "type": "address[]"
        }
      ],
      "stateMutability": "view",
      "type": "function"
    },
    {
      "inputs": [
        {
          "internalType": "address payable",
          "name": "_vault",
          "type": "address"
        },
        {
          "internalType": "address",
          "name": "_underlyingToken",
          "type": "address"
        },
        {
          "internalType": "address",
          "name": "_liquidityPool",
          "type": "address"
        }
      ],
      "name": "getWithdrawAllCodes",
      "outputs": [
        {
          "internalType": "bytes[]",
          "name": "_codes",
          "type": "bytes[]"
        }
      ],
      "stateMutability": "view",
      "type": "function"
    },
    {
      "inputs": [
        {
          "internalType": "address payable",
          "name": "_vault",
          "type": "address"
        },
        {
          "internalType": "address",
          "name": "_underlyingToken",
          "type": "address"
        },
        {
          "internalType": "address",
          "name": "_liquidityPool",
          "type": "address"
        },
        {
          "internalType": "uint256",
          "name": "_shares",
          "type": "uint256"
        }
      ],
      "name": "getWithdrawSomeCodes",
      "outputs": [
        {
          "internalType": "bytes[]",
          "name": "_codes",
          "type": "bytes[]"
        }
      ],
      "stateMutability": "view",
      "type": "function"
    },
    {
      "inputs": [
        {
          "internalType": "address payable",
          "name": "_vault",
          "type": "address"
        },
        {
          "internalType": "address",
          "name": "_underlyingToken",
          "type": "address"
        },
        {
          "internalType": "address",
          "name": "_liquidityPool",
          "type": "address"
        },
        {
          "internalType": "uint256",
          "name": "_redeemAmount",
          "type": "uint256"
        }
      ],
      "name": "isRedeemableAmountSufficient",
      "outputs": [
        {
          "internalType": "bool",
          "name": "",
          "type": "bool"
        }
      ],
      "stateMutability": "view",
      "type": "function"
    },
    {
      "inputs": [
        {
          "internalType": "address",
          "name": "",
          "type": "address"
        }
      ],
      "name": "liquidityPoolToTolerance",
      "outputs": [
        {
          "internalType": "uint256",
          "name": "",
          "type": "uint256"
        }
      ],
      "stateMutability": "view",
      "type": "function"
    },
    {
      "inputs": [
        {
          "internalType": "address",
          "name": "",
          "type": "address"
        },
        {
          "internalType": "address",
          "name": "",
          "type": "address"
        }
      ],
      "name": "liquidityPoolToWantTokenToSlippage",
      "outputs": [
        {
          "internalType": "uint256",
          "name": "",
          "type": "uint256"
        }
      ],
      "stateMutability": "view",
      "type": "function"
    },
    {
      "inputs": [
        {
          "internalType": "address",
          "name": "",
          "type": "address"
        },
        {
          "internalType": "address",
          "name": "",
          "type": "address"
        }
      ],
      "name": "maxDepositAmount",
      "outputs": [
        {
          "internalType": "uint256",
          "name": "",
          "type": "uint256"
        }
      ],
      "stateMutability": "view",
      "type": "function"
    },
    {
      "inputs": [
        {
          "internalType": "address",
          "name": "",
          "type": "address"
        }
      ],
      "name": "maxDepositPoolPct",
      "outputs": [
        {
          "internalType": "uint256",
          "name": "",
          "type": "uint256"
        }
      ],
      "stateMutability": "view",
      "type": "function"
    },
    {
      "inputs": [],
      "name": "maxDepositProtocolMode",
      "outputs": [
        {
          "internalType": "enum MaxExposure",
          "name": "",
          "type": "uint8"
        }
      ],
      "stateMutability": "view",
      "type": "function"
    },
    {
      "inputs": [],
      "name": "maxDepositProtocolPct",
      "outputs": [
        {
          "internalType": "uint256",
          "name": "",
          "type": "uint256"
        }
      ],
      "stateMutability": "view",
      "type": "function"
    },
    {
      "inputs": [],
      "name": "optyFiOracle",
      "outputs": [
        {
          "internalType": "contract IOptyFiOracle",
          "name": "",
          "type": "address"
        }
      ],
      "stateMutability": "view",
      "type": "function"
    },
    {
      "inputs": [],
      "name": "registryContract",
      "outputs": [
        {
          "internalType": "contract IAdapterRegistryBase",
          "name": "",
          "type": "address"
        }
      ],
      "stateMutability": "view",
      "type": "function"
    },
    {
      "inputs": [
        {
          "components": [
            {
              "internalType": "address",
              "name": "liquidityPool",
              "type": "address"
            },
            {
              "internalType": "uint256",
              "name": "tolerance",
              "type": "uint256"
            }
          ],
          "internalType": "struct SushiswapPoolAdapterEthereum.Tolerance[]",
          "name": "_tolerances",
          "type": "tuple[]"
        }
      ],
      "name": "setLiquidityPoolToTolerance",
      "outputs": [],
      "stateMutability": "nonpayable",
      "type": "function"
    },
    {
      "inputs": [
        {
          "components": [
            {
              "internalType": "address",
              "name": "liquidityPool",
              "type": "address"
            },
            {
              "internalType": "address",
              "name": "wantToken",
              "type": "address"
            },
            {
              "internalType": "uint256",
              "name": "slippage",
              "type": "uint256"
            }
          ],
          "internalType": "struct SushiswapPoolAdapterEthereum.Slippage[]",
          "name": "_slippages",
          "type": "tuple[]"
        }
      ],
      "name": "setLiquidityPoolToWantTokenToSlippage",
      "outputs": [],
      "stateMutability": "nonpayable",
      "type": "function"
    },
    {
      "inputs": [
        {
          "internalType": "address",
          "name": "_liquidityPool",
          "type": "address"
        },
        {
          "internalType": "address",
          "name": "_underlyingToken",
          "type": "address"
        },
        {
          "internalType": "uint256",
          "name": "_maxDepositAmount",
          "type": "uint256"
        }
      ],
      "name": "setMaxDepositAmount",
      "outputs": [],
      "stateMutability": "nonpayable",
      "type": "function"
    },
    {
      "inputs": [
        {
          "internalType": "address",
          "name": "_liquidityPool",
          "type": "address"
        },
        {
          "internalType": "uint256",
          "name": "_maxDepositPoolPct",
          "type": "uint256"
        }
      ],
      "name": "setMaxDepositPoolPct",
      "outputs": [],
      "stateMutability": "nonpayable",
      "type": "function"
    },
    {
      "inputs": [
        {
          "internalType": "enum MaxExposure",
          "name": "_mode",
          "type": "uint8"
        }
      ],
      "name": "setMaxDepositProtocolMode",
      "outputs": [],
      "stateMutability": "nonpayable",
      "type": "function"
    },
    {
      "inputs": [
        {
          "internalType": "uint256",
          "name": "_maxDepositProtocolPct",
          "type": "uint256"
        }
      ],
      "name": "setMaxDepositProtocolPct",
      "outputs": [],
      "stateMutability": "nonpayable",
      "type": "function"
    },
    {
      "inputs": [
        {
          "internalType": "address",
          "name": "_optyFiOracle",
          "type": "address"
        }
      ],
      "name": "setOptyFiOracle",
      "outputs": [],
      "stateMutability": "nonpayable",
      "type": "function"
    },
    {
      "inputs": [
        {
          "internalType": "address",
          "name": "_registry",
          "type": "address"
        }
      ],
      "name": "setRegistry",
      "outputs": [],
      "stateMutability": "nonpayable",
      "type": "function"
    },
    {
      "inputs": [],
      "name": "sushiswapFactory",
      "outputs": [
        {
          "internalType": "contract IUniswapV2Factory",
          "name": "",
          "type": "address"
        }
      ],
      "stateMutability": "view",
      "type": "function"
    },
    {
      "inputs": [],
      "name": "sushiswapRouter",
      "outputs": [
        {
          "internalType": "contract IUniswapV2Router02",
          "name": "",
          "type": "address"
        }
      ],
      "stateMutability": "view",
      "type": "function"
    }
  ],
  "transactionHash": "0x5ae820fb72929ec02d969e652fd739f9ab0be2111e4166bd72a68a1ce54d00c7",
  "args": [
    "0x99fa011e33a8c6196869dec7bc407e896ba67fe3",
    "0xf34bf99d10AA7993D43588D6dD916dFB3ff33123"
  ],
  "numDeployments": 1,
  "bytecode": "0x60806040523480156200001157600080fd5b50604051620042fd380380620042fd833981016040819052620000349162000683565b600080546001600160a01b039384166001600160a01b03199182161782556127106002556003805460ff1916600190811790915580549390941692169190911790915560327ff2f3ed629113ac4845ca2cfa0a5f3eb0123aa9c38ee748ed335ae692209e2c158190557f39d1e37ea70264cef389e0d5b1dca46bbb9cf0258875271473556030e81c4d3881905560647ff9fc640ef1a9ee56ca6bb3115c4716ef08a9b39c6552311b7cf168291757211381905560967fea862008476ff65899f2af79242c6f766afbfdc53c1ea93d869ff86bd9b6d6bd8190557fec5b12ac4c8409bbe7a8510809c6592854a4fa0ab99f594a43b7ba49ea08bf4d83905560c87f81e0831b5d556c8506228f2c6ab6f70d3f04a24371bf7d5b8010cf029afd9c4b81905560467f24c6b603a29438c478b84d55e23c73e2b038c2a9331cd6c73f23c2170a8215ac8190557f6c58597eaf2849b0606a0b260048ce9339ab3b567d7f74a2a49eb21212e0773d8490557f4e3693cccea32eec7ac60ea9b5304a755d5092aff42383bcddabf091d3bb816e8490557fefecc92ca0ecf7d831d493de041f80da4b81419d4d09d4df478795dfcdff0ee7849055605a7fe2f19e3695a8974c38ff1b6aa6edf21edc2d234a29eb8fc00a9971a5277a04078190557fcb188f690c01ce92845799d11bfec03fe0fa1575372b68d0e06de32039f47eb08690557f4bec8fea6dc4cfcb7455b554292c4a4e25a93ce1470562ee2c3a2b1618a7019b8290556101f47f22542365bef1de77939140da2971c3b460ba7eb687528acde68bb3562b9fa7e4557f07dfaabaacfea4ee960f4924ccbf22820818d10253574df396c5fc48f748cedb8690557f2c49d905edf3d0196f5d48d613c92e949e0fa8fe28ae06964e23448f3ba4ad1a8690557f3e3b030350ef739c2c8fba09af3ff1289d72df7d73549ca80fd567011162dee78290557f1adcc57dd142fd3df3b3fc3853f352d6d5a8cbeab4fc7e2ee5bb19a4d0b6b6198690557fc82a75db2d40bf6ab9714a04610352063f9fd71f8c7015e66a0a2f76d55a2e8f8490557fdcf9c29792f524e03f0e7df6d9215cc042a0ade4fb046ffbf1cb5c5c0d9e6a448690557fdb095db99a96f520ed0fd27746c309ddc800ee5e5e4bd50b1dbfb5bd2a15d0df8190557f3cfc8f6e3dd134ac8a9746b877eb3fa72a1dd50bb76485e1cb29252f7dd133368390557fda4bad3bd2fcc57a000e77a3b600adaee00aa5babb805c06954a3a052a0ec2a28290557f77e355b30054954b963492f55c5b18b03dec3e993262acf7b3348387a71ab2168690557f9a544dcaec9905fad8ee258ceebb773e2c7fc39e05f10b2549e10e18c5f22bfa929092557f633f8c731515f2c2a98b31fe6e1b453e47520d0e1af74c7e9e22212022fbb6108590557f99f05d8b4e55952b9e6420d16ffc6551abc6e36871a01fab96d40e6c95f69a0f8490557f29be989d749c1dfc0d8c31a9d131cf2328d80136ea4a82ea51ccfa744d3ecdb28590557f75effe7591d9776c67690fcb6a1e4a074236088df50ec345f36bd95d41f2e8e38590557f28389fc5d6b9ca65954909052715d27fb772d329d512fb6b5307bcebc83b5ae28390557f626281564497e95303314b5c79c30a49c168b7ca8d82e68c1a1064f1f16692d08490557f559cc9c40e4331701017ecdb9d14466f2800a6e84b88ce280b118ed55dd927f6939093557fc38d45ea4ada1bfb8e095f45a5c1a272902e19fe5172475ba902569b85c84b148190557fbdd1e4a55df7b913f2f63fecb25c38904309c836d844d5d0b0df5684e4ad8ef1919091557ffcd59a9ee8e7075a55c3f745caebf13feff47d974c8927e1fd3a588864588740919091557f7544582c9881ba4d343658b4cb2f594a15579299f7f4cccc3dbd844d6587f7fe8290557f69a95370630ab39eefc022e640f99dfd78d76b0211cab05e1f7eeb2c3d47fcfb557fec3e43e576cf6fc7f47b5413e5e7b57d0e5f017907e6c44d21b5a155af13bdef8190557f9c444059daad1b8c194078601b888652cad387b3f88c67b955c452ed145c33a35573c02aaa39b223fe8d0a0e5c4f27ead9083c756cc290527f37bb5abd9882e66a97b8a649041a6a94a4ae0d4d9b88a5e4cff6c731f7ba03c760205261012c7fe2aef453204689053b6e39f12611d448bbbc91c11a3fc34ab1a0f8d867f804f155620006bb565b80516001600160a01b03811681146200067e57600080fd5b919050565b600080604083850312156200069757600080fd5b620006a28362000666565b9150620006b26020840162000666565b90509250929050565b613c3280620006cb6000396000f3fe608060405234801561001057600080fd5b50600436106103c55760003560e01c806377078872116101ff578063d6dd6ae61161011a578063e49d5ecc116100ad578063ef856be91161007c578063ef856be914610998578063f1aacbb7146109b8578063f49307ca146109cb578063fad0fac1146109de57600080fd5b8063e49d5ecc14610942578063e9240c2d14610955578063ecb427951461096a578063ee665bed1461098557600080fd5b8063da699f96116100e9578063da699f96146108ee578063df147b3b14610901578063df93572214610914578063e40a299a1461092757600080fd5b8063d6dd6ae614610892578063d74baaf8146108ad578063d82d41ac146108c0578063d9947711146108db57600080fd5b8063aac722b511610192578063c4e481e711610161578063c4e481e714610821578063c54e44eb1461083c578063cd07801214610857578063cfaa935c1461087757600080fd5b8063aac722b5146107b5578063ab560e10146107d0578063ad5c4648146107eb578063b71501bc1461080657600080fd5b8063918f8674116101ce578063918f86741461076b578063919b69d714610774578063945c914214610787578063a91ee0dc146107a257600080fd5b806377078872146107245780637c47b3f41461073257806385541e441461074557806390e616051461075857600080fd5b806334ff503a116102ef5780634ad36e021161028257806364dd5f801161025157806364dd5f80146106c057806369b97248146106d35780637528e3ab146106ee578063759cb53b1461070957600080fd5b80634ad36e021461065f5780634f83b52d14610672578063501070be1461069257806360925779146106ad57600080fd5b806339a99bc0116102be57806339a99bc0146105ee578063454376e614610609578063489b52951461062457806348ccda3c1461064457600080fd5b806334ff503a146105795780633600e32a1461059457806336d8bf93146105af57806337a9d761146105d357600080fd5b80631b6b6d23116103675780632750329011610336578063275032901461052657806328c1f99b146105395780632af06b961461054c5780632de778381461056657600080fd5b80631b6b6d23146104aa5780631d2e2cc4146104c55780631d98603c146104e05780632336fb41146104fb57600080fd5b8063180f7ad2116103a3578063180f7ad214610456578063191c194b1461046b578063194cbe7b146104745780631b5d145d1461048f57600080fd5b8063027a304d146103ca578063116d6027146104085780631759406f1461043b575b600080fd5b6103f56103d836600461355d565b600460209081526000928352604080842090915290825290205481565b6040519081526020015b60405180910390f35b6104237331503dcb60119a812fee820bb7042752019f235581565b6040516001600160a01b0390911681526020016103ff565b61042373a1181481beb2dc5de0daf2c85392d81c704bf75d81565b610469610464366004613596565b6109f9565b005b6103f560025481565b61042373d75ea151a61d06868e31f8988d28dfe5e9df57b481565b610423734d224452801aced8b2f0aebe155379bb5d59438181565b61042373514910771af9ca656af840dff83e8264ecf986ca81565b61042373c18360217d8f7ab5e7c516566761ea12ce7f9d7281565b6104237318cd890f4e23422dc4aa8c2d6e0bd3f3bd8873d881565b6103f561050936600461355d565b600760209081526000928352604080842090915290825290205481565b61046961053436600461360b565b610b2d565b600054610423906001600160a01b031681565b6003546105599060ff1681565b6040516103ff919061363e565b6103f561057436600461355d565b610c24565b61042373f57e7e7c23978c3caec3c3548e3d615c346e79ff81565b61042373795065dcc9f64b5614c407a6efdc400da6221fb081565b6105c36105bd36600461360b565b50600090565b60405190151581526020016103ff565b61042373c558f600b34a5f69dd2f0d06cb8a88d829b7420a81565b6104237305767d9ef41dc40689678ffca0608878fb3de90681565b6104237325f8087ead173b73d6e8b84329989a8eea16cf7381565b610637610632366004613666565b610ca6565b6040516103ff91906136fe565b610423737fc66500c84a76ad7e9c93437bfc5ac33e2ddae981565b6103f561066d366004613760565b610d2f565b6103f561068036600461360b565b60056020526000908152604090205481565b61042373c0aee478e3658e2610c5f7a4a2e1777ce9e4f2ac81565b6106376106bb366004613760565b610d7b565b6103f56106ce366004613666565b611561565b61042373c3f279090a47e80990fe3a9c30d24cb117ef91a881565b610423731bec4db6c3bc499f3dbf289f5499c30d541fec9781565b610423734e3fbd56cd56c3e72c1403e103b45db9da5b9d2b81565b6104236105bd36600461360b565b6104696107403660046137b1565b6116d7565b6103f56107533660046137d2565b6117de565b6103f5610766366004613666565b611b06565b6103f561271081565b610469610782366004613813565b611b74565b61042373d533a949740bb3306d119cc777fa900ba034cd5281565b6104696107b036600461360b565b611c62565b61042373dbdb4d16eda451d0503b854cf79d55697f90c8df81565b610423736b3595068778dd592e39a122f4f5a5cf09c90fe281565b61042373c02aaa39b223fe8d0a0e5c4f27ead9083c756cc281565b61042373c00e94cb662c3520282e6f5717214004a7f2688881565b61042373c40d16476380e4037e6b1a2594caf6a6cc8da96781565b61042373dac17f958d2ee523a2206206994597c13d831ec781565b6103f561086536600461360b565b60066020526000908152604090205481565b61042373088ee5007c98a9677165d78dd2109ae4a3d04d0c81565b6104237399b42f2b49c395d2a77d973f6009abb5d67da34381565b6104236108bb36600461355d565b919050565b610423730bc529c00c6401aef6d220be8c6ea1667f6ad93e81565b600154610423906001600160a01b031681565b6104696108fc36600461383f565b611d9e565b61046961090f366004613858565b611e78565b610637610922366004613760565b611fe9565b61042373b27c7b131cf4915bec6c4bc1ce2f33f9ee434b9f81565b6105c3610950366004613760565b6126ea565b610423600080516020613c0683398151915281565b610423730f5d2fb29fb7d3cfee444a200298f468908cc94281565b6103f56109933660046137d2565b612705565b6109ab6109a636600461355d565b6128e8565b6040516103ff91906138ff565b6104696109c63660046137d2565b612a38565b6106376109d9366004613666565b612b36565b6104237358dc5a51fe44589beb22e8ce67720b5bc537800981565b60008054906101000a90046001600160a01b03166001600160a01b0316637af0e5576040518163ffffffff1660e01b8152600401602060405180830381865afa158015610a4a573d6000803e3d6000fd5b505050506040513d601f19601f82011682018060405250810190610a6e9190613912565b6001600160a01b0316336001600160a01b031614610aa75760405162461bcd60e51b8152600401610a9e9061392f565b60405180910390fd5b8060005b81811015610b2757838382818110610ac557610ac5613966565b9050604002016020013560066000868685818110610ae557610ae5613966565b610afb926020604090920201908101915061360b565b6001600160a01b0316815260208101919091526040016000205580610b1f81613992565b915050610aab565b50505050565b60008054906101000a90046001600160a01b03166001600160a01b031663e7f43c686040518163ffffffff1660e01b8152600401602060405180830381865afa158015610b7e573d6000803e3d6000fd5b505050506040513d601f19601f82011682018060405250810190610ba29190613912565b6001600160a01b0316336001600160a01b031614610c025760405162461bcd60e51b815260206004820152601a60248201527f63616c6c6572206973206e6f7420746865206f70657261746f720000000000006044820152606401610a9e565b600180546001600160a01b0319166001600160a01b0392909216919091179055565b6040516370a0823160e01b81526001600160a01b038381166004830152600091908316906370a0823190602401602060405180830381865afa158015610c6e573d6000803e3d6000fd5b505050506040513d601f19601f82011682018060405250810190610c9291906139ad565b610c9d9060026139c6565b90505b92915050565b6040516370a0823160e01b81526001600160a01b0384811660048301526060916000918516906370a0823190602401602060405180830381865afa158015610cf2573d6000803e3d6000fd5b505050506040513d601f19601f82011682018060405250810190610d1691906139ad565b9050610d2485858584611fe9565b9150505b9392505050565b600080610d3d868686611b06565b90506000610d4c878787611561565b905080610d5985846139c6565b610d6391906139e5565b610d6e906001613a07565b925050505b949350505050565b60608115610d735760408051600680825260e0820190925290816020015b6060815260200190600190039081610d9957905050604051600080516020613c06833981519152602482015260006044820152909150839060640160408051601f19818403018152918152602080830180516001600160e01b031663095ea7b360e01b1790529051610e0d93929101613a1f565b60405160208183030381529060405281600081518110610e2f57610e2f613966565b6020908102919091010152604051600080516020613c06833981519152602482015260448101839052839060640160408051601f19818403018152918152602080830180516001600160e01b031663095ea7b360e01b1790529051610e9693929101613a1f565b60405160208183030381529060405281600181518110610eb857610eb8613966565b60200260200101819052506000806000856001600160a01b031663d21220a76040518163ffffffff1660e01b8152600401602060405180830381865afa158015610f06573d6000803e3d6000fd5b505050506040513d601f19601f82011682018060405250810190610f2a9190613912565b9050600080876001600160a01b0316630902f1ac6040518163ffffffff1660e01b8152600401606060405180830381865afa158015610f6d573d6000803e3d6000fd5b505050506040513d601f19601f82011682018060405250810190610f919190613a5a565b506001600160701b031691506001600160701b031691506000610fb5898484612b53565b905080610fc289856139c6565b610fcc91906139e5565b955080610fd989846139c6565b610fe391906139e5565b9450896001600160a01b0316846001600160a01b031614156110715760408051630dfe168160e01b815290519596959293926001600160a01b038b1691630dfe16819160048083019260209291908290030181865afa15801561104a573d6000803e3d6000fd5b505050506040513d601f19601f8201168201806040525081019061106e9190613912565b93505b61107e8a8585858d612d41565b506040516001600160a01b03808b1660248301528085166044830152606482018990526084820187905260a482018690528b1660c482015260001960e4820152600080516020613c06833981519152906101040160408051601f19818403018152918152602080830180516001600160e01b0316635d5155ef60e11b179052905161110b93929101613a1f565b6040516020818303038152906040528660028151811061112d5761112d613966565b6020908102919091010152604051600080516020613c06833981519152602482015260006044820152839060640160408051601f19818403018152918152602080830180516001600160e01b031663095ea7b360e01b179052905161119493929101613a1f565b604051602081830303815290604052866003815181106111b6576111b6613966565b60209081029190910101526040516370a0823160e01b81526001600160a01b038b811660048301528491600080516020613c06833981519152918316906370a0823190602401602060405180830381865afa158015611219573d6000803e3d6000fd5b505050506040513d601f19601f8201168201806040525081019061123d91906139ad565b6112479087613a07565b6040516001600160a01b039092166024830152604482015260640160408051601f19818403018152918152602080830180516001600160e01b031663095ea7b360e01b179052905161129b93929101613a1f565b604051602081830303815290604052866004815181106112bd576112bd613966565b602090810291909101015260408051600280825260608201909252600091816020016020820280368337019050509050838160008151811061130157611301613966565b60200260200101906001600160a01b031690816001600160a01b031681525050898160018151811061133557611335613966565b6001600160a01b0392831660209182029290920101526040516370a0823160e01b81528c821660048201526000916113df916103e8918816906370a0823190602401602060405180830381865afa158015611394573d6000803e3d6000fd5b505050506040513d601f19601f820116820180604052508101906113b891906139ad565b6113c29089613a07565b6113ce906103e56139c6565b6113d891906139e5565b868d612feb565b6040516370a0823160e01b81526001600160a01b038e81166004830152919250600080516020613c06833981519152918716906370a0823190602401602060405180830381865afa158015611438573d6000803e3d6000fd5b505050506040513d601f19601f8201168201806040525081019061145c91906139ad565b6114669088613a07565b612710600760008e6001600160a01b03166001600160a01b0316815260200190815260200160002060008f6001600160a01b03166001600160a01b03168152602001908152602001600020546127106114bf9190613a9f565b6114c990856139c6565b6114d391906139e5565b848f6000196040516024016114ec959493929190613ab6565b60408051601f19818403018152918152602080830180516001600160e01b03166338ed173960e01b179052905161152593929101613a1f565b6040516020818303038152906040528860058151811061154757611547613966565b602002602001018190525050505050505050949350505050565b600080826001600160a01b031663d21220a76040518163ffffffff1660e01b8152600401602060405180830381865afa1580156115a2573d6000803e3d6000fd5b505050506040513d601f19601f820116820180604052508101906115c69190613912565b9050836001600160a01b0316816001600160a01b0316141561164757826001600160a01b0316630dfe16816040518163ffffffff1660e01b8152600401602060405180830381865afa158015611620573d6000803e3d6000fd5b505050506040513d601f19601f820116820180604052508101906116449190613912565b90505b6040516370a0823160e01b81526001600160a01b0386811660048301526116bd91908316906370a0823190602401602060405180830381865afa158015611692573d6000803e3d6000fd5b505050506040513d601f19601f820116820180604052508101906116b691906139ad565b8286612feb565b6116cd8585610993898989611b06565b610d249190613a07565b60008054906101000a90046001600160a01b03166001600160a01b0316637af0e5576040518163ffffffff1660e01b8152600401602060405180830381865afa158015611728573d6000803e3d6000fd5b505050506040513d601f19601f8201168201806040525081019061174c9190613912565b6001600160a01b0316336001600160a01b03161461177c5760405162461bcd60e51b8152600401610a9e9061392f565b6003805482919060ff19166001838181111561179a5761179a613628565b0217905550338160018111156117b2576117b2613628565b6040517f68e3b01155b193b02181f2c0ed491c934a74348d211ff023f8fc6ac5edf22aa090600090a350565b6000806000846001600160a01b0316630902f1ac6040518163ffffffff1660e01b8152600401606060405180830381865afa158015611821573d6000803e3d6000fd5b505050506040513d601f19601f820116820180604052508101906118459190613a5a565b506001600160701b031691506001600160701b031691506000856001600160a01b0316630dfe16816040518163ffffffff1660e01b8152600401602060405180830381865afa15801561189c573d6000803e3d6000fd5b505050506040513d601f19601f820116820180604052508101906118c09190613912565b90506000866001600160a01b031663d21220a76040518163ffffffff1660e01b8152600401602060405180830381865afa158015611902573d6000803e3d6000fd5b505050506040513d601f19601f820116820180604052508101906119269190613912565b9050876001600160a01b0316876001600160a01b0316630dfe16816040518163ffffffff1660e01b8152600401602060405180830381865afa158015611970573d6000803e3d6000fd5b505050506040513d601f19601f820116820180604052508101906119949190613912565b6001600160a01b0316146119a757919291905b6119b4828286868b612d41565b6040516370a0823160e01b81523360048201526000906001600160a01b038316906370a0823190602401602060405180830381865afa1580156119fb573d6000803e3d6000fd5b505050506040513d601f19601f82011682018060405250810190611a1f91906139ad565b90506000611a2f86868a856131bc565b9050600082611a3f838787612feb565b611a499190613a07565b9050611a558288613a07565b9650611a618187613a9f565b95506000611a708b8989612b53565b90506000611a7e848c613a9f565b90506000611a8d828b8b61328c565b905083811115611aa7575082611aa4818a8c61328c565b91505b60008a611ab485856139c6565b611abe91906139e5565b905089611acb85846139c6565b611ad591906139e5565b811115611af45789611ae785846139c6565b611af191906139e5565b90505b9e9d5050505050505050505050505050565b6040516370a0823160e01b81526001600160a01b038481166004830152600091908316906370a0823190602401602060405180830381865afa158015611b50573d6000803e3d6000fd5b505050506040513d601f19601f82011682018060405250810190610d7391906139ad565b60008054906101000a90046001600160a01b03166001600160a01b0316637af0e5576040518163ffffffff1660e01b8152600401602060405180830381865afa158015611bc5573d6000803e3d6000fd5b505050506040513d601f19601f82011682018060405250810190611be99190613912565b6001600160a01b0316336001600160a01b031614611c195760405162461bcd60e51b8152600401610a9e9061392f565b6001600160a01b03821660009081526005602052604080822083905551339183917fac58e29a41d996caca756d050dce90806b277f0c939337653638329247e16f4c9190a35050565b60008054906101000a90046001600160a01b03166001600160a01b031663e7f43c686040518163ffffffff1660e01b8152600401602060405180830381865afa158015611cb3573d6000803e3d6000fd5b505050506040513d601f19601f82011682018060405250810190611cd79190613912565b6001600160a01b0316336001600160a01b031614611d375760405162461bcd60e51b815260206004820152601a60248201527f63616c6c6572206973206e6f7420746865206f70657261746f720000000000006044820152606401610a9e565b6001600160a01b0381163b611d7c5760405162461bcd60e51b815260206004820152600b60248201526a085a5cd0dbdb9d1c9858dd60aa1b6044820152606401610a9e565b600080546001600160a01b0319166001600160a01b0392909216919091179055565b60008054906101000a90046001600160a01b03166001600160a01b0316637af0e5576040518163ffffffff1660e01b8152600401602060405180830381865afa158015611def573d6000803e3d6000fd5b505050506040513d601f19601f82011682018060405250810190611e139190613912565b6001600160a01b0316336001600160a01b031614611e435760405162461bcd60e51b8152600401610a9e9061392f565b6002819055604051339082907f19c60b0612798cc65bd298cd47e17d9fd07e74e0d3baa6c0019411bb334d9bda90600090a350565b60008054906101000a90046001600160a01b03166001600160a01b0316637af0e5576040518163ffffffff1660e01b8152600401602060405180830381865afa158015611ec9573d6000803e3d6000fd5b505050506040513d601f19601f82011682018060405250810190611eed9190613912565b6001600160a01b0316336001600160a01b031614611f1d5760405162461bcd60e51b8152600401610a9e9061392f565b8060005b81811015610b2757838382818110611f3b57611f3b613966565b9050606002016040013560076000868685818110611f5b57611f5b613966565b611f71926020606090920201908101915061360b565b6001600160a01b03166001600160a01b031681526020019081526020016000206000868685818110611fa557611fa5613966565b9050606002016020016020810190611fbd919061360b565b6001600160a01b0316815260208101919091526040016000205580611fe181613992565b915050611f21565b6060611ff684848461336d565b91508115610d735760408051600680825260e0820190925290816020015b606081526020019060019003908161201457905050604051600080516020613c06833981519152602482015260006044820152909150849060640160408051601f19818403018152918152602080830180516001600160e01b031663095ea7b360e01b179052905161208893929101613a1f565b604051602081830303815290604052816000815181106120aa576120aa613966565b6020026020010181905250600080600080600080886001600160a01b0316630902f1ac6040518163ffffffff1660e01b8152600401606060405180830381865afa1580156120fc573d6000803e3d6000fd5b505050506040513d601f19601f820116820180604052508101906121209190613a5a565b506001600160701b031691506001600160701b03169150886001600160a01b031663d21220a76040518163ffffffff1660e01b8152600401602060405180830381865afa158015612175573d6000803e3d6000fd5b505050506040513d601f19601f820116820180604052508101906121999190613912565b9550896001600160a01b0316866001600160a01b031614156122245760408051630dfe168160e01b815290519192916001600160a01b038b1691630dfe16819160048083019260209291908290030181865afa1580156121fd573d6000803e3d6000fd5b505050506040513d601f19601f820116820180604052508101906122219190613912565b95505b6122318a8784848d612d41565b6040516370a0823160e01b81526001600160a01b038c811660048301528716906370a0823190602401602060405180830381865afa158015612277573d6000803e3d6000fd5b505050506040513d601f19601f8201168201806040525081019061229b91906139ad565b92506122a982828a866131bc565b94506122b6858b88612feb565b604051600080516020613c068339815191526024820152604481018a90529094508a9060640160408051601f19818403018152918152602080830180516001600160e01b031663095ea7b360e01b179052905161231593929101613a1f565b6040516020818303038152906040528760018151811061233757612337613966565b6020908102919091010152604080516002808252606082019092526000918160200160208202803683370190505090508a8160008151811061237b5761237b613966565b60200260200101906001600160a01b031690816001600160a01b03168152505086816001815181106123af576123af613966565b6001600160a01b039283166020918202929092018101919091528b82166000908152600782526040808220938b168252929091522054600080516020613c06833981519152908790612710906124059082613a9f565b61240f90896139c6565b61241991906139e5565b838f600019604051602401612432959493929190613ab6565b60408051601f19818403018152918152602080830180516001600160e01b03166338ed173960e01b179052905161246b93929101613a1f565b6040516020818303038152906040528860028151811061248d5761248d613966565b60209081029190910101525050604051600080516020613c0683398151915260248201526000604482015285915060640160408051601f19818403018152918152602080830180516001600160e01b031663095ea7b360e01b17905290516124f793929101613a1f565b6040516020818303038152906040528560038151811061251957612519613966565b602090810291909101015283600080516020613c0683398151915261253e8385613a07565b6040516001600160a01b039092166024830152604482015260640160408051601f19818403018152918152602080830180516001600160e01b031663095ea7b360e01b179052905161259293929101613a1f565b604051602081830303815290604052856004815181106125b4576125b4613966565b6020908102919091010152600080516020613c0683398151915288856125da868a613a9f565b6001600160a01b03808c166000908152600760209081526040808320938c16835292905220548590612710906126109082613a9f565b61261a90896139c6565b61262491906139e5565b61262e9190613a07565b6040516001600160a01b039485166024820152928416604484015260648301919091526084820152600060a4820181905260c4820152908b1660e48201526000196101048201526101240160408051601f19818403018152918152602080830180516001600160e01b031662e8e33760e81b17905290516126b193929101613a1f565b604051602081830303815290604052856005815181106126d3576126d3613966565b602002602001018190525050505050949350505050565b6000806126f8868686611561565b9092111595945050505050565b6000806000846001600160a01b0316630902f1ac6040518163ffffffff1660e01b8152600401606060405180830381865afa158015612748573d6000803e3d6000fd5b505050506040513d601f19601f8201168201806040525081019061276c9190613a5a565b506001600160701b031691506001600160701b031691506000612790868484612b53565b90506000866001600160a01b031663d21220a76040518163ffffffff1660e01b8152600401602060405180830381865afa1580156127d2573d6000803e3d6000fd5b505050506040513d601f19601f820116820180604052508101906127f69190613912565b9050876001600160a01b0316816001600160a01b031614156128815760408051630dfe168160e01b815290519394936001600160a01b03891691630dfe16819160048083019260209291908290030181865afa15801561285a573d6000803e3d6000fd5b505050506040513d601f19601f8201168201806040525081019061287e9190613912565b90505b61288e888286868b612d41565b60008261289b88876139c6565b6128a591906139e5565b90506000836128b489876139c6565b6128be91906139e5565b905060006128cd82858d612feb565b90506128d98184613a07565b9b9a5050505050505050505050565b6040805160028082526060808301845292602083019080368337019050509050826001600160a01b0316630dfe16816040518163ffffffff1660e01b8152600401602060405180830381865afa158015612946573d6000803e3d6000fd5b505050506040513d601f19601f8201168201806040525081019061296a9190613912565b8160008151811061297d5761297d613966565b60200260200101906001600160a01b031690816001600160a01b031681525050826001600160a01b031663d21220a76040518163ffffffff1660e01b8152600401602060405180830381865afa1580156129db573d6000803e3d6000fd5b505050506040513d601f19601f820116820180604052508101906129ff9190613912565b81600181518110612a1257612a12613966565b60200260200101906001600160a01b031690816001600160a01b03168152505092915050565b60008054906101000a90046001600160a01b03166001600160a01b0316637af0e5576040518163ffffffff1660e01b8152600401602060405180830381865afa158015612a89573d6000803e3d6000fd5b505050506040513d601f19601f82011682018060405250810190612aad9190613912565b6001600160a01b0316336001600160a01b031614612add5760405162461bcd60e51b8152600401610a9e9061392f565b6001600160a01b03808416600090815260046020908152604080832093861683529290528181208390559051339183917f197807a6a2633dd9bde6550aca985cfc69e655e9130930314c0e9da01a75cc549190a3505050565b60606000612b45858585611b06565b9050610d2485858584610d7b565b6000836001600160a01b03166318160ddd6040518163ffffffff1660e01b8152600401602060405180830381865afa158015612b93573d6000803e3d6000fd5b505050506040513d601f19601f82011682018060405250810190612bb791906139ad565b905060006001600160a01b031673c0aee478e3658e2610c5f7a4a2e1777ce9e4f2ac6001600160a01b031663017e7e586040518163ffffffff1660e01b8152600401602060405180830381865afa158015612c16573d6000803e3d6000fd5b505050506040513d601f19601f82011682018060405250810190612c3a9190613912565b6001600160a01b031614610d28576000846001600160a01b0316637464fc3d6040518163ffffffff1660e01b8152600401602060405180830381865afa158015612c88573d6000803e3d6000fd5b505050506040513d601f19601f82011682018060405250810190612cac91906139ad565b90508015612d39576000612cc8612cc385876139c6565b6134d6565b90506000612cd5836134d6565b905080821115612d36576000612ceb8284613a9f565b612cf590866139c6565b9050600082612d058560056139c6565b612d0f9190613a07565b90506000612d1d82846139e5565b90508015612d3257612d2f8188613a07565b96505b5050505b50505b509392505050565b60015460405163057d4cc360e51b81526001600160a01b0387811660048301528681166024830152600092169063afa9986090604401602060405180830381865afa158015612d94573d6000803e3d6000fd5b505050506040513d601f19601f82011682018060405250810190612db891906139ad565b905060008111612df35760405162461bcd60e51b815260206004820152600660248201526521707269636560d01b6044820152606401610a9e565b6000866001600160a01b031663313ce5676040518163ffffffff1660e01b8152600401602060405180830381865afa158015612e33573d6000803e3d6000fd5b505050506040513d601f19601f82011682018060405250810190612e579190613af2565b60ff1690506000866001600160a01b031663313ce5676040518163ffffffff1660e01b8152600401602060405180830381865afa158015612e9c573d6000803e3d6000fd5b505050506040513d601f19601f82011682018060405250810190612ec09190613af2565b60ff1690506000612ed2836012613a9f565b612edd90600a613bf9565b612ee790886139c6565b612ef2836024613a9f565b612efd90600a613bf9565b612f0790886139c6565b612f1191906139e5565b6001600160a01b0386166000908152600660205260408120549192509061271090612f3c9082613a07565b612f4690876139c6565b612f5091906139e5565b6001600160a01b0387166000908152600660205260408120549192509061271090612f7b9082613a9f565b612f8590886139c6565b612f8f91906139e5565b90508183108015612f9f57508083115b612fde5760405162461bcd60e51b815260206004820152601060248201526f085a5b58985b185b98d959081c1bdbdb60821b6044820152606401610a9e565b5050505050505050505050565b60015460405163057d4cc360e51b81526001600160a01b0384811660048301528381166024830152600092839291169063afa9986090604401602060405180830381865afa158015613041573d6000803e3d6000fd5b505050506040513d601f19601f8201168201806040525081019061306591906139ad565b9050600081116130a05760405162461bcd60e51b815260206004820152600660248201526521707269636560d01b6044820152606401610a9e565b6000846001600160a01b031663313ce5676040518163ffffffff1660e01b8152600401602060405180830381865afa1580156130e0573d6000803e3d6000fd5b505050506040513d601f19601f820116820180604052508101906131049190613af2565b60ff1690506000846001600160a01b031663313ce5676040518163ffffffff1660e01b8152600401602060405180830381865afa158015613149573d6000803e3d6000fd5b505050506040513d601f19601f8201168201806040525081019061316d9190613af2565b60ff16905061317d826012613a07565b61318890600a613bf9565b61319382600a613bf9565b61319d858a6139c6565b6131a791906139c6565b6131b191906139e5565b979650505050505050565b60006131c88483613a07565b6131d4906107ca6139c6565b6131de8584613a07565b6131ea876107cd6139c6565b6131f491906139c6565b61324e61320185896139c6565b61320c9060096139c6565b613216888a6139c6565b61322390623cda296139c6565b61322d89896139c6565b61323a90623cda206139c6565b6132449190613a07565b612cc39190613a07565b61326561325b8887613a07565b612cc3908a6139c6565b61326f91906139c6565b6132799190613a9f565b61328391906139e5565b95945050505050565b60008084116132eb5760405162461bcd60e51b815260206004820152602560248201527f556e697377617056324c6962726172793a20494e53554646494349454e545f416044820152641353d5539560da1b6064820152608401610a9e565b6000831180156132fb5750600082115b6133585760405162461bcd60e51b815260206004820152602860248201527f556e697377617056324c6962726172793a20494e53554646494349454e545f4c604482015267495155494449545960c01b6064820152608401610a9e565b8261336383866139c6565b610d7391906139e5565b60008060035460ff16600181111561338757613387613628565b14156133ed576001600160a01b038084166000908152600460209081526040808320938816835292905220548211156133e657506001600160a01b03808316600090815260046020908152604080832093871683529290522054610d28565b5080610d28565b60006133f98486610c24565b6001600160a01b03851660009081526005602052604090205490915015613492576001600160a01b0384166000908152600560205260409020546127109061344190836139c6565b61344b91906139e5565b83111561348a576001600160a01b0384166000908152600560205260409020546127109061347990836139c6565b61348391906139e5565b9150612d39565b829150612d39565b60025415612d3957612710600254826134ab91906139c6565b6134b591906139e5565b8311156134cd576127106002548261347991906139c6565b50909392505050565b6000600382111561353757508060006134f06002836139e5565b6134fb906001613a07565b90505b818110156135315790508060028161351681866139e5565b6135209190613a07565b61352a91906139e5565b90506134fe565b50919050565b81156108bb57506001919050565b6001600160a01b038116811461355a57600080fd5b50565b6000806040838503121561357057600080fd5b823561357b81613545565b9150602083013561358b81613545565b809150509250929050565b600080602083850312156135a957600080fd5b823567ffffffffffffffff808211156135c157600080fd5b818501915085601f8301126135d557600080fd5b8135818111156135e457600080fd5b8660208260061b85010111156135f957600080fd5b60209290920196919550909350505050565b60006020828403121561361d57600080fd5b8135610d2881613545565b634e487b7160e01b600052602160045260246000fd5b602081016002831061366057634e487b7160e01b600052602160045260246000fd5b91905290565b60008060006060848603121561367b57600080fd5b833561368681613545565b9250602084013561369681613545565b915060408401356136a681613545565b809150509250925092565b6000815180845260005b818110156136d7576020818501810151868301820152016136bb565b818111156136e9576000602083870101525b50601f01601f19169290920160200192915050565b6000602080830181845280855180835260408601915060408160051b870101925083870160005b8281101561375357603f198886030184526137418583516136b1565b94509285019290850190600101613725565b5092979650505050505050565b6000806000806080858703121561377657600080fd5b843561378181613545565b9350602085013561379181613545565b925060408501356137a181613545565b9396929550929360600135925050565b6000602082840312156137c357600080fd5b813560028110610d2857600080fd5b6000806000606084860312156137e757600080fd5b83356137f281613545565b9250602084013561380281613545565b929592945050506040919091013590565b6000806040838503121561382657600080fd5b823561383181613545565b946020939093013593505050565b60006020828403121561385157600080fd5b5035919050565b6000806020838503121561386b57600080fd5b823567ffffffffffffffff8082111561388357600080fd5b818501915085601f83011261389757600080fd5b8135818111156138a657600080fd5b8660206060830285010111156135f957600080fd5b600081518084526020808501945080840160005b838110156138f45781516001600160a01b0316875295820195908201906001016138cf565b509495945050505050565b602081526000610c9d60208301846138bb565b60006020828403121561392457600080fd5b8151610d2881613545565b6020808252601e908201527f63616c6c6572206973206e6f7420746865207269736b4f70657261746f720000604082015260600190565b634e487b7160e01b600052603260045260246000fd5b634e487b7160e01b600052601160045260246000fd5b60006000198214156139a6576139a661397c565b5060010190565b6000602082840312156139bf57600080fd5b5051919050565b60008160001904831182151516156139e0576139e061397c565b500290565b600082613a0257634e487b7160e01b600052601260045260246000fd5b500490565b60008219821115613a1a57613a1a61397c565b500190565b6001600160a01b0383168152604060208201819052600090610d73908301846136b1565b80516001600160701b03811681146108bb57600080fd5b600080600060608486031215613a6f57600080fd5b613a7884613a43565b9250613a8660208501613a43565b9150604084015163ffffffff811681146136a657600080fd5b600082821015613ab157613ab161397c565b500390565b85815284602082015260a060408201526000613ad560a08301866138bb565b6001600160a01b0394909416606083015250608001529392505050565b600060208284031215613b0457600080fd5b815160ff81168114610d2857600080fd5b600181815b80851115613b50578160001904821115613b3657613b3661397c565b80851615613b4357918102915b93841c9390800290613b1a565b509250929050565b600082613b6757506001610ca0565b81613b7457506000610ca0565b8160018114613b8a5760028114613b9457613bb0565b6001915050610ca0565b60ff841115613ba557613ba561397c565b50506001821b610ca0565b5060208310610133831016604e8410600b8410161715613bd3575081810a610ca0565b613bdd8383613b15565b8060001904821115613bf157613bf161397c565b029392505050565b6000610c9d8383613b5856fe000000000000000000000000d9e1ce17f2641f24ae83637ab66a2cca9c378b9fa164736f6c634300080b000a"
}