{
  "address": "0xE6Eb1d57a2fD37c064c9C543A9266a0642705835",
  "abi": [
    {
      "inputs": [
        {
          "internalType": "address",
          "name": "_registry",
          "type": "address"
        },
        {
          "internalType": "address",
          "name": "_optyFiOracle",
          "type": "address"
        }
      ],
      "stateMutability": "nonpayable",
      "type": "constructor"
    },
    {
      "anonymous": false,
      "inputs": [
        {
          "indexed": true,
          "internalType": "uint256",
          "name": "maxDepositAmount",
          "type": "uint256"
        },
        {
          "indexed": true,
          "internalType": "address",
          "name": "caller",
          "type": "address"
        }
      ],
      "name": "LogMaxDepositAmount",
      "type": "event"
    },
    {
      "anonymous": false,
      "inputs": [
        {
          "indexed": true,
          "internalType": "uint256",
          "name": "maxDepositPoolPct",
          "type": "uint256"
        },
        {
          "indexed": true,
          "internalType": "address",
          "name": "caller",
          "type": "address"
        }
      ],
      "name": "LogMaxDepositPoolPct",
      "type": "event"
    },
    {
      "anonymous": false,
      "inputs": [
        {
          "indexed": true,
          "internalType": "enum MaxExposure",
          "name": "maxDepositProtocolMode",
          "type": "uint8"
        },
        {
          "indexed": true,
          "internalType": "address",
          "name": "caller",
          "type": "address"
        }
      ],
      "name": "LogMaxDepositProtocolMode",
      "type": "event"
    },
    {
      "anonymous": false,
      "inputs": [
        {
          "indexed": true,
          "internalType": "uint256",
          "name": "maxDepositProtocolPct",
          "type": "uint256"
        },
        {
          "indexed": true,
          "internalType": "address",
          "name": "caller",
          "type": "address"
        }
      ],
      "name": "LogMaxDepositProtocolPct",
      "type": "event"
    },
    {
      "inputs": [],
      "name": "AAVE",
      "outputs": [
        {
          "internalType": "address",
          "name": "",
          "type": "address"
        }
      ],
      "stateMutability": "view",
      "type": "function"
    },
    {
      "inputs": [],
      "name": "AAVE_WETH",
      "outputs": [
        {
          "internalType": "address",
          "name": "",
          "type": "address"
        }
      ],
      "stateMutability": "view",
      "type": "function"
    },
    {
      "inputs": [],
      "name": "APE",
      "outputs": [
        {
          "internalType": "address",
          "name": "",
          "type": "address"
        }
      ],
      "stateMutability": "view",
      "type": "function"
    },
    {
      "inputs": [],
      "name": "APE_USDT",
      "outputs": [
        {
          "internalType": "address",
          "name": "",
          "type": "address"
        }
      ],
      "stateMutability": "view",
      "type": "function"
    },
    {
      "inputs": [],
      "name": "DENOMINATOR",
      "outputs": [
        {
          "internalType": "uint256",
          "name": "",
          "type": "uint256"
        }
      ],
      "stateMutability": "view",
      "type": "function"
    },
    {
      "inputs": [],
      "name": "MANA",
      "outputs": [
        {
          "internalType": "address",
          "name": "",
          "type": "address"
        }
      ],
      "stateMutability": "view",
      "type": "function"
    },
    {
      "inputs": [],
      "name": "MANA_WETH",
      "outputs": [
        {
          "internalType": "address",
          "name": "",
          "type": "address"
        }
      ],
      "stateMutability": "view",
      "type": "function"
    },
    {
      "inputs": [],
      "name": "SUSHI",
      "outputs": [
        {
          "internalType": "address",
          "name": "",
          "type": "address"
        }
      ],
      "stateMutability": "view",
      "type": "function"
    },
    {
      "inputs": [],
      "name": "SUSHI_WETH",
      "outputs": [
        {
          "internalType": "address",
          "name": "",
          "type": "address"
        }
      ],
      "stateMutability": "view",
      "type": "function"
    },
    {
      "inputs": [],
      "name": "USDT",
      "outputs": [
        {
          "internalType": "address",
          "name": "",
          "type": "address"
        }
      ],
      "stateMutability": "view",
      "type": "function"
    },
    {
      "inputs": [],
      "name": "WETH",
      "outputs": [
        {
          "internalType": "address",
          "name": "",
          "type": "address"
        }
      ],
      "stateMutability": "view",
      "type": "function"
    },
    {
      "inputs": [
        {
          "internalType": "address",
          "name": "_underlyingToken",
          "type": "address"
        },
        {
          "internalType": "address",
          "name": "_liquidityPool",
          "type": "address"
        },
        {
          "internalType": "uint256",
          "name": "_depositAmount",
          "type": "uint256"
        }
      ],
      "name": "calculateAmountInLPToken",
      "outputs": [
        {
          "internalType": "uint256",
          "name": "",
          "type": "uint256"
        }
      ],
      "stateMutability": "view",
      "type": "function"
    },
    {
      "inputs": [
        {
          "internalType": "address payable",
          "name": "_vault",
          "type": "address"
        },
        {
          "internalType": "address",
          "name": "_underlyingToken",
          "type": "address"
        },
        {
          "internalType": "address",
          "name": "_liquidityPool",
          "type": "address"
        },
        {
          "internalType": "uint256",
          "name": "_redeemAmount",
          "type": "uint256"
        }
      ],
      "name": "calculateRedeemableLPTokenAmount",
      "outputs": [
        {
          "internalType": "uint256",
          "name": "",
          "type": "uint256"
        }
      ],
      "stateMutability": "view",
      "type": "function"
    },
    {
      "inputs": [
        {
          "internalType": "address",
          "name": "",
          "type": "address"
        }
      ],
      "name": "canStake",
      "outputs": [
        {
          "internalType": "bool",
          "name": "",
          "type": "bool"
        }
      ],
      "stateMutability": "pure",
      "type": "function"
    },
    {
      "inputs": [
        {
          "internalType": "address payable",
          "name": "_vault",
          "type": "address"
        },
        {
          "internalType": "address",
          "name": "_underlyingToken",
          "type": "address"
        },
        {
          "internalType": "address",
          "name": "_liquidityPool",
          "type": "address"
        }
      ],
      "name": "getAllAmountInToken",
      "outputs": [
        {
          "internalType": "uint256",
          "name": "",
          "type": "uint256"
        }
      ],
      "stateMutability": "view",
      "type": "function"
    },
    {
      "inputs": [
        {
          "internalType": "address payable",
          "name": "_vault",
          "type": "address"
        },
        {
          "internalType": "address",
          "name": "_underlyingToken",
          "type": "address"
        },
        {
          "internalType": "address",
          "name": "_liquidityPool",
          "type": "address"
        }
      ],
      "name": "getDepositAllCodes",
      "outputs": [
        {
          "internalType": "bytes[]",
          "name": "_codes",
          "type": "bytes[]"
        }
      ],
      "stateMutability": "view",
      "type": "function"
    },
    {
      "inputs": [
        {
          "internalType": "address payable",
          "name": "_vault",
          "type": "address"
        },
        {
          "internalType": "address",
          "name": "_underlyingToken",
          "type": "address"
        },
        {
          "internalType": "address",
          "name": "_liquidityPool",
          "type": "address"
        },
        {
          "internalType": "uint256",
          "name": "_amount",
          "type": "uint256"
        }
      ],
      "name": "getDepositSomeCodes",
      "outputs": [
        {
          "internalType": "bytes[]",
          "name": "_codes",
          "type": "bytes[]"
        }
      ],
      "stateMutability": "view",
      "type": "function"
    },
    {
      "inputs": [
        {
          "internalType": "address",
          "name": "",
          "type": "address"
        },
        {
          "internalType": "address",
          "name": "_liquidityPool",
          "type": "address"
        }
      ],
      "name": "getLiquidityPoolToken",
      "outputs": [
        {
          "internalType": "address",
          "name": "",
          "type": "address"
        }
      ],
      "stateMutability": "pure",
      "type": "function"
    },
    {
      "inputs": [
        {
          "internalType": "address payable",
          "name": "_vault",
          "type": "address"
        },
        {
          "internalType": "address",
          "name": "",
          "type": "address"
        },
        {
          "internalType": "address",
          "name": "_liquidityPool",
          "type": "address"
        }
      ],
      "name": "getLiquidityPoolTokenBalance",
      "outputs": [
        {
          "internalType": "uint256",
          "name": "",
          "type": "uint256"
        }
      ],
      "stateMutability": "view",
      "type": "function"
    },
    {
      "inputs": [
        {
          "internalType": "address",
          "name": "_liquidityPool",
          "type": "address"
        },
        {
          "internalType": "address",
          "name": "_underlyingToken",
          "type": "address"
        }
      ],
      "name": "getPoolValue",
      "outputs": [
        {
          "internalType": "uint256",
          "name": "",
          "type": "uint256"
        }
      ],
      "stateMutability": "view",
      "type": "function"
    },
    {
      "inputs": [
        {
          "internalType": "address",
          "name": "",
          "type": "address"
        }
      ],
      "name": "getRewardToken",
      "outputs": [
        {
          "internalType": "address",
          "name": "",
          "type": "address"
        }
      ],
      "stateMutability": "pure",
      "type": "function"
    },
    {
      "inputs": [
        {
          "internalType": "address",
          "name": "_underlyingToken",
          "type": "address"
        },
        {
          "internalType": "address",
          "name": "_liquidityPool",
          "type": "address"
        },
        {
          "internalType": "uint256",
          "name": "_liquidityPoolTokenAmount",
          "type": "uint256"
        }
      ],
      "name": "getSomeAmountInToken",
      "outputs": [
        {
          "internalType": "uint256",
          "name": "",
          "type": "uint256"
        }
      ],
      "stateMutability": "view",
      "type": "function"
    },
    {
      "inputs": [
        {
          "internalType": "address",
          "name": "_liquidityPool",
          "type": "address"
        },
        {
          "internalType": "address",
          "name": "",
          "type": "address"
        }
      ],
      "name": "getUnderlyingTokens",
      "outputs": [
        {
          "internalType": "address[]",
          "name": "_underlyingTokens",
          "type": "address[]"
        }
      ],
      "stateMutability": "view",
      "type": "function"
    },
    {
      "inputs": [
        {
          "internalType": "address payable",
          "name": "_vault",
          "type": "address"
        },
        {
          "internalType": "address",
          "name": "_underlyingToken",
          "type": "address"
        },
        {
          "internalType": "address",
          "name": "_liquidityPool",
          "type": "address"
        }
      ],
      "name": "getWithdrawAllCodes",
      "outputs": [
        {
          "internalType": "bytes[]",
          "name": "_codes",
          "type": "bytes[]"
        }
      ],
      "stateMutability": "view",
      "type": "function"
    },
    {
      "inputs": [
        {
          "internalType": "address payable",
          "name": "_vault",
          "type": "address"
        },
        {
          "internalType": "address",
          "name": "_underlyingToken",
          "type": "address"
        },
        {
          "internalType": "address",
          "name": "_liquidityPool",
          "type": "address"
        },
        {
          "internalType": "uint256",
          "name": "_shares",
          "type": "uint256"
        }
      ],
      "name": "getWithdrawSomeCodes",
      "outputs": [
        {
          "internalType": "bytes[]",
          "name": "_codes",
          "type": "bytes[]"
        }
      ],
      "stateMutability": "view",
      "type": "function"
    },
    {
      "inputs": [
        {
          "internalType": "address payable",
          "name": "_vault",
          "type": "address"
        },
        {
          "internalType": "address",
          "name": "_underlyingToken",
          "type": "address"
        },
        {
          "internalType": "address",
          "name": "_liquidityPool",
          "type": "address"
        },
        {
          "internalType": "uint256",
          "name": "_redeemAmount",
          "type": "uint256"
        }
      ],
      "name": "isRedeemableAmountSufficient",
      "outputs": [
        {
          "internalType": "bool",
          "name": "",
          "type": "bool"
        }
      ],
      "stateMutability": "view",
      "type": "function"
    },
    {
      "inputs": [
        {
          "internalType": "address",
          "name": "",
          "type": "address"
        }
      ],
      "name": "liquidityPoolToTolerance",
      "outputs": [
        {
          "internalType": "uint256",
          "name": "",
          "type": "uint256"
        }
      ],
      "stateMutability": "view",
      "type": "function"
    },
    {
      "inputs": [
        {
          "internalType": "address",
          "name": "",
          "type": "address"
        },
        {
          "internalType": "address",
          "name": "",
          "type": "address"
        }
      ],
      "name": "liquidityPoolToWantTokenToSlippage",
      "outputs": [
        {
          "internalType": "uint256",
          "name": "",
          "type": "uint256"
        }
      ],
      "stateMutability": "view",
      "type": "function"
    },
    {
      "inputs": [
        {
          "internalType": "address",
          "name": "",
          "type": "address"
        },
        {
          "internalType": "address",
          "name": "",
          "type": "address"
        }
      ],
      "name": "maxDepositAmount",
      "outputs": [
        {
          "internalType": "uint256",
          "name": "",
          "type": "uint256"
        }
      ],
      "stateMutability": "view",
      "type": "function"
    },
    {
      "inputs": [
        {
          "internalType": "address",
          "name": "",
          "type": "address"
        }
      ],
      "name": "maxDepositPoolPct",
      "outputs": [
        {
          "internalType": "uint256",
          "name": "",
          "type": "uint256"
        }
      ],
      "stateMutability": "view",
      "type": "function"
    },
    {
      "inputs": [],
      "name": "maxDepositProtocolMode",
      "outputs": [
        {
          "internalType": "enum MaxExposure",
          "name": "",
          "type": "uint8"
        }
      ],
      "stateMutability": "view",
      "type": "function"
    },
    {
      "inputs": [],
      "name": "maxDepositProtocolPct",
      "outputs": [
        {
          "internalType": "uint256",
          "name": "",
          "type": "uint256"
        }
      ],
      "stateMutability": "view",
      "type": "function"
    },
    {
      "inputs": [],
      "name": "optyFiOracle",
      "outputs": [
        {
          "internalType": "contract IOptyFiOracle",
          "name": "",
          "type": "address"
        }
      ],
      "stateMutability": "view",
      "type": "function"
    },
    {
      "inputs": [],
      "name": "registryContract",
      "outputs": [
        {
          "internalType": "contract IAdapterRegistryBase",
          "name": "",
          "type": "address"
        }
      ],
      "stateMutability": "view",
      "type": "function"
    },
    {
      "inputs": [
        {
          "components": [
            {
              "internalType": "address",
              "name": "liquidityPool",
              "type": "address"
            },
            {
              "internalType": "uint256",
              "name": "tolerance",
              "type": "uint256"
            }
          ],
          "internalType": "struct SushiswapPoolAdapterEthereum.Tolerance[]",
          "name": "_tolerances",
          "type": "tuple[]"
        }
      ],
      "name": "setLiquidityPoolToTolerance",
      "outputs": [],
      "stateMutability": "nonpayable",
      "type": "function"
    },
    {
      "inputs": [
        {
          "components": [
            {
              "internalType": "address",
              "name": "liquidityPool",
              "type": "address"
            },
            {
              "internalType": "address",
              "name": "wantToken",
              "type": "address"
            },
            {
              "internalType": "uint256",
              "name": "slippage",
              "type": "uint256"
            }
          ],
          "internalType": "struct SushiswapPoolAdapterEthereum.Slippage[]",
          "name": "_slippages",
          "type": "tuple[]"
        }
      ],
      "name": "setLiquidityPoolToWantTokenToSlippage",
      "outputs": [],
      "stateMutability": "nonpayable",
      "type": "function"
    },
    {
      "inputs": [
        {
          "internalType": "address",
          "name": "_liquidityPool",
          "type": "address"
        },
        {
          "internalType": "address",
          "name": "_underlyingToken",
          "type": "address"
        },
        {
          "internalType": "uint256",
          "name": "_maxDepositAmount",
          "type": "uint256"
        }
      ],
      "name": "setMaxDepositAmount",
      "outputs": [],
      "stateMutability": "nonpayable",
      "type": "function"
    },
    {
      "inputs": [
        {
          "internalType": "address",
          "name": "_liquidityPool",
          "type": "address"
        },
        {
          "internalType": "uint256",
          "name": "_maxDepositPoolPct",
          "type": "uint256"
        }
      ],
      "name": "setMaxDepositPoolPct",
      "outputs": [],
      "stateMutability": "nonpayable",
      "type": "function"
    },
    {
      "inputs": [
        {
          "internalType": "enum MaxExposure",
          "name": "_mode",
          "type": "uint8"
        }
      ],
      "name": "setMaxDepositProtocolMode",
      "outputs": [],
      "stateMutability": "nonpayable",
      "type": "function"
    },
    {
      "inputs": [
        {
          "internalType": "uint256",
          "name": "_maxDepositProtocolPct",
          "type": "uint256"
        }
      ],
      "name": "setMaxDepositProtocolPct",
      "outputs": [],
      "stateMutability": "nonpayable",
      "type": "function"
    },
    {
      "inputs": [
        {
          "internalType": "address",
          "name": "_optyFiOracle",
          "type": "address"
        }
      ],
      "name": "setOptyFiOracle",
      "outputs": [],
      "stateMutability": "nonpayable",
      "type": "function"
    },
    {
      "inputs": [
        {
          "internalType": "address",
          "name": "_registry",
          "type": "address"
        }
      ],
      "name": "setRegistry",
      "outputs": [],
      "stateMutability": "nonpayable",
      "type": "function"
    },
    {
      "inputs": [],
      "name": "sushiswapFactory",
      "outputs": [
        {
          "internalType": "contract IUniswapV2Factory",
          "name": "",
          "type": "address"
        }
      ],
      "stateMutability": "view",
      "type": "function"
    },
    {
      "inputs": [],
      "name": "sushiswapRouter",
      "outputs": [
        {
          "internalType": "contract IUniswapV2Router02",
          "name": "",
          "type": "address"
        }
      ],
      "stateMutability": "view",
      "type": "function"
    }
  ],
  "transactionHash": "0x63acdf3f478916e233c23be4603207a1ee7e4ab395c02f65158b10f4f19fd885",
  "args": [
    "0x99fa011e33a8c6196869dec7bc407e896ba67fe3",
    "0xf34bf99d10AA7993D43588D6dD916dFB3ff33123"
  ],
  "bytecode": "0x60806040523480156200001157600080fd5b506040516200382a3803806200382a833981016040819052620000349162000286565b600080546001600160a01b039384166001600160a01b03199182161782556127106002556003805460ff1916600190811790915580549390941692169190911790915560647ff2f3ed629113ac4845ca2cfa0a5f3eb0123aa9c38ee748ed335ae692209e2c158190557f39d1e37ea70264cef389e0d5b1dca46bbb9cf0258875271473556030e81c4d388190557ff9fc640ef1a9ee56ca6bb3115c4716ef08a9b39c6552311b7cf16829175721138190557fea862008476ff65899f2af79242c6f766afbfdc53c1ea93d869ff86bd9b6d6bd8190557f07dfaabaacfea4ee960f4924ccbf22820818d10253574df396c5fc48f748cedb8190557f2c49d905edf3d0196f5d48d613c92e949e0fa8fe28ae06964e23448f3ba4ad1a8190557f3e3b030350ef739c2c8fba09af3ff1289d72df7d73549ca80fd567011162dee78190557f1adcc57dd142fd3df3b3fc3853f352d6d5a8cbeab4fc7e2ee5bb19a4d0b6b6198190557fc82a75db2d40bf6ab9714a04610352063f9fd71f8c7015e66a0a2f76d55a2e8f8190557fdcf9c29792f524e03f0e7df6d9215cc042a0ade4fb046ffbf1cb5c5c0d9e6a448190557fdb095db99a96f520ed0fd27746c309ddc800ee5e5e4bd50b1dbfb5bd2a15d0df81905573c02aaa39b223fe8d0a0e5c4f27ead9083c756cc29091527fb31b0d354a9be5154a1f6c7eb7e8492731a27d886edd2525d924eac83d189f0b6020527f3cfc8f6e3dd134ac8a9746b877eb3fa72a1dd50bb76485e1cb29252f7dd1333655620002be565b80516001600160a01b03811681146200028157600080fd5b919050565b600080604083850312156200029a57600080fd5b620002a58362000269565b9150620002b56020840162000269565b90509250929050565b61355c80620002ce6000396000f3fe608060405234801561001057600080fd5b50600436106102745760003560e01c806385541e4411610151578063da699f96116100c3578063e9240c2d11610087578063e9240c2d1461061e578063ecb4279514610633578063ee665bed1461064e578063ef856be914610661578063f1aacbb714610681578063f49307ca1461069457600080fd5b8063da699f96146105b7578063df147b3b146105ca578063df935722146105dd578063e40a299a146105f0578063e49d5ecc1461060b57600080fd5b8063ab560e1011610115578063ab560e1014610520578063ad5c46481461053b578063c54e44eb14610556578063cd07801214610571578063d74baaf814610591578063d9947711146105a457600080fd5b806385541e44146104cb57806390e61605146104de578063918f8674146104f1578063919b69d7146104fa578063a91ee0dc1461050d57600080fd5b806336d8bf93116101ea578063501070be116101ae578063501070be1461044e578063609257791461046957806364dd5f801461047c5780637528e3ab1461048f57806377078872146104aa5780637c47b3f4146104b857600080fd5b806336d8bf93146103bc578063489b5295146103e057806348ccda3c146104005780634ad36e021461041b5780634f83b52d1461042e57600080fd5b80632336fb411161023c5780632336fb4114610323578063275032901461034e57806328c1f99b146103615780632af06b96146103745780632de778381461038e5780633600e32a146103a157600080fd5b8063027a304d14610279578063180f7ad2146102b7578063191c194b146102cc578063194cbe7b146102d55780631b5d145d14610308575b600080fd5b6102a4610287366004612e3f565b600460209081526000928352604080842090915290825290205481565b6040519081526020015b60405180910390f35b6102ca6102c5366004612e78565b6106a7565b005b6102a460025481565b6102f073d75ea151a61d06868e31f8988d28dfe5e9df57b481565b6040516001600160a01b0390911681526020016102ae565b6102f0734d224452801aced8b2f0aebe155379bb5d59438181565b6102a4610331366004612e3f565b600760209081526000928352604080842090915290825290205481565b6102ca61035c366004612eed565b6107db565b6000546102f0906001600160a01b031681565b6003546103819060ff1681565b6040516102ae9190612f20565b6102a461039c366004612e3f565b6108d2565b6102f073795065dcc9f64b5614c407a6efdc400da6221fb081565b6103d06103ca366004612eed565b50600090565b60405190151581526020016102ae565b6103f36103ee366004612f48565b610954565b6040516102ae9190612fe0565b6102f0737fc66500c84a76ad7e9c93437bfc5ac33e2ddae981565b6102a4610429366004613042565b6109dd565b6102a461043c366004612eed565b60056020526000908152604090205481565b6102f073c0aee478e3658e2610c5f7a4a2e1777ce9e4f2ac81565b6103f3610477366004613042565b610a29565b6102a461048a366004612f48565b6110cd565b6102f0731bec4db6c3bc499f3dbf289f5499c30d541fec9781565b6102f06103ca366004612eed565b6102ca6104c6366004613093565b6110df565b6102a46104d93660046130b4565b6111e6565b6102a46104ec366004612f48565b611493565b6102a461271081565b6102ca6105083660046130f5565b611501565b6102ca61051b366004612eed565b6115ef565b6102f0736b3595068778dd592e39a122f4f5a5cf09c90fe281565b6102f073c02aaa39b223fe8d0a0e5c4f27ead9083c756cc281565b6102f073dac17f958d2ee523a2206206994597c13d831ec781565b6102a461057f366004612eed565b60066020526000908152604090205481565b6102f061059f366004612e3f565b919050565b6001546102f0906001600160a01b031681565b6102ca6105c5366004613121565b61172b565b6102ca6105d836600461313a565b611805565b6103f36105eb366004613042565b611976565b6102f073b27c7b131cf4915bec6c4bc1ce2f33f9ee434b9f81565b6103d0610619366004613042565b611fa1565b6102f060008051602061353083398151915281565b6102f0730f5d2fb29fb7d3cfee444a200298f468908cc94281565b6102a461065c3660046130b4565b611fbc565b61067461066f366004612e3f565b6121b1565b6040516102ae91906131e1565b6102ca61068f3660046130b4565b612301565b6103f36106a2366004612f48565b6123ff565b60008054906101000a90046001600160a01b03166001600160a01b0316637af0e5576040518163ffffffff1660e01b8152600401602060405180830381865afa1580156106f8573d6000803e3d6000fd5b505050506040513d601f19601f8201168201806040525081019061071c91906131f4565b6001600160a01b0316336001600160a01b0316146107555760405162461bcd60e51b815260040161074c90613211565b60405180910390fd5b8060005b818110156107d55783838281811061077357610773613248565b905060400201602001356006600086868581811061079357610793613248565b6107a99260206040909202019081019150612eed565b6001600160a01b03168152602081019190915260400160002055806107cd81613274565b915050610759565b50505050565b60008054906101000a90046001600160a01b03166001600160a01b031663e7f43c686040518163ffffffff1660e01b8152600401602060405180830381865afa15801561082c573d6000803e3d6000fd5b505050506040513d601f19601f8201168201806040525081019061085091906131f4565b6001600160a01b0316336001600160a01b0316146108b05760405162461bcd60e51b815260206004820152601a60248201527f63616c6c6572206973206e6f7420746865206f70657261746f72000000000000604482015260640161074c565b600180546001600160a01b0319166001600160a01b0392909216919091179055565b6040516370a0823160e01b81526001600160a01b038381166004830152600091908316906370a0823190602401602060405180830381865afa15801561091c573d6000803e3d6000fd5b505050506040513d601f19601f82011682018060405250810190610940919061328f565b61094b9060026132a8565b90505b92915050565b6040516370a0823160e01b81526001600160a01b0384811660048301526060916000918516906370a0823190602401602060405180830381865afa1580156109a0573d6000803e3d6000fd5b505050506040513d601f19601f820116820180604052508101906109c4919061328f565b90506109d285858584611976565b9150505b9392505050565b6000806109eb868686611493565b905060006109fa8787876110cd565b905080610a0785846132a8565b610a1191906132c7565b610a1c9060016132e9565b925050505b949350505050565b60608115610a215760408051600680825260e0820190925290816020015b6060815260200190600190039081610a4757905050604051600080516020613530833981519152602482015260006044820152909150839060640160408051601f19818403018152918152602080830180516001600160e01b031663095ea7b360e01b1790529051610abb93929101613301565b60405160208183030381529060405281600081518110610add57610add613248565b6020908102919091010152604051600080516020613530833981519152602482015260448101839052839060640160408051601f19818403018152918152602080830180516001600160e01b031663095ea7b360e01b1790529051610b4493929101613301565b60405160208183030381529060405281600181518110610b6657610b66613248565b60200260200101819052506000806000856001600160a01b031663d21220a76040518163ffffffff1660e01b8152600401602060405180830381865afa158015610bb4573d6000803e3d6000fd5b505050506040513d601f19601f82011682018060405250810190610bd891906131f4565b9050600080876001600160a01b0316630902f1ac6040518163ffffffff1660e01b8152600401606060405180830381865afa158015610c1b573d6000803e3d6000fd5b505050506040513d601f19601f82011682018060405250810190610c3f919061333c565b506001600160701b031691506001600160701b031691506000610c6389848461241c565b905080610c7089856132a8565b610c7a91906132c7565b955080610c8789846132a8565b610c9191906132c7565b9450896001600160a01b0316846001600160a01b03161415610d1f5760408051630dfe168160e01b815290519596959293926001600160a01b038b1691630dfe16819160048083019260209291908290030181865afa158015610cf8573d6000803e3d6000fd5b505050506040513d601f19601f82011682018060405250810190610d1c91906131f4565b93505b610d2c8a8585858d61260a565b506000805160206135308339815191528984896064610d4c8a60636132a8565b610d5691906132c7565b6064610d638a60636132a8565b610d6d91906132c7565b6040516001600160a01b03958616602482015293851660448501526064840192909252608483015260a4820152908c1660c482015260001960e48201526101040160408051601f19818403018152918152602080830180516001600160e01b0316635d5155ef60e11b1790529051610de793929101613301565b60405160208183030381529060405286600281518110610e0957610e09613248565b6020908102919091010152604051600080516020613530833981519152602482015260006044820152839060640160408051601f19818403018152918152602080830180516001600160e01b031663095ea7b360e01b1790529051610e7093929101613301565b60405160208183030381529060405286600381518110610e9257610e92613248565b6020908102919091010152604051600080516020613530833981519152602482015260448101859052839060640160408051601f19818403018152918152602080830180516001600160e01b031663095ea7b360e01b1790529051610ef993929101613301565b60405160208183030381529060405286600481518110610f1b57610f1b613248565b6020908102919091010152604080516002808252606082019092526000918160200160208202803683370190505090508381600081518110610f5f57610f5f613248565b60200260200101906001600160a01b031690816001600160a01b0316815250508981600181518110610f9357610f93613248565b60200260200101906001600160a01b031690816001600160a01b0316815250506000610fc086868d6128b4565b905060008051602061353083398151915286612710600760008e6001600160a01b03166001600160a01b0316815260200190815260200160002060008f6001600160a01b03166001600160a01b031681526020019081526020016000205461271061102b9190613381565b61103591906132c7565b61103f90846132a8565b848f600019604051602401611058959493929190613398565b60408051601f19818403018152918152602080830180516001600160e01b03166338ed173960e01b179052905161109193929101613301565b604051602081830303815290604052886005815181106110b3576110b3613248565b602002602001018190525050505050505050949350505050565b6000610a21838361065c878787611493565b60008054906101000a90046001600160a01b03166001600160a01b0316637af0e5576040518163ffffffff1660e01b8152600401602060405180830381865afa158015611130573d6000803e3d6000fd5b505050506040513d601f19601f8201168201806040525081019061115491906131f4565b6001600160a01b0316336001600160a01b0316146111845760405162461bcd60e51b815260040161074c90613211565b6003805482919060ff1916600183818111156111a2576111a2612f0a565b0217905550338160018111156111ba576111ba612f0a565b6040517f68e3b01155b193b02181f2c0ed491c934a74348d211ff023f8fc6ac5edf22aa090600090a350565b6000806000846001600160a01b0316630902f1ac6040518163ffffffff1660e01b8152600401606060405180830381865afa158015611229573d6000803e3d6000fd5b505050506040513d601f19601f8201168201806040525081019061124d919061333c565b506001600160701b031691506001600160701b031691506000856001600160a01b0316630dfe16816040518163ffffffff1660e01b8152600401602060405180830381865afa1580156112a4573d6000803e3d6000fd5b505050506040513d601f19601f820116820180604052508101906112c891906131f4565b90506000866001600160a01b031663d21220a76040518163ffffffff1660e01b8152600401602060405180830381865afa15801561130a573d6000803e3d6000fd5b505050506040513d601f19601f8201168201806040525081019061132e91906131f4565b9050876001600160a01b0316876001600160a01b0316630dfe16816040518163ffffffff1660e01b8152600401602060405180830381865afa158015611378573d6000803e3d6000fd5b505050506040513d601f19601f8201168201806040525081019061139c91906131f4565b6001600160a01b0316146113af57919291905b6113bc828286868b61260a565b60006113c88588612a85565b905060006113d7828787612adb565b90506113e382876132e9565b95506113ef8186613381565b945060006113fe8a888861241c565b9050600061140c848b613381565b9050600061141b828a8a612baf565b90508381111561143557508261143281898b612baf565b91505b60008961144285856132a8565b61144c91906132c7565b90508861145985846132a8565b61146391906132c7565b811115611482578861147585846132a8565b61147f91906132c7565b90505b9d9c50505050505050505050505050565b6040516370a0823160e01b81526001600160a01b038481166004830152600091908316906370a0823190602401602060405180830381865afa1580156114dd573d6000803e3d6000fd5b505050506040513d601f19601f82011682018060405250810190610a21919061328f565b60008054906101000a90046001600160a01b03166001600160a01b0316637af0e5576040518163ffffffff1660e01b8152600401602060405180830381865afa158015611552573d6000803e3d6000fd5b505050506040513d601f19601f8201168201806040525081019061157691906131f4565b6001600160a01b0316336001600160a01b0316146115a65760405162461bcd60e51b815260040161074c90613211565b6001600160a01b03821660009081526005602052604080822083905551339183917fac58e29a41d996caca756d050dce90806b277f0c939337653638329247e16f4c9190a35050565b60008054906101000a90046001600160a01b03166001600160a01b031663e7f43c686040518163ffffffff1660e01b8152600401602060405180830381865afa158015611640573d6000803e3d6000fd5b505050506040513d601f19601f8201168201806040525081019061166491906131f4565b6001600160a01b0316336001600160a01b0316146116c45760405162461bcd60e51b815260206004820152601a60248201527f63616c6c6572206973206e6f7420746865206f70657261746f72000000000000604482015260640161074c565b6001600160a01b0381163b6117095760405162461bcd60e51b815260206004820152600b60248201526a085a5cd0dbdb9d1c9858dd60aa1b604482015260640161074c565b600080546001600160a01b0319166001600160a01b0392909216919091179055565b60008054906101000a90046001600160a01b03166001600160a01b0316637af0e5576040518163ffffffff1660e01b8152600401602060405180830381865afa15801561177c573d6000803e3d6000fd5b505050506040513d601f19601f820116820180604052508101906117a091906131f4565b6001600160a01b0316336001600160a01b0316146117d05760405162461bcd60e51b815260040161074c90613211565b6002819055604051339082907f19c60b0612798cc65bd298cd47e17d9fd07e74e0d3baa6c0019411bb334d9bda90600090a350565b60008054906101000a90046001600160a01b03166001600160a01b0316637af0e5576040518163ffffffff1660e01b8152600401602060405180830381865afa158015611856573d6000803e3d6000fd5b505050506040513d601f19601f8201168201806040525081019061187a91906131f4565b6001600160a01b0316336001600160a01b0316146118aa5760405162461bcd60e51b815260040161074c90613211565b8060005b818110156107d5578383828181106118c8576118c8613248565b90506060020160400135600760008686858181106118e8576118e8613248565b6118fe9260206060909202019081019150612eed565b6001600160a01b03166001600160a01b03168152602001908152602001600020600086868581811061193257611932613248565b905060600201602001602081019061194a9190612eed565b6001600160a01b031681526020810191909152604001600020558061196e81613274565b9150506118ae565b6060611983848484612c4f565b91508115610a215760408051600680825260e0820190925290816020015b60608152602001906001900390816119a157905050604051600080516020613530833981519152602482015260006044820152909150849060640160408051601f19818403018152918152602080830180516001600160e01b031663095ea7b360e01b1790529051611a1593929101613301565b60405160208183030381529060405281600081518110611a3757611a37613248565b60200260200101819052506000806000806000876001600160a01b0316630902f1ac6040518163ffffffff1660e01b8152600401606060405180830381865afa158015611a88573d6000803e3d6000fd5b505050506040513d601f19601f82011682018060405250810190611aac919061333c565b506001600160701b031691506001600160701b03169150876001600160a01b031663d21220a76040518163ffffffff1660e01b8152600401602060405180830381865afa158015611b01573d6000803e3d6000fd5b505050506040513d601f19601f82011682018060405250810190611b2591906131f4565b9450886001600160a01b0316856001600160a01b03161415611bb05760408051630dfe168160e01b815290519192916001600160a01b038a1691630dfe16819160048083019260209291908290030181865afa158015611b89573d6000803e3d6000fd5b505050506040513d601f19601f82011682018060405250810190611bad91906131f4565b94505b611bbd898684848c61260a565b611bc78288612a85565b9350611bd4848a876128b4565b604051600080516020613530833981519152602482015260448101899052909350899250606401905060408051601f19818403018152918152602080830180516001600160e01b031663095ea7b360e01b1790529051611c3693929101613301565b60405160208183030381529060405284600181518110611c5857611c58613248565b6020908102919091010152604080516002808252606082019092526000918160200160208202803683370190505090508781600081518110611c9c57611c9c613248565b60200260200101906001600160a01b031690816001600160a01b0316815250508381600181518110611cd057611cd0613248565b6001600160a01b039283166020918202929092018101919091528882166000908152600782526040808220938816825292909152205460008051602061353083398151915290849061271090611d269082613381565b611d3091906132c7565b611d3a90856132a8565b838c600019604051602401611d53959493929190613398565b60408051601f19818403018152918152602080830180516001600160e01b03166338ed173960e01b1790529051611d8c93929101613301565b60405160208183030381529060405285600281518110611dae57611dae613248565b6020908102919091010152604051600080516020613530833981519152602482015260006044820152849060640160408051601f19818403018152918152602080830180516001600160e01b031663095ea7b360e01b1790529051611e1593929101613301565b60405160208183030381529060405285600381518110611e3757611e37613248565b6020908102919091010152604051600080516020613530833981519152602482015260448101839052849060640160408051601f19818403018152918152602080830180516001600160e01b031663095ea7b360e01b1790529051611e9e93929101613301565b60405160208183030381529060405285600481518110611ec057611ec0613248565b60209081029190910101526000805160206135308339815191528885611ee6868a613381565b6040516001600160a01b0393841660248201529183166044830152606482015260848101859052600060a4820181905260c4820152908b1660e48201526000196101048201526101240160408051601f19818403018152918152602080830180516001600160e01b031662e8e33760e81b1790529051611f6893929101613301565b60405160208183030381529060405285600581518110611f8a57611f8a613248565b602002602001018190525050505050949350505050565b600080611faf8686866110cd565b9092111595945050505050565b6000806000846001600160a01b0316630902f1ac6040518163ffffffff1660e01b8152600401606060405180830381865afa158015611fff573d6000803e3d6000fd5b505050506040513d601f19601f82011682018060405250810190612023919061333c565b506001600160701b031691506001600160701b03169150600061204786848461241c565b90506000866001600160a01b031663d21220a76040518163ffffffff1660e01b8152600401602060405180830381865afa158015612089573d6000803e3d6000fd5b505050506040513d601f19601f820116820180604052508101906120ad91906131f4565b9050876001600160a01b0316816001600160a01b031614156121385760408051630dfe168160e01b815290519394936001600160a01b03891691630dfe16819160048083019260209291908290030181865afa158015612111573d6000803e3d6000fd5b505050506040513d601f19601f8201168201806040525081019061213591906131f4565b90505b612145888286868b61260a565b60008261215288876132a8565b61215c91906132c7565b905060008361216b89876132a8565b61217591906132c7565b90506000612196826121878189613381565b612191868b613381565b612adb565b90506121a281846132e9565b9b9a5050505050505050505050565b6040805160028082526060808301845292602083019080368337019050509050826001600160a01b0316630dfe16816040518163ffffffff1660e01b8152600401602060405180830381865afa15801561220f573d6000803e3d6000fd5b505050506040513d601f19601f8201168201806040525081019061223391906131f4565b8160008151811061224657612246613248565b60200260200101906001600160a01b031690816001600160a01b031681525050826001600160a01b031663d21220a76040518163ffffffff1660e01b8152600401602060405180830381865afa1580156122a4573d6000803e3d6000fd5b505050506040513d601f19601f820116820180604052508101906122c891906131f4565b816001815181106122db576122db613248565b60200260200101906001600160a01b031690816001600160a01b03168152505092915050565b60008054906101000a90046001600160a01b03166001600160a01b0316637af0e5576040518163ffffffff1660e01b8152600401602060405180830381865afa158015612352573d6000803e3d6000fd5b505050506040513d601f19601f8201168201806040525081019061237691906131f4565b6001600160a01b0316336001600160a01b0316146123a65760405162461bcd60e51b815260040161074c90613211565b6001600160a01b03808416600090815260046020908152604080832093861683529290528181208390559051339183917f197807a6a2633dd9bde6550aca985cfc69e655e9130930314c0e9da01a75cc549190a3505050565b6060600061240e858585611493565b90506109d285858584610a29565b6000836001600160a01b03166318160ddd6040518163ffffffff1660e01b8152600401602060405180830381865afa15801561245c573d6000803e3d6000fd5b505050506040513d601f19601f82011682018060405250810190612480919061328f565b905060006001600160a01b031673c0aee478e3658e2610c5f7a4a2e1777ce9e4f2ac6001600160a01b031663017e7e586040518163ffffffff1660e01b8152600401602060405180830381865afa1580156124df573d6000803e3d6000fd5b505050506040513d601f19601f8201168201806040525081019061250391906131f4565b6001600160a01b0316146109d6576000846001600160a01b0316637464fc3d6040518163ffffffff1660e01b8152600401602060405180830381865afa158015612551573d6000803e3d6000fd5b505050506040513d601f19601f82011682018060405250810190612575919061328f565b9050801561260257600061259161258c85876132a8565b612db8565b9050600061259e83612db8565b9050808211156125ff5760006125b48284613381565b6125be90866132a8565b90506000826125ce8560056132a8565b6125d891906132e9565b905060006125e682846132c7565b905080156125fb576125f881886132e9565b96505b5050505b50505b509392505050565b60015460405163057d4cc360e51b81526001600160a01b0387811660048301528681166024830152600092169063afa9986090604401602060405180830381865afa15801561265d573d6000803e3d6000fd5b505050506040513d601f19601f82011682018060405250810190612681919061328f565b9050600081116126bc5760405162461bcd60e51b815260206004820152600660248201526521707269636560d01b604482015260640161074c565b6000866001600160a01b031663313ce5676040518163ffffffff1660e01b8152600401602060405180830381865afa1580156126fc573d6000803e3d6000fd5b505050506040513d601f19601f8201168201806040525081019061272091906133d4565b60ff1690506000866001600160a01b031663313ce5676040518163ffffffff1660e01b8152600401602060405180830381865afa158015612765573d6000803e3d6000fd5b505050506040513d601f19601f8201168201806040525081019061278991906133d4565b60ff169050600061279b836012613381565b6127a690600a6134db565b6127b090886132a8565b6127bb836024613381565b6127c690600a6134db565b6127d090886132a8565b6127da91906132c7565b6001600160a01b038616600090815260066020526040812054919250906127109061280590826132e9565b61280f90876132a8565b61281991906132c7565b6001600160a01b03871660009081526006602052604081205491925090612710906128449082613381565b61284e90886132a8565b61285891906132c7565b9050818310801561286857508083115b6128a75760405162461bcd60e51b815260206004820152601060248201526f085a5b58985b185b98d959081c1bdbdb60821b604482015260640161074c565b5050505050505050505050565b60015460405163057d4cc360e51b81526001600160a01b0384811660048301528381166024830152600092839291169063afa9986090604401602060405180830381865afa15801561290a573d6000803e3d6000fd5b505050506040513d601f19601f8201168201806040525081019061292e919061328f565b9050600081116129695760405162461bcd60e51b815260206004820152600660248201526521707269636560d01b604482015260640161074c565b6000846001600160a01b031663313ce5676040518163ffffffff1660e01b8152600401602060405180830381865afa1580156129a9573d6000803e3d6000fd5b505050506040513d601f19601f820116820180604052508101906129cd91906133d4565b60ff1690506000846001600160a01b031663313ce5676040518163ffffffff1660e01b8152600401602060405180830381865afa158015612a12573d6000803e3d6000fd5b505050506040513d601f19601f82011682018060405250810190612a3691906133d4565b60ff169050612a468260126132e9565b612a5190600a6134db565b612a5c82600a6134db565b612a66858a6132a8565b612a7091906132a8565b612a7a91906132c7565b979650505050505050565b60006107ca612a96846107cd6132a8565b612ac7612aa686623cda296132a8565b612ab386623cda206132a8565b612abd91906132e9565b61258c90876132a8565b612ad19190613381565b61094b91906132c7565b6000808411612b405760405162461bcd60e51b815260206004820152602b60248201527f556e697377617056324c6962726172793a20494e53554646494349454e545f4960448201526a1394155517d05353d5539560aa1b606482015260840161074c565b600083118015612b505750600082115b612b6c5760405162461bcd60e51b815260040161074c906134e7565b6000612b7a856103e56132a8565b90506000612b8884836132a8565b9050600082612b99876103e86132a8565b612ba391906132e9565b9050612a7a81836132c7565b6000808411612c0e5760405162461bcd60e51b815260206004820152602560248201527f556e697377617056324c6962726172793a20494e53554646494349454e545f416044820152641353d5539560da1b606482015260840161074c565b600083118015612c1e5750600082115b612c3a5760405162461bcd60e51b815260040161074c906134e7565b82612c4583866132a8565b610a2191906132c7565b60008060035460ff166001811115612c6957612c69612f0a565b1415612ccf576001600160a01b03808416600090815260046020908152604080832093881683529290522054821115612cc857506001600160a01b038083166000908152600460209081526040808320938716835292905220546109d6565b50806109d6565b6000612cdb84866108d2565b6001600160a01b03851660009081526005602052604090205490915015612d74576001600160a01b03841660009081526005602052604090205461271090612d2390836132a8565b612d2d91906132c7565b831115612d6c576001600160a01b03841660009081526005602052604090205461271090612d5b90836132a8565b612d6591906132c7565b9150612602565b829150612602565b600254156126025761271060025482612d8d91906132a8565b612d9791906132c7565b831115612daf5761271060025482612d5b91906132a8565b50909392505050565b60006003821115612e195750806000612dd26002836132c7565b612ddd9060016132e9565b90505b81811015612e1357905080600281612df881866132c7565b612e0291906132e9565b612e0c91906132c7565b9050612de0565b50919050565b811561059f57506001919050565b6001600160a01b0381168114612e3c57600080fd5b50565b60008060408385031215612e5257600080fd5b8235612e5d81612e27565b91506020830135612e6d81612e27565b809150509250929050565b60008060208385031215612e8b57600080fd5b823567ffffffffffffffff80821115612ea357600080fd5b818501915085601f830112612eb757600080fd5b813581811115612ec657600080fd5b8660208260061b8501011115612edb57600080fd5b60209290920196919550909350505050565b600060208284031215612eff57600080fd5b81356109d681612e27565b634e487b7160e01b600052602160045260246000fd5b6020810160028310612f4257634e487b7160e01b600052602160045260246000fd5b91905290565b600080600060608486031215612f5d57600080fd5b8335612f6881612e27565b92506020840135612f7881612e27565b91506040840135612f8881612e27565b809150509250925092565b6000815180845260005b81811015612fb957602081850181015186830182015201612f9d565b81811115612fcb576000602083870101525b50601f01601f19169290920160200192915050565b6000602080830181845280855180835260408601915060408160051b870101925083870160005b8281101561303557603f19888603018452613023858351612f93565b94509285019290850190600101613007565b5092979650505050505050565b6000806000806080858703121561305857600080fd5b843561306381612e27565b9350602085013561307381612e27565b9250604085013561308381612e27565b9396929550929360600135925050565b6000602082840312156130a557600080fd5b8135600281106109d657600080fd5b6000806000606084860312156130c957600080fd5b83356130d481612e27565b925060208401356130e481612e27565b929592945050506040919091013590565b6000806040838503121561310857600080fd5b823561311381612e27565b946020939093013593505050565b60006020828403121561313357600080fd5b5035919050565b6000806020838503121561314d57600080fd5b823567ffffffffffffffff8082111561316557600080fd5b818501915085601f83011261317957600080fd5b81358181111561318857600080fd5b866020606083028501011115612edb57600080fd5b600081518084526020808501945080840160005b838110156131d65781516001600160a01b0316875295820195908201906001016131b1565b509495945050505050565b60208152600061094b602083018461319d565b60006020828403121561320657600080fd5b81516109d681612e27565b6020808252601e908201527f63616c6c6572206973206e6f7420746865207269736b4f70657261746f720000604082015260600190565b634e487b7160e01b600052603260045260246000fd5b634e487b7160e01b600052601160045260246000fd5b60006000198214156132885761328861325e565b5060010190565b6000602082840312156132a157600080fd5b5051919050565b60008160001904831182151516156132c2576132c261325e565b500290565b6000826132e457634e487b7160e01b600052601260045260246000fd5b500490565b600082198211156132fc576132fc61325e565b500190565b6001600160a01b0383168152604060208201819052600090610a2190830184612f93565b80516001600160701b038116811461059f57600080fd5b60008060006060848603121561335157600080fd5b61335a84613325565b925061336860208501613325565b9150604084015163ffffffff81168114612f8857600080fd5b6000828210156133935761339361325e565b500390565b85815284602082015260a0604082015260006133b760a083018661319d565b6001600160a01b0394909416606083015250608001529392505050565b6000602082840312156133e657600080fd5b815160ff811681146109d657600080fd5b600181815b808511156134325781600019048211156134185761341861325e565b8085161561342557918102915b93841c93908002906133fc565b509250929050565b6000826134495750600161094e565b816134565750600061094e565b816001811461346c576002811461347657613492565b600191505061094e565b60ff8411156134875761348761325e565b50506001821b61094e565b5060208310610133831016604e8410600b84101617156134b5575081810a61094e565b6134bf83836133f7565b80600019048211156134d3576134d361325e565b029392505050565b600061094b838361343a565b60208082526028908201527f556e697377617056324c6962726172793a20494e53554646494349454e545f4c604082015267495155494449545960c01b60608201526080019056fe000000000000000000000000d9e1ce17f2641f24ae83637ab66a2cca9c378b9fa164736f6c634300080b000a"
}