{
  "address": "0x159ecFB357A407cb62Ef8cF2697a5A66198d9ca7",
  "abi": [
    {
      "inputs": [
        {
          "internalType": "address",
          "name": "_registry",
          "type": "address"
        }
      ],
      "stateMutability": "nonpayable",
      "type": "constructor"
    },
    {
      "anonymous": false,
      "inputs": [
        {
          "indexed": true,
          "internalType": "uint256",
          "name": "maxDepositAmount",
          "type": "uint256"
        },
        {
          "indexed": true,
          "internalType": "address",
          "name": "caller",
          "type": "address"
        }
      ],
      "name": "LogMaxDepositAmount",
      "type": "event"
    },
    {
      "anonymous": false,
      "inputs": [
        {
          "indexed": true,
          "internalType": "uint256",
          "name": "maxDepositPoolPct",
          "type": "uint256"
        },
        {
          "indexed": true,
          "internalType": "address",
          "name": "caller",
          "type": "address"
        }
      ],
      "name": "LogMaxDepositPoolPct",
      "type": "event"
    },
    {
      "anonymous": false,
      "inputs": [
        {
          "indexed": true,
          "internalType": "enum MaxExposure",
          "name": "maxDepositProtocolMode",
          "type": "uint8"
        },
        {
          "indexed": true,
          "internalType": "address",
          "name": "caller",
          "type": "address"
        }
      ],
      "name": "LogMaxDepositProtocolMode",
      "type": "event"
    },
    {
      "anonymous": false,
      "inputs": [
        {
          "indexed": true,
          "internalType": "uint256",
          "name": "maxDepositProtocolPct",
          "type": "uint256"
        },
        {
          "indexed": true,
          "internalType": "address",
          "name": "caller",
          "type": "address"
        }
      ],
      "name": "LogMaxDepositProtocolPct",
      "type": "event"
    },
    {
      "inputs": [],
      "name": "AAVE_WETH",
      "outputs": [
        {
          "internalType": "address",
          "name": "",
          "type": "address"
        }
      ],
      "stateMutability": "view",
      "type": "function"
    },
    {
      "inputs": [],
      "name": "COMP_WETH",
      "outputs": [
        {
          "internalType": "address",
          "name": "",
          "type": "address"
        }
      ],
      "stateMutability": "view",
      "type": "function"
    },
    {
      "inputs": [],
      "name": "DAI_WETH",
      "outputs": [
        {
          "internalType": "address",
          "name": "",
          "type": "address"
        }
      ],
      "stateMutability": "view",
      "type": "function"
    },
    {
      "inputs": [],
      "name": "ILV_WETH",
      "outputs": [
        {
          "internalType": "address",
          "name": "",
          "type": "address"
        }
      ],
      "stateMutability": "view",
      "type": "function"
    },
    {
      "inputs": [],
      "name": "LDO_WETH",
      "outputs": [
        {
          "internalType": "address",
          "name": "",
          "type": "address"
        }
      ],
      "stateMutability": "view",
      "type": "function"
    },
    {
      "inputs": [],
      "name": "LINK_WETH",
      "outputs": [
        {
          "internalType": "address",
          "name": "",
          "type": "address"
        }
      ],
      "stateMutability": "view",
      "type": "function"
    },
    {
      "inputs": [],
      "name": "MANA_WETH",
      "outputs": [
        {
          "internalType": "address",
          "name": "",
          "type": "address"
        }
      ],
      "stateMutability": "view",
      "type": "function"
    },
    {
      "inputs": [],
      "name": "SNX_WETH",
      "outputs": [
        {
          "internalType": "address",
          "name": "",
          "type": "address"
        }
      ],
      "stateMutability": "view",
      "type": "function"
    },
    {
      "inputs": [],
      "name": "SUSHISWAP_ROUTER",
      "outputs": [
        {
          "internalType": "address",
          "name": "",
          "type": "address"
        }
      ],
      "stateMutability": "view",
      "type": "function"
    },
    {
      "inputs": [],
      "name": "SUSHI_WETH",
      "outputs": [
        {
          "internalType": "address",
          "name": "",
          "type": "address"
        }
      ],
      "stateMutability": "view",
      "type": "function"
    },
    {
      "inputs": [],
      "name": "UNI_WETH",
      "outputs": [
        {
          "internalType": "address",
          "name": "",
          "type": "address"
        }
      ],
      "stateMutability": "view",
      "type": "function"
    },
    {
      "inputs": [],
      "name": "USDC_WETH",
      "outputs": [
        {
          "internalType": "address",
          "name": "",
          "type": "address"
        }
      ],
      "stateMutability": "view",
      "type": "function"
    },
    {
      "inputs": [],
      "name": "WBTC_WETH",
      "outputs": [
        {
          "internalType": "address",
          "name": "",
          "type": "address"
        }
      ],
      "stateMutability": "view",
      "type": "function"
    },
    {
      "inputs": [],
      "name": "XSUSHI_WETH",
      "outputs": [
        {
          "internalType": "address",
          "name": "",
          "type": "address"
        }
      ],
      "stateMutability": "view",
      "type": "function"
    },
    {
      "inputs": [
        {
          "internalType": "address",
          "name": "",
          "type": "address"
        },
        {
          "internalType": "address",
          "name": "",
          "type": "address"
        },
        {
          "internalType": "uint256",
          "name": "_amount",
          "type": "uint256"
        }
      ],
      "name": "calculateAmountInLPToken",
      "outputs": [
        {
          "internalType": "uint256",
          "name": "",
          "type": "uint256"
        }
      ],
      "stateMutability": "view",
      "type": "function"
    },
    {
      "inputs": [
        {
          "internalType": "address payable",
          "name": "_vault",
          "type": "address"
        },
        {
          "internalType": "address",
          "name": "_underlyingToken",
          "type": "address"
        },
        {
          "internalType": "address",
          "name": "_masterChef",
          "type": "address"
        },
        {
          "internalType": "uint256",
          "name": "",
          "type": "uint256"
        }
      ],
      "name": "calculateRedeemableLPTokenAmount",
      "outputs": [
        {
          "internalType": "uint256",
          "name": "",
          "type": "uint256"
        }
      ],
      "stateMutability": "view",
      "type": "function"
    },
    {
      "inputs": [
        {
          "internalType": "address",
          "name": "",
          "type": "address"
        }
      ],
      "name": "canStake",
      "outputs": [
        {
          "internalType": "bool",
          "name": "",
          "type": "bool"
        }
      ],
      "stateMutability": "view",
      "type": "function"
    },
    {
      "inputs": [
        {
          "internalType": "address payable",
          "name": "_vault",
          "type": "address"
        },
        {
          "internalType": "address",
          "name": "_underlyingToken",
          "type": "address"
        }
      ],
      "name": "getAddLiquidityCodes",
      "outputs": [
        {
          "internalType": "bytes[]",
          "name": "",
          "type": "bytes[]"
        }
      ],
      "stateMutability": "view",
      "type": "function"
    },
    {
      "inputs": [
        {
          "internalType": "address payable",
          "name": "_vault",
          "type": "address"
        },
        {
          "internalType": "address",
          "name": "_underlyingToken",
          "type": "address"
        },
        {
          "internalType": "address",
          "name": "_masterChef",
          "type": "address"
        }
      ],
      "name": "getAllAmountInToken",
      "outputs": [
        {
          "internalType": "uint256",
          "name": "",
          "type": "uint256"
        }
      ],
      "stateMutability": "view",
      "type": "function"
    },
    {
      "inputs": [
        {
          "internalType": "address payable",
          "name": "",
          "type": "address"
        },
        {
          "internalType": "address",
          "name": "",
          "type": "address"
        }
      ],
      "name": "getClaimRewardTokenCode",
      "outputs": [
        {
          "internalType": "bytes[]",
          "name": "",
          "type": "bytes[]"
        }
      ],
      "stateMutability": "view",
      "type": "function"
    },
    {
      "inputs": [
        {
          "internalType": "address payable",
          "name": "_vault",
          "type": "address"
        },
        {
          "internalType": "address",
          "name": "_underlyingToken",
          "type": "address"
        },
        {
          "internalType": "address",
          "name": "_masterChef",
          "type": "address"
        }
      ],
      "name": "getDepositAllCodes",
      "outputs": [
        {
          "internalType": "bytes[]",
          "name": "",
          "type": "bytes[]"
        }
      ],
      "stateMutability": "view",
      "type": "function"
    },
    {
      "inputs": [
        {
          "internalType": "address payable",
          "name": "",
          "type": "address"
        },
        {
          "internalType": "address",
          "name": "_underlyingToken",
          "type": "address"
        },
        {
          "internalType": "address",
          "name": "_masterChef",
          "type": "address"
        },
        {
          "internalType": "uint256",
          "name": "_amount",
          "type": "uint256"
        }
      ],
      "name": "getDepositSomeCodes",
      "outputs": [
        {
          "internalType": "bytes[]",
          "name": "_codes",
          "type": "bytes[]"
        }
      ],
      "stateMutability": "view",
      "type": "function"
    },
    {
      "inputs": [
        {
          "internalType": "address payable",
          "name": "_vault",
          "type": "address"
        },
        {
          "internalType": "address",
          "name": "_underlyingToken",
          "type": "address"
        },
        {
          "internalType": "address",
          "name": "_masterChef",
          "type": "address"
        }
      ],
      "name": "getHarvestAllCodes",
      "outputs": [
        {
          "internalType": "bytes[]",
          "name": "",
          "type": "bytes[]"
        }
      ],
      "stateMutability": "view",
      "type": "function"
    },
    {
      "inputs": [
        {
          "internalType": "address payable",
          "name": "_vault",
          "type": "address"
        },
        {
          "internalType": "address",
          "name": "_underlyingToken",
          "type": "address"
        },
        {
          "internalType": "address",
          "name": "_masterChef",
          "type": "address"
        },
        {
          "internalType": "uint256",
          "name": "_rewardTokenAmount",
          "type": "uint256"
        }
      ],
      "name": "getHarvestSomeCodes",
      "outputs": [
        {
          "internalType": "bytes[]",
          "name": "",
          "type": "bytes[]"
        }
      ],
      "stateMutability": "view",
      "type": "function"
    },
    {
      "inputs": [
        {
          "internalType": "address",
          "name": "_underlyingToken",
          "type": "address"
        },
        {
          "internalType": "address",
          "name": "",
          "type": "address"
        }
      ],
      "name": "getLiquidityPoolToken",
      "outputs": [
        {
          "internalType": "address",
          "name": "",
          "type": "address"
        }
      ],
      "stateMutability": "view",
      "type": "function"
    },
    {
      "inputs": [
        {
          "internalType": "address payable",
          "name": "_vault",
          "type": "address"
        },
        {
          "internalType": "address",
          "name": "_underlyingToken",
          "type": "address"
        },
        {
          "internalType": "address",
          "name": "_masterChef",
          "type": "address"
        }
      ],
      "name": "getLiquidityPoolTokenBalance",
      "outputs": [
        {
          "internalType": "uint256",
          "name": "",
          "type": "uint256"
        }
      ],
      "stateMutability": "view",
      "type": "function"
    },
    {
      "inputs": [
        {
          "internalType": "address",
          "name": "_masterChef",
          "type": "address"
        },
        {
          "internalType": "address",
          "name": "_underlyingToken",
          "type": "address"
        }
      ],
      "name": "getPoolValue",
      "outputs": [
        {
          "internalType": "uint256",
          "name": "",
          "type": "uint256"
        }
      ],
      "stateMutability": "view",
      "type": "function"
    },
    {
      "inputs": [
        {
          "internalType": "address",
          "name": "_masterChef",
          "type": "address"
        }
      ],
      "name": "getRewardToken",
      "outputs": [
        {
          "internalType": "address",
          "name": "",
          "type": "address"
        }
      ],
      "stateMutability": "view",
      "type": "function"
    },
    {
      "inputs": [
        {
          "internalType": "address",
          "name": "",
          "type": "address"
        },
        {
          "internalType": "address",
          "name": "",
          "type": "address"
        },
        {
          "internalType": "uint256",
          "name": "_amount",
          "type": "uint256"
        }
      ],
      "name": "getSomeAmountInToken",
      "outputs": [
        {
          "internalType": "uint256",
          "name": "",
          "type": "uint256"
        }
      ],
      "stateMutability": "view",
      "type": "function"
    },
    {
      "inputs": [
        {
          "internalType": "address payable",
          "name": "_vault",
          "type": "address"
        },
        {
          "internalType": "address",
          "name": "_masterChef",
          "type": "address"
        },
        {
          "internalType": "address",
          "name": "_underlyingToken",
          "type": "address"
        }
      ],
      "name": "getUnclaimedRewardTokenAmount",
      "outputs": [
        {
          "internalType": "uint256",
          "name": "",
          "type": "uint256"
        }
      ],
      "stateMutability": "view",
      "type": "function"
    },
    {
      "inputs": [
        {
          "internalType": "address",
          "name": "",
          "type": "address"
        },
        {
          "internalType": "address",
          "name": "",
          "type": "address"
        }
      ],
      "name": "getUnderlyingTokens",
      "outputs": [
        {
          "internalType": "address[]",
          "name": "",
          "type": "address[]"
        }
      ],
      "stateMutability": "view",
      "type": "function"
    },
    {
      "inputs": [
        {
          "internalType": "address payable",
          "name": "_vault",
          "type": "address"
        },
        {
          "internalType": "address",
          "name": "_underlyingToken",
          "type": "address"
        },
        {
          "internalType": "address",
          "name": "_masterChef",
          "type": "address"
        }
      ],
      "name": "getWithdrawAllCodes",
      "outputs": [
        {
          "internalType": "bytes[]",
          "name": "",
          "type": "bytes[]"
        }
      ],
      "stateMutability": "view",
      "type": "function"
    },
    {
      "inputs": [
        {
          "internalType": "address payable",
          "name": "",
          "type": "address"
        },
        {
          "internalType": "address",
          "name": "_underlyingToken",
          "type": "address"
        },
        {
          "internalType": "address",
          "name": "_masterChef",
          "type": "address"
        },
        {
          "internalType": "uint256",
          "name": "_redeemAmount",
          "type": "uint256"
        }
      ],
      "name": "getWithdrawSomeCodes",
      "outputs": [
        {
          "internalType": "bytes[]",
          "name": "_codes",
          "type": "bytes[]"
        }
      ],
      "stateMutability": "view",
      "type": "function"
    },
    {
      "inputs": [
        {
          "internalType": "address payable",
          "name": "_vault",
          "type": "address"
        },
        {
          "internalType": "address",
          "name": "_underlyingToken",
          "type": "address"
        },
        {
          "internalType": "address",
          "name": "_masterChef",
          "type": "address"
        },
        {
          "internalType": "uint256",
          "name": "_redeemAmount",
          "type": "uint256"
        }
      ],
      "name": "isRedeemableAmountSufficient",
      "outputs": [
        {
          "internalType": "bool",
          "name": "",
          "type": "bool"
        }
      ],
      "stateMutability": "view",
      "type": "function"
    },
    {
      "inputs": [
        {
          "internalType": "address",
          "name": "",
          "type": "address"
        },
        {
          "internalType": "address",
          "name": "",
          "type": "address"
        }
      ],
      "name": "maxDepositAmount",
      "outputs": [
        {
          "internalType": "uint256",
          "name": "",
          "type": "uint256"
        }
      ],
      "stateMutability": "view",
      "type": "function"
    },
    {
      "inputs": [
        {
          "internalType": "address",
          "name": "",
          "type": "address"
        }
      ],
      "name": "maxDepositPoolPct",
      "outputs": [
        {
          "internalType": "uint256",
          "name": "",
          "type": "uint256"
        }
      ],
      "stateMutability": "view",
      "type": "function"
    },
    {
      "inputs": [],
      "name": "maxDepositProtocolMode",
      "outputs": [
        {
          "internalType": "enum MaxExposure",
          "name": "",
          "type": "uint8"
        }
      ],
      "stateMutability": "view",
      "type": "function"
    },
    {
      "inputs": [],
      "name": "maxDepositProtocolPct",
      "outputs": [
        {
          "internalType": "uint256",
          "name": "",
          "type": "uint256"
        }
      ],
      "stateMutability": "view",
      "type": "function"
    },
    {
      "inputs": [],
      "name": "registryContract",
      "outputs": [
        {
          "internalType": "contract IRegistry",
          "name": "",
          "type": "address"
        }
      ],
      "stateMutability": "view",
      "type": "function"
    },
    {
      "inputs": [
        {
          "internalType": "address",
          "name": "_masterChef",
          "type": "address"
        },
        {
          "internalType": "address",
          "name": "_underlyingToken",
          "type": "address"
        },
        {
          "internalType": "uint256",
          "name": "_maxDepositAmount",
          "type": "uint256"
        }
      ],
      "name": "setMaxDepositAmount",
      "outputs": [],
      "stateMutability": "nonpayable",
      "type": "function"
    },
    {
      "inputs": [
        {
          "internalType": "address",
          "name": "_underlyingToken",
          "type": "address"
        },
        {
          "internalType": "uint256",
          "name": "_maxDepositPoolPct",
          "type": "uint256"
        }
      ],
      "name": "setMaxDepositPoolPct",
      "outputs": [],
      "stateMutability": "nonpayable",
      "type": "function"
    },
    {
      "inputs": [
        {
          "internalType": "enum MaxExposure",
          "name": "_mode",
          "type": "uint8"
        }
      ],
      "name": "setMaxDepositProtocolMode",
      "outputs": [],
      "stateMutability": "nonpayable",
      "type": "function"
    },
    {
      "inputs": [
        {
          "internalType": "uint256",
          "name": "_maxDepositProtocolPct",
          "type": "uint256"
        }
      ],
      "name": "setMaxDepositProtocolPct",
      "outputs": [],
      "stateMutability": "nonpayable",
      "type": "function"
    },
    {
      "inputs": [
        {
          "internalType": "address",
          "name": "_registry",
          "type": "address"
        }
      ],
      "name": "setRegistry",
      "outputs": [],
      "stateMutability": "nonpayable",
      "type": "function"
    },
    {
      "inputs": [
        {
          "internalType": "address[]",
          "name": "_underlyingTokens",
          "type": "address[]"
        },
        {
          "internalType": "uint256[]",
          "name": "_pids",
          "type": "uint256[]"
        }
      ],
      "name": "setUnderlyingTokenToPid",
      "outputs": [],
      "stateMutability": "nonpayable",
      "type": "function"
    },
    {
      "inputs": [
        {
          "internalType": "address",
          "name": "",
          "type": "address"
        }
      ],
      "name": "underlyingTokenToPid",
      "outputs": [
        {
          "internalType": "uint256",
          "name": "",
          "type": "uint256"
        }
      ],
      "stateMutability": "view",
      "type": "function"
    }
  ],
  "transactionHash": "0x9d1f6710296e77402f0f209be2c3e70a506dd5df43b27f16eb0ac796e1f3de20",
  "args": [
    "0x99fa011e33a8c6196869dec7bc407e896ba67fe3"
  ],
  "bytecode": "0x608060405234801561001057600080fd5b5060405161223a38038061223a83398101604081905261002f9161025e565b600080546001600160a01b0319166001600160a01b038316178082556127106001908155919060ff60a01b1916600160a01b830217905550506004602081905260017f692f6c1bea7ad41311f3decfbc930dbadfbcedbf7f698ca59515c625be85b6685560027f7caf90e268e2c12a138bf844a42e8757bcd8fcf71bebda5cbb0edb3c30ba4b4f557fc962c565abd2b2196fcb2e82b02ae64463f35e26c4c4bd6057539abc1380cab65560067f77332721bfcf5f9ec969c9b73d3fd2c893b56897008bc447fa18ae0dfc226f2c5560087fefd1f7b44462bbf1d41838fcbe5692ff6e0bd4d4f20aa574db517dc2596c43bc55600c7ffa41f22f94fa727879a23637f16dab243d1abee8d8e6496f98c315128aed36f45560127f6c438e12ad7b1aee99cd6636a76464b7c1c706ff0adc018575a40234fa307c405560137f42f530ddac2a72e5c67ef8424763406c89d16c88ae0a2d6bcb39b8f652c7efb05560157f12e18b540d3061d1d2ad299021efcc9204dd3b8764717cc18a78352e13cc4f485560257fbdd00bc0b8a20fe13b6080a0ec1a00845dc027e5dd28eb22f5970c6196c953e755606d7fa24dc8c7faf234c310ddcdc5890b6e7ad7fec8cbf43c01df134e03f0277d82655560f07f281313d65dd2d2908ab77aca8feb5bcef712777324af1bd7bf01ab8644cf2a4d55736a091a3406e0073c3cd6340122143009adac0eda60005260f47fc3dbf0b9aa6805cc3f7be32a8486eaedb80870b6cce44eace0733135c86a5e3d5561028c565b60006020828403121561026f578081fd5b81516001600160a01b0381168114610285578182fd5b9392505050565b611f9f8061029b6000396000f3fe608060405234801561001057600080fd5b506004361061028a5760003560e01c80637528e3ab1161015c578063c4e481e7116100ce578063e4aceee711610087578063e4aceee71461051b578063ee665bed14610455578063ef856be914610523578063efa3854e14610543578063f1aacbb71461054b578063f49307ca1461055e5761028a565b8063c4e481e7146104b4578063d463fcf6146104bc578063d74baaf8146104cf578063da699f96146104e2578063df935722146104f5578063e49d5ecc146105085761028a565b806385541e441161012057806385541e441461045557806390e61605146103de578063919b69d714610468578063a91ee0dc1461047b578063aab97a9e1461048e578063b3fe7f5a146104a15761028a565b80637528e3ab1461040c57806377078872146104145780637c47b3f4146104275780637df50ed81461043a57806381e139f31461044d5761028a565b80632af06b96116102005780634ad36e02116101b95780634ad36e02146103a55780634f83b52d146103b857806360925779146103cb57806364dd5f80146103de5780636d267d7c146103f15780636eecde39146104045761028a565b80632af06b961461033a5780632de778381461034f5780633600e32a1461036257806336d8bf931461036a57806337a9d7611461038a578063489b5295146103925761028a565b806317febb1b1161025257806317febb1b1461030a578063191c194b14610312578063194cbe7b1461031a57806323e84c1e14610322578063277754ed1461032a57806328c1f99b146103325761028a565b806301073cdf1461028f578063027a304d146102a45780630c34cabd146102cd5780630c9d8d5c146102e2578063116d602714610302575b600080fd5b6102a261029d3660046119a9565b610571565b005b6102b76102b236600461192c565b6106b3565b6040516102c49190611ed5565b60405180910390f35b6102d56106d0565b6040516102c49190611bf5565b6102f56102f0366004611892565b6106e8565b6040516102c49190611ce0565b6102d561077c565b6102d5610794565b6102b76107ac565b6102d56107b2565b6102d56107ca565b6102d56107e2565b6102d56107fa565b610342610809565b6040516102c49190611d4b565b6102b761035d36600461192c565b610819565b6102d56108a1565b61037d610378366004611822565b6108b9565b6040516102c49190611d40565b6102d56108bf565b6102f56103a0366004611892565b6108d7565b6102b76103b33660046118dc565b61095b565b6102b76103c6366004611822565b6109f5565b6102f56103d93660046118dc565b610a07565b6102b76103ec366004611892565b610ad1565b6102f56103ff36600461185a565b610b6a565b6102d5610b72565b6102d5610b8a565b6102d5610422366004611822565b610ba2565b6102a2610435366004611b47565b610c15565b6102f561044836600461185a565b610d33565b6102d5610e47565b6102b761046336600461193e565b61089b565b6102a261047636600461197e565b610e5f565b6102a2610489366004611822565b610f5c565b6102b761049c366004611822565b611060565b6102b76104af366004611892565b611072565b6102d5611103565b6102f56104ca3660046118dc565b61111b565b6102d56104dd36600461192c565b61122e565b6102a26104f0366004611b99565b611232565b6102f56105033660046118dc565b61131b565b61037d6105163660046118dc565b6114ea565b6102d5611503565b61053661053136600461192c565b61151b565b6040516102c49190611c93565b6102d5611535565b6102a261055936600461193e565b61154d565b6102f561056c366004611892565b61165a565b60008054906101000a90046001600160a01b03166001600160a01b031663e7f43c686040518163ffffffff1660e01b815260040160206040518083038186803b1580156105bd57600080fd5b505afa1580156105d1573d6000803e3d6000fd5b505050506040513d601f19601f820116820180604052508101906105f5919061183e565b6001600160a01b0316336001600160a01b03161461062e5760405162461bcd60e51b815260040161062590611d7f565b60405180910390fd5b815181518082146106515760405162461bcd60e51b815260040161062590611e2e565b60005b828110156106ac5783818151811061066857fe5b60200260200101516004600087848151811061068057fe5b6020908102919091018101516001600160a01b0316825281019190915260400160002055600101610654565b5050505050565b600360209081526000928352604080842090915290825290205481565b73a1d7b2d891e3a1f9ef4bbc5be20630c2feb1c47081565b60606107748484846106f986610ba2565b6001600160a01b03166370a08231896040518263ffffffff1660e01b81526004016107249190611bf5565b60206040518083038186803b15801561073c57600080fd5b505afa158015610750573d6000803e3d6000fd5b505050506040513d601f19601f820116820180604052508101906104ca9190611bb1565b949350505050565b7331503dcb60119a812fee820bb7042752019f235581565b736a091a3406e0073c3cd6340122143009adac0eda81565b60015481565b73d75ea151a61d06868e31f8988d28dfe5e9df57b481565b73c3d03e4f041fd4cd388c549ee2a29a9e5075882f81565b73d9e1ce17f2641f24ae83637ab66a2cca9c378b9f81565b6000546001600160a01b031681565b600054600160a01b900460ff1681565b6040516370a0823160e01b81526000906001600160a01b038316906370a0823190610848908690600401611bf5565b60206040518083038186803b15801561086057600080fd5b505afa158015610874573d6000803e3d6000fd5b505050506040513d601f19601f820116820180604052508101906108989190611bb1565b90505b92915050565b73795065dcc9f64b5614c407a6efdc400da6221fb081565b50600090565b73c558f600b34a5f69dd2f0d06cb8a88d829b7420a81565b6060610774848484866001600160a01b03166370a08231896040518263ffffffff1660e01b815260040161090b9190611bf5565b60206040518083038186803b15801561092357600080fd5b505afa158015610937573d6000803e3d6000fd5b505050506040513d601f19601f820116820180604052508101906105039190611bb1565b6001600160a01b0383811660009081526004602081905260408083205490516393f1a40b60e01b815292938616926393f1a40b9261099c92918a9101611ede565b604080518083038186803b1580156109b357600080fd5b505afa1580156109c7573d6000803e3d6000fd5b505050506040513d601f19601f820116820180604052508101906109eb9190611b66565b5195945050505050565b60026020526000908152604090205481565b606081156107745760408051600180825281830190925290816020015b6060815260200190600190039081610a245750506001600160a01b038516600090815260046020526040908190205490519192508491610a6991908590602401611ef5565b60408051601f19818403018152918152602080830180516001600160e01b0316630441a3e760e41b1790529051610aa293929101611c56565b60405160208183030381529060405281600081518110610abe57fe5b6020026020010181905250949350505050565b6001600160a01b0382811660009081526004602081905260408083205490516393f1a40b60e01b815292938516926393f1a40b92610b129291899101611ede565b604080518083038186803b158015610b2957600080fd5b505afa158015610b3d573d6000803e3d6000fd5b505050506040513d601f19601f82011682018060405250810190610b619190611b66565b51949350505050565b606092915050565b7336e2fcccc59e5747ff63a03ea2e5c0c2c14911e781565b731bec4db6c3bc499f3dbf289f5499c30d541fec9781565b6000816001600160a01b0316630a0879036040518163ffffffff1660e01b815260040160206040518083038186803b158015610bdd57600080fd5b505afa158015610bf1573d6000803e3d6000fd5b505050506040513d601f19601f8201168201806040525081019061089b919061183e565b60008054906101000a90046001600160a01b03166001600160a01b0316637af0e5576040518163ffffffff1660e01b815260040160206040518083038186803b158015610c6157600080fd5b505afa158015610c75573d6000803e3d6000fd5b505050506040513d601f19601f82011682018060405250810190610c99919061183e565b6001600160a01b0316336001600160a01b031614610cc95760405162461bcd60e51b815260040161062590611e9e565b6000805482919060ff60a01b1916600160a01b836001811115610ce857fe5b02179055506000543390600160a01b900460ff166001811115610d0757fe5b6040517f68e3b01155b193b02181f2c0ed491c934a74348d211ff023f8fc6ac5edf22aa090600090a350565b6000546040805163450b674360e11b815290516060926001600160a01b031691638a16ce86916004808301926020929190829003018186803b158015610d7857600080fd5b505afa158015610d8c573d6000803e3d6000fd5b505050506040513d601f19601f82011682018060405250810190610db0919061183e565b6001600160a01b031663f8e9dfc273d9e1ce17f2641f24ae83637ab66a2cca9c378b9f85856040518463ffffffff1660e01b8152600401610df393929190611c33565b60006040518083038186803b158015610e0b57600080fd5b505afa158015610e1f573d6000803e3d6000fd5b505050506040513d6000823e601f3d908101601f191682016040526108989190810190611a6c565b73397ff1542f962076d0bfe58ea045ffa2d347aca081565b60008054906101000a90046001600160a01b03166001600160a01b0316637af0e5576040518163ffffffff1660e01b815260040160206040518083038186803b158015610eab57600080fd5b505afa158015610ebf573d6000803e3d6000fd5b505050506040513d601f19601f82011682018060405250810190610ee3919061183e565b6001600160a01b0316336001600160a01b031614610f135760405162461bcd60e51b815260040161062590611e9e565b6001600160a01b03821660009081526002602052604080822083905551339183917fac58e29a41d996caca756d050dce90806b277f0c939337653638329247e16f4c9190a35050565b60008054906101000a90046001600160a01b03166001600160a01b031663e7f43c686040518163ffffffff1660e01b815260040160206040518083038186803b158015610fa857600080fd5b505afa158015610fbc573d6000803e3d6000fd5b505050506040513d601f19601f82011682018060405250810190610fe0919061183e565b6001600160a01b0316336001600160a01b0316146110105760405162461bcd60e51b815260040161062590611d7f565b611022816001600160a01b031661166d565b61103e5760405162461bcd60e51b815260040161062590611e79565b600080546001600160a01b0319166001600160a01b0392909216919091179055565b60046020526000908152604090205481565b6001600160a01b03818116600090815260046020819052604080832054905163065509bb60e21b8152929386169263195426ec926110b39291899101611ede565b60206040518083038186803b1580156110cb57600080fd5b505afa1580156110df573d6000803e3d6000fd5b505050506040513d601f19601f820116820180604052508101906107749190611bb1565b73c40d16476380e4037e6b1a2594caf6a6cc8da96781565b6000546040805163450b674360e11b815290516060926001600160a01b031691638a16ce86916004808301926020929190829003018186803b15801561116057600080fd5b505afa158015611174573d6000803e3d6000fd5b505050506040513d601f19601f82011682018060405250810190611198919061183e565b6001600160a01b031663218826cd866111b086610ba2565b87866040518563ffffffff1660e01b81526004016111d19493929190611c09565b60006040518083038186803b1580156111e957600080fd5b505afa1580156111fd573d6000803e3d6000fd5b505050506040513d6000823e601f3d908101601f191682016040526112259190810190611a6c565b95945050505050565b5090565b60008054906101000a90046001600160a01b03166001600160a01b0316637af0e5576040518163ffffffff1660e01b815260040160206040518083038186803b15801561127e57600080fd5b505afa158015611292573d6000803e3d6000fd5b505050506040513d601f19601f820116820180604052508101906112b6919061183e565b6001600160a01b0316336001600160a01b0316146112e65760405162461bcd60e51b815260040161062590611e9e565b6001819055604051339082907f19c60b0612798cc65bd298cd47e17d9fd07e74e0d3baa6c0019411bb334d9bda90600090a350565b60608115610774576000611330848685611673565b60408051600380825260808201909252919250816020015b606081526020019060019003908161134857905050915084846000604051602401611374929190611c7a565b60408051601f19818403018152918152602080830180516001600160e01b031663095ea7b360e01b17905290516113ad93929101611c56565b604051602081830303815290604052826000815181106113c957fe5b60200260200101819052508484826040516024016113e8929190611c7a565b60408051601f19818403018152918152602080830180516001600160e01b031663095ea7b360e01b179052905161142193929101611c56565b6040516020818303038152906040528260018151811061143d57fe5b60200260200101819052508360046000876001600160a01b03166001600160a01b031681526020019081526020016000205482604051602401611481929190611ef5565b60408051601f19818403018152918152602080830180516001600160e01b0316631c57762b60e31b17905290516114ba93929101611c56565b604051602081830303815290604052826002815181106114d657fe5b602002602001018190525050949350505050565b6000816114f8868686610ad1565b101595945050505050565b73dafd66636e2561b0284edde37e42d192f2844d4081565b606060405162461bcd60e51b815260040161062590611d5f565b73ceff51756c56ceffca006cd410b03ffc46dd3a5881565b60008054906101000a90046001600160a01b03166001600160a01b0316637af0e5576040518163ffffffff1660e01b815260040160206040518083038186803b15801561159957600080fd5b505afa1580156115ad573d6000803e3d6000fd5b505050506040513d601f19601f820116820180604052508101906115d1919061183e565b6001600160a01b0316336001600160a01b0316146116015760405162461bcd60e51b815260040161062590611e9e565b6001600160a01b03838116600090815260036020908152604080832093861683529290528181208390559051339183917f197807a6a2633dd9bde6550aca985cfc69e655e9130930314c0e9da01a75cc549190a3505050565b60606107748484846103d9888888610ad1565b3b151590565b6000806001600054600160a01b900460ff16600181111561169057fe5b146116c0576001600160a01b038086166000908152600360209081526040808320938816835292905220546116ca565b6116ca85856116d9565b90508083116107745782611225565b6000806116e68484610819565b6001600160a01b03841660009081526002602052604081205491925081156117235761171e6127106117188585611748565b90611782565b61173e565b61173e6127106117186001548661174890919063ffffffff16565b9695505050505050565b6000826117575750600061089b565b8282028284828161176457fe5b04146108985760405162461bcd60e51b815260040161062590611ded565b60008082116117a35760405162461bcd60e51b815260040161062590611db6565b8183816117ac57fe5b049392505050565b600082601f8301126117c4578081fd5b81356117d76117d282611f2a565b611f03565b8181529150602080830190848101818402860182018710156117f857600080fd5b60005b84811015611817578135845292820192908201906001016117fb565b505050505092915050565b600060208284031215611833578081fd5b813561089881611f7a565b60006020828403121561184f578081fd5b815161089881611f7a565b6000806040838503121561186c578081fd5b823561187781611f7a565b9150602083013561188781611f7a565b809150509250929050565b6000806000606084860312156118a6578081fd5b83356118b181611f7a565b925060208401356118c181611f7a565b915060408401356118d181611f7a565b809150509250925092565b600080600080608085870312156118f1578081fd5b84356118fc81611f7a565b9350602085013561190c81611f7a565b9250604085013561191c81611f7a565b9396929550929360600135925050565b6000806040838503121561186c578182fd5b600080600060608486031215611952578283fd5b833561195d81611f7a565b9250602084013561196d81611f7a565b929592945050506040919091013590565b60008060408385031215611990578182fd5b823561199b81611f7a565b946020939093013593505050565b600080604083850312156119bb578182fd5b823567ffffffffffffffff808211156119d2578384fd5b818501915085601f8301126119e5578384fd5b81356119f36117d282611f2a565b80828252602080830192508086018a828387028901011115611a13578889fd5b8896505b84871015611a3e578035611a2a81611f7a565b845260019690960195928101928101611a17565b509096508701359350505080821115611a55578283fd5b50611a62858286016117b4565b9150509250929050565b60006020808385031215611a7e578182fd5b825167ffffffffffffffff80821115611a95578384fd5b8185019150601f8681840112611aa9578485fd5b8251611ab76117d282611f2a565b81815285810190858701885b84811015611b3757815188018c603f820112611add578a8bfd5b8981015188811115611aed578b8cfd5b611afe818901601f19168c01611f03565b81815260408f81848601011115611b13578d8efd5b611b22838e8401838701611f4a565b50865250509288019290880190600101611ac3565b50909a9950505050505050505050565b600060208284031215611b58578081fd5b813560028110610898578182fd5b600060408284031215611b77578081fd5b611b816040611f03565b82518152602083015160208201528091505092915050565b600060208284031215611baa578081fd5b5035919050565b600060208284031215611bc2578081fd5b5051919050565b60008151808452611be1816020860160208601611f4a565b601f01601f19169290920160200192915050565b6001600160a01b0391909116815260200190565b6001600160a01b039485168152928416602084015292166040820152606081019190915260800190565b6001600160a01b0393841681529183166020830152909116604082015260600190565b6001600160a01b038316815260406020820181905260009061077490830184611bc9565b6001600160a01b03929092168252602082015260400190565b6020808252825182820181905260009190848201906040850190845b81811015611cd45783516001600160a01b031683529284019291840191600101611caf565b50909695505050505050565b6000602080830181845280855180835260408601915060408482028701019250838701855b82811015611d3357603f19888603018452611d21858351611bc9565b94509285019290850190600101611d05565b5092979650505050505050565b901515815260200190565b6020810160028310611d5957fe5b91905290565b60208082526006908201526521656d70747960d01b604082015260600190565b6020808252601a908201527f63616c6c6572206973206e6f7420746865206f70657261746f72000000000000604082015260600190565b6020808252601a908201527f536166654d6174683a206469766973696f6e206279207a65726f000000000000604082015260600190565b60208082526021908201527f536166654d6174683a206d756c7469706c69636174696f6e206f766572666c6f6040820152607760f81b606082015260800190565b6020808252602b908201527f696e657175616c206c656e677468206f6620756e6465726c79696e67746f6b6560408201526a6e7320616e64207069647360a81b606082015260800190565b6020808252600b908201526a085a5cd0dbdb9d1c9858dd60aa1b604082015260600190565b6020808252601e908201527f63616c6c6572206973206e6f7420746865207269736b4f70657261746f720000604082015260600190565b90815260200190565b9182526001600160a01b0316602082015260400190565b918252602082015260400190565b60405181810167ffffffffffffffff81118282101715611f2257600080fd5b604052919050565b600067ffffffffffffffff821115611f40578081fd5b5060209081020190565b60005b83811015611f65578181015183820152602001611f4d565b83811115611f74576000848401525b50505050565b6001600160a01b0381168114611f8f57600080fd5b5056fea164736f6c634300060c000a"
}