{
  "address": "0xFfc22425d67ed8a72B95CBF46EC6167246df93F8",
  "abi": [
    {
      "inputs": [
        {
          "internalType": "address",
          "name": "_registry",
          "type": "address"
        }
      ],
      "stateMutability": "nonpayable",
      "type": "constructor"
    },
    {
      "inputs": [
        {
          "internalType": "uint256",
          "name": "_riskProfileCode",
          "type": "uint256"
        },
        {
          "internalType": "bytes32",
          "name": "_underlyingTokensHash",
          "type": "bytes32"
        }
      ],
      "name": "getRpToTokenToBestStrategy",
      "outputs": [
        {
          "components": [
            {
              "internalType": "address",
              "name": "pool",
              "type": "address"
            },
            {
              "internalType": "address",
              "name": "outputToken",
              "type": "address"
            },
            {
              "internalType": "bool",
              "name": "isBorrow",
              "type": "bool"
            }
          ],
          "internalType": "struct DataTypes.StrategyStep[]",
          "name": "",
          "type": "tuple[]"
        }
      ],
      "stateMutability": "view",
      "type": "function"
    },
    {
      "inputs": [
        {
          "internalType": "uint256",
          "name": "_riskProfileCode",
          "type": "uint256"
        },
        {
          "internalType": "bytes32",
          "name": "_underlyingTokensHash",
          "type": "bytes32"
        }
      ],
      "name": "getRpToTokenToDefaultStrategy",
      "outputs": [
        {
          "components": [
            {
              "internalType": "address",
              "name": "pool",
              "type": "address"
            },
            {
              "internalType": "address",
              "name": "outputToken",
              "type": "address"
            },
            {
              "internalType": "bool",
              "name": "isBorrow",
              "type": "bool"
            }
          ],
          "internalType": "struct DataTypes.StrategyStep[]",
          "name": "",
          "type": "tuple[]"
        }
      ],
      "stateMutability": "view",
      "type": "function"
    },
    {
      "inputs": [
        {
          "internalType": "bytes32",
          "name": "_vaultRewardTokenHash",
          "type": "bytes32"
        }
      ],
      "name": "getVaultRewardTokenHashToVaultRewardTokenStrategy",
      "outputs": [
        {
          "components": [
            {
              "internalType": "uint256",
              "name": "hold",
              "type": "uint256"
            },
            {
              "internalType": "uint256",
              "name": "convert",
              "type": "uint256"
            }
          ],
          "internalType": "struct DataTypes.VaultRewardStrategy",
          "name": "",
          "type": "tuple"
        }
      ],
      "stateMutability": "view",
      "type": "function"
    },
    {
      "inputs": [],
      "name": "registryContract",
      "outputs": [
        {
          "internalType": "contract IRegistry",
          "name": "",
          "type": "address"
        }
      ],
      "stateMutability": "view",
      "type": "function"
    },
    {
      "inputs": [
        {
          "internalType": "uint256",
          "name": "",
          "type": "uint256"
        },
        {
          "internalType": "bytes32",
          "name": "",
          "type": "bytes32"
        },
        {
          "internalType": "uint256",
          "name": "",
          "type": "uint256"
        }
      ],
      "name": "rpToTokenToBestStrategy",
      "outputs": [
        {
          "internalType": "address",
          "name": "pool",
          "type": "address"
        },
        {
          "internalType": "address",
          "name": "outputToken",
          "type": "address"
        },
        {
          "internalType": "bool",
          "name": "isBorrow",
          "type": "bool"
        }
      ],
      "stateMutability": "view",
      "type": "function"
    },
    {
      "inputs": [
        {
          "internalType": "uint256",
          "name": "",
          "type": "uint256"
        },
        {
          "internalType": "bytes32",
          "name": "",
          "type": "bytes32"
        },
        {
          "internalType": "uint256",
          "name": "",
          "type": "uint256"
        }
      ],
      "name": "rpToTokenToDefaultStrategy",
      "outputs": [
        {
          "internalType": "address",
          "name": "pool",
          "type": "address"
        },
        {
          "internalType": "address",
          "name": "outputToken",
          "type": "address"
        },
        {
          "internalType": "bool",
          "name": "isBorrow",
          "type": "bool"
        }
      ],
      "stateMutability": "view",
      "type": "function"
    },
    {
      "inputs": [
        {
          "internalType": "uint256",
          "name": "_riskProfileCode",
          "type": "uint256"
        },
        {
          "internalType": "bytes32",
          "name": "_underlyingTokensHash",
          "type": "bytes32"
        },
        {
          "components": [
            {
              "internalType": "address",
              "name": "pool",
              "type": "address"
            },
            {
              "internalType": "address",
              "name": "outputToken",
              "type": "address"
            },
            {
              "internalType": "bool",
              "name": "isBorrow",
              "type": "bool"
            }
          ],
          "internalType": "struct DataTypes.StrategyStep[]",
          "name": "_strategySteps",
          "type": "tuple[]"
        }
      ],
      "name": "setBestDefaultStrategy",
      "outputs": [],
      "stateMutability": "nonpayable",
      "type": "function"
    },
    {
      "inputs": [
        {
          "internalType": "uint256",
          "name": "_riskProfileCode",
          "type": "uint256"
        },
        {
          "internalType": "bytes32",
          "name": "_underlyingTokensHash",
          "type": "bytes32"
        },
        {
          "components": [
            {
              "internalType": "address",
              "name": "pool",
              "type": "address"
            },
            {
              "internalType": "address",
              "name": "outputToken",
              "type": "address"
            },
            {
              "internalType": "bool",
              "name": "isBorrow",
              "type": "bool"
            }
          ],
          "internalType": "struct DataTypes.StrategyStep[]",
          "name": "_strategySteps",
          "type": "tuple[]"
        }
      ],
      "name": "setBestStrategy",
      "outputs": [],
      "stateMutability": "nonpayable",
      "type": "function"
    },
    {
      "inputs": [
        {
          "internalType": "address",
          "name": "_registry",
          "type": "address"
        }
      ],
      "name": "setRegistry",
      "outputs": [],
      "stateMutability": "nonpayable",
      "type": "function"
    },
    {
      "inputs": [
        {
          "internalType": "bytes32",
          "name": "_vaultRewardTokenHash",
          "type": "bytes32"
        },
        {
          "components": [
            {
              "internalType": "uint256",
              "name": "hold",
              "type": "uint256"
            },
            {
              "internalType": "uint256",
              "name": "convert",
              "type": "uint256"
            }
          ],
          "internalType": "struct DataTypes.VaultRewardStrategy",
          "name": "_vaultRewardStrategy",
          "type": "tuple"
        }
      ],
      "name": "setVaultRewardStrategy",
      "outputs": [
        {
          "components": [
            {
              "internalType": "uint256",
              "name": "hold",
              "type": "uint256"
            },
            {
              "internalType": "uint256",
              "name": "convert",
              "type": "uint256"
            }
          ],
          "internalType": "struct DataTypes.VaultRewardStrategy",
          "name": "",
          "type": "tuple"
        }
      ],
      "stateMutability": "nonpayable",
      "type": "function"
    },
    {
      "inputs": [
        {
          "internalType": "bytes32",
          "name": "",
          "type": "bytes32"
        }
      ],
      "name": "vaultRewardTokenHashToVaultRewardTokenStrategy",
      "outputs": [
        {
          "internalType": "uint256",
          "name": "hold",
          "type": "uint256"
        },
        {
          "internalType": "uint256",
          "name": "convert",
          "type": "uint256"
        }
      ],
      "stateMutability": "view",
      "type": "function"
    }
  ],
  "transactionHash": "0xefcaa36dfa8ae06e41918ec6265a233df392a9792d47bb055f67d16677408daf",
  "args": [
    "0xf710F75418353B36F2624784c290B80e7a5C892A"
  ],
  "bytecode": "0x608060405234801561001057600080fd5b50604051610d96380380610d9683398101604081905261002f91610054565b600080546001600160a01b0319166001600160a01b0392909216919091179055610082565b600060208284031215610065578081fd5b81516001600160a01b038116811461007b578182fd5b9392505050565b610d05806100916000396000f3fe608060405234801561001057600080fd5b50600436106100a95760003560e01c8063a91ee0dc11610071578063a91ee0dc14610144578063b06eed5e14610157578063d11917d51461016a578063e914aac51461018a578063f0e182e71461019d578063f4448faf146101b0576100a9565b80631ae5c8cb146100ae57806328c1f99b146100d95780632f5fa900146100ee5780632f647a2314610103578063373b9a8a14610124575b600080fd5b6100c16100bc366004610b2f565b6101c3565b6040516100d093929190610b5a565b60405180910390f35b6100e1610221565b6040516100d09190610be5565b6101016100fc366004610a6e565b610230565b005b6101166101113660046109e6565b6103bc565b6040516100d0929190610cae565b6101376101323660046109fe565b6103d5565b6040516100d09190610c97565b6101016101523660046109a7565b6104c6565b610101610165366004610a6e565b6105ca565b61017d610178366004610a4d565b610747565b6040516100d09190610b7e565b6100c1610198366004610b2f565b6107e9565b61017d6101ab366004610a4d565b61080e565b6101376101be3660046109e6565b6108a1565b600260205282600052604060002060205281600052604060002081815481106101e857fe5b6000918252602090912060029091020180546001909101546001600160a01b0391821694509081169250600160a01b900460ff16905083565b6000546001600160a01b031681565b60008054906101000a90046001600160a01b03166001600160a01b031663fabee0e66040518163ffffffff1660e01b815260040160206040518083038186803b15801561027c57600080fd5b505afa158015610290573d6000803e3d6000fd5b505050506040513d601f19601f820116820180604052508101906102b491906109ca565b6001600160a01b0316336001600160a01b0316146102ed5760405162461bcd60e51b81526004016102e490610c30565b60405180910390fd5b6000838152600260209081526040808320858452909152812061030f916108d9565b60005b81518110156103b65760008481526002602090815260408083208684529091529020825183908390811061034257fe5b602090810291909101810151825460018082018555600094855293839020825160029092020180546001600160a01b03199081166001600160a01b039384161782559383015190850180546040909401519390941691161760ff60a01b1916600160a01b9115159190910217905501610312565b50505050565b6003602052600090815260409020805460019091015482565b6103dd6108fd565b60008054906101000a90046001600160a01b03166001600160a01b031663fabee0e66040518163ffffffff1660e01b815260040160206040518083038186803b15801561042957600080fd5b505afa15801561043d573d6000803e3d6000fd5b505050506040513d601f19601f8201168201806040525081019061046191906109ca565b6001600160a01b0316336001600160a01b0316146104915760405162461bcd60e51b81526004016102e490610c30565b508051600092835260036020908152604093849020828155928101516001909301839055835180850190945290835282015290565b60008054906101000a90046001600160a01b03166001600160a01b031663e7f43c686040518163ffffffff1660e01b815260040160206040518083038186803b15801561051257600080fd5b505afa158015610526573d6000803e3d6000fd5b505050506040513d601f19601f8201168201806040525081019061054a91906109ca565b6001600160a01b0316336001600160a01b03161461057a5760405162461bcd60e51b81526004016102e490610bf9565b61058c816001600160a01b03166108d3565b6105a85760405162461bcd60e51b81526004016102e490610c72565b600080546001600160a01b0319166001600160a01b0392909216919091179055565b60008054906101000a90046001600160a01b03166001600160a01b031663fabee0e66040518163ffffffff1660e01b815260040160206040518083038186803b15801561061657600080fd5b505afa15801561062a573d6000803e3d6000fd5b505050506040513d601f19601f8201168201806040525081019061064e91906109ca565b6001600160a01b0316336001600160a01b03161461067e5760405162461bcd60e51b81526004016102e490610c30565b600083815260016020908152604080832085845290915281206106a0916108d9565b60005b81518110156103b6576000848152600160209081526040808320868452909152902082518390839081106106d357fe5b602090810291909101810151825460018082018555600094855293839020825160029092020180546001600160a01b03199081166001600160a01b039384161782559383015190850180546040909401519390941691161760ff60a01b1916600160a01b91151591909102179055016106a3565b60008281526001602090815260408083208484528252808320805482518185028101850190935280835260609492939192909184015b828210156107dd576000848152602090819020604080516060810182526002860290920180546001600160a01b03908116845260019182015490811684860152600160a01b900460ff16151591830191909152908352909201910161077d565b50505050905092915050565b600160205282600052604060002060205281600052604060002081815481106101e857fe5b600082815260026020908152604080832084845282528083208054825181850281018501909352808352606094929391929091840182156107dd576000848152602090819020604080516060810182526002860290920180546001600160a01b03908116845260019182015490811684860152600160a01b900460ff16151591830191909152908352909201910161077d565b6108a96108fd565b50600090815260036020908152604091829020825180840190935280548352600101549082015290565b3b151590565b50805460008255600202906000526020600020908101906108fa9190610917565b50565b604051806040016040528060008152602001600081525090565b5b808211156109485780546001600160a01b03191681556001810180546001600160a81b0319169055600201610918565b5090565b60006060828403121561095d578081fd5b6109676060610cbc565b9050813561097481610ce3565b8152602082013561098481610ce3565b60208201526040820135801515811461099c57600080fd5b604082015292915050565b6000602082840312156109b8578081fd5b81356109c381610ce3565b9392505050565b6000602082840312156109db578081fd5b81516109c381610ce3565b6000602082840312156109f7578081fd5b5035919050565b6000808284036060811215610a11578182fd5b833592506040601f1982011215610a26578182fd5b50610a316040610cbc565b6020840135815260408401356020820152809150509250929050565b60008060408385031215610a5f578182fd5b50508035926020909101359150565b60008060006060808587031215610a83578182fd5b843593506020808601359350604086013567ffffffffffffffff80821115610aa9578485fd5b818801915088601f830112610abc578485fd5b813581811115610aca578586fd5b610ad78485830201610cbc565b8181528481019250838501868302850186018c1015610af4578788fd5b8794505b82851015610b1e57610b0a8c8261094c565b845260019490940193928501928601610af8565b508096505050505050509250925092565b600080600060608486031215610b43578283fd5b505081359360208301359350604090920135919050565b6001600160a01b039384168152919092166020820152901515604082015260600190565b602080825282518282018190526000919060409081850190868401855b82811015610bd857815180516001600160a01b03908116865287820151168786015285015115158585015260609093019290850190600101610b9b565b5091979650505050505050565b6001600160a01b0391909116815260200190565b6020808252601a908201527f63616c6c6572206973206e6f7420746865206f70657261746f72000000000000604082015260600190565b60208082526022908201527f63616c6c6572206973206e6f74207468652073747261746567794f706572617460408201526137b960f11b606082015260800190565b6020808252600b908201526a085a5cd0dbdb9d1c9858dd60aa1b604082015260600190565b815181526020918201519181019190915260400190565b918252602082015260400190565b60405181810167ffffffffffffffff81118282101715610cdb57600080fd5b604052919050565b6001600160a01b03811681146108fa57600080fdfea164736f6c634300060c000a"
}